{
	"Contracts/TavernV3Pool.sol": {
		"TavernV3Pool": {
			"abi": [
				{
					"inputs": [
						{
							"internalType": "address",
							"name": "poolAddr",
							"type": "address"
						}
					],
					"stateMutability": "nonpayable",
					"type": "constructor"
				},
				{
					"anonymous": false,
					"inputs": [
						{
							"indexed": true,
							"internalType": "address",
							"name": "player",
							"type": "address"
						},
						{
							"indexed": false,
							"internalType": "uint256",
							"name": "wager",
							"type": "uint256"
						},
						{
							"indexed": false,
							"internalType": "bool",
							"name": "won",
							"type": "bool"
						},
						{
							"indexed": false,
							"internalType": "bool",
							"name": "resultChog",
							"type": "bool"
						}
					],
					"name": "CoinPlayed",
					"type": "event"
				},
				{
					"anonymous": false,
					"inputs": [
						{
							"indexed": true,
							"internalType": "address",
							"name": "player",
							"type": "address"
						},
						{
							"indexed": false,
							"internalType": "uint256",
							"name": "wager",
							"type": "uint256"
						},
						{
							"indexed": false,
							"internalType": "bool",
							"name": "win",
							"type": "bool"
						},
						{
							"indexed": false,
							"internalType": "uint8",
							"name": "main",
							"type": "uint8"
						},
						{
							"indexed": false,
							"internalType": "uint8",
							"name": "finalSum",
							"type": "uint8"
						},
						{
							"indexed": false,
							"internalType": "uint8",
							"name": "chance",
							"type": "uint8"
						},
						{
							"indexed": false,
							"internalType": "uint8",
							"name": "iterations",
							"type": "uint8"
						}
					],
					"name": "HazardPlayed",
					"type": "event"
				},
				{
					"anonymous": false,
					"inputs": [
						{
							"indexed": true,
							"internalType": "address",
							"name": "previousOwner",
							"type": "address"
						},
						{
							"indexed": true,
							"internalType": "address",
							"name": "newOwner",
							"type": "address"
						}
					],
					"name": "OwnershipTransferred",
					"type": "event"
				},
				{
					"anonymous": false,
					"inputs": [
						{
							"indexed": false,
							"internalType": "bool",
							"name": "paused",
							"type": "bool"
						}
					],
					"name": "Paused",
					"type": "event"
				},
				{
					"anonymous": false,
					"inputs": [
						{
							"indexed": true,
							"internalType": "address",
							"name": "pool",
							"type": "address"
						}
					],
					"name": "PoolUpdated",
					"type": "event"
				},
				{
					"anonymous": false,
					"inputs": [
						{
							"indexed": true,
							"internalType": "address",
							"name": "player",
							"type": "address"
						},
						{
							"indexed": false,
							"internalType": "uint256",
							"name": "wager",
							"type": "uint256"
						},
						{
							"indexed": false,
							"internalType": "bool",
							"name": "won",
							"type": "bool"
						},
						{
							"indexed": false,
							"internalType": "uint8",
							"name": "winningCup",
							"type": "uint8"
						},
						{
							"indexed": false,
							"internalType": "uint8",
							"name": "guess",
							"type": "uint8"
						}
					],
					"name": "ShellPlayed",
					"type": "event"
				},
				{
					"inputs": [
						{
							"internalType": "address payable",
							"name": "to",
							"type": "address"
						}
					],
					"name": "emergencyWithdrawAll",
					"outputs": [],
					"stateMutability": "nonpayable",
					"type": "function"
				},
				{
					"inputs": [],
					"name": "fund",
					"outputs": [],
					"stateMutability": "payable",
					"type": "function"
				},
				{
					"inputs": [],
					"name": "maxBet",
					"outputs": [
						{
							"internalType": "uint256",
							"name": "",
							"type": "uint256"
						}
					],
					"stateMutability": "view",
					"type": "function"
				},
				{
					"inputs": [],
					"name": "nonce",
					"outputs": [
						{
							"internalType": "uint256",
							"name": "",
							"type": "uint256"
						}
					],
					"stateMutability": "view",
					"type": "function"
				},
				{
					"inputs": [],
					"name": "owner",
					"outputs": [
						{
							"internalType": "address",
							"name": "",
							"type": "address"
						}
					],
					"stateMutability": "view",
					"type": "function"
				},
				{
					"inputs": [
						{
							"internalType": "bool",
							"name": "p",
							"type": "bool"
						}
					],
					"name": "pause",
					"outputs": [],
					"stateMutability": "nonpayable",
					"type": "function"
				},
				{
					"inputs": [],
					"name": "paused",
					"outputs": [
						{
							"internalType": "bool",
							"name": "",
							"type": "bool"
						}
					],
					"stateMutability": "view",
					"type": "function"
				},
				{
					"inputs": [
						{
							"internalType": "bool",
							"name": "chooseChog",
							"type": "bool"
						}
					],
					"name": "playCoin",
					"outputs": [],
					"stateMutability": "payable",
					"type": "function"
				},
				{
					"inputs": [
						{
							"internalType": "uint8",
							"name": "main",
							"type": "uint8"
						}
					],
					"name": "playHazard",
					"outputs": [],
					"stateMutability": "payable",
					"type": "function"
				},
				{
					"inputs": [
						{
							"internalType": "uint8",
							"name": "guess",
							"type": "uint8"
						}
					],
					"name": "playShell",
					"outputs": [],
					"stateMutability": "payable",
					"type": "function"
				},
				{
					"inputs": [],
					"name": "pool",
					"outputs": [
						{
							"internalType": "contract IBankrollPool",
							"name": "",
							"type": "address"
						}
					],
					"stateMutability": "view",
					"type": "function"
				},
				{
					"inputs": [
						{
							"internalType": "uint256",
							"name": "_max",
							"type": "uint256"
						}
					],
					"name": "setMaxBet",
					"outputs": [],
					"stateMutability": "nonpayable",
					"type": "function"
				},
				{
					"inputs": [
						{
							"internalType": "address",
							"name": "poolAddr",
							"type": "address"
						}
					],
					"name": "setPool",
					"outputs": [],
					"stateMutability": "nonpayable",
					"type": "function"
				},
				{
					"inputs": [
						{
							"internalType": "address",
							"name": "newOwner",
							"type": "address"
						}
					],
					"name": "transferOwnership",
					"outputs": [],
					"stateMutability": "nonpayable",
					"type": "function"
				},
				{
					"stateMutability": "payable",
					"type": "receive"
				}
			],
			"devdoc": {
				"kind": "dev",
				"methods": {},
				"title": "TavernV3 (pooled) - Shell, Hazard, Coin using unified BankrollPool for payouts",
				"version": 1
			},
			"evm": {
				"assembly": "    /* \"Contracts/TavernV3Pool.sol\":296:4863  contract TavernV3Pool {... */\n  mstore(0x40, 0x80)\n    /* \"Contracts/TavernV3Pool.sol\":548:549  1 */\n  0x01\n    /* \"Contracts/TavernV3Pool.sol\":522:549  uint256 private _locked = 1 */\n  dup1\n  sstore\n    /* \"Contracts/TavernV3Pool.sol\":604:612  10 ether */\n  0x8ac7230489e80000\n    /* \"Contracts/TavernV3Pool.sol\":580:612  uint256 public maxBet = 10 ether */\n  0x03\n  sstore\n    /* \"Contracts/TavernV3Pool.sol\":1167:1300  constructor(address poolAddr) {... */\n  callvalue\n  dup1\n  iszero\n  tag_1\n  jumpi\n  0x00\n  dup1\n  revert\ntag_1:\n  pop\n  mload(0x40)\n  sub(codesize, bytecodeSize)\n  dup1\n  bytecodeSize\n  dup4\n  codecopy\n  dup2\n  dup2\n  add\n  0x40\n  mstore\n  dup2\n  add\n  swap1\n  tag_2\n  swap2\n  swap1\n  tag_3\n  jump\t// in\ntag_2:\n    /* \"Contracts/TavernV3Pool.sol\":1215:1225  msg.sender */\n  caller\n    /* \"Contracts/TavernV3Pool.sol\":1207:1212  owner */\n  0x00\n  dup1\n    /* \"Contracts/TavernV3Pool.sol\":1207:1225  owner = msg.sender */\n  0x0100\n  exp\n  dup2\n  sload\n  dup2\n  0xffffffffffffffffffffffffffffffffffffffff\n  mul\n  not\n  and\n  swap1\n  dup4\n  0xffffffffffffffffffffffffffffffffffffffff\n  and\n  mul\n  or\n  swap1\n  sstore\n  pop\n    /* \"Contracts/TavernV3Pool.sol\":1259:1260  0 */\n  0x00\n    /* \"Contracts/TavernV3Pool.sol\":1239:1261  poolAddr != address(0) */\n  0xffffffffffffffffffffffffffffffffffffffff\n  and\n    /* \"Contracts/TavernV3Pool.sol\":1239:1247  poolAddr */\n  dup2\n    /* \"Contracts/TavernV3Pool.sol\":1239:1261  poolAddr != address(0) */\n  0xffffffffffffffffffffffffffffffffffffffff\n  and\n  eq\n    /* \"Contracts/TavernV3Pool.sol\":1235:1293  if (poolAddr != address(0)) pool = IBankrollPool(poolAddr) */\n  tag_6\n  jumpi\n    /* \"Contracts/TavernV3Pool.sol\":1284:1292  poolAddr */\n  dup1\n    /* \"Contracts/TavernV3Pool.sol\":1263:1267  pool */\n  0x05\n  0x00\n    /* \"Contracts/TavernV3Pool.sol\":1263:1293  pool = IBankrollPool(poolAddr) */\n  0x0100\n  exp\n  dup2\n  sload\n  dup2\n  0xffffffffffffffffffffffffffffffffffffffff\n  mul\n  not\n  and\n  swap1\n  dup4\n  0xffffffffffffffffffffffffffffffffffffffff\n  and\n  mul\n  or\n  swap1\n  sstore\n  pop\n    /* \"Contracts/TavernV3Pool.sol\":1235:1293  if (poolAddr != address(0)) pool = IBankrollPool(poolAddr) */\ntag_6:\n    /* \"Contracts/TavernV3Pool.sol\":1167:1300  constructor(address poolAddr) {... */\n  pop\n    /* \"Contracts/TavernV3Pool.sol\":296:4863  contract TavernV3Pool {... */\n  jump(tag_7)\n    /* \"#utility.yul\":88:205   */\ntag_9:\n    /* \"#utility.yul\":197:198   */\n  0x00\n    /* \"#utility.yul\":194:195   */\n  dup1\n    /* \"#utility.yul\":187:199   */\n  revert\n    /* \"#utility.yul\":334:460   */\ntag_11:\n    /* \"#utility.yul\":371:378   */\n  0x00\n    /* \"#utility.yul\":411:453   */\n  0xffffffffffffffffffffffffffffffffffffffff\n    /* \"#utility.yul\":404:409   */\n  dup3\n    /* \"#utility.yul\":400:454   */\n  and\n    /* \"#utility.yul\":389:454   */\n  swap1\n  pop\n    /* \"#utility.yul\":334:460   */\n  swap2\n  swap1\n  pop\n  jump\t// out\n    /* \"#utility.yul\":466:562   */\ntag_12:\n    /* \"#utility.yul\":503:510   */\n  0x00\n    /* \"#utility.yul\":532:556   */\n  tag_21\n    /* \"#utility.yul\":550:555   */\n  dup3\n    /* \"#utility.yul\":532:556   */\n  tag_11\n  jump\t// in\ntag_21:\n    /* \"#utility.yul\":521:556   */\n  swap1\n  pop\n    /* \"#utility.yul\":466:562   */\n  swap2\n  swap1\n  pop\n  jump\t// out\n    /* \"#utility.yul\":568:690   */\ntag_13:\n    /* \"#utility.yul\":641:665   */\n  tag_23\n    /* \"#utility.yul\":659:664   */\n  dup2\n    /* \"#utility.yul\":641:665   */\n  tag_12\n  jump\t// in\ntag_23:\n    /* \"#utility.yul\":634:639   */\n  dup2\n    /* \"#utility.yul\":631:666   */\n  eq\n    /* \"#utility.yul\":621:684   */\n  tag_24\n  jumpi\n    /* \"#utility.yul\":680:681   */\n  0x00\n    /* \"#utility.yul\":677:678   */\n  dup1\n    /* \"#utility.yul\":670:682   */\n  revert\n    /* \"#utility.yul\":621:684   */\ntag_24:\n    /* \"#utility.yul\":568:690   */\n  pop\n  jump\t// out\n    /* \"#utility.yul\":696:839   */\ntag_14:\n    /* \"#utility.yul\":753:758   */\n  0x00\n    /* \"#utility.yul\":784:790   */\n  dup2\n    /* \"#utility.yul\":778:791   */\n  mload\n    /* \"#utility.yul\":769:791   */\n  swap1\n  pop\n    /* \"#utility.yul\":800:833   */\n  tag_26\n    /* \"#utility.yul\":827:832   */\n  dup2\n    /* \"#utility.yul\":800:833   */\n  tag_13\n  jump\t// in\ntag_26:\n    /* \"#utility.yul\":696:839   */\n  swap3\n  swap2\n  pop\n  pop\n  jump\t// out\n    /* \"#utility.yul\":845:1196   */\ntag_3:\n    /* \"#utility.yul\":915:921   */\n  0x00\n    /* \"#utility.yul\":964:966   */\n  0x20\n    /* \"#utility.yul\":952:961   */\n  dup3\n    /* \"#utility.yul\":943:950   */\n  dup5\n    /* \"#utility.yul\":939:962   */\n  sub\n    /* \"#utility.yul\":935:967   */\n  slt\n    /* \"#utility.yul\":932:1051   */\n  iszero\n  tag_28\n  jumpi\n    /* \"#utility.yul\":970:1049   */\n  tag_29\n  tag_9\n  jump\t// in\ntag_29:\n    /* \"#utility.yul\":932:1051   */\ntag_28:\n    /* \"#utility.yul\":1090:1091   */\n  0x00\n    /* \"#utility.yul\":1115:1179   */\n  tag_30\n    /* \"#utility.yul\":1171:1178   */\n  dup5\n    /* \"#utility.yul\":1162:1168   */\n  dup3\n    /* \"#utility.yul\":1151:1160   */\n  dup6\n    /* \"#utility.yul\":1147:1169   */\n  add\n    /* \"#utility.yul\":1115:1179   */\n  tag_14\n  jump\t// in\ntag_30:\n    /* \"#utility.yul\":1105:1179   */\n  swap2\n  pop\n    /* \"#utility.yul\":1061:1189   */\n  pop\n    /* \"#utility.yul\":845:1196   */\n  swap3\n  swap2\n  pop\n  pop\n  jump\t// out\n    /* \"Contracts/TavernV3Pool.sol\":296:4863  contract TavernV3Pool {... */\ntag_7:\n  dataSize(sub_0)\n  dup1\n  dataOffset(sub_0)\n  0x00\n  codecopy\n  0x00\n  return\nstop\n\nsub_0: assembly {\n        /* \"Contracts/TavernV3Pool.sol\":296:4863  contract TavernV3Pool {... */\n      mstore(0x40, 0x80)\n      jumpi(tag_1, lt(calldatasize, 0x04))\n      shr(0xe0, calldataload(0x00))\n      dup1\n      0x881eff1e\n      gt\n      tag_17\n      jumpi\n      dup1\n      0xaffed0e0\n      gt\n      tag_18\n      jumpi\n      dup1\n      0xaffed0e0\n      eq\n      tag_13\n      jumpi\n      dup1\n      0xb60d4288\n      eq\n      tag_14\n      jumpi\n      dup1\n      0xcafab8e7\n      eq\n      tag_15\n      jumpi\n      dup1\n      0xf2fde38b\n      eq\n      tag_16\n      jumpi\n      jump(tag_2)\n    tag_18:\n      dup1\n      0x881eff1e\n      eq\n      tag_10\n      jumpi\n      dup1\n      0x8da5cb5b\n      eq\n      tag_11\n      jumpi\n      dup1\n      0x91a4f2ec\n      eq\n      tag_12\n      jumpi\n      jump(tag_2)\n    tag_17:\n      dup1\n      0x2e5b2168\n      gt\n      tag_19\n      jumpi\n      dup1\n      0x2e5b2168\n      eq\n      tag_6\n      jumpi\n      dup1\n      0x4437152a\n      eq\n      tag_7\n      jumpi\n      dup1\n      0x54ab6269\n      eq\n      tag_8\n      jumpi\n      dup1\n      0x5c975abb\n      eq\n      tag_9\n      jumpi\n      jump(tag_2)\n    tag_19:\n      dup1\n      0x02329a29\n      eq\n      tag_3\n      jumpi\n      dup1\n      0x0df8b93b\n      eq\n      tag_4\n      jumpi\n      dup1\n      0x16f0115b\n      eq\n      tag_5\n      jumpi\n      jump(tag_2)\n    tag_1:\n      jumpi(tag_2, calldatasize)\n      stop\n    tag_2:\n      0x00\n      dup1\n      revert\n        /* \"Contracts/TavernV3Pool.sol\":1455:1528  function pause(bool p) external onlyOwner { paused = p; emit Paused(p); } */\n    tag_3:\n      callvalue\n      dup1\n      iszero\n      tag_22\n      jumpi\n      0x00\n      dup1\n      revert\n    tag_22:\n      pop\n      tag_23\n      0x04\n      dup1\n      calldatasize\n      sub\n      dup2\n      add\n      swap1\n      tag_24\n      swap2\n      swap1\n      tag_25\n      jump\t// in\n    tag_24:\n      tag_26\n      jump\t// in\n    tag_23:\n      stop\n        /* \"Contracts/TavernV3Pool.sol\":2512:3175  function playShell(uint8 guess) external payable nonReentrant {... */\n    tag_4:\n      tag_27\n      0x04\n      dup1\n      calldatasize\n      sub\n      dup2\n      add\n      swap1\n      tag_28\n      swap2\n      swap1\n      tag_29\n      jump\t// in\n    tag_28:\n      tag_30\n      jump\t// in\n    tag_27:\n      stop\n        /* \"Contracts/TavernV3Pool.sol\":645:670  IBankrollPool public pool */\n    tag_5:\n      callvalue\n      dup1\n      iszero\n      tag_31\n      jumpi\n      0x00\n      dup1\n      revert\n    tag_31:\n      pop\n      tag_32\n      tag_33\n      jump\t// in\n    tag_32:\n      mload(0x40)\n      tag_34\n      swap2\n      swap1\n      tag_35\n      jump\t// in\n    tag_34:\n      mload(0x40)\n      dup1\n      swap2\n      sub\n      swap1\n      return\n        /* \"Contracts/TavernV3Pool.sol\":580:612  uint256 public maxBet = 10 ether */\n    tag_6:\n      callvalue\n      dup1\n      iszero\n      tag_36\n      jumpi\n      0x00\n      dup1\n      revert\n    tag_36:\n      pop\n      tag_37\n      tag_38\n      jump\t// in\n    tag_37:\n      mload(0x40)\n      tag_39\n      swap2\n      swap1\n      tag_40\n      jump\t// in\n    tag_39:\n      mload(0x40)\n      dup1\n      swap2\n      sub\n      swap1\n      return\n        /* \"Contracts/TavernV3Pool.sol\":1708:1866  function setPool(address poolAddr) external onlyOwner { require(poolAddr != address(0), \"zero\"); pool = IBankrollPool(poolAddr); emit PoolUpdated(poolAddr); } */\n    tag_7:\n      callvalue\n      dup1\n      iszero\n      tag_41\n      jumpi\n      0x00\n      dup1\n      revert\n    tag_41:\n      pop\n      tag_42\n      0x04\n      dup1\n      calldatasize\n      sub\n      dup2\n      add\n      swap1\n      tag_43\n      swap2\n      swap1\n      tag_44\n      jump\t// in\n    tag_43:\n      tag_45\n      jump\t// in\n    tag_42:\n      stop\n        /* \"Contracts/TavernV3Pool.sol\":1871:1979  function emergencyWithdrawAll(address payable to) external onlyOwner { to.transfer(address(this).balance); } */\n    tag_8:\n      callvalue\n      dup1\n      iszero\n      tag_46\n      jumpi\n      0x00\n      dup1\n      revert\n    tag_46:\n      pop\n      tag_47\n      0x04\n      dup1\n      calldatasize\n      sub\n      dup2\n      add\n      swap1\n      tag_48\n      swap2\n      swap1\n      tag_49\n      jump\t// in\n    tag_48:\n      tag_50\n      jump\t// in\n    tag_47:\n      stop\n        /* \"Contracts/TavernV3Pool.sol\":556:574  bool public paused */\n    tag_9:\n      callvalue\n      dup1\n      iszero\n      tag_51\n      jumpi\n      0x00\n      dup1\n      revert\n    tag_51:\n      pop\n      tag_52\n      tag_53\n      jump\t// in\n    tag_52:\n      mload(0x40)\n      tag_54\n      swap2\n      swap1\n      tag_55\n      jump\t// in\n    tag_54:\n      mload(0x40)\n      dup1\n      swap2\n      sub\n      swap1\n      return\n        /* \"Contracts/TavernV3Pool.sol\":1380:1450  function setMaxBet(uint256 _max) external onlyOwner { maxBet = _max; } */\n    tag_10:\n      callvalue\n      dup1\n      iszero\n      tag_56\n      jumpi\n      0x00\n      dup1\n      revert\n    tag_56:\n      pop\n      tag_57\n      0x04\n      dup1\n      calldatasize\n      sub\n      dup2\n      add\n      swap1\n      tag_58\n      swap2\n      swap1\n      tag_59\n      jump\t// in\n    tag_58:\n      tag_60\n      jump\t// in\n    tag_57:\n      stop\n        /* \"Contracts/TavernV3Pool.sol\":324:344  address public owner */\n    tag_11:\n      callvalue\n      dup1\n      iszero\n      tag_61\n      jumpi\n      0x00\n      dup1\n      revert\n    tag_61:\n      pop\n      tag_62\n      tag_63\n      jump\t// in\n    tag_62:\n      mload(0x40)\n      tag_64\n      swap2\n      swap1\n      tag_65\n      jump\t// in\n    tag_64:\n      mload(0x40)\n      dup1\n      swap2\n      sub\n      swap1\n      return\n        /* \"Contracts/TavernV3Pool.sol\":3206:4253  function playHazard(uint8 main) external payable nonReentrant {... */\n    tag_12:\n      tag_66\n      0x04\n      dup1\n      calldatasize\n      sub\n      dup2\n      add\n      swap1\n      tag_67\n      swap2\n      swap1\n      tag_29\n      jump\t// in\n    tag_67:\n      tag_68\n      jump\t// in\n    tag_66:\n      stop\n        /* \"Contracts/TavernV3Pool.sol\":618:638  uint256 public nonce */\n    tag_13:\n      callvalue\n      dup1\n      iszero\n      tag_69\n      jumpi\n      0x00\n      dup1\n      revert\n    tag_69:\n      pop\n      tag_70\n      tag_71\n      jump\t// in\n    tag_70:\n      mload(0x40)\n      tag_72\n      swap2\n      swap1\n      tag_40\n      jump\t// in\n    tag_72:\n      mload(0x40)\n      dup1\n      swap2\n      sub\n      swap1\n      return\n        /* \"Contracts/TavernV3Pool.sol\":1340:1375  function fund() external payable {} */\n    tag_14:\n      tag_73\n      tag_74\n      jump\t// in\n    tag_73:\n      stop\n        /* \"Contracts/TavernV3Pool.sol\":4299:4861  function playCoin(bool chooseChog) external payable nonReentrant {... */\n    tag_15:\n      tag_75\n      0x04\n      dup1\n      calldatasize\n      sub\n      dup2\n      add\n      swap1\n      tag_76\n      swap2\n      swap1\n      tag_25\n      jump\t// in\n    tag_76:\n      tag_77\n      jump\t// in\n    tag_75:\n      stop\n        /* \"Contracts/TavernV3Pool.sol\":1533:1703  function transferOwnership(address newOwner) external onlyOwner { require(newOwner != address(0), \"zero\"); emit OwnershipTransferred(owner, newOwner); owner = newOwner; } */\n    tag_16:\n      callvalue\n      dup1\n      iszero\n      tag_78\n      jumpi\n      0x00\n      dup1\n      revert\n    tag_78:\n      pop\n      tag_79\n      0x04\n      dup1\n      calldatasize\n      sub\n      dup2\n      add\n      swap1\n      tag_80\n      swap2\n      swap1\n      tag_44\n      jump\t// in\n    tag_80:\n      tag_81\n      jump\t// in\n    tag_79:\n      stop\n        /* \"Contracts/TavernV3Pool.sol\":1455:1528  function pause(bool p) external onlyOwner { paused = p; emit Paused(p); } */\n    tag_26:\n        /* \"Contracts/TavernV3Pool.sol\":395:400  owner */\n      0x00\n      dup1\n      sload\n      swap1\n      0x0100\n      exp\n      swap1\n      div\n      0xffffffffffffffffffffffffffffffffffffffff\n      and\n        /* \"Contracts/TavernV3Pool.sol\":381:400  msg.sender == owner */\n      0xffffffffffffffffffffffffffffffffffffffff\n      and\n        /* \"Contracts/TavernV3Pool.sol\":381:391  msg.sender */\n      caller\n        /* \"Contracts/TavernV3Pool.sol\":381:400  msg.sender == owner */\n      0xffffffffffffffffffffffffffffffffffffffff\n      and\n      eq\n        /* \"Contracts/TavernV3Pool.sol\":373:414  require(msg.sender == owner, \"not owner\") */\n      tag_83\n      jumpi\n      mload(0x40)\n      0x08c379a000000000000000000000000000000000000000000000000000000000\n      dup2\n      mstore\n      0x04\n      add\n      tag_84\n      swap1\n      tag_85\n      jump\t// in\n    tag_84:\n      mload(0x40)\n      dup1\n      swap2\n      sub\n      swap1\n      revert\n    tag_83:\n        /* \"Contracts/TavernV3Pool.sol\":1508:1509  p */\n      dup1\n        /* \"Contracts/TavernV3Pool.sol\":1499:1505  paused */\n      0x02\n      0x00\n        /* \"Contracts/TavernV3Pool.sol\":1499:1509  paused = p */\n      0x0100\n      exp\n      dup2\n      sload\n      dup2\n      0xff\n      mul\n      not\n      and\n      swap1\n      dup4\n      iszero\n      iszero\n      mul\n      or\n      swap1\n      sstore\n      pop\n        /* \"Contracts/TavernV3Pool.sol\":1516:1525  Paused(p) */\n      0x0e2fb031ee032dc02d8011dc50b816eb450cf856abd8261680dac74f72165bd2\n        /* \"Contracts/TavernV3Pool.sol\":1523:1524  p */\n      dup2\n        /* \"Contracts/TavernV3Pool.sol\":1516:1525  Paused(p) */\n      mload(0x40)\n      tag_87\n      swap2\n      swap1\n      tag_55\n      jump\t// in\n    tag_87:\n      mload(0x40)\n      dup1\n      swap2\n      sub\n      swap1\n      log1\n        /* \"Contracts/TavernV3Pool.sol\":1455:1528  function pause(bool p) external onlyOwner { paused = p; emit Paused(p); } */\n      pop\n      jump\t// out\n        /* \"Contracts/TavernV3Pool.sol\":2512:3175  function playShell(uint8 guess) external payable nonReentrant {... */\n    tag_30:\n        /* \"Contracts/TavernV3Pool.sol\":470:471  1 */\n      0x01\n        /* \"Contracts/TavernV3Pool.sol\":459:466  _locked */\n      dup1\n      sload\n        /* \"Contracts/TavernV3Pool.sol\":459:471  _locked == 1 */\n      eq\n        /* \"Contracts/TavernV3Pool.sol\":451:485  require(_locked == 1, \"reentrant\") */\n      tag_89\n      jumpi\n      mload(0x40)\n      0x08c379a000000000000000000000000000000000000000000000000000000000\n      dup2\n      mstore\n      0x04\n      add\n      tag_90\n      swap1\n      tag_91\n      jump\t// in\n    tag_90:\n      mload(0x40)\n      dup1\n      swap2\n      sub\n      swap1\n      revert\n    tag_89:\n        /* \"Contracts/TavernV3Pool.sol\":497:498  2 */\n      0x02\n        /* \"Contracts/TavernV3Pool.sol\":487:494  _locked */\n      0x01\n        /* \"Contracts/TavernV3Pool.sol\":487:498  _locked = 2 */\n      dup2\n      swap1\n      sstore\n      pop\n        /* \"Contracts/TavernV3Pool.sol\":2593:2599  paused */\n      0x02\n      0x00\n      swap1\n      sload\n      swap1\n      0x0100\n      exp\n      swap1\n      div\n      0xff\n      and\n        /* \"Contracts/TavernV3Pool.sol\":2592:2599  !paused */\n      iszero\n        /* \"Contracts/TavernV3Pool.sol\":2584:2610  require(!paused, \"paused\") */\n      tag_93\n      jumpi\n      mload(0x40)\n      0x08c379a000000000000000000000000000000000000000000000000000000000\n      dup2\n      mstore\n      0x04\n      add\n      tag_94\n      swap1\n      tag_95\n      jump\t// in\n    tag_94:\n      mload(0x40)\n      dup1\n      swap2\n      sub\n      swap1\n      revert\n    tag_93:\n        /* \"Contracts/TavernV3Pool.sol\":2628:2629  3 */\n      0x03\n        /* \"Contracts/TavernV3Pool.sol\":2620:2625  guess */\n      dup2\n        /* \"Contracts/TavernV3Pool.sol\":2620:2629  guess < 3 */\n      0xff\n      and\n      lt\n        /* \"Contracts/TavernV3Pool.sol\":2612:2643  require(guess < 3, \"bad guess\") */\n      tag_96\n      jumpi\n      mload(0x40)\n      0x08c379a000000000000000000000000000000000000000000000000000000000\n      dup2\n      mstore\n      0x04\n      add\n      tag_97\n      swap1\n      tag_98\n      jump\t// in\n    tag_97:\n      mload(0x40)\n      dup1\n      swap2\n      sub\n      swap1\n      revert\n    tag_96:\n        /* \"Contracts/TavernV3Pool.sol\":2653:2666  uint256 wager */\n      0x00\n        /* \"Contracts/TavernV3Pool.sol\":2669:2678  msg.value */\n      callvalue\n        /* \"Contracts/TavernV3Pool.sol\":2653:2678  uint256 wager = msg.value */\n      swap1\n      pop\n        /* \"Contracts/TavernV3Pool.sol\":2696:2697  0 */\n      0x00\n        /* \"Contracts/TavernV3Pool.sol\":2688:2693  wager */\n      dup2\n        /* \"Contracts/TavernV3Pool.sol\":2688:2697  wager > 0 */\n      gt\n        /* \"Contracts/TavernV3Pool.sol\":2688:2716  wager > 0 && wager <= maxBet */\n      dup1\n      iszero\n      tag_99\n      jumpi\n      pop\n        /* \"Contracts/TavernV3Pool.sol\":2710:2716  maxBet */\n      sload(0x03)\n        /* \"Contracts/TavernV3Pool.sol\":2701:2706  wager */\n      dup2\n        /* \"Contracts/TavernV3Pool.sol\":2701:2716  wager <= maxBet */\n      gt\n      iszero\n        /* \"Contracts/TavernV3Pool.sol\":2688:2716  wager > 0 && wager <= maxBet */\n    tag_99:\n        /* \"Contracts/TavernV3Pool.sol\":2680:2730  require(wager > 0 && wager <= maxBet, \"bad wager\") */\n      tag_100\n      jumpi\n      mload(0x40)\n      0x08c379a000000000000000000000000000000000000000000000000000000000\n      dup2\n      mstore\n      0x04\n      add\n      tag_101\n      swap1\n      tag_102\n      jump\t// in\n    tag_101:\n      mload(0x40)\n      dup1\n      swap2\n      sub\n      swap1\n      revert\n    tag_100:\n        /* \"Contracts/TavernV3Pool.sol\":2740:2756  uint8 winningCup */\n      0x00\n        /* \"Contracts/TavernV3Pool.sol\":2765:2773  _rand(3) */\n      tag_103\n        /* \"Contracts/TavernV3Pool.sol\":2771:2772  3 */\n      0x03\n        /* \"Contracts/TavernV3Pool.sol\":2765:2770  _rand */\n      tag_104\n        /* \"Contracts/TavernV3Pool.sol\":2765:2773  _rand(3) */\n      jump\t// in\n    tag_103:\n        /* \"Contracts/TavernV3Pool.sol\":2740:2774  uint8 winningCup = uint8(_rand(3)) */\n      swap1\n      pop\n        /* \"Contracts/TavernV3Pool.sol\":2776:2784  bool won */\n      0x00\n        /* \"Contracts/TavernV3Pool.sol\":2802:2807  guess */\n      dup4\n        /* \"Contracts/TavernV3Pool.sol\":2788:2807  winningCup == guess */\n      0xff\n      and\n        /* \"Contracts/TavernV3Pool.sol\":2788:2798  winningCup */\n      dup3\n        /* \"Contracts/TavernV3Pool.sol\":2788:2807  winningCup == guess */\n      0xff\n      and\n      eq\n        /* \"Contracts/TavernV3Pool.sol\":2776:2808  bool won = (winningCup == guess) */\n      swap1\n      pop\n        /* \"Contracts/TavernV3Pool.sol\":2822:2825  won */\n      dup1\n        /* \"Contracts/TavernV3Pool.sol\":2818:2901  if (won) { _requireBankroll(wager * 2); pool.pay(payable(msg.sender), wager * 2); } */\n      iszero\n      tag_105\n      jumpi\n        /* \"Contracts/TavernV3Pool.sol\":2829:2856  _requireBankroll(wager * 2) */\n      tag_106\n        /* \"Contracts/TavernV3Pool.sol\":2854:2855  2 */\n      0x02\n        /* \"Contracts/TavernV3Pool.sol\":2846:2851  wager */\n      dup5\n        /* \"Contracts/TavernV3Pool.sol\":2846:2855  wager * 2 */\n      tag_107\n      swap2\n      swap1\n      tag_108\n      jump\t// in\n    tag_107:\n        /* \"Contracts/TavernV3Pool.sol\":2829:2845  _requireBankroll */\n      tag_109\n        /* \"Contracts/TavernV3Pool.sol\":2829:2856  _requireBankroll(wager * 2) */\n      jump\t// in\n    tag_106:\n        /* \"Contracts/TavernV3Pool.sol\":2858:2862  pool */\n      0x05\n      0x00\n      swap1\n      sload\n      swap1\n      0x0100\n      exp\n      swap1\n      div\n      0xffffffffffffffffffffffffffffffffffffffff\n      and\n        /* \"Contracts/TavernV3Pool.sol\":2858:2866  pool.pay */\n      0xffffffffffffffffffffffffffffffffffffffff\n      and\n      0xc4076876\n        /* \"Contracts/TavernV3Pool.sol\":2875:2885  msg.sender */\n      caller\n        /* \"Contracts/TavernV3Pool.sol\":2896:2897  2 */\n      0x02\n        /* \"Contracts/TavernV3Pool.sol\":2888:2893  wager */\n      dup7\n        /* \"Contracts/TavernV3Pool.sol\":2888:2897  wager * 2 */\n      tag_110\n      swap2\n      swap1\n      tag_108\n      jump\t// in\n    tag_110:\n        /* \"Contracts/TavernV3Pool.sol\":2858:2898  pool.pay(payable(msg.sender), wager * 2) */\n      mload(0x40)\n      dup4\n      0xffffffff\n      and\n      0xe0\n      shl\n      dup2\n      mstore\n      0x04\n      add\n      tag_111\n      swap3\n      swap2\n      swap1\n      tag_112\n      jump\t// in\n    tag_111:\n      0x00\n      mload(0x40)\n      dup1\n      dup4\n      sub\n      dup2\n      0x00\n      dup8\n      dup1\n      extcodesize\n      iszero\n      dup1\n      iszero\n      tag_113\n      jumpi\n      0x00\n      dup1\n      revert\n    tag_113:\n      pop\n      gas\n      call\n      iszero\n      dup1\n      iszero\n      tag_115\n      jumpi\n      returndatasize\n      0x00\n      dup1\n      returndatacopy\n      revert(0x00, returndatasize)\n    tag_115:\n      pop\n      pop\n      pop\n      pop\n        /* \"Contracts/TavernV3Pool.sol\":2818:2901  if (won) { _requireBankroll(wager * 2); pool.pay(payable(msg.sender), wager * 2); } */\n    tag_105:\n        /* \"Contracts/TavernV3Pool.sol\":2927:2937  msg.sender */\n      caller\n        /* \"Contracts/TavernV3Pool.sol\":2915:2969  ShellPlayed(msg.sender, wager, won, winningCup, guess) */\n      0xffffffffffffffffffffffffffffffffffffffff\n      and\n      0xf8f3c747b75419bd578197d83f20823bb034bcdf041645c86bcfc9d97263a89e\n        /* \"Contracts/TavernV3Pool.sol\":2939:2944  wager */\n      dup5\n        /* \"Contracts/TavernV3Pool.sol\":2946:2949  won */\n      dup4\n        /* \"Contracts/TavernV3Pool.sol\":2951:2961  winningCup */\n      dup6\n        /* \"Contracts/TavernV3Pool.sol\":2963:2968  guess */\n      dup9\n        /* \"Contracts/TavernV3Pool.sol\":2915:2969  ShellPlayed(msg.sender, wager, won, winningCup, guess) */\n      mload(0x40)\n      tag_116\n      swap5\n      swap4\n      swap3\n      swap2\n      swap1\n      tag_117\n      jump\t// in\n    tag_116:\n      mload(0x40)\n      dup1\n      swap2\n      sub\n      swap1\n      log2\n        /* \"Contracts/TavernV3Pool.sol\":3067:3068  0 */\n      0x00\n        /* \"Contracts/TavernV3Pool.sol\":3042:3069  address(pool) != address(0) */\n      0xffffffffffffffffffffffffffffffffffffffff\n      and\n        /* \"Contracts/TavernV3Pool.sol\":3050:3054  pool */\n      0x05\n      0x00\n      swap1\n      sload\n      swap1\n      0x0100\n      exp\n      swap1\n      div\n      0xffffffffffffffffffffffffffffffffffffffff\n      and\n        /* \"Contracts/TavernV3Pool.sol\":3042:3069  address(pool) != address(0) */\n      0xffffffffffffffffffffffffffffffffffffffff\n      and\n      eq\n        /* \"Contracts/TavernV3Pool.sol\":3038:3169  if (address(pool) != address(0)) { (bool ok,) = payable(address(pool)).call{value:wager}(\"\"); require(ok, \"pool deposit failed\"); } */\n      tag_118\n      jumpi\n        /* \"Contracts/TavernV3Pool.sol\":3074:3081  bool ok */\n      0x00\n        /* \"Contracts/TavernV3Pool.sol\":3102:3106  pool */\n      0x05\n      0x00\n      swap1\n      sload\n      swap1\n      0x0100\n      exp\n      swap1\n      div\n      0xffffffffffffffffffffffffffffffffffffffff\n      and\n        /* \"Contracts/TavernV3Pool.sol\":3086:3113  payable(address(pool)).call */\n      0xffffffffffffffffffffffffffffffffffffffff\n      and\n        /* \"Contracts/TavernV3Pool.sol\":3120:3125  wager */\n      dup5\n        /* \"Contracts/TavernV3Pool.sol\":3086:3130  payable(address(pool)).call{value:wager}(\"\") */\n      mload(0x40)\n      tag_119\n      swap1\n      tag_120\n      jump\t// in\n    tag_119:\n      0x00\n      mload(0x40)\n      dup1\n      dup4\n      sub\n      dup2\n      dup6\n      dup8\n      gas\n      call\n      swap3\n      pop\n      pop\n      pop\n      returndatasize\n      dup1\n      0x00\n      dup2\n      eq\n      tag_123\n      jumpi\n      mload(0x40)\n      swap2\n      pop\n      and(add(returndatasize, 0x3f), not(0x1f))\n      dup3\n      add\n      0x40\n      mstore\n      returndatasize\n      dup3\n      mstore\n      returndatasize\n      0x00\n      0x20\n      dup5\n      add\n      returndatacopy\n      jump(tag_122)\n    tag_123:\n      0x60\n      swap2\n      pop\n    tag_122:\n      pop\n        /* \"Contracts/TavernV3Pool.sol\":3073:3130  (bool ok,) = payable(address(pool)).call{value:wager}(\"\") */\n      pop\n      swap1\n      pop\n        /* \"Contracts/TavernV3Pool.sol\":3140:3142  ok */\n      dup1\n        /* \"Contracts/TavernV3Pool.sol\":3132:3166  require(ok, \"pool deposit failed\") */\n      tag_124\n      jumpi\n      mload(0x40)\n      0x08c379a000000000000000000000000000000000000000000000000000000000\n      dup2\n      mstore\n      0x04\n      add\n      tag_125\n      swap1\n      tag_126\n      jump\t// in\n    tag_125:\n      mload(0x40)\n      dup1\n      swap2\n      sub\n      swap1\n      revert\n    tag_124:\n        /* \"Contracts/TavernV3Pool.sol\":3071:3169  { (bool ok,) = payable(address(pool)).call{value:wager}(\"\"); require(ok, \"pool deposit failed\"); } */\n      pop\n        /* \"Contracts/TavernV3Pool.sol\":3038:3169  if (address(pool) != address(0)) { (bool ok,) = payable(address(pool)).call{value:wager}(\"\"); require(ok, \"pool deposit failed\"); } */\n    tag_118:\n        /* \"Contracts/TavernV3Pool.sol\":2574:3175  {... */\n      pop\n      pop\n      pop\n        /* \"Contracts/TavernV3Pool.sol\":513:514  1 */\n      0x01\n        /* \"Contracts/TavernV3Pool.sol\":503:510  _locked */\n      dup1\n        /* \"Contracts/TavernV3Pool.sol\":503:514  _locked = 1 */\n      dup2\n      swap1\n      sstore\n      pop\n        /* \"Contracts/TavernV3Pool.sol\":2512:3175  function playShell(uint8 guess) external payable nonReentrant {... */\n      pop\n      jump\t// out\n        /* \"Contracts/TavernV3Pool.sol\":645:670  IBankrollPool public pool */\n    tag_33:\n      0x05\n      0x00\n      swap1\n      sload\n      swap1\n      0x0100\n      exp\n      swap1\n      div\n      0xffffffffffffffffffffffffffffffffffffffff\n      and\n      dup2\n      jump\t// out\n        /* \"Contracts/TavernV3Pool.sol\":580:612  uint256 public maxBet = 10 ether */\n    tag_38:\n      sload(0x03)\n      dup2\n      jump\t// out\n        /* \"Contracts/TavernV3Pool.sol\":1708:1866  function setPool(address poolAddr) external onlyOwner { require(poolAddr != address(0), \"zero\"); pool = IBankrollPool(poolAddr); emit PoolUpdated(poolAddr); } */\n    tag_45:\n        /* \"Contracts/TavernV3Pool.sol\":395:400  owner */\n      0x00\n      dup1\n      sload\n      swap1\n      0x0100\n      exp\n      swap1\n      div\n      0xffffffffffffffffffffffffffffffffffffffff\n      and\n        /* \"Contracts/TavernV3Pool.sol\":381:400  msg.sender == owner */\n      0xffffffffffffffffffffffffffffffffffffffff\n      and\n        /* \"Contracts/TavernV3Pool.sol\":381:391  msg.sender */\n      caller\n        /* \"Contracts/TavernV3Pool.sol\":381:400  msg.sender == owner */\n      0xffffffffffffffffffffffffffffffffffffffff\n      and\n      eq\n        /* \"Contracts/TavernV3Pool.sol\":373:414  require(msg.sender == owner, \"not owner\") */\n      tag_128\n      jumpi\n      mload(0x40)\n      0x08c379a000000000000000000000000000000000000000000000000000000000\n      dup2\n      mstore\n      0x04\n      add\n      tag_129\n      swap1\n      tag_85\n      jump\t// in\n    tag_129:\n      mload(0x40)\n      dup1\n      swap2\n      sub\n      swap1\n      revert\n    tag_128:\n        /* \"Contracts/TavernV3Pool.sol\":1792:1793  0 */\n      0x00\n        /* \"Contracts/TavernV3Pool.sol\":1772:1794  poolAddr != address(0) */\n      0xffffffffffffffffffffffffffffffffffffffff\n      and\n        /* \"Contracts/TavernV3Pool.sol\":1772:1780  poolAddr */\n      dup2\n        /* \"Contracts/TavernV3Pool.sol\":1772:1794  poolAddr != address(0) */\n      0xffffffffffffffffffffffffffffffffffffffff\n      and\n      sub\n        /* \"Contracts/TavernV3Pool.sol\":1764:1803  require(poolAddr != address(0), \"zero\") */\n      tag_131\n      jumpi\n      mload(0x40)\n      0x08c379a000000000000000000000000000000000000000000000000000000000\n      dup2\n      mstore\n      0x04\n      add\n      tag_132\n      swap1\n      tag_133\n      jump\t// in\n    tag_132:\n      mload(0x40)\n      dup1\n      swap2\n      sub\n      swap1\n      revert\n    tag_131:\n        /* \"Contracts/TavernV3Pool.sol\":1826:1834  poolAddr */\n      dup1\n        /* \"Contracts/TavernV3Pool.sol\":1805:1809  pool */\n      0x05\n      0x00\n        /* \"Contracts/TavernV3Pool.sol\":1805:1835  pool = IBankrollPool(poolAddr) */\n      0x0100\n      exp\n      dup2\n      sload\n      dup2\n      0xffffffffffffffffffffffffffffffffffffffff\n      mul\n      not\n      and\n      swap1\n      dup4\n      0xffffffffffffffffffffffffffffffffffffffff\n      and\n      mul\n      or\n      swap1\n      sstore\n      pop\n        /* \"Contracts/TavernV3Pool.sol\":1854:1862  poolAddr */\n      dup1\n        /* \"Contracts/TavernV3Pool.sol\":1842:1863  PoolUpdated(poolAddr) */\n      0xffffffffffffffffffffffffffffffffffffffff\n      and\n      0x380cec482764ddef4f75351b5398e3e2bea99ba23e53a00d5521f569fb668e1f\n      mload(0x40)\n      mload(0x40)\n      dup1\n      swap2\n      sub\n      swap1\n      log2\n        /* \"Contracts/TavernV3Pool.sol\":1708:1866  function setPool(address poolAddr) external onlyOwner { require(poolAddr != address(0), \"zero\"); pool = IBankrollPool(poolAddr); emit PoolUpdated(poolAddr); } */\n      pop\n      jump\t// out\n        /* \"Contracts/TavernV3Pool.sol\":1871:1979  function emergencyWithdrawAll(address payable to) external onlyOwner { to.transfer(address(this).balance); } */\n    tag_50:\n        /* \"Contracts/TavernV3Pool.sol\":395:400  owner */\n      0x00\n      dup1\n      sload\n      swap1\n      0x0100\n      exp\n      swap1\n      div\n      0xffffffffffffffffffffffffffffffffffffffff\n      and\n        /* \"Contracts/TavernV3Pool.sol\":381:400  msg.sender == owner */\n      0xffffffffffffffffffffffffffffffffffffffff\n      and\n        /* \"Contracts/TavernV3Pool.sol\":381:391  msg.sender */\n      caller\n        /* \"Contracts/TavernV3Pool.sol\":381:400  msg.sender == owner */\n      0xffffffffffffffffffffffffffffffffffffffff\n      and\n      eq\n        /* \"Contracts/TavernV3Pool.sol\":373:414  require(msg.sender == owner, \"not owner\") */\n      tag_135\n      jumpi\n      mload(0x40)\n      0x08c379a000000000000000000000000000000000000000000000000000000000\n      dup2\n      mstore\n      0x04\n      add\n      tag_136\n      swap1\n      tag_85\n      jump\t// in\n    tag_136:\n      mload(0x40)\n      dup1\n      swap2\n      sub\n      swap1\n      revert\n    tag_135:\n        /* \"Contracts/TavernV3Pool.sol\":1942:1944  to */\n      dup1\n        /* \"Contracts/TavernV3Pool.sol\":1942:1953  to.transfer */\n      0xffffffffffffffffffffffffffffffffffffffff\n      and\n        /* \"Contracts/TavernV3Pool.sol\":1942:1976  to.transfer(address(this).balance) */\n      0x08fc\n        /* \"Contracts/TavernV3Pool.sol\":1954:1975  address(this).balance */\n      selfbalance\n        /* \"Contracts/TavernV3Pool.sol\":1942:1976  to.transfer(address(this).balance) */\n      swap1\n      dup2\n      iszero\n      mul\n      swap1\n      mload(0x40)\n      0x00\n      mload(0x40)\n      dup1\n      dup4\n      sub\n      dup2\n      dup6\n      dup9\n      dup9\n      call\n      swap4\n      pop\n      pop\n      pop\n      pop\n      iszero\n      dup1\n      iszero\n      tag_139\n      jumpi\n      returndatasize\n      0x00\n      dup1\n      returndatacopy\n      revert(0x00, returndatasize)\n    tag_139:\n      pop\n        /* \"Contracts/TavernV3Pool.sol\":1871:1979  function emergencyWithdrawAll(address payable to) external onlyOwner { to.transfer(address(this).balance); } */\n      pop\n      jump\t// out\n        /* \"Contracts/TavernV3Pool.sol\":556:574  bool public paused */\n    tag_53:\n      0x02\n      0x00\n      swap1\n      sload\n      swap1\n      0x0100\n      exp\n      swap1\n      div\n      0xff\n      and\n      dup2\n      jump\t// out\n        /* \"Contracts/TavernV3Pool.sol\":1380:1450  function setMaxBet(uint256 _max) external onlyOwner { maxBet = _max; } */\n    tag_60:\n        /* \"Contracts/TavernV3Pool.sol\":395:400  owner */\n      0x00\n      dup1\n      sload\n      swap1\n      0x0100\n      exp\n      swap1\n      div\n      0xffffffffffffffffffffffffffffffffffffffff\n      and\n        /* \"Contracts/TavernV3Pool.sol\":381:400  msg.sender == owner */\n      0xffffffffffffffffffffffffffffffffffffffff\n      and\n        /* \"Contracts/TavernV3Pool.sol\":381:391  msg.sender */\n      caller\n        /* \"Contracts/TavernV3Pool.sol\":381:400  msg.sender == owner */\n      0xffffffffffffffffffffffffffffffffffffffff\n      and\n      eq\n        /* \"Contracts/TavernV3Pool.sol\":373:414  require(msg.sender == owner, \"not owner\") */\n      tag_141\n      jumpi\n      mload(0x40)\n      0x08c379a000000000000000000000000000000000000000000000000000000000\n      dup2\n      mstore\n      0x04\n      add\n      tag_142\n      swap1\n      tag_85\n      jump\t// in\n    tag_142:\n      mload(0x40)\n      dup1\n      swap2\n      sub\n      swap1\n      revert\n    tag_141:\n        /* \"Contracts/TavernV3Pool.sol\":1443:1447  _max */\n      dup1\n        /* \"Contracts/TavernV3Pool.sol\":1434:1440  maxBet */\n      0x03\n        /* \"Contracts/TavernV3Pool.sol\":1434:1447  maxBet = _max */\n      dup2\n      swap1\n      sstore\n      pop\n        /* \"Contracts/TavernV3Pool.sol\":1380:1450  function setMaxBet(uint256 _max) external onlyOwner { maxBet = _max; } */\n      pop\n      jump\t// out\n        /* \"Contracts/TavernV3Pool.sol\":324:344  address public owner */\n    tag_63:\n      0x00\n      dup1\n      sload\n      swap1\n      0x0100\n      exp\n      swap1\n      div\n      0xffffffffffffffffffffffffffffffffffffffff\n      and\n      dup2\n      jump\t// out\n        /* \"Contracts/TavernV3Pool.sol\":3206:4253  function playHazard(uint8 main) external payable nonReentrant {... */\n    tag_68:\n        /* \"Contracts/TavernV3Pool.sol\":470:471  1 */\n      0x01\n        /* \"Contracts/TavernV3Pool.sol\":459:466  _locked */\n      dup1\n      sload\n        /* \"Contracts/TavernV3Pool.sol\":459:471  _locked == 1 */\n      eq\n        /* \"Contracts/TavernV3Pool.sol\":451:485  require(_locked == 1, \"reentrant\") */\n      tag_145\n      jumpi\n      mload(0x40)\n      0x08c379a000000000000000000000000000000000000000000000000000000000\n      dup2\n      mstore\n      0x04\n      add\n      tag_146\n      swap1\n      tag_91\n      jump\t// in\n    tag_146:\n      mload(0x40)\n      dup1\n      swap2\n      sub\n      swap1\n      revert\n    tag_145:\n        /* \"Contracts/TavernV3Pool.sol\":497:498  2 */\n      0x02\n        /* \"Contracts/TavernV3Pool.sol\":487:494  _locked */\n      0x01\n        /* \"Contracts/TavernV3Pool.sol\":487:498  _locked = 2 */\n      dup2\n      swap1\n      sstore\n      pop\n        /* \"Contracts/TavernV3Pool.sol\":3287:3293  paused */\n      0x02\n      0x00\n      swap1\n      sload\n      swap1\n      0x0100\n      exp\n      swap1\n      div\n      0xff\n      and\n        /* \"Contracts/TavernV3Pool.sol\":3286:3293  !paused */\n      iszero\n        /* \"Contracts/TavernV3Pool.sol\":3278:3304  require(!paused, \"paused\") */\n      tag_148\n      jumpi\n      mload(0x40)\n      0x08c379a000000000000000000000000000000000000000000000000000000000\n      dup2\n      mstore\n      0x04\n      add\n      tag_149\n      swap1\n      tag_95\n      jump\t// in\n    tag_149:\n      mload(0x40)\n      dup1\n      swap2\n      sub\n      swap1\n      revert\n    tag_148:\n        /* \"Contracts/TavernV3Pool.sol\":3322:3323  5 */\n      0x05\n        /* \"Contracts/TavernV3Pool.sol\":3314:3318  main */\n      dup2\n        /* \"Contracts/TavernV3Pool.sol\":3314:3323  main >= 5 */\n      0xff\n      and\n      lt\n      iszero\n        /* \"Contracts/TavernV3Pool.sol\":3314:3336  main >= 5 && main <= 9 */\n      dup1\n      iszero\n      tag_150\n      jumpi\n      pop\n        /* \"Contracts/TavernV3Pool.sol\":3335:3336  9 */\n      0x09\n        /* \"Contracts/TavernV3Pool.sol\":3327:3331  main */\n      dup2\n        /* \"Contracts/TavernV3Pool.sol\":3327:3336  main <= 9 */\n      0xff\n      and\n      gt\n      iszero\n        /* \"Contracts/TavernV3Pool.sol\":3314:3336  main >= 5 && main <= 9 */\n    tag_150:\n        /* \"Contracts/TavernV3Pool.sol\":3306:3349  require(main >= 5 && main <= 9, \"bad main\") */\n      tag_151\n      jumpi\n      mload(0x40)\n      0x08c379a000000000000000000000000000000000000000000000000000000000\n      dup2\n      mstore\n      0x04\n      add\n      tag_152\n      swap1\n      tag_153\n      jump\t// in\n    tag_152:\n      mload(0x40)\n      dup1\n      swap2\n      sub\n      swap1\n      revert\n    tag_151:\n        /* \"Contracts/TavernV3Pool.sol\":3359:3372  uint256 wager */\n      0x00\n        /* \"Contracts/TavernV3Pool.sol\":3375:3384  msg.value */\n      callvalue\n        /* \"Contracts/TavernV3Pool.sol\":3359:3384  uint256 wager = msg.value */\n      swap1\n      pop\n        /* \"Contracts/TavernV3Pool.sol\":3402:3403  0 */\n      0x00\n        /* \"Contracts/TavernV3Pool.sol\":3394:3399  wager */\n      dup2\n        /* \"Contracts/TavernV3Pool.sol\":3394:3403  wager > 0 */\n      gt\n        /* \"Contracts/TavernV3Pool.sol\":3394:3422  wager > 0 && wager <= maxBet */\n      dup1\n      iszero\n      tag_154\n      jumpi\n      pop\n        /* \"Contracts/TavernV3Pool.sol\":3416:3422  maxBet */\n      sload(0x03)\n        /* \"Contracts/TavernV3Pool.sol\":3407:3412  wager */\n      dup2\n        /* \"Contracts/TavernV3Pool.sol\":3407:3422  wager <= maxBet */\n      gt\n      iszero\n        /* \"Contracts/TavernV3Pool.sol\":3394:3422  wager > 0 && wager <= maxBet */\n    tag_154:\n        /* \"Contracts/TavernV3Pool.sol\":3386:3436  require(wager > 0 && wager <= maxBet, \"bad wager\") */\n      tag_155\n      jumpi\n      mload(0x40)\n      0x08c379a000000000000000000000000000000000000000000000000000000000\n      dup2\n      mstore\n      0x04\n      add\n      tag_156\n      swap1\n      tag_102\n      jump\t// in\n    tag_156:\n      mload(0x40)\n      dup1\n      swap2\n      sub\n      swap1\n      revert\n    tag_155:\n        /* \"Contracts/TavernV3Pool.sol\":3446:3455  uint8 sum */\n      0x00\n        /* \"Contracts/TavernV3Pool.sol\":3458:3468  _rollSum() */\n      tag_157\n        /* \"Contracts/TavernV3Pool.sol\":3458:3466  _rollSum */\n      tag_158\n        /* \"Contracts/TavernV3Pool.sol\":3458:3468  _rollSum() */\n      jump\t// in\n    tag_157:\n        /* \"Contracts/TavernV3Pool.sol\":3446:3468  uint8 sum = _rollSum() */\n      swap1\n      pop\n        /* \"Contracts/TavernV3Pool.sol\":3470:3482  uint8 chance */\n      0x00\n        /* \"Contracts/TavernV3Pool.sol\":3488:3504  uint8 iterations */\n      dup1\n        /* \"Contracts/TavernV3Pool.sol\":3507:3508  1 */\n      0x01\n        /* \"Contracts/TavernV3Pool.sol\":3488:3508  uint8 iterations = 1 */\n      swap1\n      pop\n        /* \"Contracts/TavernV3Pool.sol\":3510:3518  bool win */\n      0x00\n        /* \"Contracts/TavernV3Pool.sol\":3539:3543  main */\n      dup6\n        /* \"Contracts/TavernV3Pool.sol\":3532:3543  sum == main */\n      0xff\n      and\n        /* \"Contracts/TavernV3Pool.sol\":3532:3535  sum */\n      dup5\n        /* \"Contracts/TavernV3Pool.sol\":3532:3543  sum == main */\n      0xff\n      and\n      sub\n        /* \"Contracts/TavernV3Pool.sol\":3528:3933  if (sum == main) { win = true; }... */\n      tag_159\n      jumpi\n        /* \"Contracts/TavernV3Pool.sol\":3553:3557  true */\n      0x01\n        /* \"Contracts/TavernV3Pool.sol\":3547:3557  win = true */\n      swap1\n      pop\n        /* \"Contracts/TavernV3Pool.sol\":3528:3933  if (sum == main) { win = true; }... */\n      jump(tag_160)\n    tag_159:\n        /* \"Contracts/TavernV3Pool.sol\":3585:3586  2 */\n      0x02\n        /* \"Contracts/TavernV3Pool.sol\":3578:3581  sum */\n      dup5\n        /* \"Contracts/TavernV3Pool.sol\":3578:3586  sum == 2 */\n      0xff\n      and\n      eq\n        /* \"Contracts/TavernV3Pool.sol\":3578:3598  sum == 2 || sum == 3 */\n      dup1\n      tag_161\n      jumpi\n      pop\n        /* \"Contracts/TavernV3Pool.sol\":3597:3598  3 */\n      0x03\n        /* \"Contracts/TavernV3Pool.sol\":3590:3593  sum */\n      dup5\n        /* \"Contracts/TavernV3Pool.sol\":3590:3598  sum == 3 */\n      0xff\n      and\n      eq\n        /* \"Contracts/TavernV3Pool.sol\":3578:3598  sum == 2 || sum == 3 */\n    tag_161:\n        /* \"Contracts/TavernV3Pool.sol\":3574:3933  if (sum == 2 || sum == 3) { win = false; }... */\n      iszero\n      tag_162\n      jumpi\n        /* \"Contracts/TavernV3Pool.sol\":3608:3613  false */\n      0x00\n        /* \"Contracts/TavernV3Pool.sol\":3602:3613  win = false */\n      swap1\n      pop\n        /* \"Contracts/TavernV3Pool.sol\":3574:3933  if (sum == 2 || sum == 3) { win = false; }... */\n      jump(tag_163)\n    tag_162:\n        /* \"Contracts/TavernV3Pool.sol\":3641:3643  11 */\n      0x0b\n        /* \"Contracts/TavernV3Pool.sol\":3634:3637  sum */\n      dup5\n        /* \"Contracts/TavernV3Pool.sol\":3634:3643  sum == 11 */\n      0xff\n      and\n      eq\n        /* \"Contracts/TavernV3Pool.sol\":3634:3656  sum == 11 || sum == 12 */\n      dup1\n      tag_164\n      jumpi\n      pop\n        /* \"Contracts/TavernV3Pool.sol\":3654:3656  12 */\n      0x0c\n        /* \"Contracts/TavernV3Pool.sol\":3647:3650  sum */\n      dup5\n        /* \"Contracts/TavernV3Pool.sol\":3647:3656  sum == 12 */\n      0xff\n      and\n      eq\n        /* \"Contracts/TavernV3Pool.sol\":3634:3656  sum == 11 || sum == 12 */\n    tag_164:\n        /* \"Contracts/TavernV3Pool.sol\":3630:3933  if (sum == 11 || sum == 12) { if (main == 7) win = false; else if (main == 5 || main == 9) win = true; else win = false; }... */\n      iszero\n      tag_165\n      jumpi\n        /* \"Contracts/TavernV3Pool.sol\":3672:3673  7 */\n      0x07\n        /* \"Contracts/TavernV3Pool.sol\":3664:3668  main */\n      dup7\n        /* \"Contracts/TavernV3Pool.sol\":3664:3673  main == 7 */\n      0xff\n      and\n      sub\n        /* \"Contracts/TavernV3Pool.sol\":3660:3749  if (main == 7) win = false; else if (main == 5 || main == 9) win = true; else win = false */\n      tag_166\n      jumpi\n        /* \"Contracts/TavernV3Pool.sol\":3681:3686  false */\n      0x00\n        /* \"Contracts/TavernV3Pool.sol\":3675:3686  win = false */\n      swap1\n      pop\n        /* \"Contracts/TavernV3Pool.sol\":3660:3749  if (main == 7) win = false; else if (main == 5 || main == 9) win = true; else win = false */\n      jump(tag_167)\n    tag_166:\n        /* \"Contracts/TavernV3Pool.sol\":3705:3706  5 */\n      0x05\n        /* \"Contracts/TavernV3Pool.sol\":3697:3701  main */\n      dup7\n        /* \"Contracts/TavernV3Pool.sol\":3697:3706  main == 5 */\n      0xff\n      and\n      eq\n        /* \"Contracts/TavernV3Pool.sol\":3697:3719  main == 5 || main == 9 */\n      dup1\n      tag_168\n      jumpi\n      pop\n        /* \"Contracts/TavernV3Pool.sol\":3718:3719  9 */\n      0x09\n        /* \"Contracts/TavernV3Pool.sol\":3710:3714  main */\n      dup7\n        /* \"Contracts/TavernV3Pool.sol\":3710:3719  main == 9 */\n      0xff\n      and\n      eq\n        /* \"Contracts/TavernV3Pool.sol\":3697:3719  main == 5 || main == 9 */\n    tag_168:\n        /* \"Contracts/TavernV3Pool.sol\":3693:3749  if (main == 5 || main == 9) win = true; else win = false */\n      iszero\n      tag_169\n      jumpi\n        /* \"Contracts/TavernV3Pool.sol\":3727:3731  true */\n      0x01\n        /* \"Contracts/TavernV3Pool.sol\":3721:3731  win = true */\n      swap1\n      pop\n        /* \"Contracts/TavernV3Pool.sol\":3693:3749  if (main == 5 || main == 9) win = true; else win = false */\n      jump(tag_170)\n    tag_169:\n        /* \"Contracts/TavernV3Pool.sol\":3744:3749  false */\n      0x00\n        /* \"Contracts/TavernV3Pool.sol\":3738:3749  win = false */\n      swap1\n      pop\n        /* \"Contracts/TavernV3Pool.sol\":3693:3749  if (main == 5 || main == 9) win = true; else win = false */\n    tag_170:\n        /* \"Contracts/TavernV3Pool.sol\":3660:3749  if (main == 7) win = false; else if (main == 5 || main == 9) win = true; else win = false */\n    tag_167:\n        /* \"Contracts/TavernV3Pool.sol\":3630:3933  if (sum == 11 || sum == 12) { if (main == 7) win = false; else if (main == 5 || main == 9) win = true; else win = false; }... */\n      jump(tag_171)\n    tag_165:\n        /* \"Contracts/TavernV3Pool.sol\":3777:3780  sum */\n      dup4\n        /* \"Contracts/TavernV3Pool.sol\":3768:3780  chance = sum */\n      swap3\n      pop\n        /* \"Contracts/TavernV3Pool.sol\":3787:3794  uint8 i */\n      0x00\n        /* \"Contracts/TavernV3Pool.sol\":3782:3931  for (uint8 i = 0; i < 64; i++) { sum = _rollSum(); iterations++; if (sum == chance) { win = true; break; } if (sum == main) { win = false; break; } } */\n    tag_172:\n        /* \"Contracts/TavernV3Pool.sol\":3804:3806  64 */\n      0x40\n        /* \"Contracts/TavernV3Pool.sol\":3800:3801  i */\n      dup2\n        /* \"Contracts/TavernV3Pool.sol\":3800:3806  i < 64 */\n      0xff\n      and\n      lt\n        /* \"Contracts/TavernV3Pool.sol\":3782:3931  for (uint8 i = 0; i < 64; i++) { sum = _rollSum(); iterations++; if (sum == chance) { win = true; break; } if (sum == main) { win = false; break; } } */\n      iszero\n      tag_173\n      jumpi\n        /* \"Contracts/TavernV3Pool.sol\":3821:3831  _rollSum() */\n      tag_175\n        /* \"Contracts/TavernV3Pool.sol\":3821:3829  _rollSum */\n      tag_158\n        /* \"Contracts/TavernV3Pool.sol\":3821:3831  _rollSum() */\n      jump\t// in\n    tag_175:\n        /* \"Contracts/TavernV3Pool.sol\":3815:3831  sum = _rollSum() */\n      swap5\n      pop\n        /* \"Contracts/TavernV3Pool.sol\":3833:3845  iterations++ */\n      dup3\n      dup1\n      tag_176\n      swap1\n      tag_177\n      jump\t// in\n    tag_176:\n      swap4\n      pop\n      pop\n        /* \"Contracts/TavernV3Pool.sol\":3858:3864  chance */\n      dup4\n        /* \"Contracts/TavernV3Pool.sol\":3851:3864  sum == chance */\n      0xff\n      and\n        /* \"Contracts/TavernV3Pool.sol\":3851:3854  sum */\n      dup6\n        /* \"Contracts/TavernV3Pool.sol\":3851:3864  sum == chance */\n      0xff\n      and\n      sub\n        /* \"Contracts/TavernV3Pool.sol\":3847:3888  if (sum == chance) { win = true; break; } */\n      tag_178\n      jumpi\n        /* \"Contracts/TavernV3Pool.sol\":3874:3878  true */\n      0x01\n        /* \"Contracts/TavernV3Pool.sol\":3868:3878  win = true */\n      swap2\n      pop\n        /* \"Contracts/TavernV3Pool.sol\":3880:3885  break */\n      jump(tag_173)\n        /* \"Contracts/TavernV3Pool.sol\":3847:3888  if (sum == chance) { win = true; break; } */\n    tag_178:\n        /* \"Contracts/TavernV3Pool.sol\":3900:3904  main */\n      dup7\n        /* \"Contracts/TavernV3Pool.sol\":3893:3904  sum == main */\n      0xff\n      and\n        /* \"Contracts/TavernV3Pool.sol\":3893:3896  sum */\n      dup6\n        /* \"Contracts/TavernV3Pool.sol\":3893:3904  sum == main */\n      0xff\n      and\n      sub\n        /* \"Contracts/TavernV3Pool.sol\":3889:3929  if (sum == main) { win = false; break; } */\n      tag_179\n      jumpi\n        /* \"Contracts/TavernV3Pool.sol\":3914:3919  false */\n      0x00\n        /* \"Contracts/TavernV3Pool.sol\":3908:3919  win = false */\n      swap2\n      pop\n        /* \"Contracts/TavernV3Pool.sol\":3921:3926  break */\n      jump(tag_173)\n        /* \"Contracts/TavernV3Pool.sol\":3889:3929  if (sum == main) { win = false; break; } */\n    tag_179:\n        /* \"Contracts/TavernV3Pool.sol\":3808:3811  i++ */\n      dup1\n      dup1\n      0x01\n      add\n      swap2\n      pop\n      pop\n        /* \"Contracts/TavernV3Pool.sol\":3782:3931  for (uint8 i = 0; i < 64; i++) { sum = _rollSum(); iterations++; if (sum == chance) { win = true; break; } if (sum == main) { win = false; break; } } */\n      jump(tag_172)\n    tag_173:\n      pop\n        /* \"Contracts/TavernV3Pool.sol\":3630:3933  if (sum == 11 || sum == 12) { if (main == 7) win = false; else if (main == 5 || main == 9) win = true; else win = false; }... */\n    tag_171:\n        /* \"Contracts/TavernV3Pool.sol\":3574:3933  if (sum == 2 || sum == 3) { win = false; }... */\n    tag_163:\n        /* \"Contracts/TavernV3Pool.sol\":3528:3933  if (sum == main) { win = true; }... */\n    tag_160:\n        /* \"Contracts/TavernV3Pool.sol\":3946:3949  win */\n      dup1\n        /* \"Contracts/TavernV3Pool.sol\":3942:4025  if (win) { _requireBankroll(wager * 2); pool.pay(payable(msg.sender), wager * 2); } */\n      iszero\n      tag_180\n      jumpi\n        /* \"Contracts/TavernV3Pool.sol\":3953:3980  _requireBankroll(wager * 2) */\n      tag_181\n        /* \"Contracts/TavernV3Pool.sol\":3978:3979  2 */\n      0x02\n        /* \"Contracts/TavernV3Pool.sol\":3970:3975  wager */\n      dup7\n        /* \"Contracts/TavernV3Pool.sol\":3970:3979  wager * 2 */\n      tag_182\n      swap2\n      swap1\n      tag_108\n      jump\t// in\n    tag_182:\n        /* \"Contracts/TavernV3Pool.sol\":3953:3969  _requireBankroll */\n      tag_109\n        /* \"Contracts/TavernV3Pool.sol\":3953:3980  _requireBankroll(wager * 2) */\n      jump\t// in\n    tag_181:\n        /* \"Contracts/TavernV3Pool.sol\":3982:3986  pool */\n      0x05\n      0x00\n      swap1\n      sload\n      swap1\n      0x0100\n      exp\n      swap1\n      div\n      0xffffffffffffffffffffffffffffffffffffffff\n      and\n        /* \"Contracts/TavernV3Pool.sol\":3982:3990  pool.pay */\n      0xffffffffffffffffffffffffffffffffffffffff\n      and\n      0xc4076876\n        /* \"Contracts/TavernV3Pool.sol\":3999:4009  msg.sender */\n      caller\n        /* \"Contracts/TavernV3Pool.sol\":4020:4021  2 */\n      0x02\n        /* \"Contracts/TavernV3Pool.sol\":4012:4017  wager */\n      dup9\n        /* \"Contracts/TavernV3Pool.sol\":4012:4021  wager * 2 */\n      tag_183\n      swap2\n      swap1\n      tag_108\n      jump\t// in\n    tag_183:\n        /* \"Contracts/TavernV3Pool.sol\":3982:4022  pool.pay(payable(msg.sender), wager * 2) */\n      mload(0x40)\n      dup4\n      0xffffffff\n      and\n      0xe0\n      shl\n      dup2\n      mstore\n      0x04\n      add\n      tag_184\n      swap3\n      swap2\n      swap1\n      tag_112\n      jump\t// in\n    tag_184:\n      0x00\n      mload(0x40)\n      dup1\n      dup4\n      sub\n      dup2\n      0x00\n      dup8\n      dup1\n      extcodesize\n      iszero\n      dup1\n      iszero\n      tag_185\n      jumpi\n      0x00\n      dup1\n      revert\n    tag_185:\n      pop\n      gas\n      call\n      iszero\n      dup1\n      iszero\n      tag_187\n      jumpi\n      returndatasize\n      0x00\n      dup1\n      returndatacopy\n      revert(0x00, returndatasize)\n    tag_187:\n      pop\n      pop\n      pop\n      pop\n        /* \"Contracts/TavernV3Pool.sol\":3942:4025  if (win) { _requireBankroll(wager * 2); pool.pay(payable(msg.sender), wager * 2); } */\n    tag_180:\n        /* \"Contracts/TavernV3Pool.sol\":4052:4062  msg.sender */\n      caller\n        /* \"Contracts/TavernV3Pool.sol\":4039:4106  HazardPlayed(msg.sender, wager, win, main, sum, chance, iterations) */\n      0xffffffffffffffffffffffffffffffffffffffff\n      and\n      0x5a08ed90cb799d1b0281213096fc06cd7e7ab84f1e2e4b8947282b4f3712b4c6\n        /* \"Contracts/TavernV3Pool.sol\":4064:4069  wager */\n      dup7\n        /* \"Contracts/TavernV3Pool.sol\":4071:4074  win */\n      dup4\n        /* \"Contracts/TavernV3Pool.sol\":4076:4080  main */\n      dup10\n        /* \"Contracts/TavernV3Pool.sol\":4082:4085  sum */\n      dup9\n        /* \"Contracts/TavernV3Pool.sol\":4087:4093  chance */\n      dup9\n        /* \"Contracts/TavernV3Pool.sol\":4095:4105  iterations */\n      dup9\n        /* \"Contracts/TavernV3Pool.sol\":4039:4106  HazardPlayed(msg.sender, wager, win, main, sum, chance, iterations) */\n      mload(0x40)\n      tag_188\n      swap7\n      swap6\n      swap5\n      swap4\n      swap3\n      swap2\n      swap1\n      tag_189\n      jump\t// in\n    tag_188:\n      mload(0x40)\n      dup1\n      swap2\n      sub\n      swap1\n      log2\n        /* \"Contracts/TavernV3Pool.sol\":4145:4146  0 */\n      0x00\n        /* \"Contracts/TavernV3Pool.sol\":4120:4147  address(pool) != address(0) */\n      0xffffffffffffffffffffffffffffffffffffffff\n      and\n        /* \"Contracts/TavernV3Pool.sol\":4128:4132  pool */\n      0x05\n      0x00\n      swap1\n      sload\n      swap1\n      0x0100\n      exp\n      swap1\n      div\n      0xffffffffffffffffffffffffffffffffffffffff\n      and\n        /* \"Contracts/TavernV3Pool.sol\":4120:4147  address(pool) != address(0) */\n      0xffffffffffffffffffffffffffffffffffffffff\n      and\n      eq\n        /* \"Contracts/TavernV3Pool.sol\":4116:4247  if (address(pool) != address(0)) { (bool ok,) = payable(address(pool)).call{value:wager}(\"\"); require(ok, \"pool deposit failed\"); } */\n      tag_190\n      jumpi\n        /* \"Contracts/TavernV3Pool.sol\":4152:4159  bool ok */\n      0x00\n        /* \"Contracts/TavernV3Pool.sol\":4180:4184  pool */\n      0x05\n      0x00\n      swap1\n      sload\n      swap1\n      0x0100\n      exp\n      swap1\n      div\n      0xffffffffffffffffffffffffffffffffffffffff\n      and\n        /* \"Contracts/TavernV3Pool.sol\":4164:4191  payable(address(pool)).call */\n      0xffffffffffffffffffffffffffffffffffffffff\n      and\n        /* \"Contracts/TavernV3Pool.sol\":4198:4203  wager */\n      dup7\n        /* \"Contracts/TavernV3Pool.sol\":4164:4208  payable(address(pool)).call{value:wager}(\"\") */\n      mload(0x40)\n      tag_191\n      swap1\n      tag_120\n      jump\t// in\n    tag_191:\n      0x00\n      mload(0x40)\n      dup1\n      dup4\n      sub\n      dup2\n      dup6\n      dup8\n      gas\n      call\n      swap3\n      pop\n      pop\n      pop\n      returndatasize\n      dup1\n      0x00\n      dup2\n      eq\n      tag_194\n      jumpi\n      mload(0x40)\n      swap2\n      pop\n      and(add(returndatasize, 0x3f), not(0x1f))\n      dup3\n      add\n      0x40\n      mstore\n      returndatasize\n      dup3\n      mstore\n      returndatasize\n      0x00\n      0x20\n      dup5\n      add\n      returndatacopy\n      jump(tag_193)\n    tag_194:\n      0x60\n      swap2\n      pop\n    tag_193:\n      pop\n        /* \"Contracts/TavernV3Pool.sol\":4151:4208  (bool ok,) = payable(address(pool)).call{value:wager}(\"\") */\n      pop\n      swap1\n      pop\n        /* \"Contracts/TavernV3Pool.sol\":4218:4220  ok */\n      dup1\n        /* \"Contracts/TavernV3Pool.sol\":4210:4244  require(ok, \"pool deposit failed\") */\n      tag_195\n      jumpi\n      mload(0x40)\n      0x08c379a000000000000000000000000000000000000000000000000000000000\n      dup2\n      mstore\n      0x04\n      add\n      tag_196\n      swap1\n      tag_126\n      jump\t// in\n    tag_196:\n      mload(0x40)\n      dup1\n      swap2\n      sub\n      swap1\n      revert\n    tag_195:\n        /* \"Contracts/TavernV3Pool.sol\":4149:4247  { (bool ok,) = payable(address(pool)).call{value:wager}(\"\"); require(ok, \"pool deposit failed\"); } */\n      pop\n        /* \"Contracts/TavernV3Pool.sol\":4116:4247  if (address(pool) != address(0)) { (bool ok,) = payable(address(pool)).call{value:wager}(\"\"); require(ok, \"pool deposit failed\"); } */\n    tag_190:\n        /* \"Contracts/TavernV3Pool.sol\":3268:4253  {... */\n      pop\n      pop\n      pop\n      pop\n      pop\n        /* \"Contracts/TavernV3Pool.sol\":513:514  1 */\n      0x01\n        /* \"Contracts/TavernV3Pool.sol\":503:510  _locked */\n      dup1\n        /* \"Contracts/TavernV3Pool.sol\":503:514  _locked = 1 */\n      dup2\n      swap1\n      sstore\n      pop\n        /* \"Contracts/TavernV3Pool.sol\":3206:4253  function playHazard(uint8 main) external payable nonReentrant {... */\n      pop\n      jump\t// out\n        /* \"Contracts/TavernV3Pool.sol\":618:638  uint256 public nonce */\n    tag_71:\n      sload(0x04)\n      dup2\n      jump\t// out\n        /* \"Contracts/TavernV3Pool.sol\":1340:1375  function fund() external payable {} */\n    tag_74:\n      jump\t// out\n        /* \"Contracts/TavernV3Pool.sol\":4299:4861  function playCoin(bool chooseChog) external payable nonReentrant {... */\n    tag_77:\n        /* \"Contracts/TavernV3Pool.sol\":470:471  1 */\n      0x01\n        /* \"Contracts/TavernV3Pool.sol\":459:466  _locked */\n      dup1\n      sload\n        /* \"Contracts/TavernV3Pool.sol\":459:471  _locked == 1 */\n      eq\n        /* \"Contracts/TavernV3Pool.sol\":451:485  require(_locked == 1, \"reentrant\") */\n      tag_199\n      jumpi\n      mload(0x40)\n      0x08c379a000000000000000000000000000000000000000000000000000000000\n      dup2\n      mstore\n      0x04\n      add\n      tag_200\n      swap1\n      tag_91\n      jump\t// in\n    tag_200:\n      mload(0x40)\n      dup1\n      swap2\n      sub\n      swap1\n      revert\n    tag_199:\n        /* \"Contracts/TavernV3Pool.sol\":497:498  2 */\n      0x02\n        /* \"Contracts/TavernV3Pool.sol\":487:494  _locked */\n      0x01\n        /* \"Contracts/TavernV3Pool.sol\":487:498  _locked = 2 */\n      dup2\n      swap1\n      sstore\n      pop\n        /* \"Contracts/TavernV3Pool.sol\":4383:4389  paused */\n      0x02\n      0x00\n      swap1\n      sload\n      swap1\n      0x0100\n      exp\n      swap1\n      div\n      0xff\n      and\n        /* \"Contracts/TavernV3Pool.sol\":4382:4389  !paused */\n      iszero\n        /* \"Contracts/TavernV3Pool.sol\":4374:4400  require(!paused, \"paused\") */\n      tag_202\n      jumpi\n      mload(0x40)\n      0x08c379a000000000000000000000000000000000000000000000000000000000\n      dup2\n      mstore\n      0x04\n      add\n      tag_203\n      swap1\n      tag_95\n      jump\t// in\n    tag_203:\n      mload(0x40)\n      dup1\n      swap2\n      sub\n      swap1\n      revert\n    tag_202:\n        /* \"Contracts/TavernV3Pool.sol\":4402:4415  uint256 wager */\n      0x00\n        /* \"Contracts/TavernV3Pool.sol\":4418:4427  msg.value */\n      callvalue\n        /* \"Contracts/TavernV3Pool.sol\":4402:4427  uint256 wager = msg.value */\n      swap1\n      pop\n        /* \"Contracts/TavernV3Pool.sol\":4445:4446  0 */\n      0x00\n        /* \"Contracts/TavernV3Pool.sol\":4437:4442  wager */\n      dup2\n        /* \"Contracts/TavernV3Pool.sol\":4437:4446  wager > 0 */\n      gt\n        /* \"Contracts/TavernV3Pool.sol\":4437:4465  wager > 0 && wager <= maxBet */\n      dup1\n      iszero\n      tag_204\n      jumpi\n      pop\n        /* \"Contracts/TavernV3Pool.sol\":4459:4465  maxBet */\n      sload(0x03)\n        /* \"Contracts/TavernV3Pool.sol\":4450:4455  wager */\n      dup2\n        /* \"Contracts/TavernV3Pool.sol\":4450:4465  wager <= maxBet */\n      gt\n      iszero\n        /* \"Contracts/TavernV3Pool.sol\":4437:4465  wager > 0 && wager <= maxBet */\n    tag_204:\n        /* \"Contracts/TavernV3Pool.sol\":4429:4479  require(wager > 0 && wager <= maxBet, \"bad wager\") */\n      tag_205\n      jumpi\n      mload(0x40)\n      0x08c379a000000000000000000000000000000000000000000000000000000000\n      dup2\n      mstore\n      0x04\n      add\n      tag_206\n      swap1\n      tag_102\n      jump\t// in\n    tag_206:\n      mload(0x40)\n      dup1\n      swap2\n      sub\n      swap1\n      revert\n    tag_205:\n        /* \"Contracts/TavernV3Pool.sol\":4489:4504  bool resultChog */\n      0x00\n        /* \"Contracts/TavernV3Pool.sol\":4520:4521  1 */\n      0x01\n        /* \"Contracts/TavernV3Pool.sol\":4508:4516  _rand(2) */\n      tag_207\n        /* \"Contracts/TavernV3Pool.sol\":4514:4515  2 */\n      0x02\n        /* \"Contracts/TavernV3Pool.sol\":4508:4513  _rand */\n      tag_104\n        /* \"Contracts/TavernV3Pool.sol\":4508:4516  _rand(2) */\n      jump\t// in\n    tag_207:\n        /* \"Contracts/TavernV3Pool.sol\":4508:4521  _rand(2) == 1 */\n      eq\n        /* \"Contracts/TavernV3Pool.sol\":4489:4522  bool resultChog = (_rand(2) == 1) */\n      swap1\n      pop\n        /* \"Contracts/TavernV3Pool.sol\":4524:4532  bool won */\n      0x00\n        /* \"Contracts/TavernV3Pool.sol\":4550:4560  chooseChog */\n      dup4\n        /* \"Contracts/TavernV3Pool.sol\":4536:4560  resultChog == chooseChog */\n      iszero\n      iszero\n        /* \"Contracts/TavernV3Pool.sol\":4536:4546  resultChog */\n      dup3\n        /* \"Contracts/TavernV3Pool.sol\":4536:4560  resultChog == chooseChog */\n      iszero\n      iszero\n      eq\n        /* \"Contracts/TavernV3Pool.sol\":4524:4561  bool won = (resultChog == chooseChog) */\n      swap1\n      pop\n        /* \"Contracts/TavernV3Pool.sol\":4575:4578  won */\n      dup1\n        /* \"Contracts/TavernV3Pool.sol\":4571:4654  if (won) { _requireBankroll(wager * 2); pool.pay(payable(msg.sender), wager * 2); } */\n      iszero\n      tag_208\n      jumpi\n        /* \"Contracts/TavernV3Pool.sol\":4582:4609  _requireBankroll(wager * 2) */\n      tag_209\n        /* \"Contracts/TavernV3Pool.sol\":4607:4608  2 */\n      0x02\n        /* \"Contracts/TavernV3Pool.sol\":4599:4604  wager */\n      dup5\n        /* \"Contracts/TavernV3Pool.sol\":4599:4608  wager * 2 */\n      tag_210\n      swap2\n      swap1\n      tag_108\n      jump\t// in\n    tag_210:\n        /* \"Contracts/TavernV3Pool.sol\":4582:4598  _requireBankroll */\n      tag_109\n        /* \"Contracts/TavernV3Pool.sol\":4582:4609  _requireBankroll(wager * 2) */\n      jump\t// in\n    tag_209:\n        /* \"Contracts/TavernV3Pool.sol\":4611:4615  pool */\n      0x05\n      0x00\n      swap1\n      sload\n      swap1\n      0x0100\n      exp\n      swap1\n      div\n      0xffffffffffffffffffffffffffffffffffffffff\n      and\n        /* \"Contracts/TavernV3Pool.sol\":4611:4619  pool.pay */\n      0xffffffffffffffffffffffffffffffffffffffff\n      and\n      0xc4076876\n        /* \"Contracts/TavernV3Pool.sol\":4628:4638  msg.sender */\n      caller\n        /* \"Contracts/TavernV3Pool.sol\":4649:4650  2 */\n      0x02\n        /* \"Contracts/TavernV3Pool.sol\":4641:4646  wager */\n      dup7\n        /* \"Contracts/TavernV3Pool.sol\":4641:4650  wager * 2 */\n      tag_211\n      swap2\n      swap1\n      tag_108\n      jump\t// in\n    tag_211:\n        /* \"Contracts/TavernV3Pool.sol\":4611:4651  pool.pay(payable(msg.sender), wager * 2) */\n      mload(0x40)\n      dup4\n      0xffffffff\n      and\n      0xe0\n      shl\n      dup2\n      mstore\n      0x04\n      add\n      tag_212\n      swap3\n      swap2\n      swap1\n      tag_112\n      jump\t// in\n    tag_212:\n      0x00\n      mload(0x40)\n      dup1\n      dup4\n      sub\n      dup2\n      0x00\n      dup8\n      dup1\n      extcodesize\n      iszero\n      dup1\n      iszero\n      tag_213\n      jumpi\n      0x00\n      dup1\n      revert\n    tag_213:\n      pop\n      gas\n      call\n      iszero\n      dup1\n      iszero\n      tag_215\n      jumpi\n      returndatasize\n      0x00\n      dup1\n      returndatacopy\n      revert(0x00, returndatasize)\n    tag_215:\n      pop\n      pop\n      pop\n      pop\n        /* \"Contracts/TavernV3Pool.sol\":4571:4654  if (won) { _requireBankroll(wager * 2); pool.pay(payable(msg.sender), wager * 2); } */\n    tag_208:\n        /* \"Contracts/TavernV3Pool.sol\":4679:4689  msg.sender */\n      caller\n        /* \"Contracts/TavernV3Pool.sol\":4668:4714  CoinPlayed(msg.sender, wager, won, resultChog) */\n      0xffffffffffffffffffffffffffffffffffffffff\n      and\n      0xe4e7f0a0e6fc393a5af5b89ee2fe9a7267a850bbcc8ec0e4571f51a17ed1d97e\n        /* \"Contracts/TavernV3Pool.sol\":4691:4696  wager */\n      dup5\n        /* \"Contracts/TavernV3Pool.sol\":4698:4701  won */\n      dup4\n        /* \"Contracts/TavernV3Pool.sol\":4703:4713  resultChog */\n      dup6\n        /* \"Contracts/TavernV3Pool.sol\":4668:4714  CoinPlayed(msg.sender, wager, won, resultChog) */\n      mload(0x40)\n      tag_216\n      swap4\n      swap3\n      swap2\n      swap1\n      tag_217\n      jump\t// in\n    tag_216:\n      mload(0x40)\n      dup1\n      swap2\n      sub\n      swap1\n      log2\n        /* \"Contracts/TavernV3Pool.sol\":4753:4754  0 */\n      0x00\n        /* \"Contracts/TavernV3Pool.sol\":4728:4755  address(pool) != address(0) */\n      0xffffffffffffffffffffffffffffffffffffffff\n      and\n        /* \"Contracts/TavernV3Pool.sol\":4736:4740  pool */\n      0x05\n      0x00\n      swap1\n      sload\n      swap1\n      0x0100\n      exp\n      swap1\n      div\n      0xffffffffffffffffffffffffffffffffffffffff\n      and\n        /* \"Contracts/TavernV3Pool.sol\":4728:4755  address(pool) != address(0) */\n      0xffffffffffffffffffffffffffffffffffffffff\n      and\n      eq\n        /* \"Contracts/TavernV3Pool.sol\":4724:4855  if (address(pool) != address(0)) { (bool ok,) = payable(address(pool)).call{value:wager}(\"\"); require(ok, \"pool deposit failed\"); } */\n      tag_218\n      jumpi\n        /* \"Contracts/TavernV3Pool.sol\":4760:4767  bool ok */\n      0x00\n        /* \"Contracts/TavernV3Pool.sol\":4788:4792  pool */\n      0x05\n      0x00\n      swap1\n      sload\n      swap1\n      0x0100\n      exp\n      swap1\n      div\n      0xffffffffffffffffffffffffffffffffffffffff\n      and\n        /* \"Contracts/TavernV3Pool.sol\":4772:4799  payable(address(pool)).call */\n      0xffffffffffffffffffffffffffffffffffffffff\n      and\n        /* \"Contracts/TavernV3Pool.sol\":4806:4811  wager */\n      dup5\n        /* \"Contracts/TavernV3Pool.sol\":4772:4816  payable(address(pool)).call{value:wager}(\"\") */\n      mload(0x40)\n      tag_219\n      swap1\n      tag_120\n      jump\t// in\n    tag_219:\n      0x00\n      mload(0x40)\n      dup1\n      dup4\n      sub\n      dup2\n      dup6\n      dup8\n      gas\n      call\n      swap3\n      pop\n      pop\n      pop\n      returndatasize\n      dup1\n      0x00\n      dup2\n      eq\n      tag_222\n      jumpi\n      mload(0x40)\n      swap2\n      pop\n      and(add(returndatasize, 0x3f), not(0x1f))\n      dup3\n      add\n      0x40\n      mstore\n      returndatasize\n      dup3\n      mstore\n      returndatasize\n      0x00\n      0x20\n      dup5\n      add\n      returndatacopy\n      jump(tag_221)\n    tag_222:\n      0x60\n      swap2\n      pop\n    tag_221:\n      pop\n        /* \"Contracts/TavernV3Pool.sol\":4759:4816  (bool ok,) = payable(address(pool)).call{value:wager}(\"\") */\n      pop\n      swap1\n      pop\n        /* \"Contracts/TavernV3Pool.sol\":4826:4828  ok */\n      dup1\n        /* \"Contracts/TavernV3Pool.sol\":4818:4852  require(ok, \"pool deposit failed\") */\n      tag_223\n      jumpi\n      mload(0x40)\n      0x08c379a000000000000000000000000000000000000000000000000000000000\n      dup2\n      mstore\n      0x04\n      add\n      tag_224\n      swap1\n      tag_126\n      jump\t// in\n    tag_224:\n      mload(0x40)\n      dup1\n      swap2\n      sub\n      swap1\n      revert\n    tag_223:\n        /* \"Contracts/TavernV3Pool.sol\":4757:4855  { (bool ok,) = payable(address(pool)).call{value:wager}(\"\"); require(ok, \"pool deposit failed\"); } */\n      pop\n        /* \"Contracts/TavernV3Pool.sol\":4724:4855  if (address(pool) != address(0)) { (bool ok,) = payable(address(pool)).call{value:wager}(\"\"); require(ok, \"pool deposit failed\"); } */\n    tag_218:\n        /* \"Contracts/TavernV3Pool.sol\":4364:4861  {... */\n      pop\n      pop\n      pop\n        /* \"Contracts/TavernV3Pool.sol\":513:514  1 */\n      0x01\n        /* \"Contracts/TavernV3Pool.sol\":503:510  _locked */\n      dup1\n        /* \"Contracts/TavernV3Pool.sol\":503:514  _locked = 1 */\n      dup2\n      swap1\n      sstore\n      pop\n        /* \"Contracts/TavernV3Pool.sol\":4299:4861  function playCoin(bool chooseChog) external payable nonReentrant {... */\n      pop\n      jump\t// out\n        /* \"Contracts/TavernV3Pool.sol\":1533:1703  function transferOwnership(address newOwner) external onlyOwner { require(newOwner != address(0), \"zero\"); emit OwnershipTransferred(owner, newOwner); owner = newOwner; } */\n    tag_81:\n        /* \"Contracts/TavernV3Pool.sol\":395:400  owner */\n      0x00\n      dup1\n      sload\n      swap1\n      0x0100\n      exp\n      swap1\n      div\n      0xffffffffffffffffffffffffffffffffffffffff\n      and\n        /* \"Contracts/TavernV3Pool.sol\":381:400  msg.sender == owner */\n      0xffffffffffffffffffffffffffffffffffffffff\n      and\n        /* \"Contracts/TavernV3Pool.sol\":381:391  msg.sender */\n      caller\n        /* \"Contracts/TavernV3Pool.sol\":381:400  msg.sender == owner */\n      0xffffffffffffffffffffffffffffffffffffffff\n      and\n      eq\n        /* \"Contracts/TavernV3Pool.sol\":373:414  require(msg.sender == owner, \"not owner\") */\n      tag_226\n      jumpi\n      mload(0x40)\n      0x08c379a000000000000000000000000000000000000000000000000000000000\n      dup2\n      mstore\n      0x04\n      add\n      tag_227\n      swap1\n      tag_85\n      jump\t// in\n    tag_227:\n      mload(0x40)\n      dup1\n      swap2\n      sub\n      swap1\n      revert\n    tag_226:\n        /* \"Contracts/TavernV3Pool.sol\":1627:1628  0 */\n      0x00\n        /* \"Contracts/TavernV3Pool.sol\":1607:1629  newOwner != address(0) */\n      0xffffffffffffffffffffffffffffffffffffffff\n      and\n        /* \"Contracts/TavernV3Pool.sol\":1607:1615  newOwner */\n      dup2\n        /* \"Contracts/TavernV3Pool.sol\":1607:1629  newOwner != address(0) */\n      0xffffffffffffffffffffffffffffffffffffffff\n      and\n      sub\n        /* \"Contracts/TavernV3Pool.sol\":1599:1638  require(newOwner != address(0), \"zero\") */\n      tag_229\n      jumpi\n      mload(0x40)\n      0x08c379a000000000000000000000000000000000000000000000000000000000\n      dup2\n      mstore\n      0x04\n      add\n      tag_230\n      swap1\n      tag_133\n      jump\t// in\n    tag_230:\n      mload(0x40)\n      dup1\n      swap2\n      sub\n      swap1\n      revert\n    tag_229:\n        /* \"Contracts/TavernV3Pool.sol\":1673:1681  newOwner */\n      dup1\n        /* \"Contracts/TavernV3Pool.sol\":1645:1682  OwnershipTransferred(owner, newOwner) */\n      0xffffffffffffffffffffffffffffffffffffffff\n      and\n        /* \"Contracts/TavernV3Pool.sol\":1666:1671  owner */\n      0x00\n      dup1\n      sload\n      swap1\n      0x0100\n      exp\n      swap1\n      div\n      0xffffffffffffffffffffffffffffffffffffffff\n      and\n        /* \"Contracts/TavernV3Pool.sol\":1645:1682  OwnershipTransferred(owner, newOwner) */\n      0xffffffffffffffffffffffffffffffffffffffff\n      and\n      0x8be0079c531659141344cd1fd0a4f28419497f9722a3daafe3b4186f6b6457e0\n      mload(0x40)\n      mload(0x40)\n      dup1\n      swap2\n      sub\n      swap1\n      log3\n        /* \"Contracts/TavernV3Pool.sol\":1692:1700  newOwner */\n      dup1\n        /* \"Contracts/TavernV3Pool.sol\":1684:1689  owner */\n      0x00\n      dup1\n        /* \"Contracts/TavernV3Pool.sol\":1684:1700  owner = newOwner */\n      0x0100\n      exp\n      dup2\n      sload\n      dup2\n      0xffffffffffffffffffffffffffffffffffffffff\n      mul\n      not\n      and\n      swap1\n      dup4\n      0xffffffffffffffffffffffffffffffffffffffff\n      and\n      mul\n      or\n      swap1\n      sstore\n      pop\n        /* \"Contracts/TavernV3Pool.sol\":1533:1703  function transferOwnership(address newOwner) external onlyOwner { require(newOwner != address(0), \"zero\"); emit OwnershipTransferred(owner, newOwner); owner = newOwner; } */\n      pop\n      jump\t// out\n        /* \"Contracts/TavernV3Pool.sol\":1985:2163  function _rand(uint256 mod) internal returns (uint256 r) { unchecked { r = uint256(keccak256(abi.encodePacked(block.prevrandao, block.timestamp, msg.sender, nonce++))) % mod; } } */\n    tag_104:\n        /* \"Contracts/TavernV3Pool.sol\":2031:2040  uint256 r */\n      0x00\n        /* \"Contracts/TavernV3Pool.sol\":2155:2158  mod */\n      dup2\n        /* \"Contracts/TavernV3Pool.sol\":2095:2111  block.prevrandao */\n      prevrandao\n        /* \"Contracts/TavernV3Pool.sol\":2113:2128  block.timestamp */\n      timestamp\n        /* \"Contracts/TavernV3Pool.sol\":2130:2140  msg.sender */\n      caller\n        /* \"Contracts/TavernV3Pool.sol\":2142:2147  nonce */\n      0x04\n      0x00\n        /* \"Contracts/TavernV3Pool.sol\":2142:2149  nonce++ */\n      dup2\n      sload\n      dup1\n      swap3\n      swap2\n      swap1\n      0x01\n      add\n      swap2\n      swap1\n      pop\n      sstore\n        /* \"Contracts/TavernV3Pool.sol\":2078:2150  abi.encodePacked(block.prevrandao, block.timestamp, msg.sender, nonce++) */\n      add(0x20, mload(0x40))\n      tag_232\n      swap5\n      swap4\n      swap3\n      swap2\n      swap1\n      tag_233\n      jump\t// in\n    tag_232:\n      mload(0x40)\n      0x20\n      dup2\n      dup4\n      sub\n      sub\n      dup2\n      mstore\n      swap1\n      0x40\n      mstore\n        /* \"Contracts/TavernV3Pool.sol\":2068:2151  keccak256(abi.encodePacked(block.prevrandao, block.timestamp, msg.sender, nonce++)) */\n      dup1\n      mload\n      swap1\n      0x20\n      add\n      keccak256\n        /* \"Contracts/TavernV3Pool.sol\":2060:2152  uint256(keccak256(abi.encodePacked(block.prevrandao, block.timestamp, msg.sender, nonce++))) */\n      0x00\n      shr\n        /* \"Contracts/TavernV3Pool.sol\":2060:2158  uint256(keccak256(abi.encodePacked(block.prevrandao, block.timestamp, msg.sender, nonce++))) % mod */\n      dup2\n      tag_234\n      jumpi\n      tag_235\n      tag_236\n      jump\t// in\n    tag_235:\n    tag_234:\n      mod\n        /* \"Contracts/TavernV3Pool.sol\":2056:2158  r = uint256(keccak256(abi.encodePacked(block.prevrandao, block.timestamp, msg.sender, nonce++))) % mod */\n      swap1\n      pop\n        /* \"Contracts/TavernV3Pool.sol\":1985:2163  function _rand(uint256 mod) internal returns (uint256 r) { unchecked { r = uint256(keccak256(abi.encodePacked(block.prevrandao, block.timestamp, msg.sender, nonce++))) % mod; } } */\n      swap2\n      swap1\n      pop\n      jump\t// out\n        /* \"Contracts/TavernV3Pool.sol\":2302:2481  function _requireBankroll(uint256 needed) internal view {... */\n    tag_109:\n        /* \"Contracts/TavernV3Pool.sol\":2397:2398  0 */\n      0x00\n        /* \"Contracts/TavernV3Pool.sol\":2372:2399  address(pool) != address(0) */\n      0xffffffffffffffffffffffffffffffffffffffff\n      and\n        /* \"Contracts/TavernV3Pool.sol\":2380:2384  pool */\n      0x05\n      0x00\n      swap1\n      sload\n      swap1\n      0x0100\n      exp\n      swap1\n      div\n      0xffffffffffffffffffffffffffffffffffffffff\n      and\n        /* \"Contracts/TavernV3Pool.sol\":2372:2399  address(pool) != address(0) */\n      0xffffffffffffffffffffffffffffffffffffffff\n      and\n      eq\n        /* \"Contracts/TavernV3Pool.sol\":2368:2475  if (address(pool) != address(0)) {... */\n      tag_238\n      jumpi\n        /* \"Contracts/TavernV3Pool.sol\":2441:2447  needed */\n      dup1\n        /* \"Contracts/TavernV3Pool.sol\":2423:2427  pool */\n      0x05\n      0x00\n      swap1\n      sload\n      swap1\n      0x0100\n      exp\n      swap1\n      div\n      0xffffffffffffffffffffffffffffffffffffffff\n      and\n        /* \"Contracts/TavernV3Pool.sol\":2423:2435  pool.balance */\n      0xffffffffffffffffffffffffffffffffffffffff\n      and\n      0xb69ef8a8\n        /* \"Contracts/TavernV3Pool.sol\":2423:2437  pool.balance() */\n      mload(0x40)\n      dup2\n      0xffffffff\n      and\n      0xe0\n      shl\n      dup2\n      mstore\n      0x04\n      add\n      0x20\n      mload(0x40)\n      dup1\n      dup4\n      sub\n      dup2\n      dup7\n      gas\n      staticcall\n      iszero\n      dup1\n      iszero\n      tag_240\n      jumpi\n      returndatasize\n      0x00\n      dup1\n      returndatacopy\n      revert(0x00, returndatasize)\n    tag_240:\n      pop\n      pop\n      pop\n      pop\n      mload(0x40)\n      returndatasize\n      not(0x1f)\n      0x1f\n      dup3\n      add\n      and\n      dup3\n      add\n      dup1\n      0x40\n      mstore\n      pop\n      dup2\n      add\n      swap1\n      tag_241\n      swap2\n      swap1\n      tag_242\n      jump\t// in\n    tag_241:\n        /* \"Contracts/TavernV3Pool.sol\":2423:2447  pool.balance() >= needed */\n      lt\n      iszero\n        /* \"Contracts/TavernV3Pool.sol\":2415:2464  require(pool.balance() >= needed, \"bankroll low\") */\n      tag_243\n      jumpi\n      mload(0x40)\n      0x08c379a000000000000000000000000000000000000000000000000000000000\n      dup2\n      mstore\n      0x04\n      add\n      tag_244\n      swap1\n      tag_245\n      jump\t// in\n    tag_244:\n      mload(0x40)\n      dup1\n      swap2\n      sub\n      swap1\n      revert\n    tag_243:\n        /* \"Contracts/TavernV3Pool.sol\":2368:2475  if (address(pool) != address(0)) {... */\n    tag_238:\n        /* \"Contracts/TavernV3Pool.sol\":2302:2481  function _requireBankroll(uint256 needed) internal view {... */\n      pop\n      jump\t// out\n        /* \"Contracts/TavernV3Pool.sol\":2168:2296  function _rollSum() internal returns (uint8) { uint8 d1 = uint8(_rand(6) + 1); uint8 d2 = uint8(_rand(6) + 1); return d1 + d2; } */\n    tag_158:\n        /* \"Contracts/TavernV3Pool.sol\":2206:2211  uint8 */\n      0x00\n        /* \"Contracts/TavernV3Pool.sol\":2215:2223  uint8 d1 */\n      dup1\n        /* \"Contracts/TavernV3Pool.sol\":2243:2244  1 */\n      0x01\n        /* \"Contracts/TavernV3Pool.sol\":2232:2240  _rand(6) */\n      tag_247\n        /* \"Contracts/TavernV3Pool.sol\":2238:2239  6 */\n      0x06\n        /* \"Contracts/TavernV3Pool.sol\":2232:2237  _rand */\n      tag_104\n        /* \"Contracts/TavernV3Pool.sol\":2232:2240  _rand(6) */\n      jump\t// in\n    tag_247:\n        /* \"Contracts/TavernV3Pool.sol\":2232:2244  _rand(6) + 1 */\n      tag_248\n      swap2\n      swap1\n      tag_249\n      jump\t// in\n    tag_248:\n        /* \"Contracts/TavernV3Pool.sol\":2215:2245  uint8 d1 = uint8(_rand(6) + 1) */\n      swap1\n      pop\n        /* \"Contracts/TavernV3Pool.sol\":2247:2255  uint8 d2 */\n      0x00\n        /* \"Contracts/TavernV3Pool.sol\":2275:2276  1 */\n      0x01\n        /* \"Contracts/TavernV3Pool.sol\":2264:2272  _rand(6) */\n      tag_250\n        /* \"Contracts/TavernV3Pool.sol\":2270:2271  6 */\n      0x06\n        /* \"Contracts/TavernV3Pool.sol\":2264:2269  _rand */\n      tag_104\n        /* \"Contracts/TavernV3Pool.sol\":2264:2272  _rand(6) */\n      jump\t// in\n    tag_250:\n        /* \"Contracts/TavernV3Pool.sol\":2264:2276  _rand(6) + 1 */\n      tag_251\n      swap2\n      swap1\n      tag_249\n      jump\t// in\n    tag_251:\n        /* \"Contracts/TavernV3Pool.sol\":2247:2277  uint8 d2 = uint8(_rand(6) + 1) */\n      swap1\n      pop\n        /* \"Contracts/TavernV3Pool.sol\":2291:2293  d2 */\n      dup1\n        /* \"Contracts/TavernV3Pool.sol\":2286:2288  d1 */\n      dup3\n        /* \"Contracts/TavernV3Pool.sol\":2286:2293  d1 + d2 */\n      tag_252\n      swap2\n      swap1\n      tag_253\n      jump\t// in\n    tag_252:\n        /* \"Contracts/TavernV3Pool.sol\":2279:2293  return d1 + d2 */\n      swap3\n      pop\n      pop\n      pop\n        /* \"Contracts/TavernV3Pool.sol\":2168:2296  function _rollSum() internal returns (uint8) { uint8 d1 = uint8(_rand(6) + 1); uint8 d2 = uint8(_rand(6) + 1); return d1 + d2; } */\n      swap1\n      jump\t// out\n        /* \"#utility.yul\":88:205   */\n    tag_255:\n        /* \"#utility.yul\":197:198   */\n      0x00\n        /* \"#utility.yul\":194:195   */\n      dup1\n        /* \"#utility.yul\":187:199   */\n      revert\n        /* \"#utility.yul\":334:424   */\n    tag_257:\n        /* \"#utility.yul\":368:375   */\n      0x00\n        /* \"#utility.yul\":411:416   */\n      dup2\n        /* \"#utility.yul\":404:417   */\n      iszero\n        /* \"#utility.yul\":397:418   */\n      iszero\n        /* \"#utility.yul\":386:418   */\n      swap1\n      pop\n        /* \"#utility.yul\":334:424   */\n      swap2\n      swap1\n      pop\n      jump\t// out\n        /* \"#utility.yul\":430:546   */\n    tag_258:\n        /* \"#utility.yul\":500:521   */\n      tag_319\n        /* \"#utility.yul\":515:520   */\n      dup2\n        /* \"#utility.yul\":500:521   */\n      tag_257\n      jump\t// in\n    tag_319:\n        /* \"#utility.yul\":493:498   */\n      dup2\n        /* \"#utility.yul\":490:522   */\n      eq\n        /* \"#utility.yul\":480:540   */\n      tag_320\n      jumpi\n        /* \"#utility.yul\":536:537   */\n      0x00\n        /* \"#utility.yul\":533:534   */\n      dup1\n        /* \"#utility.yul\":526:538   */\n      revert\n        /* \"#utility.yul\":480:540   */\n    tag_320:\n        /* \"#utility.yul\":430:546   */\n      pop\n      jump\t// out\n        /* \"#utility.yul\":552:685   */\n    tag_259:\n        /* \"#utility.yul\":595:600   */\n      0x00\n        /* \"#utility.yul\":633:639   */\n      dup2\n        /* \"#utility.yul\":620:640   */\n      calldataload\n        /* \"#utility.yul\":611:640   */\n      swap1\n      pop\n        /* \"#utility.yul\":649:679   */\n      tag_322\n        /* \"#utility.yul\":673:678   */\n      dup2\n        /* \"#utility.yul\":649:679   */\n      tag_258\n      jump\t// in\n    tag_322:\n        /* \"#utility.yul\":552:685   */\n      swap3\n      swap2\n      pop\n      pop\n      jump\t// out\n        /* \"#utility.yul\":691:1014   */\n    tag_25:\n        /* \"#utility.yul\":747:753   */\n      0x00\n        /* \"#utility.yul\":796:798   */\n      0x20\n        /* \"#utility.yul\":784:793   */\n      dup3\n        /* \"#utility.yul\":775:782   */\n      dup5\n        /* \"#utility.yul\":771:794   */\n      sub\n        /* \"#utility.yul\":767:799   */\n      slt\n        /* \"#utility.yul\":764:883   */\n      iszero\n      tag_324\n      jumpi\n        /* \"#utility.yul\":802:881   */\n      tag_325\n      tag_255\n      jump\t// in\n    tag_325:\n        /* \"#utility.yul\":764:883   */\n    tag_324:\n        /* \"#utility.yul\":922:923   */\n      0x00\n        /* \"#utility.yul\":947:997   */\n      tag_326\n        /* \"#utility.yul\":989:996   */\n      dup5\n        /* \"#utility.yul\":980:986   */\n      dup3\n        /* \"#utility.yul\":969:978   */\n      dup6\n        /* \"#utility.yul\":965:987   */\n      add\n        /* \"#utility.yul\":947:997   */\n      tag_259\n      jump\t// in\n    tag_326:\n        /* \"#utility.yul\":937:997   */\n      swap2\n      pop\n        /* \"#utility.yul\":893:1007   */\n      pop\n        /* \"#utility.yul\":691:1014   */\n      swap3\n      swap2\n      pop\n      pop\n      jump\t// out\n        /* \"#utility.yul\":1020:1106   */\n    tag_260:\n        /* \"#utility.yul\":1055:1062   */\n      0x00\n        /* \"#utility.yul\":1095:1099   */\n      0xff\n        /* \"#utility.yul\":1088:1093   */\n      dup3\n        /* \"#utility.yul\":1084:1100   */\n      and\n        /* \"#utility.yul\":1073:1100   */\n      swap1\n      pop\n        /* \"#utility.yul\":1020:1106   */\n      swap2\n      swap1\n      pop\n      jump\t// out\n        /* \"#utility.yul\":1112:1230   */\n    tag_261:\n        /* \"#utility.yul\":1183:1205   */\n      tag_329\n        /* \"#utility.yul\":1199:1204   */\n      dup2\n        /* \"#utility.yul\":1183:1205   */\n      tag_260\n      jump\t// in\n    tag_329:\n        /* \"#utility.yul\":1176:1181   */\n      dup2\n        /* \"#utility.yul\":1173:1206   */\n      eq\n        /* \"#utility.yul\":1163:1224   */\n      tag_330\n      jumpi\n        /* \"#utility.yul\":1220:1221   */\n      0x00\n        /* \"#utility.yul\":1217:1218   */\n      dup1\n        /* \"#utility.yul\":1210:1222   */\n      revert\n        /* \"#utility.yul\":1163:1224   */\n    tag_330:\n        /* \"#utility.yul\":1112:1230   */\n      pop\n      jump\t// out\n        /* \"#utility.yul\":1236:1371   */\n    tag_262:\n        /* \"#utility.yul\":1280:1285   */\n      0x00\n        /* \"#utility.yul\":1318:1324   */\n      dup2\n        /* \"#utility.yul\":1305:1325   */\n      calldataload\n        /* \"#utility.yul\":1296:1325   */\n      swap1\n      pop\n        /* \"#utility.yul\":1334:1365   */\n      tag_332\n        /* \"#utility.yul\":1359:1364   */\n      dup2\n        /* \"#utility.yul\":1334:1365   */\n      tag_261\n      jump\t// in\n    tag_332:\n        /* \"#utility.yul\":1236:1371   */\n      swap3\n      swap2\n      pop\n      pop\n      jump\t// out\n        /* \"#utility.yul\":1377:1702   */\n    tag_29:\n        /* \"#utility.yul\":1434:1440   */\n      0x00\n        /* \"#utility.yul\":1483:1485   */\n      0x20\n        /* \"#utility.yul\":1471:1480   */\n      dup3\n        /* \"#utility.yul\":1462:1469   */\n      dup5\n        /* \"#utility.yul\":1458:1481   */\n      sub\n        /* \"#utility.yul\":1454:1486   */\n      slt\n        /* \"#utility.yul\":1451:1570   */\n      iszero\n      tag_334\n      jumpi\n        /* \"#utility.yul\":1489:1568   */\n      tag_335\n      tag_255\n      jump\t// in\n    tag_335:\n        /* \"#utility.yul\":1451:1570   */\n    tag_334:\n        /* \"#utility.yul\":1609:1610   */\n      0x00\n        /* \"#utility.yul\":1634:1685   */\n      tag_336\n        /* \"#utility.yul\":1677:1684   */\n      dup5\n        /* \"#utility.yul\":1668:1674   */\n      dup3\n        /* \"#utility.yul\":1657:1666   */\n      dup6\n        /* \"#utility.yul\":1653:1675   */\n      add\n        /* \"#utility.yul\":1634:1685   */\n      tag_262\n      jump\t// in\n    tag_336:\n        /* \"#utility.yul\":1624:1685   */\n      swap2\n      pop\n        /* \"#utility.yul\":1580:1695   */\n      pop\n        /* \"#utility.yul\":1377:1702   */\n      swap3\n      swap2\n      pop\n      pop\n      jump\t// out\n        /* \"#utility.yul\":1708:1834   */\n    tag_263:\n        /* \"#utility.yul\":1745:1752   */\n      0x00\n        /* \"#utility.yul\":1785:1827   */\n      0xffffffffffffffffffffffffffffffffffffffff\n        /* \"#utility.yul\":1778:1783   */\n      dup3\n        /* \"#utility.yul\":1774:1828   */\n      and\n        /* \"#utility.yul\":1763:1828   */\n      swap1\n      pop\n        /* \"#utility.yul\":1708:1834   */\n      swap2\n      swap1\n      pop\n      jump\t// out\n        /* \"#utility.yul\":1840:1900   */\n    tag_264:\n        /* \"#utility.yul\":1868:1871   */\n      0x00\n        /* \"#utility.yul\":1889:1894   */\n      dup2\n        /* \"#utility.yul\":1882:1894   */\n      swap1\n      pop\n        /* \"#utility.yul\":1840:1900   */\n      swap2\n      swap1\n      pop\n      jump\t// out\n        /* \"#utility.yul\":1906:2048   */\n    tag_265:\n        /* \"#utility.yul\":1956:1965   */\n      0x00\n        /* \"#utility.yul\":1989:2042   */\n      tag_340\n        /* \"#utility.yul\":2007:2041   */\n      tag_341\n        /* \"#utility.yul\":2016:2040   */\n      tag_342\n        /* \"#utility.yul\":2034:2039   */\n      dup5\n        /* \"#utility.yul\":2016:2040   */\n      tag_263\n      jump\t// in\n    tag_342:\n        /* \"#utility.yul\":2007:2041   */\n      tag_264\n      jump\t// in\n    tag_341:\n        /* \"#utility.yul\":1989:2042   */\n      tag_263\n      jump\t// in\n    tag_340:\n        /* \"#utility.yul\":1976:2042   */\n      swap1\n      pop\n        /* \"#utility.yul\":1906:2048   */\n      swap2\n      swap1\n      pop\n      jump\t// out\n        /* \"#utility.yul\":2054:2180   */\n    tag_266:\n        /* \"#utility.yul\":2104:2113   */\n      0x00\n        /* \"#utility.yul\":2137:2174   */\n      tag_344\n        /* \"#utility.yul\":2168:2173   */\n      dup3\n        /* \"#utility.yul\":2137:2174   */\n      tag_265\n      jump\t// in\n    tag_344:\n        /* \"#utility.yul\":2124:2174   */\n      swap1\n      pop\n        /* \"#utility.yul\":2054:2180   */\n      swap2\n      swap1\n      pop\n      jump\t// out\n        /* \"#utility.yul\":2186:2332   */\n    tag_267:\n        /* \"#utility.yul\":2256:2265   */\n      0x00\n        /* \"#utility.yul\":2289:2326   */\n      tag_346\n        /* \"#utility.yul\":2320:2325   */\n      dup3\n        /* \"#utility.yul\":2289:2326   */\n      tag_266\n      jump\t// in\n    tag_346:\n        /* \"#utility.yul\":2276:2326   */\n      swap1\n      pop\n        /* \"#utility.yul\":2186:2332   */\n      swap2\n      swap1\n      pop\n      jump\t// out\n        /* \"#utility.yul\":2338:2509   */\n    tag_268:\n        /* \"#utility.yul\":2445:2502   */\n      tag_348\n        /* \"#utility.yul\":2496:2501   */\n      dup2\n        /* \"#utility.yul\":2445:2502   */\n      tag_267\n      jump\t// in\n    tag_348:\n        /* \"#utility.yul\":2440:2443   */\n      dup3\n        /* \"#utility.yul\":2433:2503   */\n      mstore\n        /* \"#utility.yul\":2338:2509   */\n      pop\n      pop\n      jump\t// out\n        /* \"#utility.yul\":2515:2777   */\n    tag_35:\n        /* \"#utility.yul\":2628:2632   */\n      0x00\n        /* \"#utility.yul\":2666:2668   */\n      0x20\n        /* \"#utility.yul\":2655:2664   */\n      dup3\n        /* \"#utility.yul\":2651:2669   */\n      add\n        /* \"#utility.yul\":2643:2669   */\n      swap1\n      pop\n        /* \"#utility.yul\":2679:2770   */\n      tag_350\n        /* \"#utility.yul\":2767:2768   */\n      0x00\n        /* \"#utility.yul\":2756:2765   */\n      dup4\n        /* \"#utility.yul\":2752:2769   */\n      add\n        /* \"#utility.yul\":2743:2749   */\n      dup5\n        /* \"#utility.yul\":2679:2770   */\n      tag_268\n      jump\t// in\n    tag_350:\n        /* \"#utility.yul\":2515:2777   */\n      swap3\n      swap2\n      pop\n      pop\n      jump\t// out\n        /* \"#utility.yul\":2783:2860   */\n    tag_269:\n        /* \"#utility.yul\":2820:2827   */\n      0x00\n        /* \"#utility.yul\":2849:2854   */\n      dup2\n        /* \"#utility.yul\":2838:2854   */\n      swap1\n      pop\n        /* \"#utility.yul\":2783:2860   */\n      swap2\n      swap1\n      pop\n      jump\t// out\n        /* \"#utility.yul\":2866:2984   */\n    tag_270:\n        /* \"#utility.yul\":2953:2977   */\n      tag_353\n        /* \"#utility.yul\":2971:2976   */\n      dup2\n        /* \"#utility.yul\":2953:2977   */\n      tag_269\n      jump\t// in\n    tag_353:\n        /* \"#utility.yul\":2948:2951   */\n      dup3\n        /* \"#utility.yul\":2941:2978   */\n      mstore\n        /* \"#utility.yul\":2866:2984   */\n      pop\n      pop\n      jump\t// out\n        /* \"#utility.yul\":2990:3212   */\n    tag_40:\n        /* \"#utility.yul\":3083:3087   */\n      0x00\n        /* \"#utility.yul\":3121:3123   */\n      0x20\n        /* \"#utility.yul\":3110:3119   */\n      dup3\n        /* \"#utility.yul\":3106:3124   */\n      add\n        /* \"#utility.yul\":3098:3124   */\n      swap1\n      pop\n        /* \"#utility.yul\":3134:3205   */\n      tag_355\n        /* \"#utility.yul\":3202:3203   */\n      0x00\n        /* \"#utility.yul\":3191:3200   */\n      dup4\n        /* \"#utility.yul\":3187:3204   */\n      add\n        /* \"#utility.yul\":3178:3184   */\n      dup5\n        /* \"#utility.yul\":3134:3205   */\n      tag_270\n      jump\t// in\n    tag_355:\n        /* \"#utility.yul\":2990:3212   */\n      swap3\n      swap2\n      pop\n      pop\n      jump\t// out\n        /* \"#utility.yul\":3218:3314   */\n    tag_271:\n        /* \"#utility.yul\":3255:3262   */\n      0x00\n        /* \"#utility.yul\":3284:3308   */\n      tag_357\n        /* \"#utility.yul\":3302:3307   */\n      dup3\n        /* \"#utility.yul\":3284:3308   */\n      tag_263\n      jump\t// in\n    tag_357:\n        /* \"#utility.yul\":3273:3308   */\n      swap1\n      pop\n        /* \"#utility.yul\":3218:3314   */\n      swap2\n      swap1\n      pop\n      jump\t// out\n        /* \"#utility.yul\":3320:3442   */\n    tag_272:\n        /* \"#utility.yul\":3393:3417   */\n      tag_359\n        /* \"#utility.yul\":3411:3416   */\n      dup2\n        /* \"#utility.yul\":3393:3417   */\n      tag_271\n      jump\t// in\n    tag_359:\n        /* \"#utility.yul\":3386:3391   */\n      dup2\n        /* \"#utility.yul\":3383:3418   */\n      eq\n        /* \"#utility.yul\":3373:3436   */\n      tag_360\n      jumpi\n        /* \"#utility.yul\":3432:3433   */\n      0x00\n        /* \"#utility.yul\":3429:3430   */\n      dup1\n        /* \"#utility.yul\":3422:3434   */\n      revert\n        /* \"#utility.yul\":3373:3436   */\n    tag_360:\n        /* \"#utility.yul\":3320:3442   */\n      pop\n      jump\t// out\n        /* \"#utility.yul\":3448:3587   */\n    tag_273:\n        /* \"#utility.yul\":3494:3499   */\n      0x00\n        /* \"#utility.yul\":3532:3538   */\n      dup2\n        /* \"#utility.yul\":3519:3539   */\n      calldataload\n        /* \"#utility.yul\":3510:3539   */\n      swap1\n      pop\n        /* \"#utility.yul\":3548:3581   */\n      tag_362\n        /* \"#utility.yul\":3575:3580   */\n      dup2\n        /* \"#utility.yul\":3548:3581   */\n      tag_272\n      jump\t// in\n    tag_362:\n        /* \"#utility.yul\":3448:3587   */\n      swap3\n      swap2\n      pop\n      pop\n      jump\t// out\n        /* \"#utility.yul\":3593:3922   */\n    tag_44:\n        /* \"#utility.yul\":3652:3658   */\n      0x00\n        /* \"#utility.yul\":3701:3703   */\n      0x20\n        /* \"#utility.yul\":3689:3698   */\n      dup3\n        /* \"#utility.yul\":3680:3687   */\n      dup5\n        /* \"#utility.yul\":3676:3699   */\n      sub\n        /* \"#utility.yul\":3672:3704   */\n      slt\n        /* \"#utility.yul\":3669:3788   */\n      iszero\n      tag_364\n      jumpi\n        /* \"#utility.yul\":3707:3786   */\n      tag_365\n      tag_255\n      jump\t// in\n    tag_365:\n        /* \"#utility.yul\":3669:3788   */\n    tag_364:\n        /* \"#utility.yul\":3827:3828   */\n      0x00\n        /* \"#utility.yul\":3852:3905   */\n      tag_366\n        /* \"#utility.yul\":3897:3904   */\n      dup5\n        /* \"#utility.yul\":3888:3894   */\n      dup3\n        /* \"#utility.yul\":3877:3886   */\n      dup6\n        /* \"#utility.yul\":3873:3895   */\n      add\n        /* \"#utility.yul\":3852:3905   */\n      tag_273\n      jump\t// in\n    tag_366:\n        /* \"#utility.yul\":3842:3905   */\n      swap2\n      pop\n        /* \"#utility.yul\":3798:3915   */\n      pop\n        /* \"#utility.yul\":3593:3922   */\n      swap3\n      swap2\n      pop\n      pop\n      jump\t// out\n        /* \"#utility.yul\":3928:4032   */\n    tag_274:\n        /* \"#utility.yul\":3973:3980   */\n      0x00\n        /* \"#utility.yul\":4002:4026   */\n      tag_368\n        /* \"#utility.yul\":4020:4025   */\n      dup3\n        /* \"#utility.yul\":4002:4026   */\n      tag_263\n      jump\t// in\n    tag_368:\n        /* \"#utility.yul\":3991:4026   */\n      swap1\n      pop\n        /* \"#utility.yul\":3928:4032   */\n      swap2\n      swap1\n      pop\n      jump\t// out\n        /* \"#utility.yul\":4038:4176   */\n    tag_275:\n        /* \"#utility.yul\":4119:4151   */\n      tag_370\n        /* \"#utility.yul\":4145:4150   */\n      dup2\n        /* \"#utility.yul\":4119:4151   */\n      tag_274\n      jump\t// in\n    tag_370:\n        /* \"#utility.yul\":4112:4117   */\n      dup2\n        /* \"#utility.yul\":4109:4152   */\n      eq\n        /* \"#utility.yul\":4099:4170   */\n      tag_371\n      jumpi\n        /* \"#utility.yul\":4166:4167   */\n      0x00\n        /* \"#utility.yul\":4163:4164   */\n      dup1\n        /* \"#utility.yul\":4156:4168   */\n      revert\n        /* \"#utility.yul\":4099:4170   */\n    tag_371:\n        /* \"#utility.yul\":4038:4176   */\n      pop\n      jump\t// out\n        /* \"#utility.yul\":4182:4337   */\n    tag_276:\n        /* \"#utility.yul\":4236:4241   */\n      0x00\n        /* \"#utility.yul\":4274:4280   */\n      dup2\n        /* \"#utility.yul\":4261:4281   */\n      calldataload\n        /* \"#utility.yul\":4252:4281   */\n      swap1\n      pop\n        /* \"#utility.yul\":4290:4331   */\n      tag_373\n        /* \"#utility.yul\":4325:4330   */\n      dup2\n        /* \"#utility.yul\":4290:4331   */\n      tag_275\n      jump\t// in\n    tag_373:\n        /* \"#utility.yul\":4182:4337   */\n      swap3\n      swap2\n      pop\n      pop\n      jump\t// out\n        /* \"#utility.yul\":4343:4688   */\n    tag_49:\n        /* \"#utility.yul\":4410:4416   */\n      0x00\n        /* \"#utility.yul\":4459:4461   */\n      0x20\n        /* \"#utility.yul\":4447:4456   */\n      dup3\n        /* \"#utility.yul\":4438:4445   */\n      dup5\n        /* \"#utility.yul\":4434:4457   */\n      sub\n        /* \"#utility.yul\":4430:4462   */\n      slt\n        /* \"#utility.yul\":4427:4546   */\n      iszero\n      tag_375\n      jumpi\n        /* \"#utility.yul\":4465:4544   */\n      tag_376\n      tag_255\n      jump\t// in\n    tag_376:\n        /* \"#utility.yul\":4427:4546   */\n    tag_375:\n        /* \"#utility.yul\":4585:4586   */\n      0x00\n        /* \"#utility.yul\":4610:4671   */\n      tag_377\n        /* \"#utility.yul\":4663:4670   */\n      dup5\n        /* \"#utility.yul\":4654:4660   */\n      dup3\n        /* \"#utility.yul\":4643:4652   */\n      dup6\n        /* \"#utility.yul\":4639:4661   */\n      add\n        /* \"#utility.yul\":4610:4671   */\n      tag_276\n      jump\t// in\n    tag_377:\n        /* \"#utility.yul\":4600:4671   */\n      swap2\n      pop\n        /* \"#utility.yul\":4556:4681   */\n      pop\n        /* \"#utility.yul\":4343:4688   */\n      swap3\n      swap2\n      pop\n      pop\n      jump\t// out\n        /* \"#utility.yul\":4694:4803   */\n    tag_277:\n        /* \"#utility.yul\":4775:4796   */\n      tag_379\n        /* \"#utility.yul\":4790:4795   */\n      dup2\n        /* \"#utility.yul\":4775:4796   */\n      tag_257\n      jump\t// in\n    tag_379:\n        /* \"#utility.yul\":4770:4773   */\n      dup3\n        /* \"#utility.yul\":4763:4797   */\n      mstore\n        /* \"#utility.yul\":4694:4803   */\n      pop\n      pop\n      jump\t// out\n        /* \"#utility.yul\":4809:5019   */\n    tag_55:\n        /* \"#utility.yul\":4896:4900   */\n      0x00\n        /* \"#utility.yul\":4934:4936   */\n      0x20\n        /* \"#utility.yul\":4923:4932   */\n      dup3\n        /* \"#utility.yul\":4919:4937   */\n      add\n        /* \"#utility.yul\":4911:4937   */\n      swap1\n      pop\n        /* \"#utility.yul\":4947:5012   */\n      tag_381\n        /* \"#utility.yul\":5009:5010   */\n      0x00\n        /* \"#utility.yul\":4998:5007   */\n      dup4\n        /* \"#utility.yul\":4994:5011   */\n      add\n        /* \"#utility.yul\":4985:4991   */\n      dup5\n        /* \"#utility.yul\":4947:5012   */\n      tag_277\n      jump\t// in\n    tag_381:\n        /* \"#utility.yul\":4809:5019   */\n      swap3\n      swap2\n      pop\n      pop\n      jump\t// out\n        /* \"#utility.yul\":5025:5147   */\n    tag_278:\n        /* \"#utility.yul\":5098:5122   */\n      tag_383\n        /* \"#utility.yul\":5116:5121   */\n      dup2\n        /* \"#utility.yul\":5098:5122   */\n      tag_269\n      jump\t// in\n    tag_383:\n        /* \"#utility.yul\":5091:5096   */\n      dup2\n        /* \"#utility.yul\":5088:5123   */\n      eq\n        /* \"#utility.yul\":5078:5141   */\n      tag_384\n      jumpi\n        /* \"#utility.yul\":5137:5138   */\n      0x00\n        /* \"#utility.yul\":5134:5135   */\n      dup1\n        /* \"#utility.yul\":5127:5139   */\n      revert\n        /* \"#utility.yul\":5078:5141   */\n    tag_384:\n        /* \"#utility.yul\":5025:5147   */\n      pop\n      jump\t// out\n        /* \"#utility.yul\":5153:5292   */\n    tag_279:\n        /* \"#utility.yul\":5199:5204   */\n      0x00\n        /* \"#utility.yul\":5237:5243   */\n      dup2\n        /* \"#utility.yul\":5224:5244   */\n      calldataload\n        /* \"#utility.yul\":5215:5244   */\n      swap1\n      pop\n        /* \"#utility.yul\":5253:5286   */\n      tag_386\n        /* \"#utility.yul\":5280:5285   */\n      dup2\n        /* \"#utility.yul\":5253:5286   */\n      tag_278\n      jump\t// in\n    tag_386:\n        /* \"#utility.yul\":5153:5292   */\n      swap3\n      swap2\n      pop\n      pop\n      jump\t// out\n        /* \"#utility.yul\":5298:5627   */\n    tag_59:\n        /* \"#utility.yul\":5357:5363   */\n      0x00\n        /* \"#utility.yul\":5406:5408   */\n      0x20\n        /* \"#utility.yul\":5394:5403   */\n      dup3\n        /* \"#utility.yul\":5385:5392   */\n      dup5\n        /* \"#utility.yul\":5381:5404   */\n      sub\n        /* \"#utility.yul\":5377:5409   */\n      slt\n        /* \"#utility.yul\":5374:5493   */\n      iszero\n      tag_388\n      jumpi\n        /* \"#utility.yul\":5412:5491   */\n      tag_389\n      tag_255\n      jump\t// in\n    tag_389:\n        /* \"#utility.yul\":5374:5493   */\n    tag_388:\n        /* \"#utility.yul\":5532:5533   */\n      0x00\n        /* \"#utility.yul\":5557:5610   */\n      tag_390\n        /* \"#utility.yul\":5602:5609   */\n      dup5\n        /* \"#utility.yul\":5593:5599   */\n      dup3\n        /* \"#utility.yul\":5582:5591   */\n      dup6\n        /* \"#utility.yul\":5578:5600   */\n      add\n        /* \"#utility.yul\":5557:5610   */\n      tag_279\n      jump\t// in\n    tag_390:\n        /* \"#utility.yul\":5547:5610   */\n      swap2\n      pop\n        /* \"#utility.yul\":5503:5620   */\n      pop\n        /* \"#utility.yul\":5298:5627   */\n      swap3\n      swap2\n      pop\n      pop\n      jump\t// out\n        /* \"#utility.yul\":5633:5751   */\n    tag_280:\n        /* \"#utility.yul\":5720:5744   */\n      tag_392\n        /* \"#utility.yul\":5738:5743   */\n      dup2\n        /* \"#utility.yul\":5720:5744   */\n      tag_271\n      jump\t// in\n    tag_392:\n        /* \"#utility.yul\":5715:5718   */\n      dup3\n        /* \"#utility.yul\":5708:5745   */\n      mstore\n        /* \"#utility.yul\":5633:5751   */\n      pop\n      pop\n      jump\t// out\n        /* \"#utility.yul\":5757:5979   */\n    tag_65:\n        /* \"#utility.yul\":5850:5854   */\n      0x00\n        /* \"#utility.yul\":5888:5890   */\n      0x20\n        /* \"#utility.yul\":5877:5886   */\n      dup3\n        /* \"#utility.yul\":5873:5891   */\n      add\n        /* \"#utility.yul\":5865:5891   */\n      swap1\n      pop\n        /* \"#utility.yul\":5901:5972   */\n      tag_394\n        /* \"#utility.yul\":5969:5970   */\n      0x00\n        /* \"#utility.yul\":5958:5967   */\n      dup4\n        /* \"#utility.yul\":5954:5971   */\n      add\n        /* \"#utility.yul\":5945:5951   */\n      dup5\n        /* \"#utility.yul\":5901:5972   */\n      tag_280\n      jump\t// in\n    tag_394:\n        /* \"#utility.yul\":5757:5979   */\n      swap3\n      swap2\n      pop\n      pop\n      jump\t// out\n        /* \"#utility.yul\":5985:6154   */\n    tag_281:\n        /* \"#utility.yul\":6069:6080   */\n      0x00\n        /* \"#utility.yul\":6103:6109   */\n      dup3\n        /* \"#utility.yul\":6098:6101   */\n      dup3\n        /* \"#utility.yul\":6091:6110   */\n      mstore\n        /* \"#utility.yul\":6143:6147   */\n      0x20\n        /* \"#utility.yul\":6138:6141   */\n      dup3\n        /* \"#utility.yul\":6134:6148   */\n      add\n        /* \"#utility.yul\":6119:6148   */\n      swap1\n      pop\n        /* \"#utility.yul\":5985:6154   */\n      swap3\n      swap2\n      pop\n      pop\n      jump\t// out\n        /* \"#utility.yul\":6160:6319   */\n    tag_282:\n        /* \"#utility.yul\":6300:6311   */\n      0x6e6f74206f776e65720000000000000000000000000000000000000000000000\n        /* \"#utility.yul\":6296:6297   */\n      0x00\n        /* \"#utility.yul\":6288:6294   */\n      dup3\n        /* \"#utility.yul\":6284:6298   */\n      add\n        /* \"#utility.yul\":6277:6312   */\n      mstore\n        /* \"#utility.yul\":6160:6319   */\n      pop\n      jump\t// out\n        /* \"#utility.yul\":6325:6690   */\n    tag_283:\n        /* \"#utility.yul\":6467:6470   */\n      0x00\n        /* \"#utility.yul\":6488:6554   */\n      tag_398\n        /* \"#utility.yul\":6552:6553   */\n      0x09\n        /* \"#utility.yul\":6547:6550   */\n      dup4\n        /* \"#utility.yul\":6488:6554   */\n      tag_281\n      jump\t// in\n    tag_398:\n        /* \"#utility.yul\":6481:6554   */\n      swap2\n      pop\n        /* \"#utility.yul\":6563:6656   */\n      tag_399\n        /* \"#utility.yul\":6652:6655   */\n      dup3\n        /* \"#utility.yul\":6563:6656   */\n      tag_282\n      jump\t// in\n    tag_399:\n        /* \"#utility.yul\":6681:6683   */\n      0x20\n        /* \"#utility.yul\":6676:6679   */\n      dup3\n        /* \"#utility.yul\":6672:6684   */\n      add\n        /* \"#utility.yul\":6665:6684   */\n      swap1\n      pop\n        /* \"#utility.yul\":6325:6690   */\n      swap2\n      swap1\n      pop\n      jump\t// out\n        /* \"#utility.yul\":6696:7115   */\n    tag_85:\n        /* \"#utility.yul\":6862:6866   */\n      0x00\n        /* \"#utility.yul\":6900:6902   */\n      0x20\n        /* \"#utility.yul\":6889:6898   */\n      dup3\n        /* \"#utility.yul\":6885:6903   */\n      add\n        /* \"#utility.yul\":6877:6903   */\n      swap1\n      pop\n        /* \"#utility.yul\":6949:6958   */\n      dup2\n        /* \"#utility.yul\":6943:6947   */\n      dup2\n        /* \"#utility.yul\":6939:6959   */\n      sub\n        /* \"#utility.yul\":6935:6936   */\n      0x00\n        /* \"#utility.yul\":6924:6933   */\n      dup4\n        /* \"#utility.yul\":6920:6937   */\n      add\n        /* \"#utility.yul\":6913:6960   */\n      mstore\n        /* \"#utility.yul\":6977:7108   */\n      tag_401\n        /* \"#utility.yul\":7103:7107   */\n      dup2\n        /* \"#utility.yul\":6977:7108   */\n      tag_283\n      jump\t// in\n    tag_401:\n        /* \"#utility.yul\":6969:7108   */\n      swap1\n      pop\n        /* \"#utility.yul\":6696:7115   */\n      swap2\n      swap1\n      pop\n      jump\t// out\n        /* \"#utility.yul\":7121:7280   */\n    tag_284:\n        /* \"#utility.yul\":7261:7272   */\n      0x7265656e7472616e740000000000000000000000000000000000000000000000\n        /* \"#utility.yul\":7257:7258   */\n      0x00\n        /* \"#utility.yul\":7249:7255   */\n      dup3\n        /* \"#utility.yul\":7245:7259   */\n      add\n        /* \"#utility.yul\":7238:7273   */\n      mstore\n        /* \"#utility.yul\":7121:7280   */\n      pop\n      jump\t// out\n        /* \"#utility.yul\":7286:7651   */\n    tag_285:\n        /* \"#utility.yul\":7428:7431   */\n      0x00\n        /* \"#utility.yul\":7449:7515   */\n      tag_404\n        /* \"#utility.yul\":7513:7514   */\n      0x09\n        /* \"#utility.yul\":7508:7511   */\n      dup4\n        /* \"#utility.yul\":7449:7515   */\n      tag_281\n      jump\t// in\n    tag_404:\n        /* \"#utility.yul\":7442:7515   */\n      swap2\n      pop\n        /* \"#utility.yul\":7524:7617   */\n      tag_405\n        /* \"#utility.yul\":7613:7616   */\n      dup3\n        /* \"#utility.yul\":7524:7617   */\n      tag_284\n      jump\t// in\n    tag_405:\n        /* \"#utility.yul\":7642:7644   */\n      0x20\n        /* \"#utility.yul\":7637:7640   */\n      dup3\n        /* \"#utility.yul\":7633:7645   */\n      add\n        /* \"#utility.yul\":7626:7645   */\n      swap1\n      pop\n        /* \"#utility.yul\":7286:7651   */\n      swap2\n      swap1\n      pop\n      jump\t// out\n        /* \"#utility.yul\":7657:8076   */\n    tag_91:\n        /* \"#utility.yul\":7823:7827   */\n      0x00\n        /* \"#utility.yul\":7861:7863   */\n      0x20\n        /* \"#utility.yul\":7850:7859   */\n      dup3\n        /* \"#utility.yul\":7846:7864   */\n      add\n        /* \"#utility.yul\":7838:7864   */\n      swap1\n      pop\n        /* \"#utility.yul\":7910:7919   */\n      dup2\n        /* \"#utility.yul\":7904:7908   */\n      dup2\n        /* \"#utility.yul\":7900:7920   */\n      sub\n        /* \"#utility.yul\":7896:7897   */\n      0x00\n        /* \"#utility.yul\":7885:7894   */\n      dup4\n        /* \"#utility.yul\":7881:7898   */\n      add\n        /* \"#utility.yul\":7874:7921   */\n      mstore\n        /* \"#utility.yul\":7938:8069   */\n      tag_407\n        /* \"#utility.yul\":8064:8068   */\n      dup2\n        /* \"#utility.yul\":7938:8069   */\n      tag_285\n      jump\t// in\n    tag_407:\n        /* \"#utility.yul\":7930:8069   */\n      swap1\n      pop\n        /* \"#utility.yul\":7657:8076   */\n      swap2\n      swap1\n      pop\n      jump\t// out\n        /* \"#utility.yul\":8082:8238   */\n    tag_286:\n        /* \"#utility.yul\":8222:8230   */\n      0x7061757365640000000000000000000000000000000000000000000000000000\n        /* \"#utility.yul\":8218:8219   */\n      0x00\n        /* \"#utility.yul\":8210:8216   */\n      dup3\n        /* \"#utility.yul\":8206:8220   */\n      add\n        /* \"#utility.yul\":8199:8231   */\n      mstore\n        /* \"#utility.yul\":8082:8238   */\n      pop\n      jump\t// out\n        /* \"#utility.yul\":8244:8609   */\n    tag_287:\n        /* \"#utility.yul\":8386:8389   */\n      0x00\n        /* \"#utility.yul\":8407:8473   */\n      tag_410\n        /* \"#utility.yul\":8471:8472   */\n      0x06\n        /* \"#utility.yul\":8466:8469   */\n      dup4\n        /* \"#utility.yul\":8407:8473   */\n      tag_281\n      jump\t// in\n    tag_410:\n        /* \"#utility.yul\":8400:8473   */\n      swap2\n      pop\n        /* \"#utility.yul\":8482:8575   */\n      tag_411\n        /* \"#utility.yul\":8571:8574   */\n      dup3\n        /* \"#utility.yul\":8482:8575   */\n      tag_286\n      jump\t// in\n    tag_411:\n        /* \"#utility.yul\":8600:8602   */\n      0x20\n        /* \"#utility.yul\":8595:8598   */\n      dup3\n        /* \"#utility.yul\":8591:8603   */\n      add\n        /* \"#utility.yul\":8584:8603   */\n      swap1\n      pop\n        /* \"#utility.yul\":8244:8609   */\n      swap2\n      swap1\n      pop\n      jump\t// out\n        /* \"#utility.yul\":8615:9034   */\n    tag_95:\n        /* \"#utility.yul\":8781:8785   */\n      0x00\n        /* \"#utility.yul\":8819:8821   */\n      0x20\n        /* \"#utility.yul\":8808:8817   */\n      dup3\n        /* \"#utility.yul\":8804:8822   */\n      add\n        /* \"#utility.yul\":8796:8822   */\n      swap1\n      pop\n        /* \"#utility.yul\":8868:8877   */\n      dup2\n        /* \"#utility.yul\":8862:8866   */\n      dup2\n        /* \"#utility.yul\":8858:8878   */\n      sub\n        /* \"#utility.yul\":8854:8855   */\n      0x00\n        /* \"#utility.yul\":8843:8852   */\n      dup4\n        /* \"#utility.yul\":8839:8856   */\n      add\n        /* \"#utility.yul\":8832:8879   */\n      mstore\n        /* \"#utility.yul\":8896:9027   */\n      tag_413\n        /* \"#utility.yul\":9022:9026   */\n      dup2\n        /* \"#utility.yul\":8896:9027   */\n      tag_287\n      jump\t// in\n    tag_413:\n        /* \"#utility.yul\":8888:9027   */\n      swap1\n      pop\n        /* \"#utility.yul\":8615:9034   */\n      swap2\n      swap1\n      pop\n      jump\t// out\n        /* \"#utility.yul\":9040:9199   */\n    tag_288:\n        /* \"#utility.yul\":9180:9191   */\n      0x6261642067756573730000000000000000000000000000000000000000000000\n        /* \"#utility.yul\":9176:9177   */\n      0x00\n        /* \"#utility.yul\":9168:9174   */\n      dup3\n        /* \"#utility.yul\":9164:9178   */\n      add\n        /* \"#utility.yul\":9157:9192   */\n      mstore\n        /* \"#utility.yul\":9040:9199   */\n      pop\n      jump\t// out\n        /* \"#utility.yul\":9205:9570   */\n    tag_289:\n        /* \"#utility.yul\":9347:9350   */\n      0x00\n        /* \"#utility.yul\":9368:9434   */\n      tag_416\n        /* \"#utility.yul\":9432:9433   */\n      0x09\n        /* \"#utility.yul\":9427:9430   */\n      dup4\n        /* \"#utility.yul\":9368:9434   */\n      tag_281\n      jump\t// in\n    tag_416:\n        /* \"#utility.yul\":9361:9434   */\n      swap2\n      pop\n        /* \"#utility.yul\":9443:9536   */\n      tag_417\n        /* \"#utility.yul\":9532:9535   */\n      dup3\n        /* \"#utility.yul\":9443:9536   */\n      tag_288\n      jump\t// in\n    tag_417:\n        /* \"#utility.yul\":9561:9563   */\n      0x20\n        /* \"#utility.yul\":9556:9559   */\n      dup3\n        /* \"#utility.yul\":9552:9564   */\n      add\n        /* \"#utility.yul\":9545:9564   */\n      swap1\n      pop\n        /* \"#utility.yul\":9205:9570   */\n      swap2\n      swap1\n      pop\n      jump\t// out\n        /* \"#utility.yul\":9576:9995   */\n    tag_98:\n        /* \"#utility.yul\":9742:9746   */\n      0x00\n        /* \"#utility.yul\":9780:9782   */\n      0x20\n        /* \"#utility.yul\":9769:9778   */\n      dup3\n        /* \"#utility.yul\":9765:9783   */\n      add\n        /* \"#utility.yul\":9757:9783   */\n      swap1\n      pop\n        /* \"#utility.yul\":9829:9838   */\n      dup2\n        /* \"#utility.yul\":9823:9827   */\n      dup2\n        /* \"#utility.yul\":9819:9839   */\n      sub\n        /* \"#utility.yul\":9815:9816   */\n      0x00\n        /* \"#utility.yul\":9804:9813   */\n      dup4\n        /* \"#utility.yul\":9800:9817   */\n      add\n        /* \"#utility.yul\":9793:9840   */\n      mstore\n        /* \"#utility.yul\":9857:9988   */\n      tag_419\n        /* \"#utility.yul\":9983:9987   */\n      dup2\n        /* \"#utility.yul\":9857:9988   */\n      tag_289\n      jump\t// in\n    tag_419:\n        /* \"#utility.yul\":9849:9988   */\n      swap1\n      pop\n        /* \"#utility.yul\":9576:9995   */\n      swap2\n      swap1\n      pop\n      jump\t// out\n        /* \"#utility.yul\":10001:10160   */\n    tag_290:\n        /* \"#utility.yul\":10141:10152   */\n      0x6261642077616765720000000000000000000000000000000000000000000000\n        /* \"#utility.yul\":10137:10138   */\n      0x00\n        /* \"#utility.yul\":10129:10135   */\n      dup3\n        /* \"#utility.yul\":10125:10139   */\n      add\n        /* \"#utility.yul\":10118:10153   */\n      mstore\n        /* \"#utility.yul\":10001:10160   */\n      pop\n      jump\t// out\n        /* \"#utility.yul\":10166:10531   */\n    tag_291:\n        /* \"#utility.yul\":10308:10311   */\n      0x00\n        /* \"#utility.yul\":10329:10395   */\n      tag_422\n        /* \"#utility.yul\":10393:10394   */\n      0x09\n        /* \"#utility.yul\":10388:10391   */\n      dup4\n        /* \"#utility.yul\":10329:10395   */\n      tag_281\n      jump\t// in\n    tag_422:\n        /* \"#utility.yul\":10322:10395   */\n      swap2\n      pop\n        /* \"#utility.yul\":10404:10497   */\n      tag_423\n        /* \"#utility.yul\":10493:10496   */\n      dup3\n        /* \"#utility.yul\":10404:10497   */\n      tag_290\n      jump\t// in\n    tag_423:\n        /* \"#utility.yul\":10522:10524   */\n      0x20\n        /* \"#utility.yul\":10517:10520   */\n      dup3\n        /* \"#utility.yul\":10513:10525   */\n      add\n        /* \"#utility.yul\":10506:10525   */\n      swap1\n      pop\n        /* \"#utility.yul\":10166:10531   */\n      swap2\n      swap1\n      pop\n      jump\t// out\n        /* \"#utility.yul\":10537:10956   */\n    tag_102:\n        /* \"#utility.yul\":10703:10707   */\n      0x00\n        /* \"#utility.yul\":10741:10743   */\n      0x20\n        /* \"#utility.yul\":10730:10739   */\n      dup3\n        /* \"#utility.yul\":10726:10744   */\n      add\n        /* \"#utility.yul\":10718:10744   */\n      swap1\n      pop\n        /* \"#utility.yul\":10790:10799   */\n      dup2\n        /* \"#utility.yul\":10784:10788   */\n      dup2\n        /* \"#utility.yul\":10780:10800   */\n      sub\n        /* \"#utility.yul\":10776:10777   */\n      0x00\n        /* \"#utility.yul\":10765:10774   */\n      dup4\n        /* \"#utility.yul\":10761:10778   */\n      add\n        /* \"#utility.yul\":10754:10801   */\n      mstore\n        /* \"#utility.yul\":10818:10949   */\n      tag_425\n        /* \"#utility.yul\":10944:10948   */\n      dup2\n        /* \"#utility.yul\":10818:10949   */\n      tag_291\n      jump\t// in\n    tag_425:\n        /* \"#utility.yul\":10810:10949   */\n      swap1\n      pop\n        /* \"#utility.yul\":10537:10956   */\n      swap2\n      swap1\n      pop\n      jump\t// out\n        /* \"#utility.yul\":10962:11142   */\n    tag_292:\n        /* \"#utility.yul\":11010:11087   */\n      0x4e487b7100000000000000000000000000000000000000000000000000000000\n        /* \"#utility.yul\":11007:11008   */\n      0x00\n        /* \"#utility.yul\":11000:11088   */\n      mstore\n        /* \"#utility.yul\":11107:11111   */\n      0x11\n        /* \"#utility.yul\":11104:11105   */\n      0x04\n        /* \"#utility.yul\":11097:11112   */\n      mstore\n        /* \"#utility.yul\":11131:11135   */\n      0x24\n        /* \"#utility.yul\":11128:11129   */\n      0x00\n        /* \"#utility.yul\":11121:11136   */\n      revert\n        /* \"#utility.yul\":11148:11558   */\n    tag_108:\n        /* \"#utility.yul\":11188:11195   */\n      0x00\n        /* \"#utility.yul\":11211:11231   */\n      tag_428\n        /* \"#utility.yul\":11229:11230   */\n      dup3\n        /* \"#utility.yul\":11211:11231   */\n      tag_269\n      jump\t// in\n    tag_428:\n        /* \"#utility.yul\":11206:11231   */\n      swap2\n      pop\n        /* \"#utility.yul\":11245:11265   */\n      tag_429\n        /* \"#utility.yul\":11263:11264   */\n      dup4\n        /* \"#utility.yul\":11245:11265   */\n      tag_269\n      jump\t// in\n    tag_429:\n        /* \"#utility.yul\":11240:11265   */\n      swap3\n      pop\n        /* \"#utility.yul\":11300:11301   */\n      dup3\n        /* \"#utility.yul\":11297:11298   */\n      dup3\n        /* \"#utility.yul\":11293:11302   */\n      mul\n        /* \"#utility.yul\":11322:11352   */\n      tag_430\n        /* \"#utility.yul\":11340:11351   */\n      dup2\n        /* \"#utility.yul\":11322:11352   */\n      tag_269\n      jump\t// in\n    tag_430:\n        /* \"#utility.yul\":11311:11352   */\n      swap2\n      pop\n        /* \"#utility.yul\":11501:11502   */\n      dup3\n        /* \"#utility.yul\":11492:11499   */\n      dup3\n        /* \"#utility.yul\":11488:11503   */\n      div\n        /* \"#utility.yul\":11485:11486   */\n      dup5\n        /* \"#utility.yul\":11482:11504   */\n      eq\n        /* \"#utility.yul\":11462:11463   */\n      dup4\n        /* \"#utility.yul\":11455:11464   */\n      iszero\n        /* \"#utility.yul\":11435:11518   */\n      or\n        /* \"#utility.yul\":11412:11551   */\n      tag_431\n      jumpi\n        /* \"#utility.yul\":11531:11549   */\n      tag_432\n      tag_292\n      jump\t// in\n    tag_432:\n        /* \"#utility.yul\":11412:11551   */\n    tag_431:\n        /* \"#utility.yul\":11196:11558   */\n      pop\n        /* \"#utility.yul\":11148:11558   */\n      swap3\n      swap2\n      pop\n      pop\n      jump\t// out\n        /* \"#utility.yul\":11564:11706   */\n    tag_293:\n        /* \"#utility.yul\":11667:11699   */\n      tag_434\n        /* \"#utility.yul\":11693:11698   */\n      dup2\n        /* \"#utility.yul\":11667:11699   */\n      tag_274\n      jump\t// in\n    tag_434:\n        /* \"#utility.yul\":11662:11665   */\n      dup3\n        /* \"#utility.yul\":11655:11700   */\n      mstore\n        /* \"#utility.yul\":11564:11706   */\n      pop\n      pop\n      jump\t// out\n        /* \"#utility.yul\":11712:12076   */\n    tag_112:\n        /* \"#utility.yul\":11849:11853   */\n      0x00\n        /* \"#utility.yul\":11887:11889   */\n      0x40\n        /* \"#utility.yul\":11876:11885   */\n      dup3\n        /* \"#utility.yul\":11872:11890   */\n      add\n        /* \"#utility.yul\":11864:11890   */\n      swap1\n      pop\n        /* \"#utility.yul\":11900:11987   */\n      tag_436\n        /* \"#utility.yul\":11984:11985   */\n      0x00\n        /* \"#utility.yul\":11973:11982   */\n      dup4\n        /* \"#utility.yul\":11969:11986   */\n      add\n        /* \"#utility.yul\":11960:11966   */\n      dup6\n        /* \"#utility.yul\":11900:11987   */\n      tag_293\n      jump\t// in\n    tag_436:\n        /* \"#utility.yul\":11997:12069   */\n      tag_437\n        /* \"#utility.yul\":12065:12067   */\n      0x20\n        /* \"#utility.yul\":12054:12063   */\n      dup4\n        /* \"#utility.yul\":12050:12068   */\n      add\n        /* \"#utility.yul\":12041:12047   */\n      dup5\n        /* \"#utility.yul\":11997:12069   */\n      tag_270\n      jump\t// in\n    tag_437:\n        /* \"#utility.yul\":11712:12076   */\n      swap4\n      swap3\n      pop\n      pop\n      pop\n      jump\t// out\n        /* \"#utility.yul\":12082:12194   */\n    tag_294:\n        /* \"#utility.yul\":12165:12187   */\n      tag_439\n        /* \"#utility.yul\":12181:12186   */\n      dup2\n        /* \"#utility.yul\":12165:12187   */\n      tag_260\n      jump\t// in\n    tag_439:\n        /* \"#utility.yul\":12160:12163   */\n      dup3\n        /* \"#utility.yul\":12153:12188   */\n      mstore\n        /* \"#utility.yul\":12082:12194   */\n      pop\n      pop\n      jump\t// out\n        /* \"#utility.yul\":12200:12725   */\n    tag_117:\n        /* \"#utility.yul\":12363:12367   */\n      0x00\n        /* \"#utility.yul\":12401:12404   */\n      0x80\n        /* \"#utility.yul\":12390:12399   */\n      dup3\n        /* \"#utility.yul\":12386:12405   */\n      add\n        /* \"#utility.yul\":12378:12405   */\n      swap1\n      pop\n        /* \"#utility.yul\":12415:12486   */\n      tag_441\n        /* \"#utility.yul\":12483:12484   */\n      0x00\n        /* \"#utility.yul\":12472:12481   */\n      dup4\n        /* \"#utility.yul\":12468:12485   */\n      add\n        /* \"#utility.yul\":12459:12465   */\n      dup8\n        /* \"#utility.yul\":12415:12486   */\n      tag_270\n      jump\t// in\n    tag_441:\n        /* \"#utility.yul\":12496:12562   */\n      tag_442\n        /* \"#utility.yul\":12558:12560   */\n      0x20\n        /* \"#utility.yul\":12547:12556   */\n      dup4\n        /* \"#utility.yul\":12543:12561   */\n      add\n        /* \"#utility.yul\":12534:12540   */\n      dup7\n        /* \"#utility.yul\":12496:12562   */\n      tag_277\n      jump\t// in\n    tag_442:\n        /* \"#utility.yul\":12572:12640   */\n      tag_443\n        /* \"#utility.yul\":12636:12638   */\n      0x40\n        /* \"#utility.yul\":12625:12634   */\n      dup4\n        /* \"#utility.yul\":12621:12639   */\n      add\n        /* \"#utility.yul\":12612:12618   */\n      dup6\n        /* \"#utility.yul\":12572:12640   */\n      tag_294\n      jump\t// in\n    tag_443:\n        /* \"#utility.yul\":12650:12718   */\n      tag_444\n        /* \"#utility.yul\":12714:12716   */\n      0x60\n        /* \"#utility.yul\":12703:12712   */\n      dup4\n        /* \"#utility.yul\":12699:12717   */\n      add\n        /* \"#utility.yul\":12690:12696   */\n      dup5\n        /* \"#utility.yul\":12650:12718   */\n      tag_294\n      jump\t// in\n    tag_444:\n        /* \"#utility.yul\":12200:12725   */\n      swap6\n      swap5\n      pop\n      pop\n      pop\n      pop\n      pop\n      jump\t// out\n        /* \"#utility.yul\":12731:12878   */\n    tag_295:\n        /* \"#utility.yul\":12832:12843   */\n      0x00\n        /* \"#utility.yul\":12869:12872   */\n      dup2\n        /* \"#utility.yul\":12854:12872   */\n      swap1\n      pop\n        /* \"#utility.yul\":12731:12878   */\n      swap3\n      swap2\n      pop\n      pop\n      jump\t// out\n        /* \"#utility.yul\":12884:12998   */\n    tag_296:\n      pop\n      jump\t// out\n        /* \"#utility.yul\":13004:13402   */\n    tag_297:\n        /* \"#utility.yul\":13163:13166   */\n      0x00\n        /* \"#utility.yul\":13184:13267   */\n      tag_448\n        /* \"#utility.yul\":13265:13266   */\n      0x00\n        /* \"#utility.yul\":13260:13263   */\n      dup4\n        /* \"#utility.yul\":13184:13267   */\n      tag_295\n      jump\t// in\n    tag_448:\n        /* \"#utility.yul\":13177:13267   */\n      swap2\n      pop\n        /* \"#utility.yul\":13276:13369   */\n      tag_449\n        /* \"#utility.yul\":13365:13368   */\n      dup3\n        /* \"#utility.yul\":13276:13369   */\n      tag_296\n      jump\t// in\n    tag_449:\n        /* \"#utility.yul\":13394:13395   */\n      0x00\n        /* \"#utility.yul\":13389:13392   */\n      dup3\n        /* \"#utility.yul\":13385:13396   */\n      add\n        /* \"#utility.yul\":13378:13396   */\n      swap1\n      pop\n        /* \"#utility.yul\":13004:13402   */\n      swap2\n      swap1\n      pop\n      jump\t// out\n        /* \"#utility.yul\":13408:13787   */\n    tag_120:\n        /* \"#utility.yul\":13592:13595   */\n      0x00\n        /* \"#utility.yul\":13614:13761   */\n      tag_451\n        /* \"#utility.yul\":13757:13760   */\n      dup3\n        /* \"#utility.yul\":13614:13761   */\n      tag_297\n      jump\t// in\n    tag_451:\n        /* \"#utility.yul\":13607:13761   */\n      swap2\n      pop\n        /* \"#utility.yul\":13778:13781   */\n      dup2\n        /* \"#utility.yul\":13771:13781   */\n      swap1\n      pop\n        /* \"#utility.yul\":13408:13787   */\n      swap2\n      swap1\n      pop\n      jump\t// out\n        /* \"#utility.yul\":13793:13962   */\n    tag_298:\n        /* \"#utility.yul\":13933:13954   */\n      0x706f6f6c206465706f736974206661696c656400000000000000000000000000\n        /* \"#utility.yul\":13929:13930   */\n      0x00\n        /* \"#utility.yul\":13921:13927   */\n      dup3\n        /* \"#utility.yul\":13917:13931   */\n      add\n        /* \"#utility.yul\":13910:13955   */\n      mstore\n        /* \"#utility.yul\":13793:13962   */\n      pop\n      jump\t// out\n        /* \"#utility.yul\":13968:14334   */\n    tag_299:\n        /* \"#utility.yul\":14110:14113   */\n      0x00\n        /* \"#utility.yul\":14131:14198   */\n      tag_454\n        /* \"#utility.yul\":14195:14197   */\n      0x13\n        /* \"#utility.yul\":14190:14193   */\n      dup4\n        /* \"#utility.yul\":14131:14198   */\n      tag_281\n      jump\t// in\n    tag_454:\n        /* \"#utility.yul\":14124:14198   */\n      swap2\n      pop\n        /* \"#utility.yul\":14207:14300   */\n      tag_455\n        /* \"#utility.yul\":14296:14299   */\n      dup3\n        /* \"#utility.yul\":14207:14300   */\n      tag_298\n      jump\t// in\n    tag_455:\n        /* \"#utility.yul\":14325:14327   */\n      0x20\n        /* \"#utility.yul\":14320:14323   */\n      dup3\n        /* \"#utility.yul\":14316:14328   */\n      add\n        /* \"#utility.yul\":14309:14328   */\n      swap1\n      pop\n        /* \"#utility.yul\":13968:14334   */\n      swap2\n      swap1\n      pop\n      jump\t// out\n        /* \"#utility.yul\":14340:14759   */\n    tag_126:\n        /* \"#utility.yul\":14506:14510   */\n      0x00\n        /* \"#utility.yul\":14544:14546   */\n      0x20\n        /* \"#utility.yul\":14533:14542   */\n      dup3\n        /* \"#utility.yul\":14529:14547   */\n      add\n        /* \"#utility.yul\":14521:14547   */\n      swap1\n      pop\n        /* \"#utility.yul\":14593:14602   */\n      dup2\n        /* \"#utility.yul\":14587:14591   */\n      dup2\n        /* \"#utility.yul\":14583:14603   */\n      sub\n        /* \"#utility.yul\":14579:14580   */\n      0x00\n        /* \"#utility.yul\":14568:14577   */\n      dup4\n        /* \"#utility.yul\":14564:14581   */\n      add\n        /* \"#utility.yul\":14557:14604   */\n      mstore\n        /* \"#utility.yul\":14621:14752   */\n      tag_457\n        /* \"#utility.yul\":14747:14751   */\n      dup2\n        /* \"#utility.yul\":14621:14752   */\n      tag_299\n      jump\t// in\n    tag_457:\n        /* \"#utility.yul\":14613:14752   */\n      swap1\n      pop\n        /* \"#utility.yul\":14340:14759   */\n      swap2\n      swap1\n      pop\n      jump\t// out\n        /* \"#utility.yul\":14765:14919   */\n    tag_300:\n        /* \"#utility.yul\":14905:14911   */\n      0x7a65726f00000000000000000000000000000000000000000000000000000000\n        /* \"#utility.yul\":14901:14902   */\n      0x00\n        /* \"#utility.yul\":14893:14899   */\n      dup3\n        /* \"#utility.yul\":14889:14903   */\n      add\n        /* \"#utility.yul\":14882:14912   */\n      mstore\n        /* \"#utility.yul\":14765:14919   */\n      pop\n      jump\t// out\n        /* \"#utility.yul\":14925:15290   */\n    tag_301:\n        /* \"#utility.yul\":15067:15070   */\n      0x00\n        /* \"#utility.yul\":15088:15154   */\n      tag_460\n        /* \"#utility.yul\":15152:15153   */\n      0x04\n        /* \"#utility.yul\":15147:15150   */\n      dup4\n        /* \"#utility.yul\":15088:15154   */\n      tag_281\n      jump\t// in\n    tag_460:\n        /* \"#utility.yul\":15081:15154   */\n      swap2\n      pop\n        /* \"#utility.yul\":15163:15256   */\n      tag_461\n        /* \"#utility.yul\":15252:15255   */\n      dup3\n        /* \"#utility.yul\":15163:15256   */\n      tag_300\n      jump\t// in\n    tag_461:\n        /* \"#utility.yul\":15281:15283   */\n      0x20\n        /* \"#utility.yul\":15276:15279   */\n      dup3\n        /* \"#utility.yul\":15272:15284   */\n      add\n        /* \"#utility.yul\":15265:15284   */\n      swap1\n      pop\n        /* \"#utility.yul\":14925:15290   */\n      swap2\n      swap1\n      pop\n      jump\t// out\n        /* \"#utility.yul\":15296:15715   */\n    tag_133:\n        /* \"#utility.yul\":15462:15466   */\n      0x00\n        /* \"#utility.yul\":15500:15502   */\n      0x20\n        /* \"#utility.yul\":15489:15498   */\n      dup3\n        /* \"#utility.yul\":15485:15503   */\n      add\n        /* \"#utility.yul\":15477:15503   */\n      swap1\n      pop\n        /* \"#utility.yul\":15549:15558   */\n      dup2\n        /* \"#utility.yul\":15543:15547   */\n      dup2\n        /* \"#utility.yul\":15539:15559   */\n      sub\n        /* \"#utility.yul\":15535:15536   */\n      0x00\n        /* \"#utility.yul\":15524:15533   */\n      dup4\n        /* \"#utility.yul\":15520:15537   */\n      add\n        /* \"#utility.yul\":15513:15560   */\n      mstore\n        /* \"#utility.yul\":15577:15708   */\n      tag_463\n        /* \"#utility.yul\":15703:15707   */\n      dup2\n        /* \"#utility.yul\":15577:15708   */\n      tag_301\n      jump\t// in\n    tag_463:\n        /* \"#utility.yul\":15569:15708   */\n      swap1\n      pop\n        /* \"#utility.yul\":15296:15715   */\n      swap2\n      swap1\n      pop\n      jump\t// out\n        /* \"#utility.yul\":15721:15879   */\n    tag_302:\n        /* \"#utility.yul\":15861:15871   */\n      0x626164206d61696e000000000000000000000000000000000000000000000000\n        /* \"#utility.yul\":15857:15858   */\n      0x00\n        /* \"#utility.yul\":15849:15855   */\n      dup3\n        /* \"#utility.yul\":15845:15859   */\n      add\n        /* \"#utility.yul\":15838:15872   */\n      mstore\n        /* \"#utility.yul\":15721:15879   */\n      pop\n      jump\t// out\n        /* \"#utility.yul\":15885:16250   */\n    tag_303:\n        /* \"#utility.yul\":16027:16030   */\n      0x00\n        /* \"#utility.yul\":16048:16114   */\n      tag_466\n        /* \"#utility.yul\":16112:16113   */\n      0x08\n        /* \"#utility.yul\":16107:16110   */\n      dup4\n        /* \"#utility.yul\":16048:16114   */\n      tag_281\n      jump\t// in\n    tag_466:\n        /* \"#utility.yul\":16041:16114   */\n      swap2\n      pop\n        /* \"#utility.yul\":16123:16216   */\n      tag_467\n        /* \"#utility.yul\":16212:16215   */\n      dup3\n        /* \"#utility.yul\":16123:16216   */\n      tag_302\n      jump\t// in\n    tag_467:\n        /* \"#utility.yul\":16241:16243   */\n      0x20\n        /* \"#utility.yul\":16236:16239   */\n      dup3\n        /* \"#utility.yul\":16232:16244   */\n      add\n        /* \"#utility.yul\":16225:16244   */\n      swap1\n      pop\n        /* \"#utility.yul\":15885:16250   */\n      swap2\n      swap1\n      pop\n      jump\t// out\n        /* \"#utility.yul\":16256:16675   */\n    tag_153:\n        /* \"#utility.yul\":16422:16426   */\n      0x00\n        /* \"#utility.yul\":16460:16462   */\n      0x20\n        /* \"#utility.yul\":16449:16458   */\n      dup3\n        /* \"#utility.yul\":16445:16463   */\n      add\n        /* \"#utility.yul\":16437:16463   */\n      swap1\n      pop\n        /* \"#utility.yul\":16509:16518   */\n      dup2\n        /* \"#utility.yul\":16503:16507   */\n      dup2\n        /* \"#utility.yul\":16499:16519   */\n      sub\n        /* \"#utility.yul\":16495:16496   */\n      0x00\n        /* \"#utility.yul\":16484:16493   */\n      dup4\n        /* \"#utility.yul\":16480:16497   */\n      add\n        /* \"#utility.yul\":16473:16520   */\n      mstore\n        /* \"#utility.yul\":16537:16668   */\n      tag_469\n        /* \"#utility.yul\":16663:16667   */\n      dup2\n        /* \"#utility.yul\":16537:16668   */\n      tag_303\n      jump\t// in\n    tag_469:\n        /* \"#utility.yul\":16529:16668   */\n      swap1\n      pop\n        /* \"#utility.yul\":16256:16675   */\n      swap2\n      swap1\n      pop\n      jump\t// out\n        /* \"#utility.yul\":16681:16848   */\n    tag_177:\n        /* \"#utility.yul\":16718:16721   */\n      0x00\n        /* \"#utility.yul\":16741:16763   */\n      tag_471\n        /* \"#utility.yul\":16757:16762   */\n      dup3\n        /* \"#utility.yul\":16741:16763   */\n      tag_260\n      jump\t// in\n    tag_471:\n        /* \"#utility.yul\":16732:16763   */\n      swap2\n      pop\n        /* \"#utility.yul\":16785:16789   */\n      0xff\n        /* \"#utility.yul\":16778:16783   */\n      dup3\n        /* \"#utility.yul\":16775:16790   */\n      sub\n        /* \"#utility.yul\":16772:16813   */\n      tag_472\n      jumpi\n        /* \"#utility.yul\":16793:16811   */\n      tag_473\n      tag_292\n      jump\t// in\n    tag_473:\n        /* \"#utility.yul\":16772:16813   */\n    tag_472:\n        /* \"#utility.yul\":16840:16841   */\n      0x01\n        /* \"#utility.yul\":16833:16838   */\n      dup3\n        /* \"#utility.yul\":16829:16842   */\n      add\n        /* \"#utility.yul\":16822:16842   */\n      swap1\n      pop\n        /* \"#utility.yul\":16681:16848   */\n      swap2\n      swap1\n      pop\n      jump\t// out\n        /* \"#utility.yul\":16854:17585   */\n    tag_189:\n        /* \"#utility.yul\":17065:17069   */\n      0x00\n        /* \"#utility.yul\":17103:17106   */\n      0xc0\n        /* \"#utility.yul\":17092:17101   */\n      dup3\n        /* \"#utility.yul\":17088:17107   */\n      add\n        /* \"#utility.yul\":17080:17107   */\n      swap1\n      pop\n        /* \"#utility.yul\":17117:17188   */\n      tag_475\n        /* \"#utility.yul\":17185:17186   */\n      0x00\n        /* \"#utility.yul\":17174:17183   */\n      dup4\n        /* \"#utility.yul\":17170:17187   */\n      add\n        /* \"#utility.yul\":17161:17167   */\n      dup10\n        /* \"#utility.yul\":17117:17188   */\n      tag_270\n      jump\t// in\n    tag_475:\n        /* \"#utility.yul\":17198:17264   */\n      tag_476\n        /* \"#utility.yul\":17260:17262   */\n      0x20\n        /* \"#utility.yul\":17249:17258   */\n      dup4\n        /* \"#utility.yul\":17245:17263   */\n      add\n        /* \"#utility.yul\":17236:17242   */\n      dup9\n        /* \"#utility.yul\":17198:17264   */\n      tag_277\n      jump\t// in\n    tag_476:\n        /* \"#utility.yul\":17274:17342   */\n      tag_477\n        /* \"#utility.yul\":17338:17340   */\n      0x40\n        /* \"#utility.yul\":17327:17336   */\n      dup4\n        /* \"#utility.yul\":17323:17341   */\n      add\n        /* \"#utility.yul\":17314:17320   */\n      dup8\n        /* \"#utility.yul\":17274:17342   */\n      tag_294\n      jump\t// in\n    tag_477:\n        /* \"#utility.yul\":17352:17420   */\n      tag_478\n        /* \"#utility.yul\":17416:17418   */\n      0x60\n        /* \"#utility.yul\":17405:17414   */\n      dup4\n        /* \"#utility.yul\":17401:17419   */\n      add\n        /* \"#utility.yul\":17392:17398   */\n      dup7\n        /* \"#utility.yul\":17352:17420   */\n      tag_294\n      jump\t// in\n    tag_478:\n        /* \"#utility.yul\":17430:17499   */\n      tag_479\n        /* \"#utility.yul\":17494:17497   */\n      0x80\n        /* \"#utility.yul\":17483:17492   */\n      dup4\n        /* \"#utility.yul\":17479:17498   */\n      add\n        /* \"#utility.yul\":17470:17476   */\n      dup6\n        /* \"#utility.yul\":17430:17499   */\n      tag_294\n      jump\t// in\n    tag_479:\n        /* \"#utility.yul\":17509:17578   */\n      tag_480\n        /* \"#utility.yul\":17573:17576   */\n      0xa0\n        /* \"#utility.yul\":17562:17571   */\n      dup4\n        /* \"#utility.yul\":17558:17577   */\n      add\n        /* \"#utility.yul\":17549:17555   */\n      dup5\n        /* \"#utility.yul\":17509:17578   */\n      tag_294\n      jump\t// in\n    tag_480:\n        /* \"#utility.yul\":16854:17585   */\n      swap8\n      swap7\n      pop\n      pop\n      pop\n      pop\n      pop\n      pop\n      pop\n      jump\t// out\n        /* \"#utility.yul\":17591:18009   */\n    tag_217:\n        /* \"#utility.yul\":17728:17732   */\n      0x00\n        /* \"#utility.yul\":17766:17768   */\n      0x60\n        /* \"#utility.yul\":17755:17764   */\n      dup3\n        /* \"#utility.yul\":17751:17769   */\n      add\n        /* \"#utility.yul\":17743:17769   */\n      swap1\n      pop\n        /* \"#utility.yul\":17779:17850   */\n      tag_482\n        /* \"#utility.yul\":17847:17848   */\n      0x00\n        /* \"#utility.yul\":17836:17845   */\n      dup4\n        /* \"#utility.yul\":17832:17849   */\n      add\n        /* \"#utility.yul\":17823:17829   */\n      dup7\n        /* \"#utility.yul\":17779:17850   */\n      tag_270\n      jump\t// in\n    tag_482:\n        /* \"#utility.yul\":17860:17926   */\n      tag_483\n        /* \"#utility.yul\":17922:17924   */\n      0x20\n        /* \"#utility.yul\":17911:17920   */\n      dup4\n        /* \"#utility.yul\":17907:17925   */\n      add\n        /* \"#utility.yul\":17898:17904   */\n      dup6\n        /* \"#utility.yul\":17860:17926   */\n      tag_277\n      jump\t// in\n    tag_483:\n        /* \"#utility.yul\":17936:18002   */\n      tag_484\n        /* \"#utility.yul\":17998:18000   */\n      0x40\n        /* \"#utility.yul\":17987:17996   */\n      dup4\n        /* \"#utility.yul\":17983:18001   */\n      add\n        /* \"#utility.yul\":17974:17980   */\n      dup5\n        /* \"#utility.yul\":17936:18002   */\n      tag_277\n      jump\t// in\n    tag_484:\n        /* \"#utility.yul\":17591:18009   */\n      swap5\n      swap4\n      pop\n      pop\n      pop\n      pop\n      jump\t// out\n        /* \"#utility.yul\":18015:18094   */\n    tag_304:\n        /* \"#utility.yul\":18054:18061   */\n      0x00\n        /* \"#utility.yul\":18083:18088   */\n      dup2\n        /* \"#utility.yul\":18072:18088   */\n      swap1\n      pop\n        /* \"#utility.yul\":18015:18094   */\n      swap2\n      swap1\n      pop\n      jump\t// out\n        /* \"#utility.yul\":18100:18257   */\n    tag_305:\n        /* \"#utility.yul\":18205:18250   */\n      tag_487\n        /* \"#utility.yul\":18225:18249   */\n      tag_488\n        /* \"#utility.yul\":18243:18248   */\n      dup3\n        /* \"#utility.yul\":18225:18249   */\n      tag_269\n      jump\t// in\n    tag_488:\n        /* \"#utility.yul\":18205:18250   */\n      tag_304\n      jump\t// in\n    tag_487:\n        /* \"#utility.yul\":18200:18203   */\n      dup3\n        /* \"#utility.yul\":18193:18251   */\n      mstore\n        /* \"#utility.yul\":18100:18257   */\n      pop\n      pop\n      jump\t// out\n        /* \"#utility.yul\":18263:18357   */\n    tag_306:\n        /* \"#utility.yul\":18296:18304   */\n      0x00\n        /* \"#utility.yul\":18344:18349   */\n      dup2\n        /* \"#utility.yul\":18340:18342   */\n      0x60\n        /* \"#utility.yul\":18336:18350   */\n      shl\n        /* \"#utility.yul\":18315:18350   */\n      swap1\n      pop\n        /* \"#utility.yul\":18263:18357   */\n      swap2\n      swap1\n      pop\n      jump\t// out\n        /* \"#utility.yul\":18363:18457   */\n    tag_307:\n        /* \"#utility.yul\":18402:18409   */\n      0x00\n        /* \"#utility.yul\":18431:18451   */\n      tag_491\n        /* \"#utility.yul\":18445:18450   */\n      dup3\n        /* \"#utility.yul\":18431:18451   */\n      tag_306\n      jump\t// in\n    tag_491:\n        /* \"#utility.yul\":18420:18451   */\n      swap1\n      pop\n        /* \"#utility.yul\":18363:18457   */\n      swap2\n      swap1\n      pop\n      jump\t// out\n        /* \"#utility.yul\":18463:18563   */\n    tag_308:\n        /* \"#utility.yul\":18502:18509   */\n      0x00\n        /* \"#utility.yul\":18531:18557   */\n      tag_493\n        /* \"#utility.yul\":18551:18556   */\n      dup3\n        /* \"#utility.yul\":18531:18557   */\n      tag_307\n      jump\t// in\n    tag_493:\n        /* \"#utility.yul\":18520:18557   */\n      swap1\n      pop\n        /* \"#utility.yul\":18463:18563   */\n      swap2\n      swap1\n      pop\n      jump\t// out\n        /* \"#utility.yul\":18569:18726   */\n    tag_309:\n        /* \"#utility.yul\":18674:18719   */\n      tag_495\n        /* \"#utility.yul\":18694:18718   */\n      tag_496\n        /* \"#utility.yul\":18712:18717   */\n      dup3\n        /* \"#utility.yul\":18694:18718   */\n      tag_271\n      jump\t// in\n    tag_496:\n        /* \"#utility.yul\":18674:18719   */\n      tag_308\n      jump\t// in\n    tag_495:\n        /* \"#utility.yul\":18669:18672   */\n      dup3\n        /* \"#utility.yul\":18662:18720   */\n      mstore\n        /* \"#utility.yul\":18569:18726   */\n      pop\n      pop\n      jump\t// out\n        /* \"#utility.yul\":18732:19411   */\n    tag_233:\n        /* \"#utility.yul\":18928:18931   */\n      0x00\n        /* \"#utility.yul\":18943:19018   */\n      tag_498\n        /* \"#utility.yul\":19014:19017   */\n      dup3\n        /* \"#utility.yul\":19005:19011   */\n      dup8\n        /* \"#utility.yul\":18943:19018   */\n      tag_305\n      jump\t// in\n    tag_498:\n        /* \"#utility.yul\":19043:19045   */\n      0x20\n        /* \"#utility.yul\":19038:19041   */\n      dup3\n        /* \"#utility.yul\":19034:19046   */\n      add\n        /* \"#utility.yul\":19027:19046   */\n      swap2\n      pop\n        /* \"#utility.yul\":19056:19131   */\n      tag_499\n        /* \"#utility.yul\":19127:19130   */\n      dup3\n        /* \"#utility.yul\":19118:19124   */\n      dup7\n        /* \"#utility.yul\":19056:19131   */\n      tag_305\n      jump\t// in\n    tag_499:\n        /* \"#utility.yul\":19156:19158   */\n      0x20\n        /* \"#utility.yul\":19151:19154   */\n      dup3\n        /* \"#utility.yul\":19147:19159   */\n      add\n        /* \"#utility.yul\":19140:19159   */\n      swap2\n      pop\n        /* \"#utility.yul\":19169:19244   */\n      tag_500\n        /* \"#utility.yul\":19240:19243   */\n      dup3\n        /* \"#utility.yul\":19231:19237   */\n      dup6\n        /* \"#utility.yul\":19169:19244   */\n      tag_309\n      jump\t// in\n    tag_500:\n        /* \"#utility.yul\":19269:19271   */\n      0x14\n        /* \"#utility.yul\":19264:19267   */\n      dup3\n        /* \"#utility.yul\":19260:19272   */\n      add\n        /* \"#utility.yul\":19253:19272   */\n      swap2\n      pop\n        /* \"#utility.yul\":19282:19357   */\n      tag_501\n        /* \"#utility.yul\":19353:19356   */\n      dup3\n        /* \"#utility.yul\":19344:19350   */\n      dup5\n        /* \"#utility.yul\":19282:19357   */\n      tag_305\n      jump\t// in\n    tag_501:\n        /* \"#utility.yul\":19382:19384   */\n      0x20\n        /* \"#utility.yul\":19377:19380   */\n      dup3\n        /* \"#utility.yul\":19373:19385   */\n      add\n        /* \"#utility.yul\":19366:19385   */\n      swap2\n      pop\n        /* \"#utility.yul\":19402:19405   */\n      dup2\n        /* \"#utility.yul\":19395:19405   */\n      swap1\n      pop\n        /* \"#utility.yul\":18732:19411   */\n      swap6\n      swap5\n      pop\n      pop\n      pop\n      pop\n      pop\n      jump\t// out\n        /* \"#utility.yul\":19417:19597   */\n    tag_236:\n        /* \"#utility.yul\":19465:19542   */\n      0x4e487b7100000000000000000000000000000000000000000000000000000000\n        /* \"#utility.yul\":19462:19463   */\n      0x00\n        /* \"#utility.yul\":19455:19543   */\n      mstore\n        /* \"#utility.yul\":19562:19566   */\n      0x12\n        /* \"#utility.yul\":19559:19560   */\n      0x04\n        /* \"#utility.yul\":19552:19567   */\n      mstore\n        /* \"#utility.yul\":19586:19590   */\n      0x24\n        /* \"#utility.yul\":19583:19584   */\n      0x00\n        /* \"#utility.yul\":19576:19591   */\n      revert\n        /* \"#utility.yul\":19603:19746   */\n    tag_310:\n        /* \"#utility.yul\":19660:19665   */\n      0x00\n        /* \"#utility.yul\":19691:19697   */\n      dup2\n        /* \"#utility.yul\":19685:19698   */\n      mload\n        /* \"#utility.yul\":19676:19698   */\n      swap1\n      pop\n        /* \"#utility.yul\":19707:19740   */\n      tag_504\n        /* \"#utility.yul\":19734:19739   */\n      dup2\n        /* \"#utility.yul\":19707:19740   */\n      tag_278\n      jump\t// in\n    tag_504:\n        /* \"#utility.yul\":19603:19746   */\n      swap3\n      swap2\n      pop\n      pop\n      jump\t// out\n        /* \"#utility.yul\":19752:20103   */\n    tag_242:\n        /* \"#utility.yul\":19822:19828   */\n      0x00\n        /* \"#utility.yul\":19871:19873   */\n      0x20\n        /* \"#utility.yul\":19859:19868   */\n      dup3\n        /* \"#utility.yul\":19850:19857   */\n      dup5\n        /* \"#utility.yul\":19846:19869   */\n      sub\n        /* \"#utility.yul\":19842:19874   */\n      slt\n        /* \"#utility.yul\":19839:19958   */\n      iszero\n      tag_506\n      jumpi\n        /* \"#utility.yul\":19877:19956   */\n      tag_507\n      tag_255\n      jump\t// in\n    tag_507:\n        /* \"#utility.yul\":19839:19958   */\n    tag_506:\n        /* \"#utility.yul\":19997:19998   */\n      0x00\n        /* \"#utility.yul\":20022:20086   */\n      tag_508\n        /* \"#utility.yul\":20078:20085   */\n      dup5\n        /* \"#utility.yul\":20069:20075   */\n      dup3\n        /* \"#utility.yul\":20058:20067   */\n      dup6\n        /* \"#utility.yul\":20054:20076   */\n      add\n        /* \"#utility.yul\":20022:20086   */\n      tag_310\n      jump\t// in\n    tag_508:\n        /* \"#utility.yul\":20012:20086   */\n      swap2\n      pop\n        /* \"#utility.yul\":19968:20096   */\n      pop\n        /* \"#utility.yul\":19752:20103   */\n      swap3\n      swap2\n      pop\n      pop\n      jump\t// out\n        /* \"#utility.yul\":20109:20271   */\n    tag_311:\n        /* \"#utility.yul\":20249:20263   */\n      0x62616e6b726f6c6c206c6f770000000000000000000000000000000000000000\n        /* \"#utility.yul\":20245:20246   */\n      0x00\n        /* \"#utility.yul\":20237:20243   */\n      dup3\n        /* \"#utility.yul\":20233:20247   */\n      add\n        /* \"#utility.yul\":20226:20264   */\n      mstore\n        /* \"#utility.yul\":20109:20271   */\n      pop\n      jump\t// out\n        /* \"#utility.yul\":20277:20643   */\n    tag_312:\n        /* \"#utility.yul\":20419:20422   */\n      0x00\n        /* \"#utility.yul\":20440:20507   */\n      tag_511\n        /* \"#utility.yul\":20504:20506   */\n      0x0c\n        /* \"#utility.yul\":20499:20502   */\n      dup4\n        /* \"#utility.yul\":20440:20507   */\n      tag_281\n      jump\t// in\n    tag_511:\n        /* \"#utility.yul\":20433:20507   */\n      swap2\n      pop\n        /* \"#utility.yul\":20516:20609   */\n      tag_512\n        /* \"#utility.yul\":20605:20608   */\n      dup3\n        /* \"#utility.yul\":20516:20609   */\n      tag_311\n      jump\t// in\n    tag_512:\n        /* \"#utility.yul\":20634:20636   */\n      0x20\n        /* \"#utility.yul\":20629:20632   */\n      dup3\n        /* \"#utility.yul\":20625:20637   */\n      add\n        /* \"#utility.yul\":20618:20637   */\n      swap1\n      pop\n        /* \"#utility.yul\":20277:20643   */\n      swap2\n      swap1\n      pop\n      jump\t// out\n        /* \"#utility.yul\":20649:21068   */\n    tag_245:\n        /* \"#utility.yul\":20815:20819   */\n      0x00\n        /* \"#utility.yul\":20853:20855   */\n      0x20\n        /* \"#utility.yul\":20842:20851   */\n      dup3\n        /* \"#utility.yul\":20838:20856   */\n      add\n        /* \"#utility.yul\":20830:20856   */\n      swap1\n      pop\n        /* \"#utility.yul\":20902:20911   */\n      dup2\n        /* \"#utility.yul\":20896:20900   */\n      dup2\n        /* \"#utility.yul\":20892:20912   */\n      sub\n        /* \"#utility.yul\":20888:20889   */\n      0x00\n        /* \"#utility.yul\":20877:20886   */\n      dup4\n        /* \"#utility.yul\":20873:20890   */\n      add\n        /* \"#utility.yul\":20866:20913   */\n      mstore\n        /* \"#utility.yul\":20930:21061   */\n      tag_514\n        /* \"#utility.yul\":21056:21060   */\n      dup2\n        /* \"#utility.yul\":20930:21061   */\n      tag_312\n      jump\t// in\n    tag_514:\n        /* \"#utility.yul\":20922:21061   */\n      swap1\n      pop\n        /* \"#utility.yul\":20649:21068   */\n      swap2\n      swap1\n      pop\n      jump\t// out\n        /* \"#utility.yul\":21074:21265   */\n    tag_249:\n        /* \"#utility.yul\":21114:21117   */\n      0x00\n        /* \"#utility.yul\":21133:21153   */\n      tag_516\n        /* \"#utility.yul\":21151:21152   */\n      dup3\n        /* \"#utility.yul\":21133:21153   */\n      tag_269\n      jump\t// in\n    tag_516:\n        /* \"#utility.yul\":21128:21153   */\n      swap2\n      pop\n        /* \"#utility.yul\":21167:21187   */\n      tag_517\n        /* \"#utility.yul\":21185:21186   */\n      dup4\n        /* \"#utility.yul\":21167:21187   */\n      tag_269\n      jump\t// in\n    tag_517:\n        /* \"#utility.yul\":21162:21187   */\n      swap3\n      pop\n        /* \"#utility.yul\":21210:21211   */\n      dup3\n        /* \"#utility.yul\":21207:21208   */\n      dup3\n        /* \"#utility.yul\":21203:21212   */\n      add\n        /* \"#utility.yul\":21196:21212   */\n      swap1\n      pop\n        /* \"#utility.yul\":21231:21234   */\n      dup1\n        /* \"#utility.yul\":21228:21229   */\n      dup3\n        /* \"#utility.yul\":21225:21235   */\n      gt\n        /* \"#utility.yul\":21222:21258   */\n      iszero\n      tag_518\n      jumpi\n        /* \"#utility.yul\":21238:21256   */\n      tag_519\n      tag_292\n      jump\t// in\n    tag_519:\n        /* \"#utility.yul\":21222:21258   */\n    tag_518:\n        /* \"#utility.yul\":21074:21265   */\n      swap3\n      swap2\n      pop\n      pop\n      jump\t// out\n        /* \"#utility.yul\":21271:21459   */\n    tag_253:\n        /* \"#utility.yul\":21309:21312   */\n      0x00\n        /* \"#utility.yul\":21328:21346   */\n      tag_521\n        /* \"#utility.yul\":21344:21345   */\n      dup3\n        /* \"#utility.yul\":21328:21346   */\n      tag_260\n      jump\t// in\n    tag_521:\n        /* \"#utility.yul\":21323:21346   */\n      swap2\n      pop\n        /* \"#utility.yul\":21360:21378   */\n      tag_522\n        /* \"#utility.yul\":21376:21377   */\n      dup4\n        /* \"#utility.yul\":21360:21378   */\n      tag_260\n      jump\t// in\n    tag_522:\n        /* \"#utility.yul\":21355:21378   */\n      swap3\n      pop\n        /* \"#utility.yul\":21401:21402   */\n      dup3\n        /* \"#utility.yul\":21398:21399   */\n      dup3\n        /* \"#utility.yul\":21394:21403   */\n      add\n        /* \"#utility.yul\":21387:21403   */\n      swap1\n      pop\n        /* \"#utility.yul\":21424:21428   */\n      0xff\n        /* \"#utility.yul\":21419:21422   */\n      dup2\n        /* \"#utility.yul\":21416:21429   */\n      gt\n        /* \"#utility.yul\":21413:21452   */\n      iszero\n      tag_523\n      jumpi\n        /* \"#utility.yul\":21432:21450   */\n      tag_524\n      tag_292\n      jump\t// in\n    tag_524:\n        /* \"#utility.yul\":21413:21452   */\n    tag_523:\n        /* \"#utility.yul\":21271:21459   */\n      swap3\n      swap2\n      pop\n      pop\n      jump\t// out\n\n    auxdata: 0xa26469706673582212208a7e8cf8b864813937ab15e50adbf4b4399ede8b07b2bc9f18393edb81fe408e64736f6c63430008180033\n}\n",
				"bytecode": {
					"linkReferences": {},
					"object": "608060405260018055678ac7230489e8000060035534801562000020575f80fd5b50604051620021d2380380620021d2833981810160405281019062000046919062000166565b335f806101000a81548173ffffffffffffffffffffffffffffffffffffffff021916908373ffffffffffffffffffffffffffffffffffffffff1602179055505f73ffffffffffffffffffffffffffffffffffffffff168173ffffffffffffffffffffffffffffffffffffffff1614620000fa578060055f6101000a81548173ffffffffffffffffffffffffffffffffffffffff021916908373ffffffffffffffffffffffffffffffffffffffff1602179055505b5062000196565b5f80fd5b5f73ffffffffffffffffffffffffffffffffffffffff82169050919050565b5f620001308262000105565b9050919050565b620001428162000124565b81146200014d575f80fd5b50565b5f81519050620001608162000137565b92915050565b5f602082840312156200017e576200017d62000101565b5b5f6200018d8482850162000150565b91505092915050565b61202e80620001a45f395ff3fe6080604052600436106100e0575f3560e01c8063881eff1e1161007e578063affed0e011610058578063affed0e01461026b578063b60d428814610295578063cafab8e71461029f578063f2fde38b146102bb576100e7565b8063881eff1e146101fd5780638da5cb5b1461022557806391a4f2ec1461024f576100e7565b80632e5b2168116100ba5780632e5b2168146101595780634437152a1461018357806354ab6269146101ab5780635c975abb146101d3576100e7565b806302329a29146100eb5780630df8b93b1461011357806316f0115b1461012f576100e7565b366100e757005b5f80fd5b3480156100f6575f80fd5b50610111600480360381019061010c9190611607565b6102e3565b005b61012d60048036038101906101289190611668565b6103c3565b005b34801561013a575f80fd5b50610143610742565b604051610150919061170d565b60405180910390f35b348015610164575f80fd5b5061016d610767565b60405161017a919061173e565b60405180910390f35b34801561018e575f80fd5b506101a960048036038101906101a49190611792565b61076d565b005b3480156101b6575f80fd5b506101d160048036038101906101cc91906117f8565b6108ee565b005b3480156101de575f80fd5b506101e76109c2565b6040516101f49190611832565b60405180910390f35b348015610208575f80fd5b50610223600480360381019061021e9190611875565b6109d4565b005b348015610230575f80fd5b50610239610a6b565b60405161024691906118af565b60405180910390f35b61026960048036038101906102649190611668565b610a8e565b005b348015610276575f80fd5b5061027f610f14565b60405161028c919061173e565b60405180910390f35b61029d610f1a565b005b6102b960048036038101906102b49190611607565b610f1c565b005b3480156102c6575f80fd5b506102e160048036038101906102dc9190611792565b611254565b005b5f8054906101000a900473ffffffffffffffffffffffffffffffffffffffff1673ffffffffffffffffffffffffffffffffffffffff163373ffffffffffffffffffffffffffffffffffffffff1614610370576040517f08c379a000000000000000000000000000000000000000000000000000000000815260040161036790611922565b60405180910390fd5b8060025f6101000a81548160ff0219169083151502179055507f0e2fb031ee032dc02d8011dc50b816eb450cf856abd8261680dac74f72165bd2816040516103b89190611832565b60405180910390a150565b6001805414610407576040517f08c379a00000000000000000000000000000000000000000000000000000000081526004016103fe9061198a565b60405180910390fd5b600260018190555060025f9054906101000a900460ff161561045e576040517f08c379a0000000000000000000000000000000000000000000000000000000008152600401610455906119f2565b60405180910390fd5b60038160ff16106104a4576040517f08c379a000000000000000000000000000000000000000000000000000000000815260040161049b90611a5a565b60405180910390fd5b5f3490505f811180156104b957506003548111155b6104f8576040517f08c379a00000000000000000000000000000000000000000000000000000000081526004016104ef90611ac2565b60405180910390fd5b5f610503600361140a565b90505f8360ff168260ff1614905080156105c25761052c6002846105279190611b0d565b611460565b60055f9054906101000a900473ffffffffffffffffffffffffffffffffffffffff1673ffffffffffffffffffffffffffffffffffffffff1663c4076876336002866105779190611b0d565b6040518363ffffffff1660e01b8152600401610594929190611b5d565b5f604051808303815f87803b1580156105ab575f80fd5b505af11580156105bd573d5f803e3d5ffd5b505050505b3373ffffffffffffffffffffffffffffffffffffffff167ff8f3c747b75419bd578197d83f20823bb034bcdf041645c86bcfc9d97263a89e8483858860405161060e9493929190611b93565b60405180910390a25f73ffffffffffffffffffffffffffffffffffffffff1660055f9054906101000a900473ffffffffffffffffffffffffffffffffffffffff1673ffffffffffffffffffffffffffffffffffffffff1614610735575f60055f9054906101000a900473ffffffffffffffffffffffffffffffffffffffff1673ffffffffffffffffffffffffffffffffffffffff16846040516106b090611c03565b5f6040518083038185875af1925050503d805f81146106ea576040519150601f19603f3d011682016040523d82523d5f602084013e6106ef565b606091505b5050905080610733576040517f08c379a000000000000000000000000000000000000000000000000000000000815260040161072a90611c61565b60405180910390fd5b505b5050506001808190555050565b60055f9054906101000a900473ffffffffffffffffffffffffffffffffffffffff1681565b60035481565b5f8054906101000a900473ffffffffffffffffffffffffffffffffffffffff1673ffffffffffffffffffffffffffffffffffffffff163373ffffffffffffffffffffffffffffffffffffffff16146107fa576040517f08c379a00000000000000000000000000000000000000000000000000000000081526004016107f190611922565b60405180910390fd5b5f73ffffffffffffffffffffffffffffffffffffffff168173ffffffffffffffffffffffffffffffffffffffff1603610868576040517f08c379a000000000000000000000000000000000000000000000000000000000815260040161085f90611cc9565b60405180910390fd5b8060055f6101000a81548173ffffffffffffffffffffffffffffffffffffffff021916908373ffffffffffffffffffffffffffffffffffffffff1602179055508073ffffffffffffffffffffffffffffffffffffffff167f380cec482764ddef4f75351b5398e3e2bea99ba23e53a00d5521f569fb668e1f60405160405180910390a250565b5f8054906101000a900473ffffffffffffffffffffffffffffffffffffffff1673ffffffffffffffffffffffffffffffffffffffff163373ffffffffffffffffffffffffffffffffffffffff161461097b576040517f08c379a000000000000000000000000000000000000000000000000000000000815260040161097290611922565b60405180910390fd5b8073ffffffffffffffffffffffffffffffffffffffff166108fc4790811502906040515f60405180830381858888f193505050501580156109be573d5f803e3d5ffd5b5050565b60025f9054906101000a900460ff1681565b5f8054906101000a900473ffffffffffffffffffffffffffffffffffffffff1673ffffffffffffffffffffffffffffffffffffffff163373ffffffffffffffffffffffffffffffffffffffff1614610a61576040517f08c379a0000000000000000000000000000000000000000000000000000000008152600401610a5890611922565b60405180910390fd5b8060038190555050565b5f8054906101000a900473ffffffffffffffffffffffffffffffffffffffff1681565b6001805414610ad2576040517f08c379a0000000000000000000000000000000000000000000000000000000008152600401610ac99061198a565b60405180910390fd5b600260018190555060025f9054906101000a900460ff1615610b29576040517f08c379a0000000000000000000000000000000000000000000000000000000008152600401610b20906119f2565b60405180910390fd5b60058160ff1610158015610b41575060098160ff1611155b610b80576040517f08c379a0000000000000000000000000000000000000000000000000000000008152600401610b7790611d31565b60405180910390fd5b5f3490505f81118015610b9557506003548111155b610bd4576040517f08c379a0000000000000000000000000000000000000000000000000000000008152600401610bcb90611ac2565b60405180910390fd5b5f610bdd611588565b90505f80600190505f8560ff168460ff1603610bfc5760019050610cdd565b60028460ff161480610c11575060038460ff16145b15610c1e575f9050610cdc565b600b8460ff161480610c335750600c8460ff16145b15610c785760078660ff1603610c4b575f9050610c73565b60058660ff161480610c60575060098660ff16145b15610c6e5760019050610c72565b5f90505b5b610cdb565b8392505f5b60408160ff161015610cd957610c91611588565b94508280610c9e90611d4f565b9350508360ff168560ff1603610cb75760019150610cd9565b8660ff168560ff1603610ccc575f9150610cd9565b8080600101915050610c7d565b505b5b5b8015610d8e57610cf8600286610cf39190611b0d565b611460565b60055f9054906101000a900473ffffffffffffffffffffffffffffffffffffffff1673ffffffffffffffffffffffffffffffffffffffff1663c407687633600288610d439190611b0d565b6040518363ffffffff1660e01b8152600401610d60929190611b5d565b5f604051808303815f87803b158015610d77575f80fd5b505af1158015610d89573d5f803e3d5ffd5b505050505b3373ffffffffffffffffffffffffffffffffffffffff167f5a08ed90cb799d1b0281213096fc06cd7e7ab84f1e2e4b8947282b4f3712b4c6868389888888604051610dde96959493929190611d77565b60405180910390a25f73ffffffffffffffffffffffffffffffffffffffff1660055f9054906101000a900473ffffffffffffffffffffffffffffffffffffffff1673ffffffffffffffffffffffffffffffffffffffff1614610f05575f60055f9054906101000a900473ffffffffffffffffffffffffffffffffffffffff1673ffffffffffffffffffffffffffffffffffffffff1686604051610e8090611c03565b5f6040518083038185875af1925050503d805f8114610eba576040519150601f19603f3d011682016040523d82523d5f602084013e610ebf565b606091505b5050905080610f03576040517f08c379a0000000000000000000000000000000000000000000000000000000008152600401610efa90611c61565b60405180910390fd5b505b50505050506001808190555050565b60045481565b565b6001805414610f60576040517f08c379a0000000000000000000000000000000000000000000000000000000008152600401610f579061198a565b60405180910390fd5b600260018190555060025f9054906101000a900460ff1615610fb7576040517f08c379a0000000000000000000000000000000000000000000000000000000008152600401610fae906119f2565b60405180910390fd5b5f3490505f81118015610fcc57506003548111155b61100b576040517f08c379a000000000000000000000000000000000000000000000000000000000815260040161100290611ac2565b60405180910390fd5b5f6001611018600261140a565b1490505f83151582151514905080156110d65761104060028461103b9190611b0d565b611460565b60055f9054906101000a900473ffffffffffffffffffffffffffffffffffffffff1673ffffffffffffffffffffffffffffffffffffffff1663c40768763360028661108b9190611b0d565b6040518363ffffffff1660e01b81526004016110a8929190611b5d565b5f604051808303815f87803b1580156110bf575f80fd5b505af11580156110d1573d5f803e3d5ffd5b505050505b3373ffffffffffffffffffffffffffffffffffffffff167fe4e7f0a0e6fc393a5af5b89ee2fe9a7267a850bbcc8ec0e4571f51a17ed1d97e84838560405161112093929190611dd6565b60405180910390a25f73ffffffffffffffffffffffffffffffffffffffff1660055f9054906101000a900473ffffffffffffffffffffffffffffffffffffffff1673ffffffffffffffffffffffffffffffffffffffff1614611247575f60055f9054906101000a900473ffffffffffffffffffffffffffffffffffffffff1673ffffffffffffffffffffffffffffffffffffffff16846040516111c290611c03565b5f6040518083038185875af1925050503d805f81146111fc576040519150601f19603f3d011682016040523d82523d5f602084013e611201565b606091505b5050905080611245576040517f08c379a000000000000000000000000000000000000000000000000000000000815260040161123c90611c61565b60405180910390fd5b505b5050506001808190555050565b5f8054906101000a900473ffffffffffffffffffffffffffffffffffffffff1673ffffffffffffffffffffffffffffffffffffffff163373ffffffffffffffffffffffffffffffffffffffff16146112e1576040517f08c379a00000000000000000000000000000000000000000000000000000000081526004016112d890611922565b60405180910390fd5b5f73ffffffffffffffffffffffffffffffffffffffff168173ffffffffffffffffffffffffffffffffffffffff160361134f576040517f08c379a000000000000000000000000000000000000000000000000000000000815260040161134690611cc9565b60405180910390fd5b8073ffffffffffffffffffffffffffffffffffffffff165f8054906101000a900473ffffffffffffffffffffffffffffffffffffffff1673ffffffffffffffffffffffffffffffffffffffff167f8be0079c531659141344cd1fd0a4f28419497f9722a3daafe3b4186f6b6457e060405160405180910390a3805f806101000a81548173ffffffffffffffffffffffffffffffffffffffff021916908373ffffffffffffffffffffffffffffffffffffffff16021790555050565b5f8144423360045f815480929190600101919050556040516020016114329493929190611e70565b604051602081830303815290604052805190602001205f1c8161145857611457611ebd565b5b069050919050565b5f73ffffffffffffffffffffffffffffffffffffffff1660055f9054906101000a900473ffffffffffffffffffffffffffffffffffffffff1673ffffffffffffffffffffffffffffffffffffffff1614611585578060055f9054906101000a900473ffffffffffffffffffffffffffffffffffffffff1673ffffffffffffffffffffffffffffffffffffffff1663b69ef8a86040518163ffffffff1660e01b8152600401602060405180830381865afa15801561151f573d5f803e3d5ffd5b505050506040513d601f19601f820116820180604052508101906115439190611efe565b1015611584576040517f08c379a000000000000000000000000000000000000000000000000000000000815260040161157b90611f73565b60405180910390fd5b5b50565b5f806001611596600661140a565b6115a09190611f91565b90505f60016115af600661140a565b6115b99190611f91565b905080826115c79190611fc4565b9250505090565b5f80fd5b5f8115159050919050565b6115e6816115d2565b81146115f0575f80fd5b50565b5f81359050611601816115dd565b92915050565b5f6020828403121561161c5761161b6115ce565b5b5f611629848285016115f3565b91505092915050565b5f60ff82169050919050565b61164781611632565b8114611651575f80fd5b50565b5f813590506116628161163e565b92915050565b5f6020828403121561167d5761167c6115ce565b5b5f61168a84828501611654565b91505092915050565b5f73ffffffffffffffffffffffffffffffffffffffff82169050919050565b5f819050919050565b5f6116d56116d06116cb84611693565b6116b2565b611693565b9050919050565b5f6116e6826116bb565b9050919050565b5f6116f7826116dc565b9050919050565b611707816116ed565b82525050565b5f6020820190506117205f8301846116fe565b92915050565b5f819050919050565b61173881611726565b82525050565b5f6020820190506117515f83018461172f565b92915050565b5f61176182611693565b9050919050565b61177181611757565b811461177b575f80fd5b50565b5f8135905061178c81611768565b92915050565b5f602082840312156117a7576117a66115ce565b5b5f6117b48482850161177e565b91505092915050565b5f6117c782611693565b9050919050565b6117d7816117bd565b81146117e1575f80fd5b50565b5f813590506117f2816117ce565b92915050565b5f6020828403121561180d5761180c6115ce565b5b5f61181a848285016117e4565b91505092915050565b61182c816115d2565b82525050565b5f6020820190506118455f830184611823565b92915050565b61185481611726565b811461185e575f80fd5b50565b5f8135905061186f8161184b565b92915050565b5f6020828403121561188a576118896115ce565b5b5f61189784828501611861565b91505092915050565b6118a981611757565b82525050565b5f6020820190506118c25f8301846118a0565b92915050565b5f82825260208201905092915050565b7f6e6f74206f776e657200000000000000000000000000000000000000000000005f82015250565b5f61190c6009836118c8565b9150611917826118d8565b602082019050919050565b5f6020820190508181035f83015261193981611900565b9050919050565b7f7265656e7472616e7400000000000000000000000000000000000000000000005f82015250565b5f6119746009836118c8565b915061197f82611940565b602082019050919050565b5f6020820190508181035f8301526119a181611968565b9050919050565b7f70617573656400000000000000000000000000000000000000000000000000005f82015250565b5f6119dc6006836118c8565b91506119e7826119a8565b602082019050919050565b5f6020820190508181035f830152611a09816119d0565b9050919050565b7f62616420677565737300000000000000000000000000000000000000000000005f82015250565b5f611a446009836118c8565b9150611a4f82611a10565b602082019050919050565b5f6020820190508181035f830152611a7181611a38565b9050919050565b7f62616420776167657200000000000000000000000000000000000000000000005f82015250565b5f611aac6009836118c8565b9150611ab782611a78565b602082019050919050565b5f6020820190508181035f830152611ad981611aa0565b9050919050565b7f4e487b71000000000000000000000000000000000000000000000000000000005f52601160045260245ffd5b5f611b1782611726565b9150611b2283611726565b9250828202611b3081611726565b91508282048414831517611b4757611b46611ae0565b5b5092915050565b611b57816117bd565b82525050565b5f604082019050611b705f830185611b4e565b611b7d602083018461172f565b9392505050565b611b8d81611632565b82525050565b5f608082019050611ba65f83018761172f565b611bb36020830186611823565b611bc06040830185611b84565b611bcd6060830184611b84565b95945050505050565b5f81905092915050565b50565b5f611bee5f83611bd6565b9150611bf982611be0565b5f82019050919050565b5f611c0d82611be3565b9150819050919050565b7f706f6f6c206465706f736974206661696c6564000000000000000000000000005f82015250565b5f611c4b6013836118c8565b9150611c5682611c17565b602082019050919050565b5f6020820190508181035f830152611c7881611c3f565b9050919050565b7f7a65726f000000000000000000000000000000000000000000000000000000005f82015250565b5f611cb36004836118c8565b9150611cbe82611c7f565b602082019050919050565b5f6020820190508181035f830152611ce081611ca7565b9050919050565b7f626164206d61696e0000000000000000000000000000000000000000000000005f82015250565b5f611d1b6008836118c8565b9150611d2682611ce7565b602082019050919050565b5f6020820190508181035f830152611d4881611d0f565b9050919050565b5f611d5982611632565b915060ff8203611d6c57611d6b611ae0565b5b600182019050919050565b5f60c082019050611d8a5f83018961172f565b611d976020830188611823565b611da46040830187611b84565b611db16060830186611b84565b611dbe6080830185611b84565b611dcb60a0830184611b84565b979650505050505050565b5f606082019050611de95f83018661172f565b611df66020830185611823565b611e036040830184611823565b949350505050565b5f819050919050565b611e25611e2082611726565b611e0b565b82525050565b5f8160601b9050919050565b5f611e4182611e2b565b9050919050565b5f611e5282611e37565b9050919050565b611e6a611e6582611757565b611e48565b82525050565b5f611e7b8287611e14565b602082019150611e8b8286611e14565b602082019150611e9b8285611e59565b601482019150611eab8284611e14565b60208201915081905095945050505050565b7f4e487b71000000000000000000000000000000000000000000000000000000005f52601260045260245ffd5b5f81519050611ef88161184b565b92915050565b5f60208284031215611f1357611f126115ce565b5b5f611f2084828501611eea565b91505092915050565b7f62616e6b726f6c6c206c6f7700000000000000000000000000000000000000005f82015250565b5f611f5d600c836118c8565b9150611f6882611f29565b602082019050919050565b5f6020820190508181035f830152611f8a81611f51565b9050919050565b5f611f9b82611726565b9150611fa683611726565b9250828201905080821115611fbe57611fbd611ae0565b5b92915050565b5f611fce82611632565b9150611fd983611632565b9250828201905060ff811115611ff257611ff1611ae0565b5b9291505056fea26469706673582212208a7e8cf8b864813937ab15e50adbf4b4399ede8b07b2bc9f18393edb81fe408e64736f6c63430008180033",
					"opcodes": "PUSH1 0x80 PUSH1 0x40 MSTORE PUSH1 0x1 DUP1 SSTORE PUSH8 0x8AC7230489E80000 PUSH1 0x3 SSTORE CALLVALUE DUP1 ISZERO PUSH3 0x20 JUMPI PUSH0 DUP1 REVERT JUMPDEST POP PUSH1 0x40 MLOAD PUSH3 0x21D2 CODESIZE SUB DUP1 PUSH3 0x21D2 DUP4 CODECOPY DUP2 DUP2 ADD PUSH1 0x40 MSTORE DUP2 ADD SWAP1 PUSH3 0x46 SWAP2 SWAP1 PUSH3 0x166 JUMP JUMPDEST CALLER PUSH0 DUP1 PUSH2 0x100 EXP DUP2 SLOAD DUP2 PUSH20 0xFFFFFFFFFFFFFFFFFFFFFFFFFFFFFFFFFFFFFFFF MUL NOT AND SWAP1 DUP4 PUSH20 0xFFFFFFFFFFFFFFFFFFFFFFFFFFFFFFFFFFFFFFFF AND MUL OR SWAP1 SSTORE POP PUSH0 PUSH20 0xFFFFFFFFFFFFFFFFFFFFFFFFFFFFFFFFFFFFFFFF AND DUP2 PUSH20 0xFFFFFFFFFFFFFFFFFFFFFFFFFFFFFFFFFFFFFFFF AND EQ PUSH3 0xFA JUMPI DUP1 PUSH1 0x5 PUSH0 PUSH2 0x100 EXP DUP2 SLOAD DUP2 PUSH20 0xFFFFFFFFFFFFFFFFFFFFFFFFFFFFFFFFFFFFFFFF MUL NOT AND SWAP1 DUP4 PUSH20 0xFFFFFFFFFFFFFFFFFFFFFFFFFFFFFFFFFFFFFFFF AND MUL OR SWAP1 SSTORE POP JUMPDEST POP PUSH3 0x196 JUMP JUMPDEST PUSH0 DUP1 REVERT JUMPDEST PUSH0 PUSH20 0xFFFFFFFFFFFFFFFFFFFFFFFFFFFFFFFFFFFFFFFF DUP3 AND SWAP1 POP SWAP2 SWAP1 POP JUMP JUMPDEST PUSH0 PUSH3 0x130 DUP3 PUSH3 0x105 JUMP JUMPDEST SWAP1 POP SWAP2 SWAP1 POP JUMP JUMPDEST PUSH3 0x142 DUP2 PUSH3 0x124 JUMP JUMPDEST DUP2 EQ PUSH3 0x14D JUMPI PUSH0 DUP1 REVERT JUMPDEST POP JUMP JUMPDEST PUSH0 DUP2 MLOAD SWAP1 POP PUSH3 0x160 DUP2 PUSH3 0x137 JUMP JUMPDEST SWAP3 SWAP2 POP POP JUMP JUMPDEST PUSH0 PUSH1 0x20 DUP3 DUP5 SUB SLT ISZERO PUSH3 0x17E JUMPI PUSH3 0x17D PUSH3 0x101 JUMP JUMPDEST JUMPDEST PUSH0 PUSH3 0x18D DUP5 DUP3 DUP6 ADD PUSH3 0x150 JUMP JUMPDEST SWAP2 POP POP SWAP3 SWAP2 POP POP JUMP JUMPDEST PUSH2 0x202E DUP1 PUSH3 0x1A4 PUSH0 CODECOPY PUSH0 RETURN INVALID PUSH1 0x80 PUSH1 0x40 MSTORE PUSH1 0x4 CALLDATASIZE LT PUSH2 0xE0 JUMPI PUSH0 CALLDATALOAD PUSH1 0xE0 SHR DUP1 PUSH4 0x881EFF1E GT PUSH2 0x7E JUMPI DUP1 PUSH4 0xAFFED0E0 GT PUSH2 0x58 JUMPI DUP1 PUSH4 0xAFFED0E0 EQ PUSH2 0x26B JUMPI DUP1 PUSH4 0xB60D4288 EQ PUSH2 0x295 JUMPI DUP1 PUSH4 0xCAFAB8E7 EQ PUSH2 0x29F JUMPI DUP1 PUSH4 0xF2FDE38B EQ PUSH2 0x2BB JUMPI PUSH2 0xE7 JUMP JUMPDEST DUP1 PUSH4 0x881EFF1E EQ PUSH2 0x1FD JUMPI DUP1 PUSH4 0x8DA5CB5B EQ PUSH2 0x225 JUMPI DUP1 PUSH4 0x91A4F2EC EQ PUSH2 0x24F JUMPI PUSH2 0xE7 JUMP JUMPDEST DUP1 PUSH4 0x2E5B2168 GT PUSH2 0xBA JUMPI DUP1 PUSH4 0x2E5B2168 EQ PUSH2 0x159 JUMPI DUP1 PUSH4 0x4437152A EQ PUSH2 0x183 JUMPI DUP1 PUSH4 0x54AB6269 EQ PUSH2 0x1AB JUMPI DUP1 PUSH4 0x5C975ABB EQ PUSH2 0x1D3 JUMPI PUSH2 0xE7 JUMP JUMPDEST DUP1 PUSH4 0x2329A29 EQ PUSH2 0xEB JUMPI DUP1 PUSH4 0xDF8B93B EQ PUSH2 0x113 JUMPI DUP1 PUSH4 0x16F0115B EQ PUSH2 0x12F JUMPI PUSH2 0xE7 JUMP JUMPDEST CALLDATASIZE PUSH2 0xE7 JUMPI STOP JUMPDEST PUSH0 DUP1 REVERT JUMPDEST CALLVALUE DUP1 ISZERO PUSH2 0xF6 JUMPI PUSH0 DUP1 REVERT JUMPDEST POP PUSH2 0x111 PUSH1 0x4 DUP1 CALLDATASIZE SUB DUP2 ADD SWAP1 PUSH2 0x10C SWAP2 SWAP1 PUSH2 0x1607 JUMP JUMPDEST PUSH2 0x2E3 JUMP JUMPDEST STOP JUMPDEST PUSH2 0x12D PUSH1 0x4 DUP1 CALLDATASIZE SUB DUP2 ADD SWAP1 PUSH2 0x128 SWAP2 SWAP1 PUSH2 0x1668 JUMP JUMPDEST PUSH2 0x3C3 JUMP JUMPDEST STOP JUMPDEST CALLVALUE DUP1 ISZERO PUSH2 0x13A JUMPI PUSH0 DUP1 REVERT JUMPDEST POP PUSH2 0x143 PUSH2 0x742 JUMP JUMPDEST PUSH1 0x40 MLOAD PUSH2 0x150 SWAP2 SWAP1 PUSH2 0x170D JUMP JUMPDEST PUSH1 0x40 MLOAD DUP1 SWAP2 SUB SWAP1 RETURN JUMPDEST CALLVALUE DUP1 ISZERO PUSH2 0x164 JUMPI PUSH0 DUP1 REVERT JUMPDEST POP PUSH2 0x16D PUSH2 0x767 JUMP JUMPDEST PUSH1 0x40 MLOAD PUSH2 0x17A SWAP2 SWAP1 PUSH2 0x173E JUMP JUMPDEST PUSH1 0x40 MLOAD DUP1 SWAP2 SUB SWAP1 RETURN JUMPDEST CALLVALUE DUP1 ISZERO PUSH2 0x18E JUMPI PUSH0 DUP1 REVERT JUMPDEST POP PUSH2 0x1A9 PUSH1 0x4 DUP1 CALLDATASIZE SUB DUP2 ADD SWAP1 PUSH2 0x1A4 SWAP2 SWAP1 PUSH2 0x1792 JUMP JUMPDEST PUSH2 0x76D JUMP JUMPDEST STOP JUMPDEST CALLVALUE DUP1 ISZERO PUSH2 0x1B6 JUMPI PUSH0 DUP1 REVERT JUMPDEST POP PUSH2 0x1D1 PUSH1 0x4 DUP1 CALLDATASIZE SUB DUP2 ADD SWAP1 PUSH2 0x1CC SWAP2 SWAP1 PUSH2 0x17F8 JUMP JUMPDEST PUSH2 0x8EE JUMP JUMPDEST STOP JUMPDEST CALLVALUE DUP1 ISZERO PUSH2 0x1DE JUMPI PUSH0 DUP1 REVERT JUMPDEST POP PUSH2 0x1E7 PUSH2 0x9C2 JUMP JUMPDEST PUSH1 0x40 MLOAD PUSH2 0x1F4 SWAP2 SWAP1 PUSH2 0x1832 JUMP JUMPDEST PUSH1 0x40 MLOAD DUP1 SWAP2 SUB SWAP1 RETURN JUMPDEST CALLVALUE DUP1 ISZERO PUSH2 0x208 JUMPI PUSH0 DUP1 REVERT JUMPDEST POP PUSH2 0x223 PUSH1 0x4 DUP1 CALLDATASIZE SUB DUP2 ADD SWAP1 PUSH2 0x21E SWAP2 SWAP1 PUSH2 0x1875 JUMP JUMPDEST PUSH2 0x9D4 JUMP JUMPDEST STOP JUMPDEST CALLVALUE DUP1 ISZERO PUSH2 0x230 JUMPI PUSH0 DUP1 REVERT JUMPDEST POP PUSH2 0x239 PUSH2 0xA6B JUMP JUMPDEST PUSH1 0x40 MLOAD PUSH2 0x246 SWAP2 SWAP1 PUSH2 0x18AF JUMP JUMPDEST PUSH1 0x40 MLOAD DUP1 SWAP2 SUB SWAP1 RETURN JUMPDEST PUSH2 0x269 PUSH1 0x4 DUP1 CALLDATASIZE SUB DUP2 ADD SWAP1 PUSH2 0x264 SWAP2 SWAP1 PUSH2 0x1668 JUMP JUMPDEST PUSH2 0xA8E JUMP JUMPDEST STOP JUMPDEST CALLVALUE DUP1 ISZERO PUSH2 0x276 JUMPI PUSH0 DUP1 REVERT JUMPDEST POP PUSH2 0x27F PUSH2 0xF14 JUMP JUMPDEST PUSH1 0x40 MLOAD PUSH2 0x28C SWAP2 SWAP1 PUSH2 0x173E JUMP JUMPDEST PUSH1 0x40 MLOAD DUP1 SWAP2 SUB SWAP1 RETURN JUMPDEST PUSH2 0x29D PUSH2 0xF1A JUMP JUMPDEST STOP JUMPDEST PUSH2 0x2B9 PUSH1 0x4 DUP1 CALLDATASIZE SUB DUP2 ADD SWAP1 PUSH2 0x2B4 SWAP2 SWAP1 PUSH2 0x1607 JUMP JUMPDEST PUSH2 0xF1C JUMP JUMPDEST STOP JUMPDEST CALLVALUE DUP1 ISZERO PUSH2 0x2C6 JUMPI PUSH0 DUP1 REVERT JUMPDEST POP PUSH2 0x2E1 PUSH1 0x4 DUP1 CALLDATASIZE SUB DUP2 ADD SWAP1 PUSH2 0x2DC SWAP2 SWAP1 PUSH2 0x1792 JUMP JUMPDEST PUSH2 0x1254 JUMP JUMPDEST STOP JUMPDEST PUSH0 DUP1 SLOAD SWAP1 PUSH2 0x100 EXP SWAP1 DIV PUSH20 0xFFFFFFFFFFFFFFFFFFFFFFFFFFFFFFFFFFFFFFFF AND PUSH20 0xFFFFFFFFFFFFFFFFFFFFFFFFFFFFFFFFFFFFFFFF AND CALLER PUSH20 0xFFFFFFFFFFFFFFFFFFFFFFFFFFFFFFFFFFFFFFFF AND EQ PUSH2 0x370 JUMPI PUSH1 0x40 MLOAD PUSH32 0x8C379A000000000000000000000000000000000000000000000000000000000 DUP2 MSTORE PUSH1 0x4 ADD PUSH2 0x367 SWAP1 PUSH2 0x1922 JUMP JUMPDEST PUSH1 0x40 MLOAD DUP1 SWAP2 SUB SWAP1 REVERT JUMPDEST DUP1 PUSH1 0x2 PUSH0 PUSH2 0x100 EXP DUP2 SLOAD DUP2 PUSH1 0xFF MUL NOT AND SWAP1 DUP4 ISZERO ISZERO MUL OR SWAP1 SSTORE POP PUSH32 0xE2FB031EE032DC02D8011DC50B816EB450CF856ABD8261680DAC74F72165BD2 DUP2 PUSH1 0x40 MLOAD PUSH2 0x3B8 SWAP2 SWAP1 PUSH2 0x1832 JUMP JUMPDEST PUSH1 0x40 MLOAD DUP1 SWAP2 SUB SWAP1 LOG1 POP JUMP JUMPDEST PUSH1 0x1 DUP1 SLOAD EQ PUSH2 0x407 JUMPI PUSH1 0x40 MLOAD PUSH32 0x8C379A000000000000000000000000000000000000000000000000000000000 DUP2 MSTORE PUSH1 0x4 ADD PUSH2 0x3FE SWAP1 PUSH2 0x198A JUMP JUMPDEST PUSH1 0x40 MLOAD DUP1 SWAP2 SUB SWAP1 REVERT JUMPDEST PUSH1 0x2 PUSH1 0x1 DUP2 SWAP1 SSTORE POP PUSH1 0x2 PUSH0 SWAP1 SLOAD SWAP1 PUSH2 0x100 EXP SWAP1 DIV PUSH1 0xFF AND ISZERO PUSH2 0x45E JUMPI PUSH1 0x40 MLOAD PUSH32 0x8C379A000000000000000000000000000000000000000000000000000000000 DUP2 MSTORE PUSH1 0x4 ADD PUSH2 0x455 SWAP1 PUSH2 0x19F2 JUMP JUMPDEST PUSH1 0x40 MLOAD DUP1 SWAP2 SUB SWAP1 REVERT JUMPDEST PUSH1 0x3 DUP2 PUSH1 0xFF AND LT PUSH2 0x4A4 JUMPI PUSH1 0x40 MLOAD PUSH32 0x8C379A000000000000000000000000000000000000000000000000000000000 DUP2 MSTORE PUSH1 0x4 ADD PUSH2 0x49B SWAP1 PUSH2 0x1A5A JUMP JUMPDEST PUSH1 0x40 MLOAD DUP1 SWAP2 SUB SWAP1 REVERT JUMPDEST PUSH0 CALLVALUE SWAP1 POP PUSH0 DUP2 GT DUP1 ISZERO PUSH2 0x4B9 JUMPI POP PUSH1 0x3 SLOAD DUP2 GT ISZERO JUMPDEST PUSH2 0x4F8 JUMPI PUSH1 0x40 MLOAD PUSH32 0x8C379A000000000000000000000000000000000000000000000000000000000 DUP2 MSTORE PUSH1 0x4 ADD PUSH2 0x4EF SWAP1 PUSH2 0x1AC2 JUMP JUMPDEST PUSH1 0x40 MLOAD DUP1 SWAP2 SUB SWAP1 REVERT JUMPDEST PUSH0 PUSH2 0x503 PUSH1 0x3 PUSH2 0x140A JUMP JUMPDEST SWAP1 POP PUSH0 DUP4 PUSH1 0xFF AND DUP3 PUSH1 0xFF AND EQ SWAP1 POP DUP1 ISZERO PUSH2 0x5C2 JUMPI PUSH2 0x52C PUSH1 0x2 DUP5 PUSH2 0x527 SWAP2 SWAP1 PUSH2 0x1B0D JUMP JUMPDEST PUSH2 0x1460 JUMP JUMPDEST PUSH1 0x5 PUSH0 SWAP1 SLOAD SWAP1 PUSH2 0x100 EXP SWAP1 DIV PUSH20 0xFFFFFFFFFFFFFFFFFFFFFFFFFFFFFFFFFFFFFFFF AND PUSH20 0xFFFFFFFFFFFFFFFFFFFFFFFFFFFFFFFFFFFFFFFF AND PUSH4 0xC4076876 CALLER PUSH1 0x2 DUP7 PUSH2 0x577 SWAP2 SWAP1 PUSH2 0x1B0D JUMP JUMPDEST PUSH1 0x40 MLOAD DUP4 PUSH4 0xFFFFFFFF AND PUSH1 0xE0 SHL DUP2 MSTORE PUSH1 0x4 ADD PUSH2 0x594 SWAP3 SWAP2 SWAP1 PUSH2 0x1B5D JUMP JUMPDEST PUSH0 PUSH1 0x40 MLOAD DUP1 DUP4 SUB DUP2 PUSH0 DUP8 DUP1 EXTCODESIZE ISZERO DUP1 ISZERO PUSH2 0x5AB JUMPI PUSH0 DUP1 REVERT JUMPDEST POP GAS CALL ISZERO DUP1 ISZERO PUSH2 0x5BD JUMPI RETURNDATASIZE PUSH0 DUP1 RETURNDATACOPY RETURNDATASIZE PUSH0 REVERT JUMPDEST POP POP POP POP JUMPDEST CALLER PUSH20 0xFFFFFFFFFFFFFFFFFFFFFFFFFFFFFFFFFFFFFFFF AND PUSH32 0xF8F3C747B75419BD578197D83F20823BB034BCDF041645C86BCFC9D97263A89E DUP5 DUP4 DUP6 DUP9 PUSH1 0x40 MLOAD PUSH2 0x60E SWAP5 SWAP4 SWAP3 SWAP2 SWAP1 PUSH2 0x1B93 JUMP JUMPDEST PUSH1 0x40 MLOAD DUP1 SWAP2 SUB SWAP1 LOG2 PUSH0 PUSH20 0xFFFFFFFFFFFFFFFFFFFFFFFFFFFFFFFFFFFFFFFF AND PUSH1 0x5 PUSH0 SWAP1 SLOAD SWAP1 PUSH2 0x100 EXP SWAP1 DIV PUSH20 0xFFFFFFFFFFFFFFFFFFFFFFFFFFFFFFFFFFFFFFFF AND PUSH20 0xFFFFFFFFFFFFFFFFFFFFFFFFFFFFFFFFFFFFFFFF AND EQ PUSH2 0x735 JUMPI PUSH0 PUSH1 0x5 PUSH0 SWAP1 SLOAD SWAP1 PUSH2 0x100 EXP SWAP1 DIV PUSH20 0xFFFFFFFFFFFFFFFFFFFFFFFFFFFFFFFFFFFFFFFF AND PUSH20 0xFFFFFFFFFFFFFFFFFFFFFFFFFFFFFFFFFFFFFFFF AND DUP5 PUSH1 0x40 MLOAD PUSH2 0x6B0 SWAP1 PUSH2 0x1C03 JUMP JUMPDEST PUSH0 PUSH1 0x40 MLOAD DUP1 DUP4 SUB DUP2 DUP6 DUP8 GAS CALL SWAP3 POP POP POP RETURNDATASIZE DUP1 PUSH0 DUP2 EQ PUSH2 0x6EA JUMPI PUSH1 0x40 MLOAD SWAP2 POP PUSH1 0x1F NOT PUSH1 0x3F RETURNDATASIZE ADD AND DUP3 ADD PUSH1 0x40 MSTORE RETURNDATASIZE DUP3 MSTORE RETURNDATASIZE PUSH0 PUSH1 0x20 DUP5 ADD RETURNDATACOPY PUSH2 0x6EF JUMP JUMPDEST PUSH1 0x60 SWAP2 POP JUMPDEST POP POP SWAP1 POP DUP1 PUSH2 0x733 JUMPI PUSH1 0x40 MLOAD PUSH32 0x8C379A000000000000000000000000000000000000000000000000000000000 DUP2 MSTORE PUSH1 0x4 ADD PUSH2 0x72A SWAP1 PUSH2 0x1C61 JUMP JUMPDEST PUSH1 0x40 MLOAD DUP1 SWAP2 SUB SWAP1 REVERT JUMPDEST POP JUMPDEST POP POP POP PUSH1 0x1 DUP1 DUP2 SWAP1 SSTORE POP POP JUMP JUMPDEST PUSH1 0x5 PUSH0 SWAP1 SLOAD SWAP1 PUSH2 0x100 EXP SWAP1 DIV PUSH20 0xFFFFFFFFFFFFFFFFFFFFFFFFFFFFFFFFFFFFFFFF AND DUP2 JUMP JUMPDEST PUSH1 0x3 SLOAD DUP2 JUMP JUMPDEST PUSH0 DUP1 SLOAD SWAP1 PUSH2 0x100 EXP SWAP1 DIV PUSH20 0xFFFFFFFFFFFFFFFFFFFFFFFFFFFFFFFFFFFFFFFF AND PUSH20 0xFFFFFFFFFFFFFFFFFFFFFFFFFFFFFFFFFFFFFFFF AND CALLER PUSH20 0xFFFFFFFFFFFFFFFFFFFFFFFFFFFFFFFFFFFFFFFF AND EQ PUSH2 0x7FA JUMPI PUSH1 0x40 MLOAD PUSH32 0x8C379A000000000000000000000000000000000000000000000000000000000 DUP2 MSTORE PUSH1 0x4 ADD PUSH2 0x7F1 SWAP1 PUSH2 0x1922 JUMP JUMPDEST PUSH1 0x40 MLOAD DUP1 SWAP2 SUB SWAP1 REVERT JUMPDEST PUSH0 PUSH20 0xFFFFFFFFFFFFFFFFFFFFFFFFFFFFFFFFFFFFFFFF AND DUP2 PUSH20 0xFFFFFFFFFFFFFFFFFFFFFFFFFFFFFFFFFFFFFFFF AND SUB PUSH2 0x868 JUMPI PUSH1 0x40 MLOAD PUSH32 0x8C379A000000000000000000000000000000000000000000000000000000000 DUP2 MSTORE PUSH1 0x4 ADD PUSH2 0x85F SWAP1 PUSH2 0x1CC9 JUMP JUMPDEST PUSH1 0x40 MLOAD DUP1 SWAP2 SUB SWAP1 REVERT JUMPDEST DUP1 PUSH1 0x5 PUSH0 PUSH2 0x100 EXP DUP2 SLOAD DUP2 PUSH20 0xFFFFFFFFFFFFFFFFFFFFFFFFFFFFFFFFFFFFFFFF MUL NOT AND SWAP1 DUP4 PUSH20 0xFFFFFFFFFFFFFFFFFFFFFFFFFFFFFFFFFFFFFFFF AND MUL OR SWAP1 SSTORE POP DUP1 PUSH20 0xFFFFFFFFFFFFFFFFFFFFFFFFFFFFFFFFFFFFFFFF AND PUSH32 0x380CEC482764DDEF4F75351B5398E3E2BEA99BA23E53A00D5521F569FB668E1F PUSH1 0x40 MLOAD PUSH1 0x40 MLOAD DUP1 SWAP2 SUB SWAP1 LOG2 POP JUMP JUMPDEST PUSH0 DUP1 SLOAD SWAP1 PUSH2 0x100 EXP SWAP1 DIV PUSH20 0xFFFFFFFFFFFFFFFFFFFFFFFFFFFFFFFFFFFFFFFF AND PUSH20 0xFFFFFFFFFFFFFFFFFFFFFFFFFFFFFFFFFFFFFFFF AND CALLER PUSH20 0xFFFFFFFFFFFFFFFFFFFFFFFFFFFFFFFFFFFFFFFF AND EQ PUSH2 0x97B JUMPI PUSH1 0x40 MLOAD PUSH32 0x8C379A000000000000000000000000000000000000000000000000000000000 DUP2 MSTORE PUSH1 0x4 ADD PUSH2 0x972 SWAP1 PUSH2 0x1922 JUMP JUMPDEST PUSH1 0x40 MLOAD DUP1 SWAP2 SUB SWAP1 REVERT JUMPDEST DUP1 PUSH20 0xFFFFFFFFFFFFFFFFFFFFFFFFFFFFFFFFFFFFFFFF AND PUSH2 0x8FC SELFBALANCE SWAP1 DUP2 ISZERO MUL SWAP1 PUSH1 0x40 MLOAD PUSH0 PUSH1 0x40 MLOAD DUP1 DUP4 SUB DUP2 DUP6 DUP9 DUP9 CALL SWAP4 POP POP POP POP ISZERO DUP1 ISZERO PUSH2 0x9BE JUMPI RETURNDATASIZE PUSH0 DUP1 RETURNDATACOPY RETURNDATASIZE PUSH0 REVERT JUMPDEST POP POP JUMP JUMPDEST PUSH1 0x2 PUSH0 SWAP1 SLOAD SWAP1 PUSH2 0x100 EXP SWAP1 DIV PUSH1 0xFF AND DUP2 JUMP JUMPDEST PUSH0 DUP1 SLOAD SWAP1 PUSH2 0x100 EXP SWAP1 DIV PUSH20 0xFFFFFFFFFFFFFFFFFFFFFFFFFFFFFFFFFFFFFFFF AND PUSH20 0xFFFFFFFFFFFFFFFFFFFFFFFFFFFFFFFFFFFFFFFF AND CALLER PUSH20 0xFFFFFFFFFFFFFFFFFFFFFFFFFFFFFFFFFFFFFFFF AND EQ PUSH2 0xA61 JUMPI PUSH1 0x40 MLOAD PUSH32 0x8C379A000000000000000000000000000000000000000000000000000000000 DUP2 MSTORE PUSH1 0x4 ADD PUSH2 0xA58 SWAP1 PUSH2 0x1922 JUMP JUMPDEST PUSH1 0x40 MLOAD DUP1 SWAP2 SUB SWAP1 REVERT JUMPDEST DUP1 PUSH1 0x3 DUP2 SWAP1 SSTORE POP POP JUMP JUMPDEST PUSH0 DUP1 SLOAD SWAP1 PUSH2 0x100 EXP SWAP1 DIV PUSH20 0xFFFFFFFFFFFFFFFFFFFFFFFFFFFFFFFFFFFFFFFF AND DUP2 JUMP JUMPDEST PUSH1 0x1 DUP1 SLOAD EQ PUSH2 0xAD2 JUMPI PUSH1 0x40 MLOAD PUSH32 0x8C379A000000000000000000000000000000000000000000000000000000000 DUP2 MSTORE PUSH1 0x4 ADD PUSH2 0xAC9 SWAP1 PUSH2 0x198A JUMP JUMPDEST PUSH1 0x40 MLOAD DUP1 SWAP2 SUB SWAP1 REVERT JUMPDEST PUSH1 0x2 PUSH1 0x1 DUP2 SWAP1 SSTORE POP PUSH1 0x2 PUSH0 SWAP1 SLOAD SWAP1 PUSH2 0x100 EXP SWAP1 DIV PUSH1 0xFF AND ISZERO PUSH2 0xB29 JUMPI PUSH1 0x40 MLOAD PUSH32 0x8C379A000000000000000000000000000000000000000000000000000000000 DUP2 MSTORE PUSH1 0x4 ADD PUSH2 0xB20 SWAP1 PUSH2 0x19F2 JUMP JUMPDEST PUSH1 0x40 MLOAD DUP1 SWAP2 SUB SWAP1 REVERT JUMPDEST PUSH1 0x5 DUP2 PUSH1 0xFF AND LT ISZERO DUP1 ISZERO PUSH2 0xB41 JUMPI POP PUSH1 0x9 DUP2 PUSH1 0xFF AND GT ISZERO JUMPDEST PUSH2 0xB80 JUMPI PUSH1 0x40 MLOAD PUSH32 0x8C379A000000000000000000000000000000000000000000000000000000000 DUP2 MSTORE PUSH1 0x4 ADD PUSH2 0xB77 SWAP1 PUSH2 0x1D31 JUMP JUMPDEST PUSH1 0x40 MLOAD DUP1 SWAP2 SUB SWAP1 REVERT JUMPDEST PUSH0 CALLVALUE SWAP1 POP PUSH0 DUP2 GT DUP1 ISZERO PUSH2 0xB95 JUMPI POP PUSH1 0x3 SLOAD DUP2 GT ISZERO JUMPDEST PUSH2 0xBD4 JUMPI PUSH1 0x40 MLOAD PUSH32 0x8C379A000000000000000000000000000000000000000000000000000000000 DUP2 MSTORE PUSH1 0x4 ADD PUSH2 0xBCB SWAP1 PUSH2 0x1AC2 JUMP JUMPDEST PUSH1 0x40 MLOAD DUP1 SWAP2 SUB SWAP1 REVERT JUMPDEST PUSH0 PUSH2 0xBDD PUSH2 0x1588 JUMP JUMPDEST SWAP1 POP PUSH0 DUP1 PUSH1 0x1 SWAP1 POP PUSH0 DUP6 PUSH1 0xFF AND DUP5 PUSH1 0xFF AND SUB PUSH2 0xBFC JUMPI PUSH1 0x1 SWAP1 POP PUSH2 0xCDD JUMP JUMPDEST PUSH1 0x2 DUP5 PUSH1 0xFF AND EQ DUP1 PUSH2 0xC11 JUMPI POP PUSH1 0x3 DUP5 PUSH1 0xFF AND EQ JUMPDEST ISZERO PUSH2 0xC1E JUMPI PUSH0 SWAP1 POP PUSH2 0xCDC JUMP JUMPDEST PUSH1 0xB DUP5 PUSH1 0xFF AND EQ DUP1 PUSH2 0xC33 JUMPI POP PUSH1 0xC DUP5 PUSH1 0xFF AND EQ JUMPDEST ISZERO PUSH2 0xC78 JUMPI PUSH1 0x7 DUP7 PUSH1 0xFF AND SUB PUSH2 0xC4B JUMPI PUSH0 SWAP1 POP PUSH2 0xC73 JUMP JUMPDEST PUSH1 0x5 DUP7 PUSH1 0xFF AND EQ DUP1 PUSH2 0xC60 JUMPI POP PUSH1 0x9 DUP7 PUSH1 0xFF AND EQ JUMPDEST ISZERO PUSH2 0xC6E JUMPI PUSH1 0x1 SWAP1 POP PUSH2 0xC72 JUMP JUMPDEST PUSH0 SWAP1 POP JUMPDEST JUMPDEST PUSH2 0xCDB JUMP JUMPDEST DUP4 SWAP3 POP PUSH0 JUMPDEST PUSH1 0x40 DUP2 PUSH1 0xFF AND LT ISZERO PUSH2 0xCD9 JUMPI PUSH2 0xC91 PUSH2 0x1588 JUMP JUMPDEST SWAP5 POP DUP3 DUP1 PUSH2 0xC9E SWAP1 PUSH2 0x1D4F JUMP JUMPDEST SWAP4 POP POP DUP4 PUSH1 0xFF AND DUP6 PUSH1 0xFF AND SUB PUSH2 0xCB7 JUMPI PUSH1 0x1 SWAP2 POP PUSH2 0xCD9 JUMP JUMPDEST DUP7 PUSH1 0xFF AND DUP6 PUSH1 0xFF AND SUB PUSH2 0xCCC JUMPI PUSH0 SWAP2 POP PUSH2 0xCD9 JUMP JUMPDEST DUP1 DUP1 PUSH1 0x1 ADD SWAP2 POP POP PUSH2 0xC7D JUMP JUMPDEST POP JUMPDEST JUMPDEST JUMPDEST DUP1 ISZERO PUSH2 0xD8E JUMPI PUSH2 0xCF8 PUSH1 0x2 DUP7 PUSH2 0xCF3 SWAP2 SWAP1 PUSH2 0x1B0D JUMP JUMPDEST PUSH2 0x1460 JUMP JUMPDEST PUSH1 0x5 PUSH0 SWAP1 SLOAD SWAP1 PUSH2 0x100 EXP SWAP1 DIV PUSH20 0xFFFFFFFFFFFFFFFFFFFFFFFFFFFFFFFFFFFFFFFF AND PUSH20 0xFFFFFFFFFFFFFFFFFFFFFFFFFFFFFFFFFFFFFFFF AND PUSH4 0xC4076876 CALLER PUSH1 0x2 DUP9 PUSH2 0xD43 SWAP2 SWAP1 PUSH2 0x1B0D JUMP JUMPDEST PUSH1 0x40 MLOAD DUP4 PUSH4 0xFFFFFFFF AND PUSH1 0xE0 SHL DUP2 MSTORE PUSH1 0x4 ADD PUSH2 0xD60 SWAP3 SWAP2 SWAP1 PUSH2 0x1B5D JUMP JUMPDEST PUSH0 PUSH1 0x40 MLOAD DUP1 DUP4 SUB DUP2 PUSH0 DUP8 DUP1 EXTCODESIZE ISZERO DUP1 ISZERO PUSH2 0xD77 JUMPI PUSH0 DUP1 REVERT JUMPDEST POP GAS CALL ISZERO DUP1 ISZERO PUSH2 0xD89 JUMPI RETURNDATASIZE PUSH0 DUP1 RETURNDATACOPY RETURNDATASIZE PUSH0 REVERT JUMPDEST POP POP POP POP JUMPDEST CALLER PUSH20 0xFFFFFFFFFFFFFFFFFFFFFFFFFFFFFFFFFFFFFFFF AND PUSH32 0x5A08ED90CB799D1B0281213096FC06CD7E7AB84F1E2E4B8947282B4F3712B4C6 DUP7 DUP4 DUP10 DUP9 DUP9 DUP9 PUSH1 0x40 MLOAD PUSH2 0xDDE SWAP7 SWAP6 SWAP5 SWAP4 SWAP3 SWAP2 SWAP1 PUSH2 0x1D77 JUMP JUMPDEST PUSH1 0x40 MLOAD DUP1 SWAP2 SUB SWAP1 LOG2 PUSH0 PUSH20 0xFFFFFFFFFFFFFFFFFFFFFFFFFFFFFFFFFFFFFFFF AND PUSH1 0x5 PUSH0 SWAP1 SLOAD SWAP1 PUSH2 0x100 EXP SWAP1 DIV PUSH20 0xFFFFFFFFFFFFFFFFFFFFFFFFFFFFFFFFFFFFFFFF AND PUSH20 0xFFFFFFFFFFFFFFFFFFFFFFFFFFFFFFFFFFFFFFFF AND EQ PUSH2 0xF05 JUMPI PUSH0 PUSH1 0x5 PUSH0 SWAP1 SLOAD SWAP1 PUSH2 0x100 EXP SWAP1 DIV PUSH20 0xFFFFFFFFFFFFFFFFFFFFFFFFFFFFFFFFFFFFFFFF AND PUSH20 0xFFFFFFFFFFFFFFFFFFFFFFFFFFFFFFFFFFFFFFFF AND DUP7 PUSH1 0x40 MLOAD PUSH2 0xE80 SWAP1 PUSH2 0x1C03 JUMP JUMPDEST PUSH0 PUSH1 0x40 MLOAD DUP1 DUP4 SUB DUP2 DUP6 DUP8 GAS CALL SWAP3 POP POP POP RETURNDATASIZE DUP1 PUSH0 DUP2 EQ PUSH2 0xEBA JUMPI PUSH1 0x40 MLOAD SWAP2 POP PUSH1 0x1F NOT PUSH1 0x3F RETURNDATASIZE ADD AND DUP3 ADD PUSH1 0x40 MSTORE RETURNDATASIZE DUP3 MSTORE RETURNDATASIZE PUSH0 PUSH1 0x20 DUP5 ADD RETURNDATACOPY PUSH2 0xEBF JUMP JUMPDEST PUSH1 0x60 SWAP2 POP JUMPDEST POP POP SWAP1 POP DUP1 PUSH2 0xF03 JUMPI PUSH1 0x40 MLOAD PUSH32 0x8C379A000000000000000000000000000000000000000000000000000000000 DUP2 MSTORE PUSH1 0x4 ADD PUSH2 0xEFA SWAP1 PUSH2 0x1C61 JUMP JUMPDEST PUSH1 0x40 MLOAD DUP1 SWAP2 SUB SWAP1 REVERT JUMPDEST POP JUMPDEST POP POP POP POP POP PUSH1 0x1 DUP1 DUP2 SWAP1 SSTORE POP POP JUMP JUMPDEST PUSH1 0x4 SLOAD DUP2 JUMP JUMPDEST JUMP JUMPDEST PUSH1 0x1 DUP1 SLOAD EQ PUSH2 0xF60 JUMPI PUSH1 0x40 MLOAD PUSH32 0x8C379A000000000000000000000000000000000000000000000000000000000 DUP2 MSTORE PUSH1 0x4 ADD PUSH2 0xF57 SWAP1 PUSH2 0x198A JUMP JUMPDEST PUSH1 0x40 MLOAD DUP1 SWAP2 SUB SWAP1 REVERT JUMPDEST PUSH1 0x2 PUSH1 0x1 DUP2 SWAP1 SSTORE POP PUSH1 0x2 PUSH0 SWAP1 SLOAD SWAP1 PUSH2 0x100 EXP SWAP1 DIV PUSH1 0xFF AND ISZERO PUSH2 0xFB7 JUMPI PUSH1 0x40 MLOAD PUSH32 0x8C379A000000000000000000000000000000000000000000000000000000000 DUP2 MSTORE PUSH1 0x4 ADD PUSH2 0xFAE SWAP1 PUSH2 0x19F2 JUMP JUMPDEST PUSH1 0x40 MLOAD DUP1 SWAP2 SUB SWAP1 REVERT JUMPDEST PUSH0 CALLVALUE SWAP1 POP PUSH0 DUP2 GT DUP1 ISZERO PUSH2 0xFCC JUMPI POP PUSH1 0x3 SLOAD DUP2 GT ISZERO JUMPDEST PUSH2 0x100B JUMPI PUSH1 0x40 MLOAD PUSH32 0x8C379A000000000000000000000000000000000000000000000000000000000 DUP2 MSTORE PUSH1 0x4 ADD PUSH2 0x1002 SWAP1 PUSH2 0x1AC2 JUMP JUMPDEST PUSH1 0x40 MLOAD DUP1 SWAP2 SUB SWAP1 REVERT JUMPDEST PUSH0 PUSH1 0x1 PUSH2 0x1018 PUSH1 0x2 PUSH2 0x140A JUMP JUMPDEST EQ SWAP1 POP PUSH0 DUP4 ISZERO ISZERO DUP3 ISZERO ISZERO EQ SWAP1 POP DUP1 ISZERO PUSH2 0x10D6 JUMPI PUSH2 0x1040 PUSH1 0x2 DUP5 PUSH2 0x103B SWAP2 SWAP1 PUSH2 0x1B0D JUMP JUMPDEST PUSH2 0x1460 JUMP JUMPDEST PUSH1 0x5 PUSH0 SWAP1 SLOAD SWAP1 PUSH2 0x100 EXP SWAP1 DIV PUSH20 0xFFFFFFFFFFFFFFFFFFFFFFFFFFFFFFFFFFFFFFFF AND PUSH20 0xFFFFFFFFFFFFFFFFFFFFFFFFFFFFFFFFFFFFFFFF AND PUSH4 0xC4076876 CALLER PUSH1 0x2 DUP7 PUSH2 0x108B SWAP2 SWAP1 PUSH2 0x1B0D JUMP JUMPDEST PUSH1 0x40 MLOAD DUP4 PUSH4 0xFFFFFFFF AND PUSH1 0xE0 SHL DUP2 MSTORE PUSH1 0x4 ADD PUSH2 0x10A8 SWAP3 SWAP2 SWAP1 PUSH2 0x1B5D JUMP JUMPDEST PUSH0 PUSH1 0x40 MLOAD DUP1 DUP4 SUB DUP2 PUSH0 DUP8 DUP1 EXTCODESIZE ISZERO DUP1 ISZERO PUSH2 0x10BF JUMPI PUSH0 DUP1 REVERT JUMPDEST POP GAS CALL ISZERO DUP1 ISZERO PUSH2 0x10D1 JUMPI RETURNDATASIZE PUSH0 DUP1 RETURNDATACOPY RETURNDATASIZE PUSH0 REVERT JUMPDEST POP POP POP POP JUMPDEST CALLER PUSH20 0xFFFFFFFFFFFFFFFFFFFFFFFFFFFFFFFFFFFFFFFF AND PUSH32 0xE4E7F0A0E6FC393A5AF5B89EE2FE9A7267A850BBCC8EC0E4571F51A17ED1D97E DUP5 DUP4 DUP6 PUSH1 0x40 MLOAD PUSH2 0x1120 SWAP4 SWAP3 SWAP2 SWAP1 PUSH2 0x1DD6 JUMP JUMPDEST PUSH1 0x40 MLOAD DUP1 SWAP2 SUB SWAP1 LOG2 PUSH0 PUSH20 0xFFFFFFFFFFFFFFFFFFFFFFFFFFFFFFFFFFFFFFFF AND PUSH1 0x5 PUSH0 SWAP1 SLOAD SWAP1 PUSH2 0x100 EXP SWAP1 DIV PUSH20 0xFFFFFFFFFFFFFFFFFFFFFFFFFFFFFFFFFFFFFFFF AND PUSH20 0xFFFFFFFFFFFFFFFFFFFFFFFFFFFFFFFFFFFFFFFF AND EQ PUSH2 0x1247 JUMPI PUSH0 PUSH1 0x5 PUSH0 SWAP1 SLOAD SWAP1 PUSH2 0x100 EXP SWAP1 DIV PUSH20 0xFFFFFFFFFFFFFFFFFFFFFFFFFFFFFFFFFFFFFFFF AND PUSH20 0xFFFFFFFFFFFFFFFFFFFFFFFFFFFFFFFFFFFFFFFF AND DUP5 PUSH1 0x40 MLOAD PUSH2 0x11C2 SWAP1 PUSH2 0x1C03 JUMP JUMPDEST PUSH0 PUSH1 0x40 MLOAD DUP1 DUP4 SUB DUP2 DUP6 DUP8 GAS CALL SWAP3 POP POP POP RETURNDATASIZE DUP1 PUSH0 DUP2 EQ PUSH2 0x11FC JUMPI PUSH1 0x40 MLOAD SWAP2 POP PUSH1 0x1F NOT PUSH1 0x3F RETURNDATASIZE ADD AND DUP3 ADD PUSH1 0x40 MSTORE RETURNDATASIZE DUP3 MSTORE RETURNDATASIZE PUSH0 PUSH1 0x20 DUP5 ADD RETURNDATACOPY PUSH2 0x1201 JUMP JUMPDEST PUSH1 0x60 SWAP2 POP JUMPDEST POP POP SWAP1 POP DUP1 PUSH2 0x1245 JUMPI PUSH1 0x40 MLOAD PUSH32 0x8C379A000000000000000000000000000000000000000000000000000000000 DUP2 MSTORE PUSH1 0x4 ADD PUSH2 0x123C SWAP1 PUSH2 0x1C61 JUMP JUMPDEST PUSH1 0x40 MLOAD DUP1 SWAP2 SUB SWAP1 REVERT JUMPDEST POP JUMPDEST POP POP POP PUSH1 0x1 DUP1 DUP2 SWAP1 SSTORE POP POP JUMP JUMPDEST PUSH0 DUP1 SLOAD SWAP1 PUSH2 0x100 EXP SWAP1 DIV PUSH20 0xFFFFFFFFFFFFFFFFFFFFFFFFFFFFFFFFFFFFFFFF AND PUSH20 0xFFFFFFFFFFFFFFFFFFFFFFFFFFFFFFFFFFFFFFFF AND CALLER PUSH20 0xFFFFFFFFFFFFFFFFFFFFFFFFFFFFFFFFFFFFFFFF AND EQ PUSH2 0x12E1 JUMPI PUSH1 0x40 MLOAD PUSH32 0x8C379A000000000000000000000000000000000000000000000000000000000 DUP2 MSTORE PUSH1 0x4 ADD PUSH2 0x12D8 SWAP1 PUSH2 0x1922 JUMP JUMPDEST PUSH1 0x40 MLOAD DUP1 SWAP2 SUB SWAP1 REVERT JUMPDEST PUSH0 PUSH20 0xFFFFFFFFFFFFFFFFFFFFFFFFFFFFFFFFFFFFFFFF AND DUP2 PUSH20 0xFFFFFFFFFFFFFFFFFFFFFFFFFFFFFFFFFFFFFFFF AND SUB PUSH2 0x134F JUMPI PUSH1 0x40 MLOAD PUSH32 0x8C379A000000000000000000000000000000000000000000000000000000000 DUP2 MSTORE PUSH1 0x4 ADD PUSH2 0x1346 SWAP1 PUSH2 0x1CC9 JUMP JUMPDEST PUSH1 0x40 MLOAD DUP1 SWAP2 SUB SWAP1 REVERT JUMPDEST DUP1 PUSH20 0xFFFFFFFFFFFFFFFFFFFFFFFFFFFFFFFFFFFFFFFF AND PUSH0 DUP1 SLOAD SWAP1 PUSH2 0x100 EXP SWAP1 DIV PUSH20 0xFFFFFFFFFFFFFFFFFFFFFFFFFFFFFFFFFFFFFFFF AND PUSH20 0xFFFFFFFFFFFFFFFFFFFFFFFFFFFFFFFFFFFFFFFF AND PUSH32 0x8BE0079C531659141344CD1FD0A4F28419497F9722A3DAAFE3B4186F6B6457E0 PUSH1 0x40 MLOAD PUSH1 0x40 MLOAD DUP1 SWAP2 SUB SWAP1 LOG3 DUP1 PUSH0 DUP1 PUSH2 0x100 EXP DUP2 SLOAD DUP2 PUSH20 0xFFFFFFFFFFFFFFFFFFFFFFFFFFFFFFFFFFFFFFFF MUL NOT AND SWAP1 DUP4 PUSH20 0xFFFFFFFFFFFFFFFFFFFFFFFFFFFFFFFFFFFFFFFF AND MUL OR SWAP1 SSTORE POP POP JUMP JUMPDEST PUSH0 DUP2 PREVRANDAO TIMESTAMP CALLER PUSH1 0x4 PUSH0 DUP2 SLOAD DUP1 SWAP3 SWAP2 SWAP1 PUSH1 0x1 ADD SWAP2 SWAP1 POP SSTORE PUSH1 0x40 MLOAD PUSH1 0x20 ADD PUSH2 0x1432 SWAP5 SWAP4 SWAP3 SWAP2 SWAP1 PUSH2 0x1E70 JUMP JUMPDEST PUSH1 0x40 MLOAD PUSH1 0x20 DUP2 DUP4 SUB SUB DUP2 MSTORE SWAP1 PUSH1 0x40 MSTORE DUP1 MLOAD SWAP1 PUSH1 0x20 ADD KECCAK256 PUSH0 SHR DUP2 PUSH2 0x1458 JUMPI PUSH2 0x1457 PUSH2 0x1EBD JUMP JUMPDEST JUMPDEST MOD SWAP1 POP SWAP2 SWAP1 POP JUMP JUMPDEST PUSH0 PUSH20 0xFFFFFFFFFFFFFFFFFFFFFFFFFFFFFFFFFFFFFFFF AND PUSH1 0x5 PUSH0 SWAP1 SLOAD SWAP1 PUSH2 0x100 EXP SWAP1 DIV PUSH20 0xFFFFFFFFFFFFFFFFFFFFFFFFFFFFFFFFFFFFFFFF AND PUSH20 0xFFFFFFFFFFFFFFFFFFFFFFFFFFFFFFFFFFFFFFFF AND EQ PUSH2 0x1585 JUMPI DUP1 PUSH1 0x5 PUSH0 SWAP1 SLOAD SWAP1 PUSH2 0x100 EXP SWAP1 DIV PUSH20 0xFFFFFFFFFFFFFFFFFFFFFFFFFFFFFFFFFFFFFFFF AND PUSH20 0xFFFFFFFFFFFFFFFFFFFFFFFFFFFFFFFFFFFFFFFF AND PUSH4 0xB69EF8A8 PUSH1 0x40 MLOAD DUP2 PUSH4 0xFFFFFFFF AND PUSH1 0xE0 SHL DUP2 MSTORE PUSH1 0x4 ADD PUSH1 0x20 PUSH1 0x40 MLOAD DUP1 DUP4 SUB DUP2 DUP7 GAS STATICCALL ISZERO DUP1 ISZERO PUSH2 0x151F JUMPI RETURNDATASIZE PUSH0 DUP1 RETURNDATACOPY RETURNDATASIZE PUSH0 REVERT JUMPDEST POP POP POP POP PUSH1 0x40 MLOAD RETURNDATASIZE PUSH1 0x1F NOT PUSH1 0x1F DUP3 ADD AND DUP3 ADD DUP1 PUSH1 0x40 MSTORE POP DUP2 ADD SWAP1 PUSH2 0x1543 SWAP2 SWAP1 PUSH2 0x1EFE JUMP JUMPDEST LT ISZERO PUSH2 0x1584 JUMPI PUSH1 0x40 MLOAD PUSH32 0x8C379A000000000000000000000000000000000000000000000000000000000 DUP2 MSTORE PUSH1 0x4 ADD PUSH2 0x157B SWAP1 PUSH2 0x1F73 JUMP JUMPDEST PUSH1 0x40 MLOAD DUP1 SWAP2 SUB SWAP1 REVERT JUMPDEST JUMPDEST POP JUMP JUMPDEST PUSH0 DUP1 PUSH1 0x1 PUSH2 0x1596 PUSH1 0x6 PUSH2 0x140A JUMP JUMPDEST PUSH2 0x15A0 SWAP2 SWAP1 PUSH2 0x1F91 JUMP JUMPDEST SWAP1 POP PUSH0 PUSH1 0x1 PUSH2 0x15AF PUSH1 0x6 PUSH2 0x140A JUMP JUMPDEST PUSH2 0x15B9 SWAP2 SWAP1 PUSH2 0x1F91 JUMP JUMPDEST SWAP1 POP DUP1 DUP3 PUSH2 0x15C7 SWAP2 SWAP1 PUSH2 0x1FC4 JUMP JUMPDEST SWAP3 POP POP POP SWAP1 JUMP JUMPDEST PUSH0 DUP1 REVERT JUMPDEST PUSH0 DUP2 ISZERO ISZERO SWAP1 POP SWAP2 SWAP1 POP JUMP JUMPDEST PUSH2 0x15E6 DUP2 PUSH2 0x15D2 JUMP JUMPDEST DUP2 EQ PUSH2 0x15F0 JUMPI PUSH0 DUP1 REVERT JUMPDEST POP JUMP JUMPDEST PUSH0 DUP2 CALLDATALOAD SWAP1 POP PUSH2 0x1601 DUP2 PUSH2 0x15DD JUMP JUMPDEST SWAP3 SWAP2 POP POP JUMP JUMPDEST PUSH0 PUSH1 0x20 DUP3 DUP5 SUB SLT ISZERO PUSH2 0x161C JUMPI PUSH2 0x161B PUSH2 0x15CE JUMP JUMPDEST JUMPDEST PUSH0 PUSH2 0x1629 DUP5 DUP3 DUP6 ADD PUSH2 0x15F3 JUMP JUMPDEST SWAP2 POP POP SWAP3 SWAP2 POP POP JUMP JUMPDEST PUSH0 PUSH1 0xFF DUP3 AND SWAP1 POP SWAP2 SWAP1 POP JUMP JUMPDEST PUSH2 0x1647 DUP2 PUSH2 0x1632 JUMP JUMPDEST DUP2 EQ PUSH2 0x1651 JUMPI PUSH0 DUP1 REVERT JUMPDEST POP JUMP JUMPDEST PUSH0 DUP2 CALLDATALOAD SWAP1 POP PUSH2 0x1662 DUP2 PUSH2 0x163E JUMP JUMPDEST SWAP3 SWAP2 POP POP JUMP JUMPDEST PUSH0 PUSH1 0x20 DUP3 DUP5 SUB SLT ISZERO PUSH2 0x167D JUMPI PUSH2 0x167C PUSH2 0x15CE JUMP JUMPDEST JUMPDEST PUSH0 PUSH2 0x168A DUP5 DUP3 DUP6 ADD PUSH2 0x1654 JUMP JUMPDEST SWAP2 POP POP SWAP3 SWAP2 POP POP JUMP JUMPDEST PUSH0 PUSH20 0xFFFFFFFFFFFFFFFFFFFFFFFFFFFFFFFFFFFFFFFF DUP3 AND SWAP1 POP SWAP2 SWAP1 POP JUMP JUMPDEST PUSH0 DUP2 SWAP1 POP SWAP2 SWAP1 POP JUMP JUMPDEST PUSH0 PUSH2 0x16D5 PUSH2 0x16D0 PUSH2 0x16CB DUP5 PUSH2 0x1693 JUMP JUMPDEST PUSH2 0x16B2 JUMP JUMPDEST PUSH2 0x1693 JUMP JUMPDEST SWAP1 POP SWAP2 SWAP1 POP JUMP JUMPDEST PUSH0 PUSH2 0x16E6 DUP3 PUSH2 0x16BB JUMP JUMPDEST SWAP1 POP SWAP2 SWAP1 POP JUMP JUMPDEST PUSH0 PUSH2 0x16F7 DUP3 PUSH2 0x16DC JUMP JUMPDEST SWAP1 POP SWAP2 SWAP1 POP JUMP JUMPDEST PUSH2 0x1707 DUP2 PUSH2 0x16ED JUMP JUMPDEST DUP3 MSTORE POP POP JUMP JUMPDEST PUSH0 PUSH1 0x20 DUP3 ADD SWAP1 POP PUSH2 0x1720 PUSH0 DUP4 ADD DUP5 PUSH2 0x16FE JUMP JUMPDEST SWAP3 SWAP2 POP POP JUMP JUMPDEST PUSH0 DUP2 SWAP1 POP SWAP2 SWAP1 POP JUMP JUMPDEST PUSH2 0x1738 DUP2 PUSH2 0x1726 JUMP JUMPDEST DUP3 MSTORE POP POP JUMP JUMPDEST PUSH0 PUSH1 0x20 DUP3 ADD SWAP1 POP PUSH2 0x1751 PUSH0 DUP4 ADD DUP5 PUSH2 0x172F JUMP JUMPDEST SWAP3 SWAP2 POP POP JUMP JUMPDEST PUSH0 PUSH2 0x1761 DUP3 PUSH2 0x1693 JUMP JUMPDEST SWAP1 POP SWAP2 SWAP1 POP JUMP JUMPDEST PUSH2 0x1771 DUP2 PUSH2 0x1757 JUMP JUMPDEST DUP2 EQ PUSH2 0x177B JUMPI PUSH0 DUP1 REVERT JUMPDEST POP JUMP JUMPDEST PUSH0 DUP2 CALLDATALOAD SWAP1 POP PUSH2 0x178C DUP2 PUSH2 0x1768 JUMP JUMPDEST SWAP3 SWAP2 POP POP JUMP JUMPDEST PUSH0 PUSH1 0x20 DUP3 DUP5 SUB SLT ISZERO PUSH2 0x17A7 JUMPI PUSH2 0x17A6 PUSH2 0x15CE JUMP JUMPDEST JUMPDEST PUSH0 PUSH2 0x17B4 DUP5 DUP3 DUP6 ADD PUSH2 0x177E JUMP JUMPDEST SWAP2 POP POP SWAP3 SWAP2 POP POP JUMP JUMPDEST PUSH0 PUSH2 0x17C7 DUP3 PUSH2 0x1693 JUMP JUMPDEST SWAP1 POP SWAP2 SWAP1 POP JUMP JUMPDEST PUSH2 0x17D7 DUP2 PUSH2 0x17BD JUMP JUMPDEST DUP2 EQ PUSH2 0x17E1 JUMPI PUSH0 DUP1 REVERT JUMPDEST POP JUMP JUMPDEST PUSH0 DUP2 CALLDATALOAD SWAP1 POP PUSH2 0x17F2 DUP2 PUSH2 0x17CE JUMP JUMPDEST SWAP3 SWAP2 POP POP JUMP JUMPDEST PUSH0 PUSH1 0x20 DUP3 DUP5 SUB SLT ISZERO PUSH2 0x180D JUMPI PUSH2 0x180C PUSH2 0x15CE JUMP JUMPDEST JUMPDEST PUSH0 PUSH2 0x181A DUP5 DUP3 DUP6 ADD PUSH2 0x17E4 JUMP JUMPDEST SWAP2 POP POP SWAP3 SWAP2 POP POP JUMP JUMPDEST PUSH2 0x182C DUP2 PUSH2 0x15D2 JUMP JUMPDEST DUP3 MSTORE POP POP JUMP JUMPDEST PUSH0 PUSH1 0x20 DUP3 ADD SWAP1 POP PUSH2 0x1845 PUSH0 DUP4 ADD DUP5 PUSH2 0x1823 JUMP JUMPDEST SWAP3 SWAP2 POP POP JUMP JUMPDEST PUSH2 0x1854 DUP2 PUSH2 0x1726 JUMP JUMPDEST DUP2 EQ PUSH2 0x185E JUMPI PUSH0 DUP1 REVERT JUMPDEST POP JUMP JUMPDEST PUSH0 DUP2 CALLDATALOAD SWAP1 POP PUSH2 0x186F DUP2 PUSH2 0x184B JUMP JUMPDEST SWAP3 SWAP2 POP POP JUMP JUMPDEST PUSH0 PUSH1 0x20 DUP3 DUP5 SUB SLT ISZERO PUSH2 0x188A JUMPI PUSH2 0x1889 PUSH2 0x15CE JUMP JUMPDEST JUMPDEST PUSH0 PUSH2 0x1897 DUP5 DUP3 DUP6 ADD PUSH2 0x1861 JUMP JUMPDEST SWAP2 POP POP SWAP3 SWAP2 POP POP JUMP JUMPDEST PUSH2 0x18A9 DUP2 PUSH2 0x1757 JUMP JUMPDEST DUP3 MSTORE POP POP JUMP JUMPDEST PUSH0 PUSH1 0x20 DUP3 ADD SWAP1 POP PUSH2 0x18C2 PUSH0 DUP4 ADD DUP5 PUSH2 0x18A0 JUMP JUMPDEST SWAP3 SWAP2 POP POP JUMP JUMPDEST PUSH0 DUP3 DUP3 MSTORE PUSH1 0x20 DUP3 ADD SWAP1 POP SWAP3 SWAP2 POP POP JUMP JUMPDEST PUSH32 0x6E6F74206F776E65720000000000000000000000000000000000000000000000 PUSH0 DUP3 ADD MSTORE POP JUMP JUMPDEST PUSH0 PUSH2 0x190C PUSH1 0x9 DUP4 PUSH2 0x18C8 JUMP JUMPDEST SWAP2 POP PUSH2 0x1917 DUP3 PUSH2 0x18D8 JUMP JUMPDEST PUSH1 0x20 DUP3 ADD SWAP1 POP SWAP2 SWAP1 POP JUMP JUMPDEST PUSH0 PUSH1 0x20 DUP3 ADD SWAP1 POP DUP2 DUP2 SUB PUSH0 DUP4 ADD MSTORE PUSH2 0x1939 DUP2 PUSH2 0x1900 JUMP JUMPDEST SWAP1 POP SWAP2 SWAP1 POP JUMP JUMPDEST PUSH32 0x7265656E7472616E740000000000000000000000000000000000000000000000 PUSH0 DUP3 ADD MSTORE POP JUMP JUMPDEST PUSH0 PUSH2 0x1974 PUSH1 0x9 DUP4 PUSH2 0x18C8 JUMP JUMPDEST SWAP2 POP PUSH2 0x197F DUP3 PUSH2 0x1940 JUMP JUMPDEST PUSH1 0x20 DUP3 ADD SWAP1 POP SWAP2 SWAP1 POP JUMP JUMPDEST PUSH0 PUSH1 0x20 DUP3 ADD SWAP1 POP DUP2 DUP2 SUB PUSH0 DUP4 ADD MSTORE PUSH2 0x19A1 DUP2 PUSH2 0x1968 JUMP JUMPDEST SWAP1 POP SWAP2 SWAP1 POP JUMP JUMPDEST PUSH32 0x7061757365640000000000000000000000000000000000000000000000000000 PUSH0 DUP3 ADD MSTORE POP JUMP JUMPDEST PUSH0 PUSH2 0x19DC PUSH1 0x6 DUP4 PUSH2 0x18C8 JUMP JUMPDEST SWAP2 POP PUSH2 0x19E7 DUP3 PUSH2 0x19A8 JUMP JUMPDEST PUSH1 0x20 DUP3 ADD SWAP1 POP SWAP2 SWAP1 POP JUMP JUMPDEST PUSH0 PUSH1 0x20 DUP3 ADD SWAP1 POP DUP2 DUP2 SUB PUSH0 DUP4 ADD MSTORE PUSH2 0x1A09 DUP2 PUSH2 0x19D0 JUMP JUMPDEST SWAP1 POP SWAP2 SWAP1 POP JUMP JUMPDEST PUSH32 0x6261642067756573730000000000000000000000000000000000000000000000 PUSH0 DUP3 ADD MSTORE POP JUMP JUMPDEST PUSH0 PUSH2 0x1A44 PUSH1 0x9 DUP4 PUSH2 0x18C8 JUMP JUMPDEST SWAP2 POP PUSH2 0x1A4F DUP3 PUSH2 0x1A10 JUMP JUMPDEST PUSH1 0x20 DUP3 ADD SWAP1 POP SWAP2 SWAP1 POP JUMP JUMPDEST PUSH0 PUSH1 0x20 DUP3 ADD SWAP1 POP DUP2 DUP2 SUB PUSH0 DUP4 ADD MSTORE PUSH2 0x1A71 DUP2 PUSH2 0x1A38 JUMP JUMPDEST SWAP1 POP SWAP2 SWAP1 POP JUMP JUMPDEST PUSH32 0x6261642077616765720000000000000000000000000000000000000000000000 PUSH0 DUP3 ADD MSTORE POP JUMP JUMPDEST PUSH0 PUSH2 0x1AAC PUSH1 0x9 DUP4 PUSH2 0x18C8 JUMP JUMPDEST SWAP2 POP PUSH2 0x1AB7 DUP3 PUSH2 0x1A78 JUMP JUMPDEST PUSH1 0x20 DUP3 ADD SWAP1 POP SWAP2 SWAP1 POP JUMP JUMPDEST PUSH0 PUSH1 0x20 DUP3 ADD SWAP1 POP DUP2 DUP2 SUB PUSH0 DUP4 ADD MSTORE PUSH2 0x1AD9 DUP2 PUSH2 0x1AA0 JUMP JUMPDEST SWAP1 POP SWAP2 SWAP1 POP JUMP JUMPDEST PUSH32 0x4E487B7100000000000000000000000000000000000000000000000000000000 PUSH0 MSTORE PUSH1 0x11 PUSH1 0x4 MSTORE PUSH1 0x24 PUSH0 REVERT JUMPDEST PUSH0 PUSH2 0x1B17 DUP3 PUSH2 0x1726 JUMP JUMPDEST SWAP2 POP PUSH2 0x1B22 DUP4 PUSH2 0x1726 JUMP JUMPDEST SWAP3 POP DUP3 DUP3 MUL PUSH2 0x1B30 DUP2 PUSH2 0x1726 JUMP JUMPDEST SWAP2 POP DUP3 DUP3 DIV DUP5 EQ DUP4 ISZERO OR PUSH2 0x1B47 JUMPI PUSH2 0x1B46 PUSH2 0x1AE0 JUMP JUMPDEST JUMPDEST POP SWAP3 SWAP2 POP POP JUMP JUMPDEST PUSH2 0x1B57 DUP2 PUSH2 0x17BD JUMP JUMPDEST DUP3 MSTORE POP POP JUMP JUMPDEST PUSH0 PUSH1 0x40 DUP3 ADD SWAP1 POP PUSH2 0x1B70 PUSH0 DUP4 ADD DUP6 PUSH2 0x1B4E JUMP JUMPDEST PUSH2 0x1B7D PUSH1 0x20 DUP4 ADD DUP5 PUSH2 0x172F JUMP JUMPDEST SWAP4 SWAP3 POP POP POP JUMP JUMPDEST PUSH2 0x1B8D DUP2 PUSH2 0x1632 JUMP JUMPDEST DUP3 MSTORE POP POP JUMP JUMPDEST PUSH0 PUSH1 0x80 DUP3 ADD SWAP1 POP PUSH2 0x1BA6 PUSH0 DUP4 ADD DUP8 PUSH2 0x172F JUMP JUMPDEST PUSH2 0x1BB3 PUSH1 0x20 DUP4 ADD DUP7 PUSH2 0x1823 JUMP JUMPDEST PUSH2 0x1BC0 PUSH1 0x40 DUP4 ADD DUP6 PUSH2 0x1B84 JUMP JUMPDEST PUSH2 0x1BCD PUSH1 0x60 DUP4 ADD DUP5 PUSH2 0x1B84 JUMP JUMPDEST SWAP6 SWAP5 POP POP POP POP POP JUMP JUMPDEST PUSH0 DUP2 SWAP1 POP SWAP3 SWAP2 POP POP JUMP JUMPDEST POP JUMP JUMPDEST PUSH0 PUSH2 0x1BEE PUSH0 DUP4 PUSH2 0x1BD6 JUMP JUMPDEST SWAP2 POP PUSH2 0x1BF9 DUP3 PUSH2 0x1BE0 JUMP JUMPDEST PUSH0 DUP3 ADD SWAP1 POP SWAP2 SWAP1 POP JUMP JUMPDEST PUSH0 PUSH2 0x1C0D DUP3 PUSH2 0x1BE3 JUMP JUMPDEST SWAP2 POP DUP2 SWAP1 POP SWAP2 SWAP1 POP JUMP JUMPDEST PUSH32 0x706F6F6C206465706F736974206661696C656400000000000000000000000000 PUSH0 DUP3 ADD MSTORE POP JUMP JUMPDEST PUSH0 PUSH2 0x1C4B PUSH1 0x13 DUP4 PUSH2 0x18C8 JUMP JUMPDEST SWAP2 POP PUSH2 0x1C56 DUP3 PUSH2 0x1C17 JUMP JUMPDEST PUSH1 0x20 DUP3 ADD SWAP1 POP SWAP2 SWAP1 POP JUMP JUMPDEST PUSH0 PUSH1 0x20 DUP3 ADD SWAP1 POP DUP2 DUP2 SUB PUSH0 DUP4 ADD MSTORE PUSH2 0x1C78 DUP2 PUSH2 0x1C3F JUMP JUMPDEST SWAP1 POP SWAP2 SWAP1 POP JUMP JUMPDEST PUSH32 0x7A65726F00000000000000000000000000000000000000000000000000000000 PUSH0 DUP3 ADD MSTORE POP JUMP JUMPDEST PUSH0 PUSH2 0x1CB3 PUSH1 0x4 DUP4 PUSH2 0x18C8 JUMP JUMPDEST SWAP2 POP PUSH2 0x1CBE DUP3 PUSH2 0x1C7F JUMP JUMPDEST PUSH1 0x20 DUP3 ADD SWAP1 POP SWAP2 SWAP1 POP JUMP JUMPDEST PUSH0 PUSH1 0x20 DUP3 ADD SWAP1 POP DUP2 DUP2 SUB PUSH0 DUP4 ADD MSTORE PUSH2 0x1CE0 DUP2 PUSH2 0x1CA7 JUMP JUMPDEST SWAP1 POP SWAP2 SWAP1 POP JUMP JUMPDEST PUSH32 0x626164206D61696E000000000000000000000000000000000000000000000000 PUSH0 DUP3 ADD MSTORE POP JUMP JUMPDEST PUSH0 PUSH2 0x1D1B PUSH1 0x8 DUP4 PUSH2 0x18C8 JUMP JUMPDEST SWAP2 POP PUSH2 0x1D26 DUP3 PUSH2 0x1CE7 JUMP JUMPDEST PUSH1 0x20 DUP3 ADD SWAP1 POP SWAP2 SWAP1 POP JUMP JUMPDEST PUSH0 PUSH1 0x20 DUP3 ADD SWAP1 POP DUP2 DUP2 SUB PUSH0 DUP4 ADD MSTORE PUSH2 0x1D48 DUP2 PUSH2 0x1D0F JUMP JUMPDEST SWAP1 POP SWAP2 SWAP1 POP JUMP JUMPDEST PUSH0 PUSH2 0x1D59 DUP3 PUSH2 0x1632 JUMP JUMPDEST SWAP2 POP PUSH1 0xFF DUP3 SUB PUSH2 0x1D6C JUMPI PUSH2 0x1D6B PUSH2 0x1AE0 JUMP JUMPDEST JUMPDEST PUSH1 0x1 DUP3 ADD SWAP1 POP SWAP2 SWAP1 POP JUMP JUMPDEST PUSH0 PUSH1 0xC0 DUP3 ADD SWAP1 POP PUSH2 0x1D8A PUSH0 DUP4 ADD DUP10 PUSH2 0x172F JUMP JUMPDEST PUSH2 0x1D97 PUSH1 0x20 DUP4 ADD DUP9 PUSH2 0x1823 JUMP JUMPDEST PUSH2 0x1DA4 PUSH1 0x40 DUP4 ADD DUP8 PUSH2 0x1B84 JUMP JUMPDEST PUSH2 0x1DB1 PUSH1 0x60 DUP4 ADD DUP7 PUSH2 0x1B84 JUMP JUMPDEST PUSH2 0x1DBE PUSH1 0x80 DUP4 ADD DUP6 PUSH2 0x1B84 JUMP JUMPDEST PUSH2 0x1DCB PUSH1 0xA0 DUP4 ADD DUP5 PUSH2 0x1B84 JUMP JUMPDEST SWAP8 SWAP7 POP POP POP POP POP POP POP JUMP JUMPDEST PUSH0 PUSH1 0x60 DUP3 ADD SWAP1 POP PUSH2 0x1DE9 PUSH0 DUP4 ADD DUP7 PUSH2 0x172F JUMP JUMPDEST PUSH2 0x1DF6 PUSH1 0x20 DUP4 ADD DUP6 PUSH2 0x1823 JUMP JUMPDEST PUSH2 0x1E03 PUSH1 0x40 DUP4 ADD DUP5 PUSH2 0x1823 JUMP JUMPDEST SWAP5 SWAP4 POP POP POP POP JUMP JUMPDEST PUSH0 DUP2 SWAP1 POP SWAP2 SWAP1 POP JUMP JUMPDEST PUSH2 0x1E25 PUSH2 0x1E20 DUP3 PUSH2 0x1726 JUMP JUMPDEST PUSH2 0x1E0B JUMP JUMPDEST DUP3 MSTORE POP POP JUMP JUMPDEST PUSH0 DUP2 PUSH1 0x60 SHL SWAP1 POP SWAP2 SWAP1 POP JUMP JUMPDEST PUSH0 PUSH2 0x1E41 DUP3 PUSH2 0x1E2B JUMP JUMPDEST SWAP1 POP SWAP2 SWAP1 POP JUMP JUMPDEST PUSH0 PUSH2 0x1E52 DUP3 PUSH2 0x1E37 JUMP JUMPDEST SWAP1 POP SWAP2 SWAP1 POP JUMP JUMPDEST PUSH2 0x1E6A PUSH2 0x1E65 DUP3 PUSH2 0x1757 JUMP JUMPDEST PUSH2 0x1E48 JUMP JUMPDEST DUP3 MSTORE POP POP JUMP JUMPDEST PUSH0 PUSH2 0x1E7B DUP3 DUP8 PUSH2 0x1E14 JUMP JUMPDEST PUSH1 0x20 DUP3 ADD SWAP2 POP PUSH2 0x1E8B DUP3 DUP7 PUSH2 0x1E14 JUMP JUMPDEST PUSH1 0x20 DUP3 ADD SWAP2 POP PUSH2 0x1E9B DUP3 DUP6 PUSH2 0x1E59 JUMP JUMPDEST PUSH1 0x14 DUP3 ADD SWAP2 POP PUSH2 0x1EAB DUP3 DUP5 PUSH2 0x1E14 JUMP JUMPDEST PUSH1 0x20 DUP3 ADD SWAP2 POP DUP2 SWAP1 POP SWAP6 SWAP5 POP POP POP POP POP JUMP JUMPDEST PUSH32 0x4E487B7100000000000000000000000000000000000000000000000000000000 PUSH0 MSTORE PUSH1 0x12 PUSH1 0x4 MSTORE PUSH1 0x24 PUSH0 REVERT JUMPDEST PUSH0 DUP2 MLOAD SWAP1 POP PUSH2 0x1EF8 DUP2 PUSH2 0x184B JUMP JUMPDEST SWAP3 SWAP2 POP POP JUMP JUMPDEST PUSH0 PUSH1 0x20 DUP3 DUP5 SUB SLT ISZERO PUSH2 0x1F13 JUMPI PUSH2 0x1F12 PUSH2 0x15CE JUMP JUMPDEST JUMPDEST PUSH0 PUSH2 0x1F20 DUP5 DUP3 DUP6 ADD PUSH2 0x1EEA JUMP JUMPDEST SWAP2 POP POP SWAP3 SWAP2 POP POP JUMP JUMPDEST PUSH32 0x62616E6B726F6C6C206C6F770000000000000000000000000000000000000000 PUSH0 DUP3 ADD MSTORE POP JUMP JUMPDEST PUSH0 PUSH2 0x1F5D PUSH1 0xC DUP4 PUSH2 0x18C8 JUMP JUMPDEST SWAP2 POP PUSH2 0x1F68 DUP3 PUSH2 0x1F29 JUMP JUMPDEST PUSH1 0x20 DUP3 ADD SWAP1 POP SWAP2 SWAP1 POP JUMP JUMPDEST PUSH0 PUSH1 0x20 DUP3 ADD SWAP1 POP DUP2 DUP2 SUB PUSH0 DUP4 ADD MSTORE PUSH2 0x1F8A DUP2 PUSH2 0x1F51 JUMP JUMPDEST SWAP1 POP SWAP2 SWAP1 POP JUMP JUMPDEST PUSH0 PUSH2 0x1F9B DUP3 PUSH2 0x1726 JUMP JUMPDEST SWAP2 POP PUSH2 0x1FA6 DUP4 PUSH2 0x1726 JUMP JUMPDEST SWAP3 POP DUP3 DUP3 ADD SWAP1 POP DUP1 DUP3 GT ISZERO PUSH2 0x1FBE JUMPI PUSH2 0x1FBD PUSH2 0x1AE0 JUMP JUMPDEST JUMPDEST SWAP3 SWAP2 POP POP JUMP JUMPDEST PUSH0 PUSH2 0x1FCE DUP3 PUSH2 0x1632 JUMP JUMPDEST SWAP2 POP PUSH2 0x1FD9 DUP4 PUSH2 0x1632 JUMP JUMPDEST SWAP3 POP DUP3 DUP3 ADD SWAP1 POP PUSH1 0xFF DUP2 GT ISZERO PUSH2 0x1FF2 JUMPI PUSH2 0x1FF1 PUSH2 0x1AE0 JUMP JUMPDEST JUMPDEST SWAP3 SWAP2 POP POP JUMP INVALID LOG2 PUSH5 0x6970667358 0x22 SLT KECCAK256 DUP11 PUSH31 0x8CF8B864813937AB15E50ADBF4B4399EDE8B07B2BC9F18393EDB81FE408E64 PUSH20 0x6F6C634300081800330000000000000000000000 "
				},
				"gasEstimates": {
					"creation": {
						"codeDepositCost": "1647600",
						"executionCost": "infinite",
						"totalCost": "infinite"
					},
					"external": {
						"emergencyWithdrawAll(address)": "infinite",
						"fund()": "163",
						"maxBet()": "2448",
						"nonce()": "2447",
						"owner()": "2550",
						"pause(bool)": "infinite",
						"paused()": "2555",
						"playCoin(bool)": "infinite",
						"playHazard(uint8)": "infinite",
						"playShell(uint8)": "infinite",
						"pool()": "infinite",
						"setMaxBet(uint256)": "24704",
						"setPool(address)": "28121",
						"transferOwnership(address)": "30680"
					},
					"internal": {
						"_rand(uint256)": "infinite",
						"_requireBankroll(uint256)": "infinite",
						"_rollSum()": "infinite"
					}
				},
				"methodIdentifiers": {
					"emergencyWithdrawAll(address)": "54ab6269",
					"fund()": "b60d4288",
					"maxBet()": "2e5b2168",
					"nonce()": "affed0e0",
					"owner()": "8da5cb5b",
					"pause(bool)": "02329a29",
					"paused()": "5c975abb",
					"playCoin(bool)": "cafab8e7",
					"playHazard(uint8)": "91a4f2ec",
					"playShell(uint8)": "0df8b93b",
					"pool()": "16f0115b",
					"setMaxBet(uint256)": "881eff1e",
					"setPool(address)": "4437152a",
					"transferOwnership(address)": "f2fde38b"
				}
			},
			"storageLayout": {
				"storage": [
					{
						"astId": 17,
						"contract": "Contracts/TavernV3Pool.sol:TavernV3Pool",
						"label": "owner",
						"offset": 0,
						"slot": "0",
						"type": "t_address"
					},
					{
						"astId": 51,
						"contract": "Contracts/TavernV3Pool.sol:TavernV3Pool",
						"label": "_locked",
						"offset": 0,
						"slot": "1",
						"type": "t_uint256"
					},
					{
						"astId": 53,
						"contract": "Contracts/TavernV3Pool.sol:TavernV3Pool",
						"label": "paused",
						"offset": 0,
						"slot": "2",
						"type": "t_bool"
					},
					{
						"astId": 56,
						"contract": "Contracts/TavernV3Pool.sol:TavernV3Pool",
						"label": "maxBet",
						"offset": 0,
						"slot": "3",
						"type": "t_uint256"
					},
					{
						"astId": 58,
						"contract": "Contracts/TavernV3Pool.sol:TavernV3Pool",
						"label": "nonce",
						"offset": 0,
						"slot": "4",
						"type": "t_uint256"
					},
					{
						"astId": 61,
						"contract": "Contracts/TavernV3Pool.sol:TavernV3Pool",
						"label": "pool",
						"offset": 0,
						"slot": "5",
						"type": "t_contract(IBankrollPool)14"
					}
				],
				"types": {
					"t_address": {
						"encoding": "inplace",
						"label": "address",
						"numberOfBytes": "20"
					},
					"t_bool": {
						"encoding": "inplace",
						"label": "bool",
						"numberOfBytes": "1"
					},
					"t_contract(IBankrollPool)14": {
						"encoding": "inplace",
						"label": "contract IBankrollPool",
						"numberOfBytes": "20"
					},
					"t_uint256": {
						"encoding": "inplace",
						"label": "uint256",
						"numberOfBytes": "32"
					}
				}
			},
			"userdoc": {
				"kind": "user",
				"methods": {},
				"version": 1
			}
		}
	}
}