{
	"Contracts/BankrollPool.sol": {
		"BankrollPool": {
			"abi": [
				{
					"inputs": [],
					"stateMutability": "nonpayable",
					"type": "constructor"
				},
				{
					"anonymous": false,
					"inputs": [
						{
							"indexed": true,
							"internalType": "address",
							"name": "game",
							"type": "address"
						},
						{
							"indexed": false,
							"internalType": "bool",
							"name": "allowed",
							"type": "bool"
						}
					],
					"name": "Authorized",
					"type": "event"
				},
				{
					"anonymous": false,
					"inputs": [
						{
							"indexed": true,
							"internalType": "address",
							"name": "previousOwner",
							"type": "address"
						},
						{
							"indexed": true,
							"internalType": "address",
							"name": "newOwner",
							"type": "address"
						}
					],
					"name": "OwnershipTransferred",
					"type": "event"
				},
				{
					"anonymous": false,
					"inputs": [
						{
							"indexed": true,
							"internalType": "address",
							"name": "to",
							"type": "address"
						},
						{
							"indexed": false,
							"internalType": "uint256",
							"name": "amount",
							"type": "uint256"
						},
						{
							"indexed": true,
							"internalType": "address",
							"name": "byGame",
							"type": "address"
						}
					],
					"name": "Paid",
					"type": "event"
				},
				{
					"anonymous": false,
					"inputs": [
						{
							"indexed": false,
							"internalType": "bool",
							"name": "paused",
							"type": "bool"
						}
					],
					"name": "Paused",
					"type": "event"
				},
				{
					"inputs": [
						{
							"internalType": "address",
							"name": "",
							"type": "address"
						}
					],
					"name": "authorizedGames",
					"outputs": [
						{
							"internalType": "bool",
							"name": "",
							"type": "bool"
						}
					],
					"stateMutability": "view",
					"type": "function"
				},
				{
					"inputs": [],
					"name": "balance",
					"outputs": [
						{
							"internalType": "uint256",
							"name": "",
							"type": "uint256"
						}
					],
					"stateMutability": "view",
					"type": "function"
				},
				{
					"inputs": [],
					"name": "fund",
					"outputs": [],
					"stateMutability": "payable",
					"type": "function"
				},
				{
					"inputs": [],
					"name": "owner",
					"outputs": [
						{
							"internalType": "address",
							"name": "",
							"type": "address"
						}
					],
					"stateMutability": "view",
					"type": "function"
				},
				{
					"inputs": [
						{
							"internalType": "bool",
							"name": "p",
							"type": "bool"
						}
					],
					"name": "pause",
					"outputs": [],
					"stateMutability": "nonpayable",
					"type": "function"
				},
				{
					"inputs": [],
					"name": "paused",
					"outputs": [
						{
							"internalType": "bool",
							"name": "",
							"type": "bool"
						}
					],
					"stateMutability": "view",
					"type": "function"
				},
				{
					"inputs": [
						{
							"internalType": "address payable",
							"name": "to",
							"type": "address"
						},
						{
							"internalType": "uint256",
							"name": "amount",
							"type": "uint256"
						}
					],
					"name": "pay",
					"outputs": [],
					"stateMutability": "nonpayable",
					"type": "function"
				},
				{
					"inputs": [
						{
							"internalType": "address",
							"name": "game",
							"type": "address"
						},
						{
							"internalType": "bool",
							"name": "allowed",
							"type": "bool"
						}
					],
					"name": "setAuthorized",
					"outputs": [],
					"stateMutability": "nonpayable",
					"type": "function"
				},
				{
					"inputs": [
						{
							"internalType": "address",
							"name": "newOwner",
							"type": "address"
						}
					],
					"name": "transferOwnership",
					"outputs": [],
					"stateMutability": "nonpayable",
					"type": "function"
				},
				{
					"inputs": [
						{
							"internalType": "address payable",
							"name": "to",
							"type": "address"
						},
						{
							"internalType": "uint256",
							"name": "amount",
							"type": "uint256"
						}
					],
					"name": "withdraw",
					"outputs": [],
					"stateMutability": "nonpayable",
					"type": "function"
				},
				{
					"inputs": [
						{
							"internalType": "address payable",
							"name": "to",
							"type": "address"
						}
					],
					"name": "withdrawAll",
					"outputs": [],
					"stateMutability": "nonpayable",
					"type": "function"
				},
				{
					"stateMutability": "payable",
					"type": "receive"
				}
			],
			"devdoc": {
				"kind": "dev",
				"methods": {},
				"title": "BankrollPool - Unified liquidity pool for multiple game contracts",
				"version": 1
			},
			"evm": {
				"assembly": "    /* \"Contracts/BankrollPool.sol\":228:2387  contract BankrollPool {... */\n  mstore(0x40, 0x80)\n    /* \"Contracts/BankrollPool.sol\":332:333  1 */\n  0x01\n    /* \"Contracts/BankrollPool.sol\":306:333  uint256 private _locked = 1 */\n  dup1\n  sstore\n    /* \"Contracts/BankrollPool.sol\":882:931  constructor() {... */\n  callvalue\n  dup1\n  iszero\n  tag_1\n  jumpi\n  0x00\n  dup1\n  revert\ntag_1:\n  pop\n    /* \"Contracts/BankrollPool.sol\":914:924  msg.sender */\n  caller\n    /* \"Contracts/BankrollPool.sol\":906:911  owner */\n  0x00\n  dup1\n    /* \"Contracts/BankrollPool.sol\":906:924  owner = msg.sender */\n  0x0100\n  exp\n  dup2\n  sload\n  dup2\n  0xffffffffffffffffffffffffffffffffffffffff\n  mul\n  not\n  and\n  swap1\n  dup4\n  0xffffffffffffffffffffffffffffffffffffffff\n  and\n  mul\n  or\n  swap1\n  sstore\n  pop\n    /* \"Contracts/BankrollPool.sol\":228:2387  contract BankrollPool {... */\n  dataSize(sub_0)\n  dup1\n  dataOffset(sub_0)\n  0x00\n  codecopy\n  0x00\n  return\nstop\n\nsub_0: assembly {\n        /* \"Contracts/BankrollPool.sol\":228:2387  contract BankrollPool {... */\n      mstore(0x40, 0x80)\n      jumpi(tag_1, lt(calldatasize, 0x04))\n      shr(0xe0, calldataload(0x00))\n      dup1\n      0xb60d4288\n      gt\n      tag_14\n      jumpi\n      dup1\n      0xb60d4288\n      eq\n      tag_8\n      jumpi\n      dup1\n      0xb69ef8a8\n      eq\n      tag_9\n      jumpi\n      dup1\n      0xc4076876\n      eq\n      tag_10\n      jumpi\n      dup1\n      0xf2fde38b\n      eq\n      tag_11\n      jumpi\n      dup1\n      0xf3fef3a3\n      eq\n      tag_12\n      jumpi\n      dup1\n      0xfa09e630\n      eq\n      tag_13\n      jumpi\n      jump(tag_2)\n    tag_14:\n      dup1\n      0x02329a29\n      eq\n      tag_3\n      jumpi\n      dup1\n      0x5c975abb\n      eq\n      tag_4\n      jumpi\n      dup1\n      0x711bf9b2\n      eq\n      tag_5\n      jumpi\n      dup1\n      0x8da5cb5b\n      eq\n      tag_6\n      jumpi\n      dup1\n      0x9e492b99\n      eq\n      tag_7\n      jumpi\n      jump(tag_2)\n    tag_1:\n      jumpi(tag_2, calldatasize)\n      stop\n    tag_2:\n      0x00\n      dup1\n      revert\n        /* \"Contracts/BankrollPool.sol\":1176:1249  function pause(bool p) external onlyOwner { paused = p; emit Paused(p); } */\n    tag_3:\n      callvalue\n      dup1\n      iszero\n      tag_17\n      jumpi\n      0x00\n      dup1\n      revert\n    tag_17:\n      pop\n      tag_18\n      0x04\n      dup1\n      calldatasize\n      sub\n      dup2\n      add\n      swap1\n      tag_19\n      swap2\n      swap1\n      tag_20\n      jump\t// in\n    tag_19:\n      tag_21\n      jump\t// in\n    tag_18:\n      stop\n        /* \"Contracts/BankrollPool.sol\":282:300  bool public paused */\n    tag_4:\n      callvalue\n      dup1\n      iszero\n      tag_22\n      jumpi\n      0x00\n      dup1\n      revert\n    tag_22:\n      pop\n      tag_23\n      tag_24\n      jump\t// in\n    tag_23:\n      mload(0x40)\n      tag_25\n      swap2\n      swap1\n      tag_26\n      jump\t// in\n    tag_25:\n      mload(0x40)\n      dup1\n      swap2\n      sub\n      swap1\n      return\n        /* \"Contracts/BankrollPool.sol\":1012:1170  function setAuthorized(address game, bool allowed) external onlyOwner {... */\n    tag_5:\n      callvalue\n      dup1\n      iszero\n      tag_27\n      jumpi\n      0x00\n      dup1\n      revert\n    tag_27:\n      pop\n      tag_28\n      0x04\n      dup1\n      calldatasize\n      sub\n      dup2\n      add\n      swap1\n      tag_29\n      swap2\n      swap1\n      tag_30\n      jump\t// in\n    tag_29:\n      tag_31\n      jump\t// in\n    tag_28:\n      stop\n        /* \"Contracts/BankrollPool.sol\":256:276  address public owner */\n    tag_6:\n      callvalue\n      dup1\n      iszero\n      tag_32\n      jumpi\n      0x00\n      dup1\n      revert\n    tag_32:\n      pop\n      tag_33\n      tag_34\n      jump\t// in\n    tag_33:\n      mload(0x40)\n      tag_35\n      swap2\n      swap1\n      tag_36\n      jump\t// in\n    tag_35:\n      mload(0x40)\n      dup1\n      swap2\n      sub\n      swap1\n      return\n        /* \"Contracts/BankrollPool.sol\":573:620  mapping(address => bool) public authorizedGames */\n    tag_7:\n      callvalue\n      dup1\n      iszero\n      tag_37\n      jumpi\n      0x00\n      dup1\n      revert\n    tag_37:\n      pop\n      tag_38\n      0x04\n      dup1\n      calldatasize\n      sub\n      dup2\n      add\n      swap1\n      tag_39\n      swap2\n      swap1\n      tag_40\n      jump\t// in\n    tag_39:\n      tag_41\n      jump\t// in\n    tag_38:\n      mload(0x40)\n      tag_42\n      swap2\n      swap1\n      tag_26\n      jump\t// in\n    tag_42:\n      mload(0x40)\n      dup1\n      swap2\n      sub\n      swap1\n      return\n        /* \"Contracts/BankrollPool.sol\":971:1006  function fund() external payable {} */\n    tag_8:\n      tag_43\n      tag_44\n      jump\t// in\n    tag_43:\n      stop\n        /* \"Contracts/BankrollPool.sol\":1880:1976  function balance() external view returns (uint256) {... */\n    tag_9:\n      callvalue\n      dup1\n      iszero\n      tag_45\n      jumpi\n      0x00\n      dup1\n      revert\n    tag_45:\n      pop\n      tag_46\n      tag_47\n      jump\t// in\n    tag_46:\n      mload(0x40)\n      tag_48\n      swap2\n      swap1\n      tag_49\n      jump\t// in\n    tag_48:\n      mload(0x40)\n      dup1\n      swap2\n      sub\n      swap1\n      return\n        /* \"Contracts/BankrollPool.sol\":1542:1837  function pay(address payable to, uint256 amount) external nonReentrant notPaused {... */\n    tag_10:\n      callvalue\n      dup1\n      iszero\n      tag_50\n      jumpi\n      0x00\n      dup1\n      revert\n    tag_50:\n      pop\n      tag_51\n      0x04\n      dup1\n      calldatasize\n      sub\n      dup2\n      add\n      swap1\n      tag_52\n      swap2\n      swap1\n      tag_53\n      jump\t// in\n    tag_52:\n      tag_54\n      jump\t// in\n    tag_51:\n      stop\n        /* \"Contracts/BankrollPool.sol\":1255:1453  function transferOwnership(address newOwner) external onlyOwner {... */\n    tag_11:\n      callvalue\n      dup1\n      iszero\n      tag_55\n      jumpi\n      0x00\n      dup1\n      revert\n    tag_55:\n      pop\n      tag_56\n      0x04\n      dup1\n      calldatasize\n      sub\n      dup2\n      add\n      swap1\n      tag_57\n      swap2\n      swap1\n      tag_40\n      jump\t// in\n    tag_57:\n      tag_58\n      jump\t// in\n    tag_56:\n      stop\n        /* \"Contracts/BankrollPool.sol\":2025:2213  function withdraw(address payable to, uint256 amount) external onlyOwner nonReentrant {... */\n    tag_12:\n      callvalue\n      dup1\n      iszero\n      tag_59\n      jumpi\n      0x00\n      dup1\n      revert\n    tag_59:\n      pop\n      tag_60\n      0x04\n      dup1\n      calldatasize\n      sub\n      dup2\n      add\n      swap1\n      tag_61\n      swap2\n      swap1\n      tag_53\n      jump\t// in\n    tag_61:\n      tag_62\n      jump\t// in\n    tag_60:\n      stop\n        /* \"Contracts/BankrollPool.sol\":2261:2385  function withdrawAll(address payable to) external onlyOwner nonReentrant {... */\n    tag_13:\n      callvalue\n      dup1\n      iszero\n      tag_63\n      jumpi\n      0x00\n      dup1\n      revert\n    tag_63:\n      pop\n      tag_64\n      0x04\n      dup1\n      calldatasize\n      sub\n      dup2\n      add\n      swap1\n      tag_65\n      swap2\n      swap1\n      tag_66\n      jump\t// in\n    tag_65:\n      tag_67\n      jump\t// in\n    tag_64:\n      stop\n        /* \"Contracts/BankrollPool.sol\":1176:1249  function pause(bool p) external onlyOwner { paused = p; emit Paused(p); } */\n    tag_21:\n        /* \"Contracts/BankrollPool.sol\":385:390  owner */\n      0x00\n      dup1\n      sload\n      swap1\n      0x0100\n      exp\n      swap1\n      div\n      0xffffffffffffffffffffffffffffffffffffffff\n      and\n        /* \"Contracts/BankrollPool.sol\":371:390  msg.sender == owner */\n      0xffffffffffffffffffffffffffffffffffffffff\n      and\n        /* \"Contracts/BankrollPool.sol\":371:381  msg.sender */\n      caller\n        /* \"Contracts/BankrollPool.sol\":371:390  msg.sender == owner */\n      0xffffffffffffffffffffffffffffffffffffffff\n      and\n      eq\n        /* \"Contracts/BankrollPool.sol\":363:404  require(msg.sender == owner, \"not owner\") */\n      tag_69\n      jumpi\n      mload(0x40)\n      0x08c379a000000000000000000000000000000000000000000000000000000000\n      dup2\n      mstore\n      0x04\n      add\n      tag_70\n      swap1\n      tag_71\n      jump\t// in\n    tag_70:\n      mload(0x40)\n      dup1\n      swap2\n      sub\n      swap1\n      revert\n    tag_69:\n        /* \"Contracts/BankrollPool.sol\":1229:1230  p */\n      dup1\n        /* \"Contracts/BankrollPool.sol\":1220:1226  paused */\n      0x00\n      0x14\n        /* \"Contracts/BankrollPool.sol\":1220:1230  paused = p */\n      0x0100\n      exp\n      dup2\n      sload\n      dup2\n      0xff\n      mul\n      not\n      and\n      swap1\n      dup4\n      iszero\n      iszero\n      mul\n      or\n      swap1\n      sstore\n      pop\n        /* \"Contracts/BankrollPool.sol\":1237:1246  Paused(p) */\n      0x0e2fb031ee032dc02d8011dc50b816eb450cf856abd8261680dac74f72165bd2\n        /* \"Contracts/BankrollPool.sol\":1244:1245  p */\n      dup2\n        /* \"Contracts/BankrollPool.sol\":1237:1246  Paused(p) */\n      mload(0x40)\n      tag_73\n      swap2\n      swap1\n      tag_26\n      jump\t// in\n    tag_73:\n      mload(0x40)\n      dup1\n      swap2\n      sub\n      swap1\n      log1\n        /* \"Contracts/BankrollPool.sol\":1176:1249  function pause(bool p) external onlyOwner { paused = p; emit Paused(p); } */\n      pop\n      jump\t// out\n        /* \"Contracts/BankrollPool.sol\":282:300  bool public paused */\n    tag_24:\n      0x00\n      0x14\n      swap1\n      sload\n      swap1\n      0x0100\n      exp\n      swap1\n      div\n      0xff\n      and\n      dup2\n      jump\t// out\n        /* \"Contracts/BankrollPool.sol\":1012:1170  function setAuthorized(address game, bool allowed) external onlyOwner {... */\n    tag_31:\n        /* \"Contracts/BankrollPool.sol\":385:390  owner */\n      0x00\n      dup1\n      sload\n      swap1\n      0x0100\n      exp\n      swap1\n      div\n      0xffffffffffffffffffffffffffffffffffffffff\n      and\n        /* \"Contracts/BankrollPool.sol\":371:390  msg.sender == owner */\n      0xffffffffffffffffffffffffffffffffffffffff\n      and\n        /* \"Contracts/BankrollPool.sol\":371:381  msg.sender */\n      caller\n        /* \"Contracts/BankrollPool.sol\":371:390  msg.sender == owner */\n      0xffffffffffffffffffffffffffffffffffffffff\n      and\n      eq\n        /* \"Contracts/BankrollPool.sol\":363:404  require(msg.sender == owner, \"not owner\") */\n      tag_75\n      jumpi\n      mload(0x40)\n      0x08c379a000000000000000000000000000000000000000000000000000000000\n      dup2\n      mstore\n      0x04\n      add\n      tag_76\n      swap1\n      tag_71\n      jump\t// in\n    tag_76:\n      mload(0x40)\n      dup1\n      swap2\n      sub\n      swap1\n      revert\n    tag_75:\n        /* \"Contracts/BankrollPool.sol\":1116:1123  allowed */\n      dup1\n        /* \"Contracts/BankrollPool.sol\":1092:1107  authorizedGames */\n      0x02\n        /* \"Contracts/BankrollPool.sol\":1092:1113  authorizedGames[game] */\n      0x00\n        /* \"Contracts/BankrollPool.sol\":1108:1112  game */\n      dup5\n        /* \"Contracts/BankrollPool.sol\":1092:1113  authorizedGames[game] */\n      0xffffffffffffffffffffffffffffffffffffffff\n      and\n      0xffffffffffffffffffffffffffffffffffffffff\n      and\n      dup2\n      mstore\n      0x20\n      add\n      swap1\n      dup2\n      mstore\n      0x20\n      add\n      0x00\n      keccak256\n      0x00\n        /* \"Contracts/BankrollPool.sol\":1092:1123  authorizedGames[game] = allowed */\n      0x0100\n      exp\n      dup2\n      sload\n      dup2\n      0xff\n      mul\n      not\n      and\n      swap1\n      dup4\n      iszero\n      iszero\n      mul\n      or\n      swap1\n      sstore\n      pop\n        /* \"Contracts/BankrollPool.sol\":1149:1153  game */\n      dup2\n        /* \"Contracts/BankrollPool.sol\":1138:1163  Authorized(game, allowed) */\n      0xffffffffffffffffffffffffffffffffffffffff\n      and\n      0x4c0079b9bcd37cd5d29a13938effd97c881798cbc6bd52a3026a29d94b27d1bf\n        /* \"Contracts/BankrollPool.sol\":1155:1162  allowed */\n      dup3\n        /* \"Contracts/BankrollPool.sol\":1138:1163  Authorized(game, allowed) */\n      mload(0x40)\n      tag_78\n      swap2\n      swap1\n      tag_26\n      jump\t// in\n    tag_78:\n      mload(0x40)\n      dup1\n      swap2\n      sub\n      swap1\n      log2\n        /* \"Contracts/BankrollPool.sol\":1012:1170  function setAuthorized(address game, bool allowed) external onlyOwner {... */\n      pop\n      pop\n      jump\t// out\n        /* \"Contracts/BankrollPool.sol\":256:276  address public owner */\n    tag_34:\n      0x00\n      dup1\n      sload\n      swap1\n      0x0100\n      exp\n      swap1\n      div\n      0xffffffffffffffffffffffffffffffffffffffff\n      and\n      dup2\n      jump\t// out\n        /* \"Contracts/BankrollPool.sol\":573:620  mapping(address => bool) public authorizedGames */\n    tag_41:\n      mstore(0x20, 0x02)\n      dup1\n      0x00\n      mstore\n      keccak256(0x00, 0x40)\n      0x00\n      swap2\n      pop\n      sload\n      swap1\n      0x0100\n      exp\n      swap1\n      div\n      0xff\n      and\n      dup2\n      jump\t// out\n        /* \"Contracts/BankrollPool.sol\":971:1006  function fund() external payable {} */\n    tag_44:\n      jump\t// out\n        /* \"Contracts/BankrollPool.sol\":1880:1976  function balance() external view returns (uint256) {... */\n    tag_47:\n        /* \"Contracts/BankrollPool.sol\":1922:1929  uint256 */\n      0x00\n        /* \"Contracts/BankrollPool.sol\":1948:1969  address(this).balance */\n      selfbalance\n        /* \"Contracts/BankrollPool.sol\":1941:1969  return address(this).balance */\n      swap1\n      pop\n        /* \"Contracts/BankrollPool.sol\":1880:1976  function balance() external view returns (uint256) {... */\n      swap1\n      jump\t// out\n        /* \"Contracts/BankrollPool.sol\":1542:1837  function pay(address payable to, uint256 amount) external nonReentrant notPaused {... */\n    tag_54:\n        /* \"Contracts/BankrollPool.sol\":460:461  1 */\n      0x01\n        /* \"Contracts/BankrollPool.sol\":449:456  _locked */\n      dup1\n      sload\n        /* \"Contracts/BankrollPool.sol\":449:461  _locked == 1 */\n      eq\n        /* \"Contracts/BankrollPool.sol\":441:475  require(_locked == 1, \"reentrant\") */\n      tag_82\n      jumpi\n      mload(0x40)\n      0x08c379a000000000000000000000000000000000000000000000000000000000\n      dup2\n      mstore\n      0x04\n      add\n      tag_83\n      swap1\n      tag_84\n      jump\t// in\n    tag_83:\n      mload(0x40)\n      dup1\n      swap2\n      sub\n      swap1\n      revert\n    tag_82:\n        /* \"Contracts/BankrollPool.sol\":487:488  2 */\n      0x02\n        /* \"Contracts/BankrollPool.sol\":477:484  _locked */\n      0x01\n        /* \"Contracts/BankrollPool.sol\":477:488  _locked = 2 */\n      dup2\n      swap1\n      sstore\n      pop\n        /* \"Contracts/BankrollPool.sol\":544:550  paused */\n      0x00\n      0x14\n      swap1\n      sload\n      swap1\n      0x0100\n      exp\n      swap1\n      div\n      0xff\n      and\n        /* \"Contracts/BankrollPool.sol\":543:550  !paused */\n      iszero\n        /* \"Contracts/BankrollPool.sol\":535:561  require(!paused, \"paused\") */\n      tag_86\n      jumpi\n      mload(0x40)\n      0x08c379a000000000000000000000000000000000000000000000000000000000\n      dup2\n      mstore\n      0x04\n      add\n      tag_87\n      swap1\n      tag_88\n      jump\t// in\n    tag_87:\n      mload(0x40)\n      dup1\n      swap2\n      sub\n      swap1\n      revert\n    tag_86:\n        /* \"Contracts/BankrollPool.sol\":1641:1656  authorizedGames */\n      0x02\n        /* \"Contracts/BankrollPool.sol\":1641:1668  authorizedGames[msg.sender] */\n      0x00\n        /* \"Contracts/BankrollPool.sol\":1657:1667  msg.sender */\n      caller\n        /* \"Contracts/BankrollPool.sol\":1641:1668  authorizedGames[msg.sender] */\n      0xffffffffffffffffffffffffffffffffffffffff\n      and\n      0xffffffffffffffffffffffffffffffffffffffff\n      and\n      dup2\n      mstore\n      0x20\n      add\n      swap1\n      dup2\n      mstore\n      0x20\n      add\n      0x00\n      keccak256\n      0x00\n      swap1\n      sload\n      swap1\n      0x0100\n      exp\n      swap1\n      div\n      0xff\n      and\n        /* \"Contracts/BankrollPool.sol\":1633:1687  require(authorizedGames[msg.sender], \"not authorized\") */\n      tag_90\n      jumpi\n      mload(0x40)\n      0x08c379a000000000000000000000000000000000000000000000000000000000\n      dup2\n      mstore\n      0x04\n      add\n      tag_91\n      swap1\n      tag_92\n      jump\t// in\n    tag_91:\n      mload(0x40)\n      dup1\n      swap2\n      sub\n      swap1\n      revert\n    tag_90:\n        /* \"Contracts/BankrollPool.sol\":1730:1736  amount */\n      dup1\n        /* \"Contracts/BankrollPool.sol\":1705:1726  address(this).balance */\n      selfbalance\n        /* \"Contracts/BankrollPool.sol\":1705:1736  address(this).balance >= amount */\n      lt\n      iszero\n        /* \"Contracts/BankrollPool.sol\":1697:1758  require(address(this).balance >= amount, \"insufficient pool\") */\n      tag_93\n      jumpi\n      mload(0x40)\n      0x08c379a000000000000000000000000000000000000000000000000000000000\n      dup2\n      mstore\n      0x04\n      add\n      tag_94\n      swap1\n      tag_95\n      jump\t// in\n    tag_94:\n      mload(0x40)\n      dup1\n      swap2\n      sub\n      swap1\n      revert\n    tag_93:\n        /* \"Contracts/BankrollPool.sol\":1768:1770  to */\n      dup2\n        /* \"Contracts/BankrollPool.sol\":1768:1779  to.transfer */\n      0xffffffffffffffffffffffffffffffffffffffff\n      and\n        /* \"Contracts/BankrollPool.sol\":1768:1787  to.transfer(amount) */\n      0x08fc\n        /* \"Contracts/BankrollPool.sol\":1780:1786  amount */\n      dup3\n        /* \"Contracts/BankrollPool.sol\":1768:1787  to.transfer(amount) */\n      swap1\n      dup2\n      iszero\n      mul\n      swap1\n      mload(0x40)\n      0x00\n      mload(0x40)\n      dup1\n      dup4\n      sub\n      dup2\n      dup6\n      dup9\n      dup9\n      call\n      swap4\n      pop\n      pop\n      pop\n      pop\n      iszero\n      dup1\n      iszero\n      tag_97\n      jumpi\n      returndatasize\n      0x00\n      dup1\n      returndatacopy\n      revert(0x00, returndatasize)\n    tag_97:\n      pop\n        /* \"Contracts/BankrollPool.sol\":1819:1829  msg.sender */\n      caller\n        /* \"Contracts/BankrollPool.sol\":1802:1830  Paid(to, amount, msg.sender) */\n      0xffffffffffffffffffffffffffffffffffffffff\n      and\n        /* \"Contracts/BankrollPool.sol\":1807:1809  to */\n      dup3\n        /* \"Contracts/BankrollPool.sol\":1802:1830  Paid(to, amount, msg.sender) */\n      0xffffffffffffffffffffffffffffffffffffffff\n      and\n      0xdad97236b77394a5ee3dd23dd08678094ed216aa89031dd9dfae8d01b9226e89\n        /* \"Contracts/BankrollPool.sol\":1811:1817  amount */\n      dup4\n        /* \"Contracts/BankrollPool.sol\":1802:1830  Paid(to, amount, msg.sender) */\n      mload(0x40)\n      tag_98\n      swap2\n      swap1\n      tag_49\n      jump\t// in\n    tag_98:\n      mload(0x40)\n      dup1\n      swap2\n      sub\n      swap1\n      log3\n        /* \"Contracts/BankrollPool.sol\":503:504  1 */\n      0x01\n        /* \"Contracts/BankrollPool.sol\":493:500  _locked */\n      dup1\n        /* \"Contracts/BankrollPool.sol\":493:504  _locked = 1 */\n      dup2\n      swap1\n      sstore\n      pop\n        /* \"Contracts/BankrollPool.sol\":1542:1837  function pay(address payable to, uint256 amount) external nonReentrant notPaused {... */\n      pop\n      pop\n      jump\t// out\n        /* \"Contracts/BankrollPool.sol\":1255:1453  function transferOwnership(address newOwner) external onlyOwner {... */\n    tag_58:\n        /* \"Contracts/BankrollPool.sol\":385:390  owner */\n      0x00\n      dup1\n      sload\n      swap1\n      0x0100\n      exp\n      swap1\n      div\n      0xffffffffffffffffffffffffffffffffffffffff\n      and\n        /* \"Contracts/BankrollPool.sol\":371:390  msg.sender == owner */\n      0xffffffffffffffffffffffffffffffffffffffff\n      and\n        /* \"Contracts/BankrollPool.sol\":371:381  msg.sender */\n      caller\n        /* \"Contracts/BankrollPool.sol\":371:390  msg.sender == owner */\n      0xffffffffffffffffffffffffffffffffffffffff\n      and\n      eq\n        /* \"Contracts/BankrollPool.sol\":363:404  require(msg.sender == owner, \"not owner\") */\n      tag_100\n      jumpi\n      mload(0x40)\n      0x08c379a000000000000000000000000000000000000000000000000000000000\n      dup2\n      mstore\n      0x04\n      add\n      tag_101\n      swap1\n      tag_71\n      jump\t// in\n    tag_101:\n      mload(0x40)\n      dup1\n      swap2\n      sub\n      swap1\n      revert\n    tag_100:\n        /* \"Contracts/BankrollPool.sol\":1357:1358  0 */\n      0x00\n        /* \"Contracts/BankrollPool.sol\":1337:1359  newOwner != address(0) */\n      0xffffffffffffffffffffffffffffffffffffffff\n      and\n        /* \"Contracts/BankrollPool.sol\":1337:1345  newOwner */\n      dup2\n        /* \"Contracts/BankrollPool.sol\":1337:1359  newOwner != address(0) */\n      0xffffffffffffffffffffffffffffffffffffffff\n      and\n      sub\n        /* \"Contracts/BankrollPool.sol\":1329:1368  require(newOwner != address(0), \"zero\") */\n      tag_103\n      jumpi\n      mload(0x40)\n      0x08c379a000000000000000000000000000000000000000000000000000000000\n      dup2\n      mstore\n      0x04\n      add\n      tag_104\n      swap1\n      tag_105\n      jump\t// in\n    tag_104:\n      mload(0x40)\n      dup1\n      swap2\n      sub\n      swap1\n      revert\n    tag_103:\n        /* \"Contracts/BankrollPool.sol\":1411:1419  newOwner */\n      dup1\n        /* \"Contracts/BankrollPool.sol\":1383:1420  OwnershipTransferred(owner, newOwner) */\n      0xffffffffffffffffffffffffffffffffffffffff\n      and\n        /* \"Contracts/BankrollPool.sol\":1404:1409  owner */\n      0x00\n      dup1\n      sload\n      swap1\n      0x0100\n      exp\n      swap1\n      div\n      0xffffffffffffffffffffffffffffffffffffffff\n      and\n        /* \"Contracts/BankrollPool.sol\":1383:1420  OwnershipTransferred(owner, newOwner) */\n      0xffffffffffffffffffffffffffffffffffffffff\n      and\n      0x8be0079c531659141344cd1fd0a4f28419497f9722a3daafe3b4186f6b6457e0\n      mload(0x40)\n      mload(0x40)\n      dup1\n      swap2\n      sub\n      swap1\n      log3\n        /* \"Contracts/BankrollPool.sol\":1438:1446  newOwner */\n      dup1\n        /* \"Contracts/BankrollPool.sol\":1430:1435  owner */\n      0x00\n      dup1\n        /* \"Contracts/BankrollPool.sol\":1430:1446  owner = newOwner */\n      0x0100\n      exp\n      dup2\n      sload\n      dup2\n      0xffffffffffffffffffffffffffffffffffffffff\n      mul\n      not\n      and\n      swap1\n      dup4\n      0xffffffffffffffffffffffffffffffffffffffff\n      and\n      mul\n      or\n      swap1\n      sstore\n      pop\n        /* \"Contracts/BankrollPool.sol\":1255:1453  function transferOwnership(address newOwner) external onlyOwner {... */\n      pop\n      jump\t// out\n        /* \"Contracts/BankrollPool.sol\":2025:2213  function withdraw(address payable to, uint256 amount) external onlyOwner nonReentrant {... */\n    tag_62:\n        /* \"Contracts/BankrollPool.sol\":385:390  owner */\n      0x00\n      dup1\n      sload\n      swap1\n      0x0100\n      exp\n      swap1\n      div\n      0xffffffffffffffffffffffffffffffffffffffff\n      and\n        /* \"Contracts/BankrollPool.sol\":371:390  msg.sender == owner */\n      0xffffffffffffffffffffffffffffffffffffffff\n      and\n        /* \"Contracts/BankrollPool.sol\":371:381  msg.sender */\n      caller\n        /* \"Contracts/BankrollPool.sol\":371:390  msg.sender == owner */\n      0xffffffffffffffffffffffffffffffffffffffff\n      and\n      eq\n        /* \"Contracts/BankrollPool.sol\":363:404  require(msg.sender == owner, \"not owner\") */\n      tag_107\n      jumpi\n      mload(0x40)\n      0x08c379a000000000000000000000000000000000000000000000000000000000\n      dup2\n      mstore\n      0x04\n      add\n      tag_108\n      swap1\n      tag_71\n      jump\t// in\n    tag_108:\n      mload(0x40)\n      dup1\n      swap2\n      sub\n      swap1\n      revert\n    tag_107:\n        /* \"Contracts/BankrollPool.sol\":460:461  1 */\n      0x01\n        /* \"Contracts/BankrollPool.sol\":449:456  _locked */\n      dup1\n      sload\n        /* \"Contracts/BankrollPool.sol\":449:461  _locked == 1 */\n      eq\n        /* \"Contracts/BankrollPool.sol\":441:475  require(_locked == 1, \"reentrant\") */\n      tag_110\n      jumpi\n      mload(0x40)\n      0x08c379a000000000000000000000000000000000000000000000000000000000\n      dup2\n      mstore\n      0x04\n      add\n      tag_111\n      swap1\n      tag_84\n      jump\t// in\n    tag_111:\n      mload(0x40)\n      dup1\n      swap2\n      sub\n      swap1\n      revert\n    tag_110:\n        /* \"Contracts/BankrollPool.sol\":487:488  2 */\n      0x02\n        /* \"Contracts/BankrollPool.sol\":477:484  _locked */\n      0x01\n        /* \"Contracts/BankrollPool.sol\":477:488  _locked = 2 */\n      dup2\n      swap1\n      sstore\n      pop\n        /* \"Contracts/BankrollPool.sol\":2154:2160  amount */\n      dup1\n        /* \"Contracts/BankrollPool.sol\":2129:2150  address(this).balance */\n      selfbalance\n        /* \"Contracts/BankrollPool.sol\":2129:2160  address(this).balance >= amount */\n      lt\n      iszero\n        /* \"Contracts/BankrollPool.sol\":2121:2177  require(address(this).balance >= amount, \"insufficient\") */\n      tag_113\n      jumpi\n      mload(0x40)\n      0x08c379a000000000000000000000000000000000000000000000000000000000\n      dup2\n      mstore\n      0x04\n      add\n      tag_114\n      swap1\n      tag_115\n      jump\t// in\n    tag_114:\n      mload(0x40)\n      dup1\n      swap2\n      sub\n      swap1\n      revert\n    tag_113:\n        /* \"Contracts/BankrollPool.sol\":2187:2189  to */\n      dup2\n        /* \"Contracts/BankrollPool.sol\":2187:2198  to.transfer */\n      0xffffffffffffffffffffffffffffffffffffffff\n      and\n        /* \"Contracts/BankrollPool.sol\":2187:2206  to.transfer(amount) */\n      0x08fc\n        /* \"Contracts/BankrollPool.sol\":2199:2205  amount */\n      dup3\n        /* \"Contracts/BankrollPool.sol\":2187:2206  to.transfer(amount) */\n      swap1\n      dup2\n      iszero\n      mul\n      swap1\n      mload(0x40)\n      0x00\n      mload(0x40)\n      dup1\n      dup4\n      sub\n      dup2\n      dup6\n      dup9\n      dup9\n      call\n      swap4\n      pop\n      pop\n      pop\n      pop\n      iszero\n      dup1\n      iszero\n      tag_117\n      jumpi\n      returndatasize\n      0x00\n      dup1\n      returndatacopy\n      revert(0x00, returndatasize)\n    tag_117:\n      pop\n        /* \"Contracts/BankrollPool.sol\":503:504  1 */\n      0x01\n        /* \"Contracts/BankrollPool.sol\":493:500  _locked */\n      dup1\n        /* \"Contracts/BankrollPool.sol\":493:504  _locked = 1 */\n      dup2\n      swap1\n      sstore\n      pop\n        /* \"Contracts/BankrollPool.sol\":2025:2213  function withdraw(address payable to, uint256 amount) external onlyOwner nonReentrant {... */\n      pop\n      pop\n      jump\t// out\n        /* \"Contracts/BankrollPool.sol\":2261:2385  function withdrawAll(address payable to) external onlyOwner nonReentrant {... */\n    tag_67:\n        /* \"Contracts/BankrollPool.sol\":385:390  owner */\n      0x00\n      dup1\n      sload\n      swap1\n      0x0100\n      exp\n      swap1\n      div\n      0xffffffffffffffffffffffffffffffffffffffff\n      and\n        /* \"Contracts/BankrollPool.sol\":371:390  msg.sender == owner */\n      0xffffffffffffffffffffffffffffffffffffffff\n      and\n        /* \"Contracts/BankrollPool.sol\":371:381  msg.sender */\n      caller\n        /* \"Contracts/BankrollPool.sol\":371:390  msg.sender == owner */\n      0xffffffffffffffffffffffffffffffffffffffff\n      and\n      eq\n        /* \"Contracts/BankrollPool.sol\":363:404  require(msg.sender == owner, \"not owner\") */\n      tag_119\n      jumpi\n      mload(0x40)\n      0x08c379a000000000000000000000000000000000000000000000000000000000\n      dup2\n      mstore\n      0x04\n      add\n      tag_120\n      swap1\n      tag_71\n      jump\t// in\n    tag_120:\n      mload(0x40)\n      dup1\n      swap2\n      sub\n      swap1\n      revert\n    tag_119:\n        /* \"Contracts/BankrollPool.sol\":460:461  1 */\n      0x01\n        /* \"Contracts/BankrollPool.sol\":449:456  _locked */\n      dup1\n      sload\n        /* \"Contracts/BankrollPool.sol\":449:461  _locked == 1 */\n      eq\n        /* \"Contracts/BankrollPool.sol\":441:475  require(_locked == 1, \"reentrant\") */\n      tag_122\n      jumpi\n      mload(0x40)\n      0x08c379a000000000000000000000000000000000000000000000000000000000\n      dup2\n      mstore\n      0x04\n      add\n      tag_123\n      swap1\n      tag_84\n      jump\t// in\n    tag_123:\n      mload(0x40)\n      dup1\n      swap2\n      sub\n      swap1\n      revert\n    tag_122:\n        /* \"Contracts/BankrollPool.sol\":487:488  2 */\n      0x02\n        /* \"Contracts/BankrollPool.sol\":477:484  _locked */\n      0x01\n        /* \"Contracts/BankrollPool.sol\":477:488  _locked = 2 */\n      dup2\n      swap1\n      sstore\n      pop\n        /* \"Contracts/BankrollPool.sol\":2344:2346  to */\n      dup1\n        /* \"Contracts/BankrollPool.sol\":2344:2355  to.transfer */\n      0xffffffffffffffffffffffffffffffffffffffff\n      and\n        /* \"Contracts/BankrollPool.sol\":2344:2378  to.transfer(address(this).balance) */\n      0x08fc\n        /* \"Contracts/BankrollPool.sol\":2356:2377  address(this).balance */\n      selfbalance\n        /* \"Contracts/BankrollPool.sol\":2344:2378  to.transfer(address(this).balance) */\n      swap1\n      dup2\n      iszero\n      mul\n      swap1\n      mload(0x40)\n      0x00\n      mload(0x40)\n      dup1\n      dup4\n      sub\n      dup2\n      dup6\n      dup9\n      dup9\n      call\n      swap4\n      pop\n      pop\n      pop\n      pop\n      iszero\n      dup1\n      iszero\n      tag_126\n      jumpi\n      returndatasize\n      0x00\n      dup1\n      returndatacopy\n      revert(0x00, returndatasize)\n    tag_126:\n      pop\n        /* \"Contracts/BankrollPool.sol\":503:504  1 */\n      0x01\n        /* \"Contracts/BankrollPool.sol\":493:500  _locked */\n      dup1\n        /* \"Contracts/BankrollPool.sol\":493:504  _locked = 1 */\n      dup2\n      swap1\n      sstore\n      pop\n        /* \"Contracts/BankrollPool.sol\":2261:2385  function withdrawAll(address payable to) external onlyOwner nonReentrant {... */\n      pop\n      jump\t// out\n        /* \"#utility.yul\":88:205   */\n    tag_128:\n        /* \"#utility.yul\":197:198   */\n      0x00\n        /* \"#utility.yul\":194:195   */\n      dup1\n        /* \"#utility.yul\":187:199   */\n      revert\n        /* \"#utility.yul\":334:424   */\n    tag_130:\n        /* \"#utility.yul\":368:375   */\n      0x00\n        /* \"#utility.yul\":411:416   */\n      dup2\n        /* \"#utility.yul\":404:417   */\n      iszero\n        /* \"#utility.yul\":397:418   */\n      iszero\n        /* \"#utility.yul\":386:418   */\n      swap1\n      pop\n        /* \"#utility.yul\":334:424   */\n      swap2\n      swap1\n      pop\n      jump\t// out\n        /* \"#utility.yul\":430:546   */\n    tag_131:\n        /* \"#utility.yul\":500:521   */\n      tag_167\n        /* \"#utility.yul\":515:520   */\n      dup2\n        /* \"#utility.yul\":500:521   */\n      tag_130\n      jump\t// in\n    tag_167:\n        /* \"#utility.yul\":493:498   */\n      dup2\n        /* \"#utility.yul\":490:522   */\n      eq\n        /* \"#utility.yul\":480:540   */\n      tag_168\n      jumpi\n        /* \"#utility.yul\":536:537   */\n      0x00\n        /* \"#utility.yul\":533:534   */\n      dup1\n        /* \"#utility.yul\":526:538   */\n      revert\n        /* \"#utility.yul\":480:540   */\n    tag_168:\n        /* \"#utility.yul\":430:546   */\n      pop\n      jump\t// out\n        /* \"#utility.yul\":552:685   */\n    tag_132:\n        /* \"#utility.yul\":595:600   */\n      0x00\n        /* \"#utility.yul\":633:639   */\n      dup2\n        /* \"#utility.yul\":620:640   */\n      calldataload\n        /* \"#utility.yul\":611:640   */\n      swap1\n      pop\n        /* \"#utility.yul\":649:679   */\n      tag_170\n        /* \"#utility.yul\":673:678   */\n      dup2\n        /* \"#utility.yul\":649:679   */\n      tag_131\n      jump\t// in\n    tag_170:\n        /* \"#utility.yul\":552:685   */\n      swap3\n      swap2\n      pop\n      pop\n      jump\t// out\n        /* \"#utility.yul\":691:1014   */\n    tag_20:\n        /* \"#utility.yul\":747:753   */\n      0x00\n        /* \"#utility.yul\":796:798   */\n      0x20\n        /* \"#utility.yul\":784:793   */\n      dup3\n        /* \"#utility.yul\":775:782   */\n      dup5\n        /* \"#utility.yul\":771:794   */\n      sub\n        /* \"#utility.yul\":767:799   */\n      slt\n        /* \"#utility.yul\":764:883   */\n      iszero\n      tag_172\n      jumpi\n        /* \"#utility.yul\":802:881   */\n      tag_173\n      tag_128\n      jump\t// in\n    tag_173:\n        /* \"#utility.yul\":764:883   */\n    tag_172:\n        /* \"#utility.yul\":922:923   */\n      0x00\n        /* \"#utility.yul\":947:997   */\n      tag_174\n        /* \"#utility.yul\":989:996   */\n      dup5\n        /* \"#utility.yul\":980:986   */\n      dup3\n        /* \"#utility.yul\":969:978   */\n      dup6\n        /* \"#utility.yul\":965:987   */\n      add\n        /* \"#utility.yul\":947:997   */\n      tag_132\n      jump\t// in\n    tag_174:\n        /* \"#utility.yul\":937:997   */\n      swap2\n      pop\n        /* \"#utility.yul\":893:1007   */\n      pop\n        /* \"#utility.yul\":691:1014   */\n      swap3\n      swap2\n      pop\n      pop\n      jump\t// out\n        /* \"#utility.yul\":1020:1129   */\n    tag_133:\n        /* \"#utility.yul\":1101:1122   */\n      tag_176\n        /* \"#utility.yul\":1116:1121   */\n      dup2\n        /* \"#utility.yul\":1101:1122   */\n      tag_130\n      jump\t// in\n    tag_176:\n        /* \"#utility.yul\":1096:1099   */\n      dup3\n        /* \"#utility.yul\":1089:1123   */\n      mstore\n        /* \"#utility.yul\":1020:1129   */\n      pop\n      pop\n      jump\t// out\n        /* \"#utility.yul\":1135:1345   */\n    tag_26:\n        /* \"#utility.yul\":1222:1226   */\n      0x00\n        /* \"#utility.yul\":1260:1262   */\n      0x20\n        /* \"#utility.yul\":1249:1258   */\n      dup3\n        /* \"#utility.yul\":1245:1263   */\n      add\n        /* \"#utility.yul\":1237:1263   */\n      swap1\n      pop\n        /* \"#utility.yul\":1273:1338   */\n      tag_178\n        /* \"#utility.yul\":1335:1336   */\n      0x00\n        /* \"#utility.yul\":1324:1333   */\n      dup4\n        /* \"#utility.yul\":1320:1337   */\n      add\n        /* \"#utility.yul\":1311:1317   */\n      dup5\n        /* \"#utility.yul\":1273:1338   */\n      tag_133\n      jump\t// in\n    tag_178:\n        /* \"#utility.yul\":1135:1345   */\n      swap3\n      swap2\n      pop\n      pop\n      jump\t// out\n        /* \"#utility.yul\":1351:1477   */\n    tag_134:\n        /* \"#utility.yul\":1388:1395   */\n      0x00\n        /* \"#utility.yul\":1428:1470   */\n      0xffffffffffffffffffffffffffffffffffffffff\n        /* \"#utility.yul\":1421:1426   */\n      dup3\n        /* \"#utility.yul\":1417:1471   */\n      and\n        /* \"#utility.yul\":1406:1471   */\n      swap1\n      pop\n        /* \"#utility.yul\":1351:1477   */\n      swap2\n      swap1\n      pop\n      jump\t// out\n        /* \"#utility.yul\":1483:1579   */\n    tag_135:\n        /* \"#utility.yul\":1520:1527   */\n      0x00\n        /* \"#utility.yul\":1549:1573   */\n      tag_181\n        /* \"#utility.yul\":1567:1572   */\n      dup3\n        /* \"#utility.yul\":1549:1573   */\n      tag_134\n      jump\t// in\n    tag_181:\n        /* \"#utility.yul\":1538:1573   */\n      swap1\n      pop\n        /* \"#utility.yul\":1483:1579   */\n      swap2\n      swap1\n      pop\n      jump\t// out\n        /* \"#utility.yul\":1585:1707   */\n    tag_136:\n        /* \"#utility.yul\":1658:1682   */\n      tag_183\n        /* \"#utility.yul\":1676:1681   */\n      dup2\n        /* \"#utility.yul\":1658:1682   */\n      tag_135\n      jump\t// in\n    tag_183:\n        /* \"#utility.yul\":1651:1656   */\n      dup2\n        /* \"#utility.yul\":1648:1683   */\n      eq\n        /* \"#utility.yul\":1638:1701   */\n      tag_184\n      jumpi\n        /* \"#utility.yul\":1697:1698   */\n      0x00\n        /* \"#utility.yul\":1694:1695   */\n      dup1\n        /* \"#utility.yul\":1687:1699   */\n      revert\n        /* \"#utility.yul\":1638:1701   */\n    tag_184:\n        /* \"#utility.yul\":1585:1707   */\n      pop\n      jump\t// out\n        /* \"#utility.yul\":1713:1852   */\n    tag_137:\n        /* \"#utility.yul\":1759:1764   */\n      0x00\n        /* \"#utility.yul\":1797:1803   */\n      dup2\n        /* \"#utility.yul\":1784:1804   */\n      calldataload\n        /* \"#utility.yul\":1775:1804   */\n      swap1\n      pop\n        /* \"#utility.yul\":1813:1846   */\n      tag_186\n        /* \"#utility.yul\":1840:1845   */\n      dup2\n        /* \"#utility.yul\":1813:1846   */\n      tag_136\n      jump\t// in\n    tag_186:\n        /* \"#utility.yul\":1713:1852   */\n      swap3\n      swap2\n      pop\n      pop\n      jump\t// out\n        /* \"#utility.yul\":1858:2326   */\n    tag_30:\n        /* \"#utility.yul\":1923:1929   */\n      0x00\n        /* \"#utility.yul\":1931:1937   */\n      dup1\n        /* \"#utility.yul\":1980:1982   */\n      0x40\n        /* \"#utility.yul\":1968:1977   */\n      dup4\n        /* \"#utility.yul\":1959:1966   */\n      dup6\n        /* \"#utility.yul\":1955:1978   */\n      sub\n        /* \"#utility.yul\":1951:1983   */\n      slt\n        /* \"#utility.yul\":1948:2067   */\n      iszero\n      tag_188\n      jumpi\n        /* \"#utility.yul\":1986:2065   */\n      tag_189\n      tag_128\n      jump\t// in\n    tag_189:\n        /* \"#utility.yul\":1948:2067   */\n    tag_188:\n        /* \"#utility.yul\":2106:2107   */\n      0x00\n        /* \"#utility.yul\":2131:2184   */\n      tag_190\n        /* \"#utility.yul\":2176:2183   */\n      dup6\n        /* \"#utility.yul\":2167:2173   */\n      dup3\n        /* \"#utility.yul\":2156:2165   */\n      dup7\n        /* \"#utility.yul\":2152:2174   */\n      add\n        /* \"#utility.yul\":2131:2184   */\n      tag_137\n      jump\t// in\n    tag_190:\n        /* \"#utility.yul\":2121:2184   */\n      swap3\n      pop\n        /* \"#utility.yul\":2077:2194   */\n      pop\n        /* \"#utility.yul\":2233:2235   */\n      0x20\n        /* \"#utility.yul\":2259:2309   */\n      tag_191\n        /* \"#utility.yul\":2301:2308   */\n      dup6\n        /* \"#utility.yul\":2292:2298   */\n      dup3\n        /* \"#utility.yul\":2281:2290   */\n      dup7\n        /* \"#utility.yul\":2277:2299   */\n      add\n        /* \"#utility.yul\":2259:2309   */\n      tag_132\n      jump\t// in\n    tag_191:\n        /* \"#utility.yul\":2249:2309   */\n      swap2\n      pop\n        /* \"#utility.yul\":2204:2319   */\n      pop\n        /* \"#utility.yul\":1858:2326   */\n      swap3\n      pop\n      swap3\n      swap1\n      pop\n      jump\t// out\n        /* \"#utility.yul\":2332:2450   */\n    tag_138:\n        /* \"#utility.yul\":2419:2443   */\n      tag_193\n        /* \"#utility.yul\":2437:2442   */\n      dup2\n        /* \"#utility.yul\":2419:2443   */\n      tag_135\n      jump\t// in\n    tag_193:\n        /* \"#utility.yul\":2414:2417   */\n      dup3\n        /* \"#utility.yul\":2407:2444   */\n      mstore\n        /* \"#utility.yul\":2332:2450   */\n      pop\n      pop\n      jump\t// out\n        /* \"#utility.yul\":2456:2678   */\n    tag_36:\n        /* \"#utility.yul\":2549:2553   */\n      0x00\n        /* \"#utility.yul\":2587:2589   */\n      0x20\n        /* \"#utility.yul\":2576:2585   */\n      dup3\n        /* \"#utility.yul\":2572:2590   */\n      add\n        /* \"#utility.yul\":2564:2590   */\n      swap1\n      pop\n        /* \"#utility.yul\":2600:2671   */\n      tag_195\n        /* \"#utility.yul\":2668:2669   */\n      0x00\n        /* \"#utility.yul\":2657:2666   */\n      dup4\n        /* \"#utility.yul\":2653:2670   */\n      add\n        /* \"#utility.yul\":2644:2650   */\n      dup5\n        /* \"#utility.yul\":2600:2671   */\n      tag_138\n      jump\t// in\n    tag_195:\n        /* \"#utility.yul\":2456:2678   */\n      swap3\n      swap2\n      pop\n      pop\n      jump\t// out\n        /* \"#utility.yul\":2684:3013   */\n    tag_40:\n        /* \"#utility.yul\":2743:2749   */\n      0x00\n        /* \"#utility.yul\":2792:2794   */\n      0x20\n        /* \"#utility.yul\":2780:2789   */\n      dup3\n        /* \"#utility.yul\":2771:2778   */\n      dup5\n        /* \"#utility.yul\":2767:2790   */\n      sub\n        /* \"#utility.yul\":2763:2795   */\n      slt\n        /* \"#utility.yul\":2760:2879   */\n      iszero\n      tag_197\n      jumpi\n        /* \"#utility.yul\":2798:2877   */\n      tag_198\n      tag_128\n      jump\t// in\n    tag_198:\n        /* \"#utility.yul\":2760:2879   */\n    tag_197:\n        /* \"#utility.yul\":2918:2919   */\n      0x00\n        /* \"#utility.yul\":2943:2996   */\n      tag_199\n        /* \"#utility.yul\":2988:2995   */\n      dup5\n        /* \"#utility.yul\":2979:2985   */\n      dup3\n        /* \"#utility.yul\":2968:2977   */\n      dup6\n        /* \"#utility.yul\":2964:2986   */\n      add\n        /* \"#utility.yul\":2943:2996   */\n      tag_137\n      jump\t// in\n    tag_199:\n        /* \"#utility.yul\":2933:2996   */\n      swap2\n      pop\n        /* \"#utility.yul\":2889:3006   */\n      pop\n        /* \"#utility.yul\":2684:3013   */\n      swap3\n      swap2\n      pop\n      pop\n      jump\t// out\n        /* \"#utility.yul\":3019:3096   */\n    tag_139:\n        /* \"#utility.yul\":3056:3063   */\n      0x00\n        /* \"#utility.yul\":3085:3090   */\n      dup2\n        /* \"#utility.yul\":3074:3090   */\n      swap1\n      pop\n        /* \"#utility.yul\":3019:3096   */\n      swap2\n      swap1\n      pop\n      jump\t// out\n        /* \"#utility.yul\":3102:3220   */\n    tag_140:\n        /* \"#utility.yul\":3189:3213   */\n      tag_202\n        /* \"#utility.yul\":3207:3212   */\n      dup2\n        /* \"#utility.yul\":3189:3213   */\n      tag_139\n      jump\t// in\n    tag_202:\n        /* \"#utility.yul\":3184:3187   */\n      dup3\n        /* \"#utility.yul\":3177:3214   */\n      mstore\n        /* \"#utility.yul\":3102:3220   */\n      pop\n      pop\n      jump\t// out\n        /* \"#utility.yul\":3226:3448   */\n    tag_49:\n        /* \"#utility.yul\":3319:3323   */\n      0x00\n        /* \"#utility.yul\":3357:3359   */\n      0x20\n        /* \"#utility.yul\":3346:3355   */\n      dup3\n        /* \"#utility.yul\":3342:3360   */\n      add\n        /* \"#utility.yul\":3334:3360   */\n      swap1\n      pop\n        /* \"#utility.yul\":3370:3441   */\n      tag_204\n        /* \"#utility.yul\":3438:3439   */\n      0x00\n        /* \"#utility.yul\":3427:3436   */\n      dup4\n        /* \"#utility.yul\":3423:3440   */\n      add\n        /* \"#utility.yul\":3414:3420   */\n      dup5\n        /* \"#utility.yul\":3370:3441   */\n      tag_140\n      jump\t// in\n    tag_204:\n        /* \"#utility.yul\":3226:3448   */\n      swap3\n      swap2\n      pop\n      pop\n      jump\t// out\n        /* \"#utility.yul\":3454:3558   */\n    tag_141:\n        /* \"#utility.yul\":3499:3506   */\n      0x00\n        /* \"#utility.yul\":3528:3552   */\n      tag_206\n        /* \"#utility.yul\":3546:3551   */\n      dup3\n        /* \"#utility.yul\":3528:3552   */\n      tag_134\n      jump\t// in\n    tag_206:\n        /* \"#utility.yul\":3517:3552   */\n      swap1\n      pop\n        /* \"#utility.yul\":3454:3558   */\n      swap2\n      swap1\n      pop\n      jump\t// out\n        /* \"#utility.yul\":3564:3702   */\n    tag_142:\n        /* \"#utility.yul\":3645:3677   */\n      tag_208\n        /* \"#utility.yul\":3671:3676   */\n      dup2\n        /* \"#utility.yul\":3645:3677   */\n      tag_141\n      jump\t// in\n    tag_208:\n        /* \"#utility.yul\":3638:3643   */\n      dup2\n        /* \"#utility.yul\":3635:3678   */\n      eq\n        /* \"#utility.yul\":3625:3696   */\n      tag_209\n      jumpi\n        /* \"#utility.yul\":3692:3693   */\n      0x00\n        /* \"#utility.yul\":3689:3690   */\n      dup1\n        /* \"#utility.yul\":3682:3694   */\n      revert\n        /* \"#utility.yul\":3625:3696   */\n    tag_209:\n        /* \"#utility.yul\":3564:3702   */\n      pop\n      jump\t// out\n        /* \"#utility.yul\":3708:3863   */\n    tag_143:\n        /* \"#utility.yul\":3762:3767   */\n      0x00\n        /* \"#utility.yul\":3800:3806   */\n      dup2\n        /* \"#utility.yul\":3787:3807   */\n      calldataload\n        /* \"#utility.yul\":3778:3807   */\n      swap1\n      pop\n        /* \"#utility.yul\":3816:3857   */\n      tag_211\n        /* \"#utility.yul\":3851:3856   */\n      dup2\n        /* \"#utility.yul\":3816:3857   */\n      tag_142\n      jump\t// in\n    tag_211:\n        /* \"#utility.yul\":3708:3863   */\n      swap3\n      swap2\n      pop\n      pop\n      jump\t// out\n        /* \"#utility.yul\":3869:3991   */\n    tag_144:\n        /* \"#utility.yul\":3942:3966   */\n      tag_213\n        /* \"#utility.yul\":3960:3965   */\n      dup2\n        /* \"#utility.yul\":3942:3966   */\n      tag_139\n      jump\t// in\n    tag_213:\n        /* \"#utility.yul\":3935:3940   */\n      dup2\n        /* \"#utility.yul\":3932:3967   */\n      eq\n        /* \"#utility.yul\":3922:3985   */\n      tag_214\n      jumpi\n        /* \"#utility.yul\":3981:3982   */\n      0x00\n        /* \"#utility.yul\":3978:3979   */\n      dup1\n        /* \"#utility.yul\":3971:3983   */\n      revert\n        /* \"#utility.yul\":3922:3985   */\n    tag_214:\n        /* \"#utility.yul\":3869:3991   */\n      pop\n      jump\t// out\n        /* \"#utility.yul\":3997:4136   */\n    tag_145:\n        /* \"#utility.yul\":4043:4048   */\n      0x00\n        /* \"#utility.yul\":4081:4087   */\n      dup2\n        /* \"#utility.yul\":4068:4088   */\n      calldataload\n        /* \"#utility.yul\":4059:4088   */\n      swap1\n      pop\n        /* \"#utility.yul\":4097:4130   */\n      tag_216\n        /* \"#utility.yul\":4124:4129   */\n      dup2\n        /* \"#utility.yul\":4097:4130   */\n      tag_144\n      jump\t// in\n    tag_216:\n        /* \"#utility.yul\":3997:4136   */\n      swap3\n      swap2\n      pop\n      pop\n      jump\t// out\n        /* \"#utility.yul\":4142:4632   */\n    tag_53:\n        /* \"#utility.yul\":4218:4224   */\n      0x00\n        /* \"#utility.yul\":4226:4232   */\n      dup1\n        /* \"#utility.yul\":4275:4277   */\n      0x40\n        /* \"#utility.yul\":4263:4272   */\n      dup4\n        /* \"#utility.yul\":4254:4261   */\n      dup6\n        /* \"#utility.yul\":4250:4273   */\n      sub\n        /* \"#utility.yul\":4246:4278   */\n      slt\n        /* \"#utility.yul\":4243:4362   */\n      iszero\n      tag_218\n      jumpi\n        /* \"#utility.yul\":4281:4360   */\n      tag_219\n      tag_128\n      jump\t// in\n    tag_219:\n        /* \"#utility.yul\":4243:4362   */\n    tag_218:\n        /* \"#utility.yul\":4401:4402   */\n      0x00\n        /* \"#utility.yul\":4426:4487   */\n      tag_220\n        /* \"#utility.yul\":4479:4486   */\n      dup6\n        /* \"#utility.yul\":4470:4476   */\n      dup3\n        /* \"#utility.yul\":4459:4468   */\n      dup7\n        /* \"#utility.yul\":4455:4477   */\n      add\n        /* \"#utility.yul\":4426:4487   */\n      tag_143\n      jump\t// in\n    tag_220:\n        /* \"#utility.yul\":4416:4487   */\n      swap3\n      pop\n        /* \"#utility.yul\":4372:4497   */\n      pop\n        /* \"#utility.yul\":4536:4538   */\n      0x20\n        /* \"#utility.yul\":4562:4615   */\n      tag_221\n        /* \"#utility.yul\":4607:4614   */\n      dup6\n        /* \"#utility.yul\":4598:4604   */\n      dup3\n        /* \"#utility.yul\":4587:4596   */\n      dup7\n        /* \"#utility.yul\":4583:4605   */\n      add\n        /* \"#utility.yul\":4562:4615   */\n      tag_145\n      jump\t// in\n    tag_221:\n        /* \"#utility.yul\":4552:4615   */\n      swap2\n      pop\n        /* \"#utility.yul\":4507:4625   */\n      pop\n        /* \"#utility.yul\":4142:4632   */\n      swap3\n      pop\n      swap3\n      swap1\n      pop\n      jump\t// out\n        /* \"#utility.yul\":4638:4983   */\n    tag_66:\n        /* \"#utility.yul\":4705:4711   */\n      0x00\n        /* \"#utility.yul\":4754:4756   */\n      0x20\n        /* \"#utility.yul\":4742:4751   */\n      dup3\n        /* \"#utility.yul\":4733:4740   */\n      dup5\n        /* \"#utility.yul\":4729:4752   */\n      sub\n        /* \"#utility.yul\":4725:4757   */\n      slt\n        /* \"#utility.yul\":4722:4841   */\n      iszero\n      tag_223\n      jumpi\n        /* \"#utility.yul\":4760:4839   */\n      tag_224\n      tag_128\n      jump\t// in\n    tag_224:\n        /* \"#utility.yul\":4722:4841   */\n    tag_223:\n        /* \"#utility.yul\":4880:4881   */\n      0x00\n        /* \"#utility.yul\":4905:4966   */\n      tag_225\n        /* \"#utility.yul\":4958:4965   */\n      dup5\n        /* \"#utility.yul\":4949:4955   */\n      dup3\n        /* \"#utility.yul\":4938:4947   */\n      dup6\n        /* \"#utility.yul\":4934:4956   */\n      add\n        /* \"#utility.yul\":4905:4966   */\n      tag_143\n      jump\t// in\n    tag_225:\n        /* \"#utility.yul\":4895:4966   */\n      swap2\n      pop\n        /* \"#utility.yul\":4851:4976   */\n      pop\n        /* \"#utility.yul\":4638:4983   */\n      swap3\n      swap2\n      pop\n      pop\n      jump\t// out\n        /* \"#utility.yul\":4989:5158   */\n    tag_146:\n        /* \"#utility.yul\":5073:5084   */\n      0x00\n        /* \"#utility.yul\":5107:5113   */\n      dup3\n        /* \"#utility.yul\":5102:5105   */\n      dup3\n        /* \"#utility.yul\":5095:5114   */\n      mstore\n        /* \"#utility.yul\":5147:5151   */\n      0x20\n        /* \"#utility.yul\":5142:5145   */\n      dup3\n        /* \"#utility.yul\":5138:5152   */\n      add\n        /* \"#utility.yul\":5123:5152   */\n      swap1\n      pop\n        /* \"#utility.yul\":4989:5158   */\n      swap3\n      swap2\n      pop\n      pop\n      jump\t// out\n        /* \"#utility.yul\":5164:5323   */\n    tag_147:\n        /* \"#utility.yul\":5304:5315   */\n      0x6e6f74206f776e65720000000000000000000000000000000000000000000000\n        /* \"#utility.yul\":5300:5301   */\n      0x00\n        /* \"#utility.yul\":5292:5298   */\n      dup3\n        /* \"#utility.yul\":5288:5302   */\n      add\n        /* \"#utility.yul\":5281:5316   */\n      mstore\n        /* \"#utility.yul\":5164:5323   */\n      pop\n      jump\t// out\n        /* \"#utility.yul\":5329:5694   */\n    tag_148:\n        /* \"#utility.yul\":5471:5474   */\n      0x00\n        /* \"#utility.yul\":5492:5558   */\n      tag_229\n        /* \"#utility.yul\":5556:5557   */\n      0x09\n        /* \"#utility.yul\":5551:5554   */\n      dup4\n        /* \"#utility.yul\":5492:5558   */\n      tag_146\n      jump\t// in\n    tag_229:\n        /* \"#utility.yul\":5485:5558   */\n      swap2\n      pop\n        /* \"#utility.yul\":5567:5660   */\n      tag_230\n        /* \"#utility.yul\":5656:5659   */\n      dup3\n        /* \"#utility.yul\":5567:5660   */\n      tag_147\n      jump\t// in\n    tag_230:\n        /* \"#utility.yul\":5685:5687   */\n      0x20\n        /* \"#utility.yul\":5680:5683   */\n      dup3\n        /* \"#utility.yul\":5676:5688   */\n      add\n        /* \"#utility.yul\":5669:5688   */\n      swap1\n      pop\n        /* \"#utility.yul\":5329:5694   */\n      swap2\n      swap1\n      pop\n      jump\t// out\n        /* \"#utility.yul\":5700:6119   */\n    tag_71:\n        /* \"#utility.yul\":5866:5870   */\n      0x00\n        /* \"#utility.yul\":5904:5906   */\n      0x20\n        /* \"#utility.yul\":5893:5902   */\n      dup3\n        /* \"#utility.yul\":5889:5907   */\n      add\n        /* \"#utility.yul\":5881:5907   */\n      swap1\n      pop\n        /* \"#utility.yul\":5953:5962   */\n      dup2\n        /* \"#utility.yul\":5947:5951   */\n      dup2\n        /* \"#utility.yul\":5943:5963   */\n      sub\n        /* \"#utility.yul\":5939:5940   */\n      0x00\n        /* \"#utility.yul\":5928:5937   */\n      dup4\n        /* \"#utility.yul\":5924:5941   */\n      add\n        /* \"#utility.yul\":5917:5964   */\n      mstore\n        /* \"#utility.yul\":5981:6112   */\n      tag_232\n        /* \"#utility.yul\":6107:6111   */\n      dup2\n        /* \"#utility.yul\":5981:6112   */\n      tag_148\n      jump\t// in\n    tag_232:\n        /* \"#utility.yul\":5973:6112   */\n      swap1\n      pop\n        /* \"#utility.yul\":5700:6119   */\n      swap2\n      swap1\n      pop\n      jump\t// out\n        /* \"#utility.yul\":6125:6284   */\n    tag_149:\n        /* \"#utility.yul\":6265:6276   */\n      0x7265656e7472616e740000000000000000000000000000000000000000000000\n        /* \"#utility.yul\":6261:6262   */\n      0x00\n        /* \"#utility.yul\":6253:6259   */\n      dup3\n        /* \"#utility.yul\":6249:6263   */\n      add\n        /* \"#utility.yul\":6242:6277   */\n      mstore\n        /* \"#utility.yul\":6125:6284   */\n      pop\n      jump\t// out\n        /* \"#utility.yul\":6290:6655   */\n    tag_150:\n        /* \"#utility.yul\":6432:6435   */\n      0x00\n        /* \"#utility.yul\":6453:6519   */\n      tag_235\n        /* \"#utility.yul\":6517:6518   */\n      0x09\n        /* \"#utility.yul\":6512:6515   */\n      dup4\n        /* \"#utility.yul\":6453:6519   */\n      tag_146\n      jump\t// in\n    tag_235:\n        /* \"#utility.yul\":6446:6519   */\n      swap2\n      pop\n        /* \"#utility.yul\":6528:6621   */\n      tag_236\n        /* \"#utility.yul\":6617:6620   */\n      dup3\n        /* \"#utility.yul\":6528:6621   */\n      tag_149\n      jump\t// in\n    tag_236:\n        /* \"#utility.yul\":6646:6648   */\n      0x20\n        /* \"#utility.yul\":6641:6644   */\n      dup3\n        /* \"#utility.yul\":6637:6649   */\n      add\n        /* \"#utility.yul\":6630:6649   */\n      swap1\n      pop\n        /* \"#utility.yul\":6290:6655   */\n      swap2\n      swap1\n      pop\n      jump\t// out\n        /* \"#utility.yul\":6661:7080   */\n    tag_84:\n        /* \"#utility.yul\":6827:6831   */\n      0x00\n        /* \"#utility.yul\":6865:6867   */\n      0x20\n        /* \"#utility.yul\":6854:6863   */\n      dup3\n        /* \"#utility.yul\":6850:6868   */\n      add\n        /* \"#utility.yul\":6842:6868   */\n      swap1\n      pop\n        /* \"#utility.yul\":6914:6923   */\n      dup2\n        /* \"#utility.yul\":6908:6912   */\n      dup2\n        /* \"#utility.yul\":6904:6924   */\n      sub\n        /* \"#utility.yul\":6900:6901   */\n      0x00\n        /* \"#utility.yul\":6889:6898   */\n      dup4\n        /* \"#utility.yul\":6885:6902   */\n      add\n        /* \"#utility.yul\":6878:6925   */\n      mstore\n        /* \"#utility.yul\":6942:7073   */\n      tag_238\n        /* \"#utility.yul\":7068:7072   */\n      dup2\n        /* \"#utility.yul\":6942:7073   */\n      tag_150\n      jump\t// in\n    tag_238:\n        /* \"#utility.yul\":6934:7073   */\n      swap1\n      pop\n        /* \"#utility.yul\":6661:7080   */\n      swap2\n      swap1\n      pop\n      jump\t// out\n        /* \"#utility.yul\":7086:7242   */\n    tag_151:\n        /* \"#utility.yul\":7226:7234   */\n      0x7061757365640000000000000000000000000000000000000000000000000000\n        /* \"#utility.yul\":7222:7223   */\n      0x00\n        /* \"#utility.yul\":7214:7220   */\n      dup3\n        /* \"#utility.yul\":7210:7224   */\n      add\n        /* \"#utility.yul\":7203:7235   */\n      mstore\n        /* \"#utility.yul\":7086:7242   */\n      pop\n      jump\t// out\n        /* \"#utility.yul\":7248:7613   */\n    tag_152:\n        /* \"#utility.yul\":7390:7393   */\n      0x00\n        /* \"#utility.yul\":7411:7477   */\n      tag_241\n        /* \"#utility.yul\":7475:7476   */\n      0x06\n        /* \"#utility.yul\":7470:7473   */\n      dup4\n        /* \"#utility.yul\":7411:7477   */\n      tag_146\n      jump\t// in\n    tag_241:\n        /* \"#utility.yul\":7404:7477   */\n      swap2\n      pop\n        /* \"#utility.yul\":7486:7579   */\n      tag_242\n        /* \"#utility.yul\":7575:7578   */\n      dup3\n        /* \"#utility.yul\":7486:7579   */\n      tag_151\n      jump\t// in\n    tag_242:\n        /* \"#utility.yul\":7604:7606   */\n      0x20\n        /* \"#utility.yul\":7599:7602   */\n      dup3\n        /* \"#utility.yul\":7595:7607   */\n      add\n        /* \"#utility.yul\":7588:7607   */\n      swap1\n      pop\n        /* \"#utility.yul\":7248:7613   */\n      swap2\n      swap1\n      pop\n      jump\t// out\n        /* \"#utility.yul\":7619:8038   */\n    tag_88:\n        /* \"#utility.yul\":7785:7789   */\n      0x00\n        /* \"#utility.yul\":7823:7825   */\n      0x20\n        /* \"#utility.yul\":7812:7821   */\n      dup3\n        /* \"#utility.yul\":7808:7826   */\n      add\n        /* \"#utility.yul\":7800:7826   */\n      swap1\n      pop\n        /* \"#utility.yul\":7872:7881   */\n      dup2\n        /* \"#utility.yul\":7866:7870   */\n      dup2\n        /* \"#utility.yul\":7862:7882   */\n      sub\n        /* \"#utility.yul\":7858:7859   */\n      0x00\n        /* \"#utility.yul\":7847:7856   */\n      dup4\n        /* \"#utility.yul\":7843:7860   */\n      add\n        /* \"#utility.yul\":7836:7883   */\n      mstore\n        /* \"#utility.yul\":7900:8031   */\n      tag_244\n        /* \"#utility.yul\":8026:8030   */\n      dup2\n        /* \"#utility.yul\":7900:8031   */\n      tag_152\n      jump\t// in\n    tag_244:\n        /* \"#utility.yul\":7892:8031   */\n      swap1\n      pop\n        /* \"#utility.yul\":7619:8038   */\n      swap2\n      swap1\n      pop\n      jump\t// out\n        /* \"#utility.yul\":8044:8208   */\n    tag_153:\n        /* \"#utility.yul\":8184:8200   */\n      0x6e6f7420617574686f72697a6564000000000000000000000000000000000000\n        /* \"#utility.yul\":8180:8181   */\n      0x00\n        /* \"#utility.yul\":8172:8178   */\n      dup3\n        /* \"#utility.yul\":8168:8182   */\n      add\n        /* \"#utility.yul\":8161:8201   */\n      mstore\n        /* \"#utility.yul\":8044:8208   */\n      pop\n      jump\t// out\n        /* \"#utility.yul\":8214:8580   */\n    tag_154:\n        /* \"#utility.yul\":8356:8359   */\n      0x00\n        /* \"#utility.yul\":8377:8444   */\n      tag_247\n        /* \"#utility.yul\":8441:8443   */\n      0x0e\n        /* \"#utility.yul\":8436:8439   */\n      dup4\n        /* \"#utility.yul\":8377:8444   */\n      tag_146\n      jump\t// in\n    tag_247:\n        /* \"#utility.yul\":8370:8444   */\n      swap2\n      pop\n        /* \"#utility.yul\":8453:8546   */\n      tag_248\n        /* \"#utility.yul\":8542:8545   */\n      dup3\n        /* \"#utility.yul\":8453:8546   */\n      tag_153\n      jump\t// in\n    tag_248:\n        /* \"#utility.yul\":8571:8573   */\n      0x20\n        /* \"#utility.yul\":8566:8569   */\n      dup3\n        /* \"#utility.yul\":8562:8574   */\n      add\n        /* \"#utility.yul\":8555:8574   */\n      swap1\n      pop\n        /* \"#utility.yul\":8214:8580   */\n      swap2\n      swap1\n      pop\n      jump\t// out\n        /* \"#utility.yul\":8586:9005   */\n    tag_92:\n        /* \"#utility.yul\":8752:8756   */\n      0x00\n        /* \"#utility.yul\":8790:8792   */\n      0x20\n        /* \"#utility.yul\":8779:8788   */\n      dup3\n        /* \"#utility.yul\":8775:8793   */\n      add\n        /* \"#utility.yul\":8767:8793   */\n      swap1\n      pop\n        /* \"#utility.yul\":8839:8848   */\n      dup2\n        /* \"#utility.yul\":8833:8837   */\n      dup2\n        /* \"#utility.yul\":8829:8849   */\n      sub\n        /* \"#utility.yul\":8825:8826   */\n      0x00\n        /* \"#utility.yul\":8814:8823   */\n      dup4\n        /* \"#utility.yul\":8810:8827   */\n      add\n        /* \"#utility.yul\":8803:8850   */\n      mstore\n        /* \"#utility.yul\":8867:8998   */\n      tag_250\n        /* \"#utility.yul\":8993:8997   */\n      dup2\n        /* \"#utility.yul\":8867:8998   */\n      tag_154\n      jump\t// in\n    tag_250:\n        /* \"#utility.yul\":8859:8998   */\n      swap1\n      pop\n        /* \"#utility.yul\":8586:9005   */\n      swap2\n      swap1\n      pop\n      jump\t// out\n        /* \"#utility.yul\":9011:9178   */\n    tag_155:\n        /* \"#utility.yul\":9151:9170   */\n      0x696e73756666696369656e7420706f6f6c000000000000000000000000000000\n        /* \"#utility.yul\":9147:9148   */\n      0x00\n        /* \"#utility.yul\":9139:9145   */\n      dup3\n        /* \"#utility.yul\":9135:9149   */\n      add\n        /* \"#utility.yul\":9128:9171   */\n      mstore\n        /* \"#utility.yul\":9011:9178   */\n      pop\n      jump\t// out\n        /* \"#utility.yul\":9184:9550   */\n    tag_156:\n        /* \"#utility.yul\":9326:9329   */\n      0x00\n        /* \"#utility.yul\":9347:9414   */\n      tag_253\n        /* \"#utility.yul\":9411:9413   */\n      0x11\n        /* \"#utility.yul\":9406:9409   */\n      dup4\n        /* \"#utility.yul\":9347:9414   */\n      tag_146\n      jump\t// in\n    tag_253:\n        /* \"#utility.yul\":9340:9414   */\n      swap2\n      pop\n        /* \"#utility.yul\":9423:9516   */\n      tag_254\n        /* \"#utility.yul\":9512:9515   */\n      dup3\n        /* \"#utility.yul\":9423:9516   */\n      tag_155\n      jump\t// in\n    tag_254:\n        /* \"#utility.yul\":9541:9543   */\n      0x20\n        /* \"#utility.yul\":9536:9539   */\n      dup3\n        /* \"#utility.yul\":9532:9544   */\n      add\n        /* \"#utility.yul\":9525:9544   */\n      swap1\n      pop\n        /* \"#utility.yul\":9184:9550   */\n      swap2\n      swap1\n      pop\n      jump\t// out\n        /* \"#utility.yul\":9556:9975   */\n    tag_95:\n        /* \"#utility.yul\":9722:9726   */\n      0x00\n        /* \"#utility.yul\":9760:9762   */\n      0x20\n        /* \"#utility.yul\":9749:9758   */\n      dup3\n        /* \"#utility.yul\":9745:9763   */\n      add\n        /* \"#utility.yul\":9737:9763   */\n      swap1\n      pop\n        /* \"#utility.yul\":9809:9818   */\n      dup2\n        /* \"#utility.yul\":9803:9807   */\n      dup2\n        /* \"#utility.yul\":9799:9819   */\n      sub\n        /* \"#utility.yul\":9795:9796   */\n      0x00\n        /* \"#utility.yul\":9784:9793   */\n      dup4\n        /* \"#utility.yul\":9780:9797   */\n      add\n        /* \"#utility.yul\":9773:9820   */\n      mstore\n        /* \"#utility.yul\":9837:9968   */\n      tag_256\n        /* \"#utility.yul\":9963:9967   */\n      dup2\n        /* \"#utility.yul\":9837:9968   */\n      tag_156\n      jump\t// in\n    tag_256:\n        /* \"#utility.yul\":9829:9968   */\n      swap1\n      pop\n        /* \"#utility.yul\":9556:9975   */\n      swap2\n      swap1\n      pop\n      jump\t// out\n        /* \"#utility.yul\":9981:10135   */\n    tag_157:\n        /* \"#utility.yul\":10121:10127   */\n      0x7a65726f00000000000000000000000000000000000000000000000000000000\n        /* \"#utility.yul\":10117:10118   */\n      0x00\n        /* \"#utility.yul\":10109:10115   */\n      dup3\n        /* \"#utility.yul\":10105:10119   */\n      add\n        /* \"#utility.yul\":10098:10128   */\n      mstore\n        /* \"#utility.yul\":9981:10135   */\n      pop\n      jump\t// out\n        /* \"#utility.yul\":10141:10506   */\n    tag_158:\n        /* \"#utility.yul\":10283:10286   */\n      0x00\n        /* \"#utility.yul\":10304:10370   */\n      tag_259\n        /* \"#utility.yul\":10368:10369   */\n      0x04\n        /* \"#utility.yul\":10363:10366   */\n      dup4\n        /* \"#utility.yul\":10304:10370   */\n      tag_146\n      jump\t// in\n    tag_259:\n        /* \"#utility.yul\":10297:10370   */\n      swap2\n      pop\n        /* \"#utility.yul\":10379:10472   */\n      tag_260\n        /* \"#utility.yul\":10468:10471   */\n      dup3\n        /* \"#utility.yul\":10379:10472   */\n      tag_157\n      jump\t// in\n    tag_260:\n        /* \"#utility.yul\":10497:10499   */\n      0x20\n        /* \"#utility.yul\":10492:10495   */\n      dup3\n        /* \"#utility.yul\":10488:10500   */\n      add\n        /* \"#utility.yul\":10481:10500   */\n      swap1\n      pop\n        /* \"#utility.yul\":10141:10506   */\n      swap2\n      swap1\n      pop\n      jump\t// out\n        /* \"#utility.yul\":10512:10931   */\n    tag_105:\n        /* \"#utility.yul\":10678:10682   */\n      0x00\n        /* \"#utility.yul\":10716:10718   */\n      0x20\n        /* \"#utility.yul\":10705:10714   */\n      dup3\n        /* \"#utility.yul\":10701:10719   */\n      add\n        /* \"#utility.yul\":10693:10719   */\n      swap1\n      pop\n        /* \"#utility.yul\":10765:10774   */\n      dup2\n        /* \"#utility.yul\":10759:10763   */\n      dup2\n        /* \"#utility.yul\":10755:10775   */\n      sub\n        /* \"#utility.yul\":10751:10752   */\n      0x00\n        /* \"#utility.yul\":10740:10749   */\n      dup4\n        /* \"#utility.yul\":10736:10753   */\n      add\n        /* \"#utility.yul\":10729:10776   */\n      mstore\n        /* \"#utility.yul\":10793:10924   */\n      tag_262\n        /* \"#utility.yul\":10919:10923   */\n      dup2\n        /* \"#utility.yul\":10793:10924   */\n      tag_158\n      jump\t// in\n    tag_262:\n        /* \"#utility.yul\":10785:10924   */\n      swap1\n      pop\n        /* \"#utility.yul\":10512:10931   */\n      swap2\n      swap1\n      pop\n      jump\t// out\n        /* \"#utility.yul\":10937:11099   */\n    tag_159:\n        /* \"#utility.yul\":11077:11091   */\n      0x696e73756666696369656e740000000000000000000000000000000000000000\n        /* \"#utility.yul\":11073:11074   */\n      0x00\n        /* \"#utility.yul\":11065:11071   */\n      dup3\n        /* \"#utility.yul\":11061:11075   */\n      add\n        /* \"#utility.yul\":11054:11092   */\n      mstore\n        /* \"#utility.yul\":10937:11099   */\n      pop\n      jump\t// out\n        /* \"#utility.yul\":11105:11471   */\n    tag_160:\n        /* \"#utility.yul\":11247:11250   */\n      0x00\n        /* \"#utility.yul\":11268:11335   */\n      tag_265\n        /* \"#utility.yul\":11332:11334   */\n      0x0c\n        /* \"#utility.yul\":11327:11330   */\n      dup4\n        /* \"#utility.yul\":11268:11335   */\n      tag_146\n      jump\t// in\n    tag_265:\n        /* \"#utility.yul\":11261:11335   */\n      swap2\n      pop\n        /* \"#utility.yul\":11344:11437   */\n      tag_266\n        /* \"#utility.yul\":11433:11436   */\n      dup3\n        /* \"#utility.yul\":11344:11437   */\n      tag_159\n      jump\t// in\n    tag_266:\n        /* \"#utility.yul\":11462:11464   */\n      0x20\n        /* \"#utility.yul\":11457:11460   */\n      dup3\n        /* \"#utility.yul\":11453:11465   */\n      add\n        /* \"#utility.yul\":11446:11465   */\n      swap1\n      pop\n        /* \"#utility.yul\":11105:11471   */\n      swap2\n      swap1\n      pop\n      jump\t// out\n        /* \"#utility.yul\":11477:11896   */\n    tag_115:\n        /* \"#utility.yul\":11643:11647   */\n      0x00\n        /* \"#utility.yul\":11681:11683   */\n      0x20\n        /* \"#utility.yul\":11670:11679   */\n      dup3\n        /* \"#utility.yul\":11666:11684   */\n      add\n        /* \"#utility.yul\":11658:11684   */\n      swap1\n      pop\n        /* \"#utility.yul\":11730:11739   */\n      dup2\n        /* \"#utility.yul\":11724:11728   */\n      dup2\n        /* \"#utility.yul\":11720:11740   */\n      sub\n        /* \"#utility.yul\":11716:11717   */\n      0x00\n        /* \"#utility.yul\":11705:11714   */\n      dup4\n        /* \"#utility.yul\":11701:11718   */\n      add\n        /* \"#utility.yul\":11694:11741   */\n      mstore\n        /* \"#utility.yul\":11758:11889   */\n      tag_268\n        /* \"#utility.yul\":11884:11888   */\n      dup2\n        /* \"#utility.yul\":11758:11889   */\n      tag_160\n      jump\t// in\n    tag_268:\n        /* \"#utility.yul\":11750:11889   */\n      swap1\n      pop\n        /* \"#utility.yul\":11477:11896   */\n      swap2\n      swap1\n      pop\n      jump\t// out\n\n    auxdata: 0xa2646970667358221220b3b9077a7b5da719649547804baeddbb87a970a277ec132e2a1dc154560a513964736f6c63430008180033\n}\n",
				"bytecode": {
					"linkReferences": {},
					"object": "608060405260018055348015610013575f80fd5b50335f806101000a81548173ffffffffffffffffffffffffffffffffffffffff021916908373ffffffffffffffffffffffffffffffffffffffff1602179055506110c3806100605f395ff3fe60806040526004361061009f575f3560e01c8063b60d428811610063578063b60d42881461018a578063b69ef8a814610194578063c4076876146101be578063f2fde38b146101e6578063f3fef3a31461020e578063fa09e63014610236576100a6565b806302329a29146100aa5780635c975abb146100d2578063711bf9b2146100fc5780638da5cb5b146101245780639e492b991461014e576100a6565b366100a657005b5f80fd5b3480156100b5575f80fd5b506100d060048036038101906100cb9190610b68565b61025e565b005b3480156100dd575f80fd5b506100e661033e565b6040516100f39190610ba2565b60405180910390f35b348015610107575f80fd5b50610122600480360381019061011d9190610c15565b610350565b005b34801561012f575f80fd5b50610138610483565b6040516101459190610c62565b60405180910390f35b348015610159575f80fd5b50610174600480360381019061016f9190610c7b565b6104a6565b6040516101819190610ba2565b60405180910390f35b6101926104c3565b005b34801561019f575f80fd5b506101a86104c5565b6040516101b59190610cbe565b60405180910390f35b3480156101c9575f80fd5b506101e460048036038101906101df9190610d3c565b6104cc565b005b3480156101f1575f80fd5b5061020c60048036038101906102079190610c7b565b6106e7565b005b348015610219575f80fd5b50610234600480360381019061022f9190610d3c565b61089d565b005b348015610241575f80fd5b5061025c60048036038101906102579190610d7a565b610a08565b005b5f8054906101000a900473ffffffffffffffffffffffffffffffffffffffff1673ffffffffffffffffffffffffffffffffffffffff163373ffffffffffffffffffffffffffffffffffffffff16146102eb576040517f08c379a00000000000000000000000000000000000000000000000000000000081526004016102e290610dff565b60405180910390fd5b805f60146101000a81548160ff0219169083151502179055507f0e2fb031ee032dc02d8011dc50b816eb450cf856abd8261680dac74f72165bd2816040516103339190610ba2565b60405180910390a150565b5f60149054906101000a900460ff1681565b5f8054906101000a900473ffffffffffffffffffffffffffffffffffffffff1673ffffffffffffffffffffffffffffffffffffffff163373ffffffffffffffffffffffffffffffffffffffff16146103dd576040517f08c379a00000000000000000000000000000000000000000000000000000000081526004016103d490610dff565b60405180910390fd5b8060025f8473ffffffffffffffffffffffffffffffffffffffff1673ffffffffffffffffffffffffffffffffffffffff1681526020019081526020015f205f6101000a81548160ff0219169083151502179055508173ffffffffffffffffffffffffffffffffffffffff167f4c0079b9bcd37cd5d29a13938effd97c881798cbc6bd52a3026a29d94b27d1bf826040516104779190610ba2565b60405180910390a25050565b5f8054906101000a900473ffffffffffffffffffffffffffffffffffffffff1681565b6002602052805f5260405f205f915054906101000a900460ff1681565b565b5f47905090565b6001805414610510576040517f08c379a000000000000000000000000000000000000000000000000000000000815260040161050790610e67565b60405180910390fd5b60026001819055505f60149054906101000a900460ff1615610567576040517f08c379a000000000000000000000000000000000000000000000000000000000815260040161055e90610ecf565b60405180910390fd5b60025f3373ffffffffffffffffffffffffffffffffffffffff1673ffffffffffffffffffffffffffffffffffffffff1681526020019081526020015f205f9054906101000a900460ff166105f0576040517f08c379a00000000000000000000000000000000000000000000000000000000081526004016105e790610f37565b60405180910390fd5b80471015610633576040517f08c379a000000000000000000000000000000000000000000000000000000000815260040161062a90610f9f565b60405180910390fd5b8173ffffffffffffffffffffffffffffffffffffffff166108fc8290811502906040515f60405180830381858888f19350505050158015610676573d5f803e3d5ffd5b503373ffffffffffffffffffffffffffffffffffffffff168273ffffffffffffffffffffffffffffffffffffffff167fdad97236b77394a5ee3dd23dd08678094ed216aa89031dd9dfae8d01b9226e89836040516106d49190610cbe565b60405180910390a3600180819055505050565b5f8054906101000a900473ffffffffffffffffffffffffffffffffffffffff1673ffffffffffffffffffffffffffffffffffffffff163373ffffffffffffffffffffffffffffffffffffffff1614610774576040517f08c379a000000000000000000000000000000000000000000000000000000000815260040161076b90610dff565b60405180910390fd5b5f73ffffffffffffffffffffffffffffffffffffffff168173ffffffffffffffffffffffffffffffffffffffff16036107e2576040517f08c379a00000000000000000000000000000000000000000000000000000000081526004016107d990611007565b60405180910390fd5b8073ffffffffffffffffffffffffffffffffffffffff165f8054906101000a900473ffffffffffffffffffffffffffffffffffffffff1673ffffffffffffffffffffffffffffffffffffffff167f8be0079c531659141344cd1fd0a4f28419497f9722a3daafe3b4186f6b6457e060405160405180910390a3805f806101000a81548173ffffffffffffffffffffffffffffffffffffffff021916908373ffffffffffffffffffffffffffffffffffffffff16021790555050565b5f8054906101000a900473ffffffffffffffffffffffffffffffffffffffff1673ffffffffffffffffffffffffffffffffffffffff163373ffffffffffffffffffffffffffffffffffffffff161461092a576040517f08c379a000000000000000000000000000000000000000000000000000000000815260040161092190610dff565b60405180910390fd5b600180541461096e576040517f08c379a000000000000000000000000000000000000000000000000000000000815260040161096590610e67565b60405180910390fd5b6002600181905550804710156109b9576040517f08c379a00000000000000000000000000000000000000000000000000000000081526004016109b09061106f565b60405180910390fd5b8173ffffffffffffffffffffffffffffffffffffffff166108fc8290811502906040515f60405180830381858888f193505050501580156109fc573d5f803e3d5ffd5b50600180819055505050565b5f8054906101000a900473ffffffffffffffffffffffffffffffffffffffff1673ffffffffffffffffffffffffffffffffffffffff163373ffffffffffffffffffffffffffffffffffffffff1614610a95576040517f08c379a0000000000000000000000000000000000000000000000000000000008152600401610a8c90610dff565b60405180910390fd5b6001805414610ad9576040517f08c379a0000000000000000000000000000000000000000000000000000000008152600401610ad090610e67565b60405180910390fd5b60026001819055508073ffffffffffffffffffffffffffffffffffffffff166108fc4790811502906040515f60405180830381858888f19350505050158015610b24573d5f803e3d5ffd5b506001808190555050565b5f80fd5b5f8115159050919050565b610b4781610b33565b8114610b51575f80fd5b50565b5f81359050610b6281610b3e565b92915050565b5f60208284031215610b7d57610b7c610b2f565b5b5f610b8a84828501610b54565b91505092915050565b610b9c81610b33565b82525050565b5f602082019050610bb55f830184610b93565b92915050565b5f73ffffffffffffffffffffffffffffffffffffffff82169050919050565b5f610be482610bbb565b9050919050565b610bf481610bda565b8114610bfe575f80fd5b50565b5f81359050610c0f81610beb565b92915050565b5f8060408385031215610c2b57610c2a610b2f565b5b5f610c3885828601610c01565b9250506020610c4985828601610b54565b9150509250929050565b610c5c81610bda565b82525050565b5f602082019050610c755f830184610c53565b92915050565b5f60208284031215610c9057610c8f610b2f565b5b5f610c9d84828501610c01565b91505092915050565b5f819050919050565b610cb881610ca6565b82525050565b5f602082019050610cd15f830184610caf565b92915050565b5f610ce182610bbb565b9050919050565b610cf181610cd7565b8114610cfb575f80fd5b50565b5f81359050610d0c81610ce8565b92915050565b610d1b81610ca6565b8114610d25575f80fd5b50565b5f81359050610d3681610d12565b92915050565b5f8060408385031215610d5257610d51610b2f565b5b5f610d5f85828601610cfe565b9250506020610d7085828601610d28565b9150509250929050565b5f60208284031215610d8f57610d8e610b2f565b5b5f610d9c84828501610cfe565b91505092915050565b5f82825260208201905092915050565b7f6e6f74206f776e657200000000000000000000000000000000000000000000005f82015250565b5f610de9600983610da5565b9150610df482610db5565b602082019050919050565b5f6020820190508181035f830152610e1681610ddd565b9050919050565b7f7265656e7472616e7400000000000000000000000000000000000000000000005f82015250565b5f610e51600983610da5565b9150610e5c82610e1d565b602082019050919050565b5f6020820190508181035f830152610e7e81610e45565b9050919050565b7f70617573656400000000000000000000000000000000000000000000000000005f82015250565b5f610eb9600683610da5565b9150610ec482610e85565b602082019050919050565b5f6020820190508181035f830152610ee681610ead565b9050919050565b7f6e6f7420617574686f72697a65640000000000000000000000000000000000005f82015250565b5f610f21600e83610da5565b9150610f2c82610eed565b602082019050919050565b5f6020820190508181035f830152610f4e81610f15565b9050919050565b7f696e73756666696369656e7420706f6f6c0000000000000000000000000000005f82015250565b5f610f89601183610da5565b9150610f9482610f55565b602082019050919050565b5f6020820190508181035f830152610fb681610f7d565b9050919050565b7f7a65726f000000000000000000000000000000000000000000000000000000005f82015250565b5f610ff1600483610da5565b9150610ffc82610fbd565b602082019050919050565b5f6020820190508181035f83015261101e81610fe5565b9050919050565b7f696e73756666696369656e7400000000000000000000000000000000000000005f82015250565b5f611059600c83610da5565b915061106482611025565b602082019050919050565b5f6020820190508181035f8301526110868161104d565b905091905056fea2646970667358221220b3b9077a7b5da719649547804baeddbb87a970a277ec132e2a1dc154560a513964736f6c63430008180033",
					"opcodes": "PUSH1 0x80 PUSH1 0x40 MSTORE PUSH1 0x1 DUP1 SSTORE CALLVALUE DUP1 ISZERO PUSH2 0x13 JUMPI PUSH0 DUP1 REVERT JUMPDEST POP CALLER PUSH0 DUP1 PUSH2 0x100 EXP DUP2 SLOAD DUP2 PUSH20 0xFFFFFFFFFFFFFFFFFFFFFFFFFFFFFFFFFFFFFFFF MUL NOT AND SWAP1 DUP4 PUSH20 0xFFFFFFFFFFFFFFFFFFFFFFFFFFFFFFFFFFFFFFFF AND MUL OR SWAP1 SSTORE POP PUSH2 0x10C3 DUP1 PUSH2 0x60 PUSH0 CODECOPY PUSH0 RETURN INVALID PUSH1 0x80 PUSH1 0x40 MSTORE PUSH1 0x4 CALLDATASIZE LT PUSH2 0x9F JUMPI PUSH0 CALLDATALOAD PUSH1 0xE0 SHR DUP1 PUSH4 0xB60D4288 GT PUSH2 0x63 JUMPI DUP1 PUSH4 0xB60D4288 EQ PUSH2 0x18A JUMPI DUP1 PUSH4 0xB69EF8A8 EQ PUSH2 0x194 JUMPI DUP1 PUSH4 0xC4076876 EQ PUSH2 0x1BE JUMPI DUP1 PUSH4 0xF2FDE38B EQ PUSH2 0x1E6 JUMPI DUP1 PUSH4 0xF3FEF3A3 EQ PUSH2 0x20E JUMPI DUP1 PUSH4 0xFA09E630 EQ PUSH2 0x236 JUMPI PUSH2 0xA6 JUMP JUMPDEST DUP1 PUSH4 0x2329A29 EQ PUSH2 0xAA JUMPI DUP1 PUSH4 0x5C975ABB EQ PUSH2 0xD2 JUMPI DUP1 PUSH4 0x711BF9B2 EQ PUSH2 0xFC JUMPI DUP1 PUSH4 0x8DA5CB5B EQ PUSH2 0x124 JUMPI DUP1 PUSH4 0x9E492B99 EQ PUSH2 0x14E JUMPI PUSH2 0xA6 JUMP JUMPDEST CALLDATASIZE PUSH2 0xA6 JUMPI STOP JUMPDEST PUSH0 DUP1 REVERT JUMPDEST CALLVALUE DUP1 ISZERO PUSH2 0xB5 JUMPI PUSH0 DUP1 REVERT JUMPDEST POP PUSH2 0xD0 PUSH1 0x4 DUP1 CALLDATASIZE SUB DUP2 ADD SWAP1 PUSH2 0xCB SWAP2 SWAP1 PUSH2 0xB68 JUMP JUMPDEST PUSH2 0x25E JUMP JUMPDEST STOP JUMPDEST CALLVALUE DUP1 ISZERO PUSH2 0xDD JUMPI PUSH0 DUP1 REVERT JUMPDEST POP PUSH2 0xE6 PUSH2 0x33E JUMP JUMPDEST PUSH1 0x40 MLOAD PUSH2 0xF3 SWAP2 SWAP1 PUSH2 0xBA2 JUMP JUMPDEST PUSH1 0x40 MLOAD DUP1 SWAP2 SUB SWAP1 RETURN JUMPDEST CALLVALUE DUP1 ISZERO PUSH2 0x107 JUMPI PUSH0 DUP1 REVERT JUMPDEST POP PUSH2 0x122 PUSH1 0x4 DUP1 CALLDATASIZE SUB DUP2 ADD SWAP1 PUSH2 0x11D SWAP2 SWAP1 PUSH2 0xC15 JUMP JUMPDEST PUSH2 0x350 JUMP JUMPDEST STOP JUMPDEST CALLVALUE DUP1 ISZERO PUSH2 0x12F JUMPI PUSH0 DUP1 REVERT JUMPDEST POP PUSH2 0x138 PUSH2 0x483 JUMP JUMPDEST PUSH1 0x40 MLOAD PUSH2 0x145 SWAP2 SWAP1 PUSH2 0xC62 JUMP JUMPDEST PUSH1 0x40 MLOAD DUP1 SWAP2 SUB SWAP1 RETURN JUMPDEST CALLVALUE DUP1 ISZERO PUSH2 0x159 JUMPI PUSH0 DUP1 REVERT JUMPDEST POP PUSH2 0x174 PUSH1 0x4 DUP1 CALLDATASIZE SUB DUP2 ADD SWAP1 PUSH2 0x16F SWAP2 SWAP1 PUSH2 0xC7B JUMP JUMPDEST PUSH2 0x4A6 JUMP JUMPDEST PUSH1 0x40 MLOAD PUSH2 0x181 SWAP2 SWAP1 PUSH2 0xBA2 JUMP JUMPDEST PUSH1 0x40 MLOAD DUP1 SWAP2 SUB SWAP1 RETURN JUMPDEST PUSH2 0x192 PUSH2 0x4C3 JUMP JUMPDEST STOP JUMPDEST CALLVALUE DUP1 ISZERO PUSH2 0x19F JUMPI PUSH0 DUP1 REVERT JUMPDEST POP PUSH2 0x1A8 PUSH2 0x4C5 JUMP JUMPDEST PUSH1 0x40 MLOAD PUSH2 0x1B5 SWAP2 SWAP1 PUSH2 0xCBE JUMP JUMPDEST PUSH1 0x40 MLOAD DUP1 SWAP2 SUB SWAP1 RETURN JUMPDEST CALLVALUE DUP1 ISZERO PUSH2 0x1C9 JUMPI PUSH0 DUP1 REVERT JUMPDEST POP PUSH2 0x1E4 PUSH1 0x4 DUP1 CALLDATASIZE SUB DUP2 ADD SWAP1 PUSH2 0x1DF SWAP2 SWAP1 PUSH2 0xD3C JUMP JUMPDEST PUSH2 0x4CC JUMP JUMPDEST STOP JUMPDEST CALLVALUE DUP1 ISZERO PUSH2 0x1F1 JUMPI PUSH0 DUP1 REVERT JUMPDEST POP PUSH2 0x20C PUSH1 0x4 DUP1 CALLDATASIZE SUB DUP2 ADD SWAP1 PUSH2 0x207 SWAP2 SWAP1 PUSH2 0xC7B JUMP JUMPDEST PUSH2 0x6E7 JUMP JUMPDEST STOP JUMPDEST CALLVALUE DUP1 ISZERO PUSH2 0x219 JUMPI PUSH0 DUP1 REVERT JUMPDEST POP PUSH2 0x234 PUSH1 0x4 DUP1 CALLDATASIZE SUB DUP2 ADD SWAP1 PUSH2 0x22F SWAP2 SWAP1 PUSH2 0xD3C JUMP JUMPDEST PUSH2 0x89D JUMP JUMPDEST STOP JUMPDEST CALLVALUE DUP1 ISZERO PUSH2 0x241 JUMPI PUSH0 DUP1 REVERT JUMPDEST POP PUSH2 0x25C PUSH1 0x4 DUP1 CALLDATASIZE SUB DUP2 ADD SWAP1 PUSH2 0x257 SWAP2 SWAP1 PUSH2 0xD7A JUMP JUMPDEST PUSH2 0xA08 JUMP JUMPDEST STOP JUMPDEST PUSH0 DUP1 SLOAD SWAP1 PUSH2 0x100 EXP SWAP1 DIV PUSH20 0xFFFFFFFFFFFFFFFFFFFFFFFFFFFFFFFFFFFFFFFF AND PUSH20 0xFFFFFFFFFFFFFFFFFFFFFFFFFFFFFFFFFFFFFFFF AND CALLER PUSH20 0xFFFFFFFFFFFFFFFFFFFFFFFFFFFFFFFFFFFFFFFF AND EQ PUSH2 0x2EB JUMPI PUSH1 0x40 MLOAD PUSH32 0x8C379A000000000000000000000000000000000000000000000000000000000 DUP2 MSTORE PUSH1 0x4 ADD PUSH2 0x2E2 SWAP1 PUSH2 0xDFF JUMP JUMPDEST PUSH1 0x40 MLOAD DUP1 SWAP2 SUB SWAP1 REVERT JUMPDEST DUP1 PUSH0 PUSH1 0x14 PUSH2 0x100 EXP DUP2 SLOAD DUP2 PUSH1 0xFF MUL NOT AND SWAP1 DUP4 ISZERO ISZERO MUL OR SWAP1 SSTORE POP PUSH32 0xE2FB031EE032DC02D8011DC50B816EB450CF856ABD8261680DAC74F72165BD2 DUP2 PUSH1 0x40 MLOAD PUSH2 0x333 SWAP2 SWAP1 PUSH2 0xBA2 JUMP JUMPDEST PUSH1 0x40 MLOAD DUP1 SWAP2 SUB SWAP1 LOG1 POP JUMP JUMPDEST PUSH0 PUSH1 0x14 SWAP1 SLOAD SWAP1 PUSH2 0x100 EXP SWAP1 DIV PUSH1 0xFF AND DUP2 JUMP JUMPDEST PUSH0 DUP1 SLOAD SWAP1 PUSH2 0x100 EXP SWAP1 DIV PUSH20 0xFFFFFFFFFFFFFFFFFFFFFFFFFFFFFFFFFFFFFFFF AND PUSH20 0xFFFFFFFFFFFFFFFFFFFFFFFFFFFFFFFFFFFFFFFF AND CALLER PUSH20 0xFFFFFFFFFFFFFFFFFFFFFFFFFFFFFFFFFFFFFFFF AND EQ PUSH2 0x3DD JUMPI PUSH1 0x40 MLOAD PUSH32 0x8C379A000000000000000000000000000000000000000000000000000000000 DUP2 MSTORE PUSH1 0x4 ADD PUSH2 0x3D4 SWAP1 PUSH2 0xDFF JUMP JUMPDEST PUSH1 0x40 MLOAD DUP1 SWAP2 SUB SWAP1 REVERT JUMPDEST DUP1 PUSH1 0x2 PUSH0 DUP5 PUSH20 0xFFFFFFFFFFFFFFFFFFFFFFFFFFFFFFFFFFFFFFFF AND PUSH20 0xFFFFFFFFFFFFFFFFFFFFFFFFFFFFFFFFFFFFFFFF AND DUP2 MSTORE PUSH1 0x20 ADD SWAP1 DUP2 MSTORE PUSH1 0x20 ADD PUSH0 KECCAK256 PUSH0 PUSH2 0x100 EXP DUP2 SLOAD DUP2 PUSH1 0xFF MUL NOT AND SWAP1 DUP4 ISZERO ISZERO MUL OR SWAP1 SSTORE POP DUP2 PUSH20 0xFFFFFFFFFFFFFFFFFFFFFFFFFFFFFFFFFFFFFFFF AND PUSH32 0x4C0079B9BCD37CD5D29A13938EFFD97C881798CBC6BD52A3026A29D94B27D1BF DUP3 PUSH1 0x40 MLOAD PUSH2 0x477 SWAP2 SWAP1 PUSH2 0xBA2 JUMP JUMPDEST PUSH1 0x40 MLOAD DUP1 SWAP2 SUB SWAP1 LOG2 POP POP JUMP JUMPDEST PUSH0 DUP1 SLOAD SWAP1 PUSH2 0x100 EXP SWAP1 DIV PUSH20 0xFFFFFFFFFFFFFFFFFFFFFFFFFFFFFFFFFFFFFFFF AND DUP2 JUMP JUMPDEST PUSH1 0x2 PUSH1 0x20 MSTORE DUP1 PUSH0 MSTORE PUSH1 0x40 PUSH0 KECCAK256 PUSH0 SWAP2 POP SLOAD SWAP1 PUSH2 0x100 EXP SWAP1 DIV PUSH1 0xFF AND DUP2 JUMP JUMPDEST JUMP JUMPDEST PUSH0 SELFBALANCE SWAP1 POP SWAP1 JUMP JUMPDEST PUSH1 0x1 DUP1 SLOAD EQ PUSH2 0x510 JUMPI PUSH1 0x40 MLOAD PUSH32 0x8C379A000000000000000000000000000000000000000000000000000000000 DUP2 MSTORE PUSH1 0x4 ADD PUSH2 0x507 SWAP1 PUSH2 0xE67 JUMP JUMPDEST PUSH1 0x40 MLOAD DUP1 SWAP2 SUB SWAP1 REVERT JUMPDEST PUSH1 0x2 PUSH1 0x1 DUP2 SWAP1 SSTORE POP PUSH0 PUSH1 0x14 SWAP1 SLOAD SWAP1 PUSH2 0x100 EXP SWAP1 DIV PUSH1 0xFF AND ISZERO PUSH2 0x567 JUMPI PUSH1 0x40 MLOAD PUSH32 0x8C379A000000000000000000000000000000000000000000000000000000000 DUP2 MSTORE PUSH1 0x4 ADD PUSH2 0x55E SWAP1 PUSH2 0xECF JUMP JUMPDEST PUSH1 0x40 MLOAD DUP1 SWAP2 SUB SWAP1 REVERT JUMPDEST PUSH1 0x2 PUSH0 CALLER PUSH20 0xFFFFFFFFFFFFFFFFFFFFFFFFFFFFFFFFFFFFFFFF AND PUSH20 0xFFFFFFFFFFFFFFFFFFFFFFFFFFFFFFFFFFFFFFFF AND DUP2 MSTORE PUSH1 0x20 ADD SWAP1 DUP2 MSTORE PUSH1 0x20 ADD PUSH0 KECCAK256 PUSH0 SWAP1 SLOAD SWAP1 PUSH2 0x100 EXP SWAP1 DIV PUSH1 0xFF AND PUSH2 0x5F0 JUMPI PUSH1 0x40 MLOAD PUSH32 0x8C379A000000000000000000000000000000000000000000000000000000000 DUP2 MSTORE PUSH1 0x4 ADD PUSH2 0x5E7 SWAP1 PUSH2 0xF37 JUMP JUMPDEST PUSH1 0x40 MLOAD DUP1 SWAP2 SUB SWAP1 REVERT JUMPDEST DUP1 SELFBALANCE LT ISZERO PUSH2 0x633 JUMPI PUSH1 0x40 MLOAD PUSH32 0x8C379A000000000000000000000000000000000000000000000000000000000 DUP2 MSTORE PUSH1 0x4 ADD PUSH2 0x62A SWAP1 PUSH2 0xF9F JUMP JUMPDEST PUSH1 0x40 MLOAD DUP1 SWAP2 SUB SWAP1 REVERT JUMPDEST DUP2 PUSH20 0xFFFFFFFFFFFFFFFFFFFFFFFFFFFFFFFFFFFFFFFF AND PUSH2 0x8FC DUP3 SWAP1 DUP2 ISZERO MUL SWAP1 PUSH1 0x40 MLOAD PUSH0 PUSH1 0x40 MLOAD DUP1 DUP4 SUB DUP2 DUP6 DUP9 DUP9 CALL SWAP4 POP POP POP POP ISZERO DUP1 ISZERO PUSH2 0x676 JUMPI RETURNDATASIZE PUSH0 DUP1 RETURNDATACOPY RETURNDATASIZE PUSH0 REVERT JUMPDEST POP CALLER PUSH20 0xFFFFFFFFFFFFFFFFFFFFFFFFFFFFFFFFFFFFFFFF AND DUP3 PUSH20 0xFFFFFFFFFFFFFFFFFFFFFFFFFFFFFFFFFFFFFFFF AND PUSH32 0xDAD97236B77394A5EE3DD23DD08678094ED216AA89031DD9DFAE8D01B9226E89 DUP4 PUSH1 0x40 MLOAD PUSH2 0x6D4 SWAP2 SWAP1 PUSH2 0xCBE JUMP JUMPDEST PUSH1 0x40 MLOAD DUP1 SWAP2 SUB SWAP1 LOG3 PUSH1 0x1 DUP1 DUP2 SWAP1 SSTORE POP POP POP JUMP JUMPDEST PUSH0 DUP1 SLOAD SWAP1 PUSH2 0x100 EXP SWAP1 DIV PUSH20 0xFFFFFFFFFFFFFFFFFFFFFFFFFFFFFFFFFFFFFFFF AND PUSH20 0xFFFFFFFFFFFFFFFFFFFFFFFFFFFFFFFFFFFFFFFF AND CALLER PUSH20 0xFFFFFFFFFFFFFFFFFFFFFFFFFFFFFFFFFFFFFFFF AND EQ PUSH2 0x774 JUMPI PUSH1 0x40 MLOAD PUSH32 0x8C379A000000000000000000000000000000000000000000000000000000000 DUP2 MSTORE PUSH1 0x4 ADD PUSH2 0x76B SWAP1 PUSH2 0xDFF JUMP JUMPDEST PUSH1 0x40 MLOAD DUP1 SWAP2 SUB SWAP1 REVERT JUMPDEST PUSH0 PUSH20 0xFFFFFFFFFFFFFFFFFFFFFFFFFFFFFFFFFFFFFFFF AND DUP2 PUSH20 0xFFFFFFFFFFFFFFFFFFFFFFFFFFFFFFFFFFFFFFFF AND SUB PUSH2 0x7E2 JUMPI PUSH1 0x40 MLOAD PUSH32 0x8C379A000000000000000000000000000000000000000000000000000000000 DUP2 MSTORE PUSH1 0x4 ADD PUSH2 0x7D9 SWAP1 PUSH2 0x1007 JUMP JUMPDEST PUSH1 0x40 MLOAD DUP1 SWAP2 SUB SWAP1 REVERT JUMPDEST DUP1 PUSH20 0xFFFFFFFFFFFFFFFFFFFFFFFFFFFFFFFFFFFFFFFF AND PUSH0 DUP1 SLOAD SWAP1 PUSH2 0x100 EXP SWAP1 DIV PUSH20 0xFFFFFFFFFFFFFFFFFFFFFFFFFFFFFFFFFFFFFFFF AND PUSH20 0xFFFFFFFFFFFFFFFFFFFFFFFFFFFFFFFFFFFFFFFF AND PUSH32 0x8BE0079C531659141344CD1FD0A4F28419497F9722A3DAAFE3B4186F6B6457E0 PUSH1 0x40 MLOAD PUSH1 0x40 MLOAD DUP1 SWAP2 SUB SWAP1 LOG3 DUP1 PUSH0 DUP1 PUSH2 0x100 EXP DUP2 SLOAD DUP2 PUSH20 0xFFFFFFFFFFFFFFFFFFFFFFFFFFFFFFFFFFFFFFFF MUL NOT AND SWAP1 DUP4 PUSH20 0xFFFFFFFFFFFFFFFFFFFFFFFFFFFFFFFFFFFFFFFF AND MUL OR SWAP1 SSTORE POP POP JUMP JUMPDEST PUSH0 DUP1 SLOAD SWAP1 PUSH2 0x100 EXP SWAP1 DIV PUSH20 0xFFFFFFFFFFFFFFFFFFFFFFFFFFFFFFFFFFFFFFFF AND PUSH20 0xFFFFFFFFFFFFFFFFFFFFFFFFFFFFFFFFFFFFFFFF AND CALLER PUSH20 0xFFFFFFFFFFFFFFFFFFFFFFFFFFFFFFFFFFFFFFFF AND EQ PUSH2 0x92A JUMPI PUSH1 0x40 MLOAD PUSH32 0x8C379A000000000000000000000000000000000000000000000000000000000 DUP2 MSTORE PUSH1 0x4 ADD PUSH2 0x921 SWAP1 PUSH2 0xDFF JUMP JUMPDEST PUSH1 0x40 MLOAD DUP1 SWAP2 SUB SWAP1 REVERT JUMPDEST PUSH1 0x1 DUP1 SLOAD EQ PUSH2 0x96E JUMPI PUSH1 0x40 MLOAD PUSH32 0x8C379A000000000000000000000000000000000000000000000000000000000 DUP2 MSTORE PUSH1 0x4 ADD PUSH2 0x965 SWAP1 PUSH2 0xE67 JUMP JUMPDEST PUSH1 0x40 MLOAD DUP1 SWAP2 SUB SWAP1 REVERT JUMPDEST PUSH1 0x2 PUSH1 0x1 DUP2 SWAP1 SSTORE POP DUP1 SELFBALANCE LT ISZERO PUSH2 0x9B9 JUMPI PUSH1 0x40 MLOAD PUSH32 0x8C379A000000000000000000000000000000000000000000000000000000000 DUP2 MSTORE PUSH1 0x4 ADD PUSH2 0x9B0 SWAP1 PUSH2 0x106F JUMP JUMPDEST PUSH1 0x40 MLOAD DUP1 SWAP2 SUB SWAP1 REVERT JUMPDEST DUP2 PUSH20 0xFFFFFFFFFFFFFFFFFFFFFFFFFFFFFFFFFFFFFFFF AND PUSH2 0x8FC DUP3 SWAP1 DUP2 ISZERO MUL SWAP1 PUSH1 0x40 MLOAD PUSH0 PUSH1 0x40 MLOAD DUP1 DUP4 SUB DUP2 DUP6 DUP9 DUP9 CALL SWAP4 POP POP POP POP ISZERO DUP1 ISZERO PUSH2 0x9FC JUMPI RETURNDATASIZE PUSH0 DUP1 RETURNDATACOPY RETURNDATASIZE PUSH0 REVERT JUMPDEST POP PUSH1 0x1 DUP1 DUP2 SWAP1 SSTORE POP POP POP JUMP JUMPDEST PUSH0 DUP1 SLOAD SWAP1 PUSH2 0x100 EXP SWAP1 DIV PUSH20 0xFFFFFFFFFFFFFFFFFFFFFFFFFFFFFFFFFFFFFFFF AND PUSH20 0xFFFFFFFFFFFFFFFFFFFFFFFFFFFFFFFFFFFFFFFF AND CALLER PUSH20 0xFFFFFFFFFFFFFFFFFFFFFFFFFFFFFFFFFFFFFFFF AND EQ PUSH2 0xA95 JUMPI PUSH1 0x40 MLOAD PUSH32 0x8C379A000000000000000000000000000000000000000000000000000000000 DUP2 MSTORE PUSH1 0x4 ADD PUSH2 0xA8C SWAP1 PUSH2 0xDFF JUMP JUMPDEST PUSH1 0x40 MLOAD DUP1 SWAP2 SUB SWAP1 REVERT JUMPDEST PUSH1 0x1 DUP1 SLOAD EQ PUSH2 0xAD9 JUMPI PUSH1 0x40 MLOAD PUSH32 0x8C379A000000000000000000000000000000000000000000000000000000000 DUP2 MSTORE PUSH1 0x4 ADD PUSH2 0xAD0 SWAP1 PUSH2 0xE67 JUMP JUMPDEST PUSH1 0x40 MLOAD DUP1 SWAP2 SUB SWAP1 REVERT JUMPDEST PUSH1 0x2 PUSH1 0x1 DUP2 SWAP1 SSTORE POP DUP1 PUSH20 0xFFFFFFFFFFFFFFFFFFFFFFFFFFFFFFFFFFFFFFFF AND PUSH2 0x8FC SELFBALANCE SWAP1 DUP2 ISZERO MUL SWAP1 PUSH1 0x40 MLOAD PUSH0 PUSH1 0x40 MLOAD DUP1 DUP4 SUB DUP2 DUP6 DUP9 DUP9 CALL SWAP4 POP POP POP POP ISZERO DUP1 ISZERO PUSH2 0xB24 JUMPI RETURNDATASIZE PUSH0 DUP1 RETURNDATACOPY RETURNDATASIZE PUSH0 REVERT JUMPDEST POP PUSH1 0x1 DUP1 DUP2 SWAP1 SSTORE POP POP JUMP JUMPDEST PUSH0 DUP1 REVERT JUMPDEST PUSH0 DUP2 ISZERO ISZERO SWAP1 POP SWAP2 SWAP1 POP JUMP JUMPDEST PUSH2 0xB47 DUP2 PUSH2 0xB33 JUMP JUMPDEST DUP2 EQ PUSH2 0xB51 JUMPI PUSH0 DUP1 REVERT JUMPDEST POP JUMP JUMPDEST PUSH0 DUP2 CALLDATALOAD SWAP1 POP PUSH2 0xB62 DUP2 PUSH2 0xB3E JUMP JUMPDEST SWAP3 SWAP2 POP POP JUMP JUMPDEST PUSH0 PUSH1 0x20 DUP3 DUP5 SUB SLT ISZERO PUSH2 0xB7D JUMPI PUSH2 0xB7C PUSH2 0xB2F JUMP JUMPDEST JUMPDEST PUSH0 PUSH2 0xB8A DUP5 DUP3 DUP6 ADD PUSH2 0xB54 JUMP JUMPDEST SWAP2 POP POP SWAP3 SWAP2 POP POP JUMP JUMPDEST PUSH2 0xB9C DUP2 PUSH2 0xB33 JUMP JUMPDEST DUP3 MSTORE POP POP JUMP JUMPDEST PUSH0 PUSH1 0x20 DUP3 ADD SWAP1 POP PUSH2 0xBB5 PUSH0 DUP4 ADD DUP5 PUSH2 0xB93 JUMP JUMPDEST SWAP3 SWAP2 POP POP JUMP JUMPDEST PUSH0 PUSH20 0xFFFFFFFFFFFFFFFFFFFFFFFFFFFFFFFFFFFFFFFF DUP3 AND SWAP1 POP SWAP2 SWAP1 POP JUMP JUMPDEST PUSH0 PUSH2 0xBE4 DUP3 PUSH2 0xBBB JUMP JUMPDEST SWAP1 POP SWAP2 SWAP1 POP JUMP JUMPDEST PUSH2 0xBF4 DUP2 PUSH2 0xBDA JUMP JUMPDEST DUP2 EQ PUSH2 0xBFE JUMPI PUSH0 DUP1 REVERT JUMPDEST POP JUMP JUMPDEST PUSH0 DUP2 CALLDATALOAD SWAP1 POP PUSH2 0xC0F DUP2 PUSH2 0xBEB JUMP JUMPDEST SWAP3 SWAP2 POP POP JUMP JUMPDEST PUSH0 DUP1 PUSH1 0x40 DUP4 DUP6 SUB SLT ISZERO PUSH2 0xC2B JUMPI PUSH2 0xC2A PUSH2 0xB2F JUMP JUMPDEST JUMPDEST PUSH0 PUSH2 0xC38 DUP6 DUP3 DUP7 ADD PUSH2 0xC01 JUMP JUMPDEST SWAP3 POP POP PUSH1 0x20 PUSH2 0xC49 DUP6 DUP3 DUP7 ADD PUSH2 0xB54 JUMP JUMPDEST SWAP2 POP POP SWAP3 POP SWAP3 SWAP1 POP JUMP JUMPDEST PUSH2 0xC5C DUP2 PUSH2 0xBDA JUMP JUMPDEST DUP3 MSTORE POP POP JUMP JUMPDEST PUSH0 PUSH1 0x20 DUP3 ADD SWAP1 POP PUSH2 0xC75 PUSH0 DUP4 ADD DUP5 PUSH2 0xC53 JUMP JUMPDEST SWAP3 SWAP2 POP POP JUMP JUMPDEST PUSH0 PUSH1 0x20 DUP3 DUP5 SUB SLT ISZERO PUSH2 0xC90 JUMPI PUSH2 0xC8F PUSH2 0xB2F JUMP JUMPDEST JUMPDEST PUSH0 PUSH2 0xC9D DUP5 DUP3 DUP6 ADD PUSH2 0xC01 JUMP JUMPDEST SWAP2 POP POP SWAP3 SWAP2 POP POP JUMP JUMPDEST PUSH0 DUP2 SWAP1 POP SWAP2 SWAP1 POP JUMP JUMPDEST PUSH2 0xCB8 DUP2 PUSH2 0xCA6 JUMP JUMPDEST DUP3 MSTORE POP POP JUMP JUMPDEST PUSH0 PUSH1 0x20 DUP3 ADD SWAP1 POP PUSH2 0xCD1 PUSH0 DUP4 ADD DUP5 PUSH2 0xCAF JUMP JUMPDEST SWAP3 SWAP2 POP POP JUMP JUMPDEST PUSH0 PUSH2 0xCE1 DUP3 PUSH2 0xBBB JUMP JUMPDEST SWAP1 POP SWAP2 SWAP1 POP JUMP JUMPDEST PUSH2 0xCF1 DUP2 PUSH2 0xCD7 JUMP JUMPDEST DUP2 EQ PUSH2 0xCFB JUMPI PUSH0 DUP1 REVERT JUMPDEST POP JUMP JUMPDEST PUSH0 DUP2 CALLDATALOAD SWAP1 POP PUSH2 0xD0C DUP2 PUSH2 0xCE8 JUMP JUMPDEST SWAP3 SWAP2 POP POP JUMP JUMPDEST PUSH2 0xD1B DUP2 PUSH2 0xCA6 JUMP JUMPDEST DUP2 EQ PUSH2 0xD25 JUMPI PUSH0 DUP1 REVERT JUMPDEST POP JUMP JUMPDEST PUSH0 DUP2 CALLDATALOAD SWAP1 POP PUSH2 0xD36 DUP2 PUSH2 0xD12 JUMP JUMPDEST SWAP3 SWAP2 POP POP JUMP JUMPDEST PUSH0 DUP1 PUSH1 0x40 DUP4 DUP6 SUB SLT ISZERO PUSH2 0xD52 JUMPI PUSH2 0xD51 PUSH2 0xB2F JUMP JUMPDEST JUMPDEST PUSH0 PUSH2 0xD5F DUP6 DUP3 DUP7 ADD PUSH2 0xCFE JUMP JUMPDEST SWAP3 POP POP PUSH1 0x20 PUSH2 0xD70 DUP6 DUP3 DUP7 ADD PUSH2 0xD28 JUMP JUMPDEST SWAP2 POP POP SWAP3 POP SWAP3 SWAP1 POP JUMP JUMPDEST PUSH0 PUSH1 0x20 DUP3 DUP5 SUB SLT ISZERO PUSH2 0xD8F JUMPI PUSH2 0xD8E PUSH2 0xB2F JUMP JUMPDEST JUMPDEST PUSH0 PUSH2 0xD9C DUP5 DUP3 DUP6 ADD PUSH2 0xCFE JUMP JUMPDEST SWAP2 POP POP SWAP3 SWAP2 POP POP JUMP JUMPDEST PUSH0 DUP3 DUP3 MSTORE PUSH1 0x20 DUP3 ADD SWAP1 POP SWAP3 SWAP2 POP POP JUMP JUMPDEST PUSH32 0x6E6F74206F776E65720000000000000000000000000000000000000000000000 PUSH0 DUP3 ADD MSTORE POP JUMP JUMPDEST PUSH0 PUSH2 0xDE9 PUSH1 0x9 DUP4 PUSH2 0xDA5 JUMP JUMPDEST SWAP2 POP PUSH2 0xDF4 DUP3 PUSH2 0xDB5 JUMP JUMPDEST PUSH1 0x20 DUP3 ADD SWAP1 POP SWAP2 SWAP1 POP JUMP JUMPDEST PUSH0 PUSH1 0x20 DUP3 ADD SWAP1 POP DUP2 DUP2 SUB PUSH0 DUP4 ADD MSTORE PUSH2 0xE16 DUP2 PUSH2 0xDDD JUMP JUMPDEST SWAP1 POP SWAP2 SWAP1 POP JUMP JUMPDEST PUSH32 0x7265656E7472616E740000000000000000000000000000000000000000000000 PUSH0 DUP3 ADD MSTORE POP JUMP JUMPDEST PUSH0 PUSH2 0xE51 PUSH1 0x9 DUP4 PUSH2 0xDA5 JUMP JUMPDEST SWAP2 POP PUSH2 0xE5C DUP3 PUSH2 0xE1D JUMP JUMPDEST PUSH1 0x20 DUP3 ADD SWAP1 POP SWAP2 SWAP1 POP JUMP JUMPDEST PUSH0 PUSH1 0x20 DUP3 ADD SWAP1 POP DUP2 DUP2 SUB PUSH0 DUP4 ADD MSTORE PUSH2 0xE7E DUP2 PUSH2 0xE45 JUMP JUMPDEST SWAP1 POP SWAP2 SWAP1 POP JUMP JUMPDEST PUSH32 0x7061757365640000000000000000000000000000000000000000000000000000 PUSH0 DUP3 ADD MSTORE POP JUMP JUMPDEST PUSH0 PUSH2 0xEB9 PUSH1 0x6 DUP4 PUSH2 0xDA5 JUMP JUMPDEST SWAP2 POP PUSH2 0xEC4 DUP3 PUSH2 0xE85 JUMP JUMPDEST PUSH1 0x20 DUP3 ADD SWAP1 POP SWAP2 SWAP1 POP JUMP JUMPDEST PUSH0 PUSH1 0x20 DUP3 ADD SWAP1 POP DUP2 DUP2 SUB PUSH0 DUP4 ADD MSTORE PUSH2 0xEE6 DUP2 PUSH2 0xEAD JUMP JUMPDEST SWAP1 POP SWAP2 SWAP1 POP JUMP JUMPDEST PUSH32 0x6E6F7420617574686F72697A6564000000000000000000000000000000000000 PUSH0 DUP3 ADD MSTORE POP JUMP JUMPDEST PUSH0 PUSH2 0xF21 PUSH1 0xE DUP4 PUSH2 0xDA5 JUMP JUMPDEST SWAP2 POP PUSH2 0xF2C DUP3 PUSH2 0xEED JUMP JUMPDEST PUSH1 0x20 DUP3 ADD SWAP1 POP SWAP2 SWAP1 POP JUMP JUMPDEST PUSH0 PUSH1 0x20 DUP3 ADD SWAP1 POP DUP2 DUP2 SUB PUSH0 DUP4 ADD MSTORE PUSH2 0xF4E DUP2 PUSH2 0xF15 JUMP JUMPDEST SWAP1 POP SWAP2 SWAP1 POP JUMP JUMPDEST PUSH32 0x696E73756666696369656E7420706F6F6C000000000000000000000000000000 PUSH0 DUP3 ADD MSTORE POP JUMP JUMPDEST PUSH0 PUSH2 0xF89 PUSH1 0x11 DUP4 PUSH2 0xDA5 JUMP JUMPDEST SWAP2 POP PUSH2 0xF94 DUP3 PUSH2 0xF55 JUMP JUMPDEST PUSH1 0x20 DUP3 ADD SWAP1 POP SWAP2 SWAP1 POP JUMP JUMPDEST PUSH0 PUSH1 0x20 DUP3 ADD SWAP1 POP DUP2 DUP2 SUB PUSH0 DUP4 ADD MSTORE PUSH2 0xFB6 DUP2 PUSH2 0xF7D JUMP JUMPDEST SWAP1 POP SWAP2 SWAP1 POP JUMP JUMPDEST PUSH32 0x7A65726F00000000000000000000000000000000000000000000000000000000 PUSH0 DUP3 ADD MSTORE POP JUMP JUMPDEST PUSH0 PUSH2 0xFF1 PUSH1 0x4 DUP4 PUSH2 0xDA5 JUMP JUMPDEST SWAP2 POP PUSH2 0xFFC DUP3 PUSH2 0xFBD JUMP JUMPDEST PUSH1 0x20 DUP3 ADD SWAP1 POP SWAP2 SWAP1 POP JUMP JUMPDEST PUSH0 PUSH1 0x20 DUP3 ADD SWAP1 POP DUP2 DUP2 SUB PUSH0 DUP4 ADD MSTORE PUSH2 0x101E DUP2 PUSH2 0xFE5 JUMP JUMPDEST SWAP1 POP SWAP2 SWAP1 POP JUMP JUMPDEST PUSH32 0x696E73756666696369656E740000000000000000000000000000000000000000 PUSH0 DUP3 ADD MSTORE POP JUMP JUMPDEST PUSH0 PUSH2 0x1059 PUSH1 0xC DUP4 PUSH2 0xDA5 JUMP JUMPDEST SWAP2 POP PUSH2 0x1064 DUP3 PUSH2 0x1025 JUMP JUMPDEST PUSH1 0x20 DUP3 ADD SWAP1 POP SWAP2 SWAP1 POP JUMP JUMPDEST PUSH0 PUSH1 0x20 DUP3 ADD SWAP1 POP DUP2 DUP2 SUB PUSH0 DUP4 ADD MSTORE PUSH2 0x1086 DUP2 PUSH2 0x104D JUMP JUMPDEST SWAP1 POP SWAP2 SWAP1 POP JUMP INVALID LOG2 PUSH5 0x6970667358 0x22 SLT KECCAK256 0xB3 0xB9 SMOD PUSH27 0x7B5DA719649547804BAEDDBB87A970A277EC132E2A1DC154560A51 CODECOPY PUSH5 0x736F6C6343 STOP ADDMOD XOR STOP CALLER "
				},
				"gasEstimates": {
					"creation": {
						"codeDepositCost": "858200",
						"executionCost": "47265",
						"totalCost": "905465"
					},
					"external": {
						"authorizedGames(address)": "2922",
						"balance()": "356",
						"fund()": "119",
						"owner()": "2572",
						"pause(bool)": "infinite",
						"paused()": "2539",
						"pay(address,uint256)": "infinite",
						"setAuthorized(address,bool)": "infinite",
						"transferOwnership(address)": "30658",
						"withdraw(address,uint256)": "infinite",
						"withdrawAll(address)": "infinite"
					}
				},
				"methodIdentifiers": {
					"authorizedGames(address)": "9e492b99",
					"balance()": "b69ef8a8",
					"fund()": "b60d4288",
					"owner()": "8da5cb5b",
					"pause(bool)": "02329a29",
					"paused()": "5c975abb",
					"pay(address,uint256)": "c4076876",
					"setAuthorized(address,bool)": "711bf9b2",
					"transferOwnership(address)": "f2fde38b",
					"withdraw(address,uint256)": "f3fef3a3",
					"withdrawAll(address)": "fa09e630"
				}
			},
			"storageLayout": {
				"storage": [
					{
						"astId": 4,
						"contract": "Contracts/BankrollPool.sol:BankrollPool",
						"label": "owner",
						"offset": 0,
						"slot": "0",
						"type": "t_address"
					},
					{
						"astId": 6,
						"contract": "Contracts/BankrollPool.sol:BankrollPool",
						"label": "paused",
						"offset": 20,
						"slot": "0",
						"type": "t_bool"
					},
					{
						"astId": 9,
						"contract": "Contracts/BankrollPool.sol:BankrollPool",
						"label": "_locked",
						"offset": 0,
						"slot": "1",
						"type": "t_uint256"
					},
					{
						"astId": 54,
						"contract": "Contracts/BankrollPool.sol:BankrollPool",
						"label": "authorizedGames",
						"offset": 0,
						"slot": "2",
						"type": "t_mapping(t_address,t_bool)"
					}
				],
				"types": {
					"t_address": {
						"encoding": "inplace",
						"label": "address",
						"numberOfBytes": "20"
					},
					"t_bool": {
						"encoding": "inplace",
						"label": "bool",
						"numberOfBytes": "1"
					},
					"t_mapping(t_address,t_bool)": {
						"encoding": "mapping",
						"key": "t_address",
						"label": "mapping(address => bool)",
						"numberOfBytes": "32",
						"value": "t_bool"
					},
					"t_uint256": {
						"encoding": "inplace",
						"label": "uint256",
						"numberOfBytes": "32"
					}
				}
			},
			"userdoc": {
				"kind": "user",
				"methods": {
					"balance()": {
						"notice": "Current pool balance"
					},
					"pay(address,uint256)": {
						"notice": "Pay out a winner from the pool. Callable only by authorized games."
					},
					"withdraw(address,uint256)": {
						"notice": "Owner withdraws any amount"
					},
					"withdrawAll(address)": {
						"notice": "Owner withdraws all funds"
					}
				},
				"notice": "Holds MON (native) liquidity and pays out winners on behalf of authorized games.",
				"version": 1
			}
		}
	}
}