{
	"Contracts/Faro.sol": {
		"Faro": {
			"abi": [
				{
					"inputs": [],
					"stateMutability": "nonpayable",
					"type": "constructor"
				},
				{
					"anonymous": false,
					"inputs": [
						{
							"indexed": true,
							"internalType": "address",
							"name": "player",
							"type": "address"
						},
						{
							"indexed": false,
							"internalType": "uint256",
							"name": "wager",
							"type": "uint256"
						},
						{
							"indexed": false,
							"internalType": "uint256",
							"name": "fee",
							"type": "uint256"
						},
						{
							"indexed": false,
							"internalType": "bool",
							"name": "win",
							"type": "bool"
						},
						{
							"indexed": false,
							"internalType": "bool",
							"name": "push",
							"type": "bool"
						},
						{
							"indexed": false,
							"internalType": "uint8",
							"name": "bankRank",
							"type": "uint8"
						},
						{
							"indexed": false,
							"internalType": "uint8",
							"name": "playerRank",
							"type": "uint8"
						},
						{
							"indexed": false,
							"internalType": "uint8",
							"name": "betRank",
							"type": "uint8"
						}
					],
					"name": "FaroPlayed",
					"type": "event"
				},
				{
					"inputs": [],
					"name": "feeBps",
					"outputs": [
						{
							"internalType": "uint16",
							"name": "",
							"type": "uint16"
						}
					],
					"stateMutability": "view",
					"type": "function"
				},
				{
					"inputs": [],
					"name": "feesAccrued",
					"outputs": [
						{
							"internalType": "uint256",
							"name": "",
							"type": "uint256"
						}
					],
					"stateMutability": "view",
					"type": "function"
				},
				{
					"inputs": [],
					"name": "fund",
					"outputs": [],
					"stateMutability": "payable",
					"type": "function"
				},
				{
					"inputs": [],
					"name": "maxBet",
					"outputs": [
						{
							"internalType": "uint256",
							"name": "",
							"type": "uint256"
						}
					],
					"stateMutability": "view",
					"type": "function"
				},
				{
					"inputs": [],
					"name": "nonce",
					"outputs": [
						{
							"internalType": "uint256",
							"name": "",
							"type": "uint256"
						}
					],
					"stateMutability": "view",
					"type": "function"
				},
				{
					"inputs": [],
					"name": "owner",
					"outputs": [
						{
							"internalType": "address",
							"name": "",
							"type": "address"
						}
					],
					"stateMutability": "view",
					"type": "function"
				},
				{
					"inputs": [
						{
							"internalType": "uint8",
							"name": "betRank",
							"type": "uint8"
						}
					],
					"name": "playFaro",
					"outputs": [],
					"stateMutability": "payable",
					"type": "function"
				},
				{
					"inputs": [
						{
							"internalType": "uint16",
							"name": "_bps",
							"type": "uint16"
						}
					],
					"name": "setFeeBps",
					"outputs": [],
					"stateMutability": "nonpayable",
					"type": "function"
				},
				{
					"inputs": [
						{
							"internalType": "uint256",
							"name": "_max",
							"type": "uint256"
						}
					],
					"name": "setMaxBet",
					"outputs": [],
					"stateMutability": "nonpayable",
					"type": "function"
				},
				{
					"inputs": [
						{
							"internalType": "address payable",
							"name": "to",
							"type": "address"
						},
						{
							"internalType": "uint256",
							"name": "amount",
							"type": "uint256"
						}
					],
					"name": "withdraw",
					"outputs": [],
					"stateMutability": "nonpayable",
					"type": "function"
				},
				{
					"inputs": [
						{
							"internalType": "address payable",
							"name": "to",
							"type": "address"
						},
						{
							"internalType": "uint256",
							"name": "amount",
							"type": "uint256"
						}
					],
					"name": "withdrawFees",
					"outputs": [],
					"stateMutability": "nonpayable",
					"type": "function"
				},
				{
					"stateMutability": "payable",
					"type": "receive"
				}
			],
			"devdoc": {
				"kind": "dev",
				"methods": {},
				"title": "Faro - Minimal on-chain Faro game with rake",
				"version": 1
			},
			"evm": {
				"assembly": "    /* \"Contracts/Faro.sol\":716:3883  contract Faro {... */\n  mstore(0x40, 0x80)\n    /* \"Contracts/Faro.sol\":927:928  1 */\n  0x01\n    /* \"Contracts/Faro.sol\":901:928  uint256 private _locked = 1 */\n  dup1\n  sstore\n    /* \"Contracts/Faro.sol\":1078:1086  10 ether */\n  0x8ac7230489e80000\n    /* \"Contracts/Faro.sol\":1054:1086  uint256 public maxBet = 10 ether */\n  0x02\n  sstore\n    /* \"Contracts/Faro.sol\":1115:1118  100 */\n  0x64\n    /* \"Contracts/Faro.sol\":1092:1118  uint16 public feeBps = 100 */\n  0x03\n  exp(0x0100, 0x00)\n  dup2\n  sload\n  dup2\n  0xffff\n  mul\n  not\n  and\n  swap1\n  dup4\n  0xffff\n  and\n  mul\n  or\n  swap1\n  sstore\n  pop\n    /* \"Contracts/Faro.sol\":1465:1502  constructor() { owner = msg.sender; } */\n  callvalue\n  dup1\n  iszero\n  tag_1\n  jumpi\n  0x00\n  dup1\n  revert\ntag_1:\n  pop\n    /* \"Contracts/Faro.sol\":1489:1499  msg.sender */\n  caller\n    /* \"Contracts/Faro.sol\":1481:1486  owner */\n  0x00\n  dup1\n    /* \"Contracts/Faro.sol\":1481:1499  owner = msg.sender */\n  0x0100\n  exp\n  dup2\n  sload\n  dup2\n  0xffffffffffffffffffffffffffffffffffffffff\n  mul\n  not\n  and\n  swap1\n  dup4\n  0xffffffffffffffffffffffffffffffffffffffff\n  and\n  mul\n  or\n  swap1\n  sstore\n  pop\n    /* \"Contracts/Faro.sol\":716:3883  contract Faro {... */\n  dataSize(sub_0)\n  dup1\n  dataOffset(sub_0)\n  0x00\n  codecopy\n  0x00\n  return\nstop\n\nsub_0: assembly {\n        /* \"Contracts/Faro.sol\":716:3883  contract Faro {... */\n      mstore(0x40, 0x80)\n      jumpi(tag_1, lt(calldatasize, 0x04))\n      shr(0xe0, calldataload(0x00))\n      dup1\n      0x94db0595\n      gt\n      tag_14\n      jumpi\n      dup1\n      0x94db0595\n      eq\n      tag_8\n      jumpi\n      dup1\n      0xad3b1b47\n      eq\n      tag_9\n      jumpi\n      dup1\n      0xaffed0e0\n      eq\n      tag_10\n      jumpi\n      dup1\n      0xb60d4288\n      eq\n      tag_11\n      jumpi\n      dup1\n      0xbb468669\n      eq\n      tag_12\n      jumpi\n      dup1\n      0xf3fef3a3\n      eq\n      tag_13\n      jumpi\n      jump(tag_2)\n    tag_14:\n      dup1\n      0x023b1fc9\n      eq\n      tag_3\n      jumpi\n      dup1\n      0x24a9d853\n      eq\n      tag_4\n      jumpi\n      dup1\n      0x2e5b2168\n      eq\n      tag_5\n      jumpi\n      dup1\n      0x881eff1e\n      eq\n      tag_6\n      jumpi\n      dup1\n      0x8da5cb5b\n      eq\n      tag_7\n      jumpi\n      jump(tag_2)\n    tag_1:\n      jumpi(tag_2, calldatasize)\n      stop\n    tag_2:\n      0x00\n      dup1\n      revert\n        /* \"Contracts/Faro.sol\":1688:1796  function setFeeBps(uint16 _bps) external onlyOwner { require(_bps <= 1000, \"fee too high\"); feeBps = _bps; } */\n    tag_3:\n      callvalue\n      dup1\n      iszero\n      tag_17\n      jumpi\n      0x00\n      dup1\n      revert\n    tag_17:\n      pop\n      tag_18\n      0x04\n      dup1\n      calldatasize\n      sub\n      dup2\n      add\n      swap1\n      tag_19\n      swap2\n      swap1\n      tag_20\n      jump\t// in\n    tag_19:\n      tag_21\n      jump\t// in\n    tag_18:\n      stop\n        /* \"Contracts/Faro.sol\":1092:1118  uint16 public feeBps = 100 */\n    tag_4:\n      callvalue\n      dup1\n      iszero\n      tag_22\n      jumpi\n      0x00\n      dup1\n      revert\n    tag_22:\n      pop\n      tag_23\n      tag_24\n      jump\t// in\n    tag_23:\n      mload(0x40)\n      tag_25\n      swap2\n      swap1\n      tag_26\n      jump\t// in\n    tag_25:\n      mload(0x40)\n      dup1\n      swap2\n      sub\n      swap1\n      return\n        /* \"Contracts/Faro.sol\":1054:1086  uint256 public maxBet = 10 ether */\n    tag_5:\n      callvalue\n      dup1\n      iszero\n      tag_27\n      jumpi\n      0x00\n      dup1\n      revert\n    tag_27:\n      pop\n      tag_28\n      tag_29\n      jump\t// in\n    tag_28:\n      mload(0x40)\n      tag_30\n      swap2\n      swap1\n      tag_31\n      jump\t// in\n    tag_30:\n      mload(0x40)\n      dup1\n      swap2\n      sub\n      swap1\n      return\n        /* \"Contracts/Faro.sol\":1613:1683  function setMaxBet(uint256 _max) external onlyOwner { maxBet = _max; } */\n    tag_6:\n      callvalue\n      dup1\n      iszero\n      tag_32\n      jumpi\n      0x00\n      dup1\n      revert\n    tag_32:\n      pop\n      tag_33\n      0x04\n      dup1\n      calldatasize\n      sub\n      dup2\n      add\n      swap1\n      tag_34\n      swap2\n      swap1\n      tag_35\n      jump\t// in\n    tag_34:\n      tag_36\n      jump\t// in\n    tag_33:\n      stop\n        /* \"Contracts/Faro.sol\":767:787  address public owner */\n    tag_7:\n      callvalue\n      dup1\n      iszero\n      tag_37\n      jumpi\n      0x00\n      dup1\n      revert\n    tag_37:\n      pop\n      tag_38\n      tag_39\n      jump\t// in\n    tag_38:\n      mload(0x40)\n      tag_40\n      swap2\n      swap1\n      tag_41\n      jump\t// in\n    tag_40:\n      mload(0x40)\n      dup1\n      swap2\n      sub\n      swap1\n      return\n        /* \"Contracts/Faro.sol\":1159:1185  uint256 public feesAccrued */\n    tag_8:\n      callvalue\n      dup1\n      iszero\n      tag_42\n      jumpi\n      0x00\n      dup1\n      revert\n    tag_42:\n      pop\n      tag_43\n      tag_44\n      jump\t// in\n    tag_43:\n      mload(0x40)\n      tag_45\n      swap2\n      swap1\n      tag_31\n      jump\t// in\n    tag_45:\n      mload(0x40)\n      dup1\n      swap2\n      sub\n      swap1\n      return\n        /* \"Contracts/Faro.sol\":1981:2177  function withdrawFees(address payable to, uint256 amount) external onlyOwner {... */\n    tag_9:\n      callvalue\n      dup1\n      iszero\n      tag_46\n      jumpi\n      0x00\n      dup1\n      revert\n    tag_46:\n      pop\n      tag_47\n      0x04\n      dup1\n      calldatasize\n      sub\n      dup2\n      add\n      swap1\n      tag_48\n      swap2\n      swap1\n      tag_49\n      jump\t// in\n    tag_48:\n      tag_50\n      jump\t// in\n    tag_47:\n      stop\n        /* \"Contracts/Faro.sol\":1201:1221  uint256 public nonce */\n    tag_10:\n      callvalue\n      dup1\n      iszero\n      tag_51\n      jumpi\n      0x00\n      dup1\n      revert\n    tag_51:\n      pop\n      tag_52\n      tag_53\n      jump\t// in\n    tag_52:\n      mload(0x40)\n      tag_54\n      swap2\n      swap1\n      tag_31\n      jump\t// in\n    tag_54:\n      mload(0x40)\n      dup1\n      swap2\n      sub\n      swap1\n      return\n        /* \"Contracts/Faro.sol\":1573:1608  function fund() external payable {} */\n    tag_11:\n      tag_55\n      tag_56\n      jump\t// in\n    tag_55:\n      stop\n        /* \"Contracts/Faro.sol\":2499:3881  function playFaro(uint8 betRank) external payable nonReentrant {... */\n    tag_12:\n      tag_57\n      0x04\n      dup1\n      calldatasize\n      sub\n      dup2\n      add\n      swap1\n      tag_58\n      swap2\n      swap1\n      tag_59\n      jump\t// in\n    tag_58:\n      tag_60\n      jump\t// in\n    tag_57:\n      stop\n        /* \"Contracts/Faro.sol\":1801:1976  function withdraw(address payable to, uint256 amount) external onlyOwner {... */\n    tag_13:\n      callvalue\n      dup1\n      iszero\n      tag_61\n      jumpi\n      0x00\n      dup1\n      revert\n    tag_61:\n      pop\n      tag_62\n      0x04\n      dup1\n      calldatasize\n      sub\n      dup2\n      add\n      swap1\n      tag_63\n      swap2\n      swap1\n      tag_49\n      jump\t// in\n    tag_63:\n      tag_64\n      jump\t// in\n    tag_62:\n      stop\n        /* \"Contracts/Faro.sol\":1688:1796  function setFeeBps(uint16 _bps) external onlyOwner { require(_bps <= 1000, \"fee too high\"); feeBps = _bps; } */\n    tag_21:\n        /* \"Contracts/Faro.sol\":838:843  owner */\n      0x00\n      dup1\n      sload\n      swap1\n      0x0100\n      exp\n      swap1\n      div\n      0xffffffffffffffffffffffffffffffffffffffff\n      and\n        /* \"Contracts/Faro.sol\":824:843  msg.sender == owner */\n      0xffffffffffffffffffffffffffffffffffffffff\n      and\n        /* \"Contracts/Faro.sol\":824:834  msg.sender */\n      caller\n        /* \"Contracts/Faro.sol\":824:843  msg.sender == owner */\n      0xffffffffffffffffffffffffffffffffffffffff\n      and\n      eq\n        /* \"Contracts/Faro.sol\":816:857  require(msg.sender == owner, \"not owner\") */\n      tag_66\n      jumpi\n      mload(0x40)\n      0x08c379a000000000000000000000000000000000000000000000000000000000\n      dup2\n      mstore\n      0x04\n      add\n      tag_67\n      swap1\n      tag_68\n      jump\t// in\n    tag_67:\n      mload(0x40)\n      dup1\n      swap2\n      sub\n      swap1\n      revert\n    tag_66:\n        /* \"Contracts/Faro.sol\":1757:1761  1000 */\n      0x03e8\n        /* \"Contracts/Faro.sol\":1749:1753  _bps */\n      dup2\n        /* \"Contracts/Faro.sol\":1749:1761  _bps <= 1000 */\n      0xffff\n      and\n      gt\n      iszero\n        /* \"Contracts/Faro.sol\":1741:1778  require(_bps <= 1000, \"fee too high\") */\n      tag_70\n      jumpi\n      mload(0x40)\n      0x08c379a000000000000000000000000000000000000000000000000000000000\n      dup2\n      mstore\n      0x04\n      add\n      tag_71\n      swap1\n      tag_72\n      jump\t// in\n    tag_71:\n      mload(0x40)\n      dup1\n      swap2\n      sub\n      swap1\n      revert\n    tag_70:\n        /* \"Contracts/Faro.sol\":1789:1793  _bps */\n      dup1\n        /* \"Contracts/Faro.sol\":1780:1786  feeBps */\n      0x03\n      0x00\n        /* \"Contracts/Faro.sol\":1780:1793  feeBps = _bps */\n      0x0100\n      exp\n      dup2\n      sload\n      dup2\n      0xffff\n      mul\n      not\n      and\n      swap1\n      dup4\n      0xffff\n      and\n      mul\n      or\n      swap1\n      sstore\n      pop\n        /* \"Contracts/Faro.sol\":1688:1796  function setFeeBps(uint16 _bps) external onlyOwner { require(_bps <= 1000, \"fee too high\"); feeBps = _bps; } */\n      pop\n      jump\t// out\n        /* \"Contracts/Faro.sol\":1092:1118  uint16 public feeBps = 100 */\n    tag_24:\n      0x03\n      0x00\n      swap1\n      sload\n      swap1\n      0x0100\n      exp\n      swap1\n      div\n      0xffff\n      and\n      dup2\n      jump\t// out\n        /* \"Contracts/Faro.sol\":1054:1086  uint256 public maxBet = 10 ether */\n    tag_29:\n      sload(0x02)\n      dup2\n      jump\t// out\n        /* \"Contracts/Faro.sol\":1613:1683  function setMaxBet(uint256 _max) external onlyOwner { maxBet = _max; } */\n    tag_36:\n        /* \"Contracts/Faro.sol\":838:843  owner */\n      0x00\n      dup1\n      sload\n      swap1\n      0x0100\n      exp\n      swap1\n      div\n      0xffffffffffffffffffffffffffffffffffffffff\n      and\n        /* \"Contracts/Faro.sol\":824:843  msg.sender == owner */\n      0xffffffffffffffffffffffffffffffffffffffff\n      and\n        /* \"Contracts/Faro.sol\":824:834  msg.sender */\n      caller\n        /* \"Contracts/Faro.sol\":824:843  msg.sender == owner */\n      0xffffffffffffffffffffffffffffffffffffffff\n      and\n      eq\n        /* \"Contracts/Faro.sol\":816:857  require(msg.sender == owner, \"not owner\") */\n      tag_74\n      jumpi\n      mload(0x40)\n      0x08c379a000000000000000000000000000000000000000000000000000000000\n      dup2\n      mstore\n      0x04\n      add\n      tag_75\n      swap1\n      tag_68\n      jump\t// in\n    tag_75:\n      mload(0x40)\n      dup1\n      swap2\n      sub\n      swap1\n      revert\n    tag_74:\n        /* \"Contracts/Faro.sol\":1676:1680  _max */\n      dup1\n        /* \"Contracts/Faro.sol\":1667:1673  maxBet */\n      0x02\n        /* \"Contracts/Faro.sol\":1667:1680  maxBet = _max */\n      dup2\n      swap1\n      sstore\n      pop\n        /* \"Contracts/Faro.sol\":1613:1683  function setMaxBet(uint256 _max) external onlyOwner { maxBet = _max; } */\n      pop\n      jump\t// out\n        /* \"Contracts/Faro.sol\":767:787  address public owner */\n    tag_39:\n      0x00\n      dup1\n      sload\n      swap1\n      0x0100\n      exp\n      swap1\n      div\n      0xffffffffffffffffffffffffffffffffffffffff\n      and\n      dup2\n      jump\t// out\n        /* \"Contracts/Faro.sol\":1159:1185  uint256 public feesAccrued */\n    tag_44:\n      sload(0x04)\n      dup2\n      jump\t// out\n        /* \"Contracts/Faro.sol\":1981:2177  function withdrawFees(address payable to, uint256 amount) external onlyOwner {... */\n    tag_50:\n        /* \"Contracts/Faro.sol\":838:843  owner */\n      0x00\n      dup1\n      sload\n      swap1\n      0x0100\n      exp\n      swap1\n      div\n      0xffffffffffffffffffffffffffffffffffffffff\n      and\n        /* \"Contracts/Faro.sol\":824:843  msg.sender == owner */\n      0xffffffffffffffffffffffffffffffffffffffff\n      and\n        /* \"Contracts/Faro.sol\":824:834  msg.sender */\n      caller\n        /* \"Contracts/Faro.sol\":824:843  msg.sender == owner */\n      0xffffffffffffffffffffffffffffffffffffffff\n      and\n      eq\n        /* \"Contracts/Faro.sol\":816:857  require(msg.sender == owner, \"not owner\") */\n      tag_78\n      jumpi\n      mload(0x40)\n      0x08c379a000000000000000000000000000000000000000000000000000000000\n      dup2\n      mstore\n      0x04\n      add\n      tag_79\n      swap1\n      tag_68\n      jump\t// in\n    tag_79:\n      mload(0x40)\n      dup1\n      swap2\n      sub\n      swap1\n      revert\n    tag_78:\n        /* \"Contracts/Faro.sol\":2091:2097  amount */\n      dup1\n        /* \"Contracts/Faro.sol\":2076:2087  feesAccrued */\n      sload(0x04)\n        /* \"Contracts/Faro.sol\":2076:2097  feesAccrued >= amount */\n      lt\n      iszero\n        /* \"Contracts/Faro.sol\":2068:2110  require(feesAccrued >= amount, \"fees low\") */\n      tag_81\n      jumpi\n      mload(0x40)\n      0x08c379a000000000000000000000000000000000000000000000000000000000\n      dup2\n      mstore\n      0x04\n      add\n      tag_82\n      swap1\n      tag_83\n      jump\t// in\n    tag_82:\n      mload(0x40)\n      dup1\n      swap2\n      sub\n      swap1\n      revert\n    tag_81:\n        /* \"Contracts/Faro.sol\":2135:2141  amount */\n      dup1\n        /* \"Contracts/Faro.sol\":2120:2131  feesAccrued */\n      0x04\n      0x00\n        /* \"Contracts/Faro.sol\":2120:2141  feesAccrued -= amount */\n      dup3\n      dup3\n      sload\n      tag_84\n      swap2\n      swap1\n      tag_85\n      jump\t// in\n    tag_84:\n      swap3\n      pop\n      pop\n      dup2\n      swap1\n      sstore\n      pop\n        /* \"Contracts/Faro.sol\":2151:2153  to */\n      dup2\n        /* \"Contracts/Faro.sol\":2151:2162  to.transfer */\n      0xffffffffffffffffffffffffffffffffffffffff\n      and\n        /* \"Contracts/Faro.sol\":2151:2170  to.transfer(amount) */\n      0x08fc\n        /* \"Contracts/Faro.sol\":2163:2169  amount */\n      dup3\n        /* \"Contracts/Faro.sol\":2151:2170  to.transfer(amount) */\n      swap1\n      dup2\n      iszero\n      mul\n      swap1\n      mload(0x40)\n      0x00\n      mload(0x40)\n      dup1\n      dup4\n      sub\n      dup2\n      dup6\n      dup9\n      dup9\n      call\n      swap4\n      pop\n      pop\n      pop\n      pop\n      iszero\n      dup1\n      iszero\n      tag_87\n      jumpi\n      returndatasize\n      0x00\n      dup1\n      returndatacopy\n      revert(0x00, returndatasize)\n    tag_87:\n      pop\n        /* \"Contracts/Faro.sol\":1981:2177  function withdrawFees(address payable to, uint256 amount) external onlyOwner {... */\n      pop\n      pop\n      jump\t// out\n        /* \"Contracts/Faro.sol\":1201:1221  uint256 public nonce */\n    tag_53:\n      sload(0x05)\n      dup2\n      jump\t// out\n        /* \"Contracts/Faro.sol\":1573:1608  function fund() external payable {} */\n    tag_56:\n      jump\t// out\n        /* \"Contracts/Faro.sol\":2499:3881  function playFaro(uint8 betRank) external payable nonReentrant {... */\n    tag_60:\n        /* \"Contracts/Faro.sol\":979:980  1 */\n      0x01\n        /* \"Contracts/Faro.sol\":968:975  _locked */\n      dup1\n      sload\n        /* \"Contracts/Faro.sol\":968:980  _locked == 1 */\n      eq\n        /* \"Contracts/Faro.sol\":960:994  require(_locked == 1, \"reentrant\") */\n      tag_90\n      jumpi\n      mload(0x40)\n      0x08c379a000000000000000000000000000000000000000000000000000000000\n      dup2\n      mstore\n      0x04\n      add\n      tag_91\n      swap1\n      tag_92\n      jump\t// in\n    tag_91:\n      mload(0x40)\n      dup1\n      swap2\n      sub\n      swap1\n      revert\n    tag_90:\n        /* \"Contracts/Faro.sol\":1006:1007  2 */\n      0x02\n        /* \"Contracts/Faro.sol\":996:1003  _locked */\n      0x01\n        /* \"Contracts/Faro.sol\":996:1007  _locked = 2 */\n      dup2\n      swap1\n      sstore\n      pop\n        /* \"Contracts/Faro.sol\":2591:2592  1 */\n      0x01\n        /* \"Contracts/Faro.sol\":2580:2587  betRank */\n      dup2\n        /* \"Contracts/Faro.sol\":2580:2592  betRank >= 1 */\n      0xff\n      and\n      lt\n      iszero\n        /* \"Contracts/Faro.sol\":2580:2609  betRank >= 1 && betRank <= 13 */\n      dup1\n      iszero\n      tag_94\n      jumpi\n      pop\n        /* \"Contracts/Faro.sol\":2607:2609  13 */\n      0x0d\n        /* \"Contracts/Faro.sol\":2596:2603  betRank */\n      dup2\n        /* \"Contracts/Faro.sol\":2596:2609  betRank <= 13 */\n      0xff\n      and\n      gt\n      iszero\n        /* \"Contracts/Faro.sol\":2580:2609  betRank >= 1 && betRank <= 13 */\n    tag_94:\n        /* \"Contracts/Faro.sol\":2572:2622  require(betRank >= 1 && betRank <= 13, \"bad rank\") */\n      tag_95\n      jumpi\n      mload(0x40)\n      0x08c379a000000000000000000000000000000000000000000000000000000000\n      dup2\n      mstore\n      0x04\n      add\n      tag_96\n      swap1\n      tag_97\n      jump\t// in\n    tag_96:\n      mload(0x40)\n      dup1\n      swap2\n      sub\n      swap1\n      revert\n    tag_95:\n        /* \"Contracts/Faro.sol\":2632:2645  uint256 wager */\n      0x00\n        /* \"Contracts/Faro.sol\":2648:2657  msg.value */\n      callvalue\n        /* \"Contracts/Faro.sol\":2632:2657  uint256 wager = msg.value */\n      swap1\n      pop\n        /* \"Contracts/Faro.sol\":2683:2684  0 */\n      0x00\n        /* \"Contracts/Faro.sol\":2675:2680  wager */\n      dup2\n        /* \"Contracts/Faro.sol\":2675:2684  wager > 0 */\n      gt\n        /* \"Contracts/Faro.sol\":2675:2703  wager > 0 && wager <= maxBet */\n      dup1\n      iszero\n      tag_98\n      jumpi\n      pop\n        /* \"Contracts/Faro.sol\":2697:2703  maxBet */\n      sload(0x02)\n        /* \"Contracts/Faro.sol\":2688:2693  wager */\n      dup2\n        /* \"Contracts/Faro.sol\":2688:2703  wager <= maxBet */\n      gt\n      iszero\n        /* \"Contracts/Faro.sol\":2675:2703  wager > 0 && wager <= maxBet */\n    tag_98:\n        /* \"Contracts/Faro.sol\":2667:2717  require(wager > 0 && wager <= maxBet, \"bad wager\") */\n      tag_99\n      jumpi\n      mload(0x40)\n      0x08c379a000000000000000000000000000000000000000000000000000000000\n      dup2\n      mstore\n      0x04\n      add\n      tag_100\n      swap1\n      tag_101\n      jump\t// in\n    tag_100:\n      mload(0x40)\n      dup1\n      swap2\n      sub\n      swap1\n      revert\n    tag_99:\n        /* \"Contracts/Faro.sol\":2749:2760  uint256 fee */\n      0x00\n        /* \"Contracts/Faro.sol\":2791:2796  10000 */\n      0x2710\n        /* \"Contracts/Faro.sol\":2780:2786  feeBps */\n      0x03\n      0x00\n      swap1\n      sload\n      swap1\n      0x0100\n      exp\n      swap1\n      div\n      0xffff\n      and\n        /* \"Contracts/Faro.sol\":2772:2787  uint256(feeBps) */\n      0xffff\n      and\n        /* \"Contracts/Faro.sol\":2764:2769  wager */\n      dup4\n        /* \"Contracts/Faro.sol\":2764:2787  wager * uint256(feeBps) */\n      tag_102\n      swap2\n      swap1\n      tag_103\n      jump\t// in\n    tag_102:\n        /* \"Contracts/Faro.sol\":2763:2796  (wager * uint256(feeBps)) / 10000 */\n      tag_104\n      swap2\n      swap1\n      tag_105\n      jump\t// in\n    tag_104:\n        /* \"Contracts/Faro.sol\":2749:2796  uint256 fee = (wager * uint256(feeBps)) / 10000 */\n      swap1\n      pop\n        /* \"Contracts/Faro.sol\":2821:2824  fee */\n      dup1\n        /* \"Contracts/Faro.sol\":2806:2817  feesAccrued */\n      0x04\n      0x00\n        /* \"Contracts/Faro.sol\":2806:2824  feesAccrued += fee */\n      dup3\n      dup3\n      sload\n      tag_106\n      swap2\n      swap1\n      tag_107\n      jump\t// in\n    tag_106:\n      swap3\n      pop\n      pop\n      dup2\n      swap1\n      sstore\n      pop\n        /* \"Contracts/Faro.sol\":2834:2847  uint256 stake */\n      0x00\n        /* \"Contracts/Faro.sol\":2858:2861  fee */\n      dup2\n        /* \"Contracts/Faro.sol\":2850:2855  wager */\n      dup4\n        /* \"Contracts/Faro.sol\":2850:2861  wager - fee */\n      tag_108\n      swap2\n      swap1\n      tag_85\n      jump\t// in\n    tag_108:\n        /* \"Contracts/Faro.sol\":2834:2861  uint256 stake = wager - fee */\n      swap1\n      pop\n        /* \"Contracts/Faro.sol\":2939:2953  uint8 bankRank */\n      0x00\n        /* \"Contracts/Faro.sol\":2974:2975  1 */\n      0x01\n        /* \"Contracts/Faro.sol\":2962:2971  _rand(13) */\n      tag_109\n        /* \"Contracts/Faro.sol\":2968:2970  13 */\n      0x0d\n        /* \"Contracts/Faro.sol\":2962:2967  _rand */\n      tag_110\n        /* \"Contracts/Faro.sol\":2962:2971  _rand(13) */\n      jump\t// in\n    tag_109:\n        /* \"Contracts/Faro.sol\":2962:2975  _rand(13) + 1 */\n      tag_111\n      swap2\n      swap1\n      tag_107\n      jump\t// in\n    tag_111:\n        /* \"Contracts/Faro.sol\":2939:2976  uint8 bankRank = uint8(_rand(13) + 1) */\n      swap1\n      pop\n        /* \"Contracts/Faro.sol\":2986:3002  uint8 playerRank */\n      0x00\n        /* \"Contracts/Faro.sol\":3023:3024  1 */\n      0x01\n        /* \"Contracts/Faro.sol\":3011:3020  _rand(13) */\n      tag_112\n        /* \"Contracts/Faro.sol\":3017:3019  13 */\n      0x0d\n        /* \"Contracts/Faro.sol\":3011:3016  _rand */\n      tag_110\n        /* \"Contracts/Faro.sol\":3011:3020  _rand(13) */\n      jump\t// in\n    tag_112:\n        /* \"Contracts/Faro.sol\":3011:3024  _rand(13) + 1 */\n      tag_113\n      swap2\n      swap1\n      tag_107\n      jump\t// in\n    tag_113:\n        /* \"Contracts/Faro.sol\":2986:3025  uint8 playerRank = uint8(_rand(13) + 1) */\n      swap1\n      pop\n        /* \"Contracts/Faro.sol\":3036:3045  bool push */\n      0x00\n        /* \"Contracts/Faro.sol\":3063:3071  bool win */\n      dup1\n        /* \"Contracts/Faro.sol\":3106:3116  playerRank */\n      dup3\n        /* \"Contracts/Faro.sol\":3094:3116  bankRank == playerRank */\n      0xff\n      and\n        /* \"Contracts/Faro.sol\":3094:3102  bankRank */\n      dup5\n        /* \"Contracts/Faro.sol\":3094:3116  bankRank == playerRank */\n      0xff\n      and\n      sub\n        /* \"Contracts/Faro.sol\":3090:3783  if (bankRank == playerRank) {... */\n      tag_114\n      jumpi\n        /* \"Contracts/Faro.sol\":3185:3189  true */\n      0x01\n        /* \"Contracts/Faro.sol\":3178:3189  push = true */\n      swap2\n      pop\n        /* \"Contracts/Faro.sol\":3215:3216  0 */\n      0x00\n        /* \"Contracts/Faro.sol\":3207:3212  stake */\n      dup6\n        /* \"Contracts/Faro.sol\":3207:3216  stake > 0 */\n      gt\n        /* \"Contracts/Faro.sol\":3203:3286  if (stake > 0) {... */\n      iszero\n      tag_115\n      jumpi\n        /* \"Contracts/Faro.sol\":3244:3254  msg.sender */\n      caller\n        /* \"Contracts/Faro.sol\":3236:3264  payable(msg.sender).transfer */\n      0xffffffffffffffffffffffffffffffffffffffff\n      and\n        /* \"Contracts/Faro.sol\":3236:3271  payable(msg.sender).transfer(stake) */\n      0x08fc\n        /* \"Contracts/Faro.sol\":3265:3270  stake */\n      dup7\n        /* \"Contracts/Faro.sol\":3236:3271  payable(msg.sender).transfer(stake) */\n      swap1\n      dup2\n      iszero\n      mul\n      swap1\n      mload(0x40)\n      0x00\n      mload(0x40)\n      dup1\n      dup4\n      sub\n      dup2\n      dup6\n      dup9\n      dup9\n      call\n      swap4\n      pop\n      pop\n      pop\n      pop\n      iszero\n      dup1\n      iszero\n      tag_117\n      jumpi\n      returndatasize\n      0x00\n      dup1\n      returndatacopy\n      revert(0x00, returndatasize)\n    tag_117:\n      pop\n        /* \"Contracts/Faro.sol\":3203:3286  if (stake > 0) {... */\n    tag_115:\n        /* \"Contracts/Faro.sol\":3090:3783  if (bankRank == playerRank) {... */\n      jump(tag_118)\n    tag_114:\n        /* \"Contracts/Faro.sol\":3317:3325  bankRank */\n      dup4\n        /* \"Contracts/Faro.sol\":3306:3325  betRank == bankRank */\n      0xff\n      and\n        /* \"Contracts/Faro.sol\":3306:3313  betRank */\n      dup9\n        /* \"Contracts/Faro.sol\":3306:3325  betRank == bankRank */\n      0xff\n      and\n      sub\n        /* \"Contracts/Faro.sol\":3302:3783  if (betRank == bankRank) {... */\n      tag_119\n      jumpi\n        /* \"Contracts/Faro.sol\":3391:3396  false */\n      0x00\n        /* \"Contracts/Faro.sol\":3385:3396  win = false */\n      swap1\n      pop\n        /* \"Contracts/Faro.sol\":3302:3783  if (betRank == bankRank) {... */\n      jump(tag_120)\n    tag_119:\n        /* \"Contracts/Faro.sol\":3428:3438  playerRank */\n      dup3\n        /* \"Contracts/Faro.sol\":3417:3438  betRank == playerRank */\n      0xff\n      and\n        /* \"Contracts/Faro.sol\":3417:3424  betRank */\n      dup9\n        /* \"Contracts/Faro.sol\":3417:3438  betRank == playerRank */\n      0xff\n      and\n      sub\n        /* \"Contracts/Faro.sol\":3413:3783  if (betRank == playerRank) {... */\n      tag_121\n      jumpi\n        /* \"Contracts/Faro.sol\":3492:3496  true */\n      0x01\n        /* \"Contracts/Faro.sol\":3486:3496  win = true */\n      swap1\n      pop\n        /* \"Contracts/Faro.sol\":3510:3524  uint256 payout */\n      0x00\n        /* \"Contracts/Faro.sol\":3535:3536  2 */\n      0x02\n        /* \"Contracts/Faro.sol\":3527:3532  stake */\n      dup7\n        /* \"Contracts/Faro.sol\":3527:3536  stake * 2 */\n      tag_122\n      swap2\n      swap1\n      tag_103\n      jump\t// in\n    tag_122:\n        /* \"Contracts/Faro.sol\":3510:3536  uint256 payout = stake * 2 */\n      swap1\n      pop\n        /* \"Contracts/Faro.sol\":3620:3626  payout */\n      dup1\n        /* \"Contracts/Faro.sol\":3595:3616  address(this).balance */\n      selfbalance\n        /* \"Contracts/Faro.sol\":3595:3626  address(this).balance >= payout */\n      lt\n      iszero\n        /* \"Contracts/Faro.sol\":3587:3643  require(address(this).balance >= payout, \"bankroll low\") */\n      tag_123\n      jumpi\n      mload(0x40)\n      0x08c379a000000000000000000000000000000000000000000000000000000000\n      dup2\n      mstore\n      0x04\n      add\n      tag_124\n      swap1\n      tag_125\n      jump\t// in\n    tag_124:\n      mload(0x40)\n      dup1\n      swap2\n      sub\n      swap1\n      revert\n    tag_123:\n        /* \"Contracts/Faro.sol\":3665:3675  msg.sender */\n      caller\n        /* \"Contracts/Faro.sol\":3657:3685  payable(msg.sender).transfer */\n      0xffffffffffffffffffffffffffffffffffffffff\n      and\n        /* \"Contracts/Faro.sol\":3657:3693  payable(msg.sender).transfer(payout) */\n      0x08fc\n        /* \"Contracts/Faro.sol\":3686:3692  payout */\n      dup3\n        /* \"Contracts/Faro.sol\":3657:3693  payable(msg.sender).transfer(payout) */\n      swap1\n      dup2\n      iszero\n      mul\n      swap1\n      mload(0x40)\n      0x00\n      mload(0x40)\n      dup1\n      dup4\n      sub\n      dup2\n      dup6\n      dup9\n      dup9\n      call\n      swap4\n      pop\n      pop\n      pop\n      pop\n      iszero\n      dup1\n      iszero\n      tag_127\n      jumpi\n      returndatasize\n      0x00\n      dup1\n      returndatacopy\n      revert(0x00, returndatasize)\n    tag_127:\n      pop\n        /* \"Contracts/Faro.sol\":3440:3704  {... */\n      pop\n        /* \"Contracts/Faro.sol\":3413:3783  if (betRank == playerRank) {... */\n      jump(tag_128)\n    tag_121:\n        /* \"Contracts/Faro.sol\":3767:3772  false */\n      0x00\n        /* \"Contracts/Faro.sol\":3761:3772  win = false */\n      swap1\n      pop\n        /* \"Contracts/Faro.sol\":3413:3783  if (betRank == playerRank) {... */\n    tag_128:\n        /* \"Contracts/Faro.sol\":3302:3783  if (betRank == bankRank) {... */\n    tag_120:\n        /* \"Contracts/Faro.sol\":3090:3783  if (bankRank == playerRank) {... */\n    tag_118:\n        /* \"Contracts/Faro.sol\":3809:3819  msg.sender */\n      caller\n        /* \"Contracts/Faro.sol\":3798:3874  FaroPlayed(msg.sender, wager, fee, win, push, bankRank, playerRank, betRank) */\n      0xffffffffffffffffffffffffffffffffffffffff\n      and\n      0x581c95b4a30551b5e666528de83cd349e9922ce7e07561eea13505cc942fdee7\n        /* \"Contracts/Faro.sol\":3821:3826  wager */\n      dup9\n        /* \"Contracts/Faro.sol\":3828:3831  fee */\n      dup9\n        /* \"Contracts/Faro.sol\":3833:3836  win */\n      dup5\n        /* \"Contracts/Faro.sol\":3838:3842  push */\n      dup7\n        /* \"Contracts/Faro.sol\":3844:3852  bankRank */\n      dup10\n        /* \"Contracts/Faro.sol\":3854:3864  playerRank */\n      dup10\n        /* \"Contracts/Faro.sol\":3866:3873  betRank */\n      dup16\n        /* \"Contracts/Faro.sol\":3798:3874  FaroPlayed(msg.sender, wager, fee, win, push, bankRank, playerRank, betRank) */\n      mload(0x40)\n      tag_129\n      swap8\n      swap7\n      swap6\n      swap5\n      swap4\n      swap3\n      swap2\n      swap1\n      tag_130\n      jump\t// in\n    tag_129:\n      mload(0x40)\n      dup1\n      swap2\n      sub\n      swap1\n      log2\n        /* \"Contracts/Faro.sol\":2562:3881  {... */\n      pop\n      pop\n      pop\n      pop\n      pop\n      pop\n      pop\n        /* \"Contracts/Faro.sol\":1022:1023  1 */\n      0x01\n        /* \"Contracts/Faro.sol\":1012:1019  _locked */\n      dup1\n        /* \"Contracts/Faro.sol\":1012:1023  _locked = 1 */\n      dup2\n      swap1\n      sstore\n      pop\n        /* \"Contracts/Faro.sol\":2499:3881  function playFaro(uint8 betRank) external payable nonReentrant {... */\n      pop\n      jump\t// out\n        /* \"Contracts/Faro.sol\":1801:1976  function withdraw(address payable to, uint256 amount) external onlyOwner {... */\n    tag_64:\n        /* \"Contracts/Faro.sol\":838:843  owner */\n      0x00\n      dup1\n      sload\n      swap1\n      0x0100\n      exp\n      swap1\n      div\n      0xffffffffffffffffffffffffffffffffffffffff\n      and\n        /* \"Contracts/Faro.sol\":824:843  msg.sender == owner */\n      0xffffffffffffffffffffffffffffffffffffffff\n      and\n        /* \"Contracts/Faro.sol\":824:834  msg.sender */\n      caller\n        /* \"Contracts/Faro.sol\":824:843  msg.sender == owner */\n      0xffffffffffffffffffffffffffffffffffffffff\n      and\n      eq\n        /* \"Contracts/Faro.sol\":816:857  require(msg.sender == owner, \"not owner\") */\n      tag_132\n      jumpi\n      mload(0x40)\n      0x08c379a000000000000000000000000000000000000000000000000000000000\n      dup2\n      mstore\n      0x04\n      add\n      tag_133\n      swap1\n      tag_68\n      jump\t// in\n    tag_133:\n      mload(0x40)\n      dup1\n      swap2\n      sub\n      swap1\n      revert\n    tag_132:\n        /* \"Contracts/Faro.sol\":1917:1923  amount */\n      dup1\n        /* \"Contracts/Faro.sol\":1892:1913  address(this).balance */\n      selfbalance\n        /* \"Contracts/Faro.sol\":1892:1923  address(this).balance >= amount */\n      lt\n      iszero\n        /* \"Contracts/Faro.sol\":1884:1940  require(address(this).balance >= amount, \"insufficient\") */\n      tag_135\n      jumpi\n      mload(0x40)\n      0x08c379a000000000000000000000000000000000000000000000000000000000\n      dup2\n      mstore\n      0x04\n      add\n      tag_136\n      swap1\n      tag_137\n      jump\t// in\n    tag_136:\n      mload(0x40)\n      dup1\n      swap2\n      sub\n      swap1\n      revert\n    tag_135:\n        /* \"Contracts/Faro.sol\":1950:1952  to */\n      dup2\n        /* \"Contracts/Faro.sol\":1950:1961  to.transfer */\n      0xffffffffffffffffffffffffffffffffffffffff\n      and\n        /* \"Contracts/Faro.sol\":1950:1969  to.transfer(amount) */\n      0x08fc\n        /* \"Contracts/Faro.sol\":1962:1968  amount */\n      dup3\n        /* \"Contracts/Faro.sol\":1950:1969  to.transfer(amount) */\n      swap1\n      dup2\n      iszero\n      mul\n      swap1\n      mload(0x40)\n      0x00\n      mload(0x40)\n      dup1\n      dup4\n      sub\n      dup2\n      dup6\n      dup9\n      dup9\n      call\n      swap4\n      pop\n      pop\n      pop\n      pop\n      iszero\n      dup1\n      iszero\n      tag_139\n      jumpi\n      returndatasize\n      0x00\n      dup1\n      returndatacopy\n      revert(0x00, returndatasize)\n    tag_139:\n      pop\n        /* \"Contracts/Faro.sol\":1801:1976  function withdraw(address payable to, uint256 amount) external onlyOwner {... */\n      pop\n      pop\n      jump\t// out\n        /* \"Contracts/Faro.sol\":2237:2447  function _rand(uint256 mod) internal returns (uint256 r) {... */\n    tag_110:\n        /* \"Contracts/Faro.sol\":2283:2292  uint256 r */\n      0x00\n        /* \"Contracts/Faro.sol\":2427:2430  mod */\n      dup2\n        /* \"Contracts/Faro.sol\":2367:2383  block.prevrandao */\n      prevrandao\n        /* \"Contracts/Faro.sol\":2385:2400  block.timestamp */\n      timestamp\n        /* \"Contracts/Faro.sol\":2402:2412  msg.sender */\n      caller\n        /* \"Contracts/Faro.sol\":2414:2419  nonce */\n      0x05\n      0x00\n        /* \"Contracts/Faro.sol\":2414:2421  nonce++ */\n      dup2\n      sload\n      dup1\n      swap3\n      swap2\n      swap1\n      0x01\n      add\n      swap2\n      swap1\n      pop\n      sstore\n        /* \"Contracts/Faro.sol\":2350:2422  abi.encodePacked(block.prevrandao, block.timestamp, msg.sender, nonce++) */\n      add(0x20, mload(0x40))\n      tag_141\n      swap5\n      swap4\n      swap3\n      swap2\n      swap1\n      tag_142\n      jump\t// in\n    tag_141:\n      mload(0x40)\n      0x20\n      dup2\n      dup4\n      sub\n      sub\n      dup2\n      mstore\n      swap1\n      0x40\n      mstore\n        /* \"Contracts/Faro.sol\":2340:2423  keccak256(abi.encodePacked(block.prevrandao, block.timestamp, msg.sender, nonce++)) */\n      dup1\n      mload\n      swap1\n      0x20\n      add\n      keccak256\n        /* \"Contracts/Faro.sol\":2332:2424  uint256(keccak256(abi.encodePacked(block.prevrandao, block.timestamp, msg.sender, nonce++))) */\n      0x00\n      shr\n        /* \"Contracts/Faro.sol\":2332:2430  uint256(keccak256(abi.encodePacked(block.prevrandao, block.timestamp, msg.sender, nonce++))) % mod */\n      dup2\n      tag_143\n      jumpi\n      tag_144\n      tag_145\n      jump\t// in\n    tag_144:\n    tag_143:\n      mod\n        /* \"Contracts/Faro.sol\":2328:2430  r = uint256(keccak256(abi.encodePacked(block.prevrandao, block.timestamp, msg.sender, nonce++))) % mod */\n      swap1\n      pop\n        /* \"Contracts/Faro.sol\":2237:2447  function _rand(uint256 mod) internal returns (uint256 r) {... */\n      swap2\n      swap1\n      pop\n      jump\t// out\n        /* \"#utility.yul\":88:205   */\n    tag_147:\n        /* \"#utility.yul\":197:198   */\n      0x00\n        /* \"#utility.yul\":194:195   */\n      dup1\n        /* \"#utility.yul\":187:199   */\n      revert\n        /* \"#utility.yul\":334:423   */\n    tag_149:\n        /* \"#utility.yul\":370:377   */\n      0x00\n        /* \"#utility.yul\":410:416   */\n      0xffff\n        /* \"#utility.yul\":403:408   */\n      dup3\n        /* \"#utility.yul\":399:417   */\n      and\n        /* \"#utility.yul\":388:417   */\n      swap1\n      pop\n        /* \"#utility.yul\":334:423   */\n      swap2\n      swap1\n      pop\n      jump\t// out\n        /* \"#utility.yul\":429:549   */\n    tag_150:\n        /* \"#utility.yul\":501:524   */\n      tag_199\n        /* \"#utility.yul\":518:523   */\n      dup2\n        /* \"#utility.yul\":501:524   */\n      tag_149\n      jump\t// in\n    tag_199:\n        /* \"#utility.yul\":494:499   */\n      dup2\n        /* \"#utility.yul\":491:525   */\n      eq\n        /* \"#utility.yul\":481:543   */\n      tag_200\n      jumpi\n        /* \"#utility.yul\":539:540   */\n      0x00\n        /* \"#utility.yul\":536:537   */\n      dup1\n        /* \"#utility.yul\":529:541   */\n      revert\n        /* \"#utility.yul\":481:543   */\n    tag_200:\n        /* \"#utility.yul\":429:549   */\n      pop\n      jump\t// out\n        /* \"#utility.yul\":555:692   */\n    tag_151:\n        /* \"#utility.yul\":600:605   */\n      0x00\n        /* \"#utility.yul\":638:644   */\n      dup2\n        /* \"#utility.yul\":625:645   */\n      calldataload\n        /* \"#utility.yul\":616:645   */\n      swap1\n      pop\n        /* \"#utility.yul\":654:686   */\n      tag_202\n        /* \"#utility.yul\":680:685   */\n      dup2\n        /* \"#utility.yul\":654:686   */\n      tag_150\n      jump\t// in\n    tag_202:\n        /* \"#utility.yul\":555:692   */\n      swap3\n      swap2\n      pop\n      pop\n      jump\t// out\n        /* \"#utility.yul\":698:1025   */\n    tag_20:\n        /* \"#utility.yul\":756:762   */\n      0x00\n        /* \"#utility.yul\":805:807   */\n      0x20\n        /* \"#utility.yul\":793:802   */\n      dup3\n        /* \"#utility.yul\":784:791   */\n      dup5\n        /* \"#utility.yul\":780:803   */\n      sub\n        /* \"#utility.yul\":776:808   */\n      slt\n        /* \"#utility.yul\":773:892   */\n      iszero\n      tag_204\n      jumpi\n        /* \"#utility.yul\":811:890   */\n      tag_205\n      tag_147\n      jump\t// in\n    tag_205:\n        /* \"#utility.yul\":773:892   */\n    tag_204:\n        /* \"#utility.yul\":931:932   */\n      0x00\n        /* \"#utility.yul\":956:1008   */\n      tag_206\n        /* \"#utility.yul\":1000:1007   */\n      dup5\n        /* \"#utility.yul\":991:997   */\n      dup3\n        /* \"#utility.yul\":980:989   */\n      dup6\n        /* \"#utility.yul\":976:998   */\n      add\n        /* \"#utility.yul\":956:1008   */\n      tag_151\n      jump\t// in\n    tag_206:\n        /* \"#utility.yul\":946:1008   */\n      swap2\n      pop\n        /* \"#utility.yul\":902:1018   */\n      pop\n        /* \"#utility.yul\":698:1025   */\n      swap3\n      swap2\n      pop\n      pop\n      jump\t// out\n        /* \"#utility.yul\":1031:1146   */\n    tag_152:\n        /* \"#utility.yul\":1116:1139   */\n      tag_208\n        /* \"#utility.yul\":1133:1138   */\n      dup2\n        /* \"#utility.yul\":1116:1139   */\n      tag_149\n      jump\t// in\n    tag_208:\n        /* \"#utility.yul\":1111:1114   */\n      dup3\n        /* \"#utility.yul\":1104:1140   */\n      mstore\n        /* \"#utility.yul\":1031:1146   */\n      pop\n      pop\n      jump\t// out\n        /* \"#utility.yul\":1152:1370   */\n    tag_26:\n        /* \"#utility.yul\":1243:1247   */\n      0x00\n        /* \"#utility.yul\":1281:1283   */\n      0x20\n        /* \"#utility.yul\":1270:1279   */\n      dup3\n        /* \"#utility.yul\":1266:1284   */\n      add\n        /* \"#utility.yul\":1258:1284   */\n      swap1\n      pop\n        /* \"#utility.yul\":1294:1363   */\n      tag_210\n        /* \"#utility.yul\":1360:1361   */\n      0x00\n        /* \"#utility.yul\":1349:1358   */\n      dup4\n        /* \"#utility.yul\":1345:1362   */\n      add\n        /* \"#utility.yul\":1336:1342   */\n      dup5\n        /* \"#utility.yul\":1294:1363   */\n      tag_152\n      jump\t// in\n    tag_210:\n        /* \"#utility.yul\":1152:1370   */\n      swap3\n      swap2\n      pop\n      pop\n      jump\t// out\n        /* \"#utility.yul\":1376:1453   */\n    tag_153:\n        /* \"#utility.yul\":1413:1420   */\n      0x00\n        /* \"#utility.yul\":1442:1447   */\n      dup2\n        /* \"#utility.yul\":1431:1447   */\n      swap1\n      pop\n        /* \"#utility.yul\":1376:1453   */\n      swap2\n      swap1\n      pop\n      jump\t// out\n        /* \"#utility.yul\":1459:1577   */\n    tag_154:\n        /* \"#utility.yul\":1546:1570   */\n      tag_213\n        /* \"#utility.yul\":1564:1569   */\n      dup2\n        /* \"#utility.yul\":1546:1570   */\n      tag_153\n      jump\t// in\n    tag_213:\n        /* \"#utility.yul\":1541:1544   */\n      dup3\n        /* \"#utility.yul\":1534:1571   */\n      mstore\n        /* \"#utility.yul\":1459:1577   */\n      pop\n      pop\n      jump\t// out\n        /* \"#utility.yul\":1583:1805   */\n    tag_31:\n        /* \"#utility.yul\":1676:1680   */\n      0x00\n        /* \"#utility.yul\":1714:1716   */\n      0x20\n        /* \"#utility.yul\":1703:1712   */\n      dup3\n        /* \"#utility.yul\":1699:1717   */\n      add\n        /* \"#utility.yul\":1691:1717   */\n      swap1\n      pop\n        /* \"#utility.yul\":1727:1798   */\n      tag_215\n        /* \"#utility.yul\":1795:1796   */\n      0x00\n        /* \"#utility.yul\":1784:1793   */\n      dup4\n        /* \"#utility.yul\":1780:1797   */\n      add\n        /* \"#utility.yul\":1771:1777   */\n      dup5\n        /* \"#utility.yul\":1727:1798   */\n      tag_154\n      jump\t// in\n    tag_215:\n        /* \"#utility.yul\":1583:1805   */\n      swap3\n      swap2\n      pop\n      pop\n      jump\t// out\n        /* \"#utility.yul\":1811:1933   */\n    tag_155:\n        /* \"#utility.yul\":1884:1908   */\n      tag_217\n        /* \"#utility.yul\":1902:1907   */\n      dup2\n        /* \"#utility.yul\":1884:1908   */\n      tag_153\n      jump\t// in\n    tag_217:\n        /* \"#utility.yul\":1877:1882   */\n      dup2\n        /* \"#utility.yul\":1874:1909   */\n      eq\n        /* \"#utility.yul\":1864:1927   */\n      tag_218\n      jumpi\n        /* \"#utility.yul\":1923:1924   */\n      0x00\n        /* \"#utility.yul\":1920:1921   */\n      dup1\n        /* \"#utility.yul\":1913:1925   */\n      revert\n        /* \"#utility.yul\":1864:1927   */\n    tag_218:\n        /* \"#utility.yul\":1811:1933   */\n      pop\n      jump\t// out\n        /* \"#utility.yul\":1939:2078   */\n    tag_156:\n        /* \"#utility.yul\":1985:1990   */\n      0x00\n        /* \"#utility.yul\":2023:2029   */\n      dup2\n        /* \"#utility.yul\":2010:2030   */\n      calldataload\n        /* \"#utility.yul\":2001:2030   */\n      swap1\n      pop\n        /* \"#utility.yul\":2039:2072   */\n      tag_220\n        /* \"#utility.yul\":2066:2071   */\n      dup2\n        /* \"#utility.yul\":2039:2072   */\n      tag_155\n      jump\t// in\n    tag_220:\n        /* \"#utility.yul\":1939:2078   */\n      swap3\n      swap2\n      pop\n      pop\n      jump\t// out\n        /* \"#utility.yul\":2084:2413   */\n    tag_35:\n        /* \"#utility.yul\":2143:2149   */\n      0x00\n        /* \"#utility.yul\":2192:2194   */\n      0x20\n        /* \"#utility.yul\":2180:2189   */\n      dup3\n        /* \"#utility.yul\":2171:2178   */\n      dup5\n        /* \"#utility.yul\":2167:2190   */\n      sub\n        /* \"#utility.yul\":2163:2195   */\n      slt\n        /* \"#utility.yul\":2160:2279   */\n      iszero\n      tag_222\n      jumpi\n        /* \"#utility.yul\":2198:2277   */\n      tag_223\n      tag_147\n      jump\t// in\n    tag_223:\n        /* \"#utility.yul\":2160:2279   */\n    tag_222:\n        /* \"#utility.yul\":2318:2319   */\n      0x00\n        /* \"#utility.yul\":2343:2396   */\n      tag_224\n        /* \"#utility.yul\":2388:2395   */\n      dup5\n        /* \"#utility.yul\":2379:2385   */\n      dup3\n        /* \"#utility.yul\":2368:2377   */\n      dup6\n        /* \"#utility.yul\":2364:2386   */\n      add\n        /* \"#utility.yul\":2343:2396   */\n      tag_156\n      jump\t// in\n    tag_224:\n        /* \"#utility.yul\":2333:2396   */\n      swap2\n      pop\n        /* \"#utility.yul\":2289:2406   */\n      pop\n        /* \"#utility.yul\":2084:2413   */\n      swap3\n      swap2\n      pop\n      pop\n      jump\t// out\n        /* \"#utility.yul\":2419:2545   */\n    tag_157:\n        /* \"#utility.yul\":2456:2463   */\n      0x00\n        /* \"#utility.yul\":2496:2538   */\n      0xffffffffffffffffffffffffffffffffffffffff\n        /* \"#utility.yul\":2489:2494   */\n      dup3\n        /* \"#utility.yul\":2485:2539   */\n      and\n        /* \"#utility.yul\":2474:2539   */\n      swap1\n      pop\n        /* \"#utility.yul\":2419:2545   */\n      swap2\n      swap1\n      pop\n      jump\t// out\n        /* \"#utility.yul\":2551:2647   */\n    tag_158:\n        /* \"#utility.yul\":2588:2595   */\n      0x00\n        /* \"#utility.yul\":2617:2641   */\n      tag_227\n        /* \"#utility.yul\":2635:2640   */\n      dup3\n        /* \"#utility.yul\":2617:2641   */\n      tag_157\n      jump\t// in\n    tag_227:\n        /* \"#utility.yul\":2606:2641   */\n      swap1\n      pop\n        /* \"#utility.yul\":2551:2647   */\n      swap2\n      swap1\n      pop\n      jump\t// out\n        /* \"#utility.yul\":2653:2771   */\n    tag_159:\n        /* \"#utility.yul\":2740:2764   */\n      tag_229\n        /* \"#utility.yul\":2758:2763   */\n      dup2\n        /* \"#utility.yul\":2740:2764   */\n      tag_158\n      jump\t// in\n    tag_229:\n        /* \"#utility.yul\":2735:2738   */\n      dup3\n        /* \"#utility.yul\":2728:2765   */\n      mstore\n        /* \"#utility.yul\":2653:2771   */\n      pop\n      pop\n      jump\t// out\n        /* \"#utility.yul\":2777:2999   */\n    tag_41:\n        /* \"#utility.yul\":2870:2874   */\n      0x00\n        /* \"#utility.yul\":2908:2910   */\n      0x20\n        /* \"#utility.yul\":2897:2906   */\n      dup3\n        /* \"#utility.yul\":2893:2911   */\n      add\n        /* \"#utility.yul\":2885:2911   */\n      swap1\n      pop\n        /* \"#utility.yul\":2921:2992   */\n      tag_231\n        /* \"#utility.yul\":2989:2990   */\n      0x00\n        /* \"#utility.yul\":2978:2987   */\n      dup4\n        /* \"#utility.yul\":2974:2991   */\n      add\n        /* \"#utility.yul\":2965:2971   */\n      dup5\n        /* \"#utility.yul\":2921:2992   */\n      tag_159\n      jump\t// in\n    tag_231:\n        /* \"#utility.yul\":2777:2999   */\n      swap3\n      swap2\n      pop\n      pop\n      jump\t// out\n        /* \"#utility.yul\":3005:3109   */\n    tag_160:\n        /* \"#utility.yul\":3050:3057   */\n      0x00\n        /* \"#utility.yul\":3079:3103   */\n      tag_233\n        /* \"#utility.yul\":3097:3102   */\n      dup3\n        /* \"#utility.yul\":3079:3103   */\n      tag_157\n      jump\t// in\n    tag_233:\n        /* \"#utility.yul\":3068:3103   */\n      swap1\n      pop\n        /* \"#utility.yul\":3005:3109   */\n      swap2\n      swap1\n      pop\n      jump\t// out\n        /* \"#utility.yul\":3115:3253   */\n    tag_161:\n        /* \"#utility.yul\":3196:3228   */\n      tag_235\n        /* \"#utility.yul\":3222:3227   */\n      dup2\n        /* \"#utility.yul\":3196:3228   */\n      tag_160\n      jump\t// in\n    tag_235:\n        /* \"#utility.yul\":3189:3194   */\n      dup2\n        /* \"#utility.yul\":3186:3229   */\n      eq\n        /* \"#utility.yul\":3176:3247   */\n      tag_236\n      jumpi\n        /* \"#utility.yul\":3243:3244   */\n      0x00\n        /* \"#utility.yul\":3240:3241   */\n      dup1\n        /* \"#utility.yul\":3233:3245   */\n      revert\n        /* \"#utility.yul\":3176:3247   */\n    tag_236:\n        /* \"#utility.yul\":3115:3253   */\n      pop\n      jump\t// out\n        /* \"#utility.yul\":3259:3414   */\n    tag_162:\n        /* \"#utility.yul\":3313:3318   */\n      0x00\n        /* \"#utility.yul\":3351:3357   */\n      dup2\n        /* \"#utility.yul\":3338:3358   */\n      calldataload\n        /* \"#utility.yul\":3329:3358   */\n      swap1\n      pop\n        /* \"#utility.yul\":3367:3408   */\n      tag_238\n        /* \"#utility.yul\":3402:3407   */\n      dup2\n        /* \"#utility.yul\":3367:3408   */\n      tag_161\n      jump\t// in\n    tag_238:\n        /* \"#utility.yul\":3259:3414   */\n      swap3\n      swap2\n      pop\n      pop\n      jump\t// out\n        /* \"#utility.yul\":3420:3910   */\n    tag_49:\n        /* \"#utility.yul\":3496:3502   */\n      0x00\n        /* \"#utility.yul\":3504:3510   */\n      dup1\n        /* \"#utility.yul\":3553:3555   */\n      0x40\n        /* \"#utility.yul\":3541:3550   */\n      dup4\n        /* \"#utility.yul\":3532:3539   */\n      dup6\n        /* \"#utility.yul\":3528:3551   */\n      sub\n        /* \"#utility.yul\":3524:3556   */\n      slt\n        /* \"#utility.yul\":3521:3640   */\n      iszero\n      tag_240\n      jumpi\n        /* \"#utility.yul\":3559:3638   */\n      tag_241\n      tag_147\n      jump\t// in\n    tag_241:\n        /* \"#utility.yul\":3521:3640   */\n    tag_240:\n        /* \"#utility.yul\":3679:3680   */\n      0x00\n        /* \"#utility.yul\":3704:3765   */\n      tag_242\n        /* \"#utility.yul\":3757:3764   */\n      dup6\n        /* \"#utility.yul\":3748:3754   */\n      dup3\n        /* \"#utility.yul\":3737:3746   */\n      dup7\n        /* \"#utility.yul\":3733:3755   */\n      add\n        /* \"#utility.yul\":3704:3765   */\n      tag_162\n      jump\t// in\n    tag_242:\n        /* \"#utility.yul\":3694:3765   */\n      swap3\n      pop\n        /* \"#utility.yul\":3650:3775   */\n      pop\n        /* \"#utility.yul\":3814:3816   */\n      0x20\n        /* \"#utility.yul\":3840:3893   */\n      tag_243\n        /* \"#utility.yul\":3885:3892   */\n      dup6\n        /* \"#utility.yul\":3876:3882   */\n      dup3\n        /* \"#utility.yul\":3865:3874   */\n      dup7\n        /* \"#utility.yul\":3861:3883   */\n      add\n        /* \"#utility.yul\":3840:3893   */\n      tag_156\n      jump\t// in\n    tag_243:\n        /* \"#utility.yul\":3830:3893   */\n      swap2\n      pop\n        /* \"#utility.yul\":3785:3903   */\n      pop\n        /* \"#utility.yul\":3420:3910   */\n      swap3\n      pop\n      swap3\n      swap1\n      pop\n      jump\t// out\n        /* \"#utility.yul\":3916:4002   */\n    tag_163:\n        /* \"#utility.yul\":3951:3958   */\n      0x00\n        /* \"#utility.yul\":3991:3995   */\n      0xff\n        /* \"#utility.yul\":3984:3989   */\n      dup3\n        /* \"#utility.yul\":3980:3996   */\n      and\n        /* \"#utility.yul\":3969:3996   */\n      swap1\n      pop\n        /* \"#utility.yul\":3916:4002   */\n      swap2\n      swap1\n      pop\n      jump\t// out\n        /* \"#utility.yul\":4008:4126   */\n    tag_164:\n        /* \"#utility.yul\":4079:4101   */\n      tag_246\n        /* \"#utility.yul\":4095:4100   */\n      dup2\n        /* \"#utility.yul\":4079:4101   */\n      tag_163\n      jump\t// in\n    tag_246:\n        /* \"#utility.yul\":4072:4077   */\n      dup2\n        /* \"#utility.yul\":4069:4102   */\n      eq\n        /* \"#utility.yul\":4059:4120   */\n      tag_247\n      jumpi\n        /* \"#utility.yul\":4116:4117   */\n      0x00\n        /* \"#utility.yul\":4113:4114   */\n      dup1\n        /* \"#utility.yul\":4106:4118   */\n      revert\n        /* \"#utility.yul\":4059:4120   */\n    tag_247:\n        /* \"#utility.yul\":4008:4126   */\n      pop\n      jump\t// out\n        /* \"#utility.yul\":4132:4267   */\n    tag_165:\n        /* \"#utility.yul\":4176:4181   */\n      0x00\n        /* \"#utility.yul\":4214:4220   */\n      dup2\n        /* \"#utility.yul\":4201:4221   */\n      calldataload\n        /* \"#utility.yul\":4192:4221   */\n      swap1\n      pop\n        /* \"#utility.yul\":4230:4261   */\n      tag_249\n        /* \"#utility.yul\":4255:4260   */\n      dup2\n        /* \"#utility.yul\":4230:4261   */\n      tag_164\n      jump\t// in\n    tag_249:\n        /* \"#utility.yul\":4132:4267   */\n      swap3\n      swap2\n      pop\n      pop\n      jump\t// out\n        /* \"#utility.yul\":4273:4598   */\n    tag_59:\n        /* \"#utility.yul\":4330:4336   */\n      0x00\n        /* \"#utility.yul\":4379:4381   */\n      0x20\n        /* \"#utility.yul\":4367:4376   */\n      dup3\n        /* \"#utility.yul\":4358:4365   */\n      dup5\n        /* \"#utility.yul\":4354:4377   */\n      sub\n        /* \"#utility.yul\":4350:4382   */\n      slt\n        /* \"#utility.yul\":4347:4466   */\n      iszero\n      tag_251\n      jumpi\n        /* \"#utility.yul\":4385:4464   */\n      tag_252\n      tag_147\n      jump\t// in\n    tag_252:\n        /* \"#utility.yul\":4347:4466   */\n    tag_251:\n        /* \"#utility.yul\":4505:4506   */\n      0x00\n        /* \"#utility.yul\":4530:4581   */\n      tag_253\n        /* \"#utility.yul\":4573:4580   */\n      dup5\n        /* \"#utility.yul\":4564:4570   */\n      dup3\n        /* \"#utility.yul\":4553:4562   */\n      dup6\n        /* \"#utility.yul\":4549:4571   */\n      add\n        /* \"#utility.yul\":4530:4581   */\n      tag_165\n      jump\t// in\n    tag_253:\n        /* \"#utility.yul\":4520:4581   */\n      swap2\n      pop\n        /* \"#utility.yul\":4476:4591   */\n      pop\n        /* \"#utility.yul\":4273:4598   */\n      swap3\n      swap2\n      pop\n      pop\n      jump\t// out\n        /* \"#utility.yul\":4604:4773   */\n    tag_166:\n        /* \"#utility.yul\":4688:4699   */\n      0x00\n        /* \"#utility.yul\":4722:4728   */\n      dup3\n        /* \"#utility.yul\":4717:4720   */\n      dup3\n        /* \"#utility.yul\":4710:4729   */\n      mstore\n        /* \"#utility.yul\":4762:4766   */\n      0x20\n        /* \"#utility.yul\":4757:4760   */\n      dup3\n        /* \"#utility.yul\":4753:4767   */\n      add\n        /* \"#utility.yul\":4738:4767   */\n      swap1\n      pop\n        /* \"#utility.yul\":4604:4773   */\n      swap3\n      swap2\n      pop\n      pop\n      jump\t// out\n        /* \"#utility.yul\":4779:4938   */\n    tag_167:\n        /* \"#utility.yul\":4919:4930   */\n      0x6e6f74206f776e65720000000000000000000000000000000000000000000000\n        /* \"#utility.yul\":4915:4916   */\n      0x00\n        /* \"#utility.yul\":4907:4913   */\n      dup3\n        /* \"#utility.yul\":4903:4917   */\n      add\n        /* \"#utility.yul\":4896:4931   */\n      mstore\n        /* \"#utility.yul\":4779:4938   */\n      pop\n      jump\t// out\n        /* \"#utility.yul\":4944:5309   */\n    tag_168:\n        /* \"#utility.yul\":5086:5089   */\n      0x00\n        /* \"#utility.yul\":5107:5173   */\n      tag_257\n        /* \"#utility.yul\":5171:5172   */\n      0x09\n        /* \"#utility.yul\":5166:5169   */\n      dup4\n        /* \"#utility.yul\":5107:5173   */\n      tag_166\n      jump\t// in\n    tag_257:\n        /* \"#utility.yul\":5100:5173   */\n      swap2\n      pop\n        /* \"#utility.yul\":5182:5275   */\n      tag_258\n        /* \"#utility.yul\":5271:5274   */\n      dup3\n        /* \"#utility.yul\":5182:5275   */\n      tag_167\n      jump\t// in\n    tag_258:\n        /* \"#utility.yul\":5300:5302   */\n      0x20\n        /* \"#utility.yul\":5295:5298   */\n      dup3\n        /* \"#utility.yul\":5291:5303   */\n      add\n        /* \"#utility.yul\":5284:5303   */\n      swap1\n      pop\n        /* \"#utility.yul\":4944:5309   */\n      swap2\n      swap1\n      pop\n      jump\t// out\n        /* \"#utility.yul\":5315:5734   */\n    tag_68:\n        /* \"#utility.yul\":5481:5485   */\n      0x00\n        /* \"#utility.yul\":5519:5521   */\n      0x20\n        /* \"#utility.yul\":5508:5517   */\n      dup3\n        /* \"#utility.yul\":5504:5522   */\n      add\n        /* \"#utility.yul\":5496:5522   */\n      swap1\n      pop\n        /* \"#utility.yul\":5568:5577   */\n      dup2\n        /* \"#utility.yul\":5562:5566   */\n      dup2\n        /* \"#utility.yul\":5558:5578   */\n      sub\n        /* \"#utility.yul\":5554:5555   */\n      0x00\n        /* \"#utility.yul\":5543:5552   */\n      dup4\n        /* \"#utility.yul\":5539:5556   */\n      add\n        /* \"#utility.yul\":5532:5579   */\n      mstore\n        /* \"#utility.yul\":5596:5727   */\n      tag_260\n        /* \"#utility.yul\":5722:5726   */\n      dup2\n        /* \"#utility.yul\":5596:5727   */\n      tag_168\n      jump\t// in\n    tag_260:\n        /* \"#utility.yul\":5588:5727   */\n      swap1\n      pop\n        /* \"#utility.yul\":5315:5734   */\n      swap2\n      swap1\n      pop\n      jump\t// out\n        /* \"#utility.yul\":5740:5902   */\n    tag_169:\n        /* \"#utility.yul\":5880:5894   */\n      0x66656520746f6f20686967680000000000000000000000000000000000000000\n        /* \"#utility.yul\":5876:5877   */\n      0x00\n        /* \"#utility.yul\":5868:5874   */\n      dup3\n        /* \"#utility.yul\":5864:5878   */\n      add\n        /* \"#utility.yul\":5857:5895   */\n      mstore\n        /* \"#utility.yul\":5740:5902   */\n      pop\n      jump\t// out\n        /* \"#utility.yul\":5908:6274   */\n    tag_170:\n        /* \"#utility.yul\":6050:6053   */\n      0x00\n        /* \"#utility.yul\":6071:6138   */\n      tag_263\n        /* \"#utility.yul\":6135:6137   */\n      0x0c\n        /* \"#utility.yul\":6130:6133   */\n      dup4\n        /* \"#utility.yul\":6071:6138   */\n      tag_166\n      jump\t// in\n    tag_263:\n        /* \"#utility.yul\":6064:6138   */\n      swap2\n      pop\n        /* \"#utility.yul\":6147:6240   */\n      tag_264\n        /* \"#utility.yul\":6236:6239   */\n      dup3\n        /* \"#utility.yul\":6147:6240   */\n      tag_169\n      jump\t// in\n    tag_264:\n        /* \"#utility.yul\":6265:6267   */\n      0x20\n        /* \"#utility.yul\":6260:6263   */\n      dup3\n        /* \"#utility.yul\":6256:6268   */\n      add\n        /* \"#utility.yul\":6249:6268   */\n      swap1\n      pop\n        /* \"#utility.yul\":5908:6274   */\n      swap2\n      swap1\n      pop\n      jump\t// out\n        /* \"#utility.yul\":6280:6699   */\n    tag_72:\n        /* \"#utility.yul\":6446:6450   */\n      0x00\n        /* \"#utility.yul\":6484:6486   */\n      0x20\n        /* \"#utility.yul\":6473:6482   */\n      dup3\n        /* \"#utility.yul\":6469:6487   */\n      add\n        /* \"#utility.yul\":6461:6487   */\n      swap1\n      pop\n        /* \"#utility.yul\":6533:6542   */\n      dup2\n        /* \"#utility.yul\":6527:6531   */\n      dup2\n        /* \"#utility.yul\":6523:6543   */\n      sub\n        /* \"#utility.yul\":6519:6520   */\n      0x00\n        /* \"#utility.yul\":6508:6517   */\n      dup4\n        /* \"#utility.yul\":6504:6521   */\n      add\n        /* \"#utility.yul\":6497:6544   */\n      mstore\n        /* \"#utility.yul\":6561:6692   */\n      tag_266\n        /* \"#utility.yul\":6687:6691   */\n      dup2\n        /* \"#utility.yul\":6561:6692   */\n      tag_170\n      jump\t// in\n    tag_266:\n        /* \"#utility.yul\":6553:6692   */\n      swap1\n      pop\n        /* \"#utility.yul\":6280:6699   */\n      swap2\n      swap1\n      pop\n      jump\t// out\n        /* \"#utility.yul\":6705:6863   */\n    tag_171:\n        /* \"#utility.yul\":6845:6855   */\n      0x66656573206c6f77000000000000000000000000000000000000000000000000\n        /* \"#utility.yul\":6841:6842   */\n      0x00\n        /* \"#utility.yul\":6833:6839   */\n      dup3\n        /* \"#utility.yul\":6829:6843   */\n      add\n        /* \"#utility.yul\":6822:6856   */\n      mstore\n        /* \"#utility.yul\":6705:6863   */\n      pop\n      jump\t// out\n        /* \"#utility.yul\":6869:7234   */\n    tag_172:\n        /* \"#utility.yul\":7011:7014   */\n      0x00\n        /* \"#utility.yul\":7032:7098   */\n      tag_269\n        /* \"#utility.yul\":7096:7097   */\n      0x08\n        /* \"#utility.yul\":7091:7094   */\n      dup4\n        /* \"#utility.yul\":7032:7098   */\n      tag_166\n      jump\t// in\n    tag_269:\n        /* \"#utility.yul\":7025:7098   */\n      swap2\n      pop\n        /* \"#utility.yul\":7107:7200   */\n      tag_270\n        /* \"#utility.yul\":7196:7199   */\n      dup3\n        /* \"#utility.yul\":7107:7200   */\n      tag_171\n      jump\t// in\n    tag_270:\n        /* \"#utility.yul\":7225:7227   */\n      0x20\n        /* \"#utility.yul\":7220:7223   */\n      dup3\n        /* \"#utility.yul\":7216:7228   */\n      add\n        /* \"#utility.yul\":7209:7228   */\n      swap1\n      pop\n        /* \"#utility.yul\":6869:7234   */\n      swap2\n      swap1\n      pop\n      jump\t// out\n        /* \"#utility.yul\":7240:7659   */\n    tag_83:\n        /* \"#utility.yul\":7406:7410   */\n      0x00\n        /* \"#utility.yul\":7444:7446   */\n      0x20\n        /* \"#utility.yul\":7433:7442   */\n      dup3\n        /* \"#utility.yul\":7429:7447   */\n      add\n        /* \"#utility.yul\":7421:7447   */\n      swap1\n      pop\n        /* \"#utility.yul\":7493:7502   */\n      dup2\n        /* \"#utility.yul\":7487:7491   */\n      dup2\n        /* \"#utility.yul\":7483:7503   */\n      sub\n        /* \"#utility.yul\":7479:7480   */\n      0x00\n        /* \"#utility.yul\":7468:7477   */\n      dup4\n        /* \"#utility.yul\":7464:7481   */\n      add\n        /* \"#utility.yul\":7457:7504   */\n      mstore\n        /* \"#utility.yul\":7521:7652   */\n      tag_272\n        /* \"#utility.yul\":7647:7651   */\n      dup2\n        /* \"#utility.yul\":7521:7652   */\n      tag_172\n      jump\t// in\n    tag_272:\n        /* \"#utility.yul\":7513:7652   */\n      swap1\n      pop\n        /* \"#utility.yul\":7240:7659   */\n      swap2\n      swap1\n      pop\n      jump\t// out\n        /* \"#utility.yul\":7665:7845   */\n    tag_173:\n        /* \"#utility.yul\":7713:7790   */\n      0x4e487b7100000000000000000000000000000000000000000000000000000000\n        /* \"#utility.yul\":7710:7711   */\n      0x00\n        /* \"#utility.yul\":7703:7791   */\n      mstore\n        /* \"#utility.yul\":7810:7814   */\n      0x11\n        /* \"#utility.yul\":7807:7808   */\n      0x04\n        /* \"#utility.yul\":7800:7815   */\n      mstore\n        /* \"#utility.yul\":7834:7838   */\n      0x24\n        /* \"#utility.yul\":7831:7832   */\n      0x00\n        /* \"#utility.yul\":7824:7839   */\n      revert\n        /* \"#utility.yul\":7851:8045   */\n    tag_85:\n        /* \"#utility.yul\":7891:7895   */\n      0x00\n        /* \"#utility.yul\":7911:7931   */\n      tag_275\n        /* \"#utility.yul\":7929:7930   */\n      dup3\n        /* \"#utility.yul\":7911:7931   */\n      tag_153\n      jump\t// in\n    tag_275:\n        /* \"#utility.yul\":7906:7931   */\n      swap2\n      pop\n        /* \"#utility.yul\":7945:7965   */\n      tag_276\n        /* \"#utility.yul\":7963:7964   */\n      dup4\n        /* \"#utility.yul\":7945:7965   */\n      tag_153\n      jump\t// in\n    tag_276:\n        /* \"#utility.yul\":7940:7965   */\n      swap3\n      pop\n        /* \"#utility.yul\":7989:7990   */\n      dup3\n        /* \"#utility.yul\":7986:7987   */\n      dup3\n        /* \"#utility.yul\":7982:7991   */\n      sub\n        /* \"#utility.yul\":7974:7991   */\n      swap1\n      pop\n        /* \"#utility.yul\":8013:8014   */\n      dup2\n        /* \"#utility.yul\":8007:8011   */\n      dup2\n        /* \"#utility.yul\":8004:8015   */\n      gt\n        /* \"#utility.yul\":8001:8038   */\n      iszero\n      tag_277\n      jumpi\n        /* \"#utility.yul\":8018:8036   */\n      tag_278\n      tag_173\n      jump\t// in\n    tag_278:\n        /* \"#utility.yul\":8001:8038   */\n    tag_277:\n        /* \"#utility.yul\":7851:8045   */\n      swap3\n      swap2\n      pop\n      pop\n      jump\t// out\n        /* \"#utility.yul\":8051:8210   */\n    tag_174:\n        /* \"#utility.yul\":8191:8202   */\n      0x7265656e7472616e740000000000000000000000000000000000000000000000\n        /* \"#utility.yul\":8187:8188   */\n      0x00\n        /* \"#utility.yul\":8179:8185   */\n      dup3\n        /* \"#utility.yul\":8175:8189   */\n      add\n        /* \"#utility.yul\":8168:8203   */\n      mstore\n        /* \"#utility.yul\":8051:8210   */\n      pop\n      jump\t// out\n        /* \"#utility.yul\":8216:8581   */\n    tag_175:\n        /* \"#utility.yul\":8358:8361   */\n      0x00\n        /* \"#utility.yul\":8379:8445   */\n      tag_281\n        /* \"#utility.yul\":8443:8444   */\n      0x09\n        /* \"#utility.yul\":8438:8441   */\n      dup4\n        /* \"#utility.yul\":8379:8445   */\n      tag_166\n      jump\t// in\n    tag_281:\n        /* \"#utility.yul\":8372:8445   */\n      swap2\n      pop\n        /* \"#utility.yul\":8454:8547   */\n      tag_282\n        /* \"#utility.yul\":8543:8546   */\n      dup3\n        /* \"#utility.yul\":8454:8547   */\n      tag_174\n      jump\t// in\n    tag_282:\n        /* \"#utility.yul\":8572:8574   */\n      0x20\n        /* \"#utility.yul\":8567:8570   */\n      dup3\n        /* \"#utility.yul\":8563:8575   */\n      add\n        /* \"#utility.yul\":8556:8575   */\n      swap1\n      pop\n        /* \"#utility.yul\":8216:8581   */\n      swap2\n      swap1\n      pop\n      jump\t// out\n        /* \"#utility.yul\":8587:9006   */\n    tag_92:\n        /* \"#utility.yul\":8753:8757   */\n      0x00\n        /* \"#utility.yul\":8791:8793   */\n      0x20\n        /* \"#utility.yul\":8780:8789   */\n      dup3\n        /* \"#utility.yul\":8776:8794   */\n      add\n        /* \"#utility.yul\":8768:8794   */\n      swap1\n      pop\n        /* \"#utility.yul\":8840:8849   */\n      dup2\n        /* \"#utility.yul\":8834:8838   */\n      dup2\n        /* \"#utility.yul\":8830:8850   */\n      sub\n        /* \"#utility.yul\":8826:8827   */\n      0x00\n        /* \"#utility.yul\":8815:8824   */\n      dup4\n        /* \"#utility.yul\":8811:8828   */\n      add\n        /* \"#utility.yul\":8804:8851   */\n      mstore\n        /* \"#utility.yul\":8868:8999   */\n      tag_284\n        /* \"#utility.yul\":8994:8998   */\n      dup2\n        /* \"#utility.yul\":8868:8999   */\n      tag_175\n      jump\t// in\n    tag_284:\n        /* \"#utility.yul\":8860:8999   */\n      swap1\n      pop\n        /* \"#utility.yul\":8587:9006   */\n      swap2\n      swap1\n      pop\n      jump\t// out\n        /* \"#utility.yul\":9012:9170   */\n    tag_176:\n        /* \"#utility.yul\":9152:9162   */\n      0x6261642072616e6b000000000000000000000000000000000000000000000000\n        /* \"#utility.yul\":9148:9149   */\n      0x00\n        /* \"#utility.yul\":9140:9146   */\n      dup3\n        /* \"#utility.yul\":9136:9150   */\n      add\n        /* \"#utility.yul\":9129:9163   */\n      mstore\n        /* \"#utility.yul\":9012:9170   */\n      pop\n      jump\t// out\n        /* \"#utility.yul\":9176:9541   */\n    tag_177:\n        /* \"#utility.yul\":9318:9321   */\n      0x00\n        /* \"#utility.yul\":9339:9405   */\n      tag_287\n        /* \"#utility.yul\":9403:9404   */\n      0x08\n        /* \"#utility.yul\":9398:9401   */\n      dup4\n        /* \"#utility.yul\":9339:9405   */\n      tag_166\n      jump\t// in\n    tag_287:\n        /* \"#utility.yul\":9332:9405   */\n      swap2\n      pop\n        /* \"#utility.yul\":9414:9507   */\n      tag_288\n        /* \"#utility.yul\":9503:9506   */\n      dup3\n        /* \"#utility.yul\":9414:9507   */\n      tag_176\n      jump\t// in\n    tag_288:\n        /* \"#utility.yul\":9532:9534   */\n      0x20\n        /* \"#utility.yul\":9527:9530   */\n      dup3\n        /* \"#utility.yul\":9523:9535   */\n      add\n        /* \"#utility.yul\":9516:9535   */\n      swap1\n      pop\n        /* \"#utility.yul\":9176:9541   */\n      swap2\n      swap1\n      pop\n      jump\t// out\n        /* \"#utility.yul\":9547:9966   */\n    tag_97:\n        /* \"#utility.yul\":9713:9717   */\n      0x00\n        /* \"#utility.yul\":9751:9753   */\n      0x20\n        /* \"#utility.yul\":9740:9749   */\n      dup3\n        /* \"#utility.yul\":9736:9754   */\n      add\n        /* \"#utility.yul\":9728:9754   */\n      swap1\n      pop\n        /* \"#utility.yul\":9800:9809   */\n      dup2\n        /* \"#utility.yul\":9794:9798   */\n      dup2\n        /* \"#utility.yul\":9790:9810   */\n      sub\n        /* \"#utility.yul\":9786:9787   */\n      0x00\n        /* \"#utility.yul\":9775:9784   */\n      dup4\n        /* \"#utility.yul\":9771:9788   */\n      add\n        /* \"#utility.yul\":9764:9811   */\n      mstore\n        /* \"#utility.yul\":9828:9959   */\n      tag_290\n        /* \"#utility.yul\":9954:9958   */\n      dup2\n        /* \"#utility.yul\":9828:9959   */\n      tag_177\n      jump\t// in\n    tag_290:\n        /* \"#utility.yul\":9820:9959   */\n      swap1\n      pop\n        /* \"#utility.yul\":9547:9966   */\n      swap2\n      swap1\n      pop\n      jump\t// out\n        /* \"#utility.yul\":9972:10131   */\n    tag_178:\n        /* \"#utility.yul\":10112:10123   */\n      0x6261642077616765720000000000000000000000000000000000000000000000\n        /* \"#utility.yul\":10108:10109   */\n      0x00\n        /* \"#utility.yul\":10100:10106   */\n      dup3\n        /* \"#utility.yul\":10096:10110   */\n      add\n        /* \"#utility.yul\":10089:10124   */\n      mstore\n        /* \"#utility.yul\":9972:10131   */\n      pop\n      jump\t// out\n        /* \"#utility.yul\":10137:10502   */\n    tag_179:\n        /* \"#utility.yul\":10279:10282   */\n      0x00\n        /* \"#utility.yul\":10300:10366   */\n      tag_293\n        /* \"#utility.yul\":10364:10365   */\n      0x09\n        /* \"#utility.yul\":10359:10362   */\n      dup4\n        /* \"#utility.yul\":10300:10366   */\n      tag_166\n      jump\t// in\n    tag_293:\n        /* \"#utility.yul\":10293:10366   */\n      swap2\n      pop\n        /* \"#utility.yul\":10375:10468   */\n      tag_294\n        /* \"#utility.yul\":10464:10467   */\n      dup3\n        /* \"#utility.yul\":10375:10468   */\n      tag_178\n      jump\t// in\n    tag_294:\n        /* \"#utility.yul\":10493:10495   */\n      0x20\n        /* \"#utility.yul\":10488:10491   */\n      dup3\n        /* \"#utility.yul\":10484:10496   */\n      add\n        /* \"#utility.yul\":10477:10496   */\n      swap1\n      pop\n        /* \"#utility.yul\":10137:10502   */\n      swap2\n      swap1\n      pop\n      jump\t// out\n        /* \"#utility.yul\":10508:10927   */\n    tag_101:\n        /* \"#utility.yul\":10674:10678   */\n      0x00\n        /* \"#utility.yul\":10712:10714   */\n      0x20\n        /* \"#utility.yul\":10701:10710   */\n      dup3\n        /* \"#utility.yul\":10697:10715   */\n      add\n        /* \"#utility.yul\":10689:10715   */\n      swap1\n      pop\n        /* \"#utility.yul\":10761:10770   */\n      dup2\n        /* \"#utility.yul\":10755:10759   */\n      dup2\n        /* \"#utility.yul\":10751:10771   */\n      sub\n        /* \"#utility.yul\":10747:10748   */\n      0x00\n        /* \"#utility.yul\":10736:10745   */\n      dup4\n        /* \"#utility.yul\":10732:10749   */\n      add\n        /* \"#utility.yul\":10725:10772   */\n      mstore\n        /* \"#utility.yul\":10789:10920   */\n      tag_296\n        /* \"#utility.yul\":10915:10919   */\n      dup2\n        /* \"#utility.yul\":10789:10920   */\n      tag_179\n      jump\t// in\n    tag_296:\n        /* \"#utility.yul\":10781:10920   */\n      swap1\n      pop\n        /* \"#utility.yul\":10508:10927   */\n      swap2\n      swap1\n      pop\n      jump\t// out\n        /* \"#utility.yul\":10933:11343   */\n    tag_103:\n        /* \"#utility.yul\":10973:10980   */\n      0x00\n        /* \"#utility.yul\":10996:11016   */\n      tag_298\n        /* \"#utility.yul\":11014:11015   */\n      dup3\n        /* \"#utility.yul\":10996:11016   */\n      tag_153\n      jump\t// in\n    tag_298:\n        /* \"#utility.yul\":10991:11016   */\n      swap2\n      pop\n        /* \"#utility.yul\":11030:11050   */\n      tag_299\n        /* \"#utility.yul\":11048:11049   */\n      dup4\n        /* \"#utility.yul\":11030:11050   */\n      tag_153\n      jump\t// in\n    tag_299:\n        /* \"#utility.yul\":11025:11050   */\n      swap3\n      pop\n        /* \"#utility.yul\":11085:11086   */\n      dup3\n        /* \"#utility.yul\":11082:11083   */\n      dup3\n        /* \"#utility.yul\":11078:11087   */\n      mul\n        /* \"#utility.yul\":11107:11137   */\n      tag_300\n        /* \"#utility.yul\":11125:11136   */\n      dup2\n        /* \"#utility.yul\":11107:11137   */\n      tag_153\n      jump\t// in\n    tag_300:\n        /* \"#utility.yul\":11096:11137   */\n      swap2\n      pop\n        /* \"#utility.yul\":11286:11287   */\n      dup3\n        /* \"#utility.yul\":11277:11284   */\n      dup3\n        /* \"#utility.yul\":11273:11288   */\n      div\n        /* \"#utility.yul\":11270:11271   */\n      dup5\n        /* \"#utility.yul\":11267:11289   */\n      eq\n        /* \"#utility.yul\":11247:11248   */\n      dup4\n        /* \"#utility.yul\":11240:11249   */\n      iszero\n        /* \"#utility.yul\":11220:11303   */\n      or\n        /* \"#utility.yul\":11197:11336   */\n      tag_301\n      jumpi\n        /* \"#utility.yul\":11316:11334   */\n      tag_302\n      tag_173\n      jump\t// in\n    tag_302:\n        /* \"#utility.yul\":11197:11336   */\n    tag_301:\n        /* \"#utility.yul\":10981:11343   */\n      pop\n        /* \"#utility.yul\":10933:11343   */\n      swap3\n      swap2\n      pop\n      pop\n      jump\t// out\n        /* \"#utility.yul\":11349:11529   */\n    tag_145:\n        /* \"#utility.yul\":11397:11474   */\n      0x4e487b7100000000000000000000000000000000000000000000000000000000\n        /* \"#utility.yul\":11394:11395   */\n      0x00\n        /* \"#utility.yul\":11387:11475   */\n      mstore\n        /* \"#utility.yul\":11494:11498   */\n      0x12\n        /* \"#utility.yul\":11491:11492   */\n      0x04\n        /* \"#utility.yul\":11484:11499   */\n      mstore\n        /* \"#utility.yul\":11518:11522   */\n      0x24\n        /* \"#utility.yul\":11515:11516   */\n      0x00\n        /* \"#utility.yul\":11508:11523   */\n      revert\n        /* \"#utility.yul\":11535:11720   */\n    tag_105:\n        /* \"#utility.yul\":11575:11576   */\n      0x00\n        /* \"#utility.yul\":11592:11612   */\n      tag_305\n        /* \"#utility.yul\":11610:11611   */\n      dup3\n        /* \"#utility.yul\":11592:11612   */\n      tag_153\n      jump\t// in\n    tag_305:\n        /* \"#utility.yul\":11587:11612   */\n      swap2\n      pop\n        /* \"#utility.yul\":11626:11646   */\n      tag_306\n        /* \"#utility.yul\":11644:11645   */\n      dup4\n        /* \"#utility.yul\":11626:11646   */\n      tag_153\n      jump\t// in\n    tag_306:\n        /* \"#utility.yul\":11621:11646   */\n      swap3\n      pop\n        /* \"#utility.yul\":11665:11666   */\n      dup3\n        /* \"#utility.yul\":11655:11690   */\n      tag_307\n      jumpi\n        /* \"#utility.yul\":11670:11688   */\n      tag_308\n      tag_145\n      jump\t// in\n    tag_308:\n        /* \"#utility.yul\":11655:11690   */\n    tag_307:\n        /* \"#utility.yul\":11712:11713   */\n      dup3\n        /* \"#utility.yul\":11709:11710   */\n      dup3\n        /* \"#utility.yul\":11705:11714   */\n      div\n        /* \"#utility.yul\":11700:11714   */\n      swap1\n      pop\n        /* \"#utility.yul\":11535:11720   */\n      swap3\n      swap2\n      pop\n      pop\n      jump\t// out\n        /* \"#utility.yul\":11726:11917   */\n    tag_107:\n        /* \"#utility.yul\":11766:11769   */\n      0x00\n        /* \"#utility.yul\":11785:11805   */\n      tag_310\n        /* \"#utility.yul\":11803:11804   */\n      dup3\n        /* \"#utility.yul\":11785:11805   */\n      tag_153\n      jump\t// in\n    tag_310:\n        /* \"#utility.yul\":11780:11805   */\n      swap2\n      pop\n        /* \"#utility.yul\":11819:11839   */\n      tag_311\n        /* \"#utility.yul\":11837:11838   */\n      dup4\n        /* \"#utility.yul\":11819:11839   */\n      tag_153\n      jump\t// in\n    tag_311:\n        /* \"#utility.yul\":11814:11839   */\n      swap3\n      pop\n        /* \"#utility.yul\":11862:11863   */\n      dup3\n        /* \"#utility.yul\":11859:11860   */\n      dup3\n        /* \"#utility.yul\":11855:11864   */\n      add\n        /* \"#utility.yul\":11848:11864   */\n      swap1\n      pop\n        /* \"#utility.yul\":11883:11886   */\n      dup1\n        /* \"#utility.yul\":11880:11881   */\n      dup3\n        /* \"#utility.yul\":11877:11887   */\n      gt\n        /* \"#utility.yul\":11874:11910   */\n      iszero\n      tag_312\n      jumpi\n        /* \"#utility.yul\":11890:11908   */\n      tag_313\n      tag_173\n      jump\t// in\n    tag_313:\n        /* \"#utility.yul\":11874:11910   */\n    tag_312:\n        /* \"#utility.yul\":11726:11917   */\n      swap3\n      swap2\n      pop\n      pop\n      jump\t// out\n        /* \"#utility.yul\":11923:12085   */\n    tag_180:\n        /* \"#utility.yul\":12063:12077   */\n      0x62616e6b726f6c6c206c6f770000000000000000000000000000000000000000\n        /* \"#utility.yul\":12059:12060   */\n      0x00\n        /* \"#utility.yul\":12051:12057   */\n      dup3\n        /* \"#utility.yul\":12047:12061   */\n      add\n        /* \"#utility.yul\":12040:12078   */\n      mstore\n        /* \"#utility.yul\":11923:12085   */\n      pop\n      jump\t// out\n        /* \"#utility.yul\":12091:12457   */\n    tag_181:\n        /* \"#utility.yul\":12233:12236   */\n      0x00\n        /* \"#utility.yul\":12254:12321   */\n      tag_316\n        /* \"#utility.yul\":12318:12320   */\n      0x0c\n        /* \"#utility.yul\":12313:12316   */\n      dup4\n        /* \"#utility.yul\":12254:12321   */\n      tag_166\n      jump\t// in\n    tag_316:\n        /* \"#utility.yul\":12247:12321   */\n      swap2\n      pop\n        /* \"#utility.yul\":12330:12423   */\n      tag_317\n        /* \"#utility.yul\":12419:12422   */\n      dup3\n        /* \"#utility.yul\":12330:12423   */\n      tag_180\n      jump\t// in\n    tag_317:\n        /* \"#utility.yul\":12448:12450   */\n      0x20\n        /* \"#utility.yul\":12443:12446   */\n      dup3\n        /* \"#utility.yul\":12439:12451   */\n      add\n        /* \"#utility.yul\":12432:12451   */\n      swap1\n      pop\n        /* \"#utility.yul\":12091:12457   */\n      swap2\n      swap1\n      pop\n      jump\t// out\n        /* \"#utility.yul\":12463:12882   */\n    tag_125:\n        /* \"#utility.yul\":12629:12633   */\n      0x00\n        /* \"#utility.yul\":12667:12669   */\n      0x20\n        /* \"#utility.yul\":12656:12665   */\n      dup3\n        /* \"#utility.yul\":12652:12670   */\n      add\n        /* \"#utility.yul\":12644:12670   */\n      swap1\n      pop\n        /* \"#utility.yul\":12716:12725   */\n      dup2\n        /* \"#utility.yul\":12710:12714   */\n      dup2\n        /* \"#utility.yul\":12706:12726   */\n      sub\n        /* \"#utility.yul\":12702:12703   */\n      0x00\n        /* \"#utility.yul\":12691:12700   */\n      dup4\n        /* \"#utility.yul\":12687:12704   */\n      add\n        /* \"#utility.yul\":12680:12727   */\n      mstore\n        /* \"#utility.yul\":12744:12875   */\n      tag_319\n        /* \"#utility.yul\":12870:12874   */\n      dup2\n        /* \"#utility.yul\":12744:12875   */\n      tag_181\n      jump\t// in\n    tag_319:\n        /* \"#utility.yul\":12736:12875   */\n      swap1\n      pop\n        /* \"#utility.yul\":12463:12882   */\n      swap2\n      swap1\n      pop\n      jump\t// out\n        /* \"#utility.yul\":12888:12978   */\n    tag_182:\n        /* \"#utility.yul\":12922:12929   */\n      0x00\n        /* \"#utility.yul\":12965:12970   */\n      dup2\n        /* \"#utility.yul\":12958:12971   */\n      iszero\n        /* \"#utility.yul\":12951:12972   */\n      iszero\n        /* \"#utility.yul\":12940:12972   */\n      swap1\n      pop\n        /* \"#utility.yul\":12888:12978   */\n      swap2\n      swap1\n      pop\n      jump\t// out\n        /* \"#utility.yul\":12984:13093   */\n    tag_183:\n        /* \"#utility.yul\":13065:13086   */\n      tag_322\n        /* \"#utility.yul\":13080:13085   */\n      dup2\n        /* \"#utility.yul\":13065:13086   */\n      tag_182\n      jump\t// in\n    tag_322:\n        /* \"#utility.yul\":13060:13063   */\n      dup3\n        /* \"#utility.yul\":13053:13087   */\n      mstore\n        /* \"#utility.yul\":12984:13093   */\n      pop\n      pop\n      jump\t// out\n        /* \"#utility.yul\":13099:13211   */\n    tag_184:\n        /* \"#utility.yul\":13182:13204   */\n      tag_324\n        /* \"#utility.yul\":13198:13203   */\n      dup2\n        /* \"#utility.yul\":13182:13204   */\n      tag_163\n      jump\t// in\n    tag_324:\n        /* \"#utility.yul\":13177:13180   */\n      dup3\n        /* \"#utility.yul\":13170:13205   */\n      mstore\n        /* \"#utility.yul\":13099:13211   */\n      pop\n      pop\n      jump\t// out\n        /* \"#utility.yul\":13217:14055   */\n    tag_130:\n        /* \"#utility.yul\":13454:13458   */\n      0x00\n        /* \"#utility.yul\":13492:13495   */\n      0xe0\n        /* \"#utility.yul\":13481:13490   */\n      dup3\n        /* \"#utility.yul\":13477:13496   */\n      add\n        /* \"#utility.yul\":13469:13496   */\n      swap1\n      pop\n        /* \"#utility.yul\":13506:13577   */\n      tag_326\n        /* \"#utility.yul\":13574:13575   */\n      0x00\n        /* \"#utility.yul\":13563:13572   */\n      dup4\n        /* \"#utility.yul\":13559:13576   */\n      add\n        /* \"#utility.yul\":13550:13556   */\n      dup11\n        /* \"#utility.yul\":13506:13577   */\n      tag_154\n      jump\t// in\n    tag_326:\n        /* \"#utility.yul\":13587:13659   */\n      tag_327\n        /* \"#utility.yul\":13655:13657   */\n      0x20\n        /* \"#utility.yul\":13644:13653   */\n      dup4\n        /* \"#utility.yul\":13640:13658   */\n      add\n        /* \"#utility.yul\":13631:13637   */\n      dup10\n        /* \"#utility.yul\":13587:13659   */\n      tag_154\n      jump\t// in\n    tag_327:\n        /* \"#utility.yul\":13669:13735   */\n      tag_328\n        /* \"#utility.yul\":13731:13733   */\n      0x40\n        /* \"#utility.yul\":13720:13729   */\n      dup4\n        /* \"#utility.yul\":13716:13734   */\n      add\n        /* \"#utility.yul\":13707:13713   */\n      dup9\n        /* \"#utility.yul\":13669:13735   */\n      tag_183\n      jump\t// in\n    tag_328:\n        /* \"#utility.yul\":13745:13811   */\n      tag_329\n        /* \"#utility.yul\":13807:13809   */\n      0x60\n        /* \"#utility.yul\":13796:13805   */\n      dup4\n        /* \"#utility.yul\":13792:13810   */\n      add\n        /* \"#utility.yul\":13783:13789   */\n      dup8\n        /* \"#utility.yul\":13745:13811   */\n      tag_183\n      jump\t// in\n    tag_329:\n        /* \"#utility.yul\":13821:13890   */\n      tag_330\n        /* \"#utility.yul\":13885:13888   */\n      0x80\n        /* \"#utility.yul\":13874:13883   */\n      dup4\n        /* \"#utility.yul\":13870:13889   */\n      add\n        /* \"#utility.yul\":13861:13867   */\n      dup7\n        /* \"#utility.yul\":13821:13890   */\n      tag_184\n      jump\t// in\n    tag_330:\n        /* \"#utility.yul\":13900:13969   */\n      tag_331\n        /* \"#utility.yul\":13964:13967   */\n      0xa0\n        /* \"#utility.yul\":13953:13962   */\n      dup4\n        /* \"#utility.yul\":13949:13968   */\n      add\n        /* \"#utility.yul\":13940:13946   */\n      dup6\n        /* \"#utility.yul\":13900:13969   */\n      tag_184\n      jump\t// in\n    tag_331:\n        /* \"#utility.yul\":13979:14048   */\n      tag_332\n        /* \"#utility.yul\":14043:14046   */\n      0xc0\n        /* \"#utility.yul\":14032:14041   */\n      dup4\n        /* \"#utility.yul\":14028:14047   */\n      add\n        /* \"#utility.yul\":14019:14025   */\n      dup5\n        /* \"#utility.yul\":13979:14048   */\n      tag_184\n      jump\t// in\n    tag_332:\n        /* \"#utility.yul\":13217:14055   */\n      swap9\n      swap8\n      pop\n      pop\n      pop\n      pop\n      pop\n      pop\n      pop\n      pop\n      jump\t// out\n        /* \"#utility.yul\":14061:14223   */\n    tag_185:\n        /* \"#utility.yul\":14201:14215   */\n      0x696e73756666696369656e740000000000000000000000000000000000000000\n        /* \"#utility.yul\":14197:14198   */\n      0x00\n        /* \"#utility.yul\":14189:14195   */\n      dup3\n        /* \"#utility.yul\":14185:14199   */\n      add\n        /* \"#utility.yul\":14178:14216   */\n      mstore\n        /* \"#utility.yul\":14061:14223   */\n      pop\n      jump\t// out\n        /* \"#utility.yul\":14229:14595   */\n    tag_186:\n        /* \"#utility.yul\":14371:14374   */\n      0x00\n        /* \"#utility.yul\":14392:14459   */\n      tag_335\n        /* \"#utility.yul\":14456:14458   */\n      0x0c\n        /* \"#utility.yul\":14451:14454   */\n      dup4\n        /* \"#utility.yul\":14392:14459   */\n      tag_166\n      jump\t// in\n    tag_335:\n        /* \"#utility.yul\":14385:14459   */\n      swap2\n      pop\n        /* \"#utility.yul\":14468:14561   */\n      tag_336\n        /* \"#utility.yul\":14557:14560   */\n      dup3\n        /* \"#utility.yul\":14468:14561   */\n      tag_185\n      jump\t// in\n    tag_336:\n        /* \"#utility.yul\":14586:14588   */\n      0x20\n        /* \"#utility.yul\":14581:14584   */\n      dup3\n        /* \"#utility.yul\":14577:14589   */\n      add\n        /* \"#utility.yul\":14570:14589   */\n      swap1\n      pop\n        /* \"#utility.yul\":14229:14595   */\n      swap2\n      swap1\n      pop\n      jump\t// out\n        /* \"#utility.yul\":14601:15020   */\n    tag_137:\n        /* \"#utility.yul\":14767:14771   */\n      0x00\n        /* \"#utility.yul\":14805:14807   */\n      0x20\n        /* \"#utility.yul\":14794:14803   */\n      dup3\n        /* \"#utility.yul\":14790:14808   */\n      add\n        /* \"#utility.yul\":14782:14808   */\n      swap1\n      pop\n        /* \"#utility.yul\":14854:14863   */\n      dup2\n        /* \"#utility.yul\":14848:14852   */\n      dup2\n        /* \"#utility.yul\":14844:14864   */\n      sub\n        /* \"#utility.yul\":14840:14841   */\n      0x00\n        /* \"#utility.yul\":14829:14838   */\n      dup4\n        /* \"#utility.yul\":14825:14842   */\n      add\n        /* \"#utility.yul\":14818:14865   */\n      mstore\n        /* \"#utility.yul\":14882:15013   */\n      tag_338\n        /* \"#utility.yul\":15008:15012   */\n      dup2\n        /* \"#utility.yul\":14882:15013   */\n      tag_186\n      jump\t// in\n    tag_338:\n        /* \"#utility.yul\":14874:15013   */\n      swap1\n      pop\n        /* \"#utility.yul\":14601:15020   */\n      swap2\n      swap1\n      pop\n      jump\t// out\n        /* \"#utility.yul\":15026:15105   */\n    tag_187:\n        /* \"#utility.yul\":15065:15072   */\n      0x00\n        /* \"#utility.yul\":15094:15099   */\n      dup2\n        /* \"#utility.yul\":15083:15099   */\n      swap1\n      pop\n        /* \"#utility.yul\":15026:15105   */\n      swap2\n      swap1\n      pop\n      jump\t// out\n        /* \"#utility.yul\":15111:15268   */\n    tag_188:\n        /* \"#utility.yul\":15216:15261   */\n      tag_341\n        /* \"#utility.yul\":15236:15260   */\n      tag_342\n        /* \"#utility.yul\":15254:15259   */\n      dup3\n        /* \"#utility.yul\":15236:15260   */\n      tag_153\n      jump\t// in\n    tag_342:\n        /* \"#utility.yul\":15216:15261   */\n      tag_187\n      jump\t// in\n    tag_341:\n        /* \"#utility.yul\":15211:15214   */\n      dup3\n        /* \"#utility.yul\":15204:15262   */\n      mstore\n        /* \"#utility.yul\":15111:15268   */\n      pop\n      pop\n      jump\t// out\n        /* \"#utility.yul\":15274:15368   */\n    tag_189:\n        /* \"#utility.yul\":15307:15315   */\n      0x00\n        /* \"#utility.yul\":15355:15360   */\n      dup2\n        /* \"#utility.yul\":15351:15353   */\n      0x60\n        /* \"#utility.yul\":15347:15361   */\n      shl\n        /* \"#utility.yul\":15326:15361   */\n      swap1\n      pop\n        /* \"#utility.yul\":15274:15368   */\n      swap2\n      swap1\n      pop\n      jump\t// out\n        /* \"#utility.yul\":15374:15468   */\n    tag_190:\n        /* \"#utility.yul\":15413:15420   */\n      0x00\n        /* \"#utility.yul\":15442:15462   */\n      tag_345\n        /* \"#utility.yul\":15456:15461   */\n      dup3\n        /* \"#utility.yul\":15442:15462   */\n      tag_189\n      jump\t// in\n    tag_345:\n        /* \"#utility.yul\":15431:15462   */\n      swap1\n      pop\n        /* \"#utility.yul\":15374:15468   */\n      swap2\n      swap1\n      pop\n      jump\t// out\n        /* \"#utility.yul\":15474:15574   */\n    tag_191:\n        /* \"#utility.yul\":15513:15520   */\n      0x00\n        /* \"#utility.yul\":15542:15568   */\n      tag_347\n        /* \"#utility.yul\":15562:15567   */\n      dup3\n        /* \"#utility.yul\":15542:15568   */\n      tag_190\n      jump\t// in\n    tag_347:\n        /* \"#utility.yul\":15531:15568   */\n      swap1\n      pop\n        /* \"#utility.yul\":15474:15574   */\n      swap2\n      swap1\n      pop\n      jump\t// out\n        /* \"#utility.yul\":15580:15737   */\n    tag_192:\n        /* \"#utility.yul\":15685:15730   */\n      tag_349\n        /* \"#utility.yul\":15705:15729   */\n      tag_350\n        /* \"#utility.yul\":15723:15728   */\n      dup3\n        /* \"#utility.yul\":15705:15729   */\n      tag_158\n      jump\t// in\n    tag_350:\n        /* \"#utility.yul\":15685:15730   */\n      tag_191\n      jump\t// in\n    tag_349:\n        /* \"#utility.yul\":15680:15683   */\n      dup3\n        /* \"#utility.yul\":15673:15731   */\n      mstore\n        /* \"#utility.yul\":15580:15737   */\n      pop\n      pop\n      jump\t// out\n        /* \"#utility.yul\":15743:16422   */\n    tag_142:\n        /* \"#utility.yul\":15939:15942   */\n      0x00\n        /* \"#utility.yul\":15954:16029   */\n      tag_352\n        /* \"#utility.yul\":16025:16028   */\n      dup3\n        /* \"#utility.yul\":16016:16022   */\n      dup8\n        /* \"#utility.yul\":15954:16029   */\n      tag_188\n      jump\t// in\n    tag_352:\n        /* \"#utility.yul\":16054:16056   */\n      0x20\n        /* \"#utility.yul\":16049:16052   */\n      dup3\n        /* \"#utility.yul\":16045:16057   */\n      add\n        /* \"#utility.yul\":16038:16057   */\n      swap2\n      pop\n        /* \"#utility.yul\":16067:16142   */\n      tag_353\n        /* \"#utility.yul\":16138:16141   */\n      dup3\n        /* \"#utility.yul\":16129:16135   */\n      dup7\n        /* \"#utility.yul\":16067:16142   */\n      tag_188\n      jump\t// in\n    tag_353:\n        /* \"#utility.yul\":16167:16169   */\n      0x20\n        /* \"#utility.yul\":16162:16165   */\n      dup3\n        /* \"#utility.yul\":16158:16170   */\n      add\n        /* \"#utility.yul\":16151:16170   */\n      swap2\n      pop\n        /* \"#utility.yul\":16180:16255   */\n      tag_354\n        /* \"#utility.yul\":16251:16254   */\n      dup3\n        /* \"#utility.yul\":16242:16248   */\n      dup6\n        /* \"#utility.yul\":16180:16255   */\n      tag_192\n      jump\t// in\n    tag_354:\n        /* \"#utility.yul\":16280:16282   */\n      0x14\n        /* \"#utility.yul\":16275:16278   */\n      dup3\n        /* \"#utility.yul\":16271:16283   */\n      add\n        /* \"#utility.yul\":16264:16283   */\n      swap2\n      pop\n        /* \"#utility.yul\":16293:16368   */\n      tag_355\n        /* \"#utility.yul\":16364:16367   */\n      dup3\n        /* \"#utility.yul\":16355:16361   */\n      dup5\n        /* \"#utility.yul\":16293:16368   */\n      tag_188\n      jump\t// in\n    tag_355:\n        /* \"#utility.yul\":16393:16395   */\n      0x20\n        /* \"#utility.yul\":16388:16391   */\n      dup3\n        /* \"#utility.yul\":16384:16396   */\n      add\n        /* \"#utility.yul\":16377:16396   */\n      swap2\n      pop\n        /* \"#utility.yul\":16413:16416   */\n      dup2\n        /* \"#utility.yul\":16406:16416   */\n      swap1\n      pop\n        /* \"#utility.yul\":15743:16422   */\n      swap6\n      swap5\n      pop\n      pop\n      pop\n      pop\n      pop\n      jump\t// out\n\n    auxdata: 0xa2646970667358221220b9367b0d4827b6b4dfffe3ddcd9ea9435517db4c53da911aa96cfc4adf9fbc7464736f6c63430008180033\n}\n",
				"bytecode": {
					"linkReferences": {},
					"object": "608060405260018055678ac7230489e80000600255606460035f6101000a81548161ffff021916908361ffff16021790555034801561003c575f80fd5b50335f806101000a81548173ffffffffffffffffffffffffffffffffffffffff021916908373ffffffffffffffffffffffffffffffffffffffff160217905550611215806100895f395ff3fe60806040526004361061009f575f3560e01c806394db05951161006357806394db059514610178578063ad3b1b47146101a2578063affed0e0146101ca578063b60d4288146101f4578063bb468669146101fe578063f3fef3a31461021a576100a6565b8063023b1fc9146100aa57806324a9d853146100d25780632e5b2168146100fc578063881eff1e146101265780638da5cb5b1461014e576100a6565b366100a657005b5f80fd5b3480156100b5575f80fd5b506100d060048036038101906100cb9190610a0b565b610242565b005b3480156100dd575f80fd5b506100e6610337565b6040516100f39190610a45565b60405180910390f35b348015610107575f80fd5b5061011061034a565b60405161011d9190610a76565b60405180910390f35b348015610131575f80fd5b5061014c60048036038101906101479190610ab9565b610350565b005b348015610159575f80fd5b506101626103e7565b60405161016f9190610b23565b60405180910390f35b348015610183575f80fd5b5061018c61040a565b6040516101999190610a76565b60405180910390f35b3480156101ad575f80fd5b506101c860048036038101906101c39190610b77565b610410565b005b3480156101d5575f80fd5b506101de610542565b6040516101eb9190610a76565b60405180910390f35b6101fc610548565b005b61021860048036038101906102139190610beb565b61054a565b005b348015610225575f80fd5b50610240600480360381019061023b9190610b77565b610862565b005b5f8054906101000a900473ffffffffffffffffffffffffffffffffffffffff1673ffffffffffffffffffffffffffffffffffffffff163373ffffffffffffffffffffffffffffffffffffffff16146102cf576040517f08c379a00000000000000000000000000000000000000000000000000000000081526004016102c690610c70565b60405180910390fd5b6103e88161ffff161115610318576040517f08c379a000000000000000000000000000000000000000000000000000000000815260040161030f90610cd8565b60405180910390fd5b8060035f6101000a81548161ffff021916908361ffff16021790555050565b60035f9054906101000a900461ffff1681565b60025481565b5f8054906101000a900473ffffffffffffffffffffffffffffffffffffffff1673ffffffffffffffffffffffffffffffffffffffff163373ffffffffffffffffffffffffffffffffffffffff16146103dd576040517f08c379a00000000000000000000000000000000000000000000000000000000081526004016103d490610c70565b60405180910390fd5b8060028190555050565b5f8054906101000a900473ffffffffffffffffffffffffffffffffffffffff1681565b60045481565b5f8054906101000a900473ffffffffffffffffffffffffffffffffffffffff1673ffffffffffffffffffffffffffffffffffffffff163373ffffffffffffffffffffffffffffffffffffffff161461049d576040517f08c379a000000000000000000000000000000000000000000000000000000000815260040161049490610c70565b60405180910390fd5b8060045410156104e2576040517f08c379a00000000000000000000000000000000000000000000000000000000081526004016104d990610d40565b60405180910390fd5b8060045f8282546104f39190610d8b565b925050819055508173ffffffffffffffffffffffffffffffffffffffff166108fc8290811502906040515f60405180830381858888f1935050505015801561053d573d5f803e3d5ffd5b505050565b60055481565b565b600180541461058e576040517f08c379a000000000000000000000000000000000000000000000000000000000815260040161058590610e08565b60405180910390fd5b600260018190555060018160ff16101580156105ae5750600d8160ff1611155b6105ed576040517f08c379a00000000000000000000000000000000000000000000000000000000081526004016105e490610e70565b60405180910390fd5b5f3490505f8111801561060257506002548111155b610641576040517f08c379a000000000000000000000000000000000000000000000000000000000815260040161063890610ed8565b60405180910390fd5b5f61271060035f9054906101000a900461ffff1661ffff16836106649190610ef6565b61066e9190610f64565b90508060045f8282546106819190610f94565b925050819055505f81836106959190610d8b565b90505f60016106a4600d61097a565b6106ae9190610f94565b90505f60016106bd600d61097a565b6106c79190610f94565b90505f808260ff168460ff160361072e57600191505f851115610729573373ffffffffffffffffffffffffffffffffffffffff166108fc8690811502906040515f60405180830381858888f19350505050158015610727573d5f803e3d5ffd5b505b6107f7565b8360ff168860ff1603610743575f90506107f6565b8260ff168860ff16036107f157600190505f6002866107629190610ef6565b9050804710156107a7576040517f08c379a000000000000000000000000000000000000000000000000000000000815260040161079e90611011565b60405180910390fd5b3373ffffffffffffffffffffffffffffffffffffffff166108fc8290811502906040515f60405180830381858888f193505050501580156107ea573d5f803e3d5ffd5b50506107f5565b5f90505b5b5b3373ffffffffffffffffffffffffffffffffffffffff167f581c95b4a30551b5e666528de83cd349e9922ce7e07561eea13505cc942fdee78888848689898f6040516108499796959493929190611058565b60405180910390a2505050505050506001808190555050565b5f8054906101000a900473ffffffffffffffffffffffffffffffffffffffff1673ffffffffffffffffffffffffffffffffffffffff163373ffffffffffffffffffffffffffffffffffffffff16146108ef576040517f08c379a00000000000000000000000000000000000000000000000000000000081526004016108e690610c70565b60405180910390fd5b80471015610932576040517f08c379a00000000000000000000000000000000000000000000000000000000081526004016109299061110f565b60405180910390fd5b8173ffffffffffffffffffffffffffffffffffffffff166108fc8290811502906040515f60405180830381858888f19350505050158015610975573d5f803e3d5ffd5b505050565b5f8144423360055f815480929190600101919050556040516020016109a29493929190611192565b604051602081830303815290604052805190602001205f1c816109c8576109c7610f37565b5b069050919050565b5f80fd5b5f61ffff82169050919050565b6109ea816109d4565b81146109f4575f80fd5b50565b5f81359050610a05816109e1565b92915050565b5f60208284031215610a2057610a1f6109d0565b5b5f610a2d848285016109f7565b91505092915050565b610a3f816109d4565b82525050565b5f602082019050610a585f830184610a36565b92915050565b5f819050919050565b610a7081610a5e565b82525050565b5f602082019050610a895f830184610a67565b92915050565b610a9881610a5e565b8114610aa2575f80fd5b50565b5f81359050610ab381610a8f565b92915050565b5f60208284031215610ace57610acd6109d0565b5b5f610adb84828501610aa5565b91505092915050565b5f73ffffffffffffffffffffffffffffffffffffffff82169050919050565b5f610b0d82610ae4565b9050919050565b610b1d81610b03565b82525050565b5f602082019050610b365f830184610b14565b92915050565b5f610b4682610ae4565b9050919050565b610b5681610b3c565b8114610b60575f80fd5b50565b5f81359050610b7181610b4d565b92915050565b5f8060408385031215610b8d57610b8c6109d0565b5b5f610b9a85828601610b63565b9250506020610bab85828601610aa5565b9150509250929050565b5f60ff82169050919050565b610bca81610bb5565b8114610bd4575f80fd5b50565b5f81359050610be581610bc1565b92915050565b5f60208284031215610c0057610bff6109d0565b5b5f610c0d84828501610bd7565b91505092915050565b5f82825260208201905092915050565b7f6e6f74206f776e657200000000000000000000000000000000000000000000005f82015250565b5f610c5a600983610c16565b9150610c6582610c26565b602082019050919050565b5f6020820190508181035f830152610c8781610c4e565b9050919050565b7f66656520746f6f206869676800000000000000000000000000000000000000005f82015250565b5f610cc2600c83610c16565b9150610ccd82610c8e565b602082019050919050565b5f6020820190508181035f830152610cef81610cb6565b9050919050565b7f66656573206c6f770000000000000000000000000000000000000000000000005f82015250565b5f610d2a600883610c16565b9150610d3582610cf6565b602082019050919050565b5f6020820190508181035f830152610d5781610d1e565b9050919050565b7f4e487b71000000000000000000000000000000000000000000000000000000005f52601160045260245ffd5b5f610d9582610a5e565b9150610da083610a5e565b9250828203905081811115610db857610db7610d5e565b5b92915050565b7f7265656e7472616e7400000000000000000000000000000000000000000000005f82015250565b5f610df2600983610c16565b9150610dfd82610dbe565b602082019050919050565b5f6020820190508181035f830152610e1f81610de6565b9050919050565b7f6261642072616e6b0000000000000000000000000000000000000000000000005f82015250565b5f610e5a600883610c16565b9150610e6582610e26565b602082019050919050565b5f6020820190508181035f830152610e8781610e4e565b9050919050565b7f62616420776167657200000000000000000000000000000000000000000000005f82015250565b5f610ec2600983610c16565b9150610ecd82610e8e565b602082019050919050565b5f6020820190508181035f830152610eef81610eb6565b9050919050565b5f610f0082610a5e565b9150610f0b83610a5e565b9250828202610f1981610a5e565b91508282048414831517610f3057610f2f610d5e565b5b5092915050565b7f4e487b71000000000000000000000000000000000000000000000000000000005f52601260045260245ffd5b5f610f6e82610a5e565b9150610f7983610a5e565b925082610f8957610f88610f37565b5b828204905092915050565b5f610f9e82610a5e565b9150610fa983610a5e565b9250828201905080821115610fc157610fc0610d5e565b5b92915050565b7f62616e6b726f6c6c206c6f7700000000000000000000000000000000000000005f82015250565b5f610ffb600c83610c16565b915061100682610fc7565b602082019050919050565b5f6020820190508181035f83015261102881610fef565b9050919050565b5f8115159050919050565b6110438161102f565b82525050565b61105281610bb5565b82525050565b5f60e08201905061106b5f83018a610a67565b6110786020830189610a67565b611085604083018861103a565b611092606083018761103a565b61109f6080830186611049565b6110ac60a0830185611049565b6110b960c0830184611049565b98975050505050505050565b7f696e73756666696369656e7400000000000000000000000000000000000000005f82015250565b5f6110f9600c83610c16565b9150611104826110c5565b602082019050919050565b5f6020820190508181035f830152611126816110ed565b9050919050565b5f819050919050565b61114761114282610a5e565b61112d565b82525050565b5f8160601b9050919050565b5f6111638261114d565b9050919050565b5f61117482611159565b9050919050565b61118c61118782610b03565b61116a565b82525050565b5f61119d8287611136565b6020820191506111ad8286611136565b6020820191506111bd828561117b565b6014820191506111cd8284611136565b6020820191508190509594505050505056fea2646970667358221220b9367b0d4827b6b4dfffe3ddcd9ea9435517db4c53da911aa96cfc4adf9fbc7464736f6c63430008180033",
					"opcodes": "PUSH1 0x80 PUSH1 0x40 MSTORE PUSH1 0x1 DUP1 SSTORE PUSH8 0x8AC7230489E80000 PUSH1 0x2 SSTORE PUSH1 0x64 PUSH1 0x3 PUSH0 PUSH2 0x100 EXP DUP2 SLOAD DUP2 PUSH2 0xFFFF MUL NOT AND SWAP1 DUP4 PUSH2 0xFFFF AND MUL OR SWAP1 SSTORE POP CALLVALUE DUP1 ISZERO PUSH2 0x3C JUMPI PUSH0 DUP1 REVERT JUMPDEST POP CALLER PUSH0 DUP1 PUSH2 0x100 EXP DUP2 SLOAD DUP2 PUSH20 0xFFFFFFFFFFFFFFFFFFFFFFFFFFFFFFFFFFFFFFFF MUL NOT AND SWAP1 DUP4 PUSH20 0xFFFFFFFFFFFFFFFFFFFFFFFFFFFFFFFFFFFFFFFF AND MUL OR SWAP1 SSTORE POP PUSH2 0x1215 DUP1 PUSH2 0x89 PUSH0 CODECOPY PUSH0 RETURN INVALID PUSH1 0x80 PUSH1 0x40 MSTORE PUSH1 0x4 CALLDATASIZE LT PUSH2 0x9F JUMPI PUSH0 CALLDATALOAD PUSH1 0xE0 SHR DUP1 PUSH4 0x94DB0595 GT PUSH2 0x63 JUMPI DUP1 PUSH4 0x94DB0595 EQ PUSH2 0x178 JUMPI DUP1 PUSH4 0xAD3B1B47 EQ PUSH2 0x1A2 JUMPI DUP1 PUSH4 0xAFFED0E0 EQ PUSH2 0x1CA JUMPI DUP1 PUSH4 0xB60D4288 EQ PUSH2 0x1F4 JUMPI DUP1 PUSH4 0xBB468669 EQ PUSH2 0x1FE JUMPI DUP1 PUSH4 0xF3FEF3A3 EQ PUSH2 0x21A JUMPI PUSH2 0xA6 JUMP JUMPDEST DUP1 PUSH4 0x23B1FC9 EQ PUSH2 0xAA JUMPI DUP1 PUSH4 0x24A9D853 EQ PUSH2 0xD2 JUMPI DUP1 PUSH4 0x2E5B2168 EQ PUSH2 0xFC JUMPI DUP1 PUSH4 0x881EFF1E EQ PUSH2 0x126 JUMPI DUP1 PUSH4 0x8DA5CB5B EQ PUSH2 0x14E JUMPI PUSH2 0xA6 JUMP JUMPDEST CALLDATASIZE PUSH2 0xA6 JUMPI STOP JUMPDEST PUSH0 DUP1 REVERT JUMPDEST CALLVALUE DUP1 ISZERO PUSH2 0xB5 JUMPI PUSH0 DUP1 REVERT JUMPDEST POP PUSH2 0xD0 PUSH1 0x4 DUP1 CALLDATASIZE SUB DUP2 ADD SWAP1 PUSH2 0xCB SWAP2 SWAP1 PUSH2 0xA0B JUMP JUMPDEST PUSH2 0x242 JUMP JUMPDEST STOP JUMPDEST CALLVALUE DUP1 ISZERO PUSH2 0xDD JUMPI PUSH0 DUP1 REVERT JUMPDEST POP PUSH2 0xE6 PUSH2 0x337 JUMP JUMPDEST PUSH1 0x40 MLOAD PUSH2 0xF3 SWAP2 SWAP1 PUSH2 0xA45 JUMP JUMPDEST PUSH1 0x40 MLOAD DUP1 SWAP2 SUB SWAP1 RETURN JUMPDEST CALLVALUE DUP1 ISZERO PUSH2 0x107 JUMPI PUSH0 DUP1 REVERT JUMPDEST POP PUSH2 0x110 PUSH2 0x34A JUMP JUMPDEST PUSH1 0x40 MLOAD PUSH2 0x11D SWAP2 SWAP1 PUSH2 0xA76 JUMP JUMPDEST PUSH1 0x40 MLOAD DUP1 SWAP2 SUB SWAP1 RETURN JUMPDEST CALLVALUE DUP1 ISZERO PUSH2 0x131 JUMPI PUSH0 DUP1 REVERT JUMPDEST POP PUSH2 0x14C PUSH1 0x4 DUP1 CALLDATASIZE SUB DUP2 ADD SWAP1 PUSH2 0x147 SWAP2 SWAP1 PUSH2 0xAB9 JUMP JUMPDEST PUSH2 0x350 JUMP JUMPDEST STOP JUMPDEST CALLVALUE DUP1 ISZERO PUSH2 0x159 JUMPI PUSH0 DUP1 REVERT JUMPDEST POP PUSH2 0x162 PUSH2 0x3E7 JUMP JUMPDEST PUSH1 0x40 MLOAD PUSH2 0x16F SWAP2 SWAP1 PUSH2 0xB23 JUMP JUMPDEST PUSH1 0x40 MLOAD DUP1 SWAP2 SUB SWAP1 RETURN JUMPDEST CALLVALUE DUP1 ISZERO PUSH2 0x183 JUMPI PUSH0 DUP1 REVERT JUMPDEST POP PUSH2 0x18C PUSH2 0x40A JUMP JUMPDEST PUSH1 0x40 MLOAD PUSH2 0x199 SWAP2 SWAP1 PUSH2 0xA76 JUMP JUMPDEST PUSH1 0x40 MLOAD DUP1 SWAP2 SUB SWAP1 RETURN JUMPDEST CALLVALUE DUP1 ISZERO PUSH2 0x1AD JUMPI PUSH0 DUP1 REVERT JUMPDEST POP PUSH2 0x1C8 PUSH1 0x4 DUP1 CALLDATASIZE SUB DUP2 ADD SWAP1 PUSH2 0x1C3 SWAP2 SWAP1 PUSH2 0xB77 JUMP JUMPDEST PUSH2 0x410 JUMP JUMPDEST STOP JUMPDEST CALLVALUE DUP1 ISZERO PUSH2 0x1D5 JUMPI PUSH0 DUP1 REVERT JUMPDEST POP PUSH2 0x1DE PUSH2 0x542 JUMP JUMPDEST PUSH1 0x40 MLOAD PUSH2 0x1EB SWAP2 SWAP1 PUSH2 0xA76 JUMP JUMPDEST PUSH1 0x40 MLOAD DUP1 SWAP2 SUB SWAP1 RETURN JUMPDEST PUSH2 0x1FC PUSH2 0x548 JUMP JUMPDEST STOP JUMPDEST PUSH2 0x218 PUSH1 0x4 DUP1 CALLDATASIZE SUB DUP2 ADD SWAP1 PUSH2 0x213 SWAP2 SWAP1 PUSH2 0xBEB JUMP JUMPDEST PUSH2 0x54A JUMP JUMPDEST STOP JUMPDEST CALLVALUE DUP1 ISZERO PUSH2 0x225 JUMPI PUSH0 DUP1 REVERT JUMPDEST POP PUSH2 0x240 PUSH1 0x4 DUP1 CALLDATASIZE SUB DUP2 ADD SWAP1 PUSH2 0x23B SWAP2 SWAP1 PUSH2 0xB77 JUMP JUMPDEST PUSH2 0x862 JUMP JUMPDEST STOP JUMPDEST PUSH0 DUP1 SLOAD SWAP1 PUSH2 0x100 EXP SWAP1 DIV PUSH20 0xFFFFFFFFFFFFFFFFFFFFFFFFFFFFFFFFFFFFFFFF AND PUSH20 0xFFFFFFFFFFFFFFFFFFFFFFFFFFFFFFFFFFFFFFFF AND CALLER PUSH20 0xFFFFFFFFFFFFFFFFFFFFFFFFFFFFFFFFFFFFFFFF AND EQ PUSH2 0x2CF JUMPI PUSH1 0x40 MLOAD PUSH32 0x8C379A000000000000000000000000000000000000000000000000000000000 DUP2 MSTORE PUSH1 0x4 ADD PUSH2 0x2C6 SWAP1 PUSH2 0xC70 JUMP JUMPDEST PUSH1 0x40 MLOAD DUP1 SWAP2 SUB SWAP1 REVERT JUMPDEST PUSH2 0x3E8 DUP2 PUSH2 0xFFFF AND GT ISZERO PUSH2 0x318 JUMPI PUSH1 0x40 MLOAD PUSH32 0x8C379A000000000000000000000000000000000000000000000000000000000 DUP2 MSTORE PUSH1 0x4 ADD PUSH2 0x30F SWAP1 PUSH2 0xCD8 JUMP JUMPDEST PUSH1 0x40 MLOAD DUP1 SWAP2 SUB SWAP1 REVERT JUMPDEST DUP1 PUSH1 0x3 PUSH0 PUSH2 0x100 EXP DUP2 SLOAD DUP2 PUSH2 0xFFFF MUL NOT AND SWAP1 DUP4 PUSH2 0xFFFF AND MUL OR SWAP1 SSTORE POP POP JUMP JUMPDEST PUSH1 0x3 PUSH0 SWAP1 SLOAD SWAP1 PUSH2 0x100 EXP SWAP1 DIV PUSH2 0xFFFF AND DUP2 JUMP JUMPDEST PUSH1 0x2 SLOAD DUP2 JUMP JUMPDEST PUSH0 DUP1 SLOAD SWAP1 PUSH2 0x100 EXP SWAP1 DIV PUSH20 0xFFFFFFFFFFFFFFFFFFFFFFFFFFFFFFFFFFFFFFFF AND PUSH20 0xFFFFFFFFFFFFFFFFFFFFFFFFFFFFFFFFFFFFFFFF AND CALLER PUSH20 0xFFFFFFFFFFFFFFFFFFFFFFFFFFFFFFFFFFFFFFFF AND EQ PUSH2 0x3DD JUMPI PUSH1 0x40 MLOAD PUSH32 0x8C379A000000000000000000000000000000000000000000000000000000000 DUP2 MSTORE PUSH1 0x4 ADD PUSH2 0x3D4 SWAP1 PUSH2 0xC70 JUMP JUMPDEST PUSH1 0x40 MLOAD DUP1 SWAP2 SUB SWAP1 REVERT JUMPDEST DUP1 PUSH1 0x2 DUP2 SWAP1 SSTORE POP POP JUMP JUMPDEST PUSH0 DUP1 SLOAD SWAP1 PUSH2 0x100 EXP SWAP1 DIV PUSH20 0xFFFFFFFFFFFFFFFFFFFFFFFFFFFFFFFFFFFFFFFF AND DUP2 JUMP JUMPDEST PUSH1 0x4 SLOAD DUP2 JUMP JUMPDEST PUSH0 DUP1 SLOAD SWAP1 PUSH2 0x100 EXP SWAP1 DIV PUSH20 0xFFFFFFFFFFFFFFFFFFFFFFFFFFFFFFFFFFFFFFFF AND PUSH20 0xFFFFFFFFFFFFFFFFFFFFFFFFFFFFFFFFFFFFFFFF AND CALLER PUSH20 0xFFFFFFFFFFFFFFFFFFFFFFFFFFFFFFFFFFFFFFFF AND EQ PUSH2 0x49D JUMPI PUSH1 0x40 MLOAD PUSH32 0x8C379A000000000000000000000000000000000000000000000000000000000 DUP2 MSTORE PUSH1 0x4 ADD PUSH2 0x494 SWAP1 PUSH2 0xC70 JUMP JUMPDEST PUSH1 0x40 MLOAD DUP1 SWAP2 SUB SWAP1 REVERT JUMPDEST DUP1 PUSH1 0x4 SLOAD LT ISZERO PUSH2 0x4E2 JUMPI PUSH1 0x40 MLOAD PUSH32 0x8C379A000000000000000000000000000000000000000000000000000000000 DUP2 MSTORE PUSH1 0x4 ADD PUSH2 0x4D9 SWAP1 PUSH2 0xD40 JUMP JUMPDEST PUSH1 0x40 MLOAD DUP1 SWAP2 SUB SWAP1 REVERT JUMPDEST DUP1 PUSH1 0x4 PUSH0 DUP3 DUP3 SLOAD PUSH2 0x4F3 SWAP2 SWAP1 PUSH2 0xD8B JUMP JUMPDEST SWAP3 POP POP DUP2 SWAP1 SSTORE POP DUP2 PUSH20 0xFFFFFFFFFFFFFFFFFFFFFFFFFFFFFFFFFFFFFFFF AND PUSH2 0x8FC DUP3 SWAP1 DUP2 ISZERO MUL SWAP1 PUSH1 0x40 MLOAD PUSH0 PUSH1 0x40 MLOAD DUP1 DUP4 SUB DUP2 DUP6 DUP9 DUP9 CALL SWAP4 POP POP POP POP ISZERO DUP1 ISZERO PUSH2 0x53D JUMPI RETURNDATASIZE PUSH0 DUP1 RETURNDATACOPY RETURNDATASIZE PUSH0 REVERT JUMPDEST POP POP POP JUMP JUMPDEST PUSH1 0x5 SLOAD DUP2 JUMP JUMPDEST JUMP JUMPDEST PUSH1 0x1 DUP1 SLOAD EQ PUSH2 0x58E JUMPI PUSH1 0x40 MLOAD PUSH32 0x8C379A000000000000000000000000000000000000000000000000000000000 DUP2 MSTORE PUSH1 0x4 ADD PUSH2 0x585 SWAP1 PUSH2 0xE08 JUMP JUMPDEST PUSH1 0x40 MLOAD DUP1 SWAP2 SUB SWAP1 REVERT JUMPDEST PUSH1 0x2 PUSH1 0x1 DUP2 SWAP1 SSTORE POP PUSH1 0x1 DUP2 PUSH1 0xFF AND LT ISZERO DUP1 ISZERO PUSH2 0x5AE JUMPI POP PUSH1 0xD DUP2 PUSH1 0xFF AND GT ISZERO JUMPDEST PUSH2 0x5ED JUMPI PUSH1 0x40 MLOAD PUSH32 0x8C379A000000000000000000000000000000000000000000000000000000000 DUP2 MSTORE PUSH1 0x4 ADD PUSH2 0x5E4 SWAP1 PUSH2 0xE70 JUMP JUMPDEST PUSH1 0x40 MLOAD DUP1 SWAP2 SUB SWAP1 REVERT JUMPDEST PUSH0 CALLVALUE SWAP1 POP PUSH0 DUP2 GT DUP1 ISZERO PUSH2 0x602 JUMPI POP PUSH1 0x2 SLOAD DUP2 GT ISZERO JUMPDEST PUSH2 0x641 JUMPI PUSH1 0x40 MLOAD PUSH32 0x8C379A000000000000000000000000000000000000000000000000000000000 DUP2 MSTORE PUSH1 0x4 ADD PUSH2 0x638 SWAP1 PUSH2 0xED8 JUMP JUMPDEST PUSH1 0x40 MLOAD DUP1 SWAP2 SUB SWAP1 REVERT JUMPDEST PUSH0 PUSH2 0x2710 PUSH1 0x3 PUSH0 SWAP1 SLOAD SWAP1 PUSH2 0x100 EXP SWAP1 DIV PUSH2 0xFFFF AND PUSH2 0xFFFF AND DUP4 PUSH2 0x664 SWAP2 SWAP1 PUSH2 0xEF6 JUMP JUMPDEST PUSH2 0x66E SWAP2 SWAP1 PUSH2 0xF64 JUMP JUMPDEST SWAP1 POP DUP1 PUSH1 0x4 PUSH0 DUP3 DUP3 SLOAD PUSH2 0x681 SWAP2 SWAP1 PUSH2 0xF94 JUMP JUMPDEST SWAP3 POP POP DUP2 SWAP1 SSTORE POP PUSH0 DUP2 DUP4 PUSH2 0x695 SWAP2 SWAP1 PUSH2 0xD8B JUMP JUMPDEST SWAP1 POP PUSH0 PUSH1 0x1 PUSH2 0x6A4 PUSH1 0xD PUSH2 0x97A JUMP JUMPDEST PUSH2 0x6AE SWAP2 SWAP1 PUSH2 0xF94 JUMP JUMPDEST SWAP1 POP PUSH0 PUSH1 0x1 PUSH2 0x6BD PUSH1 0xD PUSH2 0x97A JUMP JUMPDEST PUSH2 0x6C7 SWAP2 SWAP1 PUSH2 0xF94 JUMP JUMPDEST SWAP1 POP PUSH0 DUP1 DUP3 PUSH1 0xFF AND DUP5 PUSH1 0xFF AND SUB PUSH2 0x72E JUMPI PUSH1 0x1 SWAP2 POP PUSH0 DUP6 GT ISZERO PUSH2 0x729 JUMPI CALLER PUSH20 0xFFFFFFFFFFFFFFFFFFFFFFFFFFFFFFFFFFFFFFFF AND PUSH2 0x8FC DUP7 SWAP1 DUP2 ISZERO MUL SWAP1 PUSH1 0x40 MLOAD PUSH0 PUSH1 0x40 MLOAD DUP1 DUP4 SUB DUP2 DUP6 DUP9 DUP9 CALL SWAP4 POP POP POP POP ISZERO DUP1 ISZERO PUSH2 0x727 JUMPI RETURNDATASIZE PUSH0 DUP1 RETURNDATACOPY RETURNDATASIZE PUSH0 REVERT JUMPDEST POP JUMPDEST PUSH2 0x7F7 JUMP JUMPDEST DUP4 PUSH1 0xFF AND DUP9 PUSH1 0xFF AND SUB PUSH2 0x743 JUMPI PUSH0 SWAP1 POP PUSH2 0x7F6 JUMP JUMPDEST DUP3 PUSH1 0xFF AND DUP9 PUSH1 0xFF AND SUB PUSH2 0x7F1 JUMPI PUSH1 0x1 SWAP1 POP PUSH0 PUSH1 0x2 DUP7 PUSH2 0x762 SWAP2 SWAP1 PUSH2 0xEF6 JUMP JUMPDEST SWAP1 POP DUP1 SELFBALANCE LT ISZERO PUSH2 0x7A7 JUMPI PUSH1 0x40 MLOAD PUSH32 0x8C379A000000000000000000000000000000000000000000000000000000000 DUP2 MSTORE PUSH1 0x4 ADD PUSH2 0x79E SWAP1 PUSH2 0x1011 JUMP JUMPDEST PUSH1 0x40 MLOAD DUP1 SWAP2 SUB SWAP1 REVERT JUMPDEST CALLER PUSH20 0xFFFFFFFFFFFFFFFFFFFFFFFFFFFFFFFFFFFFFFFF AND PUSH2 0x8FC DUP3 SWAP1 DUP2 ISZERO MUL SWAP1 PUSH1 0x40 MLOAD PUSH0 PUSH1 0x40 MLOAD DUP1 DUP4 SUB DUP2 DUP6 DUP9 DUP9 CALL SWAP4 POP POP POP POP ISZERO DUP1 ISZERO PUSH2 0x7EA JUMPI RETURNDATASIZE PUSH0 DUP1 RETURNDATACOPY RETURNDATASIZE PUSH0 REVERT JUMPDEST POP POP PUSH2 0x7F5 JUMP JUMPDEST PUSH0 SWAP1 POP JUMPDEST JUMPDEST JUMPDEST CALLER PUSH20 0xFFFFFFFFFFFFFFFFFFFFFFFFFFFFFFFFFFFFFFFF AND PUSH32 0x581C95B4A30551B5E666528DE83CD349E9922CE7E07561EEA13505CC942FDEE7 DUP9 DUP9 DUP5 DUP7 DUP10 DUP10 DUP16 PUSH1 0x40 MLOAD PUSH2 0x849 SWAP8 SWAP7 SWAP6 SWAP5 SWAP4 SWAP3 SWAP2 SWAP1 PUSH2 0x1058 JUMP JUMPDEST PUSH1 0x40 MLOAD DUP1 SWAP2 SUB SWAP1 LOG2 POP POP POP POP POP POP POP PUSH1 0x1 DUP1 DUP2 SWAP1 SSTORE POP POP JUMP JUMPDEST PUSH0 DUP1 SLOAD SWAP1 PUSH2 0x100 EXP SWAP1 DIV PUSH20 0xFFFFFFFFFFFFFFFFFFFFFFFFFFFFFFFFFFFFFFFF AND PUSH20 0xFFFFFFFFFFFFFFFFFFFFFFFFFFFFFFFFFFFFFFFF AND CALLER PUSH20 0xFFFFFFFFFFFFFFFFFFFFFFFFFFFFFFFFFFFFFFFF AND EQ PUSH2 0x8EF JUMPI PUSH1 0x40 MLOAD PUSH32 0x8C379A000000000000000000000000000000000000000000000000000000000 DUP2 MSTORE PUSH1 0x4 ADD PUSH2 0x8E6 SWAP1 PUSH2 0xC70 JUMP JUMPDEST PUSH1 0x40 MLOAD DUP1 SWAP2 SUB SWAP1 REVERT JUMPDEST DUP1 SELFBALANCE LT ISZERO PUSH2 0x932 JUMPI PUSH1 0x40 MLOAD PUSH32 0x8C379A000000000000000000000000000000000000000000000000000000000 DUP2 MSTORE PUSH1 0x4 ADD PUSH2 0x929 SWAP1 PUSH2 0x110F JUMP JUMPDEST PUSH1 0x40 MLOAD DUP1 SWAP2 SUB SWAP1 REVERT JUMPDEST DUP2 PUSH20 0xFFFFFFFFFFFFFFFFFFFFFFFFFFFFFFFFFFFFFFFF AND PUSH2 0x8FC DUP3 SWAP1 DUP2 ISZERO MUL SWAP1 PUSH1 0x40 MLOAD PUSH0 PUSH1 0x40 MLOAD DUP1 DUP4 SUB DUP2 DUP6 DUP9 DUP9 CALL SWAP4 POP POP POP POP ISZERO DUP1 ISZERO PUSH2 0x975 JUMPI RETURNDATASIZE PUSH0 DUP1 RETURNDATACOPY RETURNDATASIZE PUSH0 REVERT JUMPDEST POP POP POP JUMP JUMPDEST PUSH0 DUP2 PREVRANDAO TIMESTAMP CALLER PUSH1 0x5 PUSH0 DUP2 SLOAD DUP1 SWAP3 SWAP2 SWAP1 PUSH1 0x1 ADD SWAP2 SWAP1 POP SSTORE PUSH1 0x40 MLOAD PUSH1 0x20 ADD PUSH2 0x9A2 SWAP5 SWAP4 SWAP3 SWAP2 SWAP1 PUSH2 0x1192 JUMP JUMPDEST PUSH1 0x40 MLOAD PUSH1 0x20 DUP2 DUP4 SUB SUB DUP2 MSTORE SWAP1 PUSH1 0x40 MSTORE DUP1 MLOAD SWAP1 PUSH1 0x20 ADD KECCAK256 PUSH0 SHR DUP2 PUSH2 0x9C8 JUMPI PUSH2 0x9C7 PUSH2 0xF37 JUMP JUMPDEST JUMPDEST MOD SWAP1 POP SWAP2 SWAP1 POP JUMP JUMPDEST PUSH0 DUP1 REVERT JUMPDEST PUSH0 PUSH2 0xFFFF DUP3 AND SWAP1 POP SWAP2 SWAP1 POP JUMP JUMPDEST PUSH2 0x9EA DUP2 PUSH2 0x9D4 JUMP JUMPDEST DUP2 EQ PUSH2 0x9F4 JUMPI PUSH0 DUP1 REVERT JUMPDEST POP JUMP JUMPDEST PUSH0 DUP2 CALLDATALOAD SWAP1 POP PUSH2 0xA05 DUP2 PUSH2 0x9E1 JUMP JUMPDEST SWAP3 SWAP2 POP POP JUMP JUMPDEST PUSH0 PUSH1 0x20 DUP3 DUP5 SUB SLT ISZERO PUSH2 0xA20 JUMPI PUSH2 0xA1F PUSH2 0x9D0 JUMP JUMPDEST JUMPDEST PUSH0 PUSH2 0xA2D DUP5 DUP3 DUP6 ADD PUSH2 0x9F7 JUMP JUMPDEST SWAP2 POP POP SWAP3 SWAP2 POP POP JUMP JUMPDEST PUSH2 0xA3F DUP2 PUSH2 0x9D4 JUMP JUMPDEST DUP3 MSTORE POP POP JUMP JUMPDEST PUSH0 PUSH1 0x20 DUP3 ADD SWAP1 POP PUSH2 0xA58 PUSH0 DUP4 ADD DUP5 PUSH2 0xA36 JUMP JUMPDEST SWAP3 SWAP2 POP POP JUMP JUMPDEST PUSH0 DUP2 SWAP1 POP SWAP2 SWAP1 POP JUMP JUMPDEST PUSH2 0xA70 DUP2 PUSH2 0xA5E JUMP JUMPDEST DUP3 MSTORE POP POP JUMP JUMPDEST PUSH0 PUSH1 0x20 DUP3 ADD SWAP1 POP PUSH2 0xA89 PUSH0 DUP4 ADD DUP5 PUSH2 0xA67 JUMP JUMPDEST SWAP3 SWAP2 POP POP JUMP JUMPDEST PUSH2 0xA98 DUP2 PUSH2 0xA5E JUMP JUMPDEST DUP2 EQ PUSH2 0xAA2 JUMPI PUSH0 DUP1 REVERT JUMPDEST POP JUMP JUMPDEST PUSH0 DUP2 CALLDATALOAD SWAP1 POP PUSH2 0xAB3 DUP2 PUSH2 0xA8F JUMP JUMPDEST SWAP3 SWAP2 POP POP JUMP JUMPDEST PUSH0 PUSH1 0x20 DUP3 DUP5 SUB SLT ISZERO PUSH2 0xACE JUMPI PUSH2 0xACD PUSH2 0x9D0 JUMP JUMPDEST JUMPDEST PUSH0 PUSH2 0xADB DUP5 DUP3 DUP6 ADD PUSH2 0xAA5 JUMP JUMPDEST SWAP2 POP POP SWAP3 SWAP2 POP POP JUMP JUMPDEST PUSH0 PUSH20 0xFFFFFFFFFFFFFFFFFFFFFFFFFFFFFFFFFFFFFFFF DUP3 AND SWAP1 POP SWAP2 SWAP1 POP JUMP JUMPDEST PUSH0 PUSH2 0xB0D DUP3 PUSH2 0xAE4 JUMP JUMPDEST SWAP1 POP SWAP2 SWAP1 POP JUMP JUMPDEST PUSH2 0xB1D DUP2 PUSH2 0xB03 JUMP JUMPDEST DUP3 MSTORE POP POP JUMP JUMPDEST PUSH0 PUSH1 0x20 DUP3 ADD SWAP1 POP PUSH2 0xB36 PUSH0 DUP4 ADD DUP5 PUSH2 0xB14 JUMP JUMPDEST SWAP3 SWAP2 POP POP JUMP JUMPDEST PUSH0 PUSH2 0xB46 DUP3 PUSH2 0xAE4 JUMP JUMPDEST SWAP1 POP SWAP2 SWAP1 POP JUMP JUMPDEST PUSH2 0xB56 DUP2 PUSH2 0xB3C JUMP JUMPDEST DUP2 EQ PUSH2 0xB60 JUMPI PUSH0 DUP1 REVERT JUMPDEST POP JUMP JUMPDEST PUSH0 DUP2 CALLDATALOAD SWAP1 POP PUSH2 0xB71 DUP2 PUSH2 0xB4D JUMP JUMPDEST SWAP3 SWAP2 POP POP JUMP JUMPDEST PUSH0 DUP1 PUSH1 0x40 DUP4 DUP6 SUB SLT ISZERO PUSH2 0xB8D JUMPI PUSH2 0xB8C PUSH2 0x9D0 JUMP JUMPDEST JUMPDEST PUSH0 PUSH2 0xB9A DUP6 DUP3 DUP7 ADD PUSH2 0xB63 JUMP JUMPDEST SWAP3 POP POP PUSH1 0x20 PUSH2 0xBAB DUP6 DUP3 DUP7 ADD PUSH2 0xAA5 JUMP JUMPDEST SWAP2 POP POP SWAP3 POP SWAP3 SWAP1 POP JUMP JUMPDEST PUSH0 PUSH1 0xFF DUP3 AND SWAP1 POP SWAP2 SWAP1 POP JUMP JUMPDEST PUSH2 0xBCA DUP2 PUSH2 0xBB5 JUMP JUMPDEST DUP2 EQ PUSH2 0xBD4 JUMPI PUSH0 DUP1 REVERT JUMPDEST POP JUMP JUMPDEST PUSH0 DUP2 CALLDATALOAD SWAP1 POP PUSH2 0xBE5 DUP2 PUSH2 0xBC1 JUMP JUMPDEST SWAP3 SWAP2 POP POP JUMP JUMPDEST PUSH0 PUSH1 0x20 DUP3 DUP5 SUB SLT ISZERO PUSH2 0xC00 JUMPI PUSH2 0xBFF PUSH2 0x9D0 JUMP JUMPDEST JUMPDEST PUSH0 PUSH2 0xC0D DUP5 DUP3 DUP6 ADD PUSH2 0xBD7 JUMP JUMPDEST SWAP2 POP POP SWAP3 SWAP2 POP POP JUMP JUMPDEST PUSH0 DUP3 DUP3 MSTORE PUSH1 0x20 DUP3 ADD SWAP1 POP SWAP3 SWAP2 POP POP JUMP JUMPDEST PUSH32 0x6E6F74206F776E65720000000000000000000000000000000000000000000000 PUSH0 DUP3 ADD MSTORE POP JUMP JUMPDEST PUSH0 PUSH2 0xC5A PUSH1 0x9 DUP4 PUSH2 0xC16 JUMP JUMPDEST SWAP2 POP PUSH2 0xC65 DUP3 PUSH2 0xC26 JUMP JUMPDEST PUSH1 0x20 DUP3 ADD SWAP1 POP SWAP2 SWAP1 POP JUMP JUMPDEST PUSH0 PUSH1 0x20 DUP3 ADD SWAP1 POP DUP2 DUP2 SUB PUSH0 DUP4 ADD MSTORE PUSH2 0xC87 DUP2 PUSH2 0xC4E JUMP JUMPDEST SWAP1 POP SWAP2 SWAP1 POP JUMP JUMPDEST PUSH32 0x66656520746F6F20686967680000000000000000000000000000000000000000 PUSH0 DUP3 ADD MSTORE POP JUMP JUMPDEST PUSH0 PUSH2 0xCC2 PUSH1 0xC DUP4 PUSH2 0xC16 JUMP JUMPDEST SWAP2 POP PUSH2 0xCCD DUP3 PUSH2 0xC8E JUMP JUMPDEST PUSH1 0x20 DUP3 ADD SWAP1 POP SWAP2 SWAP1 POP JUMP JUMPDEST PUSH0 PUSH1 0x20 DUP3 ADD SWAP1 POP DUP2 DUP2 SUB PUSH0 DUP4 ADD MSTORE PUSH2 0xCEF DUP2 PUSH2 0xCB6 JUMP JUMPDEST SWAP1 POP SWAP2 SWAP1 POP JUMP JUMPDEST PUSH32 0x66656573206C6F77000000000000000000000000000000000000000000000000 PUSH0 DUP3 ADD MSTORE POP JUMP JUMPDEST PUSH0 PUSH2 0xD2A PUSH1 0x8 DUP4 PUSH2 0xC16 JUMP JUMPDEST SWAP2 POP PUSH2 0xD35 DUP3 PUSH2 0xCF6 JUMP JUMPDEST PUSH1 0x20 DUP3 ADD SWAP1 POP SWAP2 SWAP1 POP JUMP JUMPDEST PUSH0 PUSH1 0x20 DUP3 ADD SWAP1 POP DUP2 DUP2 SUB PUSH0 DUP4 ADD MSTORE PUSH2 0xD57 DUP2 PUSH2 0xD1E JUMP JUMPDEST SWAP1 POP SWAP2 SWAP1 POP JUMP JUMPDEST PUSH32 0x4E487B7100000000000000000000000000000000000000000000000000000000 PUSH0 MSTORE PUSH1 0x11 PUSH1 0x4 MSTORE PUSH1 0x24 PUSH0 REVERT JUMPDEST PUSH0 PUSH2 0xD95 DUP3 PUSH2 0xA5E JUMP JUMPDEST SWAP2 POP PUSH2 0xDA0 DUP4 PUSH2 0xA5E JUMP JUMPDEST SWAP3 POP DUP3 DUP3 SUB SWAP1 POP DUP2 DUP2 GT ISZERO PUSH2 0xDB8 JUMPI PUSH2 0xDB7 PUSH2 0xD5E JUMP JUMPDEST JUMPDEST SWAP3 SWAP2 POP POP JUMP JUMPDEST PUSH32 0x7265656E7472616E740000000000000000000000000000000000000000000000 PUSH0 DUP3 ADD MSTORE POP JUMP JUMPDEST PUSH0 PUSH2 0xDF2 PUSH1 0x9 DUP4 PUSH2 0xC16 JUMP JUMPDEST SWAP2 POP PUSH2 0xDFD DUP3 PUSH2 0xDBE JUMP JUMPDEST PUSH1 0x20 DUP3 ADD SWAP1 POP SWAP2 SWAP1 POP JUMP JUMPDEST PUSH0 PUSH1 0x20 DUP3 ADD SWAP1 POP DUP2 DUP2 SUB PUSH0 DUP4 ADD MSTORE PUSH2 0xE1F DUP2 PUSH2 0xDE6 JUMP JUMPDEST SWAP1 POP SWAP2 SWAP1 POP JUMP JUMPDEST PUSH32 0x6261642072616E6B000000000000000000000000000000000000000000000000 PUSH0 DUP3 ADD MSTORE POP JUMP JUMPDEST PUSH0 PUSH2 0xE5A PUSH1 0x8 DUP4 PUSH2 0xC16 JUMP JUMPDEST SWAP2 POP PUSH2 0xE65 DUP3 PUSH2 0xE26 JUMP JUMPDEST PUSH1 0x20 DUP3 ADD SWAP1 POP SWAP2 SWAP1 POP JUMP JUMPDEST PUSH0 PUSH1 0x20 DUP3 ADD SWAP1 POP DUP2 DUP2 SUB PUSH0 DUP4 ADD MSTORE PUSH2 0xE87 DUP2 PUSH2 0xE4E JUMP JUMPDEST SWAP1 POP SWAP2 SWAP1 POP JUMP JUMPDEST PUSH32 0x6261642077616765720000000000000000000000000000000000000000000000 PUSH0 DUP3 ADD MSTORE POP JUMP JUMPDEST PUSH0 PUSH2 0xEC2 PUSH1 0x9 DUP4 PUSH2 0xC16 JUMP JUMPDEST SWAP2 POP PUSH2 0xECD DUP3 PUSH2 0xE8E JUMP JUMPDEST PUSH1 0x20 DUP3 ADD SWAP1 POP SWAP2 SWAP1 POP JUMP JUMPDEST PUSH0 PUSH1 0x20 DUP3 ADD SWAP1 POP DUP2 DUP2 SUB PUSH0 DUP4 ADD MSTORE PUSH2 0xEEF DUP2 PUSH2 0xEB6 JUMP JUMPDEST SWAP1 POP SWAP2 SWAP1 POP JUMP JUMPDEST PUSH0 PUSH2 0xF00 DUP3 PUSH2 0xA5E JUMP JUMPDEST SWAP2 POP PUSH2 0xF0B DUP4 PUSH2 0xA5E JUMP JUMPDEST SWAP3 POP DUP3 DUP3 MUL PUSH2 0xF19 DUP2 PUSH2 0xA5E JUMP JUMPDEST SWAP2 POP DUP3 DUP3 DIV DUP5 EQ DUP4 ISZERO OR PUSH2 0xF30 JUMPI PUSH2 0xF2F PUSH2 0xD5E JUMP JUMPDEST JUMPDEST POP SWAP3 SWAP2 POP POP JUMP JUMPDEST PUSH32 0x4E487B7100000000000000000000000000000000000000000000000000000000 PUSH0 MSTORE PUSH1 0x12 PUSH1 0x4 MSTORE PUSH1 0x24 PUSH0 REVERT JUMPDEST PUSH0 PUSH2 0xF6E DUP3 PUSH2 0xA5E JUMP JUMPDEST SWAP2 POP PUSH2 0xF79 DUP4 PUSH2 0xA5E JUMP JUMPDEST SWAP3 POP DUP3 PUSH2 0xF89 JUMPI PUSH2 0xF88 PUSH2 0xF37 JUMP JUMPDEST JUMPDEST DUP3 DUP3 DIV SWAP1 POP SWAP3 SWAP2 POP POP JUMP JUMPDEST PUSH0 PUSH2 0xF9E DUP3 PUSH2 0xA5E JUMP JUMPDEST SWAP2 POP PUSH2 0xFA9 DUP4 PUSH2 0xA5E JUMP JUMPDEST SWAP3 POP DUP3 DUP3 ADD SWAP1 POP DUP1 DUP3 GT ISZERO PUSH2 0xFC1 JUMPI PUSH2 0xFC0 PUSH2 0xD5E JUMP JUMPDEST JUMPDEST SWAP3 SWAP2 POP POP JUMP JUMPDEST PUSH32 0x62616E6B726F6C6C206C6F770000000000000000000000000000000000000000 PUSH0 DUP3 ADD MSTORE POP JUMP JUMPDEST PUSH0 PUSH2 0xFFB PUSH1 0xC DUP4 PUSH2 0xC16 JUMP JUMPDEST SWAP2 POP PUSH2 0x1006 DUP3 PUSH2 0xFC7 JUMP JUMPDEST PUSH1 0x20 DUP3 ADD SWAP1 POP SWAP2 SWAP1 POP JUMP JUMPDEST PUSH0 PUSH1 0x20 DUP3 ADD SWAP1 POP DUP2 DUP2 SUB PUSH0 DUP4 ADD MSTORE PUSH2 0x1028 DUP2 PUSH2 0xFEF JUMP JUMPDEST SWAP1 POP SWAP2 SWAP1 POP JUMP JUMPDEST PUSH0 DUP2 ISZERO ISZERO SWAP1 POP SWAP2 SWAP1 POP JUMP JUMPDEST PUSH2 0x1043 DUP2 PUSH2 0x102F JUMP JUMPDEST DUP3 MSTORE POP POP JUMP JUMPDEST PUSH2 0x1052 DUP2 PUSH2 0xBB5 JUMP JUMPDEST DUP3 MSTORE POP POP JUMP JUMPDEST PUSH0 PUSH1 0xE0 DUP3 ADD SWAP1 POP PUSH2 0x106B PUSH0 DUP4 ADD DUP11 PUSH2 0xA67 JUMP JUMPDEST PUSH2 0x1078 PUSH1 0x20 DUP4 ADD DUP10 PUSH2 0xA67 JUMP JUMPDEST PUSH2 0x1085 PUSH1 0x40 DUP4 ADD DUP9 PUSH2 0x103A JUMP JUMPDEST PUSH2 0x1092 PUSH1 0x60 DUP4 ADD DUP8 PUSH2 0x103A JUMP JUMPDEST PUSH2 0x109F PUSH1 0x80 DUP4 ADD DUP7 PUSH2 0x1049 JUMP JUMPDEST PUSH2 0x10AC PUSH1 0xA0 DUP4 ADD DUP6 PUSH2 0x1049 JUMP JUMPDEST PUSH2 0x10B9 PUSH1 0xC0 DUP4 ADD DUP5 PUSH2 0x1049 JUMP JUMPDEST SWAP9 SWAP8 POP POP POP POP POP POP POP POP JUMP JUMPDEST PUSH32 0x696E73756666696369656E740000000000000000000000000000000000000000 PUSH0 DUP3 ADD MSTORE POP JUMP JUMPDEST PUSH0 PUSH2 0x10F9 PUSH1 0xC DUP4 PUSH2 0xC16 JUMP JUMPDEST SWAP2 POP PUSH2 0x1104 DUP3 PUSH2 0x10C5 JUMP JUMPDEST PUSH1 0x20 DUP3 ADD SWAP1 POP SWAP2 SWAP1 POP JUMP JUMPDEST PUSH0 PUSH1 0x20 DUP3 ADD SWAP1 POP DUP2 DUP2 SUB PUSH0 DUP4 ADD MSTORE PUSH2 0x1126 DUP2 PUSH2 0x10ED JUMP JUMPDEST SWAP1 POP SWAP2 SWAP1 POP JUMP JUMPDEST PUSH0 DUP2 SWAP1 POP SWAP2 SWAP1 POP JUMP JUMPDEST PUSH2 0x1147 PUSH2 0x1142 DUP3 PUSH2 0xA5E JUMP JUMPDEST PUSH2 0x112D JUMP JUMPDEST DUP3 MSTORE POP POP JUMP JUMPDEST PUSH0 DUP2 PUSH1 0x60 SHL SWAP1 POP SWAP2 SWAP1 POP JUMP JUMPDEST PUSH0 PUSH2 0x1163 DUP3 PUSH2 0x114D JUMP JUMPDEST SWAP1 POP SWAP2 SWAP1 POP JUMP JUMPDEST PUSH0 PUSH2 0x1174 DUP3 PUSH2 0x1159 JUMP JUMPDEST SWAP1 POP SWAP2 SWAP1 POP JUMP JUMPDEST PUSH2 0x118C PUSH2 0x1187 DUP3 PUSH2 0xB03 JUMP JUMPDEST PUSH2 0x116A JUMP JUMPDEST DUP3 MSTORE POP POP JUMP JUMPDEST PUSH0 PUSH2 0x119D DUP3 DUP8 PUSH2 0x1136 JUMP JUMPDEST PUSH1 0x20 DUP3 ADD SWAP2 POP PUSH2 0x11AD DUP3 DUP7 PUSH2 0x1136 JUMP JUMPDEST PUSH1 0x20 DUP3 ADD SWAP2 POP PUSH2 0x11BD DUP3 DUP6 PUSH2 0x117B JUMP JUMPDEST PUSH1 0x14 DUP3 ADD SWAP2 POP PUSH2 0x11CD DUP3 DUP5 PUSH2 0x1136 JUMP JUMPDEST PUSH1 0x20 DUP3 ADD SWAP2 POP DUP2 SWAP1 POP SWAP6 SWAP5 POP POP POP POP POP JUMP INVALID LOG2 PUSH5 0x6970667358 0x22 SLT KECCAK256 0xB9 CALLDATASIZE PUSH28 0xD4827B6B4DFFFE3DDCD9EA9435517DB4C53DA911AA96CFC4ADF9FBC PUSH21 0x64736F6C6343000818003300000000000000000000 "
				},
				"gasEstimates": {
					"creation": {
						"codeDepositCost": "925800",
						"executionCost": "93703",
						"totalCost": "1019503"
					},
					"external": {
						"feeBps()": "2489",
						"feesAccrued()": "2425",
						"fund()": "185",
						"maxBet()": "2470",
						"nonce()": "2469",
						"owner()": "2594",
						"playFaro(uint8)": "infinite",
						"setFeeBps(uint16)": "26872",
						"setMaxBet(uint256)": "24748",
						"withdraw(address,uint256)": "infinite",
						"withdrawFees(address,uint256)": "infinite"
					},
					"internal": {
						"_rand(uint256)": "infinite"
					}
				},
				"methodIdentifiers": {
					"feeBps()": "24a9d853",
					"feesAccrued()": "94db0595",
					"fund()": "b60d4288",
					"maxBet()": "2e5b2168",
					"nonce()": "affed0e0",
					"owner()": "8da5cb5b",
					"playFaro(uint8)": "bb468669",
					"setFeeBps(uint16)": "023b1fc9",
					"setMaxBet(uint256)": "881eff1e",
					"withdraw(address,uint256)": "f3fef3a3",
					"withdrawFees(address,uint256)": "ad3b1b47"
				}
			},
			"storageLayout": {
				"storage": [
					{
						"astId": 4,
						"contract": "Contracts/Faro.sol:Faro",
						"label": "owner",
						"offset": 0,
						"slot": "0",
						"type": "t_address"
					},
					{
						"astId": 19,
						"contract": "Contracts/Faro.sol:Faro",
						"label": "_locked",
						"offset": 0,
						"slot": "1",
						"type": "t_uint256"
					},
					{
						"astId": 41,
						"contract": "Contracts/Faro.sol:Faro",
						"label": "maxBet",
						"offset": 0,
						"slot": "2",
						"type": "t_uint256"
					},
					{
						"astId": 44,
						"contract": "Contracts/Faro.sol:Faro",
						"label": "feeBps",
						"offset": 0,
						"slot": "3",
						"type": "t_uint16"
					},
					{
						"astId": 46,
						"contract": "Contracts/Faro.sol:Faro",
						"label": "feesAccrued",
						"offset": 0,
						"slot": "4",
						"type": "t_uint256"
					},
					{
						"astId": 48,
						"contract": "Contracts/Faro.sol:Faro",
						"label": "nonce",
						"offset": 0,
						"slot": "5",
						"type": "t_uint256"
					}
				],
				"types": {
					"t_address": {
						"encoding": "inplace",
						"label": "address",
						"numberOfBytes": "20"
					},
					"t_uint16": {
						"encoding": "inplace",
						"label": "uint16",
						"numberOfBytes": "2"
					},
					"t_uint256": {
						"encoding": "inplace",
						"label": "uint256",
						"numberOfBytes": "32"
					}
				}
			},
			"userdoc": {
				"kind": "user",
				"methods": {},
				"notice": "Development-grade randomness; not suitable for production without VRF or commit-reveal. Game model (simplified): - Player places a wager on a rank 1..13 (Ace=1, ..., King=13). - House draws two ranks pseudo-randomly: bankRank then playerRank. - If betRank == bankRank => player loses the wager (house keeps it). - If betRank == playerRank => player wins 1:1 on the effective wager (wager minus rake). - If bankRank == playerRank (doublet) => push: refund the effective wager. - Rake: feeBps (basis points) is taken from every wager and accumulated for the house.",
				"version": 1
			}
		}
	}
}