{
	"Contracts/hazard.sol": {
		"MonHazard": {
			"abi": [
				{
					"inputs": [],
					"stateMutability": "payable",
					"type": "constructor"
				},
				{
					"anonymous": false,
					"inputs": [
						{
							"indexed": true,
							"internalType": "address",
							"name": "funder",
							"type": "address"
						},
						{
							"indexed": false,
							"internalType": "uint256",
							"name": "amount",
							"type": "uint256"
						}
					],
					"name": "Funded",
					"type": "event"
				},
				{
					"anonymous": false,
					"inputs": [
						{
							"indexed": true,
							"internalType": "address",
							"name": "player",
							"type": "address"
						},
						{
							"indexed": false,
							"internalType": "uint256",
							"name": "wager",
							"type": "uint256"
						},
						{
							"indexed": false,
							"internalType": "bool",
							"name": "win",
							"type": "bool"
						},
						{
							"indexed": false,
							"internalType": "uint8",
							"name": "main",
							"type": "uint8"
						},
						{
							"indexed": false,
							"internalType": "uint8",
							"name": "finalSum",
							"type": "uint8"
						},
						{
							"indexed": false,
							"internalType": "uint8",
							"name": "chance",
							"type": "uint8"
						},
						{
							"indexed": false,
							"internalType": "uint256",
							"name": "iterations",
							"type": "uint256"
						}
					],
					"name": "HazardPlayed",
					"type": "event"
				},
				{
					"inputs": [],
					"name": "fund",
					"outputs": [],
					"stateMutability": "payable",
					"type": "function"
				},
				{
					"inputs": [],
					"name": "owner",
					"outputs": [
						{
							"internalType": "address",
							"name": "",
							"type": "address"
						}
					],
					"stateMutability": "view",
					"type": "function"
				},
				{
					"inputs": [
						{
							"internalType": "uint8",
							"name": "main",
							"type": "uint8"
						}
					],
					"name": "play",
					"outputs": [],
					"stateMutability": "payable",
					"type": "function"
				},
				{
					"inputs": [
						{
							"internalType": "uint256",
							"name": "amount",
							"type": "uint256"
						}
					],
					"name": "withdraw",
					"outputs": [],
					"stateMutability": "nonpayable",
					"type": "function"
				},
				{
					"stateMutability": "payable",
					"type": "receive"
				}
			],
			"devdoc": {
				"kind": "dev",
				"methods": {},
				"version": 1
			},
			"evm": {
				"assembly": "    /* \"Contracts/hazard.sol\":61:3077  contract MonHazard {... */\n  mstore(0x40, 0x80)\n    /* \"Contracts/hazard.sol\":619:629  msg.sender */\n  caller\n    /* \"Contracts/hazard.sol\":611:616  owner */\n  0x00\n  0x00\n    /* \"Contracts/hazard.sol\":611:629  owner = msg.sender */\n  0x0100\n  exp\n  dup2\n  sload\n  dup2\n  0xffffffffffffffffffffffffffffffffffffffff\n  mul\n  not\n  and\n  swap1\n  dup4\n  0xffffffffffffffffffffffffffffffffffffffff\n  and\n  mul\n  or\n  swap1\n  sstore\n  pop\n    /* \"Contracts/hazard.sol\":61:3077  contract MonHazard {... */\n  dataSize(sub_0)\n  dup1\n  dataOffset(sub_0)\n  0x00\n  codecopy\n  0x00\n  return\nstop\n\nsub_0: assembly {\n        /* \"Contracts/hazard.sol\":61:3077  contract MonHazard {... */\n      mstore(0x40, 0x80)\n      jumpi(tag_1, lt(calldatasize, 0x04))\n      shr(0xe0, calldataload(0x00))\n      dup1\n      0x2e1a7d4d\n      eq\n      tag_3\n      jumpi\n      dup1\n      0x53a04b05\n      eq\n      tag_4\n      jumpi\n      dup1\n      0x8da5cb5b\n      eq\n      tag_5\n      jumpi\n      dup1\n      0xb60d4288\n      eq\n      tag_6\n      jumpi\n      jump(tag_2)\n    tag_1:\n      jumpi(tag_2, calldatasize)\n        /* \"Contracts/hazard.sol\":800:810  msg.sender */\n      caller\n        /* \"Contracts/hazard.sol\":793:822  Funded(msg.sender, msg.value) */\n      0xffffffffffffffffffffffffffffffffffffffff\n      and\n      0x5af8184bef8e4b45eb9f6ed7734d04da38ced226495548f46e0c8ff8d7d9a524\n        /* \"Contracts/hazard.sol\":812:821  msg.value */\n      callvalue\n        /* \"Contracts/hazard.sol\":793:822  Funded(msg.sender, msg.value) */\n      mload(0x40)\n      tag_9\n      swap2\n      swap1\n      tag_10\n      jump\t// in\n    tag_9:\n      mload(0x40)\n      dup1\n      swap2\n      sub\n      swap1\n      log2\n        /* \"Contracts/hazard.sol\":61:3077  contract MonHazard {... */\n      stop\n    tag_2:\n      revert(0x00, 0x00)\n        /* \"Contracts/hazard.sol\":2908:3074  function withdraw(uint256 amount) external onlyOwner {... */\n    tag_3:\n      callvalue\n      dup1\n      iszero\n      tag_11\n      jumpi\n      revert(0x00, 0x00)\n    tag_11:\n      pop\n      tag_12\n      0x04\n      dup1\n      calldatasize\n      sub\n      dup2\n      add\n      swap1\n      tag_13\n      swap2\n      swap1\n      tag_14\n      jump\t// in\n    tag_13:\n      tag_15\n      jump\t// in\n    tag_12:\n      stop\n        /* \"Contracts/hazard.sol\":833:2900  function play(uint8 main) external payable noReentrant {... */\n    tag_4:\n      tag_16\n      0x04\n      dup1\n      calldatasize\n      sub\n      dup2\n      add\n      swap1\n      tag_17\n      swap2\n      swap1\n      tag_18\n      jump\t// in\n    tag_17:\n      tag_19\n      jump\t// in\n    tag_16:\n      stop\n        /* \"Contracts/hazard.sol\":87:107  address public owner */\n    tag_5:\n      callvalue\n      dup1\n      iszero\n      tag_20\n      jumpi\n      revert(0x00, 0x00)\n    tag_20:\n      pop\n      tag_21\n      tag_22\n      jump\t// in\n    tag_21:\n      mload(0x40)\n      tag_23\n      swap2\n      swap1\n      tag_24\n      jump\t// in\n    tag_23:\n      mload(0x40)\n      dup1\n      swap2\n      sub\n      swap1\n      return\n        /* \"Contracts/hazard.sol\":640:753  function fund() external payable { require(msg.value > 0, \"must send MON\"); emit Funded(msg.sender, msg.value); } */\n    tag_6:\n      tag_25\n      tag_26\n      jump\t// in\n    tag_25:\n      stop\n        /* \"Contracts/hazard.sol\":2908:3074  function withdraw(uint256 amount) external onlyOwner {... */\n    tag_15:\n        /* \"Contracts/hazard.sol\":456:461  owner */\n      0x00\n      0x00\n      swap1\n      sload\n      swap1\n      0x0100\n      exp\n      swap1\n      div\n      0xffffffffffffffffffffffffffffffffffffffff\n      and\n        /* \"Contracts/hazard.sol\":442:461  msg.sender == owner */\n      0xffffffffffffffffffffffffffffffffffffffff\n      and\n        /* \"Contracts/hazard.sol\":442:452  msg.sender */\n      caller\n        /* \"Contracts/hazard.sol\":442:461  msg.sender == owner */\n      0xffffffffffffffffffffffffffffffffffffffff\n      and\n      eq\n        /* \"Contracts/hazard.sol\":434:475  require(msg.sender == owner, \"not owner\") */\n      tag_28\n      jumpi\n      mload(0x40)\n      0x08c379a000000000000000000000000000000000000000000000000000000000\n      dup2\n      mstore\n      0x04\n      add\n      tag_29\n      swap1\n      tag_30\n      jump\t// in\n    tag_29:\n      mload(0x40)\n      dup1\n      swap2\n      sub\n      swap1\n      revert\n    tag_28:\n        /* \"Contracts/hazard.sol\":2990:3011  address(this).balance */\n      selfbalance\n        /* \"Contracts/hazard.sol\":2980:2986  amount */\n      dup2\n        /* \"Contracts/hazard.sol\":2980:3011  amount <= address(this).balance */\n      gt\n      iszero\n        /* \"Contracts/hazard.sol\":2972:3024  require(amount <= address(this).balance, \"too much\") */\n      tag_32\n      jumpi\n      mload(0x40)\n      0x08c379a000000000000000000000000000000000000000000000000000000000\n      dup2\n      mstore\n      0x04\n      add\n      tag_33\n      swap1\n      tag_34\n      jump\t// in\n    tag_33:\n      mload(0x40)\n      dup1\n      swap2\n      sub\n      swap1\n      revert\n    tag_32:\n        /* \"Contracts/hazard.sol\":3043:3048  owner */\n      0x00\n      0x00\n      swap1\n      sload\n      swap1\n      0x0100\n      exp\n      swap1\n      div\n      0xffffffffffffffffffffffffffffffffffffffff\n      and\n        /* \"Contracts/hazard.sol\":3035:3058  payable(owner).transfer */\n      0xffffffffffffffffffffffffffffffffffffffff\n      and\n        /* \"Contracts/hazard.sol\":3035:3066  payable(owner).transfer(amount) */\n      0x08fc\n        /* \"Contracts/hazard.sol\":3059:3065  amount */\n      dup3\n        /* \"Contracts/hazard.sol\":3035:3066  payable(owner).transfer(amount) */\n      swap1\n      dup2\n      iszero\n      mul\n      swap1\n      mload(0x40)\n      0x00\n      mload(0x40)\n      dup1\n      dup4\n      sub\n      dup2\n      dup6\n      dup9\n      dup9\n      call\n      swap4\n      pop\n      pop\n      pop\n      pop\n      iszero\n      dup1\n      iszero\n      tag_36\n      jumpi\n      returndatacopy(0x00, 0x00, returndatasize)\n      revert(0x00, returndatasize)\n    tag_36:\n      pop\n        /* \"Contracts/hazard.sol\":2908:3074  function withdraw(uint256 amount) external onlyOwner {... */\n      pop\n      jump\t// out\n        /* \"Contracts/hazard.sol\":833:2900  function play(uint8 main) external payable noReentrant {... */\n    tag_19:\n        /* \"Contracts/hazard.sol\":521:527  locked */\n      0x00\n      0x14\n      swap1\n      sload\n      swap1\n      0x0100\n      exp\n      swap1\n      div\n      0xff\n      and\n        /* \"Contracts/hazard.sol\":520:527  !locked */\n      iszero\n        /* \"Contracts/hazard.sol\":512:542  require(!locked, \"reentrancy\") */\n      tag_38\n      jumpi\n      mload(0x40)\n      0x08c379a000000000000000000000000000000000000000000000000000000000\n      dup2\n      mstore\n      0x04\n      add\n      tag_39\n      swap1\n      tag_40\n      jump\t// in\n    tag_39:\n      mload(0x40)\n      dup1\n      swap2\n      sub\n      swap1\n      revert\n    tag_38:\n        /* \"Contracts/hazard.sol\":553:557  true */\n      0x01\n        /* \"Contracts/hazard.sol\":544:550  locked */\n      0x00\n      0x14\n        /* \"Contracts/hazard.sol\":544:557  locked = true */\n      0x0100\n      exp\n      dup2\n      sload\n      dup2\n      0xff\n      mul\n      not\n      and\n      swap1\n      dup4\n      iszero\n      iszero\n      mul\n      or\n      swap1\n      sstore\n      pop\n        /* \"Contracts/hazard.sol\":919:920  0 */\n      0x00\n        /* \"Contracts/hazard.sol\":907:916  msg.value */\n      callvalue\n        /* \"Contracts/hazard.sol\":907:920  msg.value > 0 */\n      gt\n        /* \"Contracts/hazard.sol\":899:946  require(msg.value > 0, \"must send MON to play\") */\n      tag_42\n      jumpi\n      mload(0x40)\n      0x08c379a000000000000000000000000000000000000000000000000000000000\n      dup2\n      mstore\n      0x04\n      add\n      tag_43\n      swap1\n      tag_44\n      jump\t// in\n    tag_43:\n      mload(0x40)\n      dup1\n      swap2\n      sub\n      swap1\n      revert\n    tag_42:\n        /* \"Contracts/hazard.sol\":973:974  5 */\n      0x05\n        /* \"Contracts/hazard.sol\":965:969  main */\n      dup2\n        /* \"Contracts/hazard.sol\":965:974  main >= 5 */\n      0xff\n      and\n      lt\n      iszero\n        /* \"Contracts/hazard.sol\":965:987  main >= 5 && main <= 9 */\n      dup1\n      iszero\n      tag_45\n      jumpi\n      pop\n        /* \"Contracts/hazard.sol\":986:987  9 */\n      0x09\n        /* \"Contracts/hazard.sol\":978:982  main */\n      dup2\n        /* \"Contracts/hazard.sol\":978:987  main <= 9 */\n      0xff\n      and\n      gt\n      iszero\n        /* \"Contracts/hazard.sol\":965:987  main >= 5 && main <= 9 */\n    tag_45:\n        /* \"Contracts/hazard.sol\":957:1004  require(main >= 5 && main <= 9, \"invalid main\") */\n      tag_46\n      jumpi\n      mload(0x40)\n      0x08c379a000000000000000000000000000000000000000000000000000000000\n      dup2\n      mstore\n      0x04\n      add\n      tag_47\n      swap1\n      tag_48\n      jump\t// in\n    tag_47:\n      mload(0x40)\n      dup1\n      swap2\n      sub\n      swap1\n      revert\n    tag_46:\n        /* \"Contracts/hazard.sol\":1060:1061  2 */\n      0x02\n        /* \"Contracts/hazard.sol\":1048:1057  msg.value */\n      callvalue\n        /* \"Contracts/hazard.sol\":1048:1061  msg.value * 2 */\n      tag_49\n      swap2\n      swap1\n      tag_50\n      jump\t// in\n    tag_49:\n        /* \"Contracts/hazard.sol\":1023:1044  address(this).balance */\n      selfbalance\n        /* \"Contracts/hazard.sol\":1023:1061  address(this).balance >= msg.value * 2 */\n      lt\n      iszero\n        /* \"Contracts/hazard.sol\":1015:1082  require(address(this).balance >= msg.value * 2, \"bankroll too low\") */\n      tag_51\n      jumpi\n      mload(0x40)\n      0x08c379a000000000000000000000000000000000000000000000000000000000\n      dup2\n      mstore\n      0x04\n      add\n      tag_52\n      swap1\n      tag_53\n      jump\t// in\n    tag_52:\n      mload(0x40)\n      dup1\n      swap2\n      sub\n      swap1\n      revert\n    tag_51:\n        /* \"Contracts/hazard.sol\":1095:1108  uint256 wager */\n      0x00\n        /* \"Contracts/hazard.sol\":1111:1120  msg.value */\n      callvalue\n        /* \"Contracts/hazard.sol\":1095:1120  uint256 wager = msg.value */\n      swap1\n      pop\n        /* \"Contracts/hazard.sol\":1131:1143  uint8 chance */\n      0x00\n        /* \"Contracts/hazard.sol\":1146:1147  0 */\n      0x00\n        /* \"Contracts/hazard.sol\":1131:1147  uint8 chance = 0 */\n      swap1\n      pop\n        /* \"Contracts/hazard.sol\":1158:1171  bool resolved */\n      0x00\n        /* \"Contracts/hazard.sol\":1174:1179  false */\n      0x00\n        /* \"Contracts/hazard.sol\":1158:1179  bool resolved = false */\n      swap1\n      pop\n        /* \"Contracts/hazard.sol\":1190:1198  bool win */\n      0x00\n        /* \"Contracts/hazard.sol\":1201:1206  false */\n      0x00\n        /* \"Contracts/hazard.sol\":1190:1206  bool win = false */\n      swap1\n      pop\n        /* \"Contracts/hazard.sol\":1217:1231  uint8 finalSum */\n      0x00\n        /* \"Contracts/hazard.sol\":1234:1235  0 */\n      0x00\n        /* \"Contracts/hazard.sol\":1217:1235  uint8 finalSum = 0 */\n      swap1\n      pop\n        /* \"Contracts/hazard.sol\":1246:1258  bytes32 seed */\n      0x00\n        /* \"Contracts/hazard.sol\":1288:1303  block.timestamp */\n      timestamp\n        /* \"Contracts/hazard.sol\":1305:1321  block.prevrandao */\n      prevrandao\n        /* \"Contracts/hazard.sol\":1323:1333  msg.sender */\n      caller\n        /* \"Contracts/hazard.sol\":1360:1361  1 */\n      0x01\n        /* \"Contracts/hazard.sol\":1345:1357  block.number */\n      number\n        /* \"Contracts/hazard.sol\":1345:1361  block.number - 1 */\n      tag_54\n      swap2\n      swap1\n      tag_55\n      jump\t// in\n    tag_54:\n        /* \"Contracts/hazard.sol\":1335:1362  blockhash(block.number - 1) */\n      blockhash\n        /* \"Contracts/hazard.sol\":1271:1363  abi.encodePacked(block.timestamp, block.prevrandao, msg.sender, blockhash(block.number - 1)) */\n      add(0x20, mload(0x40))\n      tag_56\n      swap5\n      swap4\n      swap3\n      swap2\n      swap1\n      tag_57\n      jump\t// in\n    tag_56:\n      mload(0x40)\n      0x20\n      dup2\n      dup4\n      sub\n      sub\n      dup2\n      mstore\n      swap1\n      0x40\n      mstore\n        /* \"Contracts/hazard.sol\":1261:1364  keccak256(abi.encodePacked(block.timestamp, block.prevrandao, msg.sender, blockhash(block.number - 1))) */\n      dup1\n      mload\n      swap1\n      0x20\n      add\n      keccak256\n        /* \"Contracts/hazard.sol\":1246:1364  bytes32 seed = keccak256(abi.encodePacked(block.timestamp, block.prevrandao, msg.sender, blockhash(block.number - 1))) */\n      swap1\n      pop\n        /* \"Contracts/hazard.sol\":1375:1393  uint256 iterations */\n      0x00\n        /* \"Contracts/hazard.sol\":1396:1397  0 */\n      0x00\n        /* \"Contracts/hazard.sol\":1375:1397  uint256 iterations = 0 */\n      swap1\n      pop\n        /* \"Contracts/hazard.sol\":1408:1429  uint256 maxIterations */\n      0x00\n        /* \"Contracts/hazard.sol\":1432:1435  100 */\n      0x64\n        /* \"Contracts/hazard.sol\":1408:1435  uint256 maxIterations = 100 */\n      swap1\n      pop\n        /* \"Contracts/hazard.sol\":1448:2472  while (!resolved && iterations < maxIterations) {... */\n    tag_58:\n        /* \"Contracts/hazard.sol\":1456:1464  resolved */\n      dup6\n        /* \"Contracts/hazard.sol\":1455:1464  !resolved */\n      iszero\n        /* \"Contracts/hazard.sol\":1455:1494  !resolved && iterations < maxIterations */\n      dup1\n      iszero\n      tag_60\n      jumpi\n      pop\n        /* \"Contracts/hazard.sol\":1481:1494  maxIterations */\n      dup1\n        /* \"Contracts/hazard.sol\":1468:1478  iterations */\n      dup3\n        /* \"Contracts/hazard.sol\":1468:1494  iterations < maxIterations */\n      lt\n        /* \"Contracts/hazard.sol\":1455:1494  !resolved && iterations < maxIterations */\n    tag_60:\n        /* \"Contracts/hazard.sol\":1448:2472  while (!resolved && iterations < maxIterations) {... */\n      iszero\n      tag_59\n      jumpi\n        /* \"Contracts/hazard.sol\":1545:1549  seed */\n      dup3\n        /* \"Contracts/hazard.sol\":1551:1561  iterations */\n      dup3\n        /* \"Contracts/hazard.sol\":1528:1562  abi.encodePacked(seed, iterations) */\n      add(0x20, mload(0x40))\n      tag_61\n      swap3\n      swap2\n      swap1\n      tag_62\n      jump\t// in\n    tag_61:\n      mload(0x40)\n      0x20\n      dup2\n      dup4\n      sub\n      sub\n      dup2\n      mstore\n      swap1\n      0x40\n      mstore\n        /* \"Contracts/hazard.sol\":1518:1563  keccak256(abi.encodePacked(seed, iterations)) */\n      dup1\n      mload\n      swap1\n      0x20\n      add\n      keccak256\n        /* \"Contracts/hazard.sol\":1511:1563  seed = keccak256(abi.encodePacked(seed, iterations)) */\n      swap3\n      pop\n        /* \"Contracts/hazard.sol\":1578:1586  uint8 d1 */\n      0x00\n        /* \"Contracts/hazard.sol\":1616:1617  1 */\n      0x01\n        /* \"Contracts/hazard.sol\":1611:1612  6 */\n      0x06\n        /* \"Contracts/hazard.sol\":1603:1607  seed */\n      dup6\n        /* \"Contracts/hazard.sol\":1595:1608  uint256(seed) */\n      0x00\n      shr\n        /* \"Contracts/hazard.sol\":1595:1612  uint256(seed) % 6 */\n      tag_63\n      swap2\n      swap1\n      tag_64\n      jump\t// in\n    tag_63:\n        /* \"Contracts/hazard.sol\":1589:1617  uint8(uint256(seed) % 6) + 1 */\n      tag_65\n      swap2\n      swap1\n      tag_66\n      jump\t// in\n    tag_65:\n        /* \"Contracts/hazard.sol\":1578:1617  uint8 d1 = uint8(uint256(seed) % 6) + 1 */\n      swap1\n      pop\n        /* \"Contracts/hazard.sol\":1666:1670  seed */\n      dup4\n        /* \"Contracts/hazard.sol\":1672:1682  iterations */\n      dup4\n        /* \"Contracts/hazard.sol\":1684:1686  d1 */\n      dup3\n        /* \"Contracts/hazard.sol\":1649:1687  abi.encodePacked(seed, iterations, d1) */\n      add(0x20, mload(0x40))\n      tag_67\n      swap4\n      swap3\n      swap2\n      swap1\n      tag_68\n      jump\t// in\n    tag_67:\n      mload(0x40)\n      0x20\n      dup2\n      dup4\n      sub\n      sub\n      dup2\n      mstore\n      swap1\n      0x40\n      mstore\n        /* \"Contracts/hazard.sol\":1639:1688  keccak256(abi.encodePacked(seed, iterations, d1)) */\n      dup1\n      mload\n      swap1\n      0x20\n      add\n      keccak256\n        /* \"Contracts/hazard.sol\":1632:1688  seed = keccak256(abi.encodePacked(seed, iterations, d1)) */\n      swap4\n      pop\n        /* \"Contracts/hazard.sol\":1703:1711  uint8 d2 */\n      0x00\n        /* \"Contracts/hazard.sol\":1741:1742  1 */\n      0x01\n        /* \"Contracts/hazard.sol\":1736:1737  6 */\n      0x06\n        /* \"Contracts/hazard.sol\":1728:1732  seed */\n      dup7\n        /* \"Contracts/hazard.sol\":1720:1733  uint256(seed) */\n      0x00\n      shr\n        /* \"Contracts/hazard.sol\":1720:1737  uint256(seed) % 6 */\n      tag_69\n      swap2\n      swap1\n      tag_64\n      jump\t// in\n    tag_69:\n        /* \"Contracts/hazard.sol\":1714:1742  uint8(uint256(seed) % 6) + 1 */\n      tag_70\n      swap2\n      swap1\n      tag_66\n      jump\t// in\n    tag_70:\n        /* \"Contracts/hazard.sol\":1703:1742  uint8 d2 = uint8(uint256(seed) % 6) + 1 */\n      swap1\n      pop\n        /* \"Contracts/hazard.sol\":1773:1775  d2 */\n      dup1\n        /* \"Contracts/hazard.sol\":1768:1770  d1 */\n      dup3\n        /* \"Contracts/hazard.sol\":1768:1775  d1 + d2 */\n      tag_71\n      swap2\n      swap1\n      tag_66\n      jump\t// in\n    tag_71:\n        /* \"Contracts/hazard.sol\":1757:1775  finalSum = d1 + d2 */\n      swap6\n      pop\n        /* \"Contracts/hazard.sol\":1806:1807  0 */\n      0x00\n        /* \"Contracts/hazard.sol\":1796:1802  chance */\n      dup10\n        /* \"Contracts/hazard.sol\":1796:1807  chance == 0 */\n      0xff\n      and\n      sub\n        /* \"Contracts/hazard.sol\":1792:2434  if (chance == 0) {... */\n      tag_72\n      jumpi\n        /* \"Contracts/hazard.sol\":1844:1848  main */\n      dup11\n        /* \"Contracts/hazard.sol\":1832:1848  finalSum == main */\n      0xff\n      and\n        /* \"Contracts/hazard.sol\":1832:1840  finalSum */\n      dup7\n        /* \"Contracts/hazard.sol\":1832:1848  finalSum == main */\n      0xff\n      and\n      sub\n        /* \"Contracts/hazard.sol\":1828:2245  if (finalSum == main) { win = true; resolved = true; }... */\n      tag_73\n      jumpi\n        /* \"Contracts/hazard.sol\":1858:1862  true */\n      0x01\n        /* \"Contracts/hazard.sol\":1852:1862  win = true */\n      swap7\n      pop\n        /* \"Contracts/hazard.sol\":1875:1879  true */\n      0x01\n        /* \"Contracts/hazard.sol\":1864:1879  resolved = true */\n      swap8\n      pop\n        /* \"Contracts/hazard.sol\":1828:2245  if (finalSum == main) { win = true; resolved = true; }... */\n      jump(tag_74)\n    tag_73:\n        /* \"Contracts/hazard.sol\":1921:1922  2 */\n      0x02\n        /* \"Contracts/hazard.sol\":1909:1917  finalSum */\n      dup7\n        /* \"Contracts/hazard.sol\":1909:1922  finalSum == 2 */\n      0xff\n      and\n      eq\n        /* \"Contracts/hazard.sol\":1909:1939  finalSum == 2 || finalSum == 3 */\n      dup1\n      tag_75\n      jumpi\n      pop\n        /* \"Contracts/hazard.sol\":1938:1939  3 */\n      0x03\n        /* \"Contracts/hazard.sol\":1926:1934  finalSum */\n      dup7\n        /* \"Contracts/hazard.sol\":1926:1939  finalSum == 3 */\n      0xff\n      and\n      eq\n        /* \"Contracts/hazard.sol\":1909:1939  finalSum == 2 || finalSum == 3 */\n    tag_75:\n        /* \"Contracts/hazard.sol\":1905:2245  if (finalSum == 2 || finalSum == 3) { win = false; resolved = true; }... */\n      iszero\n      tag_76\n      jumpi\n        /* \"Contracts/hazard.sol\":1949:1954  false */\n      0x00\n        /* \"Contracts/hazard.sol\":1943:1954  win = false */\n      swap7\n      pop\n        /* \"Contracts/hazard.sol\":1967:1971  true */\n      0x01\n        /* \"Contracts/hazard.sol\":1956:1971  resolved = true */\n      swap8\n      pop\n        /* \"Contracts/hazard.sol\":1905:2245  if (finalSum == 2 || finalSum == 3) { win = false; resolved = true; }... */\n      jump(tag_77)\n    tag_76:\n        /* \"Contracts/hazard.sol\":2013:2015  11 */\n      0x0b\n        /* \"Contracts/hazard.sol\":2001:2009  finalSum */\n      dup7\n        /* \"Contracts/hazard.sol\":2001:2015  finalSum == 11 */\n      0xff\n      and\n      eq\n        /* \"Contracts/hazard.sol\":2001:2033  finalSum == 11 || finalSum == 12 */\n      dup1\n      tag_78\n      jumpi\n      pop\n        /* \"Contracts/hazard.sol\":2031:2033  12 */\n      0x0c\n        /* \"Contracts/hazard.sol\":2019:2027  finalSum */\n      dup7\n        /* \"Contracts/hazard.sol\":2019:2033  finalSum == 12 */\n      0xff\n      and\n      eq\n        /* \"Contracts/hazard.sol\":2001:2033  finalSum == 11 || finalSum == 12 */\n    tag_78:\n        /* \"Contracts/hazard.sol\":1997:2245  if (finalSum == 11 || finalSum == 12) {... */\n      iszero\n      tag_79\n      jumpi\n        /* \"Contracts/hazard.sol\":2070:2071  7 */\n      0x07\n        /* \"Contracts/hazard.sol\":2062:2066  main */\n      dup12\n        /* \"Contracts/hazard.sol\":2062:2071  main == 7 */\n      0xff\n      and\n      sub\n        /* \"Contracts/hazard.sol\":2058:2160  if (main == 7) { win = false; } else if (main == 5 || main == 9) { win = true; } else { win = false; } */\n      tag_80\n      jumpi\n        /* \"Contracts/hazard.sol\":2081:2086  false */\n      0x00\n        /* \"Contracts/hazard.sol\":2075:2086  win = false */\n      swap7\n      pop\n        /* \"Contracts/hazard.sol\":2058:2160  if (main == 7) { win = false; } else if (main == 5 || main == 9) { win = true; } else { win = false; } */\n      jump(tag_81)\n    tag_80:\n        /* \"Contracts/hazard.sol\":2107:2108  5 */\n      0x05\n        /* \"Contracts/hazard.sol\":2099:2103  main */\n      dup12\n        /* \"Contracts/hazard.sol\":2099:2108  main == 5 */\n      0xff\n      and\n      eq\n        /* \"Contracts/hazard.sol\":2099:2121  main == 5 || main == 9 */\n      dup1\n      tag_82\n      jumpi\n      pop\n        /* \"Contracts/hazard.sol\":2120:2121  9 */\n      0x09\n        /* \"Contracts/hazard.sol\":2112:2116  main */\n      dup12\n        /* \"Contracts/hazard.sol\":2112:2121  main == 9 */\n      0xff\n      and\n      eq\n        /* \"Contracts/hazard.sol\":2099:2121  main == 5 || main == 9 */\n    tag_82:\n        /* \"Contracts/hazard.sol\":2095:2160  if (main == 5 || main == 9) { win = true; } else { win = false; } */\n      iszero\n      tag_83\n      jumpi\n        /* \"Contracts/hazard.sol\":2131:2135  true */\n      0x01\n        /* \"Contracts/hazard.sol\":2125:2135  win = true */\n      swap7\n      pop\n        /* \"Contracts/hazard.sol\":2095:2160  if (main == 5 || main == 9) { win = true; } else { win = false; } */\n      jump(tag_84)\n    tag_83:\n        /* \"Contracts/hazard.sol\":2152:2157  false */\n      0x00\n        /* \"Contracts/hazard.sol\":2146:2157  win = false */\n      swap7\n      pop\n        /* \"Contracts/hazard.sol\":2095:2160  if (main == 5 || main == 9) { win = true; } else { win = false; } */\n    tag_84:\n        /* \"Contracts/hazard.sol\":2058:2160  if (main == 7) { win = false; } else if (main == 5 || main == 9) { win = true; } else { win = false; } */\n    tag_81:\n        /* \"Contracts/hazard.sol\":2193:2197  true */\n      0x01\n        /* \"Contracts/hazard.sol\":2182:2197  resolved = true */\n      swap8\n      pop\n        /* \"Contracts/hazard.sol\":1997:2245  if (finalSum == 11 || finalSum == 12) {... */\n      jump(tag_85)\n    tag_79:\n        /* \"Contracts/hazard.sol\":2234:2242  finalSum */\n      dup6\n        /* \"Contracts/hazard.sol\":2225:2242  chance = finalSum */\n      swap9\n      pop\n        /* \"Contracts/hazard.sol\":1997:2245  if (finalSum == 11 || finalSum == 12) {... */\n    tag_85:\n        /* \"Contracts/hazard.sol\":1905:2245  if (finalSum == 2 || finalSum == 3) { win = false; resolved = true; }... */\n    tag_77:\n        /* \"Contracts/hazard.sol\":1828:2245  if (finalSum == main) { win = true; resolved = true; }... */\n    tag_74:\n        /* \"Contracts/hazard.sol\":1792:2434  if (chance == 0) {... */\n      jump(tag_86)\n    tag_72:\n        /* \"Contracts/hazard.sol\":2301:2307  chance */\n      dup9\n        /* \"Contracts/hazard.sol\":2289:2307  finalSum == chance */\n      0xff\n      and\n        /* \"Contracts/hazard.sol\":2289:2297  finalSum */\n      dup7\n        /* \"Contracts/hazard.sol\":2289:2307  finalSum == chance */\n      0xff\n      and\n      sub\n        /* \"Contracts/hazard.sol\":2285:2419  if (finalSum == chance) { win = true; resolved = true; }... */\n      tag_87\n      jumpi\n        /* \"Contracts/hazard.sol\":2317:2321  true */\n      0x01\n        /* \"Contracts/hazard.sol\":2311:2321  win = true */\n      swap7\n      pop\n        /* \"Contracts/hazard.sol\":2334:2338  true */\n      0x01\n        /* \"Contracts/hazard.sol\":2323:2338  resolved = true */\n      swap8\n      pop\n        /* \"Contracts/hazard.sol\":2285:2419  if (finalSum == chance) { win = true; resolved = true; }... */\n      jump(tag_88)\n    tag_87:\n        /* \"Contracts/hazard.sol\":2380:2384  main */\n      dup11\n        /* \"Contracts/hazard.sol\":2368:2384  finalSum == main */\n      0xff\n      and\n        /* \"Contracts/hazard.sol\":2368:2376  finalSum */\n      dup7\n        /* \"Contracts/hazard.sol\":2368:2384  finalSum == main */\n      0xff\n      and\n      sub\n        /* \"Contracts/hazard.sol\":2364:2419  if (finalSum == main) { win = false; resolved = true; } */\n      tag_89\n      jumpi\n        /* \"Contracts/hazard.sol\":2394:2399  false */\n      0x00\n        /* \"Contracts/hazard.sol\":2388:2399  win = false */\n      swap7\n      pop\n        /* \"Contracts/hazard.sol\":2412:2416  true */\n      0x01\n        /* \"Contracts/hazard.sol\":2401:2416  resolved = true */\n      swap8\n      pop\n        /* \"Contracts/hazard.sol\":2364:2419  if (finalSum == main) { win = false; resolved = true; } */\n    tag_89:\n        /* \"Contracts/hazard.sol\":2285:2419  if (finalSum == chance) { win = true; resolved = true; }... */\n    tag_88:\n        /* \"Contracts/hazard.sol\":1792:2434  if (chance == 0) {... */\n    tag_86:\n        /* \"Contracts/hazard.sol\":2448:2460  iterations++ */\n      dup4\n      dup1\n      tag_90\n      swap1\n      tag_91\n      jump\t// in\n    tag_90:\n      swap5\n      pop\n      pop\n        /* \"Contracts/hazard.sol\":1496:2472  {... */\n      pop\n      pop\n        /* \"Contracts/hazard.sol\":1448:2472  while (!resolved && iterations < maxIterations) {... */\n      jump(tag_58)\n    tag_59:\n        /* \"Contracts/hazard.sol\":2489:2497  resolved */\n      dup6\n        /* \"Contracts/hazard.sol\":2484:2515  if (!resolved) { win = false; } */\n      tag_92\n      jumpi\n        /* \"Contracts/hazard.sol\":2507:2512  false */\n      0x00\n        /* \"Contracts/hazard.sol\":2501:2512  win = false */\n      swap5\n      pop\n        /* \"Contracts/hazard.sol\":2484:2515  if (!resolved) { win = false; } */\n    tag_92:\n        /* \"Contracts/hazard.sol\":2531:2534  win */\n      dup5\n        /* \"Contracts/hazard.sol\":2527:2803  if (win) {... */\n      iszero\n      tag_93\n      jumpi\n        /* \"Contracts/hazard.sol\":2551:2565  uint256 payout */\n      0x00\n        /* \"Contracts/hazard.sol\":2576:2577  2 */\n      0x02\n        /* \"Contracts/hazard.sol\":2568:2573  wager */\n      dup10\n        /* \"Contracts/hazard.sol\":2568:2577  wager * 2 */\n      tag_94\n      swap2\n      swap1\n      tag_50\n      jump\t// in\n    tag_94:\n        /* \"Contracts/hazard.sol\":2551:2577  uint256 payout = wager * 2 */\n      swap1\n      pop\n        /* \"Contracts/hazard.sol\":2621:2627  payout */\n      dup1\n        /* \"Contracts/hazard.sol\":2596:2617  address(this).balance */\n      selfbalance\n        /* \"Contracts/hazard.sol\":2596:2627  address(this).balance >= payout */\n      lt\n        /* \"Contracts/hazard.sol\":2592:2792  if (address(this).balance >= payout) {... */\n      tag_95\n      jumpi\n        /* \"Contracts/hazard.sol\":2649:2656  bool ok */\n      0x00\n        /* \"Contracts/hazard.sol\":2670:2680  msg.sender */\n      caller\n        /* \"Contracts/hazard.sol\":2662:2686  payable(msg.sender).call */\n      0xffffffffffffffffffffffffffffffffffffffff\n      and\n        /* \"Contracts/hazard.sol\":2695:2701  payout */\n      dup3\n        /* \"Contracts/hazard.sol\":2662:2707  payable(msg.sender).call{ value: payout }(\"\") */\n      mload(0x40)\n      tag_96\n      swap1\n      tag_97\n      jump\t// in\n    tag_96:\n      0x00\n      mload(0x40)\n      dup1\n      dup4\n      sub\n      dup2\n      dup6\n      dup8\n      gas\n      call\n      swap3\n      pop\n      pop\n      pop\n      returndatasize\n      dup1\n      0x00\n      dup2\n      eq\n      tag_100\n      jumpi\n      mload(0x40)\n      swap2\n      pop\n      and(add(returndatasize, 0x3f), not(0x1f))\n      dup3\n      add\n      0x40\n      mstore\n      returndatasize\n      dup3\n      mstore\n      returndatasize\n      0x00\n      0x20\n      dup5\n      add\n      returndatacopy\n      jump(tag_99)\n    tag_100:\n      0x60\n      swap2\n      pop\n    tag_99:\n      pop\n        /* \"Contracts/hazard.sol\":2648:2707  (bool ok, ) = payable(msg.sender).call{ value: payout }(\"\") */\n      pop\n      swap1\n      pop\n        /* \"Contracts/hazard.sol\":2734:2736  ok */\n      dup1\n        /* \"Contracts/hazard.sol\":2726:2754  require(ok, \"payout failed\") */\n      tag_101\n      jumpi\n      mload(0x40)\n      0x08c379a000000000000000000000000000000000000000000000000000000000\n      dup2\n      mstore\n      0x04\n      add\n      tag_102\n      swap1\n      tag_103\n      jump\t// in\n    tag_102:\n      mload(0x40)\n      dup1\n      swap2\n      sub\n      swap1\n      revert\n    tag_101:\n        /* \"Contracts/hazard.sol\":2629:2770  {... */\n      pop\n        /* \"Contracts/hazard.sol\":2592:2792  if (address(this).balance >= payout) {... */\n      jump(tag_104)\n    tag_95:\n        /* \"Contracts/hazard.sol\":2784:2789  false */\n      0x00\n        /* \"Contracts/hazard.sol\":2778:2789  win = false */\n      swap6\n      pop\n        /* \"Contracts/hazard.sol\":2592:2792  if (address(this).balance >= payout) {... */\n    tag_104:\n        /* \"Contracts/hazard.sol\":2536:2803  {... */\n      pop\n        /* \"Contracts/hazard.sol\":2527:2803  if (win) {... */\n    tag_93:\n        /* \"Contracts/hazard.sol\":2833:2843  msg.sender */\n      caller\n        /* \"Contracts/hazard.sol\":2820:2892  HazardPlayed(msg.sender, wager, win, main, finalSum, chance, iterations) */\n      0xffffffffffffffffffffffffffffffffffffffff\n      and\n      0x0bd3a518165ff9e7aa8e3bdec8acf19e682cee03800411ca5b4cc47829ee73fe\n        /* \"Contracts/hazard.sol\":2845:2850  wager */\n      dup10\n        /* \"Contracts/hazard.sol\":2852:2855  win */\n      dup8\n        /* \"Contracts/hazard.sol\":2857:2861  main */\n      dup13\n        /* \"Contracts/hazard.sol\":2863:2871  finalSum */\n      dup9\n        /* \"Contracts/hazard.sol\":2873:2879  chance */\n      dup13\n        /* \"Contracts/hazard.sol\":2881:2891  iterations */\n      dup9\n        /* \"Contracts/hazard.sol\":2820:2892  HazardPlayed(msg.sender, wager, win, main, finalSum, chance, iterations) */\n      mload(0x40)\n      tag_105\n      swap7\n      swap6\n      swap5\n      swap4\n      swap3\n      swap2\n      swap1\n      tag_106\n      jump\t// in\n    tag_105:\n      mload(0x40)\n      dup1\n      swap2\n      sub\n      swap1\n      log2\n        /* \"Contracts/hazard.sol\":888:2900  {... */\n      pop\n      pop\n      pop\n      pop\n      pop\n      pop\n      pop\n      pop\n        /* \"Contracts/hazard.sol\":571:576  false */\n      0x00\n        /* \"Contracts/hazard.sol\":562:568  locked */\n      0x00\n      0x14\n        /* \"Contracts/hazard.sol\":562:576  locked = false */\n      0x0100\n      exp\n      dup2\n      sload\n      dup2\n      0xff\n      mul\n      not\n      and\n      swap1\n      dup4\n      iszero\n      iszero\n      mul\n      or\n      swap1\n      sstore\n      pop\n        /* \"Contracts/hazard.sol\":833:2900  function play(uint8 main) external payable noReentrant {... */\n      pop\n      jump\t// out\n        /* \"Contracts/hazard.sol\":87:107  address public owner */\n    tag_22:\n      0x00\n      0x00\n      swap1\n      sload\n      swap1\n      0x0100\n      exp\n      swap1\n      div\n      0xffffffffffffffffffffffffffffffffffffffff\n      and\n      dup2\n      jump\t// out\n        /* \"Contracts/hazard.sol\":640:753  function fund() external payable { require(msg.value > 0, \"must send MON\"); emit Funded(msg.sender, msg.value); } */\n    tag_26:\n        /* \"Contracts/hazard.sol\":695:696  0 */\n      0x00\n        /* \"Contracts/hazard.sol\":683:692  msg.value */\n      callvalue\n        /* \"Contracts/hazard.sol\":683:696  msg.value > 0 */\n      gt\n        /* \"Contracts/hazard.sol\":675:714  require(msg.value > 0, \"must send MON\") */\n      tag_108\n      jumpi\n      mload(0x40)\n      0x08c379a000000000000000000000000000000000000000000000000000000000\n      dup2\n      mstore\n      0x04\n      add\n      tag_109\n      swap1\n      tag_110\n      jump\t// in\n    tag_109:\n      mload(0x40)\n      dup1\n      swap2\n      sub\n      swap1\n      revert\n    tag_108:\n        /* \"Contracts/hazard.sol\":728:738  msg.sender */\n      caller\n        /* \"Contracts/hazard.sol\":721:750  Funded(msg.sender, msg.value) */\n      0xffffffffffffffffffffffffffffffffffffffff\n      and\n      0x5af8184bef8e4b45eb9f6ed7734d04da38ced226495548f46e0c8ff8d7d9a524\n        /* \"Contracts/hazard.sol\":740:749  msg.value */\n      callvalue\n        /* \"Contracts/hazard.sol\":721:750  Funded(msg.sender, msg.value) */\n      mload(0x40)\n      tag_111\n      swap2\n      swap1\n      tag_10\n      jump\t// in\n    tag_111:\n      mload(0x40)\n      dup1\n      swap2\n      sub\n      swap1\n      log2\n        /* \"Contracts/hazard.sol\":640:753  function fund() external payable { require(msg.value > 0, \"must send MON\"); emit Funded(msg.sender, msg.value); } */\n      jump\t// out\n        /* \"#utility.yul\":7:84   */\n    tag_112:\n        /* \"#utility.yul\":44:51   */\n      0x00\n        /* \"#utility.yul\":73:78   */\n      dup2\n        /* \"#utility.yul\":62:78   */\n      swap1\n      pop\n        /* \"#utility.yul\":7:84   */\n      swap2\n      swap1\n      pop\n      jump\t// out\n        /* \"#utility.yul\":90:208   */\n    tag_113:\n        /* \"#utility.yul\":177:201   */\n      tag_165\n        /* \"#utility.yul\":195:200   */\n      dup2\n        /* \"#utility.yul\":177:201   */\n      tag_112\n      jump\t// in\n    tag_165:\n        /* \"#utility.yul\":172:175   */\n      dup3\n        /* \"#utility.yul\":165:202   */\n      mstore\n        /* \"#utility.yul\":90:208   */\n      pop\n      pop\n      jump\t// out\n        /* \"#utility.yul\":214:436   */\n    tag_10:\n        /* \"#utility.yul\":307:311   */\n      0x00\n        /* \"#utility.yul\":345:347   */\n      0x20\n        /* \"#utility.yul\":334:343   */\n      dup3\n        /* \"#utility.yul\":330:348   */\n      add\n        /* \"#utility.yul\":322:348   */\n      swap1\n      pop\n        /* \"#utility.yul\":358:429   */\n      tag_167\n        /* \"#utility.yul\":426:427   */\n      0x00\n        /* \"#utility.yul\":415:424   */\n      dup4\n        /* \"#utility.yul\":411:428   */\n      add\n        /* \"#utility.yul\":402:408   */\n      dup5\n        /* \"#utility.yul\":358:429   */\n      tag_113\n      jump\t// in\n    tag_167:\n        /* \"#utility.yul\":214:436   */\n      swap3\n      swap2\n      pop\n      pop\n      jump\t// out\n        /* \"#utility.yul\":523:640   */\n    tag_115:\n        /* \"#utility.yul\":632:633   */\n      0x00\n        /* \"#utility.yul\":629:630   */\n      0x00\n        /* \"#utility.yul\":622:634   */\n      revert\n        /* \"#utility.yul\":769:891   */\n    tag_117:\n        /* \"#utility.yul\":842:866   */\n      tag_172\n        /* \"#utility.yul\":860:865   */\n      dup2\n        /* \"#utility.yul\":842:866   */\n      tag_112\n      jump\t// in\n    tag_172:\n        /* \"#utility.yul\":835:840   */\n      dup2\n        /* \"#utility.yul\":832:867   */\n      eq\n        /* \"#utility.yul\":822:885   */\n      tag_173\n      jumpi\n        /* \"#utility.yul\":881:882   */\n      0x00\n        /* \"#utility.yul\":878:879   */\n      0x00\n        /* \"#utility.yul\":871:883   */\n      revert\n        /* \"#utility.yul\":822:885   */\n    tag_173:\n        /* \"#utility.yul\":769:891   */\n      pop\n      jump\t// out\n        /* \"#utility.yul\":897:1036   */\n    tag_118:\n        /* \"#utility.yul\":943:948   */\n      0x00\n        /* \"#utility.yul\":981:987   */\n      dup2\n        /* \"#utility.yul\":968:988   */\n      calldataload\n        /* \"#utility.yul\":959:988   */\n      swap1\n      pop\n        /* \"#utility.yul\":997:1030   */\n      tag_175\n        /* \"#utility.yul\":1024:1029   */\n      dup2\n        /* \"#utility.yul\":997:1030   */\n      tag_117\n      jump\t// in\n    tag_175:\n        /* \"#utility.yul\":897:1036   */\n      swap3\n      swap2\n      pop\n      pop\n      jump\t// out\n        /* \"#utility.yul\":1042:1371   */\n    tag_14:\n        /* \"#utility.yul\":1101:1107   */\n      0x00\n        /* \"#utility.yul\":1150:1152   */\n      0x20\n        /* \"#utility.yul\":1138:1147   */\n      dup3\n        /* \"#utility.yul\":1129:1136   */\n      dup5\n        /* \"#utility.yul\":1125:1148   */\n      sub\n        /* \"#utility.yul\":1121:1153   */\n      slt\n        /* \"#utility.yul\":1118:1237   */\n      iszero\n      tag_177\n      jumpi\n        /* \"#utility.yul\":1156:1235   */\n      tag_178\n      tag_115\n      jump\t// in\n    tag_178:\n        /* \"#utility.yul\":1118:1237   */\n    tag_177:\n        /* \"#utility.yul\":1276:1277   */\n      0x00\n        /* \"#utility.yul\":1301:1354   */\n      tag_179\n        /* \"#utility.yul\":1346:1353   */\n      dup5\n        /* \"#utility.yul\":1337:1343   */\n      dup3\n        /* \"#utility.yul\":1326:1335   */\n      dup6\n        /* \"#utility.yul\":1322:1344   */\n      add\n        /* \"#utility.yul\":1301:1354   */\n      tag_118\n      jump\t// in\n    tag_179:\n        /* \"#utility.yul\":1291:1354   */\n      swap2\n      pop\n        /* \"#utility.yul\":1247:1364   */\n      pop\n        /* \"#utility.yul\":1042:1371   */\n      swap3\n      swap2\n      pop\n      pop\n      jump\t// out\n        /* \"#utility.yul\":1377:1463   */\n    tag_119:\n        /* \"#utility.yul\":1412:1419   */\n      0x00\n        /* \"#utility.yul\":1452:1456   */\n      0xff\n        /* \"#utility.yul\":1445:1450   */\n      dup3\n        /* \"#utility.yul\":1441:1457   */\n      and\n        /* \"#utility.yul\":1430:1457   */\n      swap1\n      pop\n        /* \"#utility.yul\":1377:1463   */\n      swap2\n      swap1\n      pop\n      jump\t// out\n        /* \"#utility.yul\":1469:1587   */\n    tag_120:\n        /* \"#utility.yul\":1540:1562   */\n      tag_182\n        /* \"#utility.yul\":1556:1561   */\n      dup2\n        /* \"#utility.yul\":1540:1562   */\n      tag_119\n      jump\t// in\n    tag_182:\n        /* \"#utility.yul\":1533:1538   */\n      dup2\n        /* \"#utility.yul\":1530:1563   */\n      eq\n        /* \"#utility.yul\":1520:1581   */\n      tag_183\n      jumpi\n        /* \"#utility.yul\":1577:1578   */\n      0x00\n        /* \"#utility.yul\":1574:1575   */\n      0x00\n        /* \"#utility.yul\":1567:1579   */\n      revert\n        /* \"#utility.yul\":1520:1581   */\n    tag_183:\n        /* \"#utility.yul\":1469:1587   */\n      pop\n      jump\t// out\n        /* \"#utility.yul\":1593:1728   */\n    tag_121:\n        /* \"#utility.yul\":1637:1642   */\n      0x00\n        /* \"#utility.yul\":1675:1681   */\n      dup2\n        /* \"#utility.yul\":1662:1682   */\n      calldataload\n        /* \"#utility.yul\":1653:1682   */\n      swap1\n      pop\n        /* \"#utility.yul\":1691:1722   */\n      tag_185\n        /* \"#utility.yul\":1716:1721   */\n      dup2\n        /* \"#utility.yul\":1691:1722   */\n      tag_120\n      jump\t// in\n    tag_185:\n        /* \"#utility.yul\":1593:1728   */\n      swap3\n      swap2\n      pop\n      pop\n      jump\t// out\n        /* \"#utility.yul\":1734:2059   */\n    tag_18:\n        /* \"#utility.yul\":1791:1797   */\n      0x00\n        /* \"#utility.yul\":1840:1842   */\n      0x20\n        /* \"#utility.yul\":1828:1837   */\n      dup3\n        /* \"#utility.yul\":1819:1826   */\n      dup5\n        /* \"#utility.yul\":1815:1838   */\n      sub\n        /* \"#utility.yul\":1811:1843   */\n      slt\n        /* \"#utility.yul\":1808:1927   */\n      iszero\n      tag_187\n      jumpi\n        /* \"#utility.yul\":1846:1925   */\n      tag_188\n      tag_115\n      jump\t// in\n    tag_188:\n        /* \"#utility.yul\":1808:1927   */\n    tag_187:\n        /* \"#utility.yul\":1966:1967   */\n      0x00\n        /* \"#utility.yul\":1991:2042   */\n      tag_189\n        /* \"#utility.yul\":2034:2041   */\n      dup5\n        /* \"#utility.yul\":2025:2031   */\n      dup3\n        /* \"#utility.yul\":2014:2023   */\n      dup6\n        /* \"#utility.yul\":2010:2032   */\n      add\n        /* \"#utility.yul\":1991:2042   */\n      tag_121\n      jump\t// in\n    tag_189:\n        /* \"#utility.yul\":1981:2042   */\n      swap2\n      pop\n        /* \"#utility.yul\":1937:2052   */\n      pop\n        /* \"#utility.yul\":1734:2059   */\n      swap3\n      swap2\n      pop\n      pop\n      jump\t// out\n        /* \"#utility.yul\":2065:2191   */\n    tag_122:\n        /* \"#utility.yul\":2102:2109   */\n      0x00\n        /* \"#utility.yul\":2142:2184   */\n      0xffffffffffffffffffffffffffffffffffffffff\n        /* \"#utility.yul\":2135:2140   */\n      dup3\n        /* \"#utility.yul\":2131:2185   */\n      and\n        /* \"#utility.yul\":2120:2185   */\n      swap1\n      pop\n        /* \"#utility.yul\":2065:2191   */\n      swap2\n      swap1\n      pop\n      jump\t// out\n        /* \"#utility.yul\":2197:2293   */\n    tag_123:\n        /* \"#utility.yul\":2234:2241   */\n      0x00\n        /* \"#utility.yul\":2263:2287   */\n      tag_192\n        /* \"#utility.yul\":2281:2286   */\n      dup3\n        /* \"#utility.yul\":2263:2287   */\n      tag_122\n      jump\t// in\n    tag_192:\n        /* \"#utility.yul\":2252:2287   */\n      swap1\n      pop\n        /* \"#utility.yul\":2197:2293   */\n      swap2\n      swap1\n      pop\n      jump\t// out\n        /* \"#utility.yul\":2299:2417   */\n    tag_124:\n        /* \"#utility.yul\":2386:2410   */\n      tag_194\n        /* \"#utility.yul\":2404:2409   */\n      dup2\n        /* \"#utility.yul\":2386:2410   */\n      tag_123\n      jump\t// in\n    tag_194:\n        /* \"#utility.yul\":2381:2384   */\n      dup3\n        /* \"#utility.yul\":2374:2411   */\n      mstore\n        /* \"#utility.yul\":2299:2417   */\n      pop\n      pop\n      jump\t// out\n        /* \"#utility.yul\":2423:2645   */\n    tag_24:\n        /* \"#utility.yul\":2516:2520   */\n      0x00\n        /* \"#utility.yul\":2554:2556   */\n      0x20\n        /* \"#utility.yul\":2543:2552   */\n      dup3\n        /* \"#utility.yul\":2539:2557   */\n      add\n        /* \"#utility.yul\":2531:2557   */\n      swap1\n      pop\n        /* \"#utility.yul\":2567:2638   */\n      tag_196\n        /* \"#utility.yul\":2635:2636   */\n      0x00\n        /* \"#utility.yul\":2624:2633   */\n      dup4\n        /* \"#utility.yul\":2620:2637   */\n      add\n        /* \"#utility.yul\":2611:2617   */\n      dup5\n        /* \"#utility.yul\":2567:2638   */\n      tag_124\n      jump\t// in\n    tag_196:\n        /* \"#utility.yul\":2423:2645   */\n      swap3\n      swap2\n      pop\n      pop\n      jump\t// out\n        /* \"#utility.yul\":2651:2820   */\n    tag_125:\n        /* \"#utility.yul\":2735:2746   */\n      0x00\n        /* \"#utility.yul\":2769:2775   */\n      dup3\n        /* \"#utility.yul\":2764:2767   */\n      dup3\n        /* \"#utility.yul\":2757:2776   */\n      mstore\n        /* \"#utility.yul\":2809:2813   */\n      0x20\n        /* \"#utility.yul\":2804:2807   */\n      dup3\n        /* \"#utility.yul\":2800:2814   */\n      add\n        /* \"#utility.yul\":2785:2814   */\n      swap1\n      pop\n        /* \"#utility.yul\":2651:2820   */\n      swap3\n      swap2\n      pop\n      pop\n      jump\t// out\n        /* \"#utility.yul\":2826:2985   */\n    tag_126:\n        /* \"#utility.yul\":2966:2977   */\n      0x6e6f74206f776e65720000000000000000000000000000000000000000000000\n        /* \"#utility.yul\":2962:2963   */\n      0x00\n        /* \"#utility.yul\":2954:2960   */\n      dup3\n        /* \"#utility.yul\":2950:2964   */\n      add\n        /* \"#utility.yul\":2943:2978   */\n      mstore\n        /* \"#utility.yul\":2826:2985   */\n      pop\n      jump\t// out\n        /* \"#utility.yul\":2991:3356   */\n    tag_127:\n        /* \"#utility.yul\":3133:3136   */\n      0x00\n        /* \"#utility.yul\":3154:3220   */\n      tag_200\n        /* \"#utility.yul\":3218:3219   */\n      0x09\n        /* \"#utility.yul\":3213:3216   */\n      dup4\n        /* \"#utility.yul\":3154:3220   */\n      tag_125\n      jump\t// in\n    tag_200:\n        /* \"#utility.yul\":3147:3220   */\n      swap2\n      pop\n        /* \"#utility.yul\":3229:3322   */\n      tag_201\n        /* \"#utility.yul\":3318:3321   */\n      dup3\n        /* \"#utility.yul\":3229:3322   */\n      tag_126\n      jump\t// in\n    tag_201:\n        /* \"#utility.yul\":3347:3349   */\n      0x20\n        /* \"#utility.yul\":3342:3345   */\n      dup3\n        /* \"#utility.yul\":3338:3350   */\n      add\n        /* \"#utility.yul\":3331:3350   */\n      swap1\n      pop\n        /* \"#utility.yul\":2991:3356   */\n      swap2\n      swap1\n      pop\n      jump\t// out\n        /* \"#utility.yul\":3362:3781   */\n    tag_30:\n        /* \"#utility.yul\":3528:3532   */\n      0x00\n        /* \"#utility.yul\":3566:3568   */\n      0x20\n        /* \"#utility.yul\":3555:3564   */\n      dup3\n        /* \"#utility.yul\":3551:3569   */\n      add\n        /* \"#utility.yul\":3543:3569   */\n      swap1\n      pop\n        /* \"#utility.yul\":3615:3624   */\n      dup2\n        /* \"#utility.yul\":3609:3613   */\n      dup2\n        /* \"#utility.yul\":3605:3625   */\n      sub\n        /* \"#utility.yul\":3601:3602   */\n      0x00\n        /* \"#utility.yul\":3590:3599   */\n      dup4\n        /* \"#utility.yul\":3586:3603   */\n      add\n        /* \"#utility.yul\":3579:3626   */\n      mstore\n        /* \"#utility.yul\":3643:3774   */\n      tag_203\n        /* \"#utility.yul\":3769:3773   */\n      dup2\n        /* \"#utility.yul\":3643:3774   */\n      tag_127\n      jump\t// in\n    tag_203:\n        /* \"#utility.yul\":3635:3774   */\n      swap1\n      pop\n        /* \"#utility.yul\":3362:3781   */\n      swap2\n      swap1\n      pop\n      jump\t// out\n        /* \"#utility.yul\":3787:3945   */\n    tag_128:\n        /* \"#utility.yul\":3927:3937   */\n      0x746f6f206d756368000000000000000000000000000000000000000000000000\n        /* \"#utility.yul\":3923:3924   */\n      0x00\n        /* \"#utility.yul\":3915:3921   */\n      dup3\n        /* \"#utility.yul\":3911:3925   */\n      add\n        /* \"#utility.yul\":3904:3938   */\n      mstore\n        /* \"#utility.yul\":3787:3945   */\n      pop\n      jump\t// out\n        /* \"#utility.yul\":3951:4316   */\n    tag_129:\n        /* \"#utility.yul\":4093:4096   */\n      0x00\n        /* \"#utility.yul\":4114:4180   */\n      tag_206\n        /* \"#utility.yul\":4178:4179   */\n      0x08\n        /* \"#utility.yul\":4173:4176   */\n      dup4\n        /* \"#utility.yul\":4114:4180   */\n      tag_125\n      jump\t// in\n    tag_206:\n        /* \"#utility.yul\":4107:4180   */\n      swap2\n      pop\n        /* \"#utility.yul\":4189:4282   */\n      tag_207\n        /* \"#utility.yul\":4278:4281   */\n      dup3\n        /* \"#utility.yul\":4189:4282   */\n      tag_128\n      jump\t// in\n    tag_207:\n        /* \"#utility.yul\":4307:4309   */\n      0x20\n        /* \"#utility.yul\":4302:4305   */\n      dup3\n        /* \"#utility.yul\":4298:4310   */\n      add\n        /* \"#utility.yul\":4291:4310   */\n      swap1\n      pop\n        /* \"#utility.yul\":3951:4316   */\n      swap2\n      swap1\n      pop\n      jump\t// out\n        /* \"#utility.yul\":4322:4741   */\n    tag_34:\n        /* \"#utility.yul\":4488:4492   */\n      0x00\n        /* \"#utility.yul\":4526:4528   */\n      0x20\n        /* \"#utility.yul\":4515:4524   */\n      dup3\n        /* \"#utility.yul\":4511:4529   */\n      add\n        /* \"#utility.yul\":4503:4529   */\n      swap1\n      pop\n        /* \"#utility.yul\":4575:4584   */\n      dup2\n        /* \"#utility.yul\":4569:4573   */\n      dup2\n        /* \"#utility.yul\":4565:4585   */\n      sub\n        /* \"#utility.yul\":4561:4562   */\n      0x00\n        /* \"#utility.yul\":4550:4559   */\n      dup4\n        /* \"#utility.yul\":4546:4563   */\n      add\n        /* \"#utility.yul\":4539:4586   */\n      mstore\n        /* \"#utility.yul\":4603:4734   */\n      tag_209\n        /* \"#utility.yul\":4729:4733   */\n      dup2\n        /* \"#utility.yul\":4603:4734   */\n      tag_129\n      jump\t// in\n    tag_209:\n        /* \"#utility.yul\":4595:4734   */\n      swap1\n      pop\n        /* \"#utility.yul\":4322:4741   */\n      swap2\n      swap1\n      pop\n      jump\t// out\n        /* \"#utility.yul\":4747:4907   */\n    tag_130:\n        /* \"#utility.yul\":4887:4899   */\n      0x7265656e7472616e637900000000000000000000000000000000000000000000\n        /* \"#utility.yul\":4883:4884   */\n      0x00\n        /* \"#utility.yul\":4875:4881   */\n      dup3\n        /* \"#utility.yul\":4871:4885   */\n      add\n        /* \"#utility.yul\":4864:4900   */\n      mstore\n        /* \"#utility.yul\":4747:4907   */\n      pop\n      jump\t// out\n        /* \"#utility.yul\":4913:5279   */\n    tag_131:\n        /* \"#utility.yul\":5055:5058   */\n      0x00\n        /* \"#utility.yul\":5076:5143   */\n      tag_212\n        /* \"#utility.yul\":5140:5142   */\n      0x0a\n        /* \"#utility.yul\":5135:5138   */\n      dup4\n        /* \"#utility.yul\":5076:5143   */\n      tag_125\n      jump\t// in\n    tag_212:\n        /* \"#utility.yul\":5069:5143   */\n      swap2\n      pop\n        /* \"#utility.yul\":5152:5245   */\n      tag_213\n        /* \"#utility.yul\":5241:5244   */\n      dup3\n        /* \"#utility.yul\":5152:5245   */\n      tag_130\n      jump\t// in\n    tag_213:\n        /* \"#utility.yul\":5270:5272   */\n      0x20\n        /* \"#utility.yul\":5265:5268   */\n      dup3\n        /* \"#utility.yul\":5261:5273   */\n      add\n        /* \"#utility.yul\":5254:5273   */\n      swap1\n      pop\n        /* \"#utility.yul\":4913:5279   */\n      swap2\n      swap1\n      pop\n      jump\t// out\n        /* \"#utility.yul\":5285:5704   */\n    tag_40:\n        /* \"#utility.yul\":5451:5455   */\n      0x00\n        /* \"#utility.yul\":5489:5491   */\n      0x20\n        /* \"#utility.yul\":5478:5487   */\n      dup3\n        /* \"#utility.yul\":5474:5492   */\n      add\n        /* \"#utility.yul\":5466:5492   */\n      swap1\n      pop\n        /* \"#utility.yul\":5538:5547   */\n      dup2\n        /* \"#utility.yul\":5532:5536   */\n      dup2\n        /* \"#utility.yul\":5528:5548   */\n      sub\n        /* \"#utility.yul\":5524:5525   */\n      0x00\n        /* \"#utility.yul\":5513:5522   */\n      dup4\n        /* \"#utility.yul\":5509:5526   */\n      add\n        /* \"#utility.yul\":5502:5549   */\n      mstore\n        /* \"#utility.yul\":5566:5697   */\n      tag_215\n        /* \"#utility.yul\":5692:5696   */\n      dup2\n        /* \"#utility.yul\":5566:5697   */\n      tag_131\n      jump\t// in\n    tag_215:\n        /* \"#utility.yul\":5558:5697   */\n      swap1\n      pop\n        /* \"#utility.yul\":5285:5704   */\n      swap2\n      swap1\n      pop\n      jump\t// out\n        /* \"#utility.yul\":5710:5881   */\n    tag_132:\n        /* \"#utility.yul\":5850:5873   */\n      0x6d7573742073656e64204d4f4e20746f20706c61790000000000000000000000\n        /* \"#utility.yul\":5846:5847   */\n      0x00\n        /* \"#utility.yul\":5838:5844   */\n      dup3\n        /* \"#utility.yul\":5834:5848   */\n      add\n        /* \"#utility.yul\":5827:5874   */\n      mstore\n        /* \"#utility.yul\":5710:5881   */\n      pop\n      jump\t// out\n        /* \"#utility.yul\":5887:6253   */\n    tag_133:\n        /* \"#utility.yul\":6029:6032   */\n      0x00\n        /* \"#utility.yul\":6050:6117   */\n      tag_218\n        /* \"#utility.yul\":6114:6116   */\n      0x15\n        /* \"#utility.yul\":6109:6112   */\n      dup4\n        /* \"#utility.yul\":6050:6117   */\n      tag_125\n      jump\t// in\n    tag_218:\n        /* \"#utility.yul\":6043:6117   */\n      swap2\n      pop\n        /* \"#utility.yul\":6126:6219   */\n      tag_219\n        /* \"#utility.yul\":6215:6218   */\n      dup3\n        /* \"#utility.yul\":6126:6219   */\n      tag_132\n      jump\t// in\n    tag_219:\n        /* \"#utility.yul\":6244:6246   */\n      0x20\n        /* \"#utility.yul\":6239:6242   */\n      dup3\n        /* \"#utility.yul\":6235:6247   */\n      add\n        /* \"#utility.yul\":6228:6247   */\n      swap1\n      pop\n        /* \"#utility.yul\":5887:6253   */\n      swap2\n      swap1\n      pop\n      jump\t// out\n        /* \"#utility.yul\":6259:6678   */\n    tag_44:\n        /* \"#utility.yul\":6425:6429   */\n      0x00\n        /* \"#utility.yul\":6463:6465   */\n      0x20\n        /* \"#utility.yul\":6452:6461   */\n      dup3\n        /* \"#utility.yul\":6448:6466   */\n      add\n        /* \"#utility.yul\":6440:6466   */\n      swap1\n      pop\n        /* \"#utility.yul\":6512:6521   */\n      dup2\n        /* \"#utility.yul\":6506:6510   */\n      dup2\n        /* \"#utility.yul\":6502:6522   */\n      sub\n        /* \"#utility.yul\":6498:6499   */\n      0x00\n        /* \"#utility.yul\":6487:6496   */\n      dup4\n        /* \"#utility.yul\":6483:6500   */\n      add\n        /* \"#utility.yul\":6476:6523   */\n      mstore\n        /* \"#utility.yul\":6540:6671   */\n      tag_221\n        /* \"#utility.yul\":6666:6670   */\n      dup2\n        /* \"#utility.yul\":6540:6671   */\n      tag_133\n      jump\t// in\n    tag_221:\n        /* \"#utility.yul\":6532:6671   */\n      swap1\n      pop\n        /* \"#utility.yul\":6259:6678   */\n      swap2\n      swap1\n      pop\n      jump\t// out\n        /* \"#utility.yul\":6684:6846   */\n    tag_134:\n        /* \"#utility.yul\":6824:6838   */\n      0x696e76616c6964206d61696e0000000000000000000000000000000000000000\n        /* \"#utility.yul\":6820:6821   */\n      0x00\n        /* \"#utility.yul\":6812:6818   */\n      dup3\n        /* \"#utility.yul\":6808:6822   */\n      add\n        /* \"#utility.yul\":6801:6839   */\n      mstore\n        /* \"#utility.yul\":6684:6846   */\n      pop\n      jump\t// out\n        /* \"#utility.yul\":6852:7218   */\n    tag_135:\n        /* \"#utility.yul\":6994:6997   */\n      0x00\n        /* \"#utility.yul\":7015:7082   */\n      tag_224\n        /* \"#utility.yul\":7079:7081   */\n      0x0c\n        /* \"#utility.yul\":7074:7077   */\n      dup4\n        /* \"#utility.yul\":7015:7082   */\n      tag_125\n      jump\t// in\n    tag_224:\n        /* \"#utility.yul\":7008:7082   */\n      swap2\n      pop\n        /* \"#utility.yul\":7091:7184   */\n      tag_225\n        /* \"#utility.yul\":7180:7183   */\n      dup3\n        /* \"#utility.yul\":7091:7184   */\n      tag_134\n      jump\t// in\n    tag_225:\n        /* \"#utility.yul\":7209:7211   */\n      0x20\n        /* \"#utility.yul\":7204:7207   */\n      dup3\n        /* \"#utility.yul\":7200:7212   */\n      add\n        /* \"#utility.yul\":7193:7212   */\n      swap1\n      pop\n        /* \"#utility.yul\":6852:7218   */\n      swap2\n      swap1\n      pop\n      jump\t// out\n        /* \"#utility.yul\":7224:7643   */\n    tag_48:\n        /* \"#utility.yul\":7390:7394   */\n      0x00\n        /* \"#utility.yul\":7428:7430   */\n      0x20\n        /* \"#utility.yul\":7417:7426   */\n      dup3\n        /* \"#utility.yul\":7413:7431   */\n      add\n        /* \"#utility.yul\":7405:7431   */\n      swap1\n      pop\n        /* \"#utility.yul\":7477:7486   */\n      dup2\n        /* \"#utility.yul\":7471:7475   */\n      dup2\n        /* \"#utility.yul\":7467:7487   */\n      sub\n        /* \"#utility.yul\":7463:7464   */\n      0x00\n        /* \"#utility.yul\":7452:7461   */\n      dup4\n        /* \"#utility.yul\":7448:7465   */\n      add\n        /* \"#utility.yul\":7441:7488   */\n      mstore\n        /* \"#utility.yul\":7505:7636   */\n      tag_227\n        /* \"#utility.yul\":7631:7635   */\n      dup2\n        /* \"#utility.yul\":7505:7636   */\n      tag_135\n      jump\t// in\n    tag_227:\n        /* \"#utility.yul\":7497:7636   */\n      swap1\n      pop\n        /* \"#utility.yul\":7224:7643   */\n      swap2\n      swap1\n      pop\n      jump\t// out\n        /* \"#utility.yul\":7649:7829   */\n    tag_136:\n        /* \"#utility.yul\":7697:7774   */\n      0x4e487b7100000000000000000000000000000000000000000000000000000000\n        /* \"#utility.yul\":7694:7695   */\n      0x00\n        /* \"#utility.yul\":7687:7775   */\n      mstore\n        /* \"#utility.yul\":7794:7798   */\n      0x11\n        /* \"#utility.yul\":7791:7792   */\n      0x04\n        /* \"#utility.yul\":7784:7799   */\n      mstore\n        /* \"#utility.yul\":7818:7822   */\n      0x24\n        /* \"#utility.yul\":7815:7816   */\n      0x00\n        /* \"#utility.yul\":7808:7823   */\n      revert\n        /* \"#utility.yul\":7835:8245   */\n    tag_50:\n        /* \"#utility.yul\":7875:7882   */\n      0x00\n        /* \"#utility.yul\":7898:7918   */\n      tag_230\n        /* \"#utility.yul\":7916:7917   */\n      dup3\n        /* \"#utility.yul\":7898:7918   */\n      tag_112\n      jump\t// in\n    tag_230:\n        /* \"#utility.yul\":7893:7918   */\n      swap2\n      pop\n        /* \"#utility.yul\":7932:7952   */\n      tag_231\n        /* \"#utility.yul\":7950:7951   */\n      dup4\n        /* \"#utility.yul\":7932:7952   */\n      tag_112\n      jump\t// in\n    tag_231:\n        /* \"#utility.yul\":7927:7952   */\n      swap3\n      pop\n        /* \"#utility.yul\":7987:7988   */\n      dup3\n        /* \"#utility.yul\":7984:7985   */\n      dup3\n        /* \"#utility.yul\":7980:7989   */\n      mul\n        /* \"#utility.yul\":8009:8039   */\n      tag_232\n        /* \"#utility.yul\":8027:8038   */\n      dup2\n        /* \"#utility.yul\":8009:8039   */\n      tag_112\n      jump\t// in\n    tag_232:\n        /* \"#utility.yul\":7998:8039   */\n      swap2\n      pop\n        /* \"#utility.yul\":8188:8189   */\n      dup3\n        /* \"#utility.yul\":8179:8186   */\n      dup3\n        /* \"#utility.yul\":8175:8190   */\n      div\n        /* \"#utility.yul\":8172:8173   */\n      dup5\n        /* \"#utility.yul\":8169:8191   */\n      eq\n        /* \"#utility.yul\":8149:8150   */\n      dup4\n        /* \"#utility.yul\":8142:8151   */\n      iszero\n        /* \"#utility.yul\":8122:8205   */\n      or\n        /* \"#utility.yul\":8099:8238   */\n      tag_233\n      jumpi\n        /* \"#utility.yul\":8218:8236   */\n      tag_234\n      tag_136\n      jump\t// in\n    tag_234:\n        /* \"#utility.yul\":8099:8238   */\n    tag_233:\n        /* \"#utility.yul\":7883:8245   */\n      pop\n        /* \"#utility.yul\":7835:8245   */\n      swap3\n      swap2\n      pop\n      pop\n      jump\t// out\n        /* \"#utility.yul\":8251:8417   */\n    tag_137:\n        /* \"#utility.yul\":8391:8409   */\n      0x62616e6b726f6c6c20746f6f206c6f7700000000000000000000000000000000\n        /* \"#utility.yul\":8387:8388   */\n      0x00\n        /* \"#utility.yul\":8379:8385   */\n      dup3\n        /* \"#utility.yul\":8375:8389   */\n      add\n        /* \"#utility.yul\":8368:8410   */\n      mstore\n        /* \"#utility.yul\":8251:8417   */\n      pop\n      jump\t// out\n        /* \"#utility.yul\":8423:8789   */\n    tag_138:\n        /* \"#utility.yul\":8565:8568   */\n      0x00\n        /* \"#utility.yul\":8586:8653   */\n      tag_237\n        /* \"#utility.yul\":8650:8652   */\n      0x10\n        /* \"#utility.yul\":8645:8648   */\n      dup4\n        /* \"#utility.yul\":8586:8653   */\n      tag_125\n      jump\t// in\n    tag_237:\n        /* \"#utility.yul\":8579:8653   */\n      swap2\n      pop\n        /* \"#utility.yul\":8662:8755   */\n      tag_238\n        /* \"#utility.yul\":8751:8754   */\n      dup3\n        /* \"#utility.yul\":8662:8755   */\n      tag_137\n      jump\t// in\n    tag_238:\n        /* \"#utility.yul\":8780:8782   */\n      0x20\n        /* \"#utility.yul\":8775:8778   */\n      dup3\n        /* \"#utility.yul\":8771:8783   */\n      add\n        /* \"#utility.yul\":8764:8783   */\n      swap1\n      pop\n        /* \"#utility.yul\":8423:8789   */\n      swap2\n      swap1\n      pop\n      jump\t// out\n        /* \"#utility.yul\":8795:9214   */\n    tag_53:\n        /* \"#utility.yul\":8961:8965   */\n      0x00\n        /* \"#utility.yul\":8999:9001   */\n      0x20\n        /* \"#utility.yul\":8988:8997   */\n      dup3\n        /* \"#utility.yul\":8984:9002   */\n      add\n        /* \"#utility.yul\":8976:9002   */\n      swap1\n      pop\n        /* \"#utility.yul\":9048:9057   */\n      dup2\n        /* \"#utility.yul\":9042:9046   */\n      dup2\n        /* \"#utility.yul\":9038:9058   */\n      sub\n        /* \"#utility.yul\":9034:9035   */\n      0x00\n        /* \"#utility.yul\":9023:9032   */\n      dup4\n        /* \"#utility.yul\":9019:9036   */\n      add\n        /* \"#utility.yul\":9012:9059   */\n      mstore\n        /* \"#utility.yul\":9076:9207   */\n      tag_240\n        /* \"#utility.yul\":9202:9206   */\n      dup2\n        /* \"#utility.yul\":9076:9207   */\n      tag_138\n      jump\t// in\n    tag_240:\n        /* \"#utility.yul\":9068:9207   */\n      swap1\n      pop\n        /* \"#utility.yul\":8795:9214   */\n      swap2\n      swap1\n      pop\n      jump\t// out\n        /* \"#utility.yul\":9220:9414   */\n    tag_55:\n        /* \"#utility.yul\":9260:9264   */\n      0x00\n        /* \"#utility.yul\":9280:9300   */\n      tag_242\n        /* \"#utility.yul\":9298:9299   */\n      dup3\n        /* \"#utility.yul\":9280:9300   */\n      tag_112\n      jump\t// in\n    tag_242:\n        /* \"#utility.yul\":9275:9300   */\n      swap2\n      pop\n        /* \"#utility.yul\":9314:9334   */\n      tag_243\n        /* \"#utility.yul\":9332:9333   */\n      dup4\n        /* \"#utility.yul\":9314:9334   */\n      tag_112\n      jump\t// in\n    tag_243:\n        /* \"#utility.yul\":9309:9334   */\n      swap3\n      pop\n        /* \"#utility.yul\":9358:9359   */\n      dup3\n        /* \"#utility.yul\":9355:9356   */\n      dup3\n        /* \"#utility.yul\":9351:9360   */\n      sub\n        /* \"#utility.yul\":9343:9360   */\n      swap1\n      pop\n        /* \"#utility.yul\":9382:9383   */\n      dup2\n        /* \"#utility.yul\":9376:9380   */\n      dup2\n        /* \"#utility.yul\":9373:9384   */\n      gt\n        /* \"#utility.yul\":9370:9407   */\n      iszero\n      tag_244\n      jumpi\n        /* \"#utility.yul\":9387:9405   */\n      tag_245\n      tag_136\n      jump\t// in\n    tag_245:\n        /* \"#utility.yul\":9370:9407   */\n    tag_244:\n        /* \"#utility.yul\":9220:9414   */\n      swap3\n      swap2\n      pop\n      pop\n      jump\t// out\n        /* \"#utility.yul\":9420:9499   */\n    tag_139:\n        /* \"#utility.yul\":9459:9466   */\n      0x00\n        /* \"#utility.yul\":9488:9493   */\n      dup2\n        /* \"#utility.yul\":9477:9493   */\n      swap1\n      pop\n        /* \"#utility.yul\":9420:9499   */\n      swap2\n      swap1\n      pop\n      jump\t// out\n        /* \"#utility.yul\":9505:9662   */\n    tag_140:\n        /* \"#utility.yul\":9610:9655   */\n      tag_248\n        /* \"#utility.yul\":9630:9654   */\n      tag_249\n        /* \"#utility.yul\":9648:9653   */\n      dup3\n        /* \"#utility.yul\":9630:9654   */\n      tag_112\n      jump\t// in\n    tag_249:\n        /* \"#utility.yul\":9610:9655   */\n      tag_139\n      jump\t// in\n    tag_248:\n        /* \"#utility.yul\":9605:9608   */\n      dup3\n        /* \"#utility.yul\":9598:9656   */\n      mstore\n        /* \"#utility.yul\":9505:9662   */\n      pop\n      pop\n      jump\t// out\n        /* \"#utility.yul\":9668:9762   */\n    tag_141:\n        /* \"#utility.yul\":9701:9709   */\n      0x00\n        /* \"#utility.yul\":9749:9754   */\n      dup2\n        /* \"#utility.yul\":9745:9747   */\n      0x60\n        /* \"#utility.yul\":9741:9755   */\n      shl\n        /* \"#utility.yul\":9720:9755   */\n      swap1\n      pop\n        /* \"#utility.yul\":9668:9762   */\n      swap2\n      swap1\n      pop\n      jump\t// out\n        /* \"#utility.yul\":9768:9862   */\n    tag_142:\n        /* \"#utility.yul\":9807:9814   */\n      0x00\n        /* \"#utility.yul\":9836:9856   */\n      tag_252\n        /* \"#utility.yul\":9850:9855   */\n      dup3\n        /* \"#utility.yul\":9836:9856   */\n      tag_141\n      jump\t// in\n    tag_252:\n        /* \"#utility.yul\":9825:9856   */\n      swap1\n      pop\n        /* \"#utility.yul\":9768:9862   */\n      swap2\n      swap1\n      pop\n      jump\t// out\n        /* \"#utility.yul\":9868:9968   */\n    tag_143:\n        /* \"#utility.yul\":9907:9914   */\n      0x00\n        /* \"#utility.yul\":9936:9962   */\n      tag_254\n        /* \"#utility.yul\":9956:9961   */\n      dup3\n        /* \"#utility.yul\":9936:9962   */\n      tag_142\n      jump\t// in\n    tag_254:\n        /* \"#utility.yul\":9925:9962   */\n      swap1\n      pop\n        /* \"#utility.yul\":9868:9968   */\n      swap2\n      swap1\n      pop\n      jump\t// out\n        /* \"#utility.yul\":9974:10131   */\n    tag_144:\n        /* \"#utility.yul\":10079:10124   */\n      tag_256\n        /* \"#utility.yul\":10099:10123   */\n      tag_257\n        /* \"#utility.yul\":10117:10122   */\n      dup3\n        /* \"#utility.yul\":10099:10123   */\n      tag_123\n      jump\t// in\n    tag_257:\n        /* \"#utility.yul\":10079:10124   */\n      tag_143\n      jump\t// in\n    tag_256:\n        /* \"#utility.yul\":10074:10077   */\n      dup3\n        /* \"#utility.yul\":10067:10125   */\n      mstore\n        /* \"#utility.yul\":9974:10131   */\n      pop\n      pop\n      jump\t// out\n        /* \"#utility.yul\":10137:10214   */\n    tag_145:\n        /* \"#utility.yul\":10174:10181   */\n      0x00\n        /* \"#utility.yul\":10203:10208   */\n      dup2\n        /* \"#utility.yul\":10192:10208   */\n      swap1\n      pop\n        /* \"#utility.yul\":10137:10214   */\n      swap2\n      swap1\n      pop\n      jump\t// out\n        /* \"#utility.yul\":10220:10299   */\n    tag_146:\n        /* \"#utility.yul\":10259:10266   */\n      0x00\n        /* \"#utility.yul\":10288:10293   */\n      dup2\n        /* \"#utility.yul\":10277:10293   */\n      swap1\n      pop\n        /* \"#utility.yul\":10220:10299   */\n      swap2\n      swap1\n      pop\n      jump\t// out\n        /* \"#utility.yul\":10305:10462   */\n    tag_147:\n        /* \"#utility.yul\":10410:10455   */\n      tag_261\n        /* \"#utility.yul\":10430:10454   */\n      tag_262\n        /* \"#utility.yul\":10448:10453   */\n      dup3\n        /* \"#utility.yul\":10430:10454   */\n      tag_145\n      jump\t// in\n    tag_262:\n        /* \"#utility.yul\":10410:10455   */\n      tag_146\n      jump\t// in\n    tag_261:\n        /* \"#utility.yul\":10405:10408   */\n      dup3\n        /* \"#utility.yul\":10398:10456   */\n      mstore\n        /* \"#utility.yul\":10305:10462   */\n      pop\n      pop\n      jump\t// out\n        /* \"#utility.yul\":10468:11147   */\n    tag_57:\n        /* \"#utility.yul\":10664:10667   */\n      0x00\n        /* \"#utility.yul\":10679:10754   */\n      tag_264\n        /* \"#utility.yul\":10750:10753   */\n      dup3\n        /* \"#utility.yul\":10741:10747   */\n      dup8\n        /* \"#utility.yul\":10679:10754   */\n      tag_140\n      jump\t// in\n    tag_264:\n        /* \"#utility.yul\":10779:10781   */\n      0x20\n        /* \"#utility.yul\":10774:10777   */\n      dup3\n        /* \"#utility.yul\":10770:10782   */\n      add\n        /* \"#utility.yul\":10763:10782   */\n      swap2\n      pop\n        /* \"#utility.yul\":10792:10867   */\n      tag_265\n        /* \"#utility.yul\":10863:10866   */\n      dup3\n        /* \"#utility.yul\":10854:10860   */\n      dup7\n        /* \"#utility.yul\":10792:10867   */\n      tag_140\n      jump\t// in\n    tag_265:\n        /* \"#utility.yul\":10892:10894   */\n      0x20\n        /* \"#utility.yul\":10887:10890   */\n      dup3\n        /* \"#utility.yul\":10883:10895   */\n      add\n        /* \"#utility.yul\":10876:10895   */\n      swap2\n      pop\n        /* \"#utility.yul\":10905:10980   */\n      tag_266\n        /* \"#utility.yul\":10976:10979   */\n      dup3\n        /* \"#utility.yul\":10967:10973   */\n      dup6\n        /* \"#utility.yul\":10905:10980   */\n      tag_144\n      jump\t// in\n    tag_266:\n        /* \"#utility.yul\":11005:11007   */\n      0x14\n        /* \"#utility.yul\":11000:11003   */\n      dup3\n        /* \"#utility.yul\":10996:11008   */\n      add\n        /* \"#utility.yul\":10989:11008   */\n      swap2\n      pop\n        /* \"#utility.yul\":11018:11093   */\n      tag_267\n        /* \"#utility.yul\":11089:11092   */\n      dup3\n        /* \"#utility.yul\":11080:11086   */\n      dup5\n        /* \"#utility.yul\":11018:11093   */\n      tag_147\n      jump\t// in\n    tag_267:\n        /* \"#utility.yul\":11118:11120   */\n      0x20\n        /* \"#utility.yul\":11113:11116   */\n      dup3\n        /* \"#utility.yul\":11109:11121   */\n      add\n        /* \"#utility.yul\":11102:11121   */\n      swap2\n      pop\n        /* \"#utility.yul\":11138:11141   */\n      dup2\n        /* \"#utility.yul\":11131:11141   */\n      swap1\n      pop\n        /* \"#utility.yul\":10468:11147   */\n      swap6\n      swap5\n      pop\n      pop\n      pop\n      pop\n      pop\n      jump\t// out\n        /* \"#utility.yul\":11153:11550   */\n    tag_62:\n        /* \"#utility.yul\":11293:11296   */\n      0x00\n        /* \"#utility.yul\":11308:11383   */\n      tag_269\n        /* \"#utility.yul\":11379:11382   */\n      dup3\n        /* \"#utility.yul\":11370:11376   */\n      dup6\n        /* \"#utility.yul\":11308:11383   */\n      tag_147\n      jump\t// in\n    tag_269:\n        /* \"#utility.yul\":11408:11410   */\n      0x20\n        /* \"#utility.yul\":11403:11406   */\n      dup3\n        /* \"#utility.yul\":11399:11411   */\n      add\n        /* \"#utility.yul\":11392:11411   */\n      swap2\n      pop\n        /* \"#utility.yul\":11421:11496   */\n      tag_270\n        /* \"#utility.yul\":11492:11495   */\n      dup3\n        /* \"#utility.yul\":11483:11489   */\n      dup5\n        /* \"#utility.yul\":11421:11496   */\n      tag_140\n      jump\t// in\n    tag_270:\n        /* \"#utility.yul\":11521:11523   */\n      0x20\n        /* \"#utility.yul\":11516:11519   */\n      dup3\n        /* \"#utility.yul\":11512:11524   */\n      add\n        /* \"#utility.yul\":11505:11524   */\n      swap2\n      pop\n        /* \"#utility.yul\":11541:11544   */\n      dup2\n        /* \"#utility.yul\":11534:11544   */\n      swap1\n      pop\n        /* \"#utility.yul\":11153:11550   */\n      swap4\n      swap3\n      pop\n      pop\n      pop\n      jump\t// out\n        /* \"#utility.yul\":11556:11736   */\n    tag_148:\n        /* \"#utility.yul\":11604:11681   */\n      0x4e487b7100000000000000000000000000000000000000000000000000000000\n        /* \"#utility.yul\":11601:11602   */\n      0x00\n        /* \"#utility.yul\":11594:11682   */\n      mstore\n        /* \"#utility.yul\":11701:11705   */\n      0x12\n        /* \"#utility.yul\":11698:11699   */\n      0x04\n        /* \"#utility.yul\":11691:11706   */\n      mstore\n        /* \"#utility.yul\":11725:11729   */\n      0x24\n        /* \"#utility.yul\":11722:11723   */\n      0x00\n        /* \"#utility.yul\":11715:11730   */\n      revert\n        /* \"#utility.yul\":11742:11918   */\n    tag_64:\n        /* \"#utility.yul\":11774:11775   */\n      0x00\n        /* \"#utility.yul\":11791:11811   */\n      tag_273\n        /* \"#utility.yul\":11809:11810   */\n      dup3\n        /* \"#utility.yul\":11791:11811   */\n      tag_112\n      jump\t// in\n    tag_273:\n        /* \"#utility.yul\":11786:11811   */\n      swap2\n      pop\n        /* \"#utility.yul\":11825:11845   */\n      tag_274\n        /* \"#utility.yul\":11843:11844   */\n      dup4\n        /* \"#utility.yul\":11825:11845   */\n      tag_112\n      jump\t// in\n    tag_274:\n        /* \"#utility.yul\":11820:11845   */\n      swap3\n      pop\n        /* \"#utility.yul\":11864:11865   */\n      dup3\n        /* \"#utility.yul\":11854:11889   */\n      tag_275\n      jumpi\n        /* \"#utility.yul\":11869:11887   */\n      tag_276\n      tag_148\n      jump\t// in\n    tag_276:\n        /* \"#utility.yul\":11854:11889   */\n    tag_275:\n        /* \"#utility.yul\":11910:11911   */\n      dup3\n        /* \"#utility.yul\":11907:11908   */\n      dup3\n        /* \"#utility.yul\":11903:11912   */\n      mod\n        /* \"#utility.yul\":11898:11912   */\n      swap1\n      pop\n        /* \"#utility.yul\":11742:11918   */\n      swap3\n      swap2\n      pop\n      pop\n      jump\t// out\n        /* \"#utility.yul\":11924:12112   */\n    tag_66:\n        /* \"#utility.yul\":11962:11965   */\n      0x00\n        /* \"#utility.yul\":11981:11999   */\n      tag_278\n        /* \"#utility.yul\":11997:11998   */\n      dup3\n        /* \"#utility.yul\":11981:11999   */\n      tag_119\n      jump\t// in\n    tag_278:\n        /* \"#utility.yul\":11976:11999   */\n      swap2\n      pop\n        /* \"#utility.yul\":12013:12031   */\n      tag_279\n        /* \"#utility.yul\":12029:12030   */\n      dup4\n        /* \"#utility.yul\":12013:12031   */\n      tag_119\n      jump\t// in\n    tag_279:\n        /* \"#utility.yul\":12008:12031   */\n      swap3\n      pop\n        /* \"#utility.yul\":12054:12055   */\n      dup3\n        /* \"#utility.yul\":12051:12052   */\n      dup3\n        /* \"#utility.yul\":12047:12056   */\n      add\n        /* \"#utility.yul\":12040:12056   */\n      swap1\n      pop\n        /* \"#utility.yul\":12077:12081   */\n      0xff\n        /* \"#utility.yul\":12072:12075   */\n      dup2\n        /* \"#utility.yul\":12069:12082   */\n      gt\n        /* \"#utility.yul\":12066:12105   */\n      iszero\n      tag_280\n      jumpi\n        /* \"#utility.yul\":12085:12103   */\n      tag_281\n      tag_136\n      jump\t// in\n    tag_281:\n        /* \"#utility.yul\":12066:12105   */\n    tag_280:\n        /* \"#utility.yul\":11924:12112   */\n      swap3\n      swap2\n      pop\n      pop\n      jump\t// out\n        /* \"#utility.yul\":12118:12214   */\n    tag_149:\n        /* \"#utility.yul\":12152:12160   */\n      0x00\n        /* \"#utility.yul\":12201:12206   */\n      dup2\n        /* \"#utility.yul\":12196:12199   */\n      0xf8\n        /* \"#utility.yul\":12192:12207   */\n      shl\n        /* \"#utility.yul\":12171:12207   */\n      swap1\n      pop\n        /* \"#utility.yul\":12118:12214   */\n      swap2\n      swap1\n      pop\n      jump\t// out\n        /* \"#utility.yul\":12220:12313   */\n    tag_150:\n        /* \"#utility.yul\":12257:12264   */\n      0x00\n        /* \"#utility.yul\":12286:12307   */\n      tag_284\n        /* \"#utility.yul\":12301:12306   */\n      dup3\n        /* \"#utility.yul\":12286:12307   */\n      tag_149\n      jump\t// in\n    tag_284:\n        /* \"#utility.yul\":12275:12307   */\n      swap1\n      pop\n        /* \"#utility.yul\":12220:12313   */\n      swap2\n      swap1\n      pop\n      jump\t// out\n        /* \"#utility.yul\":12319:12468   */\n    tag_151:\n        /* \"#utility.yul\":12420:12461   */\n      tag_286\n        /* \"#utility.yul\":12438:12460   */\n      tag_287\n        /* \"#utility.yul\":12454:12459   */\n      dup3\n        /* \"#utility.yul\":12438:12460   */\n      tag_119\n      jump\t// in\n    tag_287:\n        /* \"#utility.yul\":12420:12461   */\n      tag_150\n      jump\t// in\n    tag_286:\n        /* \"#utility.yul\":12415:12418   */\n      dup3\n        /* \"#utility.yul\":12408:12462   */\n      mstore\n        /* \"#utility.yul\":12319:12468   */\n      pop\n      pop\n      jump\t// out\n        /* \"#utility.yul\":12474:13003   */\n    tag_68:\n        /* \"#utility.yul\":12638:12641   */\n      0x00\n        /* \"#utility.yul\":12653:12728   */\n      tag_289\n        /* \"#utility.yul\":12724:12727   */\n      dup3\n        /* \"#utility.yul\":12715:12721   */\n      dup7\n        /* \"#utility.yul\":12653:12728   */\n      tag_147\n      jump\t// in\n    tag_289:\n        /* \"#utility.yul\":12753:12755   */\n      0x20\n        /* \"#utility.yul\":12748:12751   */\n      dup3\n        /* \"#utility.yul\":12744:12756   */\n      add\n        /* \"#utility.yul\":12737:12756   */\n      swap2\n      pop\n        /* \"#utility.yul\":12766:12841   */\n      tag_290\n        /* \"#utility.yul\":12837:12840   */\n      dup3\n        /* \"#utility.yul\":12828:12834   */\n      dup6\n        /* \"#utility.yul\":12766:12841   */\n      tag_140\n      jump\t// in\n    tag_290:\n        /* \"#utility.yul\":12866:12868   */\n      0x20\n        /* \"#utility.yul\":12861:12864   */\n      dup3\n        /* \"#utility.yul\":12857:12869   */\n      add\n        /* \"#utility.yul\":12850:12869   */\n      swap2\n      pop\n        /* \"#utility.yul\":12879:12950   */\n      tag_291\n        /* \"#utility.yul\":12946:12949   */\n      dup3\n        /* \"#utility.yul\":12937:12943   */\n      dup5\n        /* \"#utility.yul\":12879:12950   */\n      tag_151\n      jump\t// in\n    tag_291:\n        /* \"#utility.yul\":12975:12976   */\n      0x01\n        /* \"#utility.yul\":12970:12973   */\n      dup3\n        /* \"#utility.yul\":12966:12977   */\n      add\n        /* \"#utility.yul\":12959:12977   */\n      swap2\n      pop\n        /* \"#utility.yul\":12994:12997   */\n      dup2\n        /* \"#utility.yul\":12987:12997   */\n      swap1\n      pop\n        /* \"#utility.yul\":12474:13003   */\n      swap5\n      swap4\n      pop\n      pop\n      pop\n      pop\n      jump\t// out\n        /* \"#utility.yul\":13009:13242   */\n    tag_91:\n        /* \"#utility.yul\":13048:13051   */\n      0x00\n        /* \"#utility.yul\":13071:13095   */\n      tag_293\n        /* \"#utility.yul\":13089:13094   */\n      dup3\n        /* \"#utility.yul\":13071:13095   */\n      tag_112\n      jump\t// in\n    tag_293:\n        /* \"#utility.yul\":13062:13095   */\n      swap2\n      pop\n        /* \"#utility.yul\":13117:13183   */\n      0xffffffffffffffffffffffffffffffffffffffffffffffffffffffffffffffff\n        /* \"#utility.yul\":13110:13115   */\n      dup3\n        /* \"#utility.yul\":13107:13184   */\n      sub\n        /* \"#utility.yul\":13104:13207   */\n      tag_294\n      jumpi\n        /* \"#utility.yul\":13187:13205   */\n      tag_295\n      tag_136\n      jump\t// in\n    tag_295:\n        /* \"#utility.yul\":13104:13207   */\n    tag_294:\n        /* \"#utility.yul\":13234:13235   */\n      0x01\n        /* \"#utility.yul\":13227:13232   */\n      dup3\n        /* \"#utility.yul\":13223:13236   */\n      add\n        /* \"#utility.yul\":13216:13236   */\n      swap1\n      pop\n        /* \"#utility.yul\":13009:13242   */\n      swap2\n      swap1\n      pop\n      jump\t// out\n        /* \"#utility.yul\":13248:13395   */\n    tag_152:\n        /* \"#utility.yul\":13349:13360   */\n      0x00\n        /* \"#utility.yul\":13386:13389   */\n      dup2\n        /* \"#utility.yul\":13371:13389   */\n      swap1\n      pop\n        /* \"#utility.yul\":13248:13395   */\n      swap3\n      swap2\n      pop\n      pop\n      jump\t// out\n        /* \"#utility.yul\":13401:13515   */\n    tag_153:\n      pop\n      jump\t// out\n        /* \"#utility.yul\":13521:13919   */\n    tag_154:\n        /* \"#utility.yul\":13680:13683   */\n      0x00\n        /* \"#utility.yul\":13701:13784   */\n      tag_299\n        /* \"#utility.yul\":13782:13783   */\n      0x00\n        /* \"#utility.yul\":13777:13780   */\n      dup4\n        /* \"#utility.yul\":13701:13784   */\n      tag_152\n      jump\t// in\n    tag_299:\n        /* \"#utility.yul\":13694:13784   */\n      swap2\n      pop\n        /* \"#utility.yul\":13793:13886   */\n      tag_300\n        /* \"#utility.yul\":13882:13885   */\n      dup3\n        /* \"#utility.yul\":13793:13886   */\n      tag_153\n      jump\t// in\n    tag_300:\n        /* \"#utility.yul\":13911:13912   */\n      0x00\n        /* \"#utility.yul\":13906:13909   */\n      dup3\n        /* \"#utility.yul\":13902:13913   */\n      add\n        /* \"#utility.yul\":13895:13913   */\n      swap1\n      pop\n        /* \"#utility.yul\":13521:13919   */\n      swap2\n      swap1\n      pop\n      jump\t// out\n        /* \"#utility.yul\":13925:14304   */\n    tag_97:\n        /* \"#utility.yul\":14109:14112   */\n      0x00\n        /* \"#utility.yul\":14131:14278   */\n      tag_302\n        /* \"#utility.yul\":14274:14277   */\n      dup3\n        /* \"#utility.yul\":14131:14278   */\n      tag_154\n      jump\t// in\n    tag_302:\n        /* \"#utility.yul\":14124:14278   */\n      swap2\n      pop\n        /* \"#utility.yul\":14295:14298   */\n      dup2\n        /* \"#utility.yul\":14288:14298   */\n      swap1\n      pop\n        /* \"#utility.yul\":13925:14304   */\n      swap2\n      swap1\n      pop\n      jump\t// out\n        /* \"#utility.yul\":14310:14473   */\n    tag_155:\n        /* \"#utility.yul\":14450:14465   */\n      0x7061796f7574206661696c656400000000000000000000000000000000000000\n        /* \"#utility.yul\":14446:14447   */\n      0x00\n        /* \"#utility.yul\":14438:14444   */\n      dup3\n        /* \"#utility.yul\":14434:14448   */\n      add\n        /* \"#utility.yul\":14427:14466   */\n      mstore\n        /* \"#utility.yul\":14310:14473   */\n      pop\n      jump\t// out\n        /* \"#utility.yul\":14479:14845   */\n    tag_156:\n        /* \"#utility.yul\":14621:14624   */\n      0x00\n        /* \"#utility.yul\":14642:14709   */\n      tag_305\n        /* \"#utility.yul\":14706:14708   */\n      0x0d\n        /* \"#utility.yul\":14701:14704   */\n      dup4\n        /* \"#utility.yul\":14642:14709   */\n      tag_125\n      jump\t// in\n    tag_305:\n        /* \"#utility.yul\":14635:14709   */\n      swap2\n      pop\n        /* \"#utility.yul\":14718:14811   */\n      tag_306\n        /* \"#utility.yul\":14807:14810   */\n      dup3\n        /* \"#utility.yul\":14718:14811   */\n      tag_155\n      jump\t// in\n    tag_306:\n        /* \"#utility.yul\":14836:14838   */\n      0x20\n        /* \"#utility.yul\":14831:14834   */\n      dup3\n        /* \"#utility.yul\":14827:14839   */\n      add\n        /* \"#utility.yul\":14820:14839   */\n      swap1\n      pop\n        /* \"#utility.yul\":14479:14845   */\n      swap2\n      swap1\n      pop\n      jump\t// out\n        /* \"#utility.yul\":14851:15270   */\n    tag_103:\n        /* \"#utility.yul\":15017:15021   */\n      0x00\n        /* \"#utility.yul\":15055:15057   */\n      0x20\n        /* \"#utility.yul\":15044:15053   */\n      dup3\n        /* \"#utility.yul\":15040:15058   */\n      add\n        /* \"#utility.yul\":15032:15058   */\n      swap1\n      pop\n        /* \"#utility.yul\":15104:15113   */\n      dup2\n        /* \"#utility.yul\":15098:15102   */\n      dup2\n        /* \"#utility.yul\":15094:15114   */\n      sub\n        /* \"#utility.yul\":15090:15091   */\n      0x00\n        /* \"#utility.yul\":15079:15088   */\n      dup4\n        /* \"#utility.yul\":15075:15092   */\n      add\n        /* \"#utility.yul\":15068:15115   */\n      mstore\n        /* \"#utility.yul\":15132:15263   */\n      tag_308\n        /* \"#utility.yul\":15258:15262   */\n      dup2\n        /* \"#utility.yul\":15132:15263   */\n      tag_156\n      jump\t// in\n    tag_308:\n        /* \"#utility.yul\":15124:15263   */\n      swap1\n      pop\n        /* \"#utility.yul\":14851:15270   */\n      swap2\n      swap1\n      pop\n      jump\t// out\n        /* \"#utility.yul\":15276:15366   */\n    tag_157:\n        /* \"#utility.yul\":15310:15317   */\n      0x00\n        /* \"#utility.yul\":15353:15358   */\n      dup2\n        /* \"#utility.yul\":15346:15359   */\n      iszero\n        /* \"#utility.yul\":15339:15360   */\n      iszero\n        /* \"#utility.yul\":15328:15360   */\n      swap1\n      pop\n        /* \"#utility.yul\":15276:15366   */\n      swap2\n      swap1\n      pop\n      jump\t// out\n        /* \"#utility.yul\":15372:15481   */\n    tag_158:\n        /* \"#utility.yul\":15453:15474   */\n      tag_311\n        /* \"#utility.yul\":15468:15473   */\n      dup2\n        /* \"#utility.yul\":15453:15474   */\n      tag_157\n      jump\t// in\n    tag_311:\n        /* \"#utility.yul\":15448:15451   */\n      dup3\n        /* \"#utility.yul\":15441:15475   */\n      mstore\n        /* \"#utility.yul\":15372:15481   */\n      pop\n      pop\n      jump\t// out\n        /* \"#utility.yul\":15487:15599   */\n    tag_159:\n        /* \"#utility.yul\":15570:15592   */\n      tag_313\n        /* \"#utility.yul\":15586:15591   */\n      dup2\n        /* \"#utility.yul\":15570:15592   */\n      tag_119\n      jump\t// in\n    tag_313:\n        /* \"#utility.yul\":15565:15568   */\n      dup3\n        /* \"#utility.yul\":15558:15593   */\n      mstore\n        /* \"#utility.yul\":15487:15599   */\n      pop\n      pop\n      jump\t// out\n        /* \"#utility.yul\":15605:16344   */\n    tag_106:\n        /* \"#utility.yul\":15820:15824   */\n      0x00\n        /* \"#utility.yul\":15858:15861   */\n      0xc0\n        /* \"#utility.yul\":15847:15856   */\n      dup3\n        /* \"#utility.yul\":15843:15862   */\n      add\n        /* \"#utility.yul\":15835:15862   */\n      swap1\n      pop\n        /* \"#utility.yul\":15872:15943   */\n      tag_315\n        /* \"#utility.yul\":15940:15941   */\n      0x00\n        /* \"#utility.yul\":15929:15938   */\n      dup4\n        /* \"#utility.yul\":15925:15942   */\n      add\n        /* \"#utility.yul\":15916:15922   */\n      dup10\n        /* \"#utility.yul\":15872:15943   */\n      tag_113\n      jump\t// in\n    tag_315:\n        /* \"#utility.yul\":15953:16019   */\n      tag_316\n        /* \"#utility.yul\":16015:16017   */\n      0x20\n        /* \"#utility.yul\":16004:16013   */\n      dup4\n        /* \"#utility.yul\":16000:16018   */\n      add\n        /* \"#utility.yul\":15991:15997   */\n      dup9\n        /* \"#utility.yul\":15953:16019   */\n      tag_158\n      jump\t// in\n    tag_316:\n        /* \"#utility.yul\":16029:16097   */\n      tag_317\n        /* \"#utility.yul\":16093:16095   */\n      0x40\n        /* \"#utility.yul\":16082:16091   */\n      dup4\n        /* \"#utility.yul\":16078:16096   */\n      add\n        /* \"#utility.yul\":16069:16075   */\n      dup8\n        /* \"#utility.yul\":16029:16097   */\n      tag_159\n      jump\t// in\n    tag_317:\n        /* \"#utility.yul\":16107:16175   */\n      tag_318\n        /* \"#utility.yul\":16171:16173   */\n      0x60\n        /* \"#utility.yul\":16160:16169   */\n      dup4\n        /* \"#utility.yul\":16156:16174   */\n      add\n        /* \"#utility.yul\":16147:16153   */\n      dup7\n        /* \"#utility.yul\":16107:16175   */\n      tag_159\n      jump\t// in\n    tag_318:\n        /* \"#utility.yul\":16185:16254   */\n      tag_319\n        /* \"#utility.yul\":16249:16252   */\n      0x80\n        /* \"#utility.yul\":16238:16247   */\n      dup4\n        /* \"#utility.yul\":16234:16253   */\n      add\n        /* \"#utility.yul\":16225:16231   */\n      dup6\n        /* \"#utility.yul\":16185:16254   */\n      tag_159\n      jump\t// in\n    tag_319:\n        /* \"#utility.yul\":16264:16337   */\n      tag_320\n        /* \"#utility.yul\":16332:16335   */\n      0xa0\n        /* \"#utility.yul\":16321:16330   */\n      dup4\n        /* \"#utility.yul\":16317:16336   */\n      add\n        /* \"#utility.yul\":16308:16314   */\n      dup5\n        /* \"#utility.yul\":16264:16337   */\n      tag_113\n      jump\t// in\n    tag_320:\n        /* \"#utility.yul\":15605:16344   */\n      swap8\n      swap7\n      pop\n      pop\n      pop\n      pop\n      pop\n      pop\n      pop\n      jump\t// out\n        /* \"#utility.yul\":16350:16513   */\n    tag_160:\n        /* \"#utility.yul\":16490:16505   */\n      0x6d7573742073656e64204d4f4e00000000000000000000000000000000000000\n        /* \"#utility.yul\":16486:16487   */\n      0x00\n        /* \"#utility.yul\":16478:16484   */\n      dup3\n        /* \"#utility.yul\":16474:16488   */\n      add\n        /* \"#utility.yul\":16467:16506   */\n      mstore\n        /* \"#utility.yul\":16350:16513   */\n      pop\n      jump\t// out\n        /* \"#utility.yul\":16519:16885   */\n    tag_161:\n        /* \"#utility.yul\":16661:16664   */\n      0x00\n        /* \"#utility.yul\":16682:16749   */\n      tag_323\n        /* \"#utility.yul\":16746:16748   */\n      0x0d\n        /* \"#utility.yul\":16741:16744   */\n      dup4\n        /* \"#utility.yul\":16682:16749   */\n      tag_125\n      jump\t// in\n    tag_323:\n        /* \"#utility.yul\":16675:16749   */\n      swap2\n      pop\n        /* \"#utility.yul\":16758:16851   */\n      tag_324\n        /* \"#utility.yul\":16847:16850   */\n      dup3\n        /* \"#utility.yul\":16758:16851   */\n      tag_160\n      jump\t// in\n    tag_324:\n        /* \"#utility.yul\":16876:16878   */\n      0x20\n        /* \"#utility.yul\":16871:16874   */\n      dup3\n        /* \"#utility.yul\":16867:16879   */\n      add\n        /* \"#utility.yul\":16860:16879   */\n      swap1\n      pop\n        /* \"#utility.yul\":16519:16885   */\n      swap2\n      swap1\n      pop\n      jump\t// out\n        /* \"#utility.yul\":16891:17310   */\n    tag_110:\n        /* \"#utility.yul\":17057:17061   */\n      0x00\n        /* \"#utility.yul\":17095:17097   */\n      0x20\n        /* \"#utility.yul\":17084:17093   */\n      dup3\n        /* \"#utility.yul\":17080:17098   */\n      add\n        /* \"#utility.yul\":17072:17098   */\n      swap1\n      pop\n        /* \"#utility.yul\":17144:17153   */\n      dup2\n        /* \"#utility.yul\":17138:17142   */\n      dup2\n        /* \"#utility.yul\":17134:17154   */\n      sub\n        /* \"#utility.yul\":17130:17131   */\n      0x00\n        /* \"#utility.yul\":17119:17128   */\n      dup4\n        /* \"#utility.yul\":17115:17132   */\n      add\n        /* \"#utility.yul\":17108:17155   */\n      mstore\n        /* \"#utility.yul\":17172:17303   */\n      tag_326\n        /* \"#utility.yul\":17298:17302   */\n      dup2\n        /* \"#utility.yul\":17172:17303   */\n      tag_161\n      jump\t// in\n    tag_326:\n        /* \"#utility.yul\":17164:17303   */\n      swap1\n      pop\n        /* \"#utility.yul\":16891:17310   */\n      swap2\n      swap1\n      pop\n      jump\t// out\n\n    auxdata: 0xa2646970667358221220d05beee07f55ee7855d38f38d4e7cd795d151ba8c5ccb91ec3698ad645f3d1ae64736f6c634300081e0033\n}\n",
				"bytecode": {
					"linkReferences": {},
					"object": "6080604052335f5f6101000a81548173ffffffffffffffffffffffffffffffffffffffff021916908373ffffffffffffffffffffffffffffffffffffffff160217905550611031806100505f395ff3fe608060405260043610610042575f3560e01c80632e1a7d4d1461009b57806353a04b05146100c35780638da5cb5b146100df578063b60d42881461010957610097565b36610097573373ffffffffffffffffffffffffffffffffffffffff167f5af8184bef8e4b45eb9f6ed7734d04da38ced226495548f46e0c8ff8d7d9a5243460405161008d91906107c8565b60405180910390a2005b5f5ffd5b3480156100a6575f5ffd5b506100c160048036038101906100bc919061080f565b610113565b005b6100dd60048036038101906100d89190610870565b61024b565b005b3480156100ea575f5ffd5b506100f36106fa565b60405161010091906108da565b60405180910390f35b61011161071e565b005b5f5f9054906101000a900473ffffffffffffffffffffffffffffffffffffffff1673ffffffffffffffffffffffffffffffffffffffff163373ffffffffffffffffffffffffffffffffffffffff16146101a1576040517f08c379a00000000000000000000000000000000000000000000000000000000081526004016101989061094d565b60405180910390fd5b478111156101e4576040517f08c379a00000000000000000000000000000000000000000000000000000000081526004016101db906109b5565b60405180910390fd5b5f5f9054906101000a900473ffffffffffffffffffffffffffffffffffffffff1673ffffffffffffffffffffffffffffffffffffffff166108fc8290811502906040515f60405180830381858888f19350505050158015610247573d5f5f3e3d5ffd5b5050565b5f60149054906101000a900460ff161561029a576040517f08c379a000000000000000000000000000000000000000000000000000000000815260040161029190610a1d565b60405180910390fd5b60015f60146101000a81548160ff0219169083151502179055505f34116102f6576040517f08c379a00000000000000000000000000000000000000000000000000000000081526004016102ed90610a85565b60405180910390fd5b60058160ff161015801561030e575060098160ff1611155b61034d576040517f08c379a000000000000000000000000000000000000000000000000000000000815260040161034490610aed565b60405180910390fd5b60023461035a9190610b38565b47101561039c576040517f08c379a000000000000000000000000000000000000000000000000000000000815260040161039390610bc3565b60405180910390fd5b5f3490505f5f90505f5f90505f5f90505f5f90505f4244336001436103c19190610be1565b406040516020016103d59493929190610ca2565b6040516020818303038152906040528051906020012090505f5f90505f606490505b8515801561040457508082105b156105a457828260405160200161041c929190610cef565b6040516020818303038152906040528051906020012092505f60016006855f1c6104469190610d47565b6104509190610d77565b905083838260405160200161046793929190610ddf565b6040516020818303038152906040528051906020012093505f60016006865f1c6104919190610d47565b61049b9190610d77565b905080826104a99190610d77565b95505f8960ff160361055e578a60ff168660ff16036104cf576001965060019750610559565b60028660ff1614806104e4575060038660ff16145b156104f5575f965060019750610558565b600b8660ff16148061050a5750600c8660ff16145b156105535760078b60ff1603610522575f965061054a565b60058b60ff161480610537575060098b60ff16145b156105455760019650610549565b5f96505b5b60019750610557565b8598505b5b5b61058f565b8860ff168660ff160361057857600196506001975061058e565b8a60ff168660ff160361058d575f9650600197505b5b5b838061059a90610e1b565b94505050506103f7565b856105ad575f94505b841561067e575f6002896105c19190610b38565b9050804710610678575f3373ffffffffffffffffffffffffffffffffffffffff16826040516105ef90610e8f565b5f6040518083038185875af1925050503d805f8114610629576040519150601f19603f3d011682016040523d82523d5f602084013e61062e565b606091505b5050905080610672576040517f08c379a000000000000000000000000000000000000000000000000000000000815260040161066990610eed565b60405180910390fd5b5061067c565b5f95505b505b3373ffffffffffffffffffffffffffffffffffffffff167f0bd3a518165ff9e7aa8e3bdec8acf19e682cee03800411ca5b4cc47829ee73fe89878c888c886040516106ce96959493929190610f34565b60405180910390a250505050505050505f5f60146101000a81548160ff02191690831515021790555050565b5f5f9054906101000a900473ffffffffffffffffffffffffffffffffffffffff1681565b5f3411610760576040517f08c379a000000000000000000000000000000000000000000000000000000000815260040161075790610fdd565b60405180910390fd5b3373ffffffffffffffffffffffffffffffffffffffff167f5af8184bef8e4b45eb9f6ed7734d04da38ced226495548f46e0c8ff8d7d9a524346040516107a691906107c8565b60405180910390a2565b5f819050919050565b6107c2816107b0565b82525050565b5f6020820190506107db5f8301846107b9565b92915050565b5f5ffd5b6107ee816107b0565b81146107f8575f5ffd5b50565b5f81359050610809816107e5565b92915050565b5f60208284031215610824576108236107e1565b5b5f610831848285016107fb565b91505092915050565b5f60ff82169050919050565b61084f8161083a565b8114610859575f5ffd5b50565b5f8135905061086a81610846565b92915050565b5f60208284031215610885576108846107e1565b5b5f6108928482850161085c565b91505092915050565b5f73ffffffffffffffffffffffffffffffffffffffff82169050919050565b5f6108c48261089b565b9050919050565b6108d4816108ba565b82525050565b5f6020820190506108ed5f8301846108cb565b92915050565b5f82825260208201905092915050565b7f6e6f74206f776e657200000000000000000000000000000000000000000000005f82015250565b5f6109376009836108f3565b915061094282610903565b602082019050919050565b5f6020820190508181035f8301526109648161092b565b9050919050565b7f746f6f206d7563680000000000000000000000000000000000000000000000005f82015250565b5f61099f6008836108f3565b91506109aa8261096b565b602082019050919050565b5f6020820190508181035f8301526109cc81610993565b9050919050565b7f7265656e7472616e6379000000000000000000000000000000000000000000005f82015250565b5f610a07600a836108f3565b9150610a12826109d3565b602082019050919050565b5f6020820190508181035f830152610a34816109fb565b9050919050565b7f6d7573742073656e64204d4f4e20746f20706c617900000000000000000000005f82015250565b5f610a6f6015836108f3565b9150610a7a82610a3b565b602082019050919050565b5f6020820190508181035f830152610a9c81610a63565b9050919050565b7f696e76616c6964206d61696e00000000000000000000000000000000000000005f82015250565b5f610ad7600c836108f3565b9150610ae282610aa3565b602082019050919050565b5f6020820190508181035f830152610b0481610acb565b9050919050565b7f4e487b71000000000000000000000000000000000000000000000000000000005f52601160045260245ffd5b5f610b42826107b0565b9150610b4d836107b0565b9250828202610b5b816107b0565b91508282048414831517610b7257610b71610b0b565b5b5092915050565b7f62616e6b726f6c6c20746f6f206c6f77000000000000000000000000000000005f82015250565b5f610bad6010836108f3565b9150610bb882610b79565b602082019050919050565b5f6020820190508181035f830152610bda81610ba1565b9050919050565b5f610beb826107b0565b9150610bf6836107b0565b9250828203905081811115610c0e57610c0d610b0b565b5b92915050565b5f819050919050565b610c2e610c29826107b0565b610c14565b82525050565b5f8160601b9050919050565b5f610c4a82610c34565b9050919050565b5f610c5b82610c40565b9050919050565b610c73610c6e826108ba565b610c51565b82525050565b5f819050919050565b5f819050919050565b610c9c610c9782610c79565b610c82565b82525050565b5f610cad8287610c1d565b602082019150610cbd8286610c1d565b602082019150610ccd8285610c62565b601482019150610cdd8284610c8b565b60208201915081905095945050505050565b5f610cfa8285610c8b565b602082019150610d0a8284610c1d565b6020820191508190509392505050565b7f4e487b71000000000000000000000000000000000000000000000000000000005f52601260045260245ffd5b5f610d51826107b0565b9150610d5c836107b0565b925082610d6c57610d6b610d1a565b5b828206905092915050565b5f610d818261083a565b9150610d8c8361083a565b9250828201905060ff811115610da557610da4610b0b565b5b92915050565b5f8160f81b9050919050565b5f610dc182610dab565b9050919050565b610dd9610dd48261083a565b610db7565b82525050565b5f610dea8286610c8b565b602082019150610dfa8285610c1d565b602082019150610e0a8284610dc8565b600182019150819050949350505050565b5f610e25826107b0565b91507fffffffffffffffffffffffffffffffffffffffffffffffffffffffffffffffff8203610e5757610e56610b0b565b5b600182019050919050565b5f81905092915050565b50565b5f610e7a5f83610e62565b9150610e8582610e6c565b5f82019050919050565b5f610e9982610e6f565b9150819050919050565b7f7061796f7574206661696c6564000000000000000000000000000000000000005f82015250565b5f610ed7600d836108f3565b9150610ee282610ea3565b602082019050919050565b5f6020820190508181035f830152610f0481610ecb565b9050919050565b5f8115159050919050565b610f1f81610f0b565b82525050565b610f2e8161083a565b82525050565b5f60c082019050610f475f8301896107b9565b610f546020830188610f16565b610f616040830187610f25565b610f6e6060830186610f25565b610f7b6080830185610f25565b610f8860a08301846107b9565b979650505050505050565b7f6d7573742073656e64204d4f4e000000000000000000000000000000000000005f82015250565b5f610fc7600d836108f3565b9150610fd282610f93565b602082019050919050565b5f6020820190508181035f830152610ff481610fbb565b905091905056fea2646970667358221220d05beee07f55ee7855d38f38d4e7cd795d151ba8c5ccb91ec3698ad645f3d1ae64736f6c634300081e0033",
					"opcodes": "PUSH1 0x80 PUSH1 0x40 MSTORE CALLER PUSH0 PUSH0 PUSH2 0x100 EXP DUP2 SLOAD DUP2 PUSH20 0xFFFFFFFFFFFFFFFFFFFFFFFFFFFFFFFFFFFFFFFF MUL NOT AND SWAP1 DUP4 PUSH20 0xFFFFFFFFFFFFFFFFFFFFFFFFFFFFFFFFFFFFFFFF AND MUL OR SWAP1 SSTORE POP PUSH2 0x1031 DUP1 PUSH2 0x50 PUSH0 CODECOPY PUSH0 RETURN INVALID PUSH1 0x80 PUSH1 0x40 MSTORE PUSH1 0x4 CALLDATASIZE LT PUSH2 0x42 JUMPI PUSH0 CALLDATALOAD PUSH1 0xE0 SHR DUP1 PUSH4 0x2E1A7D4D EQ PUSH2 0x9B JUMPI DUP1 PUSH4 0x53A04B05 EQ PUSH2 0xC3 JUMPI DUP1 PUSH4 0x8DA5CB5B EQ PUSH2 0xDF JUMPI DUP1 PUSH4 0xB60D4288 EQ PUSH2 0x109 JUMPI PUSH2 0x97 JUMP JUMPDEST CALLDATASIZE PUSH2 0x97 JUMPI CALLER PUSH20 0xFFFFFFFFFFFFFFFFFFFFFFFFFFFFFFFFFFFFFFFF AND PUSH32 0x5AF8184BEF8E4B45EB9F6ED7734D04DA38CED226495548F46E0C8FF8D7D9A524 CALLVALUE PUSH1 0x40 MLOAD PUSH2 0x8D SWAP2 SWAP1 PUSH2 0x7C8 JUMP JUMPDEST PUSH1 0x40 MLOAD DUP1 SWAP2 SUB SWAP1 LOG2 STOP JUMPDEST PUSH0 PUSH0 REVERT JUMPDEST CALLVALUE DUP1 ISZERO PUSH2 0xA6 JUMPI PUSH0 PUSH0 REVERT JUMPDEST POP PUSH2 0xC1 PUSH1 0x4 DUP1 CALLDATASIZE SUB DUP2 ADD SWAP1 PUSH2 0xBC SWAP2 SWAP1 PUSH2 0x80F JUMP JUMPDEST PUSH2 0x113 JUMP JUMPDEST STOP JUMPDEST PUSH2 0xDD PUSH1 0x4 DUP1 CALLDATASIZE SUB DUP2 ADD SWAP1 PUSH2 0xD8 SWAP2 SWAP1 PUSH2 0x870 JUMP JUMPDEST PUSH2 0x24B JUMP JUMPDEST STOP JUMPDEST CALLVALUE DUP1 ISZERO PUSH2 0xEA JUMPI PUSH0 PUSH0 REVERT JUMPDEST POP PUSH2 0xF3 PUSH2 0x6FA JUMP JUMPDEST PUSH1 0x40 MLOAD PUSH2 0x100 SWAP2 SWAP1 PUSH2 0x8DA JUMP JUMPDEST PUSH1 0x40 MLOAD DUP1 SWAP2 SUB SWAP1 RETURN JUMPDEST PUSH2 0x111 PUSH2 0x71E JUMP JUMPDEST STOP JUMPDEST PUSH0 PUSH0 SWAP1 SLOAD SWAP1 PUSH2 0x100 EXP SWAP1 DIV PUSH20 0xFFFFFFFFFFFFFFFFFFFFFFFFFFFFFFFFFFFFFFFF AND PUSH20 0xFFFFFFFFFFFFFFFFFFFFFFFFFFFFFFFFFFFFFFFF AND CALLER PUSH20 0xFFFFFFFFFFFFFFFFFFFFFFFFFFFFFFFFFFFFFFFF AND EQ PUSH2 0x1A1 JUMPI PUSH1 0x40 MLOAD PUSH32 0x8C379A000000000000000000000000000000000000000000000000000000000 DUP2 MSTORE PUSH1 0x4 ADD PUSH2 0x198 SWAP1 PUSH2 0x94D JUMP JUMPDEST PUSH1 0x40 MLOAD DUP1 SWAP2 SUB SWAP1 REVERT JUMPDEST SELFBALANCE DUP2 GT ISZERO PUSH2 0x1E4 JUMPI PUSH1 0x40 MLOAD PUSH32 0x8C379A000000000000000000000000000000000000000000000000000000000 DUP2 MSTORE PUSH1 0x4 ADD PUSH2 0x1DB SWAP1 PUSH2 0x9B5 JUMP JUMPDEST PUSH1 0x40 MLOAD DUP1 SWAP2 SUB SWAP1 REVERT JUMPDEST PUSH0 PUSH0 SWAP1 SLOAD SWAP1 PUSH2 0x100 EXP SWAP1 DIV PUSH20 0xFFFFFFFFFFFFFFFFFFFFFFFFFFFFFFFFFFFFFFFF AND PUSH20 0xFFFFFFFFFFFFFFFFFFFFFFFFFFFFFFFFFFFFFFFF AND PUSH2 0x8FC DUP3 SWAP1 DUP2 ISZERO MUL SWAP1 PUSH1 0x40 MLOAD PUSH0 PUSH1 0x40 MLOAD DUP1 DUP4 SUB DUP2 DUP6 DUP9 DUP9 CALL SWAP4 POP POP POP POP ISZERO DUP1 ISZERO PUSH2 0x247 JUMPI RETURNDATASIZE PUSH0 PUSH0 RETURNDATACOPY RETURNDATASIZE PUSH0 REVERT JUMPDEST POP POP JUMP JUMPDEST PUSH0 PUSH1 0x14 SWAP1 SLOAD SWAP1 PUSH2 0x100 EXP SWAP1 DIV PUSH1 0xFF AND ISZERO PUSH2 0x29A JUMPI PUSH1 0x40 MLOAD PUSH32 0x8C379A000000000000000000000000000000000000000000000000000000000 DUP2 MSTORE PUSH1 0x4 ADD PUSH2 0x291 SWAP1 PUSH2 0xA1D JUMP JUMPDEST PUSH1 0x40 MLOAD DUP1 SWAP2 SUB SWAP1 REVERT JUMPDEST PUSH1 0x1 PUSH0 PUSH1 0x14 PUSH2 0x100 EXP DUP2 SLOAD DUP2 PUSH1 0xFF MUL NOT AND SWAP1 DUP4 ISZERO ISZERO MUL OR SWAP1 SSTORE POP PUSH0 CALLVALUE GT PUSH2 0x2F6 JUMPI PUSH1 0x40 MLOAD PUSH32 0x8C379A000000000000000000000000000000000000000000000000000000000 DUP2 MSTORE PUSH1 0x4 ADD PUSH2 0x2ED SWAP1 PUSH2 0xA85 JUMP JUMPDEST PUSH1 0x40 MLOAD DUP1 SWAP2 SUB SWAP1 REVERT JUMPDEST PUSH1 0x5 DUP2 PUSH1 0xFF AND LT ISZERO DUP1 ISZERO PUSH2 0x30E JUMPI POP PUSH1 0x9 DUP2 PUSH1 0xFF AND GT ISZERO JUMPDEST PUSH2 0x34D JUMPI PUSH1 0x40 MLOAD PUSH32 0x8C379A000000000000000000000000000000000000000000000000000000000 DUP2 MSTORE PUSH1 0x4 ADD PUSH2 0x344 SWAP1 PUSH2 0xAED JUMP JUMPDEST PUSH1 0x40 MLOAD DUP1 SWAP2 SUB SWAP1 REVERT JUMPDEST PUSH1 0x2 CALLVALUE PUSH2 0x35A SWAP2 SWAP1 PUSH2 0xB38 JUMP JUMPDEST SELFBALANCE LT ISZERO PUSH2 0x39C JUMPI PUSH1 0x40 MLOAD PUSH32 0x8C379A000000000000000000000000000000000000000000000000000000000 DUP2 MSTORE PUSH1 0x4 ADD PUSH2 0x393 SWAP1 PUSH2 0xBC3 JUMP JUMPDEST PUSH1 0x40 MLOAD DUP1 SWAP2 SUB SWAP1 REVERT JUMPDEST PUSH0 CALLVALUE SWAP1 POP PUSH0 PUSH0 SWAP1 POP PUSH0 PUSH0 SWAP1 POP PUSH0 PUSH0 SWAP1 POP PUSH0 PUSH0 SWAP1 POP PUSH0 TIMESTAMP PREVRANDAO CALLER PUSH1 0x1 NUMBER PUSH2 0x3C1 SWAP2 SWAP1 PUSH2 0xBE1 JUMP JUMPDEST BLOCKHASH PUSH1 0x40 MLOAD PUSH1 0x20 ADD PUSH2 0x3D5 SWAP5 SWAP4 SWAP3 SWAP2 SWAP1 PUSH2 0xCA2 JUMP JUMPDEST PUSH1 0x40 MLOAD PUSH1 0x20 DUP2 DUP4 SUB SUB DUP2 MSTORE SWAP1 PUSH1 0x40 MSTORE DUP1 MLOAD SWAP1 PUSH1 0x20 ADD KECCAK256 SWAP1 POP PUSH0 PUSH0 SWAP1 POP PUSH0 PUSH1 0x64 SWAP1 POP JUMPDEST DUP6 ISZERO DUP1 ISZERO PUSH2 0x404 JUMPI POP DUP1 DUP3 LT JUMPDEST ISZERO PUSH2 0x5A4 JUMPI DUP3 DUP3 PUSH1 0x40 MLOAD PUSH1 0x20 ADD PUSH2 0x41C SWAP3 SWAP2 SWAP1 PUSH2 0xCEF JUMP JUMPDEST PUSH1 0x40 MLOAD PUSH1 0x20 DUP2 DUP4 SUB SUB DUP2 MSTORE SWAP1 PUSH1 0x40 MSTORE DUP1 MLOAD SWAP1 PUSH1 0x20 ADD KECCAK256 SWAP3 POP PUSH0 PUSH1 0x1 PUSH1 0x6 DUP6 PUSH0 SHR PUSH2 0x446 SWAP2 SWAP1 PUSH2 0xD47 JUMP JUMPDEST PUSH2 0x450 SWAP2 SWAP1 PUSH2 0xD77 JUMP JUMPDEST SWAP1 POP DUP4 DUP4 DUP3 PUSH1 0x40 MLOAD PUSH1 0x20 ADD PUSH2 0x467 SWAP4 SWAP3 SWAP2 SWAP1 PUSH2 0xDDF JUMP JUMPDEST PUSH1 0x40 MLOAD PUSH1 0x20 DUP2 DUP4 SUB SUB DUP2 MSTORE SWAP1 PUSH1 0x40 MSTORE DUP1 MLOAD SWAP1 PUSH1 0x20 ADD KECCAK256 SWAP4 POP PUSH0 PUSH1 0x1 PUSH1 0x6 DUP7 PUSH0 SHR PUSH2 0x491 SWAP2 SWAP1 PUSH2 0xD47 JUMP JUMPDEST PUSH2 0x49B SWAP2 SWAP1 PUSH2 0xD77 JUMP JUMPDEST SWAP1 POP DUP1 DUP3 PUSH2 0x4A9 SWAP2 SWAP1 PUSH2 0xD77 JUMP JUMPDEST SWAP6 POP PUSH0 DUP10 PUSH1 0xFF AND SUB PUSH2 0x55E JUMPI DUP11 PUSH1 0xFF AND DUP7 PUSH1 0xFF AND SUB PUSH2 0x4CF JUMPI PUSH1 0x1 SWAP7 POP PUSH1 0x1 SWAP8 POP PUSH2 0x559 JUMP JUMPDEST PUSH1 0x2 DUP7 PUSH1 0xFF AND EQ DUP1 PUSH2 0x4E4 JUMPI POP PUSH1 0x3 DUP7 PUSH1 0xFF AND EQ JUMPDEST ISZERO PUSH2 0x4F5 JUMPI PUSH0 SWAP7 POP PUSH1 0x1 SWAP8 POP PUSH2 0x558 JUMP JUMPDEST PUSH1 0xB DUP7 PUSH1 0xFF AND EQ DUP1 PUSH2 0x50A JUMPI POP PUSH1 0xC DUP7 PUSH1 0xFF AND EQ JUMPDEST ISZERO PUSH2 0x553 JUMPI PUSH1 0x7 DUP12 PUSH1 0xFF AND SUB PUSH2 0x522 JUMPI PUSH0 SWAP7 POP PUSH2 0x54A JUMP JUMPDEST PUSH1 0x5 DUP12 PUSH1 0xFF AND EQ DUP1 PUSH2 0x537 JUMPI POP PUSH1 0x9 DUP12 PUSH1 0xFF AND EQ JUMPDEST ISZERO PUSH2 0x545 JUMPI PUSH1 0x1 SWAP7 POP PUSH2 0x549 JUMP JUMPDEST PUSH0 SWAP7 POP JUMPDEST JUMPDEST PUSH1 0x1 SWAP8 POP PUSH2 0x557 JUMP JUMPDEST DUP6 SWAP9 POP JUMPDEST JUMPDEST JUMPDEST PUSH2 0x58F JUMP JUMPDEST DUP9 PUSH1 0xFF AND DUP7 PUSH1 0xFF AND SUB PUSH2 0x578 JUMPI PUSH1 0x1 SWAP7 POP PUSH1 0x1 SWAP8 POP PUSH2 0x58E JUMP JUMPDEST DUP11 PUSH1 0xFF AND DUP7 PUSH1 0xFF AND SUB PUSH2 0x58D JUMPI PUSH0 SWAP7 POP PUSH1 0x1 SWAP8 POP JUMPDEST JUMPDEST JUMPDEST DUP4 DUP1 PUSH2 0x59A SWAP1 PUSH2 0xE1B JUMP JUMPDEST SWAP5 POP POP POP POP PUSH2 0x3F7 JUMP JUMPDEST DUP6 PUSH2 0x5AD JUMPI PUSH0 SWAP5 POP JUMPDEST DUP5 ISZERO PUSH2 0x67E JUMPI PUSH0 PUSH1 0x2 DUP10 PUSH2 0x5C1 SWAP2 SWAP1 PUSH2 0xB38 JUMP JUMPDEST SWAP1 POP DUP1 SELFBALANCE LT PUSH2 0x678 JUMPI PUSH0 CALLER PUSH20 0xFFFFFFFFFFFFFFFFFFFFFFFFFFFFFFFFFFFFFFFF AND DUP3 PUSH1 0x40 MLOAD PUSH2 0x5EF SWAP1 PUSH2 0xE8F JUMP JUMPDEST PUSH0 PUSH1 0x40 MLOAD DUP1 DUP4 SUB DUP2 DUP6 DUP8 GAS CALL SWAP3 POP POP POP RETURNDATASIZE DUP1 PUSH0 DUP2 EQ PUSH2 0x629 JUMPI PUSH1 0x40 MLOAD SWAP2 POP PUSH1 0x1F NOT PUSH1 0x3F RETURNDATASIZE ADD AND DUP3 ADD PUSH1 0x40 MSTORE RETURNDATASIZE DUP3 MSTORE RETURNDATASIZE PUSH0 PUSH1 0x20 DUP5 ADD RETURNDATACOPY PUSH2 0x62E JUMP JUMPDEST PUSH1 0x60 SWAP2 POP JUMPDEST POP POP SWAP1 POP DUP1 PUSH2 0x672 JUMPI PUSH1 0x40 MLOAD PUSH32 0x8C379A000000000000000000000000000000000000000000000000000000000 DUP2 MSTORE PUSH1 0x4 ADD PUSH2 0x669 SWAP1 PUSH2 0xEED JUMP JUMPDEST PUSH1 0x40 MLOAD DUP1 SWAP2 SUB SWAP1 REVERT JUMPDEST POP PUSH2 0x67C JUMP JUMPDEST PUSH0 SWAP6 POP JUMPDEST POP JUMPDEST CALLER PUSH20 0xFFFFFFFFFFFFFFFFFFFFFFFFFFFFFFFFFFFFFFFF AND PUSH32 0xBD3A518165FF9E7AA8E3BDEC8ACF19E682CEE03800411CA5B4CC47829EE73FE DUP10 DUP8 DUP13 DUP9 DUP13 DUP9 PUSH1 0x40 MLOAD PUSH2 0x6CE SWAP7 SWAP6 SWAP5 SWAP4 SWAP3 SWAP2 SWAP1 PUSH2 0xF34 JUMP JUMPDEST PUSH1 0x40 MLOAD DUP1 SWAP2 SUB SWAP1 LOG2 POP POP POP POP POP POP POP POP PUSH0 PUSH0 PUSH1 0x14 PUSH2 0x100 EXP DUP2 SLOAD DUP2 PUSH1 0xFF MUL NOT AND SWAP1 DUP4 ISZERO ISZERO MUL OR SWAP1 SSTORE POP POP JUMP JUMPDEST PUSH0 PUSH0 SWAP1 SLOAD SWAP1 PUSH2 0x100 EXP SWAP1 DIV PUSH20 0xFFFFFFFFFFFFFFFFFFFFFFFFFFFFFFFFFFFFFFFF AND DUP2 JUMP JUMPDEST PUSH0 CALLVALUE GT PUSH2 0x760 JUMPI PUSH1 0x40 MLOAD PUSH32 0x8C379A000000000000000000000000000000000000000000000000000000000 DUP2 MSTORE PUSH1 0x4 ADD PUSH2 0x757 SWAP1 PUSH2 0xFDD JUMP JUMPDEST PUSH1 0x40 MLOAD DUP1 SWAP2 SUB SWAP1 REVERT JUMPDEST CALLER PUSH20 0xFFFFFFFFFFFFFFFFFFFFFFFFFFFFFFFFFFFFFFFF AND PUSH32 0x5AF8184BEF8E4B45EB9F6ED7734D04DA38CED226495548F46E0C8FF8D7D9A524 CALLVALUE PUSH1 0x40 MLOAD PUSH2 0x7A6 SWAP2 SWAP1 PUSH2 0x7C8 JUMP JUMPDEST PUSH1 0x40 MLOAD DUP1 SWAP2 SUB SWAP1 LOG2 JUMP JUMPDEST PUSH0 DUP2 SWAP1 POP SWAP2 SWAP1 POP JUMP JUMPDEST PUSH2 0x7C2 DUP2 PUSH2 0x7B0 JUMP JUMPDEST DUP3 MSTORE POP POP JUMP JUMPDEST PUSH0 PUSH1 0x20 DUP3 ADD SWAP1 POP PUSH2 0x7DB PUSH0 DUP4 ADD DUP5 PUSH2 0x7B9 JUMP JUMPDEST SWAP3 SWAP2 POP POP JUMP JUMPDEST PUSH0 PUSH0 REVERT JUMPDEST PUSH2 0x7EE DUP2 PUSH2 0x7B0 JUMP JUMPDEST DUP2 EQ PUSH2 0x7F8 JUMPI PUSH0 PUSH0 REVERT JUMPDEST POP JUMP JUMPDEST PUSH0 DUP2 CALLDATALOAD SWAP1 POP PUSH2 0x809 DUP2 PUSH2 0x7E5 JUMP JUMPDEST SWAP3 SWAP2 POP POP JUMP JUMPDEST PUSH0 PUSH1 0x20 DUP3 DUP5 SUB SLT ISZERO PUSH2 0x824 JUMPI PUSH2 0x823 PUSH2 0x7E1 JUMP JUMPDEST JUMPDEST PUSH0 PUSH2 0x831 DUP5 DUP3 DUP6 ADD PUSH2 0x7FB JUMP JUMPDEST SWAP2 POP POP SWAP3 SWAP2 POP POP JUMP JUMPDEST PUSH0 PUSH1 0xFF DUP3 AND SWAP1 POP SWAP2 SWAP1 POP JUMP JUMPDEST PUSH2 0x84F DUP2 PUSH2 0x83A JUMP JUMPDEST DUP2 EQ PUSH2 0x859 JUMPI PUSH0 PUSH0 REVERT JUMPDEST POP JUMP JUMPDEST PUSH0 DUP2 CALLDATALOAD SWAP1 POP PUSH2 0x86A DUP2 PUSH2 0x846 JUMP JUMPDEST SWAP3 SWAP2 POP POP JUMP JUMPDEST PUSH0 PUSH1 0x20 DUP3 DUP5 SUB SLT ISZERO PUSH2 0x885 JUMPI PUSH2 0x884 PUSH2 0x7E1 JUMP JUMPDEST JUMPDEST PUSH0 PUSH2 0x892 DUP5 DUP3 DUP6 ADD PUSH2 0x85C JUMP JUMPDEST SWAP2 POP POP SWAP3 SWAP2 POP POP JUMP JUMPDEST PUSH0 PUSH20 0xFFFFFFFFFFFFFFFFFFFFFFFFFFFFFFFFFFFFFFFF DUP3 AND SWAP1 POP SWAP2 SWAP1 POP JUMP JUMPDEST PUSH0 PUSH2 0x8C4 DUP3 PUSH2 0x89B JUMP JUMPDEST SWAP1 POP SWAP2 SWAP1 POP JUMP JUMPDEST PUSH2 0x8D4 DUP2 PUSH2 0x8BA JUMP JUMPDEST DUP3 MSTORE POP POP JUMP JUMPDEST PUSH0 PUSH1 0x20 DUP3 ADD SWAP1 POP PUSH2 0x8ED PUSH0 DUP4 ADD DUP5 PUSH2 0x8CB JUMP JUMPDEST SWAP3 SWAP2 POP POP JUMP JUMPDEST PUSH0 DUP3 DUP3 MSTORE PUSH1 0x20 DUP3 ADD SWAP1 POP SWAP3 SWAP2 POP POP JUMP JUMPDEST PUSH32 0x6E6F74206F776E65720000000000000000000000000000000000000000000000 PUSH0 DUP3 ADD MSTORE POP JUMP JUMPDEST PUSH0 PUSH2 0x937 PUSH1 0x9 DUP4 PUSH2 0x8F3 JUMP JUMPDEST SWAP2 POP PUSH2 0x942 DUP3 PUSH2 0x903 JUMP JUMPDEST PUSH1 0x20 DUP3 ADD SWAP1 POP SWAP2 SWAP1 POP JUMP JUMPDEST PUSH0 PUSH1 0x20 DUP3 ADD SWAP1 POP DUP2 DUP2 SUB PUSH0 DUP4 ADD MSTORE PUSH2 0x964 DUP2 PUSH2 0x92B JUMP JUMPDEST SWAP1 POP SWAP2 SWAP1 POP JUMP JUMPDEST PUSH32 0x746F6F206D756368000000000000000000000000000000000000000000000000 PUSH0 DUP3 ADD MSTORE POP JUMP JUMPDEST PUSH0 PUSH2 0x99F PUSH1 0x8 DUP4 PUSH2 0x8F3 JUMP JUMPDEST SWAP2 POP PUSH2 0x9AA DUP3 PUSH2 0x96B JUMP JUMPDEST PUSH1 0x20 DUP3 ADD SWAP1 POP SWAP2 SWAP1 POP JUMP JUMPDEST PUSH0 PUSH1 0x20 DUP3 ADD SWAP1 POP DUP2 DUP2 SUB PUSH0 DUP4 ADD MSTORE PUSH2 0x9CC DUP2 PUSH2 0x993 JUMP JUMPDEST SWAP1 POP SWAP2 SWAP1 POP JUMP JUMPDEST PUSH32 0x7265656E7472616E637900000000000000000000000000000000000000000000 PUSH0 DUP3 ADD MSTORE POP JUMP JUMPDEST PUSH0 PUSH2 0xA07 PUSH1 0xA DUP4 PUSH2 0x8F3 JUMP JUMPDEST SWAP2 POP PUSH2 0xA12 DUP3 PUSH2 0x9D3 JUMP JUMPDEST PUSH1 0x20 DUP3 ADD SWAP1 POP SWAP2 SWAP1 POP JUMP JUMPDEST PUSH0 PUSH1 0x20 DUP3 ADD SWAP1 POP DUP2 DUP2 SUB PUSH0 DUP4 ADD MSTORE PUSH2 0xA34 DUP2 PUSH2 0x9FB JUMP JUMPDEST SWAP1 POP SWAP2 SWAP1 POP JUMP JUMPDEST PUSH32 0x6D7573742073656E64204D4F4E20746F20706C61790000000000000000000000 PUSH0 DUP3 ADD MSTORE POP JUMP JUMPDEST PUSH0 PUSH2 0xA6F PUSH1 0x15 DUP4 PUSH2 0x8F3 JUMP JUMPDEST SWAP2 POP PUSH2 0xA7A DUP3 PUSH2 0xA3B JUMP JUMPDEST PUSH1 0x20 DUP3 ADD SWAP1 POP SWAP2 SWAP1 POP JUMP JUMPDEST PUSH0 PUSH1 0x20 DUP3 ADD SWAP1 POP DUP2 DUP2 SUB PUSH0 DUP4 ADD MSTORE PUSH2 0xA9C DUP2 PUSH2 0xA63 JUMP JUMPDEST SWAP1 POP SWAP2 SWAP1 POP JUMP JUMPDEST PUSH32 0x696E76616C6964206D61696E0000000000000000000000000000000000000000 PUSH0 DUP3 ADD MSTORE POP JUMP JUMPDEST PUSH0 PUSH2 0xAD7 PUSH1 0xC DUP4 PUSH2 0x8F3 JUMP JUMPDEST SWAP2 POP PUSH2 0xAE2 DUP3 PUSH2 0xAA3 JUMP JUMPDEST PUSH1 0x20 DUP3 ADD SWAP1 POP SWAP2 SWAP1 POP JUMP JUMPDEST PUSH0 PUSH1 0x20 DUP3 ADD SWAP1 POP DUP2 DUP2 SUB PUSH0 DUP4 ADD MSTORE PUSH2 0xB04 DUP2 PUSH2 0xACB JUMP JUMPDEST SWAP1 POP SWAP2 SWAP1 POP JUMP JUMPDEST PUSH32 0x4E487B7100000000000000000000000000000000000000000000000000000000 PUSH0 MSTORE PUSH1 0x11 PUSH1 0x4 MSTORE PUSH1 0x24 PUSH0 REVERT JUMPDEST PUSH0 PUSH2 0xB42 DUP3 PUSH2 0x7B0 JUMP JUMPDEST SWAP2 POP PUSH2 0xB4D DUP4 PUSH2 0x7B0 JUMP JUMPDEST SWAP3 POP DUP3 DUP3 MUL PUSH2 0xB5B DUP2 PUSH2 0x7B0 JUMP JUMPDEST SWAP2 POP DUP3 DUP3 DIV DUP5 EQ DUP4 ISZERO OR PUSH2 0xB72 JUMPI PUSH2 0xB71 PUSH2 0xB0B JUMP JUMPDEST JUMPDEST POP SWAP3 SWAP2 POP POP JUMP JUMPDEST PUSH32 0x62616E6B726F6C6C20746F6F206C6F7700000000000000000000000000000000 PUSH0 DUP3 ADD MSTORE POP JUMP JUMPDEST PUSH0 PUSH2 0xBAD PUSH1 0x10 DUP4 PUSH2 0x8F3 JUMP JUMPDEST SWAP2 POP PUSH2 0xBB8 DUP3 PUSH2 0xB79 JUMP JUMPDEST PUSH1 0x20 DUP3 ADD SWAP1 POP SWAP2 SWAP1 POP JUMP JUMPDEST PUSH0 PUSH1 0x20 DUP3 ADD SWAP1 POP DUP2 DUP2 SUB PUSH0 DUP4 ADD MSTORE PUSH2 0xBDA DUP2 PUSH2 0xBA1 JUMP JUMPDEST SWAP1 POP SWAP2 SWAP1 POP JUMP JUMPDEST PUSH0 PUSH2 0xBEB DUP3 PUSH2 0x7B0 JUMP JUMPDEST SWAP2 POP PUSH2 0xBF6 DUP4 PUSH2 0x7B0 JUMP JUMPDEST SWAP3 POP DUP3 DUP3 SUB SWAP1 POP DUP2 DUP2 GT ISZERO PUSH2 0xC0E JUMPI PUSH2 0xC0D PUSH2 0xB0B JUMP JUMPDEST JUMPDEST SWAP3 SWAP2 POP POP JUMP JUMPDEST PUSH0 DUP2 SWAP1 POP SWAP2 SWAP1 POP JUMP JUMPDEST PUSH2 0xC2E PUSH2 0xC29 DUP3 PUSH2 0x7B0 JUMP JUMPDEST PUSH2 0xC14 JUMP JUMPDEST DUP3 MSTORE POP POP JUMP JUMPDEST PUSH0 DUP2 PUSH1 0x60 SHL SWAP1 POP SWAP2 SWAP1 POP JUMP JUMPDEST PUSH0 PUSH2 0xC4A DUP3 PUSH2 0xC34 JUMP JUMPDEST SWAP1 POP SWAP2 SWAP1 POP JUMP JUMPDEST PUSH0 PUSH2 0xC5B DUP3 PUSH2 0xC40 JUMP JUMPDEST SWAP1 POP SWAP2 SWAP1 POP JUMP JUMPDEST PUSH2 0xC73 PUSH2 0xC6E DUP3 PUSH2 0x8BA JUMP JUMPDEST PUSH2 0xC51 JUMP JUMPDEST DUP3 MSTORE POP POP JUMP JUMPDEST PUSH0 DUP2 SWAP1 POP SWAP2 SWAP1 POP JUMP JUMPDEST PUSH0 DUP2 SWAP1 POP SWAP2 SWAP1 POP JUMP JUMPDEST PUSH2 0xC9C PUSH2 0xC97 DUP3 PUSH2 0xC79 JUMP JUMPDEST PUSH2 0xC82 JUMP JUMPDEST DUP3 MSTORE POP POP JUMP JUMPDEST PUSH0 PUSH2 0xCAD DUP3 DUP8 PUSH2 0xC1D JUMP JUMPDEST PUSH1 0x20 DUP3 ADD SWAP2 POP PUSH2 0xCBD DUP3 DUP7 PUSH2 0xC1D JUMP JUMPDEST PUSH1 0x20 DUP3 ADD SWAP2 POP PUSH2 0xCCD DUP3 DUP6 PUSH2 0xC62 JUMP JUMPDEST PUSH1 0x14 DUP3 ADD SWAP2 POP PUSH2 0xCDD DUP3 DUP5 PUSH2 0xC8B JUMP JUMPDEST PUSH1 0x20 DUP3 ADD SWAP2 POP DUP2 SWAP1 POP SWAP6 SWAP5 POP POP POP POP POP JUMP JUMPDEST PUSH0 PUSH2 0xCFA DUP3 DUP6 PUSH2 0xC8B JUMP JUMPDEST PUSH1 0x20 DUP3 ADD SWAP2 POP PUSH2 0xD0A DUP3 DUP5 PUSH2 0xC1D JUMP JUMPDEST PUSH1 0x20 DUP3 ADD SWAP2 POP DUP2 SWAP1 POP SWAP4 SWAP3 POP POP POP JUMP JUMPDEST PUSH32 0x4E487B7100000000000000000000000000000000000000000000000000000000 PUSH0 MSTORE PUSH1 0x12 PUSH1 0x4 MSTORE PUSH1 0x24 PUSH0 REVERT JUMPDEST PUSH0 PUSH2 0xD51 DUP3 PUSH2 0x7B0 JUMP JUMPDEST SWAP2 POP PUSH2 0xD5C DUP4 PUSH2 0x7B0 JUMP JUMPDEST SWAP3 POP DUP3 PUSH2 0xD6C JUMPI PUSH2 0xD6B PUSH2 0xD1A JUMP JUMPDEST JUMPDEST DUP3 DUP3 MOD SWAP1 POP SWAP3 SWAP2 POP POP JUMP JUMPDEST PUSH0 PUSH2 0xD81 DUP3 PUSH2 0x83A JUMP JUMPDEST SWAP2 POP PUSH2 0xD8C DUP4 PUSH2 0x83A JUMP JUMPDEST SWAP3 POP DUP3 DUP3 ADD SWAP1 POP PUSH1 0xFF DUP2 GT ISZERO PUSH2 0xDA5 JUMPI PUSH2 0xDA4 PUSH2 0xB0B JUMP JUMPDEST JUMPDEST SWAP3 SWAP2 POP POP JUMP JUMPDEST PUSH0 DUP2 PUSH1 0xF8 SHL SWAP1 POP SWAP2 SWAP1 POP JUMP JUMPDEST PUSH0 PUSH2 0xDC1 DUP3 PUSH2 0xDAB JUMP JUMPDEST SWAP1 POP SWAP2 SWAP1 POP JUMP JUMPDEST PUSH2 0xDD9 PUSH2 0xDD4 DUP3 PUSH2 0x83A JUMP JUMPDEST PUSH2 0xDB7 JUMP JUMPDEST DUP3 MSTORE POP POP JUMP JUMPDEST PUSH0 PUSH2 0xDEA DUP3 DUP7 PUSH2 0xC8B JUMP JUMPDEST PUSH1 0x20 DUP3 ADD SWAP2 POP PUSH2 0xDFA DUP3 DUP6 PUSH2 0xC1D JUMP JUMPDEST PUSH1 0x20 DUP3 ADD SWAP2 POP PUSH2 0xE0A DUP3 DUP5 PUSH2 0xDC8 JUMP JUMPDEST PUSH1 0x1 DUP3 ADD SWAP2 POP DUP2 SWAP1 POP SWAP5 SWAP4 POP POP POP POP JUMP JUMPDEST PUSH0 PUSH2 0xE25 DUP3 PUSH2 0x7B0 JUMP JUMPDEST SWAP2 POP PUSH32 0xFFFFFFFFFFFFFFFFFFFFFFFFFFFFFFFFFFFFFFFFFFFFFFFFFFFFFFFFFFFFFFFF DUP3 SUB PUSH2 0xE57 JUMPI PUSH2 0xE56 PUSH2 0xB0B JUMP JUMPDEST JUMPDEST PUSH1 0x1 DUP3 ADD SWAP1 POP SWAP2 SWAP1 POP JUMP JUMPDEST PUSH0 DUP2 SWAP1 POP SWAP3 SWAP2 POP POP JUMP JUMPDEST POP JUMP JUMPDEST PUSH0 PUSH2 0xE7A PUSH0 DUP4 PUSH2 0xE62 JUMP JUMPDEST SWAP2 POP PUSH2 0xE85 DUP3 PUSH2 0xE6C JUMP JUMPDEST PUSH0 DUP3 ADD SWAP1 POP SWAP2 SWAP1 POP JUMP JUMPDEST PUSH0 PUSH2 0xE99 DUP3 PUSH2 0xE6F JUMP JUMPDEST SWAP2 POP DUP2 SWAP1 POP SWAP2 SWAP1 POP JUMP JUMPDEST PUSH32 0x7061796F7574206661696C656400000000000000000000000000000000000000 PUSH0 DUP3 ADD MSTORE POP JUMP JUMPDEST PUSH0 PUSH2 0xED7 PUSH1 0xD DUP4 PUSH2 0x8F3 JUMP JUMPDEST SWAP2 POP PUSH2 0xEE2 DUP3 PUSH2 0xEA3 JUMP JUMPDEST PUSH1 0x20 DUP3 ADD SWAP1 POP SWAP2 SWAP1 POP JUMP JUMPDEST PUSH0 PUSH1 0x20 DUP3 ADD SWAP1 POP DUP2 DUP2 SUB PUSH0 DUP4 ADD MSTORE PUSH2 0xF04 DUP2 PUSH2 0xECB JUMP JUMPDEST SWAP1 POP SWAP2 SWAP1 POP JUMP JUMPDEST PUSH0 DUP2 ISZERO ISZERO SWAP1 POP SWAP2 SWAP1 POP JUMP JUMPDEST PUSH2 0xF1F DUP2 PUSH2 0xF0B JUMP JUMPDEST DUP3 MSTORE POP POP JUMP JUMPDEST PUSH2 0xF2E DUP2 PUSH2 0x83A JUMP JUMPDEST DUP3 MSTORE POP POP JUMP JUMPDEST PUSH0 PUSH1 0xC0 DUP3 ADD SWAP1 POP PUSH2 0xF47 PUSH0 DUP4 ADD DUP10 PUSH2 0x7B9 JUMP JUMPDEST PUSH2 0xF54 PUSH1 0x20 DUP4 ADD DUP9 PUSH2 0xF16 JUMP JUMPDEST PUSH2 0xF61 PUSH1 0x40 DUP4 ADD DUP8 PUSH2 0xF25 JUMP JUMPDEST PUSH2 0xF6E PUSH1 0x60 DUP4 ADD DUP7 PUSH2 0xF25 JUMP JUMPDEST PUSH2 0xF7B PUSH1 0x80 DUP4 ADD DUP6 PUSH2 0xF25 JUMP JUMPDEST PUSH2 0xF88 PUSH1 0xA0 DUP4 ADD DUP5 PUSH2 0x7B9 JUMP JUMPDEST SWAP8 SWAP7 POP POP POP POP POP POP POP JUMP JUMPDEST PUSH32 0x6D7573742073656E64204D4F4E00000000000000000000000000000000000000 PUSH0 DUP3 ADD MSTORE POP JUMP JUMPDEST PUSH0 PUSH2 0xFC7 PUSH1 0xD DUP4 PUSH2 0x8F3 JUMP JUMPDEST SWAP2 POP PUSH2 0xFD2 DUP3 PUSH2 0xF93 JUMP JUMPDEST PUSH1 0x20 DUP3 ADD SWAP1 POP SWAP2 SWAP1 POP JUMP JUMPDEST PUSH0 PUSH1 0x20 DUP3 ADD SWAP1 POP DUP2 DUP2 SUB PUSH0 DUP4 ADD MSTORE PUSH2 0xFF4 DUP2 PUSH2 0xFBB JUMP JUMPDEST SWAP1 POP SWAP2 SWAP1 POP JUMP INVALID LOG2 PUSH5 0x6970667358 0x22 SLT KECCAK256 0xD0 JUMPDEST RETURNCONTRACT 0xE0 PUSH32 0x55EE7855D38F38D4E7CD795D151BA8C5CCB91EC3698AD645F3D1AE64736F6C63 NUMBER STOP ADDMOD 0x1E STOP CALLER "
				},
				"gasEstimates": {
					"creation": {
						"codeDepositCost": "829000",
						"executionCost": "25102",
						"totalCost": "854102"
					},
					"external": {
						"fund()": "1754",
						"owner()": "2529",
						"play(uint8)": "infinite",
						"withdraw(uint256)": "infinite"
					}
				},
				"methodIdentifiers": {
					"fund()": "b60d4288",
					"owner()": "8da5cb5b",
					"play(uint8)": "53a04b05",
					"withdraw(uint256)": "2e1a7d4d"
				}
			},
			"storageLayout": {
				"storage": [
					{
						"astId": 3,
						"contract": "Contracts/hazard.sol:MonHazard",
						"label": "owner",
						"offset": 0,
						"slot": "0",
						"type": "t_address"
					},
					{
						"astId": 5,
						"contract": "Contracts/hazard.sol:MonHazard",
						"label": "locked",
						"offset": 20,
						"slot": "0",
						"type": "t_bool"
					}
				],
				"types": {
					"t_address": {
						"encoding": "inplace",
						"label": "address",
						"numberOfBytes": "20"
					},
					"t_bool": {
						"encoding": "inplace",
						"label": "bool",
						"numberOfBytes": "1"
					}
				}
			},
			"userdoc": {
				"kind": "user",
				"methods": {},
				"version": 1
			}
		}
	}
}