{
	"Contracts/Tavern.sol": {
		"Tavern": {
			"abi": [
				{
					"inputs": [],
					"stateMutability": "nonpayable",
					"type": "constructor"
				},
				{
					"anonymous": false,
					"inputs": [
						{
							"indexed": true,
							"internalType": "address",
							"name": "player",
							"type": "address"
						},
						{
							"indexed": false,
							"internalType": "uint256",
							"name": "wager",
							"type": "uint256"
						},
						{
							"indexed": false,
							"internalType": "bool",
							"name": "won",
							"type": "bool"
						},
						{
							"indexed": false,
							"internalType": "bool",
							"name": "resultChog",
							"type": "bool"
						}
					],
					"name": "CoinPlayed",
					"type": "event"
				},
				{
					"anonymous": false,
					"inputs": [
						{
							"indexed": true,
							"internalType": "address",
							"name": "player",
							"type": "address"
						},
						{
							"indexed": false,
							"internalType": "uint256",
							"name": "wager",
							"type": "uint256"
						},
						{
							"indexed": false,
							"internalType": "bool",
							"name": "win",
							"type": "bool"
						},
						{
							"indexed": false,
							"internalType": "uint8",
							"name": "main",
							"type": "uint8"
						},
						{
							"indexed": false,
							"internalType": "uint8",
							"name": "finalSum",
							"type": "uint8"
						},
						{
							"indexed": false,
							"internalType": "uint8",
							"name": "chance",
							"type": "uint8"
						},
						{
							"indexed": false,
							"internalType": "uint8",
							"name": "iterations",
							"type": "uint8"
						}
					],
					"name": "HazardPlayed",
					"type": "event"
				},
				{
					"anonymous": false,
					"inputs": [
						{
							"indexed": true,
							"internalType": "address",
							"name": "player",
							"type": "address"
						},
						{
							"indexed": false,
							"internalType": "uint256",
							"name": "wager",
							"type": "uint256"
						},
						{
							"indexed": false,
							"internalType": "bool",
							"name": "won",
							"type": "bool"
						},
						{
							"indexed": false,
							"internalType": "uint8",
							"name": "winningCup",
							"type": "uint8"
						},
						{
							"indexed": false,
							"internalType": "uint8",
							"name": "guess",
							"type": "uint8"
						}
					],
					"name": "ShellPlayed",
					"type": "event"
				},
				{
					"inputs": [],
					"name": "fund",
					"outputs": [],
					"stateMutability": "payable",
					"type": "function"
				},
				{
					"inputs": [],
					"name": "maxBet",
					"outputs": [
						{
							"internalType": "uint256",
							"name": "",
							"type": "uint256"
						}
					],
					"stateMutability": "view",
					"type": "function"
				},
				{
					"inputs": [],
					"name": "nonce",
					"outputs": [
						{
							"internalType": "uint256",
							"name": "",
							"type": "uint256"
						}
					],
					"stateMutability": "view",
					"type": "function"
				},
				{
					"inputs": [],
					"name": "owner",
					"outputs": [
						{
							"internalType": "address",
							"name": "",
							"type": "address"
						}
					],
					"stateMutability": "view",
					"type": "function"
				},
				{
					"inputs": [
						{
							"internalType": "bool",
							"name": "chooseChog",
							"type": "bool"
						}
					],
					"name": "playCoin",
					"outputs": [],
					"stateMutability": "payable",
					"type": "function"
				},
				{
					"inputs": [
						{
							"internalType": "uint8",
							"name": "main",
							"type": "uint8"
						}
					],
					"name": "playHazard",
					"outputs": [],
					"stateMutability": "payable",
					"type": "function"
				},
				{
					"inputs": [
						{
							"internalType": "uint8",
							"name": "guess",
							"type": "uint8"
						}
					],
					"name": "playShell",
					"outputs": [],
					"stateMutability": "payable",
					"type": "function"
				},
				{
					"inputs": [
						{
							"internalType": "uint256",
							"name": "_max",
							"type": "uint256"
						}
					],
					"name": "setMaxBet",
					"outputs": [],
					"stateMutability": "nonpayable",
					"type": "function"
				},
				{
					"inputs": [
						{
							"internalType": "address payable",
							"name": "to",
							"type": "address"
						},
						{
							"internalType": "uint256",
							"name": "amount",
							"type": "uint256"
						}
					],
					"name": "withdraw",
					"outputs": [],
					"stateMutability": "nonpayable",
					"type": "function"
				},
				{
					"stateMutability": "payable",
					"type": "receive"
				}
			],
			"devdoc": {
				"kind": "dev",
				"methods": {},
				"title": "Tavern - Unified game contract for Shell, Hazard, and Dak & Chog (coin flip)",
				"version": 1
			},
			"evm": {
				"assembly": "    /* \"Contracts/Tavern.sol\":304:4434  contract Tavern {... */\n  mstore(0x40, 0x80)\n    /* \"Contracts/Tavern.sol\":505:506  1 */\n  0x01\n    /* \"Contracts/Tavern.sol\":479:506  uint256 private _locked = 1 */\n  dup1\n  sstore\n    /* \"Contracts/Tavern.sol\":1024:1032  10 ether */\n  0x8ac7230489e80000\n    /* \"Contracts/Tavern.sol\":1000:1032  uint256 public maxBet = 10 ether */\n  0x02\n  sstore\n    /* \"Contracts/Tavern.sol\":1065:1102  constructor() { owner = msg.sender; } */\n  callvalue\n  dup1\n  iszero\n  tag_1\n  jumpi\n  0x00\n  dup1\n  revert\ntag_1:\n  pop\n    /* \"Contracts/Tavern.sol\":1089:1099  msg.sender */\n  caller\n    /* \"Contracts/Tavern.sol\":1081:1086  owner */\n  0x00\n  dup1\n    /* \"Contracts/Tavern.sol\":1081:1099  owner = msg.sender */\n  0x0100\n  exp\n  dup2\n  sload\n  dup2\n  0xffffffffffffffffffffffffffffffffffffffff\n  mul\n  not\n  and\n  swap1\n  dup4\n  0xffffffffffffffffffffffffffffffffffffffff\n  and\n  mul\n  or\n  swap1\n  sstore\n  pop\n    /* \"Contracts/Tavern.sol\":304:4434  contract Tavern {... */\n  dataSize(sub_0)\n  dup1\n  dataOffset(sub_0)\n  0x00\n  codecopy\n  0x00\n  return\nstop\n\nsub_0: assembly {\n        /* \"Contracts/Tavern.sol\":304:4434  contract Tavern {... */\n      mstore(0x40, 0x80)\n      jumpi(tag_1, lt(calldatasize, 0x04))\n      shr(0xe0, calldataload(0x00))\n      dup1\n      0x91a4f2ec\n      gt\n      tag_12\n      jumpi\n      dup1\n      0x91a4f2ec\n      eq\n      tag_7\n      jumpi\n      dup1\n      0xaffed0e0\n      eq\n      tag_8\n      jumpi\n      dup1\n      0xb60d4288\n      eq\n      tag_9\n      jumpi\n      dup1\n      0xcafab8e7\n      eq\n      tag_10\n      jumpi\n      dup1\n      0xf3fef3a3\n      eq\n      tag_11\n      jumpi\n      jump(tag_2)\n    tag_12:\n      dup1\n      0x0df8b93b\n      eq\n      tag_3\n      jumpi\n      dup1\n      0x2e5b2168\n      eq\n      tag_4\n      jumpi\n      dup1\n      0x881eff1e\n      eq\n      tag_5\n      jumpi\n      dup1\n      0x8da5cb5b\n      eq\n      tag_6\n      jumpi\n      jump(tag_2)\n    tag_1:\n      jumpi(tag_2, calldatasize)\n      stop\n    tag_2:\n      0x00\n      dup1\n      revert\n        /* \"Contracts/Tavern.sol\":2032:2596  function playShell(uint8 guess) external payable nonReentrant {... */\n    tag_3:\n      tag_15\n      0x04\n      dup1\n      calldatasize\n      sub\n      dup2\n      add\n      swap1\n      tag_16\n      swap2\n      swap1\n      tag_17\n      jump\t// in\n    tag_16:\n      tag_18\n      jump\t// in\n    tag_15:\n      stop\n        /* \"Contracts/Tavern.sol\":1000:1032  uint256 public maxBet = 10 ether */\n    tag_4:\n      callvalue\n      dup1\n      iszero\n      tag_19\n      jumpi\n      0x00\n      dup1\n      revert\n    tag_19:\n      pop\n      tag_20\n      tag_21\n      jump\t// in\n    tag_20:\n      mload(0x40)\n      tag_22\n      swap2\n      swap1\n      tag_23\n      jump\t// in\n    tag_22:\n      mload(0x40)\n      dup1\n      swap2\n      sub\n      swap1\n      return\n        /* \"Contracts/Tavern.sol\":1385:1455  function setMaxBet(uint256 _max) external onlyOwner { maxBet = _max; } */\n    tag_5:\n      callvalue\n      dup1\n      iszero\n      tag_24\n      jumpi\n      0x00\n      dup1\n      revert\n    tag_24:\n      pop\n      tag_25\n      0x04\n      dup1\n      calldatasize\n      sub\n      dup2\n      add\n      swap1\n      tag_26\n      swap2\n      swap1\n      tag_27\n      jump\t// in\n    tag_26:\n      tag_28\n      jump\t// in\n    tag_25:\n      stop\n        /* \"Contracts/Tavern.sol\":351:371  address public owner */\n    tag_6:\n      callvalue\n      dup1\n      iszero\n      tag_29\n      jumpi\n      0x00\n      dup1\n      revert\n    tag_29:\n      pop\n      tag_30\n      tag_31\n      jump\t// in\n    tag_30:\n      mload(0x40)\n      tag_32\n      swap2\n      swap1\n      tag_33\n      jump\t// in\n    tag_32:\n      mload(0x40)\n      dup1\n      swap2\n      sub\n      swap1\n      return\n        /* \"Contracts/Tavern.sol\":2646:3918  function playHazard(uint8 main) external payable nonReentrant {... */\n    tag_7:\n      tag_34\n      0x04\n      dup1\n      calldatasize\n      sub\n      dup2\n      add\n      swap1\n      tag_35\n      swap2\n      swap1\n      tag_17\n      jump\t// in\n    tag_35:\n      tag_36\n      jump\t// in\n    tag_34:\n      stop\n        /* \"Contracts/Tavern.sol\":1038:1058  uint256 public nonce */\n    tag_8:\n      callvalue\n      dup1\n      iszero\n      tag_37\n      jumpi\n      0x00\n      dup1\n      revert\n    tag_37:\n      pop\n      tag_38\n      tag_39\n      jump\t// in\n    tag_38:\n      mload(0x40)\n      tag_40\n      swap2\n      swap1\n      tag_23\n      jump\t// in\n    tag_40:\n      mload(0x40)\n      dup1\n      swap2\n      sub\n      swap1\n      return\n        /* \"Contracts/Tavern.sol\":1165:1200  function fund() external payable {} */\n    tag_9:\n      tag_41\n      tag_42\n      jump\t// in\n    tag_41:\n      stop\n        /* \"Contracts/Tavern.sol\":3962:4432  function playCoin(bool chooseChog) external payable nonReentrant {... */\n    tag_10:\n      tag_43\n      0x04\n      dup1\n      calldatasize\n      sub\n      dup2\n      add\n      swap1\n      tag_44\n      swap2\n      swap1\n      tag_45\n      jump\t// in\n    tag_44:\n      tag_46\n      jump\t// in\n    tag_43:\n      stop\n        /* \"Contracts/Tavern.sol\":1205:1380  function withdraw(address payable to, uint256 amount) external onlyOwner {... */\n    tag_11:\n      callvalue\n      dup1\n      iszero\n      tag_47\n      jumpi\n      0x00\n      dup1\n      revert\n    tag_47:\n      pop\n      tag_48\n      0x04\n      dup1\n      calldatasize\n      sub\n      dup2\n      add\n      swap1\n      tag_49\n      swap2\n      swap1\n      tag_50\n      jump\t// in\n    tag_49:\n      tag_51\n      jump\t// in\n    tag_48:\n      stop\n        /* \"Contracts/Tavern.sol\":2032:2596  function playShell(uint8 guess) external payable nonReentrant {... */\n    tag_18:\n        /* \"Contracts/Tavern.sol\":557:558  1 */\n      0x01\n        /* \"Contracts/Tavern.sol\":546:553  _locked */\n      dup1\n      sload\n        /* \"Contracts/Tavern.sol\":546:558  _locked == 1 */\n      eq\n        /* \"Contracts/Tavern.sol\":538:572  require(_locked == 1, \"reentrant\") */\n      tag_53\n      jumpi\n      mload(0x40)\n      0x08c379a000000000000000000000000000000000000000000000000000000000\n      dup2\n      mstore\n      0x04\n      add\n      tag_54\n      swap1\n      tag_55\n      jump\t// in\n    tag_54:\n      mload(0x40)\n      dup1\n      swap2\n      sub\n      swap1\n      revert\n    tag_53:\n        /* \"Contracts/Tavern.sol\":584:585  2 */\n      0x02\n        /* \"Contracts/Tavern.sol\":574:581  _locked */\n      0x01\n        /* \"Contracts/Tavern.sol\":574:585  _locked = 2 */\n      dup2\n      swap1\n      sstore\n      pop\n        /* \"Contracts/Tavern.sol\":2120:2121  3 */\n      0x03\n        /* \"Contracts/Tavern.sol\":2112:2117  guess */\n      dup2\n        /* \"Contracts/Tavern.sol\":2112:2121  guess < 3 */\n      0xff\n      and\n      lt\n        /* \"Contracts/Tavern.sol\":2104:2135  require(guess < 3, \"bad guess\") */\n      tag_57\n      jumpi\n      mload(0x40)\n      0x08c379a000000000000000000000000000000000000000000000000000000000\n      dup2\n      mstore\n      0x04\n      add\n      tag_58\n      swap1\n      tag_59\n      jump\t// in\n    tag_58:\n      mload(0x40)\n      dup1\n      swap2\n      sub\n      swap1\n      revert\n    tag_57:\n        /* \"Contracts/Tavern.sol\":2145:2158  uint256 wager */\n      0x00\n        /* \"Contracts/Tavern.sol\":2161:2170  msg.value */\n      callvalue\n        /* \"Contracts/Tavern.sol\":2145:2170  uint256 wager = msg.value */\n      swap1\n      pop\n        /* \"Contracts/Tavern.sol\":2196:2197  0 */\n      0x00\n        /* \"Contracts/Tavern.sol\":2188:2193  wager */\n      dup2\n        /* \"Contracts/Tavern.sol\":2188:2197  wager > 0 */\n      gt\n        /* \"Contracts/Tavern.sol\":2188:2216  wager > 0 && wager <= maxBet */\n      dup1\n      iszero\n      tag_60\n      jumpi\n      pop\n        /* \"Contracts/Tavern.sol\":2210:2216  maxBet */\n      sload(0x02)\n        /* \"Contracts/Tavern.sol\":2201:2206  wager */\n      dup2\n        /* \"Contracts/Tavern.sol\":2201:2216  wager <= maxBet */\n      gt\n      iszero\n        /* \"Contracts/Tavern.sol\":2188:2216  wager > 0 && wager <= maxBet */\n    tag_60:\n        /* \"Contracts/Tavern.sol\":2180:2230  require(wager > 0 && wager <= maxBet, \"bad wager\") */\n      tag_61\n      jumpi\n      mload(0x40)\n      0x08c379a000000000000000000000000000000000000000000000000000000000\n      dup2\n      mstore\n      0x04\n      add\n      tag_62\n      swap1\n      tag_63\n      jump\t// in\n    tag_62:\n      mload(0x40)\n      dup1\n      swap2\n      sub\n      swap1\n      revert\n    tag_61:\n        /* \"Contracts/Tavern.sol\":2281:2282  2 */\n      0x02\n        /* \"Contracts/Tavern.sol\":2273:2278  wager */\n      dup2\n        /* \"Contracts/Tavern.sol\":2273:2282  wager * 2 */\n      tag_64\n      swap2\n      swap1\n      tag_65\n      jump\t// in\n    tag_64:\n        /* \"Contracts/Tavern.sol\":2248:2269  address(this).balance */\n      selfbalance\n        /* \"Contracts/Tavern.sol\":2248:2282  address(this).balance >= wager * 2 */\n      lt\n      iszero\n        /* \"Contracts/Tavern.sol\":2240:2299  require(address(this).balance >= wager * 2, \"bankroll low\") */\n      tag_66\n      jumpi\n      mload(0x40)\n      0x08c379a000000000000000000000000000000000000000000000000000000000\n      dup2\n      mstore\n      0x04\n      add\n      tag_67\n      swap1\n      tag_68\n      jump\t// in\n    tag_67:\n      mload(0x40)\n      dup1\n      swap2\n      sub\n      swap1\n      revert\n    tag_66:\n        /* \"Contracts/Tavern.sol\":2310:2326  uint8 winningCup */\n      0x00\n        /* \"Contracts/Tavern.sol\":2335:2343  _rand(3) */\n      tag_69\n        /* \"Contracts/Tavern.sol\":2341:2342  3 */\n      0x03\n        /* \"Contracts/Tavern.sol\":2335:2340  _rand */\n      tag_70\n        /* \"Contracts/Tavern.sol\":2335:2343  _rand(3) */\n      jump\t// in\n    tag_69:\n        /* \"Contracts/Tavern.sol\":2310:2344  uint8 winningCup = uint8(_rand(3)) */\n      swap1\n      pop\n        /* \"Contracts/Tavern.sol\":2354:2362  bool won */\n      0x00\n        /* \"Contracts/Tavern.sol\":2380:2385  guess */\n      dup4\n        /* \"Contracts/Tavern.sol\":2366:2385  winningCup == guess */\n      0xff\n      and\n        /* \"Contracts/Tavern.sol\":2366:2376  winningCup */\n      dup3\n        /* \"Contracts/Tavern.sol\":2366:2385  winningCup == guess */\n      0xff\n      and\n      eq\n        /* \"Contracts/Tavern.sol\":2354:2386  bool won = (winningCup == guess) */\n      swap1\n      pop\n        /* \"Contracts/Tavern.sol\":2400:2403  won */\n      dup1\n        /* \"Contracts/Tavern.sol\":2396:2521  if (won) {... */\n      iszero\n      tag_71\n      jumpi\n        /* \"Contracts/Tavern.sol\":2479:2489  msg.sender */\n      caller\n        /* \"Contracts/Tavern.sol\":2471:2499  payable(msg.sender).transfer */\n      0xffffffffffffffffffffffffffffffffffffffff\n      and\n        /* \"Contracts/Tavern.sol\":2471:2510  payable(msg.sender).transfer(wager * 2) */\n      0x08fc\n        /* \"Contracts/Tavern.sol\":2508:2509  2 */\n      0x02\n        /* \"Contracts/Tavern.sol\":2500:2505  wager */\n      dup6\n        /* \"Contracts/Tavern.sol\":2500:2509  wager * 2 */\n      tag_72\n      swap2\n      swap1\n      tag_65\n      jump\t// in\n    tag_72:\n        /* \"Contracts/Tavern.sol\":2471:2510  payable(msg.sender).transfer(wager * 2) */\n      swap1\n      dup2\n      iszero\n      mul\n      swap1\n      mload(0x40)\n      0x00\n      mload(0x40)\n      dup1\n      dup4\n      sub\n      dup2\n      dup6\n      dup9\n      dup9\n      call\n      swap4\n      pop\n      pop\n      pop\n      pop\n      iszero\n      dup1\n      iszero\n      tag_74\n      jumpi\n      returndatasize\n      0x00\n      dup1\n      returndatacopy\n      revert(0x00, returndatasize)\n    tag_74:\n      pop\n        /* \"Contracts/Tavern.sol\":2396:2521  if (won) {... */\n    tag_71:\n        /* \"Contracts/Tavern.sol\":2547:2557  msg.sender */\n      caller\n        /* \"Contracts/Tavern.sol\":2535:2589  ShellPlayed(msg.sender, wager, won, winningCup, guess) */\n      0xffffffffffffffffffffffffffffffffffffffff\n      and\n      0xf8f3c747b75419bd578197d83f20823bb034bcdf041645c86bcfc9d97263a89e\n        /* \"Contracts/Tavern.sol\":2559:2564  wager */\n      dup5\n        /* \"Contracts/Tavern.sol\":2566:2569  won */\n      dup4\n        /* \"Contracts/Tavern.sol\":2571:2581  winningCup */\n      dup6\n        /* \"Contracts/Tavern.sol\":2583:2588  guess */\n      dup9\n        /* \"Contracts/Tavern.sol\":2535:2589  ShellPlayed(msg.sender, wager, won, winningCup, guess) */\n      mload(0x40)\n      tag_75\n      swap5\n      swap4\n      swap3\n      swap2\n      swap1\n      tag_76\n      jump\t// in\n    tag_75:\n      mload(0x40)\n      dup1\n      swap2\n      sub\n      swap1\n      log2\n        /* \"Contracts/Tavern.sol\":2094:2596  {... */\n      pop\n      pop\n      pop\n        /* \"Contracts/Tavern.sol\":600:601  1 */\n      0x01\n        /* \"Contracts/Tavern.sol\":590:597  _locked */\n      dup1\n        /* \"Contracts/Tavern.sol\":590:601  _locked = 1 */\n      dup2\n      swap1\n      sstore\n      pop\n        /* \"Contracts/Tavern.sol\":2032:2596  function playShell(uint8 guess) external payable nonReentrant {... */\n      pop\n      jump\t// out\n        /* \"Contracts/Tavern.sol\":1000:1032  uint256 public maxBet = 10 ether */\n    tag_21:\n      sload(0x02)\n      dup2\n      jump\t// out\n        /* \"Contracts/Tavern.sol\":1385:1455  function setMaxBet(uint256 _max) external onlyOwner { maxBet = _max; } */\n    tag_28:\n        /* \"Contracts/Tavern.sol\":422:427  owner */\n      0x00\n      dup1\n      sload\n      swap1\n      0x0100\n      exp\n      swap1\n      div\n      0xffffffffffffffffffffffffffffffffffffffff\n      and\n        /* \"Contracts/Tavern.sol\":408:427  msg.sender == owner */\n      0xffffffffffffffffffffffffffffffffffffffff\n      and\n        /* \"Contracts/Tavern.sol\":408:418  msg.sender */\n      caller\n        /* \"Contracts/Tavern.sol\":408:427  msg.sender == owner */\n      0xffffffffffffffffffffffffffffffffffffffff\n      and\n      eq\n        /* \"Contracts/Tavern.sol\":400:441  require(msg.sender == owner, \"not owner\") */\n      tag_78\n      jumpi\n      mload(0x40)\n      0x08c379a000000000000000000000000000000000000000000000000000000000\n      dup2\n      mstore\n      0x04\n      add\n      tag_79\n      swap1\n      tag_80\n      jump\t// in\n    tag_79:\n      mload(0x40)\n      dup1\n      swap2\n      sub\n      swap1\n      revert\n    tag_78:\n        /* \"Contracts/Tavern.sol\":1448:1452  _max */\n      dup1\n        /* \"Contracts/Tavern.sol\":1439:1445  maxBet */\n      0x02\n        /* \"Contracts/Tavern.sol\":1439:1452  maxBet = _max */\n      dup2\n      swap1\n      sstore\n      pop\n        /* \"Contracts/Tavern.sol\":1385:1455  function setMaxBet(uint256 _max) external onlyOwner { maxBet = _max; } */\n      pop\n      jump\t// out\n        /* \"Contracts/Tavern.sol\":351:371  address public owner */\n    tag_31:\n      0x00\n      dup1\n      sload\n      swap1\n      0x0100\n      exp\n      swap1\n      div\n      0xffffffffffffffffffffffffffffffffffffffff\n      and\n      dup2\n      jump\t// out\n        /* \"Contracts/Tavern.sol\":2646:3918  function playHazard(uint8 main) external payable nonReentrant {... */\n    tag_36:\n        /* \"Contracts/Tavern.sol\":557:558  1 */\n      0x01\n        /* \"Contracts/Tavern.sol\":546:553  _locked */\n      dup1\n      sload\n        /* \"Contracts/Tavern.sol\":546:558  _locked == 1 */\n      eq\n        /* \"Contracts/Tavern.sol\":538:572  require(_locked == 1, \"reentrant\") */\n      tag_83\n      jumpi\n      mload(0x40)\n      0x08c379a000000000000000000000000000000000000000000000000000000000\n      dup2\n      mstore\n      0x04\n      add\n      tag_84\n      swap1\n      tag_55\n      jump\t// in\n    tag_84:\n      mload(0x40)\n      dup1\n      swap2\n      sub\n      swap1\n      revert\n    tag_83:\n        /* \"Contracts/Tavern.sol\":584:585  2 */\n      0x02\n        /* \"Contracts/Tavern.sol\":574:581  _locked */\n      0x01\n        /* \"Contracts/Tavern.sol\":574:585  _locked = 2 */\n      dup2\n      swap1\n      sstore\n      pop\n        /* \"Contracts/Tavern.sol\":2734:2735  5 */\n      0x05\n        /* \"Contracts/Tavern.sol\":2726:2730  main */\n      dup2\n        /* \"Contracts/Tavern.sol\":2726:2735  main >= 5 */\n      0xff\n      and\n      lt\n      iszero\n        /* \"Contracts/Tavern.sol\":2726:2748  main >= 5 && main <= 9 */\n      dup1\n      iszero\n      tag_86\n      jumpi\n      pop\n        /* \"Contracts/Tavern.sol\":2747:2748  9 */\n      0x09\n        /* \"Contracts/Tavern.sol\":2739:2743  main */\n      dup2\n        /* \"Contracts/Tavern.sol\":2739:2748  main <= 9 */\n      0xff\n      and\n      gt\n      iszero\n        /* \"Contracts/Tavern.sol\":2726:2748  main >= 5 && main <= 9 */\n    tag_86:\n        /* \"Contracts/Tavern.sol\":2718:2761  require(main >= 5 && main <= 9, \"bad main\") */\n      tag_87\n      jumpi\n      mload(0x40)\n      0x08c379a000000000000000000000000000000000000000000000000000000000\n      dup2\n      mstore\n      0x04\n      add\n      tag_88\n      swap1\n      tag_89\n      jump\t// in\n    tag_88:\n      mload(0x40)\n      dup1\n      swap2\n      sub\n      swap1\n      revert\n    tag_87:\n        /* \"Contracts/Tavern.sol\":2771:2784  uint256 wager */\n      0x00\n        /* \"Contracts/Tavern.sol\":2787:2796  msg.value */\n      callvalue\n        /* \"Contracts/Tavern.sol\":2771:2796  uint256 wager = msg.value */\n      swap1\n      pop\n        /* \"Contracts/Tavern.sol\":2822:2823  0 */\n      0x00\n        /* \"Contracts/Tavern.sol\":2814:2819  wager */\n      dup2\n        /* \"Contracts/Tavern.sol\":2814:2823  wager > 0 */\n      gt\n        /* \"Contracts/Tavern.sol\":2814:2842  wager > 0 && wager <= maxBet */\n      dup1\n      iszero\n      tag_90\n      jumpi\n      pop\n        /* \"Contracts/Tavern.sol\":2836:2842  maxBet */\n      sload(0x02)\n        /* \"Contracts/Tavern.sol\":2827:2832  wager */\n      dup2\n        /* \"Contracts/Tavern.sol\":2827:2842  wager <= maxBet */\n      gt\n      iszero\n        /* \"Contracts/Tavern.sol\":2814:2842  wager > 0 && wager <= maxBet */\n    tag_90:\n        /* \"Contracts/Tavern.sol\":2806:2856  require(wager > 0 && wager <= maxBet, \"bad wager\") */\n      tag_91\n      jumpi\n      mload(0x40)\n      0x08c379a000000000000000000000000000000000000000000000000000000000\n      dup2\n      mstore\n      0x04\n      add\n      tag_92\n      swap1\n      tag_63\n      jump\t// in\n    tag_92:\n      mload(0x40)\n      dup1\n      swap2\n      sub\n      swap1\n      revert\n    tag_91:\n        /* \"Contracts/Tavern.sol\":2907:2908  2 */\n      0x02\n        /* \"Contracts/Tavern.sol\":2899:2904  wager */\n      dup2\n        /* \"Contracts/Tavern.sol\":2899:2908  wager * 2 */\n      tag_93\n      swap2\n      swap1\n      tag_65\n      jump\t// in\n    tag_93:\n        /* \"Contracts/Tavern.sol\":2874:2895  address(this).balance */\n      selfbalance\n        /* \"Contracts/Tavern.sol\":2874:2908  address(this).balance >= wager * 2 */\n      lt\n      iszero\n        /* \"Contracts/Tavern.sol\":2866:2925  require(address(this).balance >= wager * 2, \"bankroll low\") */\n      tag_94\n      jumpi\n      mload(0x40)\n      0x08c379a000000000000000000000000000000000000000000000000000000000\n      dup2\n      mstore\n      0x04\n      add\n      tag_95\n      swap1\n      tag_68\n      jump\t// in\n    tag_95:\n      mload(0x40)\n      dup1\n      swap2\n      sub\n      swap1\n      revert\n    tag_94:\n        /* \"Contracts/Tavern.sol\":2958:2967  uint8 sum */\n      0x00\n        /* \"Contracts/Tavern.sol\":2970:2980  _rollSum() */\n      tag_96\n        /* \"Contracts/Tavern.sol\":2970:2978  _rollSum */\n      tag_97\n        /* \"Contracts/Tavern.sol\":2970:2980  _rollSum() */\n      jump\t// in\n    tag_96:\n        /* \"Contracts/Tavern.sol\":2958:2980  uint8 sum = _rollSum() */\n      swap1\n      pop\n        /* \"Contracts/Tavern.sol\":2990:3002  uint8 chance */\n      0x00\n        /* \"Contracts/Tavern.sol\":3016:3032  uint8 iterations */\n      dup1\n        /* \"Contracts/Tavern.sol\":3035:3036  1 */\n      0x01\n        /* \"Contracts/Tavern.sol\":3016:3036  uint8 iterations = 1 */\n      swap1\n      pop\n        /* \"Contracts/Tavern.sol\":3046:3054  bool win */\n      0x00\n        /* \"Contracts/Tavern.sol\":3076:3080  main */\n      dup6\n        /* \"Contracts/Tavern.sol\":3069:3080  sum == main */\n      0xff\n      and\n        /* \"Contracts/Tavern.sol\":3069:3072  sum */\n      dup5\n        /* \"Contracts/Tavern.sol\":3069:3080  sum == main */\n      0xff\n      and\n      sub\n        /* \"Contracts/Tavern.sol\":3065:3747  if (sum == main) {... */\n      tag_98\n      jumpi\n        /* \"Contracts/Tavern.sol\":3102:3106  true */\n      0x01\n        /* \"Contracts/Tavern.sol\":3096:3106  win = true */\n      swap1\n      pop\n        /* \"Contracts/Tavern.sol\":3065:3747  if (sum == main) {... */\n      jump(tag_99)\n    tag_98:\n        /* \"Contracts/Tavern.sol\":3134:3135  2 */\n      0x02\n        /* \"Contracts/Tavern.sol\":3127:3130  sum */\n      dup5\n        /* \"Contracts/Tavern.sol\":3127:3135  sum == 2 */\n      0xff\n      and\n      eq\n        /* \"Contracts/Tavern.sol\":3127:3147  sum == 2 || sum == 3 */\n      dup1\n      tag_100\n      jumpi\n      pop\n        /* \"Contracts/Tavern.sol\":3146:3147  3 */\n      0x03\n        /* \"Contracts/Tavern.sol\":3139:3142  sum */\n      dup5\n        /* \"Contracts/Tavern.sol\":3139:3147  sum == 3 */\n      0xff\n      and\n      eq\n        /* \"Contracts/Tavern.sol\":3127:3147  sum == 2 || sum == 3 */\n    tag_100:\n        /* \"Contracts/Tavern.sol\":3123:3747  if (sum == 2 || sum == 3) {... */\n      iszero\n      tag_101\n      jumpi\n        /* \"Contracts/Tavern.sol\":3169:3174  false */\n      0x00\n        /* \"Contracts/Tavern.sol\":3163:3174  win = false */\n      swap1\n      pop\n        /* \"Contracts/Tavern.sol\":3123:3747  if (sum == 2 || sum == 3) {... */\n      jump(tag_102)\n    tag_101:\n        /* \"Contracts/Tavern.sol\":3202:3204  11 */\n      0x0b\n        /* \"Contracts/Tavern.sol\":3195:3198  sum */\n      dup5\n        /* \"Contracts/Tavern.sol\":3195:3204  sum == 11 */\n      0xff\n      and\n      eq\n        /* \"Contracts/Tavern.sol\":3195:3217  sum == 11 || sum == 12 */\n      dup1\n      tag_103\n      jumpi\n      pop\n        /* \"Contracts/Tavern.sol\":3215:3217  12 */\n      0x0c\n        /* \"Contracts/Tavern.sol\":3208:3211  sum */\n      dup5\n        /* \"Contracts/Tavern.sol\":3208:3217  sum == 12 */\n      0xff\n      and\n      eq\n        /* \"Contracts/Tavern.sol\":3195:3217  sum == 11 || sum == 12 */\n    tag_103:\n        /* \"Contracts/Tavern.sol\":3191:3747  if (sum == 11 || sum == 12) {... */\n      iszero\n      tag_104\n      jumpi\n        /* \"Contracts/Tavern.sol\":3245:3246  7 */\n      0x07\n        /* \"Contracts/Tavern.sol\":3237:3241  main */\n      dup7\n        /* \"Contracts/Tavern.sol\":3237:3246  main == 7 */\n      0xff\n      and\n      sub\n        /* \"Contracts/Tavern.sol\":3233:3322  if (main == 7) win = false; else if (main == 5 || main == 9) win = true; else win = false */\n      tag_105\n      jumpi\n        /* \"Contracts/Tavern.sol\":3254:3259  false */\n      0x00\n        /* \"Contracts/Tavern.sol\":3248:3259  win = false */\n      swap1\n      pop\n        /* \"Contracts/Tavern.sol\":3233:3322  if (main == 7) win = false; else if (main == 5 || main == 9) win = true; else win = false */\n      jump(tag_106)\n    tag_105:\n        /* \"Contracts/Tavern.sol\":3278:3279  5 */\n      0x05\n        /* \"Contracts/Tavern.sol\":3270:3274  main */\n      dup7\n        /* \"Contracts/Tavern.sol\":3270:3279  main == 5 */\n      0xff\n      and\n      eq\n        /* \"Contracts/Tavern.sol\":3270:3292  main == 5 || main == 9 */\n      dup1\n      tag_107\n      jumpi\n      pop\n        /* \"Contracts/Tavern.sol\":3291:3292  9 */\n      0x09\n        /* \"Contracts/Tavern.sol\":3283:3287  main */\n      dup7\n        /* \"Contracts/Tavern.sol\":3283:3292  main == 9 */\n      0xff\n      and\n      eq\n        /* \"Contracts/Tavern.sol\":3270:3292  main == 5 || main == 9 */\n    tag_107:\n        /* \"Contracts/Tavern.sol\":3266:3322  if (main == 5 || main == 9) win = true; else win = false */\n      iszero\n      tag_108\n      jumpi\n        /* \"Contracts/Tavern.sol\":3300:3304  true */\n      0x01\n        /* \"Contracts/Tavern.sol\":3294:3304  win = true */\n      swap1\n      pop\n        /* \"Contracts/Tavern.sol\":3266:3322  if (main == 5 || main == 9) win = true; else win = false */\n      jump(tag_109)\n    tag_108:\n        /* \"Contracts/Tavern.sol\":3317:3322  false */\n      0x00\n        /* \"Contracts/Tavern.sol\":3311:3322  win = false */\n      swap1\n      pop\n        /* \"Contracts/Tavern.sol\":3266:3322  if (main == 5 || main == 9) win = true; else win = false */\n    tag_109:\n        /* \"Contracts/Tavern.sol\":3233:3322  if (main == 7) win = false; else if (main == 5 || main == 9) win = true; else win = false */\n    tag_106:\n        /* \"Contracts/Tavern.sol\":3191:3747  if (sum == 11 || sum == 12) {... */\n      jump(tag_110)\n    tag_104:\n        /* \"Contracts/Tavern.sol\":3394:3397  sum */\n      dup4\n        /* \"Contracts/Tavern.sol\":3385:3397  chance = sum */\n      swap3\n      pop\n        /* \"Contracts/Tavern.sol\":3517:3524  uint8 i */\n      0x00\n        /* \"Contracts/Tavern.sol\":3512:3737  for (uint8 i = 0; i < 64; i++) {... */\n    tag_111:\n        /* \"Contracts/Tavern.sol\":3534:3536  64 */\n      0x40\n        /* \"Contracts/Tavern.sol\":3530:3531  i */\n      dup2\n        /* \"Contracts/Tavern.sol\":3530:3536  i < 64 */\n      0xff\n      and\n      lt\n        /* \"Contracts/Tavern.sol\":3512:3737  for (uint8 i = 0; i < 64; i++) {... */\n      iszero\n      tag_112\n      jumpi\n        /* \"Contracts/Tavern.sol\":3567:3577  _rollSum() */\n      tag_114\n        /* \"Contracts/Tavern.sol\":3567:3575  _rollSum */\n      tag_97\n        /* \"Contracts/Tavern.sol\":3567:3577  _rollSum() */\n      jump\t// in\n    tag_114:\n        /* \"Contracts/Tavern.sol\":3561:3577  sum = _rollSum() */\n      swap5\n      pop\n        /* \"Contracts/Tavern.sol\":3595:3607  iterations++ */\n      dup3\n      dup1\n      tag_115\n      swap1\n      tag_116\n      jump\t// in\n    tag_115:\n      swap4\n      pop\n      pop\n        /* \"Contracts/Tavern.sol\":3636:3642  chance */\n      dup4\n        /* \"Contracts/Tavern.sol\":3629:3642  sum == chance */\n      0xff\n      and\n        /* \"Contracts/Tavern.sol\":3629:3632  sum */\n      dup6\n        /* \"Contracts/Tavern.sol\":3629:3642  sum == chance */\n      0xff\n      and\n      sub\n        /* \"Contracts/Tavern.sol\":3625:3666  if (sum == chance) { win = true; break; } */\n      tag_117\n      jumpi\n        /* \"Contracts/Tavern.sol\":3652:3656  true */\n      0x01\n        /* \"Contracts/Tavern.sol\":3646:3656  win = true */\n      swap2\n      pop\n        /* \"Contracts/Tavern.sol\":3658:3663  break */\n      jump(tag_112)\n        /* \"Contracts/Tavern.sol\":3625:3666  if (sum == chance) { win = true; break; } */\n    tag_117:\n        /* \"Contracts/Tavern.sol\":3694:3698  main */\n      dup7\n        /* \"Contracts/Tavern.sol\":3687:3698  sum == main */\n      0xff\n      and\n        /* \"Contracts/Tavern.sol\":3687:3690  sum */\n      dup6\n        /* \"Contracts/Tavern.sol\":3687:3698  sum == main */\n      0xff\n      and\n      sub\n        /* \"Contracts/Tavern.sol\":3683:3723  if (sum == main) { win = false; break; } */\n      tag_118\n      jumpi\n        /* \"Contracts/Tavern.sol\":3708:3713  false */\n      0x00\n        /* \"Contracts/Tavern.sol\":3702:3713  win = false */\n      swap2\n      pop\n        /* \"Contracts/Tavern.sol\":3715:3720  break */\n      jump(tag_112)\n        /* \"Contracts/Tavern.sol\":3683:3723  if (sum == main) { win = false; break; } */\n    tag_118:\n        /* \"Contracts/Tavern.sol\":3538:3541  i++ */\n      dup1\n      dup1\n      0x01\n      add\n      swap2\n      pop\n      pop\n        /* \"Contracts/Tavern.sol\":3512:3737  for (uint8 i = 0; i < 64; i++) {... */\n      jump(tag_111)\n    tag_112:\n      pop\n        /* \"Contracts/Tavern.sol\":3191:3747  if (sum == 11 || sum == 12) {... */\n    tag_110:\n        /* \"Contracts/Tavern.sol\":3123:3747  if (sum == 2 || sum == 3) {... */\n    tag_102:\n        /* \"Contracts/Tavern.sol\":3065:3747  if (sum == main) {... */\n    tag_99:\n        /* \"Contracts/Tavern.sol\":3761:3764  win */\n      dup1\n        /* \"Contracts/Tavern.sol\":3757:3830  if (win) {... */\n      iszero\n      tag_119\n      jumpi\n        /* \"Contracts/Tavern.sol\":3788:3798  msg.sender */\n      caller\n        /* \"Contracts/Tavern.sol\":3780:3808  payable(msg.sender).transfer */\n      0xffffffffffffffffffffffffffffffffffffffff\n      and\n        /* \"Contracts/Tavern.sol\":3780:3819  payable(msg.sender).transfer(wager * 2) */\n      0x08fc\n        /* \"Contracts/Tavern.sol\":3817:3818  2 */\n      0x02\n        /* \"Contracts/Tavern.sol\":3809:3814  wager */\n      dup8\n        /* \"Contracts/Tavern.sol\":3809:3818  wager * 2 */\n      tag_120\n      swap2\n      swap1\n      tag_65\n      jump\t// in\n    tag_120:\n        /* \"Contracts/Tavern.sol\":3780:3819  payable(msg.sender).transfer(wager * 2) */\n      swap1\n      dup2\n      iszero\n      mul\n      swap1\n      mload(0x40)\n      0x00\n      mload(0x40)\n      dup1\n      dup4\n      sub\n      dup2\n      dup6\n      dup9\n      dup9\n      call\n      swap4\n      pop\n      pop\n      pop\n      pop\n      iszero\n      dup1\n      iszero\n      tag_122\n      jumpi\n      returndatasize\n      0x00\n      dup1\n      returndatacopy\n      revert(0x00, returndatasize)\n    tag_122:\n      pop\n        /* \"Contracts/Tavern.sol\":3757:3830  if (win) {... */\n    tag_119:\n        /* \"Contracts/Tavern.sol\":3857:3867  msg.sender */\n      caller\n        /* \"Contracts/Tavern.sol\":3844:3911  HazardPlayed(msg.sender, wager, win, main, sum, chance, iterations) */\n      0xffffffffffffffffffffffffffffffffffffffff\n      and\n      0x5a08ed90cb799d1b0281213096fc06cd7e7ab84f1e2e4b8947282b4f3712b4c6\n        /* \"Contracts/Tavern.sol\":3869:3874  wager */\n      dup7\n        /* \"Contracts/Tavern.sol\":3876:3879  win */\n      dup4\n        /* \"Contracts/Tavern.sol\":3881:3885  main */\n      dup10\n        /* \"Contracts/Tavern.sol\":3887:3890  sum */\n      dup9\n        /* \"Contracts/Tavern.sol\":3892:3898  chance */\n      dup9\n        /* \"Contracts/Tavern.sol\":3900:3910  iterations */\n      dup9\n        /* \"Contracts/Tavern.sol\":3844:3911  HazardPlayed(msg.sender, wager, win, main, sum, chance, iterations) */\n      mload(0x40)\n      tag_123\n      swap7\n      swap6\n      swap5\n      swap4\n      swap3\n      swap2\n      swap1\n      tag_124\n      jump\t// in\n    tag_123:\n      mload(0x40)\n      dup1\n      swap2\n      sub\n      swap1\n      log2\n        /* \"Contracts/Tavern.sol\":2708:3918  {... */\n      pop\n      pop\n      pop\n      pop\n      pop\n        /* \"Contracts/Tavern.sol\":600:601  1 */\n      0x01\n        /* \"Contracts/Tavern.sol\":590:597  _locked */\n      dup1\n        /* \"Contracts/Tavern.sol\":590:601  _locked = 1 */\n      dup2\n      swap1\n      sstore\n      pop\n        /* \"Contracts/Tavern.sol\":2646:3918  function playHazard(uint8 main) external payable nonReentrant {... */\n      pop\n      jump\t// out\n        /* \"Contracts/Tavern.sol\":1038:1058  uint256 public nonce */\n    tag_39:\n      sload(0x03)\n      dup2\n      jump\t// out\n        /* \"Contracts/Tavern.sol\":1165:1200  function fund() external payable {} */\n    tag_42:\n      jump\t// out\n        /* \"Contracts/Tavern.sol\":3962:4432  function playCoin(bool chooseChog) external payable nonReentrant {... */\n    tag_46:\n        /* \"Contracts/Tavern.sol\":557:558  1 */\n      0x01\n        /* \"Contracts/Tavern.sol\":546:553  _locked */\n      dup1\n      sload\n        /* \"Contracts/Tavern.sol\":546:558  _locked == 1 */\n      eq\n        /* \"Contracts/Tavern.sol\":538:572  require(_locked == 1, \"reentrant\") */\n      tag_127\n      jumpi\n      mload(0x40)\n      0x08c379a000000000000000000000000000000000000000000000000000000000\n      dup2\n      mstore\n      0x04\n      add\n      tag_128\n      swap1\n      tag_55\n      jump\t// in\n    tag_128:\n      mload(0x40)\n      dup1\n      swap2\n      sub\n      swap1\n      revert\n    tag_127:\n        /* \"Contracts/Tavern.sol\":584:585  2 */\n      0x02\n        /* \"Contracts/Tavern.sol\":574:581  _locked */\n      0x01\n        /* \"Contracts/Tavern.sol\":574:585  _locked = 2 */\n      dup2\n      swap1\n      sstore\n      pop\n        /* \"Contracts/Tavern.sol\":4037:4050  uint256 wager */\n      0x00\n        /* \"Contracts/Tavern.sol\":4053:4062  msg.value */\n      callvalue\n        /* \"Contracts/Tavern.sol\":4037:4062  uint256 wager = msg.value */\n      swap1\n      pop\n        /* \"Contracts/Tavern.sol\":4088:4089  0 */\n      0x00\n        /* \"Contracts/Tavern.sol\":4080:4085  wager */\n      dup2\n        /* \"Contracts/Tavern.sol\":4080:4089  wager > 0 */\n      gt\n        /* \"Contracts/Tavern.sol\":4080:4108  wager > 0 && wager <= maxBet */\n      dup1\n      iszero\n      tag_130\n      jumpi\n      pop\n        /* \"Contracts/Tavern.sol\":4102:4108  maxBet */\n      sload(0x02)\n        /* \"Contracts/Tavern.sol\":4093:4098  wager */\n      dup2\n        /* \"Contracts/Tavern.sol\":4093:4108  wager <= maxBet */\n      gt\n      iszero\n        /* \"Contracts/Tavern.sol\":4080:4108  wager > 0 && wager <= maxBet */\n    tag_130:\n        /* \"Contracts/Tavern.sol\":4072:4122  require(wager > 0 && wager <= maxBet, \"bad wager\") */\n      tag_131\n      jumpi\n      mload(0x40)\n      0x08c379a000000000000000000000000000000000000000000000000000000000\n      dup2\n      mstore\n      0x04\n      add\n      tag_132\n      swap1\n      tag_63\n      jump\t// in\n    tag_132:\n      mload(0x40)\n      dup1\n      swap2\n      sub\n      swap1\n      revert\n    tag_131:\n        /* \"Contracts/Tavern.sol\":4173:4174  2 */\n      0x02\n        /* \"Contracts/Tavern.sol\":4165:4170  wager */\n      dup2\n        /* \"Contracts/Tavern.sol\":4165:4174  wager * 2 */\n      tag_133\n      swap2\n      swap1\n      tag_65\n      jump\t// in\n    tag_133:\n        /* \"Contracts/Tavern.sol\":4140:4161  address(this).balance */\n      selfbalance\n        /* \"Contracts/Tavern.sol\":4140:4174  address(this).balance >= wager * 2 */\n      lt\n      iszero\n        /* \"Contracts/Tavern.sol\":4132:4191  require(address(this).balance >= wager * 2, \"bankroll low\") */\n      tag_134\n      jumpi\n      mload(0x40)\n      0x08c379a000000000000000000000000000000000000000000000000000000000\n      dup2\n      mstore\n      0x04\n      add\n      tag_135\n      swap1\n      tag_68\n      jump\t// in\n    tag_135:\n      mload(0x40)\n      dup1\n      swap2\n      sub\n      swap1\n      revert\n    tag_134:\n        /* \"Contracts/Tavern.sol\":4202:4217  bool resultChog */\n      0x00\n        /* \"Contracts/Tavern.sol\":4233:4234  1 */\n      0x01\n        /* \"Contracts/Tavern.sol\":4221:4229  _rand(2) */\n      tag_136\n        /* \"Contracts/Tavern.sol\":4227:4228  2 */\n      0x02\n        /* \"Contracts/Tavern.sol\":4221:4226  _rand */\n      tag_70\n        /* \"Contracts/Tavern.sol\":4221:4229  _rand(2) */\n      jump\t// in\n    tag_136:\n        /* \"Contracts/Tavern.sol\":4221:4234  _rand(2) == 1 */\n      eq\n        /* \"Contracts/Tavern.sol\":4202:4235  bool resultChog = (_rand(2) == 1) */\n      swap1\n      pop\n        /* \"Contracts/Tavern.sol\":4245:4253  bool won */\n      0x00\n        /* \"Contracts/Tavern.sol\":4271:4281  chooseChog */\n      dup4\n        /* \"Contracts/Tavern.sol\":4257:4281  resultChog == chooseChog */\n      iszero\n      iszero\n        /* \"Contracts/Tavern.sol\":4257:4267  resultChog */\n      dup3\n        /* \"Contracts/Tavern.sol\":4257:4281  resultChog == chooseChog */\n      iszero\n      iszero\n      eq\n        /* \"Contracts/Tavern.sol\":4245:4282  bool won = (resultChog == chooseChog) */\n      swap1\n      pop\n        /* \"Contracts/Tavern.sol\":4296:4299  won */\n      dup1\n        /* \"Contracts/Tavern.sol\":4292:4365  if (won) {... */\n      iszero\n      tag_137\n      jumpi\n        /* \"Contracts/Tavern.sol\":4323:4333  msg.sender */\n      caller\n        /* \"Contracts/Tavern.sol\":4315:4343  payable(msg.sender).transfer */\n      0xffffffffffffffffffffffffffffffffffffffff\n      and\n        /* \"Contracts/Tavern.sol\":4315:4354  payable(msg.sender).transfer(wager * 2) */\n      0x08fc\n        /* \"Contracts/Tavern.sol\":4352:4353  2 */\n      0x02\n        /* \"Contracts/Tavern.sol\":4344:4349  wager */\n      dup6\n        /* \"Contracts/Tavern.sol\":4344:4353  wager * 2 */\n      tag_138\n      swap2\n      swap1\n      tag_65\n      jump\t// in\n    tag_138:\n        /* \"Contracts/Tavern.sol\":4315:4354  payable(msg.sender).transfer(wager * 2) */\n      swap1\n      dup2\n      iszero\n      mul\n      swap1\n      mload(0x40)\n      0x00\n      mload(0x40)\n      dup1\n      dup4\n      sub\n      dup2\n      dup6\n      dup9\n      dup9\n      call\n      swap4\n      pop\n      pop\n      pop\n      pop\n      iszero\n      dup1\n      iszero\n      tag_140\n      jumpi\n      returndatasize\n      0x00\n      dup1\n      returndatacopy\n      revert(0x00, returndatasize)\n    tag_140:\n      pop\n        /* \"Contracts/Tavern.sol\":4292:4365  if (won) {... */\n    tag_137:\n        /* \"Contracts/Tavern.sol\":4390:4400  msg.sender */\n      caller\n        /* \"Contracts/Tavern.sol\":4379:4425  CoinPlayed(msg.sender, wager, won, resultChog) */\n      0xffffffffffffffffffffffffffffffffffffffff\n      and\n      0xe4e7f0a0e6fc393a5af5b89ee2fe9a7267a850bbcc8ec0e4571f51a17ed1d97e\n        /* \"Contracts/Tavern.sol\":4402:4407  wager */\n      dup5\n        /* \"Contracts/Tavern.sol\":4409:4412  won */\n      dup4\n        /* \"Contracts/Tavern.sol\":4414:4424  resultChog */\n      dup6\n        /* \"Contracts/Tavern.sol\":4379:4425  CoinPlayed(msg.sender, wager, won, resultChog) */\n      mload(0x40)\n      tag_141\n      swap4\n      swap3\n      swap2\n      swap1\n      tag_142\n      jump\t// in\n    tag_141:\n      mload(0x40)\n      dup1\n      swap2\n      sub\n      swap1\n      log2\n        /* \"Contracts/Tavern.sol\":4027:4432  {... */\n      pop\n      pop\n      pop\n        /* \"Contracts/Tavern.sol\":600:601  1 */\n      0x01\n        /* \"Contracts/Tavern.sol\":590:597  _locked */\n      dup1\n        /* \"Contracts/Tavern.sol\":590:601  _locked = 1 */\n      dup2\n      swap1\n      sstore\n      pop\n        /* \"Contracts/Tavern.sol\":3962:4432  function playCoin(bool chooseChog) external payable nonReentrant {... */\n      pop\n      jump\t// out\n        /* \"Contracts/Tavern.sol\":1205:1380  function withdraw(address payable to, uint256 amount) external onlyOwner {... */\n    tag_51:\n        /* \"Contracts/Tavern.sol\":422:427  owner */\n      0x00\n      dup1\n      sload\n      swap1\n      0x0100\n      exp\n      swap1\n      div\n      0xffffffffffffffffffffffffffffffffffffffff\n      and\n        /* \"Contracts/Tavern.sol\":408:427  msg.sender == owner */\n      0xffffffffffffffffffffffffffffffffffffffff\n      and\n        /* \"Contracts/Tavern.sol\":408:418  msg.sender */\n      caller\n        /* \"Contracts/Tavern.sol\":408:427  msg.sender == owner */\n      0xffffffffffffffffffffffffffffffffffffffff\n      and\n      eq\n        /* \"Contracts/Tavern.sol\":400:441  require(msg.sender == owner, \"not owner\") */\n      tag_144\n      jumpi\n      mload(0x40)\n      0x08c379a000000000000000000000000000000000000000000000000000000000\n      dup2\n      mstore\n      0x04\n      add\n      tag_145\n      swap1\n      tag_80\n      jump\t// in\n    tag_145:\n      mload(0x40)\n      dup1\n      swap2\n      sub\n      swap1\n      revert\n    tag_144:\n        /* \"Contracts/Tavern.sol\":1321:1327  amount */\n      dup1\n        /* \"Contracts/Tavern.sol\":1296:1317  address(this).balance */\n      selfbalance\n        /* \"Contracts/Tavern.sol\":1296:1327  address(this).balance >= amount */\n      lt\n      iszero\n        /* \"Contracts/Tavern.sol\":1288:1344  require(address(this).balance >= amount, \"insufficient\") */\n      tag_147\n      jumpi\n      mload(0x40)\n      0x08c379a000000000000000000000000000000000000000000000000000000000\n      dup2\n      mstore\n      0x04\n      add\n      tag_148\n      swap1\n      tag_149\n      jump\t// in\n    tag_148:\n      mload(0x40)\n      dup1\n      swap2\n      sub\n      swap1\n      revert\n    tag_147:\n        /* \"Contracts/Tavern.sol\":1354:1356  to */\n      dup2\n        /* \"Contracts/Tavern.sol\":1354:1365  to.transfer */\n      0xffffffffffffffffffffffffffffffffffffffff\n      and\n        /* \"Contracts/Tavern.sol\":1354:1373  to.transfer(amount) */\n      0x08fc\n        /* \"Contracts/Tavern.sol\":1366:1372  amount */\n      dup3\n        /* \"Contracts/Tavern.sol\":1354:1373  to.transfer(amount) */\n      swap1\n      dup2\n      iszero\n      mul\n      swap1\n      mload(0x40)\n      0x00\n      mload(0x40)\n      dup1\n      dup4\n      sub\n      dup2\n      dup6\n      dup9\n      dup9\n      call\n      swap4\n      pop\n      pop\n      pop\n      pop\n      iszero\n      dup1\n      iszero\n      tag_151\n      jumpi\n      returndatasize\n      0x00\n      dup1\n      returndatacopy\n      revert(0x00, returndatasize)\n    tag_151:\n      pop\n        /* \"Contracts/Tavern.sol\":1205:1380  function withdraw(address payable to, uint256 amount) external onlyOwner {... */\n      pop\n      pop\n      jump\t// out\n        /* \"Contracts/Tavern.sol\":1515:1815  function _rand(uint256 mod) internal returns (uint256 r) {... */\n    tag_70:\n        /* \"Contracts/Tavern.sol\":1561:1570  uint256 r */\n      0x00\n        /* \"Contracts/Tavern.sol\":1795:1798  mod */\n      dup2\n        /* \"Contracts/Tavern.sol\":1735:1751  block.prevrandao */\n      prevrandao\n        /* \"Contracts/Tavern.sol\":1753:1768  block.timestamp */\n      timestamp\n        /* \"Contracts/Tavern.sol\":1770:1780  msg.sender */\n      caller\n        /* \"Contracts/Tavern.sol\":1782:1787  nonce */\n      0x03\n      0x00\n        /* \"Contracts/Tavern.sol\":1782:1789  nonce++ */\n      dup2\n      sload\n      dup1\n      swap3\n      swap2\n      swap1\n      0x01\n      add\n      swap2\n      swap1\n      pop\n      sstore\n        /* \"Contracts/Tavern.sol\":1718:1790  abi.encodePacked(block.prevrandao, block.timestamp, msg.sender, nonce++) */\n      add(0x20, mload(0x40))\n      tag_153\n      swap5\n      swap4\n      swap3\n      swap2\n      swap1\n      tag_154\n      jump\t// in\n    tag_153:\n      mload(0x40)\n      0x20\n      dup2\n      dup4\n      sub\n      sub\n      dup2\n      mstore\n      swap1\n      0x40\n      mstore\n        /* \"Contracts/Tavern.sol\":1708:1791  keccak256(abi.encodePacked(block.prevrandao, block.timestamp, msg.sender, nonce++)) */\n      dup1\n      mload\n      swap1\n      0x20\n      add\n      keccak256\n        /* \"Contracts/Tavern.sol\":1700:1792  uint256(keccak256(abi.encodePacked(block.prevrandao, block.timestamp, msg.sender, nonce++))) */\n      0x00\n      shr\n        /* \"Contracts/Tavern.sol\":1700:1798  uint256(keccak256(abi.encodePacked(block.prevrandao, block.timestamp, msg.sender, nonce++))) % mod */\n      dup2\n      tag_155\n      jumpi\n      tag_156\n      tag_157\n      jump\t// in\n    tag_156:\n    tag_155:\n      mod\n        /* \"Contracts/Tavern.sol\":1696:1798  r = uint256(keccak256(abi.encodePacked(block.prevrandao, block.timestamp, msg.sender, nonce++))) % mod */\n      swap1\n      pop\n        /* \"Contracts/Tavern.sol\":1515:1815  function _rand(uint256 mod) internal returns (uint256 r) {... */\n      swap2\n      swap1\n      pop\n      jump\t// out\n        /* \"Contracts/Tavern.sol\":1821:1977  function _rollSum() internal returns (uint8) {... */\n    tag_97:\n        /* \"Contracts/Tavern.sol\":1859:1864  uint8 */\n      0x00\n        /* \"Contracts/Tavern.sol\":1876:1884  uint8 d1 */\n      dup1\n        /* \"Contracts/Tavern.sol\":1904:1905  1 */\n      0x01\n        /* \"Contracts/Tavern.sol\":1893:1901  _rand(6) */\n      tag_159\n        /* \"Contracts/Tavern.sol\":1899:1900  6 */\n      0x06\n        /* \"Contracts/Tavern.sol\":1893:1898  _rand */\n      tag_70\n        /* \"Contracts/Tavern.sol\":1893:1901  _rand(6) */\n      jump\t// in\n    tag_159:\n        /* \"Contracts/Tavern.sol\":1893:1905  _rand(6) + 1 */\n      tag_160\n      swap2\n      swap1\n      tag_161\n      jump\t// in\n    tag_160:\n        /* \"Contracts/Tavern.sol\":1876:1906  uint8 d1 = uint8(_rand(6) + 1) */\n      swap1\n      pop\n        /* \"Contracts/Tavern.sol\":1916:1924  uint8 d2 */\n      0x00\n        /* \"Contracts/Tavern.sol\":1944:1945  1 */\n      0x01\n        /* \"Contracts/Tavern.sol\":1933:1941  _rand(6) */\n      tag_162\n        /* \"Contracts/Tavern.sol\":1939:1940  6 */\n      0x06\n        /* \"Contracts/Tavern.sol\":1933:1938  _rand */\n      tag_70\n        /* \"Contracts/Tavern.sol\":1933:1941  _rand(6) */\n      jump\t// in\n    tag_162:\n        /* \"Contracts/Tavern.sol\":1933:1945  _rand(6) + 1 */\n      tag_163\n      swap2\n      swap1\n      tag_161\n      jump\t// in\n    tag_163:\n        /* \"Contracts/Tavern.sol\":1916:1946  uint8 d2 = uint8(_rand(6) + 1) */\n      swap1\n      pop\n        /* \"Contracts/Tavern.sol\":1968:1970  d2 */\n      dup1\n        /* \"Contracts/Tavern.sol\":1963:1965  d1 */\n      dup3\n        /* \"Contracts/Tavern.sol\":1963:1970  d1 + d2 */\n      tag_164\n      swap2\n      swap1\n      tag_165\n      jump\t// in\n    tag_164:\n        /* \"Contracts/Tavern.sol\":1956:1970  return d1 + d2 */\n      swap3\n      pop\n      pop\n      pop\n        /* \"Contracts/Tavern.sol\":1821:1977  function _rollSum() internal returns (uint8) {... */\n      swap1\n      jump\t// out\n        /* \"#utility.yul\":88:205   */\n    tag_167:\n        /* \"#utility.yul\":197:198   */\n      0x00\n        /* \"#utility.yul\":194:195   */\n      dup1\n        /* \"#utility.yul\":187:199   */\n      revert\n        /* \"#utility.yul\":334:420   */\n    tag_169:\n        /* \"#utility.yul\":369:376   */\n      0x00\n        /* \"#utility.yul\":409:413   */\n      0xff\n        /* \"#utility.yul\":402:407   */\n      dup3\n        /* \"#utility.yul\":398:414   */\n      and\n        /* \"#utility.yul\":387:414   */\n      swap1\n      pop\n        /* \"#utility.yul\":334:420   */\n      swap2\n      swap1\n      pop\n      jump\t// out\n        /* \"#utility.yul\":426:544   */\n    tag_170:\n        /* \"#utility.yul\":497:519   */\n      tag_215\n        /* \"#utility.yul\":513:518   */\n      dup2\n        /* \"#utility.yul\":497:519   */\n      tag_169\n      jump\t// in\n    tag_215:\n        /* \"#utility.yul\":490:495   */\n      dup2\n        /* \"#utility.yul\":487:520   */\n      eq\n        /* \"#utility.yul\":477:538   */\n      tag_216\n      jumpi\n        /* \"#utility.yul\":534:535   */\n      0x00\n        /* \"#utility.yul\":531:532   */\n      dup1\n        /* \"#utility.yul\":524:536   */\n      revert\n        /* \"#utility.yul\":477:538   */\n    tag_216:\n        /* \"#utility.yul\":426:544   */\n      pop\n      jump\t// out\n        /* \"#utility.yul\":550:685   */\n    tag_171:\n        /* \"#utility.yul\":594:599   */\n      0x00\n        /* \"#utility.yul\":632:638   */\n      dup2\n        /* \"#utility.yul\":619:639   */\n      calldataload\n        /* \"#utility.yul\":610:639   */\n      swap1\n      pop\n        /* \"#utility.yul\":648:679   */\n      tag_218\n        /* \"#utility.yul\":673:678   */\n      dup2\n        /* \"#utility.yul\":648:679   */\n      tag_170\n      jump\t// in\n    tag_218:\n        /* \"#utility.yul\":550:685   */\n      swap3\n      swap2\n      pop\n      pop\n      jump\t// out\n        /* \"#utility.yul\":691:1016   */\n    tag_17:\n        /* \"#utility.yul\":748:754   */\n      0x00\n        /* \"#utility.yul\":797:799   */\n      0x20\n        /* \"#utility.yul\":785:794   */\n      dup3\n        /* \"#utility.yul\":776:783   */\n      dup5\n        /* \"#utility.yul\":772:795   */\n      sub\n        /* \"#utility.yul\":768:800   */\n      slt\n        /* \"#utility.yul\":765:884   */\n      iszero\n      tag_220\n      jumpi\n        /* \"#utility.yul\":803:882   */\n      tag_221\n      tag_167\n      jump\t// in\n    tag_221:\n        /* \"#utility.yul\":765:884   */\n    tag_220:\n        /* \"#utility.yul\":923:924   */\n      0x00\n        /* \"#utility.yul\":948:999   */\n      tag_222\n        /* \"#utility.yul\":991:998   */\n      dup5\n        /* \"#utility.yul\":982:988   */\n      dup3\n        /* \"#utility.yul\":971:980   */\n      dup6\n        /* \"#utility.yul\":967:989   */\n      add\n        /* \"#utility.yul\":948:999   */\n      tag_171\n      jump\t// in\n    tag_222:\n        /* \"#utility.yul\":938:999   */\n      swap2\n      pop\n        /* \"#utility.yul\":894:1009   */\n      pop\n        /* \"#utility.yul\":691:1016   */\n      swap3\n      swap2\n      pop\n      pop\n      jump\t// out\n        /* \"#utility.yul\":1022:1099   */\n    tag_172:\n        /* \"#utility.yul\":1059:1066   */\n      0x00\n        /* \"#utility.yul\":1088:1093   */\n      dup2\n        /* \"#utility.yul\":1077:1093   */\n      swap1\n      pop\n        /* \"#utility.yul\":1022:1099   */\n      swap2\n      swap1\n      pop\n      jump\t// out\n        /* \"#utility.yul\":1105:1223   */\n    tag_173:\n        /* \"#utility.yul\":1192:1216   */\n      tag_225\n        /* \"#utility.yul\":1210:1215   */\n      dup2\n        /* \"#utility.yul\":1192:1216   */\n      tag_172\n      jump\t// in\n    tag_225:\n        /* \"#utility.yul\":1187:1190   */\n      dup3\n        /* \"#utility.yul\":1180:1217   */\n      mstore\n        /* \"#utility.yul\":1105:1223   */\n      pop\n      pop\n      jump\t// out\n        /* \"#utility.yul\":1229:1451   */\n    tag_23:\n        /* \"#utility.yul\":1322:1326   */\n      0x00\n        /* \"#utility.yul\":1360:1362   */\n      0x20\n        /* \"#utility.yul\":1349:1358   */\n      dup3\n        /* \"#utility.yul\":1345:1363   */\n      add\n        /* \"#utility.yul\":1337:1363   */\n      swap1\n      pop\n        /* \"#utility.yul\":1373:1444   */\n      tag_227\n        /* \"#utility.yul\":1441:1442   */\n      0x00\n        /* \"#utility.yul\":1430:1439   */\n      dup4\n        /* \"#utility.yul\":1426:1443   */\n      add\n        /* \"#utility.yul\":1417:1423   */\n      dup5\n        /* \"#utility.yul\":1373:1444   */\n      tag_173\n      jump\t// in\n    tag_227:\n        /* \"#utility.yul\":1229:1451   */\n      swap3\n      swap2\n      pop\n      pop\n      jump\t// out\n        /* \"#utility.yul\":1457:1579   */\n    tag_174:\n        /* \"#utility.yul\":1530:1554   */\n      tag_229\n        /* \"#utility.yul\":1548:1553   */\n      dup2\n        /* \"#utility.yul\":1530:1554   */\n      tag_172\n      jump\t// in\n    tag_229:\n        /* \"#utility.yul\":1523:1528   */\n      dup2\n        /* \"#utility.yul\":1520:1555   */\n      eq\n        /* \"#utility.yul\":1510:1573   */\n      tag_230\n      jumpi\n        /* \"#utility.yul\":1569:1570   */\n      0x00\n        /* \"#utility.yul\":1566:1567   */\n      dup1\n        /* \"#utility.yul\":1559:1571   */\n      revert\n        /* \"#utility.yul\":1510:1573   */\n    tag_230:\n        /* \"#utility.yul\":1457:1579   */\n      pop\n      jump\t// out\n        /* \"#utility.yul\":1585:1724   */\n    tag_175:\n        /* \"#utility.yul\":1631:1636   */\n      0x00\n        /* \"#utility.yul\":1669:1675   */\n      dup2\n        /* \"#utility.yul\":1656:1676   */\n      calldataload\n        /* \"#utility.yul\":1647:1676   */\n      swap1\n      pop\n        /* \"#utility.yul\":1685:1718   */\n      tag_232\n        /* \"#utility.yul\":1712:1717   */\n      dup2\n        /* \"#utility.yul\":1685:1718   */\n      tag_174\n      jump\t// in\n    tag_232:\n        /* \"#utility.yul\":1585:1724   */\n      swap3\n      swap2\n      pop\n      pop\n      jump\t// out\n        /* \"#utility.yul\":1730:2059   */\n    tag_27:\n        /* \"#utility.yul\":1789:1795   */\n      0x00\n        /* \"#utility.yul\":1838:1840   */\n      0x20\n        /* \"#utility.yul\":1826:1835   */\n      dup3\n        /* \"#utility.yul\":1817:1824   */\n      dup5\n        /* \"#utility.yul\":1813:1836   */\n      sub\n        /* \"#utility.yul\":1809:1841   */\n      slt\n        /* \"#utility.yul\":1806:1925   */\n      iszero\n      tag_234\n      jumpi\n        /* \"#utility.yul\":1844:1923   */\n      tag_235\n      tag_167\n      jump\t// in\n    tag_235:\n        /* \"#utility.yul\":1806:1925   */\n    tag_234:\n        /* \"#utility.yul\":1964:1965   */\n      0x00\n        /* \"#utility.yul\":1989:2042   */\n      tag_236\n        /* \"#utility.yul\":2034:2041   */\n      dup5\n        /* \"#utility.yul\":2025:2031   */\n      dup3\n        /* \"#utility.yul\":2014:2023   */\n      dup6\n        /* \"#utility.yul\":2010:2032   */\n      add\n        /* \"#utility.yul\":1989:2042   */\n      tag_175\n      jump\t// in\n    tag_236:\n        /* \"#utility.yul\":1979:2042   */\n      swap2\n      pop\n        /* \"#utility.yul\":1935:2052   */\n      pop\n        /* \"#utility.yul\":1730:2059   */\n      swap3\n      swap2\n      pop\n      pop\n      jump\t// out\n        /* \"#utility.yul\":2065:2191   */\n    tag_176:\n        /* \"#utility.yul\":2102:2109   */\n      0x00\n        /* \"#utility.yul\":2142:2184   */\n      0xffffffffffffffffffffffffffffffffffffffff\n        /* \"#utility.yul\":2135:2140   */\n      dup3\n        /* \"#utility.yul\":2131:2185   */\n      and\n        /* \"#utility.yul\":2120:2185   */\n      swap1\n      pop\n        /* \"#utility.yul\":2065:2191   */\n      swap2\n      swap1\n      pop\n      jump\t// out\n        /* \"#utility.yul\":2197:2293   */\n    tag_177:\n        /* \"#utility.yul\":2234:2241   */\n      0x00\n        /* \"#utility.yul\":2263:2287   */\n      tag_239\n        /* \"#utility.yul\":2281:2286   */\n      dup3\n        /* \"#utility.yul\":2263:2287   */\n      tag_176\n      jump\t// in\n    tag_239:\n        /* \"#utility.yul\":2252:2287   */\n      swap1\n      pop\n        /* \"#utility.yul\":2197:2293   */\n      swap2\n      swap1\n      pop\n      jump\t// out\n        /* \"#utility.yul\":2299:2417   */\n    tag_178:\n        /* \"#utility.yul\":2386:2410   */\n      tag_241\n        /* \"#utility.yul\":2404:2409   */\n      dup2\n        /* \"#utility.yul\":2386:2410   */\n      tag_177\n      jump\t// in\n    tag_241:\n        /* \"#utility.yul\":2381:2384   */\n      dup3\n        /* \"#utility.yul\":2374:2411   */\n      mstore\n        /* \"#utility.yul\":2299:2417   */\n      pop\n      pop\n      jump\t// out\n        /* \"#utility.yul\":2423:2645   */\n    tag_33:\n        /* \"#utility.yul\":2516:2520   */\n      0x00\n        /* \"#utility.yul\":2554:2556   */\n      0x20\n        /* \"#utility.yul\":2543:2552   */\n      dup3\n        /* \"#utility.yul\":2539:2557   */\n      add\n        /* \"#utility.yul\":2531:2557   */\n      swap1\n      pop\n        /* \"#utility.yul\":2567:2638   */\n      tag_243\n        /* \"#utility.yul\":2635:2636   */\n      0x00\n        /* \"#utility.yul\":2624:2633   */\n      dup4\n        /* \"#utility.yul\":2620:2637   */\n      add\n        /* \"#utility.yul\":2611:2617   */\n      dup5\n        /* \"#utility.yul\":2567:2638   */\n      tag_178\n      jump\t// in\n    tag_243:\n        /* \"#utility.yul\":2423:2645   */\n      swap3\n      swap2\n      pop\n      pop\n      jump\t// out\n        /* \"#utility.yul\":2651:2741   */\n    tag_179:\n        /* \"#utility.yul\":2685:2692   */\n      0x00\n        /* \"#utility.yul\":2728:2733   */\n      dup2\n        /* \"#utility.yul\":2721:2734   */\n      iszero\n        /* \"#utility.yul\":2714:2735   */\n      iszero\n        /* \"#utility.yul\":2703:2735   */\n      swap1\n      pop\n        /* \"#utility.yul\":2651:2741   */\n      swap2\n      swap1\n      pop\n      jump\t// out\n        /* \"#utility.yul\":2747:2863   */\n    tag_180:\n        /* \"#utility.yul\":2817:2838   */\n      tag_246\n        /* \"#utility.yul\":2832:2837   */\n      dup2\n        /* \"#utility.yul\":2817:2838   */\n      tag_179\n      jump\t// in\n    tag_246:\n        /* \"#utility.yul\":2810:2815   */\n      dup2\n        /* \"#utility.yul\":2807:2839   */\n      eq\n        /* \"#utility.yul\":2797:2857   */\n      tag_247\n      jumpi\n        /* \"#utility.yul\":2853:2854   */\n      0x00\n        /* \"#utility.yul\":2850:2851   */\n      dup1\n        /* \"#utility.yul\":2843:2855   */\n      revert\n        /* \"#utility.yul\":2797:2857   */\n    tag_247:\n        /* \"#utility.yul\":2747:2863   */\n      pop\n      jump\t// out\n        /* \"#utility.yul\":2869:3002   */\n    tag_181:\n        /* \"#utility.yul\":2912:2917   */\n      0x00\n        /* \"#utility.yul\":2950:2956   */\n      dup2\n        /* \"#utility.yul\":2937:2957   */\n      calldataload\n        /* \"#utility.yul\":2928:2957   */\n      swap1\n      pop\n        /* \"#utility.yul\":2966:2996   */\n      tag_249\n        /* \"#utility.yul\":2990:2995   */\n      dup2\n        /* \"#utility.yul\":2966:2996   */\n      tag_180\n      jump\t// in\n    tag_249:\n        /* \"#utility.yul\":2869:3002   */\n      swap3\n      swap2\n      pop\n      pop\n      jump\t// out\n        /* \"#utility.yul\":3008:3331   */\n    tag_45:\n        /* \"#utility.yul\":3064:3070   */\n      0x00\n        /* \"#utility.yul\":3113:3115   */\n      0x20\n        /* \"#utility.yul\":3101:3110   */\n      dup3\n        /* \"#utility.yul\":3092:3099   */\n      dup5\n        /* \"#utility.yul\":3088:3111   */\n      sub\n        /* \"#utility.yul\":3084:3116   */\n      slt\n        /* \"#utility.yul\":3081:3200   */\n      iszero\n      tag_251\n      jumpi\n        /* \"#utility.yul\":3119:3198   */\n      tag_252\n      tag_167\n      jump\t// in\n    tag_252:\n        /* \"#utility.yul\":3081:3200   */\n    tag_251:\n        /* \"#utility.yul\":3239:3240   */\n      0x00\n        /* \"#utility.yul\":3264:3314   */\n      tag_253\n        /* \"#utility.yul\":3306:3313   */\n      dup5\n        /* \"#utility.yul\":3297:3303   */\n      dup3\n        /* \"#utility.yul\":3286:3295   */\n      dup6\n        /* \"#utility.yul\":3282:3304   */\n      add\n        /* \"#utility.yul\":3264:3314   */\n      tag_181\n      jump\t// in\n    tag_253:\n        /* \"#utility.yul\":3254:3314   */\n      swap2\n      pop\n        /* \"#utility.yul\":3210:3324   */\n      pop\n        /* \"#utility.yul\":3008:3331   */\n      swap3\n      swap2\n      pop\n      pop\n      jump\t// out\n        /* \"#utility.yul\":3337:3441   */\n    tag_182:\n        /* \"#utility.yul\":3382:3389   */\n      0x00\n        /* \"#utility.yul\":3411:3435   */\n      tag_255\n        /* \"#utility.yul\":3429:3434   */\n      dup3\n        /* \"#utility.yul\":3411:3435   */\n      tag_176\n      jump\t// in\n    tag_255:\n        /* \"#utility.yul\":3400:3435   */\n      swap1\n      pop\n        /* \"#utility.yul\":3337:3441   */\n      swap2\n      swap1\n      pop\n      jump\t// out\n        /* \"#utility.yul\":3447:3585   */\n    tag_183:\n        /* \"#utility.yul\":3528:3560   */\n      tag_257\n        /* \"#utility.yul\":3554:3559   */\n      dup2\n        /* \"#utility.yul\":3528:3560   */\n      tag_182\n      jump\t// in\n    tag_257:\n        /* \"#utility.yul\":3521:3526   */\n      dup2\n        /* \"#utility.yul\":3518:3561   */\n      eq\n        /* \"#utility.yul\":3508:3579   */\n      tag_258\n      jumpi\n        /* \"#utility.yul\":3575:3576   */\n      0x00\n        /* \"#utility.yul\":3572:3573   */\n      dup1\n        /* \"#utility.yul\":3565:3577   */\n      revert\n        /* \"#utility.yul\":3508:3579   */\n    tag_258:\n        /* \"#utility.yul\":3447:3585   */\n      pop\n      jump\t// out\n        /* \"#utility.yul\":3591:3746   */\n    tag_184:\n        /* \"#utility.yul\":3645:3650   */\n      0x00\n        /* \"#utility.yul\":3683:3689   */\n      dup2\n        /* \"#utility.yul\":3670:3690   */\n      calldataload\n        /* \"#utility.yul\":3661:3690   */\n      swap1\n      pop\n        /* \"#utility.yul\":3699:3740   */\n      tag_260\n        /* \"#utility.yul\":3734:3739   */\n      dup2\n        /* \"#utility.yul\":3699:3740   */\n      tag_183\n      jump\t// in\n    tag_260:\n        /* \"#utility.yul\":3591:3746   */\n      swap3\n      swap2\n      pop\n      pop\n      jump\t// out\n        /* \"#utility.yul\":3752:4242   */\n    tag_50:\n        /* \"#utility.yul\":3828:3834   */\n      0x00\n        /* \"#utility.yul\":3836:3842   */\n      dup1\n        /* \"#utility.yul\":3885:3887   */\n      0x40\n        /* \"#utility.yul\":3873:3882   */\n      dup4\n        /* \"#utility.yul\":3864:3871   */\n      dup6\n        /* \"#utility.yul\":3860:3883   */\n      sub\n        /* \"#utility.yul\":3856:3888   */\n      slt\n        /* \"#utility.yul\":3853:3972   */\n      iszero\n      tag_262\n      jumpi\n        /* \"#utility.yul\":3891:3970   */\n      tag_263\n      tag_167\n      jump\t// in\n    tag_263:\n        /* \"#utility.yul\":3853:3972   */\n    tag_262:\n        /* \"#utility.yul\":4011:4012   */\n      0x00\n        /* \"#utility.yul\":4036:4097   */\n      tag_264\n        /* \"#utility.yul\":4089:4096   */\n      dup6\n        /* \"#utility.yul\":4080:4086   */\n      dup3\n        /* \"#utility.yul\":4069:4078   */\n      dup7\n        /* \"#utility.yul\":4065:4087   */\n      add\n        /* \"#utility.yul\":4036:4097   */\n      tag_184\n      jump\t// in\n    tag_264:\n        /* \"#utility.yul\":4026:4097   */\n      swap3\n      pop\n        /* \"#utility.yul\":3982:4107   */\n      pop\n        /* \"#utility.yul\":4146:4148   */\n      0x20\n        /* \"#utility.yul\":4172:4225   */\n      tag_265\n        /* \"#utility.yul\":4217:4224   */\n      dup6\n        /* \"#utility.yul\":4208:4214   */\n      dup3\n        /* \"#utility.yul\":4197:4206   */\n      dup7\n        /* \"#utility.yul\":4193:4215   */\n      add\n        /* \"#utility.yul\":4172:4225   */\n      tag_175\n      jump\t// in\n    tag_265:\n        /* \"#utility.yul\":4162:4225   */\n      swap2\n      pop\n        /* \"#utility.yul\":4117:4235   */\n      pop\n        /* \"#utility.yul\":3752:4242   */\n      swap3\n      pop\n      swap3\n      swap1\n      pop\n      jump\t// out\n        /* \"#utility.yul\":4248:4417   */\n    tag_185:\n        /* \"#utility.yul\":4332:4343   */\n      0x00\n        /* \"#utility.yul\":4366:4372   */\n      dup3\n        /* \"#utility.yul\":4361:4364   */\n      dup3\n        /* \"#utility.yul\":4354:4373   */\n      mstore\n        /* \"#utility.yul\":4406:4410   */\n      0x20\n        /* \"#utility.yul\":4401:4404   */\n      dup3\n        /* \"#utility.yul\":4397:4411   */\n      add\n        /* \"#utility.yul\":4382:4411   */\n      swap1\n      pop\n        /* \"#utility.yul\":4248:4417   */\n      swap3\n      swap2\n      pop\n      pop\n      jump\t// out\n        /* \"#utility.yul\":4423:4582   */\n    tag_186:\n        /* \"#utility.yul\":4563:4574   */\n      0x7265656e7472616e740000000000000000000000000000000000000000000000\n        /* \"#utility.yul\":4559:4560   */\n      0x00\n        /* \"#utility.yul\":4551:4557   */\n      dup3\n        /* \"#utility.yul\":4547:4561   */\n      add\n        /* \"#utility.yul\":4540:4575   */\n      mstore\n        /* \"#utility.yul\":4423:4582   */\n      pop\n      jump\t// out\n        /* \"#utility.yul\":4588:4953   */\n    tag_187:\n        /* \"#utility.yul\":4730:4733   */\n      0x00\n        /* \"#utility.yul\":4751:4817   */\n      tag_269\n        /* \"#utility.yul\":4815:4816   */\n      0x09\n        /* \"#utility.yul\":4810:4813   */\n      dup4\n        /* \"#utility.yul\":4751:4817   */\n      tag_185\n      jump\t// in\n    tag_269:\n        /* \"#utility.yul\":4744:4817   */\n      swap2\n      pop\n        /* \"#utility.yul\":4826:4919   */\n      tag_270\n        /* \"#utility.yul\":4915:4918   */\n      dup3\n        /* \"#utility.yul\":4826:4919   */\n      tag_186\n      jump\t// in\n    tag_270:\n        /* \"#utility.yul\":4944:4946   */\n      0x20\n        /* \"#utility.yul\":4939:4942   */\n      dup3\n        /* \"#utility.yul\":4935:4947   */\n      add\n        /* \"#utility.yul\":4928:4947   */\n      swap1\n      pop\n        /* \"#utility.yul\":4588:4953   */\n      swap2\n      swap1\n      pop\n      jump\t// out\n        /* \"#utility.yul\":4959:5378   */\n    tag_55:\n        /* \"#utility.yul\":5125:5129   */\n      0x00\n        /* \"#utility.yul\":5163:5165   */\n      0x20\n        /* \"#utility.yul\":5152:5161   */\n      dup3\n        /* \"#utility.yul\":5148:5166   */\n      add\n        /* \"#utility.yul\":5140:5166   */\n      swap1\n      pop\n        /* \"#utility.yul\":5212:5221   */\n      dup2\n        /* \"#utility.yul\":5206:5210   */\n      dup2\n        /* \"#utility.yul\":5202:5222   */\n      sub\n        /* \"#utility.yul\":5198:5199   */\n      0x00\n        /* \"#utility.yul\":5187:5196   */\n      dup4\n        /* \"#utility.yul\":5183:5200   */\n      add\n        /* \"#utility.yul\":5176:5223   */\n      mstore\n        /* \"#utility.yul\":5240:5371   */\n      tag_272\n        /* \"#utility.yul\":5366:5370   */\n      dup2\n        /* \"#utility.yul\":5240:5371   */\n      tag_187\n      jump\t// in\n    tag_272:\n        /* \"#utility.yul\":5232:5371   */\n      swap1\n      pop\n        /* \"#utility.yul\":4959:5378   */\n      swap2\n      swap1\n      pop\n      jump\t// out\n        /* \"#utility.yul\":5384:5543   */\n    tag_188:\n        /* \"#utility.yul\":5524:5535   */\n      0x6261642067756573730000000000000000000000000000000000000000000000\n        /* \"#utility.yul\":5520:5521   */\n      0x00\n        /* \"#utility.yul\":5512:5518   */\n      dup3\n        /* \"#utility.yul\":5508:5522   */\n      add\n        /* \"#utility.yul\":5501:5536   */\n      mstore\n        /* \"#utility.yul\":5384:5543   */\n      pop\n      jump\t// out\n        /* \"#utility.yul\":5549:5914   */\n    tag_189:\n        /* \"#utility.yul\":5691:5694   */\n      0x00\n        /* \"#utility.yul\":5712:5778   */\n      tag_275\n        /* \"#utility.yul\":5776:5777   */\n      0x09\n        /* \"#utility.yul\":5771:5774   */\n      dup4\n        /* \"#utility.yul\":5712:5778   */\n      tag_185\n      jump\t// in\n    tag_275:\n        /* \"#utility.yul\":5705:5778   */\n      swap2\n      pop\n        /* \"#utility.yul\":5787:5880   */\n      tag_276\n        /* \"#utility.yul\":5876:5879   */\n      dup3\n        /* \"#utility.yul\":5787:5880   */\n      tag_188\n      jump\t// in\n    tag_276:\n        /* \"#utility.yul\":5905:5907   */\n      0x20\n        /* \"#utility.yul\":5900:5903   */\n      dup3\n        /* \"#utility.yul\":5896:5908   */\n      add\n        /* \"#utility.yul\":5889:5908   */\n      swap1\n      pop\n        /* \"#utility.yul\":5549:5914   */\n      swap2\n      swap1\n      pop\n      jump\t// out\n        /* \"#utility.yul\":5920:6339   */\n    tag_59:\n        /* \"#utility.yul\":6086:6090   */\n      0x00\n        /* \"#utility.yul\":6124:6126   */\n      0x20\n        /* \"#utility.yul\":6113:6122   */\n      dup3\n        /* \"#utility.yul\":6109:6127   */\n      add\n        /* \"#utility.yul\":6101:6127   */\n      swap1\n      pop\n        /* \"#utility.yul\":6173:6182   */\n      dup2\n        /* \"#utility.yul\":6167:6171   */\n      dup2\n        /* \"#utility.yul\":6163:6183   */\n      sub\n        /* \"#utility.yul\":6159:6160   */\n      0x00\n        /* \"#utility.yul\":6148:6157   */\n      dup4\n        /* \"#utility.yul\":6144:6161   */\n      add\n        /* \"#utility.yul\":6137:6184   */\n      mstore\n        /* \"#utility.yul\":6201:6332   */\n      tag_278\n        /* \"#utility.yul\":6327:6331   */\n      dup2\n        /* \"#utility.yul\":6201:6332   */\n      tag_189\n      jump\t// in\n    tag_278:\n        /* \"#utility.yul\":6193:6332   */\n      swap1\n      pop\n        /* \"#utility.yul\":5920:6339   */\n      swap2\n      swap1\n      pop\n      jump\t// out\n        /* \"#utility.yul\":6345:6504   */\n    tag_190:\n        /* \"#utility.yul\":6485:6496   */\n      0x6261642077616765720000000000000000000000000000000000000000000000\n        /* \"#utility.yul\":6481:6482   */\n      0x00\n        /* \"#utility.yul\":6473:6479   */\n      dup3\n        /* \"#utility.yul\":6469:6483   */\n      add\n        /* \"#utility.yul\":6462:6497   */\n      mstore\n        /* \"#utility.yul\":6345:6504   */\n      pop\n      jump\t// out\n        /* \"#utility.yul\":6510:6875   */\n    tag_191:\n        /* \"#utility.yul\":6652:6655   */\n      0x00\n        /* \"#utility.yul\":6673:6739   */\n      tag_281\n        /* \"#utility.yul\":6737:6738   */\n      0x09\n        /* \"#utility.yul\":6732:6735   */\n      dup4\n        /* \"#utility.yul\":6673:6739   */\n      tag_185\n      jump\t// in\n    tag_281:\n        /* \"#utility.yul\":6666:6739   */\n      swap2\n      pop\n        /* \"#utility.yul\":6748:6841   */\n      tag_282\n        /* \"#utility.yul\":6837:6840   */\n      dup3\n        /* \"#utility.yul\":6748:6841   */\n      tag_190\n      jump\t// in\n    tag_282:\n        /* \"#utility.yul\":6866:6868   */\n      0x20\n        /* \"#utility.yul\":6861:6864   */\n      dup3\n        /* \"#utility.yul\":6857:6869   */\n      add\n        /* \"#utility.yul\":6850:6869   */\n      swap1\n      pop\n        /* \"#utility.yul\":6510:6875   */\n      swap2\n      swap1\n      pop\n      jump\t// out\n        /* \"#utility.yul\":6881:7300   */\n    tag_63:\n        /* \"#utility.yul\":7047:7051   */\n      0x00\n        /* \"#utility.yul\":7085:7087   */\n      0x20\n        /* \"#utility.yul\":7074:7083   */\n      dup3\n        /* \"#utility.yul\":7070:7088   */\n      add\n        /* \"#utility.yul\":7062:7088   */\n      swap1\n      pop\n        /* \"#utility.yul\":7134:7143   */\n      dup2\n        /* \"#utility.yul\":7128:7132   */\n      dup2\n        /* \"#utility.yul\":7124:7144   */\n      sub\n        /* \"#utility.yul\":7120:7121   */\n      0x00\n        /* \"#utility.yul\":7109:7118   */\n      dup4\n        /* \"#utility.yul\":7105:7122   */\n      add\n        /* \"#utility.yul\":7098:7145   */\n      mstore\n        /* \"#utility.yul\":7162:7293   */\n      tag_284\n        /* \"#utility.yul\":7288:7292   */\n      dup2\n        /* \"#utility.yul\":7162:7293   */\n      tag_191\n      jump\t// in\n    tag_284:\n        /* \"#utility.yul\":7154:7293   */\n      swap1\n      pop\n        /* \"#utility.yul\":6881:7300   */\n      swap2\n      swap1\n      pop\n      jump\t// out\n        /* \"#utility.yul\":7306:7486   */\n    tag_192:\n        /* \"#utility.yul\":7354:7431   */\n      0x4e487b7100000000000000000000000000000000000000000000000000000000\n        /* \"#utility.yul\":7351:7352   */\n      0x00\n        /* \"#utility.yul\":7344:7432   */\n      mstore\n        /* \"#utility.yul\":7451:7455   */\n      0x11\n        /* \"#utility.yul\":7448:7449   */\n      0x04\n        /* \"#utility.yul\":7441:7456   */\n      mstore\n        /* \"#utility.yul\":7475:7479   */\n      0x24\n        /* \"#utility.yul\":7472:7473   */\n      0x00\n        /* \"#utility.yul\":7465:7480   */\n      revert\n        /* \"#utility.yul\":7492:7902   */\n    tag_65:\n        /* \"#utility.yul\":7532:7539   */\n      0x00\n        /* \"#utility.yul\":7555:7575   */\n      tag_287\n        /* \"#utility.yul\":7573:7574   */\n      dup3\n        /* \"#utility.yul\":7555:7575   */\n      tag_172\n      jump\t// in\n    tag_287:\n        /* \"#utility.yul\":7550:7575   */\n      swap2\n      pop\n        /* \"#utility.yul\":7589:7609   */\n      tag_288\n        /* \"#utility.yul\":7607:7608   */\n      dup4\n        /* \"#utility.yul\":7589:7609   */\n      tag_172\n      jump\t// in\n    tag_288:\n        /* \"#utility.yul\":7584:7609   */\n      swap3\n      pop\n        /* \"#utility.yul\":7644:7645   */\n      dup3\n        /* \"#utility.yul\":7641:7642   */\n      dup3\n        /* \"#utility.yul\":7637:7646   */\n      mul\n        /* \"#utility.yul\":7666:7696   */\n      tag_289\n        /* \"#utility.yul\":7684:7695   */\n      dup2\n        /* \"#utility.yul\":7666:7696   */\n      tag_172\n      jump\t// in\n    tag_289:\n        /* \"#utility.yul\":7655:7696   */\n      swap2\n      pop\n        /* \"#utility.yul\":7845:7846   */\n      dup3\n        /* \"#utility.yul\":7836:7843   */\n      dup3\n        /* \"#utility.yul\":7832:7847   */\n      div\n        /* \"#utility.yul\":7829:7830   */\n      dup5\n        /* \"#utility.yul\":7826:7848   */\n      eq\n        /* \"#utility.yul\":7806:7807   */\n      dup4\n        /* \"#utility.yul\":7799:7808   */\n      iszero\n        /* \"#utility.yul\":7779:7862   */\n      or\n        /* \"#utility.yul\":7756:7895   */\n      tag_290\n      jumpi\n        /* \"#utility.yul\":7875:7893   */\n      tag_291\n      tag_192\n      jump\t// in\n    tag_291:\n        /* \"#utility.yul\":7756:7895   */\n    tag_290:\n        /* \"#utility.yul\":7540:7902   */\n      pop\n        /* \"#utility.yul\":7492:7902   */\n      swap3\n      swap2\n      pop\n      pop\n      jump\t// out\n        /* \"#utility.yul\":7908:8070   */\n    tag_193:\n        /* \"#utility.yul\":8048:8062   */\n      0x62616e6b726f6c6c206c6f770000000000000000000000000000000000000000\n        /* \"#utility.yul\":8044:8045   */\n      0x00\n        /* \"#utility.yul\":8036:8042   */\n      dup3\n        /* \"#utility.yul\":8032:8046   */\n      add\n        /* \"#utility.yul\":8025:8063   */\n      mstore\n        /* \"#utility.yul\":7908:8070   */\n      pop\n      jump\t// out\n        /* \"#utility.yul\":8076:8442   */\n    tag_194:\n        /* \"#utility.yul\":8218:8221   */\n      0x00\n        /* \"#utility.yul\":8239:8306   */\n      tag_294\n        /* \"#utility.yul\":8303:8305   */\n      0x0c\n        /* \"#utility.yul\":8298:8301   */\n      dup4\n        /* \"#utility.yul\":8239:8306   */\n      tag_185\n      jump\t// in\n    tag_294:\n        /* \"#utility.yul\":8232:8306   */\n      swap2\n      pop\n        /* \"#utility.yul\":8315:8408   */\n      tag_295\n        /* \"#utility.yul\":8404:8407   */\n      dup3\n        /* \"#utility.yul\":8315:8408   */\n      tag_193\n      jump\t// in\n    tag_295:\n        /* \"#utility.yul\":8433:8435   */\n      0x20\n        /* \"#utility.yul\":8428:8431   */\n      dup3\n        /* \"#utility.yul\":8424:8436   */\n      add\n        /* \"#utility.yul\":8417:8436   */\n      swap1\n      pop\n        /* \"#utility.yul\":8076:8442   */\n      swap2\n      swap1\n      pop\n      jump\t// out\n        /* \"#utility.yul\":8448:8867   */\n    tag_68:\n        /* \"#utility.yul\":8614:8618   */\n      0x00\n        /* \"#utility.yul\":8652:8654   */\n      0x20\n        /* \"#utility.yul\":8641:8650   */\n      dup3\n        /* \"#utility.yul\":8637:8655   */\n      add\n        /* \"#utility.yul\":8629:8655   */\n      swap1\n      pop\n        /* \"#utility.yul\":8701:8710   */\n      dup2\n        /* \"#utility.yul\":8695:8699   */\n      dup2\n        /* \"#utility.yul\":8691:8711   */\n      sub\n        /* \"#utility.yul\":8687:8688   */\n      0x00\n        /* \"#utility.yul\":8676:8685   */\n      dup4\n        /* \"#utility.yul\":8672:8689   */\n      add\n        /* \"#utility.yul\":8665:8712   */\n      mstore\n        /* \"#utility.yul\":8729:8860   */\n      tag_297\n        /* \"#utility.yul\":8855:8859   */\n      dup2\n        /* \"#utility.yul\":8729:8860   */\n      tag_194\n      jump\t// in\n    tag_297:\n        /* \"#utility.yul\":8721:8860   */\n      swap1\n      pop\n        /* \"#utility.yul\":8448:8867   */\n      swap2\n      swap1\n      pop\n      jump\t// out\n        /* \"#utility.yul\":8873:8982   */\n    tag_195:\n        /* \"#utility.yul\":8954:8975   */\n      tag_299\n        /* \"#utility.yul\":8969:8974   */\n      dup2\n        /* \"#utility.yul\":8954:8975   */\n      tag_179\n      jump\t// in\n    tag_299:\n        /* \"#utility.yul\":8949:8952   */\n      dup3\n        /* \"#utility.yul\":8942:8976   */\n      mstore\n        /* \"#utility.yul\":8873:8982   */\n      pop\n      pop\n      jump\t// out\n        /* \"#utility.yul\":8988:9100   */\n    tag_196:\n        /* \"#utility.yul\":9071:9093   */\n      tag_301\n        /* \"#utility.yul\":9087:9092   */\n      dup2\n        /* \"#utility.yul\":9071:9093   */\n      tag_169\n      jump\t// in\n    tag_301:\n        /* \"#utility.yul\":9066:9069   */\n      dup3\n        /* \"#utility.yul\":9059:9094   */\n      mstore\n        /* \"#utility.yul\":8988:9100   */\n      pop\n      pop\n      jump\t// out\n        /* \"#utility.yul\":9106:9631   */\n    tag_76:\n        /* \"#utility.yul\":9269:9273   */\n      0x00\n        /* \"#utility.yul\":9307:9310   */\n      0x80\n        /* \"#utility.yul\":9296:9305   */\n      dup3\n        /* \"#utility.yul\":9292:9311   */\n      add\n        /* \"#utility.yul\":9284:9311   */\n      swap1\n      pop\n        /* \"#utility.yul\":9321:9392   */\n      tag_303\n        /* \"#utility.yul\":9389:9390   */\n      0x00\n        /* \"#utility.yul\":9378:9387   */\n      dup4\n        /* \"#utility.yul\":9374:9391   */\n      add\n        /* \"#utility.yul\":9365:9371   */\n      dup8\n        /* \"#utility.yul\":9321:9392   */\n      tag_173\n      jump\t// in\n    tag_303:\n        /* \"#utility.yul\":9402:9468   */\n      tag_304\n        /* \"#utility.yul\":9464:9466   */\n      0x20\n        /* \"#utility.yul\":9453:9462   */\n      dup4\n        /* \"#utility.yul\":9449:9467   */\n      add\n        /* \"#utility.yul\":9440:9446   */\n      dup7\n        /* \"#utility.yul\":9402:9468   */\n      tag_195\n      jump\t// in\n    tag_304:\n        /* \"#utility.yul\":9478:9546   */\n      tag_305\n        /* \"#utility.yul\":9542:9544   */\n      0x40\n        /* \"#utility.yul\":9531:9540   */\n      dup4\n        /* \"#utility.yul\":9527:9545   */\n      add\n        /* \"#utility.yul\":9518:9524   */\n      dup6\n        /* \"#utility.yul\":9478:9546   */\n      tag_196\n      jump\t// in\n    tag_305:\n        /* \"#utility.yul\":9556:9624   */\n      tag_306\n        /* \"#utility.yul\":9620:9622   */\n      0x60\n        /* \"#utility.yul\":9609:9618   */\n      dup4\n        /* \"#utility.yul\":9605:9623   */\n      add\n        /* \"#utility.yul\":9596:9602   */\n      dup5\n        /* \"#utility.yul\":9556:9624   */\n      tag_196\n      jump\t// in\n    tag_306:\n        /* \"#utility.yul\":9106:9631   */\n      swap6\n      swap5\n      pop\n      pop\n      pop\n      pop\n      pop\n      jump\t// out\n        /* \"#utility.yul\":9637:9796   */\n    tag_197:\n        /* \"#utility.yul\":9777:9788   */\n      0x6e6f74206f776e65720000000000000000000000000000000000000000000000\n        /* \"#utility.yul\":9773:9774   */\n      0x00\n        /* \"#utility.yul\":9765:9771   */\n      dup3\n        /* \"#utility.yul\":9761:9775   */\n      add\n        /* \"#utility.yul\":9754:9789   */\n      mstore\n        /* \"#utility.yul\":9637:9796   */\n      pop\n      jump\t// out\n        /* \"#utility.yul\":9802:10167   */\n    tag_198:\n        /* \"#utility.yul\":9944:9947   */\n      0x00\n        /* \"#utility.yul\":9965:10031   */\n      tag_309\n        /* \"#utility.yul\":10029:10030   */\n      0x09\n        /* \"#utility.yul\":10024:10027   */\n      dup4\n        /* \"#utility.yul\":9965:10031   */\n      tag_185\n      jump\t// in\n    tag_309:\n        /* \"#utility.yul\":9958:10031   */\n      swap2\n      pop\n        /* \"#utility.yul\":10040:10133   */\n      tag_310\n        /* \"#utility.yul\":10129:10132   */\n      dup3\n        /* \"#utility.yul\":10040:10133   */\n      tag_197\n      jump\t// in\n    tag_310:\n        /* \"#utility.yul\":10158:10160   */\n      0x20\n        /* \"#utility.yul\":10153:10156   */\n      dup3\n        /* \"#utility.yul\":10149:10161   */\n      add\n        /* \"#utility.yul\":10142:10161   */\n      swap1\n      pop\n        /* \"#utility.yul\":9802:10167   */\n      swap2\n      swap1\n      pop\n      jump\t// out\n        /* \"#utility.yul\":10173:10592   */\n    tag_80:\n        /* \"#utility.yul\":10339:10343   */\n      0x00\n        /* \"#utility.yul\":10377:10379   */\n      0x20\n        /* \"#utility.yul\":10366:10375   */\n      dup3\n        /* \"#utility.yul\":10362:10380   */\n      add\n        /* \"#utility.yul\":10354:10380   */\n      swap1\n      pop\n        /* \"#utility.yul\":10426:10435   */\n      dup2\n        /* \"#utility.yul\":10420:10424   */\n      dup2\n        /* \"#utility.yul\":10416:10436   */\n      sub\n        /* \"#utility.yul\":10412:10413   */\n      0x00\n        /* \"#utility.yul\":10401:10410   */\n      dup4\n        /* \"#utility.yul\":10397:10414   */\n      add\n        /* \"#utility.yul\":10390:10437   */\n      mstore\n        /* \"#utility.yul\":10454:10585   */\n      tag_312\n        /* \"#utility.yul\":10580:10584   */\n      dup2\n        /* \"#utility.yul\":10454:10585   */\n      tag_198\n      jump\t// in\n    tag_312:\n        /* \"#utility.yul\":10446:10585   */\n      swap1\n      pop\n        /* \"#utility.yul\":10173:10592   */\n      swap2\n      swap1\n      pop\n      jump\t// out\n        /* \"#utility.yul\":10598:10756   */\n    tag_199:\n        /* \"#utility.yul\":10738:10748   */\n      0x626164206d61696e000000000000000000000000000000000000000000000000\n        /* \"#utility.yul\":10734:10735   */\n      0x00\n        /* \"#utility.yul\":10726:10732   */\n      dup3\n        /* \"#utility.yul\":10722:10736   */\n      add\n        /* \"#utility.yul\":10715:10749   */\n      mstore\n        /* \"#utility.yul\":10598:10756   */\n      pop\n      jump\t// out\n        /* \"#utility.yul\":10762:11127   */\n    tag_200:\n        /* \"#utility.yul\":10904:10907   */\n      0x00\n        /* \"#utility.yul\":10925:10991   */\n      tag_315\n        /* \"#utility.yul\":10989:10990   */\n      0x08\n        /* \"#utility.yul\":10984:10987   */\n      dup4\n        /* \"#utility.yul\":10925:10991   */\n      tag_185\n      jump\t// in\n    tag_315:\n        /* \"#utility.yul\":10918:10991   */\n      swap2\n      pop\n        /* \"#utility.yul\":11000:11093   */\n      tag_316\n        /* \"#utility.yul\":11089:11092   */\n      dup3\n        /* \"#utility.yul\":11000:11093   */\n      tag_199\n      jump\t// in\n    tag_316:\n        /* \"#utility.yul\":11118:11120   */\n      0x20\n        /* \"#utility.yul\":11113:11116   */\n      dup3\n        /* \"#utility.yul\":11109:11121   */\n      add\n        /* \"#utility.yul\":11102:11121   */\n      swap1\n      pop\n        /* \"#utility.yul\":10762:11127   */\n      swap2\n      swap1\n      pop\n      jump\t// out\n        /* \"#utility.yul\":11133:11552   */\n    tag_89:\n        /* \"#utility.yul\":11299:11303   */\n      0x00\n        /* \"#utility.yul\":11337:11339   */\n      0x20\n        /* \"#utility.yul\":11326:11335   */\n      dup3\n        /* \"#utility.yul\":11322:11340   */\n      add\n        /* \"#utility.yul\":11314:11340   */\n      swap1\n      pop\n        /* \"#utility.yul\":11386:11395   */\n      dup2\n        /* \"#utility.yul\":11380:11384   */\n      dup2\n        /* \"#utility.yul\":11376:11396   */\n      sub\n        /* \"#utility.yul\":11372:11373   */\n      0x00\n        /* \"#utility.yul\":11361:11370   */\n      dup4\n        /* \"#utility.yul\":11357:11374   */\n      add\n        /* \"#utility.yul\":11350:11397   */\n      mstore\n        /* \"#utility.yul\":11414:11545   */\n      tag_318\n        /* \"#utility.yul\":11540:11544   */\n      dup2\n        /* \"#utility.yul\":11414:11545   */\n      tag_200\n      jump\t// in\n    tag_318:\n        /* \"#utility.yul\":11406:11545   */\n      swap1\n      pop\n        /* \"#utility.yul\":11133:11552   */\n      swap2\n      swap1\n      pop\n      jump\t// out\n        /* \"#utility.yul\":11558:11725   */\n    tag_116:\n        /* \"#utility.yul\":11595:11598   */\n      0x00\n        /* \"#utility.yul\":11618:11640   */\n      tag_320\n        /* \"#utility.yul\":11634:11639   */\n      dup3\n        /* \"#utility.yul\":11618:11640   */\n      tag_169\n      jump\t// in\n    tag_320:\n        /* \"#utility.yul\":11609:11640   */\n      swap2\n      pop\n        /* \"#utility.yul\":11662:11666   */\n      0xff\n        /* \"#utility.yul\":11655:11660   */\n      dup3\n        /* \"#utility.yul\":11652:11667   */\n      sub\n        /* \"#utility.yul\":11649:11690   */\n      tag_321\n      jumpi\n        /* \"#utility.yul\":11670:11688   */\n      tag_322\n      tag_192\n      jump\t// in\n    tag_322:\n        /* \"#utility.yul\":11649:11690   */\n    tag_321:\n        /* \"#utility.yul\":11717:11718   */\n      0x01\n        /* \"#utility.yul\":11710:11715   */\n      dup3\n        /* \"#utility.yul\":11706:11719   */\n      add\n        /* \"#utility.yul\":11699:11719   */\n      swap1\n      pop\n        /* \"#utility.yul\":11558:11725   */\n      swap2\n      swap1\n      pop\n      jump\t// out\n        /* \"#utility.yul\":11731:12462   */\n    tag_124:\n        /* \"#utility.yul\":11942:11946   */\n      0x00\n        /* \"#utility.yul\":11980:11983   */\n      0xc0\n        /* \"#utility.yul\":11969:11978   */\n      dup3\n        /* \"#utility.yul\":11965:11984   */\n      add\n        /* \"#utility.yul\":11957:11984   */\n      swap1\n      pop\n        /* \"#utility.yul\":11994:12065   */\n      tag_324\n        /* \"#utility.yul\":12062:12063   */\n      0x00\n        /* \"#utility.yul\":12051:12060   */\n      dup4\n        /* \"#utility.yul\":12047:12064   */\n      add\n        /* \"#utility.yul\":12038:12044   */\n      dup10\n        /* \"#utility.yul\":11994:12065   */\n      tag_173\n      jump\t// in\n    tag_324:\n        /* \"#utility.yul\":12075:12141   */\n      tag_325\n        /* \"#utility.yul\":12137:12139   */\n      0x20\n        /* \"#utility.yul\":12126:12135   */\n      dup4\n        /* \"#utility.yul\":12122:12140   */\n      add\n        /* \"#utility.yul\":12113:12119   */\n      dup9\n        /* \"#utility.yul\":12075:12141   */\n      tag_195\n      jump\t// in\n    tag_325:\n        /* \"#utility.yul\":12151:12219   */\n      tag_326\n        /* \"#utility.yul\":12215:12217   */\n      0x40\n        /* \"#utility.yul\":12204:12213   */\n      dup4\n        /* \"#utility.yul\":12200:12218   */\n      add\n        /* \"#utility.yul\":12191:12197   */\n      dup8\n        /* \"#utility.yul\":12151:12219   */\n      tag_196\n      jump\t// in\n    tag_326:\n        /* \"#utility.yul\":12229:12297   */\n      tag_327\n        /* \"#utility.yul\":12293:12295   */\n      0x60\n        /* \"#utility.yul\":12282:12291   */\n      dup4\n        /* \"#utility.yul\":12278:12296   */\n      add\n        /* \"#utility.yul\":12269:12275   */\n      dup7\n        /* \"#utility.yul\":12229:12297   */\n      tag_196\n      jump\t// in\n    tag_327:\n        /* \"#utility.yul\":12307:12376   */\n      tag_328\n        /* \"#utility.yul\":12371:12374   */\n      0x80\n        /* \"#utility.yul\":12360:12369   */\n      dup4\n        /* \"#utility.yul\":12356:12375   */\n      add\n        /* \"#utility.yul\":12347:12353   */\n      dup6\n        /* \"#utility.yul\":12307:12376   */\n      tag_196\n      jump\t// in\n    tag_328:\n        /* \"#utility.yul\":12386:12455   */\n      tag_329\n        /* \"#utility.yul\":12450:12453   */\n      0xa0\n        /* \"#utility.yul\":12439:12448   */\n      dup4\n        /* \"#utility.yul\":12435:12454   */\n      add\n        /* \"#utility.yul\":12426:12432   */\n      dup5\n        /* \"#utility.yul\":12386:12455   */\n      tag_196\n      jump\t// in\n    tag_329:\n        /* \"#utility.yul\":11731:12462   */\n      swap8\n      swap7\n      pop\n      pop\n      pop\n      pop\n      pop\n      pop\n      pop\n      jump\t// out\n        /* \"#utility.yul\":12468:12886   */\n    tag_142:\n        /* \"#utility.yul\":12605:12609   */\n      0x00\n        /* \"#utility.yul\":12643:12645   */\n      0x60\n        /* \"#utility.yul\":12632:12641   */\n      dup3\n        /* \"#utility.yul\":12628:12646   */\n      add\n        /* \"#utility.yul\":12620:12646   */\n      swap1\n      pop\n        /* \"#utility.yul\":12656:12727   */\n      tag_331\n        /* \"#utility.yul\":12724:12725   */\n      0x00\n        /* \"#utility.yul\":12713:12722   */\n      dup4\n        /* \"#utility.yul\":12709:12726   */\n      add\n        /* \"#utility.yul\":12700:12706   */\n      dup7\n        /* \"#utility.yul\":12656:12727   */\n      tag_173\n      jump\t// in\n    tag_331:\n        /* \"#utility.yul\":12737:12803   */\n      tag_332\n        /* \"#utility.yul\":12799:12801   */\n      0x20\n        /* \"#utility.yul\":12788:12797   */\n      dup4\n        /* \"#utility.yul\":12784:12802   */\n      add\n        /* \"#utility.yul\":12775:12781   */\n      dup6\n        /* \"#utility.yul\":12737:12803   */\n      tag_195\n      jump\t// in\n    tag_332:\n        /* \"#utility.yul\":12813:12879   */\n      tag_333\n        /* \"#utility.yul\":12875:12877   */\n      0x40\n        /* \"#utility.yul\":12864:12873   */\n      dup4\n        /* \"#utility.yul\":12860:12878   */\n      add\n        /* \"#utility.yul\":12851:12857   */\n      dup5\n        /* \"#utility.yul\":12813:12879   */\n      tag_195\n      jump\t// in\n    tag_333:\n        /* \"#utility.yul\":12468:12886   */\n      swap5\n      swap4\n      pop\n      pop\n      pop\n      pop\n      jump\t// out\n        /* \"#utility.yul\":12892:13054   */\n    tag_201:\n        /* \"#utility.yul\":13032:13046   */\n      0x696e73756666696369656e740000000000000000000000000000000000000000\n        /* \"#utility.yul\":13028:13029   */\n      0x00\n        /* \"#utility.yul\":13020:13026   */\n      dup3\n        /* \"#utility.yul\":13016:13030   */\n      add\n        /* \"#utility.yul\":13009:13047   */\n      mstore\n        /* \"#utility.yul\":12892:13054   */\n      pop\n      jump\t// out\n        /* \"#utility.yul\":13060:13426   */\n    tag_202:\n        /* \"#utility.yul\":13202:13205   */\n      0x00\n        /* \"#utility.yul\":13223:13290   */\n      tag_336\n        /* \"#utility.yul\":13287:13289   */\n      0x0c\n        /* \"#utility.yul\":13282:13285   */\n      dup4\n        /* \"#utility.yul\":13223:13290   */\n      tag_185\n      jump\t// in\n    tag_336:\n        /* \"#utility.yul\":13216:13290   */\n      swap2\n      pop\n        /* \"#utility.yul\":13299:13392   */\n      tag_337\n        /* \"#utility.yul\":13388:13391   */\n      dup3\n        /* \"#utility.yul\":13299:13392   */\n      tag_201\n      jump\t// in\n    tag_337:\n        /* \"#utility.yul\":13417:13419   */\n      0x20\n        /* \"#utility.yul\":13412:13415   */\n      dup3\n        /* \"#utility.yul\":13408:13420   */\n      add\n        /* \"#utility.yul\":13401:13420   */\n      swap1\n      pop\n        /* \"#utility.yul\":13060:13426   */\n      swap2\n      swap1\n      pop\n      jump\t// out\n        /* \"#utility.yul\":13432:13851   */\n    tag_149:\n        /* \"#utility.yul\":13598:13602   */\n      0x00\n        /* \"#utility.yul\":13636:13638   */\n      0x20\n        /* \"#utility.yul\":13625:13634   */\n      dup3\n        /* \"#utility.yul\":13621:13639   */\n      add\n        /* \"#utility.yul\":13613:13639   */\n      swap1\n      pop\n        /* \"#utility.yul\":13685:13694   */\n      dup2\n        /* \"#utility.yul\":13679:13683   */\n      dup2\n        /* \"#utility.yul\":13675:13695   */\n      sub\n        /* \"#utility.yul\":13671:13672   */\n      0x00\n        /* \"#utility.yul\":13660:13669   */\n      dup4\n        /* \"#utility.yul\":13656:13673   */\n      add\n        /* \"#utility.yul\":13649:13696   */\n      mstore\n        /* \"#utility.yul\":13713:13844   */\n      tag_339\n        /* \"#utility.yul\":13839:13843   */\n      dup2\n        /* \"#utility.yul\":13713:13844   */\n      tag_202\n      jump\t// in\n    tag_339:\n        /* \"#utility.yul\":13705:13844   */\n      swap1\n      pop\n        /* \"#utility.yul\":13432:13851   */\n      swap2\n      swap1\n      pop\n      jump\t// out\n        /* \"#utility.yul\":13857:13936   */\n    tag_203:\n        /* \"#utility.yul\":13896:13903   */\n      0x00\n        /* \"#utility.yul\":13925:13930   */\n      dup2\n        /* \"#utility.yul\":13914:13930   */\n      swap1\n      pop\n        /* \"#utility.yul\":13857:13936   */\n      swap2\n      swap1\n      pop\n      jump\t// out\n        /* \"#utility.yul\":13942:14099   */\n    tag_204:\n        /* \"#utility.yul\":14047:14092   */\n      tag_342\n        /* \"#utility.yul\":14067:14091   */\n      tag_343\n        /* \"#utility.yul\":14085:14090   */\n      dup3\n        /* \"#utility.yul\":14067:14091   */\n      tag_172\n      jump\t// in\n    tag_343:\n        /* \"#utility.yul\":14047:14092   */\n      tag_203\n      jump\t// in\n    tag_342:\n        /* \"#utility.yul\":14042:14045   */\n      dup3\n        /* \"#utility.yul\":14035:14093   */\n      mstore\n        /* \"#utility.yul\":13942:14099   */\n      pop\n      pop\n      jump\t// out\n        /* \"#utility.yul\":14105:14199   */\n    tag_205:\n        /* \"#utility.yul\":14138:14146   */\n      0x00\n        /* \"#utility.yul\":14186:14191   */\n      dup2\n        /* \"#utility.yul\":14182:14184   */\n      0x60\n        /* \"#utility.yul\":14178:14192   */\n      shl\n        /* \"#utility.yul\":14157:14192   */\n      swap1\n      pop\n        /* \"#utility.yul\":14105:14199   */\n      swap2\n      swap1\n      pop\n      jump\t// out\n        /* \"#utility.yul\":14205:14299   */\n    tag_206:\n        /* \"#utility.yul\":14244:14251   */\n      0x00\n        /* \"#utility.yul\":14273:14293   */\n      tag_346\n        /* \"#utility.yul\":14287:14292   */\n      dup3\n        /* \"#utility.yul\":14273:14293   */\n      tag_205\n      jump\t// in\n    tag_346:\n        /* \"#utility.yul\":14262:14293   */\n      swap1\n      pop\n        /* \"#utility.yul\":14205:14299   */\n      swap2\n      swap1\n      pop\n      jump\t// out\n        /* \"#utility.yul\":14305:14405   */\n    tag_207:\n        /* \"#utility.yul\":14344:14351   */\n      0x00\n        /* \"#utility.yul\":14373:14399   */\n      tag_348\n        /* \"#utility.yul\":14393:14398   */\n      dup3\n        /* \"#utility.yul\":14373:14399   */\n      tag_206\n      jump\t// in\n    tag_348:\n        /* \"#utility.yul\":14362:14399   */\n      swap1\n      pop\n        /* \"#utility.yul\":14305:14405   */\n      swap2\n      swap1\n      pop\n      jump\t// out\n        /* \"#utility.yul\":14411:14568   */\n    tag_208:\n        /* \"#utility.yul\":14516:14561   */\n      tag_350\n        /* \"#utility.yul\":14536:14560   */\n      tag_351\n        /* \"#utility.yul\":14554:14559   */\n      dup3\n        /* \"#utility.yul\":14536:14560   */\n      tag_177\n      jump\t// in\n    tag_351:\n        /* \"#utility.yul\":14516:14561   */\n      tag_207\n      jump\t// in\n    tag_350:\n        /* \"#utility.yul\":14511:14514   */\n      dup3\n        /* \"#utility.yul\":14504:14562   */\n      mstore\n        /* \"#utility.yul\":14411:14568   */\n      pop\n      pop\n      jump\t// out\n        /* \"#utility.yul\":14574:15253   */\n    tag_154:\n        /* \"#utility.yul\":14770:14773   */\n      0x00\n        /* \"#utility.yul\":14785:14860   */\n      tag_353\n        /* \"#utility.yul\":14856:14859   */\n      dup3\n        /* \"#utility.yul\":14847:14853   */\n      dup8\n        /* \"#utility.yul\":14785:14860   */\n      tag_204\n      jump\t// in\n    tag_353:\n        /* \"#utility.yul\":14885:14887   */\n      0x20\n        /* \"#utility.yul\":14880:14883   */\n      dup3\n        /* \"#utility.yul\":14876:14888   */\n      add\n        /* \"#utility.yul\":14869:14888   */\n      swap2\n      pop\n        /* \"#utility.yul\":14898:14973   */\n      tag_354\n        /* \"#utility.yul\":14969:14972   */\n      dup3\n        /* \"#utility.yul\":14960:14966   */\n      dup7\n        /* \"#utility.yul\":14898:14973   */\n      tag_204\n      jump\t// in\n    tag_354:\n        /* \"#utility.yul\":14998:15000   */\n      0x20\n        /* \"#utility.yul\":14993:14996   */\n      dup3\n        /* \"#utility.yul\":14989:15001   */\n      add\n        /* \"#utility.yul\":14982:15001   */\n      swap2\n      pop\n        /* \"#utility.yul\":15011:15086   */\n      tag_355\n        /* \"#utility.yul\":15082:15085   */\n      dup3\n        /* \"#utility.yul\":15073:15079   */\n      dup6\n        /* \"#utility.yul\":15011:15086   */\n      tag_208\n      jump\t// in\n    tag_355:\n        /* \"#utility.yul\":15111:15113   */\n      0x14\n        /* \"#utility.yul\":15106:15109   */\n      dup3\n        /* \"#utility.yul\":15102:15114   */\n      add\n        /* \"#utility.yul\":15095:15114   */\n      swap2\n      pop\n        /* \"#utility.yul\":15124:15199   */\n      tag_356\n        /* \"#utility.yul\":15195:15198   */\n      dup3\n        /* \"#utility.yul\":15186:15192   */\n      dup5\n        /* \"#utility.yul\":15124:15199   */\n      tag_204\n      jump\t// in\n    tag_356:\n        /* \"#utility.yul\":15224:15226   */\n      0x20\n        /* \"#utility.yul\":15219:15222   */\n      dup3\n        /* \"#utility.yul\":15215:15227   */\n      add\n        /* \"#utility.yul\":15208:15227   */\n      swap2\n      pop\n        /* \"#utility.yul\":15244:15247   */\n      dup2\n        /* \"#utility.yul\":15237:15247   */\n      swap1\n      pop\n        /* \"#utility.yul\":14574:15253   */\n      swap6\n      swap5\n      pop\n      pop\n      pop\n      pop\n      pop\n      jump\t// out\n        /* \"#utility.yul\":15259:15439   */\n    tag_157:\n        /* \"#utility.yul\":15307:15384   */\n      0x4e487b7100000000000000000000000000000000000000000000000000000000\n        /* \"#utility.yul\":15304:15305   */\n      0x00\n        /* \"#utility.yul\":15297:15385   */\n      mstore\n        /* \"#utility.yul\":15404:15408   */\n      0x12\n        /* \"#utility.yul\":15401:15402   */\n      0x04\n        /* \"#utility.yul\":15394:15409   */\n      mstore\n        /* \"#utility.yul\":15428:15432   */\n      0x24\n        /* \"#utility.yul\":15425:15426   */\n      0x00\n        /* \"#utility.yul\":15418:15433   */\n      revert\n        /* \"#utility.yul\":15445:15636   */\n    tag_161:\n        /* \"#utility.yul\":15485:15488   */\n      0x00\n        /* \"#utility.yul\":15504:15524   */\n      tag_359\n        /* \"#utility.yul\":15522:15523   */\n      dup3\n        /* \"#utility.yul\":15504:15524   */\n      tag_172\n      jump\t// in\n    tag_359:\n        /* \"#utility.yul\":15499:15524   */\n      swap2\n      pop\n        /* \"#utility.yul\":15538:15558   */\n      tag_360\n        /* \"#utility.yul\":15556:15557   */\n      dup4\n        /* \"#utility.yul\":15538:15558   */\n      tag_172\n      jump\t// in\n    tag_360:\n        /* \"#utility.yul\":15533:15558   */\n      swap3\n      pop\n        /* \"#utility.yul\":15581:15582   */\n      dup3\n        /* \"#utility.yul\":15578:15579   */\n      dup3\n        /* \"#utility.yul\":15574:15583   */\n      add\n        /* \"#utility.yul\":15567:15583   */\n      swap1\n      pop\n        /* \"#utility.yul\":15602:15605   */\n      dup1\n        /* \"#utility.yul\":15599:15600   */\n      dup3\n        /* \"#utility.yul\":15596:15606   */\n      gt\n        /* \"#utility.yul\":15593:15629   */\n      iszero\n      tag_361\n      jumpi\n        /* \"#utility.yul\":15609:15627   */\n      tag_362\n      tag_192\n      jump\t// in\n    tag_362:\n        /* \"#utility.yul\":15593:15629   */\n    tag_361:\n        /* \"#utility.yul\":15445:15636   */\n      swap3\n      swap2\n      pop\n      pop\n      jump\t// out\n        /* \"#utility.yul\":15642:15830   */\n    tag_165:\n        /* \"#utility.yul\":15680:15683   */\n      0x00\n        /* \"#utility.yul\":15699:15717   */\n      tag_364\n        /* \"#utility.yul\":15715:15716   */\n      dup3\n        /* \"#utility.yul\":15699:15717   */\n      tag_169\n      jump\t// in\n    tag_364:\n        /* \"#utility.yul\":15694:15717   */\n      swap2\n      pop\n        /* \"#utility.yul\":15731:15749   */\n      tag_365\n        /* \"#utility.yul\":15747:15748   */\n      dup4\n        /* \"#utility.yul\":15731:15749   */\n      tag_169\n      jump\t// in\n    tag_365:\n        /* \"#utility.yul\":15726:15749   */\n      swap3\n      pop\n        /* \"#utility.yul\":15772:15773   */\n      dup3\n        /* \"#utility.yul\":15769:15770   */\n      dup3\n        /* \"#utility.yul\":15765:15774   */\n      add\n        /* \"#utility.yul\":15758:15774   */\n      swap1\n      pop\n        /* \"#utility.yul\":15795:15799   */\n      0xff\n        /* \"#utility.yul\":15790:15793   */\n      dup2\n        /* \"#utility.yul\":15787:15800   */\n      gt\n        /* \"#utility.yul\":15784:15823   */\n      iszero\n      tag_366\n      jumpi\n        /* \"#utility.yul\":15803:15821   */\n      tag_367\n      tag_192\n      jump\t// in\n    tag_367:\n        /* \"#utility.yul\":15784:15823   */\n    tag_366:\n        /* \"#utility.yul\":15642:15830   */\n      swap3\n      swap2\n      pop\n      pop\n      jump\t// out\n\n    auxdata: 0xa26469706673582212206196bb5a3adc45d05d35eba8d2153040d7af96daa72168f0dee24d559c76694964736f6c63430008180033\n}\n",
				"bytecode": {
					"linkReferences": {},
					"object": "608060405260018055678ac7230489e8000060025534801561001f575f80fd5b50335f806101000a81548173ffffffffffffffffffffffffffffffffffffffff021916908373ffffffffffffffffffffffffffffffffffffffff1602179055506113198061006c5f395ff3fe608060405260043610610089575f3560e01c806391a4f2ec1161005857806391a4f2ec1461012c578063affed0e014610148578063b60d428814610172578063cafab8e71461017c578063f3fef3a31461019857610090565b80630df8b93b146100945780632e5b2168146100b0578063881eff1e146100da5780638da5cb5b1461010257610090565b3661009057005b5f80fd5b6100ae60048036038101906100a99190610b48565b6101c0565b005b3480156100bb575f80fd5b506100c46103c6565b6040516100d19190610b8b565b60405180910390f35b3480156100e5575f80fd5b5061010060048036038101906100fb9190610bce565b6103cc565b005b34801561010d575f80fd5b50610116610463565b6040516101239190610c38565b60405180910390f35b61014660048036038101906101419190610b48565b610486565b005b348015610153575f80fd5b5061015c610793565b6040516101699190610b8b565b60405180910390f35b61017a610799565b005b61019660048036038101906101919190610c86565b61079b565b005b3480156101a3575f80fd5b506101be60048036038101906101b99190610cec565b61095a565b005b6001805414610204576040517f08c379a00000000000000000000000000000000000000000000000000000000081526004016101fb90610d84565b60405180910390fd5b600260018190555060038160ff1610610252576040517f08c379a000000000000000000000000000000000000000000000000000000000815260040161024990610dec565b60405180910390fd5b5f3490505f8111801561026757506002548111155b6102a6576040517f08c379a000000000000000000000000000000000000000000000000000000000815260040161029d90610e54565b60405180910390fd5b6002816102b39190610e9f565b4710156102f5576040517f08c379a00000000000000000000000000000000000000000000000000000000081526004016102ec90610f2a565b60405180910390fd5b5f6103006003610a72565b90505f8360ff168260ff161490508015610365573373ffffffffffffffffffffffffffffffffffffffff166108fc60028561033b9190610e9f565b90811502906040515f60405180830381858888f19350505050158015610363573d5f803e3d5ffd5b505b3373ffffffffffffffffffffffffffffffffffffffff167ff8f3c747b75419bd578197d83f20823bb034bcdf041645c86bcfc9d97263a89e848385886040516103b19493929190610f66565b60405180910390a25050506001808190555050565b60025481565b5f8054906101000a900473ffffffffffffffffffffffffffffffffffffffff1673ffffffffffffffffffffffffffffffffffffffff163373ffffffffffffffffffffffffffffffffffffffff1614610459576040517f08c379a000000000000000000000000000000000000000000000000000000000815260040161045090610ff3565b60405180910390fd5b8060028190555050565b5f8054906101000a900473ffffffffffffffffffffffffffffffffffffffff1681565b60018054146104ca576040517f08c379a00000000000000000000000000000000000000000000000000000000081526004016104c190610d84565b60405180910390fd5b600260018190555060058160ff16101580156104ea575060098160ff1611155b610529576040517f08c379a00000000000000000000000000000000000000000000000000000000081526004016105209061105b565b60405180910390fd5b5f3490505f8111801561053e57506002548111155b61057d576040517f08c379a000000000000000000000000000000000000000000000000000000000815260040161057490610e54565b60405180910390fd5b60028161058a9190610e9f565b4710156105cc576040517f08c379a00000000000000000000000000000000000000000000000000000000081526004016105c390610f2a565b60405180910390fd5b5f6105d5610ac8565b90505f80600190505f8560ff168460ff16036105f457600190506106d5565b60028460ff161480610609575060038460ff16145b15610616575f90506106d4565b600b8460ff16148061062b5750600c8460ff16145b156106705760078660ff1603610643575f905061066b565b60058660ff161480610658575060098660ff16145b15610666576001905061066a565b5f90505b5b6106d3565b8392505f5b60408160ff1610156106d157610689610ac8565b9450828061069690611079565b9350508360ff168560ff16036106af57600191506106d1565b8660ff168560ff16036106c4575f91506106d1565b8080600101915050610675565b505b5b5b801561072c573373ffffffffffffffffffffffffffffffffffffffff166108fc6002876107029190610e9f565b90811502906040515f60405180830381858888f1935050505015801561072a573d5f803e3d5ffd5b505b3373ffffffffffffffffffffffffffffffffffffffff167f5a08ed90cb799d1b0281213096fc06cd7e7ab84f1e2e4b8947282b4f3712b4c686838988888860405161077c969594939291906110a1565b60405180910390a250505050506001808190555050565b60035481565b565b60018054146107df576040517f08c379a00000000000000000000000000000000000000000000000000000000081526004016107d690610d84565b60405180910390fd5b60026001819055505f3490505f811180156107fc57506002548111155b61083b576040517f08c379a000000000000000000000000000000000000000000000000000000000815260040161083290610e54565b60405180910390fd5b6002816108489190610e9f565b47101561088a576040517f08c379a000000000000000000000000000000000000000000000000000000000815260040161088190610f2a565b60405180910390fd5b5f60016108976002610a72565b1490505f83151582151514905080156108fb573373ffffffffffffffffffffffffffffffffffffffff166108fc6002856108d19190610e9f565b90811502906040515f60405180830381858888f193505050501580156108f9573d5f803e3d5ffd5b505b3373ffffffffffffffffffffffffffffffffffffffff167fe4e7f0a0e6fc393a5af5b89ee2fe9a7267a850bbcc8ec0e4571f51a17ed1d97e84838560405161094593929190611100565b60405180910390a25050506001808190555050565b5f8054906101000a900473ffffffffffffffffffffffffffffffffffffffff1673ffffffffffffffffffffffffffffffffffffffff163373ffffffffffffffffffffffffffffffffffffffff16146109e7576040517f08c379a00000000000000000000000000000000000000000000000000000000081526004016109de90610ff3565b60405180910390fd5b80471015610a2a576040517f08c379a0000000000000000000000000000000000000000000000000000000008152600401610a219061117f565b60405180910390fd5b8173ffffffffffffffffffffffffffffffffffffffff166108fc8290811502906040515f60405180830381858888f19350505050158015610a6d573d5f803e3d5ffd5b505050565b5f8144423360035f81548092919060010191905055604051602001610a9a9493929190611202565b604051602081830303815290604052805190602001205f1c81610ac057610abf61124f565b5b069050919050565b5f806001610ad66006610a72565b610ae0919061127c565b90505f6001610aef6006610a72565b610af9919061127c565b90508082610b0791906112af565b9250505090565b5f80fd5b5f60ff82169050919050565b610b2781610b12565b8114610b31575f80fd5b50565b5f81359050610b4281610b1e565b92915050565b5f60208284031215610b5d57610b5c610b0e565b5b5f610b6a84828501610b34565b91505092915050565b5f819050919050565b610b8581610b73565b82525050565b5f602082019050610b9e5f830184610b7c565b92915050565b610bad81610b73565b8114610bb7575f80fd5b50565b5f81359050610bc881610ba4565b92915050565b5f60208284031215610be357610be2610b0e565b5b5f610bf084828501610bba565b91505092915050565b5f73ffffffffffffffffffffffffffffffffffffffff82169050919050565b5f610c2282610bf9565b9050919050565b610c3281610c18565b82525050565b5f602082019050610c4b5f830184610c29565b92915050565b5f8115159050919050565b610c6581610c51565b8114610c6f575f80fd5b50565b5f81359050610c8081610c5c565b92915050565b5f60208284031215610c9b57610c9a610b0e565b5b5f610ca884828501610c72565b91505092915050565b5f610cbb82610bf9565b9050919050565b610ccb81610cb1565b8114610cd5575f80fd5b50565b5f81359050610ce681610cc2565b92915050565b5f8060408385031215610d0257610d01610b0e565b5b5f610d0f85828601610cd8565b9250506020610d2085828601610bba565b9150509250929050565b5f82825260208201905092915050565b7f7265656e7472616e7400000000000000000000000000000000000000000000005f82015250565b5f610d6e600983610d2a565b9150610d7982610d3a565b602082019050919050565b5f6020820190508181035f830152610d9b81610d62565b9050919050565b7f62616420677565737300000000000000000000000000000000000000000000005f82015250565b5f610dd6600983610d2a565b9150610de182610da2565b602082019050919050565b5f6020820190508181035f830152610e0381610dca565b9050919050565b7f62616420776167657200000000000000000000000000000000000000000000005f82015250565b5f610e3e600983610d2a565b9150610e4982610e0a565b602082019050919050565b5f6020820190508181035f830152610e6b81610e32565b9050919050565b7f4e487b71000000000000000000000000000000000000000000000000000000005f52601160045260245ffd5b5f610ea982610b73565b9150610eb483610b73565b9250828202610ec281610b73565b91508282048414831517610ed957610ed8610e72565b5b5092915050565b7f62616e6b726f6c6c206c6f7700000000000000000000000000000000000000005f82015250565b5f610f14600c83610d2a565b9150610f1f82610ee0565b602082019050919050565b5f6020820190508181035f830152610f4181610f08565b9050919050565b610f5181610c51565b82525050565b610f6081610b12565b82525050565b5f608082019050610f795f830187610b7c565b610f866020830186610f48565b610f936040830185610f57565b610fa06060830184610f57565b95945050505050565b7f6e6f74206f776e657200000000000000000000000000000000000000000000005f82015250565b5f610fdd600983610d2a565b9150610fe882610fa9565b602082019050919050565b5f6020820190508181035f83015261100a81610fd1565b9050919050565b7f626164206d61696e0000000000000000000000000000000000000000000000005f82015250565b5f611045600883610d2a565b915061105082611011565b602082019050919050565b5f6020820190508181035f83015261107281611039565b9050919050565b5f61108382610b12565b915060ff820361109657611095610e72565b5b600182019050919050565b5f60c0820190506110b45f830189610b7c565b6110c16020830188610f48565b6110ce6040830187610f57565b6110db6060830186610f57565b6110e86080830185610f57565b6110f560a0830184610f57565b979650505050505050565b5f6060820190506111135f830186610b7c565b6111206020830185610f48565b61112d6040830184610f48565b949350505050565b7f696e73756666696369656e7400000000000000000000000000000000000000005f82015250565b5f611169600c83610d2a565b915061117482611135565b602082019050919050565b5f6020820190508181035f8301526111968161115d565b9050919050565b5f819050919050565b6111b76111b282610b73565b61119d565b82525050565b5f8160601b9050919050565b5f6111d3826111bd565b9050919050565b5f6111e4826111c9565b9050919050565b6111fc6111f782610c18565b6111da565b82525050565b5f61120d82876111a6565b60208201915061121d82866111a6565b60208201915061122d82856111eb565b60148201915061123d82846111a6565b60208201915081905095945050505050565b7f4e487b71000000000000000000000000000000000000000000000000000000005f52601260045260245ffd5b5f61128682610b73565b915061129183610b73565b92508282019050808211156112a9576112a8610e72565b5b92915050565b5f6112b982610b12565b91506112c483610b12565b9250828201905060ff8111156112dd576112dc610e72565b5b9291505056fea26469706673582212206196bb5a3adc45d05d35eba8d2153040d7af96daa72168f0dee24d559c76694964736f6c63430008180033",
					"opcodes": "PUSH1 0x80 PUSH1 0x40 MSTORE PUSH1 0x1 DUP1 SSTORE PUSH8 0x8AC7230489E80000 PUSH1 0x2 SSTORE CALLVALUE DUP1 ISZERO PUSH2 0x1F JUMPI PUSH0 DUP1 REVERT JUMPDEST POP CALLER PUSH0 DUP1 PUSH2 0x100 EXP DUP2 SLOAD DUP2 PUSH20 0xFFFFFFFFFFFFFFFFFFFFFFFFFFFFFFFFFFFFFFFF MUL NOT AND SWAP1 DUP4 PUSH20 0xFFFFFFFFFFFFFFFFFFFFFFFFFFFFFFFFFFFFFFFF AND MUL OR SWAP1 SSTORE POP PUSH2 0x1319 DUP1 PUSH2 0x6C PUSH0 CODECOPY PUSH0 RETURN INVALID PUSH1 0x80 PUSH1 0x40 MSTORE PUSH1 0x4 CALLDATASIZE LT PUSH2 0x89 JUMPI PUSH0 CALLDATALOAD PUSH1 0xE0 SHR DUP1 PUSH4 0x91A4F2EC GT PUSH2 0x58 JUMPI DUP1 PUSH4 0x91A4F2EC EQ PUSH2 0x12C JUMPI DUP1 PUSH4 0xAFFED0E0 EQ PUSH2 0x148 JUMPI DUP1 PUSH4 0xB60D4288 EQ PUSH2 0x172 JUMPI DUP1 PUSH4 0xCAFAB8E7 EQ PUSH2 0x17C JUMPI DUP1 PUSH4 0xF3FEF3A3 EQ PUSH2 0x198 JUMPI PUSH2 0x90 JUMP JUMPDEST DUP1 PUSH4 0xDF8B93B EQ PUSH2 0x94 JUMPI DUP1 PUSH4 0x2E5B2168 EQ PUSH2 0xB0 JUMPI DUP1 PUSH4 0x881EFF1E EQ PUSH2 0xDA JUMPI DUP1 PUSH4 0x8DA5CB5B EQ PUSH2 0x102 JUMPI PUSH2 0x90 JUMP JUMPDEST CALLDATASIZE PUSH2 0x90 JUMPI STOP JUMPDEST PUSH0 DUP1 REVERT JUMPDEST PUSH2 0xAE PUSH1 0x4 DUP1 CALLDATASIZE SUB DUP2 ADD SWAP1 PUSH2 0xA9 SWAP2 SWAP1 PUSH2 0xB48 JUMP JUMPDEST PUSH2 0x1C0 JUMP JUMPDEST STOP JUMPDEST CALLVALUE DUP1 ISZERO PUSH2 0xBB JUMPI PUSH0 DUP1 REVERT JUMPDEST POP PUSH2 0xC4 PUSH2 0x3C6 JUMP JUMPDEST PUSH1 0x40 MLOAD PUSH2 0xD1 SWAP2 SWAP1 PUSH2 0xB8B JUMP JUMPDEST PUSH1 0x40 MLOAD DUP1 SWAP2 SUB SWAP1 RETURN JUMPDEST CALLVALUE DUP1 ISZERO PUSH2 0xE5 JUMPI PUSH0 DUP1 REVERT JUMPDEST POP PUSH2 0x100 PUSH1 0x4 DUP1 CALLDATASIZE SUB DUP2 ADD SWAP1 PUSH2 0xFB SWAP2 SWAP1 PUSH2 0xBCE JUMP JUMPDEST PUSH2 0x3CC JUMP JUMPDEST STOP JUMPDEST CALLVALUE DUP1 ISZERO PUSH2 0x10D JUMPI PUSH0 DUP1 REVERT JUMPDEST POP PUSH2 0x116 PUSH2 0x463 JUMP JUMPDEST PUSH1 0x40 MLOAD PUSH2 0x123 SWAP2 SWAP1 PUSH2 0xC38 JUMP JUMPDEST PUSH1 0x40 MLOAD DUP1 SWAP2 SUB SWAP1 RETURN JUMPDEST PUSH2 0x146 PUSH1 0x4 DUP1 CALLDATASIZE SUB DUP2 ADD SWAP1 PUSH2 0x141 SWAP2 SWAP1 PUSH2 0xB48 JUMP JUMPDEST PUSH2 0x486 JUMP JUMPDEST STOP JUMPDEST CALLVALUE DUP1 ISZERO PUSH2 0x153 JUMPI PUSH0 DUP1 REVERT JUMPDEST POP PUSH2 0x15C PUSH2 0x793 JUMP JUMPDEST PUSH1 0x40 MLOAD PUSH2 0x169 SWAP2 SWAP1 PUSH2 0xB8B JUMP JUMPDEST PUSH1 0x40 MLOAD DUP1 SWAP2 SUB SWAP1 RETURN JUMPDEST PUSH2 0x17A PUSH2 0x799 JUMP JUMPDEST STOP JUMPDEST PUSH2 0x196 PUSH1 0x4 DUP1 CALLDATASIZE SUB DUP2 ADD SWAP1 PUSH2 0x191 SWAP2 SWAP1 PUSH2 0xC86 JUMP JUMPDEST PUSH2 0x79B JUMP JUMPDEST STOP JUMPDEST CALLVALUE DUP1 ISZERO PUSH2 0x1A3 JUMPI PUSH0 DUP1 REVERT JUMPDEST POP PUSH2 0x1BE PUSH1 0x4 DUP1 CALLDATASIZE SUB DUP2 ADD SWAP1 PUSH2 0x1B9 SWAP2 SWAP1 PUSH2 0xCEC JUMP JUMPDEST PUSH2 0x95A JUMP JUMPDEST STOP JUMPDEST PUSH1 0x1 DUP1 SLOAD EQ PUSH2 0x204 JUMPI PUSH1 0x40 MLOAD PUSH32 0x8C379A000000000000000000000000000000000000000000000000000000000 DUP2 MSTORE PUSH1 0x4 ADD PUSH2 0x1FB SWAP1 PUSH2 0xD84 JUMP JUMPDEST PUSH1 0x40 MLOAD DUP1 SWAP2 SUB SWAP1 REVERT JUMPDEST PUSH1 0x2 PUSH1 0x1 DUP2 SWAP1 SSTORE POP PUSH1 0x3 DUP2 PUSH1 0xFF AND LT PUSH2 0x252 JUMPI PUSH1 0x40 MLOAD PUSH32 0x8C379A000000000000000000000000000000000000000000000000000000000 DUP2 MSTORE PUSH1 0x4 ADD PUSH2 0x249 SWAP1 PUSH2 0xDEC JUMP JUMPDEST PUSH1 0x40 MLOAD DUP1 SWAP2 SUB SWAP1 REVERT JUMPDEST PUSH0 CALLVALUE SWAP1 POP PUSH0 DUP2 GT DUP1 ISZERO PUSH2 0x267 JUMPI POP PUSH1 0x2 SLOAD DUP2 GT ISZERO JUMPDEST PUSH2 0x2A6 JUMPI PUSH1 0x40 MLOAD PUSH32 0x8C379A000000000000000000000000000000000000000000000000000000000 DUP2 MSTORE PUSH1 0x4 ADD PUSH2 0x29D SWAP1 PUSH2 0xE54 JUMP JUMPDEST PUSH1 0x40 MLOAD DUP1 SWAP2 SUB SWAP1 REVERT JUMPDEST PUSH1 0x2 DUP2 PUSH2 0x2B3 SWAP2 SWAP1 PUSH2 0xE9F JUMP JUMPDEST SELFBALANCE LT ISZERO PUSH2 0x2F5 JUMPI PUSH1 0x40 MLOAD PUSH32 0x8C379A000000000000000000000000000000000000000000000000000000000 DUP2 MSTORE PUSH1 0x4 ADD PUSH2 0x2EC SWAP1 PUSH2 0xF2A JUMP JUMPDEST PUSH1 0x40 MLOAD DUP1 SWAP2 SUB SWAP1 REVERT JUMPDEST PUSH0 PUSH2 0x300 PUSH1 0x3 PUSH2 0xA72 JUMP JUMPDEST SWAP1 POP PUSH0 DUP4 PUSH1 0xFF AND DUP3 PUSH1 0xFF AND EQ SWAP1 POP DUP1 ISZERO PUSH2 0x365 JUMPI CALLER PUSH20 0xFFFFFFFFFFFFFFFFFFFFFFFFFFFFFFFFFFFFFFFF AND PUSH2 0x8FC PUSH1 0x2 DUP6 PUSH2 0x33B SWAP2 SWAP1 PUSH2 0xE9F JUMP JUMPDEST SWAP1 DUP2 ISZERO MUL SWAP1 PUSH1 0x40 MLOAD PUSH0 PUSH1 0x40 MLOAD DUP1 DUP4 SUB DUP2 DUP6 DUP9 DUP9 CALL SWAP4 POP POP POP POP ISZERO DUP1 ISZERO PUSH2 0x363 JUMPI RETURNDATASIZE PUSH0 DUP1 RETURNDATACOPY RETURNDATASIZE PUSH0 REVERT JUMPDEST POP JUMPDEST CALLER PUSH20 0xFFFFFFFFFFFFFFFFFFFFFFFFFFFFFFFFFFFFFFFF AND PUSH32 0xF8F3C747B75419BD578197D83F20823BB034BCDF041645C86BCFC9D97263A89E DUP5 DUP4 DUP6 DUP9 PUSH1 0x40 MLOAD PUSH2 0x3B1 SWAP5 SWAP4 SWAP3 SWAP2 SWAP1 PUSH2 0xF66 JUMP JUMPDEST PUSH1 0x40 MLOAD DUP1 SWAP2 SUB SWAP1 LOG2 POP POP POP PUSH1 0x1 DUP1 DUP2 SWAP1 SSTORE POP POP JUMP JUMPDEST PUSH1 0x2 SLOAD DUP2 JUMP JUMPDEST PUSH0 DUP1 SLOAD SWAP1 PUSH2 0x100 EXP SWAP1 DIV PUSH20 0xFFFFFFFFFFFFFFFFFFFFFFFFFFFFFFFFFFFFFFFF AND PUSH20 0xFFFFFFFFFFFFFFFFFFFFFFFFFFFFFFFFFFFFFFFF AND CALLER PUSH20 0xFFFFFFFFFFFFFFFFFFFFFFFFFFFFFFFFFFFFFFFF AND EQ PUSH2 0x459 JUMPI PUSH1 0x40 MLOAD PUSH32 0x8C379A000000000000000000000000000000000000000000000000000000000 DUP2 MSTORE PUSH1 0x4 ADD PUSH2 0x450 SWAP1 PUSH2 0xFF3 JUMP JUMPDEST PUSH1 0x40 MLOAD DUP1 SWAP2 SUB SWAP1 REVERT JUMPDEST DUP1 PUSH1 0x2 DUP2 SWAP1 SSTORE POP POP JUMP JUMPDEST PUSH0 DUP1 SLOAD SWAP1 PUSH2 0x100 EXP SWAP1 DIV PUSH20 0xFFFFFFFFFFFFFFFFFFFFFFFFFFFFFFFFFFFFFFFF AND DUP2 JUMP JUMPDEST PUSH1 0x1 DUP1 SLOAD EQ PUSH2 0x4CA JUMPI PUSH1 0x40 MLOAD PUSH32 0x8C379A000000000000000000000000000000000000000000000000000000000 DUP2 MSTORE PUSH1 0x4 ADD PUSH2 0x4C1 SWAP1 PUSH2 0xD84 JUMP JUMPDEST PUSH1 0x40 MLOAD DUP1 SWAP2 SUB SWAP1 REVERT JUMPDEST PUSH1 0x2 PUSH1 0x1 DUP2 SWAP1 SSTORE POP PUSH1 0x5 DUP2 PUSH1 0xFF AND LT ISZERO DUP1 ISZERO PUSH2 0x4EA JUMPI POP PUSH1 0x9 DUP2 PUSH1 0xFF AND GT ISZERO JUMPDEST PUSH2 0x529 JUMPI PUSH1 0x40 MLOAD PUSH32 0x8C379A000000000000000000000000000000000000000000000000000000000 DUP2 MSTORE PUSH1 0x4 ADD PUSH2 0x520 SWAP1 PUSH2 0x105B JUMP JUMPDEST PUSH1 0x40 MLOAD DUP1 SWAP2 SUB SWAP1 REVERT JUMPDEST PUSH0 CALLVALUE SWAP1 POP PUSH0 DUP2 GT DUP1 ISZERO PUSH2 0x53E JUMPI POP PUSH1 0x2 SLOAD DUP2 GT ISZERO JUMPDEST PUSH2 0x57D JUMPI PUSH1 0x40 MLOAD PUSH32 0x8C379A000000000000000000000000000000000000000000000000000000000 DUP2 MSTORE PUSH1 0x4 ADD PUSH2 0x574 SWAP1 PUSH2 0xE54 JUMP JUMPDEST PUSH1 0x40 MLOAD DUP1 SWAP2 SUB SWAP1 REVERT JUMPDEST PUSH1 0x2 DUP2 PUSH2 0x58A SWAP2 SWAP1 PUSH2 0xE9F JUMP JUMPDEST SELFBALANCE LT ISZERO PUSH2 0x5CC JUMPI PUSH1 0x40 MLOAD PUSH32 0x8C379A000000000000000000000000000000000000000000000000000000000 DUP2 MSTORE PUSH1 0x4 ADD PUSH2 0x5C3 SWAP1 PUSH2 0xF2A JUMP JUMPDEST PUSH1 0x40 MLOAD DUP1 SWAP2 SUB SWAP1 REVERT JUMPDEST PUSH0 PUSH2 0x5D5 PUSH2 0xAC8 JUMP JUMPDEST SWAP1 POP PUSH0 DUP1 PUSH1 0x1 SWAP1 POP PUSH0 DUP6 PUSH1 0xFF AND DUP5 PUSH1 0xFF AND SUB PUSH2 0x5F4 JUMPI PUSH1 0x1 SWAP1 POP PUSH2 0x6D5 JUMP JUMPDEST PUSH1 0x2 DUP5 PUSH1 0xFF AND EQ DUP1 PUSH2 0x609 JUMPI POP PUSH1 0x3 DUP5 PUSH1 0xFF AND EQ JUMPDEST ISZERO PUSH2 0x616 JUMPI PUSH0 SWAP1 POP PUSH2 0x6D4 JUMP JUMPDEST PUSH1 0xB DUP5 PUSH1 0xFF AND EQ DUP1 PUSH2 0x62B JUMPI POP PUSH1 0xC DUP5 PUSH1 0xFF AND EQ JUMPDEST ISZERO PUSH2 0x670 JUMPI PUSH1 0x7 DUP7 PUSH1 0xFF AND SUB PUSH2 0x643 JUMPI PUSH0 SWAP1 POP PUSH2 0x66B JUMP JUMPDEST PUSH1 0x5 DUP7 PUSH1 0xFF AND EQ DUP1 PUSH2 0x658 JUMPI POP PUSH1 0x9 DUP7 PUSH1 0xFF AND EQ JUMPDEST ISZERO PUSH2 0x666 JUMPI PUSH1 0x1 SWAP1 POP PUSH2 0x66A JUMP JUMPDEST PUSH0 SWAP1 POP JUMPDEST JUMPDEST PUSH2 0x6D3 JUMP JUMPDEST DUP4 SWAP3 POP PUSH0 JUMPDEST PUSH1 0x40 DUP2 PUSH1 0xFF AND LT ISZERO PUSH2 0x6D1 JUMPI PUSH2 0x689 PUSH2 0xAC8 JUMP JUMPDEST SWAP5 POP DUP3 DUP1 PUSH2 0x696 SWAP1 PUSH2 0x1079 JUMP JUMPDEST SWAP4 POP POP DUP4 PUSH1 0xFF AND DUP6 PUSH1 0xFF AND SUB PUSH2 0x6AF JUMPI PUSH1 0x1 SWAP2 POP PUSH2 0x6D1 JUMP JUMPDEST DUP7 PUSH1 0xFF AND DUP6 PUSH1 0xFF AND SUB PUSH2 0x6C4 JUMPI PUSH0 SWAP2 POP PUSH2 0x6D1 JUMP JUMPDEST DUP1 DUP1 PUSH1 0x1 ADD SWAP2 POP POP PUSH2 0x675 JUMP JUMPDEST POP JUMPDEST JUMPDEST JUMPDEST DUP1 ISZERO PUSH2 0x72C JUMPI CALLER PUSH20 0xFFFFFFFFFFFFFFFFFFFFFFFFFFFFFFFFFFFFFFFF AND PUSH2 0x8FC PUSH1 0x2 DUP8 PUSH2 0x702 SWAP2 SWAP1 PUSH2 0xE9F JUMP JUMPDEST SWAP1 DUP2 ISZERO MUL SWAP1 PUSH1 0x40 MLOAD PUSH0 PUSH1 0x40 MLOAD DUP1 DUP4 SUB DUP2 DUP6 DUP9 DUP9 CALL SWAP4 POP POP POP POP ISZERO DUP1 ISZERO PUSH2 0x72A JUMPI RETURNDATASIZE PUSH0 DUP1 RETURNDATACOPY RETURNDATASIZE PUSH0 REVERT JUMPDEST POP JUMPDEST CALLER PUSH20 0xFFFFFFFFFFFFFFFFFFFFFFFFFFFFFFFFFFFFFFFF AND PUSH32 0x5A08ED90CB799D1B0281213096FC06CD7E7AB84F1E2E4B8947282B4F3712B4C6 DUP7 DUP4 DUP10 DUP9 DUP9 DUP9 PUSH1 0x40 MLOAD PUSH2 0x77C SWAP7 SWAP6 SWAP5 SWAP4 SWAP3 SWAP2 SWAP1 PUSH2 0x10A1 JUMP JUMPDEST PUSH1 0x40 MLOAD DUP1 SWAP2 SUB SWAP1 LOG2 POP POP POP POP POP PUSH1 0x1 DUP1 DUP2 SWAP1 SSTORE POP POP JUMP JUMPDEST PUSH1 0x3 SLOAD DUP2 JUMP JUMPDEST JUMP JUMPDEST PUSH1 0x1 DUP1 SLOAD EQ PUSH2 0x7DF JUMPI PUSH1 0x40 MLOAD PUSH32 0x8C379A000000000000000000000000000000000000000000000000000000000 DUP2 MSTORE PUSH1 0x4 ADD PUSH2 0x7D6 SWAP1 PUSH2 0xD84 JUMP JUMPDEST PUSH1 0x40 MLOAD DUP1 SWAP2 SUB SWAP1 REVERT JUMPDEST PUSH1 0x2 PUSH1 0x1 DUP2 SWAP1 SSTORE POP PUSH0 CALLVALUE SWAP1 POP PUSH0 DUP2 GT DUP1 ISZERO PUSH2 0x7FC JUMPI POP PUSH1 0x2 SLOAD DUP2 GT ISZERO JUMPDEST PUSH2 0x83B JUMPI PUSH1 0x40 MLOAD PUSH32 0x8C379A000000000000000000000000000000000000000000000000000000000 DUP2 MSTORE PUSH1 0x4 ADD PUSH2 0x832 SWAP1 PUSH2 0xE54 JUMP JUMPDEST PUSH1 0x40 MLOAD DUP1 SWAP2 SUB SWAP1 REVERT JUMPDEST PUSH1 0x2 DUP2 PUSH2 0x848 SWAP2 SWAP1 PUSH2 0xE9F JUMP JUMPDEST SELFBALANCE LT ISZERO PUSH2 0x88A JUMPI PUSH1 0x40 MLOAD PUSH32 0x8C379A000000000000000000000000000000000000000000000000000000000 DUP2 MSTORE PUSH1 0x4 ADD PUSH2 0x881 SWAP1 PUSH2 0xF2A JUMP JUMPDEST PUSH1 0x40 MLOAD DUP1 SWAP2 SUB SWAP1 REVERT JUMPDEST PUSH0 PUSH1 0x1 PUSH2 0x897 PUSH1 0x2 PUSH2 0xA72 JUMP JUMPDEST EQ SWAP1 POP PUSH0 DUP4 ISZERO ISZERO DUP3 ISZERO ISZERO EQ SWAP1 POP DUP1 ISZERO PUSH2 0x8FB JUMPI CALLER PUSH20 0xFFFFFFFFFFFFFFFFFFFFFFFFFFFFFFFFFFFFFFFF AND PUSH2 0x8FC PUSH1 0x2 DUP6 PUSH2 0x8D1 SWAP2 SWAP1 PUSH2 0xE9F JUMP JUMPDEST SWAP1 DUP2 ISZERO MUL SWAP1 PUSH1 0x40 MLOAD PUSH0 PUSH1 0x40 MLOAD DUP1 DUP4 SUB DUP2 DUP6 DUP9 DUP9 CALL SWAP4 POP POP POP POP ISZERO DUP1 ISZERO PUSH2 0x8F9 JUMPI RETURNDATASIZE PUSH0 DUP1 RETURNDATACOPY RETURNDATASIZE PUSH0 REVERT JUMPDEST POP JUMPDEST CALLER PUSH20 0xFFFFFFFFFFFFFFFFFFFFFFFFFFFFFFFFFFFFFFFF AND PUSH32 0xE4E7F0A0E6FC393A5AF5B89EE2FE9A7267A850BBCC8EC0E4571F51A17ED1D97E DUP5 DUP4 DUP6 PUSH1 0x40 MLOAD PUSH2 0x945 SWAP4 SWAP3 SWAP2 SWAP1 PUSH2 0x1100 JUMP JUMPDEST PUSH1 0x40 MLOAD DUP1 SWAP2 SUB SWAP1 LOG2 POP POP POP PUSH1 0x1 DUP1 DUP2 SWAP1 SSTORE POP POP JUMP JUMPDEST PUSH0 DUP1 SLOAD SWAP1 PUSH2 0x100 EXP SWAP1 DIV PUSH20 0xFFFFFFFFFFFFFFFFFFFFFFFFFFFFFFFFFFFFFFFF AND PUSH20 0xFFFFFFFFFFFFFFFFFFFFFFFFFFFFFFFFFFFFFFFF AND CALLER PUSH20 0xFFFFFFFFFFFFFFFFFFFFFFFFFFFFFFFFFFFFFFFF AND EQ PUSH2 0x9E7 JUMPI PUSH1 0x40 MLOAD PUSH32 0x8C379A000000000000000000000000000000000000000000000000000000000 DUP2 MSTORE PUSH1 0x4 ADD PUSH2 0x9DE SWAP1 PUSH2 0xFF3 JUMP JUMPDEST PUSH1 0x40 MLOAD DUP1 SWAP2 SUB SWAP1 REVERT JUMPDEST DUP1 SELFBALANCE LT ISZERO PUSH2 0xA2A JUMPI PUSH1 0x40 MLOAD PUSH32 0x8C379A000000000000000000000000000000000000000000000000000000000 DUP2 MSTORE PUSH1 0x4 ADD PUSH2 0xA21 SWAP1 PUSH2 0x117F JUMP JUMPDEST PUSH1 0x40 MLOAD DUP1 SWAP2 SUB SWAP1 REVERT JUMPDEST DUP2 PUSH20 0xFFFFFFFFFFFFFFFFFFFFFFFFFFFFFFFFFFFFFFFF AND PUSH2 0x8FC DUP3 SWAP1 DUP2 ISZERO MUL SWAP1 PUSH1 0x40 MLOAD PUSH0 PUSH1 0x40 MLOAD DUP1 DUP4 SUB DUP2 DUP6 DUP9 DUP9 CALL SWAP4 POP POP POP POP ISZERO DUP1 ISZERO PUSH2 0xA6D JUMPI RETURNDATASIZE PUSH0 DUP1 RETURNDATACOPY RETURNDATASIZE PUSH0 REVERT JUMPDEST POP POP POP JUMP JUMPDEST PUSH0 DUP2 PREVRANDAO TIMESTAMP CALLER PUSH1 0x3 PUSH0 DUP2 SLOAD DUP1 SWAP3 SWAP2 SWAP1 PUSH1 0x1 ADD SWAP2 SWAP1 POP SSTORE PUSH1 0x40 MLOAD PUSH1 0x20 ADD PUSH2 0xA9A SWAP5 SWAP4 SWAP3 SWAP2 SWAP1 PUSH2 0x1202 JUMP JUMPDEST PUSH1 0x40 MLOAD PUSH1 0x20 DUP2 DUP4 SUB SUB DUP2 MSTORE SWAP1 PUSH1 0x40 MSTORE DUP1 MLOAD SWAP1 PUSH1 0x20 ADD KECCAK256 PUSH0 SHR DUP2 PUSH2 0xAC0 JUMPI PUSH2 0xABF PUSH2 0x124F JUMP JUMPDEST JUMPDEST MOD SWAP1 POP SWAP2 SWAP1 POP JUMP JUMPDEST PUSH0 DUP1 PUSH1 0x1 PUSH2 0xAD6 PUSH1 0x6 PUSH2 0xA72 JUMP JUMPDEST PUSH2 0xAE0 SWAP2 SWAP1 PUSH2 0x127C JUMP JUMPDEST SWAP1 POP PUSH0 PUSH1 0x1 PUSH2 0xAEF PUSH1 0x6 PUSH2 0xA72 JUMP JUMPDEST PUSH2 0xAF9 SWAP2 SWAP1 PUSH2 0x127C JUMP JUMPDEST SWAP1 POP DUP1 DUP3 PUSH2 0xB07 SWAP2 SWAP1 PUSH2 0x12AF JUMP JUMPDEST SWAP3 POP POP POP SWAP1 JUMP JUMPDEST PUSH0 DUP1 REVERT JUMPDEST PUSH0 PUSH1 0xFF DUP3 AND SWAP1 POP SWAP2 SWAP1 POP JUMP JUMPDEST PUSH2 0xB27 DUP2 PUSH2 0xB12 JUMP JUMPDEST DUP2 EQ PUSH2 0xB31 JUMPI PUSH0 DUP1 REVERT JUMPDEST POP JUMP JUMPDEST PUSH0 DUP2 CALLDATALOAD SWAP1 POP PUSH2 0xB42 DUP2 PUSH2 0xB1E JUMP JUMPDEST SWAP3 SWAP2 POP POP JUMP JUMPDEST PUSH0 PUSH1 0x20 DUP3 DUP5 SUB SLT ISZERO PUSH2 0xB5D JUMPI PUSH2 0xB5C PUSH2 0xB0E JUMP JUMPDEST JUMPDEST PUSH0 PUSH2 0xB6A DUP5 DUP3 DUP6 ADD PUSH2 0xB34 JUMP JUMPDEST SWAP2 POP POP SWAP3 SWAP2 POP POP JUMP JUMPDEST PUSH0 DUP2 SWAP1 POP SWAP2 SWAP1 POP JUMP JUMPDEST PUSH2 0xB85 DUP2 PUSH2 0xB73 JUMP JUMPDEST DUP3 MSTORE POP POP JUMP JUMPDEST PUSH0 PUSH1 0x20 DUP3 ADD SWAP1 POP PUSH2 0xB9E PUSH0 DUP4 ADD DUP5 PUSH2 0xB7C JUMP JUMPDEST SWAP3 SWAP2 POP POP JUMP JUMPDEST PUSH2 0xBAD DUP2 PUSH2 0xB73 JUMP JUMPDEST DUP2 EQ PUSH2 0xBB7 JUMPI PUSH0 DUP1 REVERT JUMPDEST POP JUMP JUMPDEST PUSH0 DUP2 CALLDATALOAD SWAP1 POP PUSH2 0xBC8 DUP2 PUSH2 0xBA4 JUMP JUMPDEST SWAP3 SWAP2 POP POP JUMP JUMPDEST PUSH0 PUSH1 0x20 DUP3 DUP5 SUB SLT ISZERO PUSH2 0xBE3 JUMPI PUSH2 0xBE2 PUSH2 0xB0E JUMP JUMPDEST JUMPDEST PUSH0 PUSH2 0xBF0 DUP5 DUP3 DUP6 ADD PUSH2 0xBBA JUMP JUMPDEST SWAP2 POP POP SWAP3 SWAP2 POP POP JUMP JUMPDEST PUSH0 PUSH20 0xFFFFFFFFFFFFFFFFFFFFFFFFFFFFFFFFFFFFFFFF DUP3 AND SWAP1 POP SWAP2 SWAP1 POP JUMP JUMPDEST PUSH0 PUSH2 0xC22 DUP3 PUSH2 0xBF9 JUMP JUMPDEST SWAP1 POP SWAP2 SWAP1 POP JUMP JUMPDEST PUSH2 0xC32 DUP2 PUSH2 0xC18 JUMP JUMPDEST DUP3 MSTORE POP POP JUMP JUMPDEST PUSH0 PUSH1 0x20 DUP3 ADD SWAP1 POP PUSH2 0xC4B PUSH0 DUP4 ADD DUP5 PUSH2 0xC29 JUMP JUMPDEST SWAP3 SWAP2 POP POP JUMP JUMPDEST PUSH0 DUP2 ISZERO ISZERO SWAP1 POP SWAP2 SWAP1 POP JUMP JUMPDEST PUSH2 0xC65 DUP2 PUSH2 0xC51 JUMP JUMPDEST DUP2 EQ PUSH2 0xC6F JUMPI PUSH0 DUP1 REVERT JUMPDEST POP JUMP JUMPDEST PUSH0 DUP2 CALLDATALOAD SWAP1 POP PUSH2 0xC80 DUP2 PUSH2 0xC5C JUMP JUMPDEST SWAP3 SWAP2 POP POP JUMP JUMPDEST PUSH0 PUSH1 0x20 DUP3 DUP5 SUB SLT ISZERO PUSH2 0xC9B JUMPI PUSH2 0xC9A PUSH2 0xB0E JUMP JUMPDEST JUMPDEST PUSH0 PUSH2 0xCA8 DUP5 DUP3 DUP6 ADD PUSH2 0xC72 JUMP JUMPDEST SWAP2 POP POP SWAP3 SWAP2 POP POP JUMP JUMPDEST PUSH0 PUSH2 0xCBB DUP3 PUSH2 0xBF9 JUMP JUMPDEST SWAP1 POP SWAP2 SWAP1 POP JUMP JUMPDEST PUSH2 0xCCB DUP2 PUSH2 0xCB1 JUMP JUMPDEST DUP2 EQ PUSH2 0xCD5 JUMPI PUSH0 DUP1 REVERT JUMPDEST POP JUMP JUMPDEST PUSH0 DUP2 CALLDATALOAD SWAP1 POP PUSH2 0xCE6 DUP2 PUSH2 0xCC2 JUMP JUMPDEST SWAP3 SWAP2 POP POP JUMP JUMPDEST PUSH0 DUP1 PUSH1 0x40 DUP4 DUP6 SUB SLT ISZERO PUSH2 0xD02 JUMPI PUSH2 0xD01 PUSH2 0xB0E JUMP JUMPDEST JUMPDEST PUSH0 PUSH2 0xD0F DUP6 DUP3 DUP7 ADD PUSH2 0xCD8 JUMP JUMPDEST SWAP3 POP POP PUSH1 0x20 PUSH2 0xD20 DUP6 DUP3 DUP7 ADD PUSH2 0xBBA JUMP JUMPDEST SWAP2 POP POP SWAP3 POP SWAP3 SWAP1 POP JUMP JUMPDEST PUSH0 DUP3 DUP3 MSTORE PUSH1 0x20 DUP3 ADD SWAP1 POP SWAP3 SWAP2 POP POP JUMP JUMPDEST PUSH32 0x7265656E7472616E740000000000000000000000000000000000000000000000 PUSH0 DUP3 ADD MSTORE POP JUMP JUMPDEST PUSH0 PUSH2 0xD6E PUSH1 0x9 DUP4 PUSH2 0xD2A JUMP JUMPDEST SWAP2 POP PUSH2 0xD79 DUP3 PUSH2 0xD3A JUMP JUMPDEST PUSH1 0x20 DUP3 ADD SWAP1 POP SWAP2 SWAP1 POP JUMP JUMPDEST PUSH0 PUSH1 0x20 DUP3 ADD SWAP1 POP DUP2 DUP2 SUB PUSH0 DUP4 ADD MSTORE PUSH2 0xD9B DUP2 PUSH2 0xD62 JUMP JUMPDEST SWAP1 POP SWAP2 SWAP1 POP JUMP JUMPDEST PUSH32 0x6261642067756573730000000000000000000000000000000000000000000000 PUSH0 DUP3 ADD MSTORE POP JUMP JUMPDEST PUSH0 PUSH2 0xDD6 PUSH1 0x9 DUP4 PUSH2 0xD2A JUMP JUMPDEST SWAP2 POP PUSH2 0xDE1 DUP3 PUSH2 0xDA2 JUMP JUMPDEST PUSH1 0x20 DUP3 ADD SWAP1 POP SWAP2 SWAP1 POP JUMP JUMPDEST PUSH0 PUSH1 0x20 DUP3 ADD SWAP1 POP DUP2 DUP2 SUB PUSH0 DUP4 ADD MSTORE PUSH2 0xE03 DUP2 PUSH2 0xDCA JUMP JUMPDEST SWAP1 POP SWAP2 SWAP1 POP JUMP JUMPDEST PUSH32 0x6261642077616765720000000000000000000000000000000000000000000000 PUSH0 DUP3 ADD MSTORE POP JUMP JUMPDEST PUSH0 PUSH2 0xE3E PUSH1 0x9 DUP4 PUSH2 0xD2A JUMP JUMPDEST SWAP2 POP PUSH2 0xE49 DUP3 PUSH2 0xE0A JUMP JUMPDEST PUSH1 0x20 DUP3 ADD SWAP1 POP SWAP2 SWAP1 POP JUMP JUMPDEST PUSH0 PUSH1 0x20 DUP3 ADD SWAP1 POP DUP2 DUP2 SUB PUSH0 DUP4 ADD MSTORE PUSH2 0xE6B DUP2 PUSH2 0xE32 JUMP JUMPDEST SWAP1 POP SWAP2 SWAP1 POP JUMP JUMPDEST PUSH32 0x4E487B7100000000000000000000000000000000000000000000000000000000 PUSH0 MSTORE PUSH1 0x11 PUSH1 0x4 MSTORE PUSH1 0x24 PUSH0 REVERT JUMPDEST PUSH0 PUSH2 0xEA9 DUP3 PUSH2 0xB73 JUMP JUMPDEST SWAP2 POP PUSH2 0xEB4 DUP4 PUSH2 0xB73 JUMP JUMPDEST SWAP3 POP DUP3 DUP3 MUL PUSH2 0xEC2 DUP2 PUSH2 0xB73 JUMP JUMPDEST SWAP2 POP DUP3 DUP3 DIV DUP5 EQ DUP4 ISZERO OR PUSH2 0xED9 JUMPI PUSH2 0xED8 PUSH2 0xE72 JUMP JUMPDEST JUMPDEST POP SWAP3 SWAP2 POP POP JUMP JUMPDEST PUSH32 0x62616E6B726F6C6C206C6F770000000000000000000000000000000000000000 PUSH0 DUP3 ADD MSTORE POP JUMP JUMPDEST PUSH0 PUSH2 0xF14 PUSH1 0xC DUP4 PUSH2 0xD2A JUMP JUMPDEST SWAP2 POP PUSH2 0xF1F DUP3 PUSH2 0xEE0 JUMP JUMPDEST PUSH1 0x20 DUP3 ADD SWAP1 POP SWAP2 SWAP1 POP JUMP JUMPDEST PUSH0 PUSH1 0x20 DUP3 ADD SWAP1 POP DUP2 DUP2 SUB PUSH0 DUP4 ADD MSTORE PUSH2 0xF41 DUP2 PUSH2 0xF08 JUMP JUMPDEST SWAP1 POP SWAP2 SWAP1 POP JUMP JUMPDEST PUSH2 0xF51 DUP2 PUSH2 0xC51 JUMP JUMPDEST DUP3 MSTORE POP POP JUMP JUMPDEST PUSH2 0xF60 DUP2 PUSH2 0xB12 JUMP JUMPDEST DUP3 MSTORE POP POP JUMP JUMPDEST PUSH0 PUSH1 0x80 DUP3 ADD SWAP1 POP PUSH2 0xF79 PUSH0 DUP4 ADD DUP8 PUSH2 0xB7C JUMP JUMPDEST PUSH2 0xF86 PUSH1 0x20 DUP4 ADD DUP7 PUSH2 0xF48 JUMP JUMPDEST PUSH2 0xF93 PUSH1 0x40 DUP4 ADD DUP6 PUSH2 0xF57 JUMP JUMPDEST PUSH2 0xFA0 PUSH1 0x60 DUP4 ADD DUP5 PUSH2 0xF57 JUMP JUMPDEST SWAP6 SWAP5 POP POP POP POP POP JUMP JUMPDEST PUSH32 0x6E6F74206F776E65720000000000000000000000000000000000000000000000 PUSH0 DUP3 ADD MSTORE POP JUMP JUMPDEST PUSH0 PUSH2 0xFDD PUSH1 0x9 DUP4 PUSH2 0xD2A JUMP JUMPDEST SWAP2 POP PUSH2 0xFE8 DUP3 PUSH2 0xFA9 JUMP JUMPDEST PUSH1 0x20 DUP3 ADD SWAP1 POP SWAP2 SWAP1 POP JUMP JUMPDEST PUSH0 PUSH1 0x20 DUP3 ADD SWAP1 POP DUP2 DUP2 SUB PUSH0 DUP4 ADD MSTORE PUSH2 0x100A DUP2 PUSH2 0xFD1 JUMP JUMPDEST SWAP1 POP SWAP2 SWAP1 POP JUMP JUMPDEST PUSH32 0x626164206D61696E000000000000000000000000000000000000000000000000 PUSH0 DUP3 ADD MSTORE POP JUMP JUMPDEST PUSH0 PUSH2 0x1045 PUSH1 0x8 DUP4 PUSH2 0xD2A JUMP JUMPDEST SWAP2 POP PUSH2 0x1050 DUP3 PUSH2 0x1011 JUMP JUMPDEST PUSH1 0x20 DUP3 ADD SWAP1 POP SWAP2 SWAP1 POP JUMP JUMPDEST PUSH0 PUSH1 0x20 DUP3 ADD SWAP1 POP DUP2 DUP2 SUB PUSH0 DUP4 ADD MSTORE PUSH2 0x1072 DUP2 PUSH2 0x1039 JUMP JUMPDEST SWAP1 POP SWAP2 SWAP1 POP JUMP JUMPDEST PUSH0 PUSH2 0x1083 DUP3 PUSH2 0xB12 JUMP JUMPDEST SWAP2 POP PUSH1 0xFF DUP3 SUB PUSH2 0x1096 JUMPI PUSH2 0x1095 PUSH2 0xE72 JUMP JUMPDEST JUMPDEST PUSH1 0x1 DUP3 ADD SWAP1 POP SWAP2 SWAP1 POP JUMP JUMPDEST PUSH0 PUSH1 0xC0 DUP3 ADD SWAP1 POP PUSH2 0x10B4 PUSH0 DUP4 ADD DUP10 PUSH2 0xB7C JUMP JUMPDEST PUSH2 0x10C1 PUSH1 0x20 DUP4 ADD DUP9 PUSH2 0xF48 JUMP JUMPDEST PUSH2 0x10CE PUSH1 0x40 DUP4 ADD DUP8 PUSH2 0xF57 JUMP JUMPDEST PUSH2 0x10DB PUSH1 0x60 DUP4 ADD DUP7 PUSH2 0xF57 JUMP JUMPDEST PUSH2 0x10E8 PUSH1 0x80 DUP4 ADD DUP6 PUSH2 0xF57 JUMP JUMPDEST PUSH2 0x10F5 PUSH1 0xA0 DUP4 ADD DUP5 PUSH2 0xF57 JUMP JUMPDEST SWAP8 SWAP7 POP POP POP POP POP POP POP JUMP JUMPDEST PUSH0 PUSH1 0x60 DUP3 ADD SWAP1 POP PUSH2 0x1113 PUSH0 DUP4 ADD DUP7 PUSH2 0xB7C JUMP JUMPDEST PUSH2 0x1120 PUSH1 0x20 DUP4 ADD DUP6 PUSH2 0xF48 JUMP JUMPDEST PUSH2 0x112D PUSH1 0x40 DUP4 ADD DUP5 PUSH2 0xF48 JUMP JUMPDEST SWAP5 SWAP4 POP POP POP POP JUMP JUMPDEST PUSH32 0x696E73756666696369656E740000000000000000000000000000000000000000 PUSH0 DUP3 ADD MSTORE POP JUMP JUMPDEST PUSH0 PUSH2 0x1169 PUSH1 0xC DUP4 PUSH2 0xD2A JUMP JUMPDEST SWAP2 POP PUSH2 0x1174 DUP3 PUSH2 0x1135 JUMP JUMPDEST PUSH1 0x20 DUP3 ADD SWAP1 POP SWAP2 SWAP1 POP JUMP JUMPDEST PUSH0 PUSH1 0x20 DUP3 ADD SWAP1 POP DUP2 DUP2 SUB PUSH0 DUP4 ADD MSTORE PUSH2 0x1196 DUP2 PUSH2 0x115D JUMP JUMPDEST SWAP1 POP SWAP2 SWAP1 POP JUMP JUMPDEST PUSH0 DUP2 SWAP1 POP SWAP2 SWAP1 POP JUMP JUMPDEST PUSH2 0x11B7 PUSH2 0x11B2 DUP3 PUSH2 0xB73 JUMP JUMPDEST PUSH2 0x119D JUMP JUMPDEST DUP3 MSTORE POP POP JUMP JUMPDEST PUSH0 DUP2 PUSH1 0x60 SHL SWAP1 POP SWAP2 SWAP1 POP JUMP JUMPDEST PUSH0 PUSH2 0x11D3 DUP3 PUSH2 0x11BD JUMP JUMPDEST SWAP1 POP SWAP2 SWAP1 POP JUMP JUMPDEST PUSH0 PUSH2 0x11E4 DUP3 PUSH2 0x11C9 JUMP JUMPDEST SWAP1 POP SWAP2 SWAP1 POP JUMP JUMPDEST PUSH2 0x11FC PUSH2 0x11F7 DUP3 PUSH2 0xC18 JUMP JUMPDEST PUSH2 0x11DA JUMP JUMPDEST DUP3 MSTORE POP POP JUMP JUMPDEST PUSH0 PUSH2 0x120D DUP3 DUP8 PUSH2 0x11A6 JUMP JUMPDEST PUSH1 0x20 DUP3 ADD SWAP2 POP PUSH2 0x121D DUP3 DUP7 PUSH2 0x11A6 JUMP JUMPDEST PUSH1 0x20 DUP3 ADD SWAP2 POP PUSH2 0x122D DUP3 DUP6 PUSH2 0x11EB JUMP JUMPDEST PUSH1 0x14 DUP3 ADD SWAP2 POP PUSH2 0x123D DUP3 DUP5 PUSH2 0x11A6 JUMP JUMPDEST PUSH1 0x20 DUP3 ADD SWAP2 POP DUP2 SWAP1 POP SWAP6 SWAP5 POP POP POP POP POP JUMP JUMPDEST PUSH32 0x4E487B7100000000000000000000000000000000000000000000000000000000 PUSH0 MSTORE PUSH1 0x12 PUSH1 0x4 MSTORE PUSH1 0x24 PUSH0 REVERT JUMPDEST PUSH0 PUSH2 0x1286 DUP3 PUSH2 0xB73 JUMP JUMPDEST SWAP2 POP PUSH2 0x1291 DUP4 PUSH2 0xB73 JUMP JUMPDEST SWAP3 POP DUP3 DUP3 ADD SWAP1 POP DUP1 DUP3 GT ISZERO PUSH2 0x12A9 JUMPI PUSH2 0x12A8 PUSH2 0xE72 JUMP JUMPDEST JUMPDEST SWAP3 SWAP2 POP POP JUMP JUMPDEST PUSH0 PUSH2 0x12B9 DUP3 PUSH2 0xB12 JUMP JUMPDEST SWAP2 POP PUSH2 0x12C4 DUP4 PUSH2 0xB12 JUMP JUMPDEST SWAP3 POP DUP3 DUP3 ADD SWAP1 POP PUSH1 0xFF DUP2 GT ISZERO PUSH2 0x12DD JUMPI PUSH2 0x12DC PUSH2 0xE72 JUMP JUMPDEST JUMPDEST SWAP3 SWAP2 POP POP JUMP INVALID LOG2 PUSH5 0x6970667358 0x22 SLT KECCAK256 PUSH2 0x96BB GAS GASPRICE 0xDC GASLIMIT 0xD0 TSTORE CALLDATALOAD 0xEB 0xA8 0xD2 ISZERO ADDRESS BLOCKHASH 0xD7 0xAF SWAP7 0xDA 0xA7 0x21 PUSH9 0xF0DEE24D559C766949 PUSH5 0x736F6C6343 STOP ADDMOD XOR STOP CALLER "
				},
				"gasEstimates": {
					"creation": {
						"codeDepositCost": "977800",
						"executionCost": "69489",
						"totalCost": "1047289"
					},
					"external": {
						"fund()": "163",
						"maxBet()": "2448",
						"nonce()": "2447",
						"owner()": "2572",
						"playCoin(bool)": "infinite",
						"playHazard(uint8)": "infinite",
						"playShell(uint8)": "infinite",
						"setMaxBet(uint256)": "24726",
						"withdraw(address,uint256)": "infinite"
					},
					"internal": {
						"_rand(uint256)": "infinite",
						"_rollSum()": "infinite"
					}
				},
				"methodIdentifiers": {
					"fund()": "b60d4288",
					"maxBet()": "2e5b2168",
					"nonce()": "affed0e0",
					"owner()": "8da5cb5b",
					"playCoin(bool)": "cafab8e7",
					"playHazard(uint8)": "91a4f2ec",
					"playShell(uint8)": "0df8b93b",
					"setMaxBet(uint256)": "881eff1e",
					"withdraw(address,uint256)": "f3fef3a3"
				}
			},
			"storageLayout": {
				"storage": [
					{
						"astId": 4,
						"contract": "Contracts/Tavern.sol:Tavern",
						"label": "owner",
						"offset": 0,
						"slot": "0",
						"type": "t_address"
					},
					{
						"astId": 19,
						"contract": "Contracts/Tavern.sol:Tavern",
						"label": "_locked",
						"offset": 0,
						"slot": "1",
						"type": "t_uint256"
					},
					{
						"astId": 79,
						"contract": "Contracts/Tavern.sol:Tavern",
						"label": "maxBet",
						"offset": 0,
						"slot": "2",
						"type": "t_uint256"
					},
					{
						"astId": 81,
						"contract": "Contracts/Tavern.sol:Tavern",
						"label": "nonce",
						"offset": 0,
						"slot": "3",
						"type": "t_uint256"
					}
				],
				"types": {
					"t_address": {
						"encoding": "inplace",
						"label": "address",
						"numberOfBytes": "20"
					},
					"t_uint256": {
						"encoding": "inplace",
						"label": "uint256",
						"numberOfBytes": "32"
					}
				}
			},
			"userdoc": {
				"kind": "user",
				"methods": {},
				"notice": "Pseudo-random implementation for development. For production, replace randomness with a verifiable source (e.g., Chainlink VRF) or commit-reveal.",
				"version": 1
			}
		}
	}
}