{
	"data": {
		"bytecode": {
			"linkReferences": {},
			"object": "6080604052335f806101000a81548173ffffffffffffffffffffffffffffffffffffffff021916908373ffffffffffffffffffffffffffffffffffffffff16021790555061101f806100505f395ff3fe608060405260043610610042575f3560e01c80632e1a7d4d1461009b57806353a04b05146100c35780638da5cb5b146100df578063b60d42881461010957610097565b36610097573373ffffffffffffffffffffffffffffffffffffffff167f5af8184bef8e4b45eb9f6ed7734d04da38ced226495548f46e0c8ff8d7d9a5243460405161008d91906107b6565b60405180910390a2005b5f80fd5b3480156100a6575f80fd5b506100c160048036038101906100bc91906107fd565b610113565b005b6100dd60048036038101906100d8919061085e565b610249565b005b3480156100ea575f80fd5b506100f36106e9565b60405161010091906108c8565b60405180910390f35b61011161070c565b005b5f8054906101000a900473ffffffffffffffffffffffffffffffffffffffff1673ffffffffffffffffffffffffffffffffffffffff163373ffffffffffffffffffffffffffffffffffffffff16146101a0576040517f08c379a00000000000000000000000000000000000000000000000000000000081526004016101979061093b565b60405180910390fd5b478111156101e3576040517f08c379a00000000000000000000000000000000000000000000000000000000081526004016101da906109a3565b60405180910390fd5b5f8054906101000a900473ffffffffffffffffffffffffffffffffffffffff1673ffffffffffffffffffffffffffffffffffffffff166108fc8290811502906040515f60405180830381858888f19350505050158015610245573d5f803e3d5ffd5b5050565b5f60149054906101000a900460ff1615610298576040517f08c379a000000000000000000000000000000000000000000000000000000000815260040161028f90610a0b565b60405180910390fd5b60015f60146101000a81548160ff0219169083151502179055505f34116102f4576040517f08c379a00000000000000000000000000000000000000000000000000000000081526004016102eb90610a73565b60405180910390fd5b60058160ff161015801561030c575060098160ff1611155b61034b576040517f08c379a000000000000000000000000000000000000000000000000000000000815260040161034290610adb565b60405180910390fd5b6002346103589190610b26565b47101561039a576040517f08c379a000000000000000000000000000000000000000000000000000000000815260040161039190610bb1565b60405180910390fd5b5f3490505f805f805f4244336001436103b39190610bcf565b406040516020016103c79493929190610c90565b6040516020818303038152906040528051906020012090505f80606490505b851580156103f357508082105b1561059357828260405160200161040b929190610cdd565b6040516020818303038152906040528051906020012092505f60016006855f1c6104359190610d35565b61043f9190610d65565b905083838260405160200161045693929190610dcd565b6040516020818303038152906040528051906020012093505f60016006865f1c6104809190610d35565b61048a9190610d65565b905080826104989190610d65565b95505f8960ff160361054d578a60ff168660ff16036104be576001965060019750610548565b60028660ff1614806104d3575060038660ff16145b156104e4575f965060019750610547565b600b8660ff1614806104f95750600c8660ff16145b156105425760078b60ff1603610511575f9650610539565b60058b60ff161480610526575060098b60ff16145b156105345760019650610538565b5f96505b5b60019750610546565b8598505b5b5b61057e565b8860ff168660ff160361056757600196506001975061057d565b8a60ff168660ff160361057c575f9650600197505b5b5b838061058990610e09565b94505050506103e6565b8561059c575f94505b841561066d575f6002896105b09190610b26565b9050804710610667575f3373ffffffffffffffffffffffffffffffffffffffff16826040516105de90610e7d565b5f6040518083038185875af1925050503d805f8114610618576040519150601f19603f3d011682016040523d82523d5f602084013e61061d565b606091505b5050905080610661576040517f08c379a000000000000000000000000000000000000000000000000000000000815260040161065890610edb565b60405180910390fd5b5061066b565b5f95505b505b3373ffffffffffffffffffffffffffffffffffffffff167f0bd3a518165ff9e7aa8e3bdec8acf19e682cee03800411ca5b4cc47829ee73fe89878c888c886040516106bd96959493929190610f22565b60405180910390a250505050505050505f8060146101000a81548160ff02191690831515021790555050565b5f8054906101000a900473ffffffffffffffffffffffffffffffffffffffff1681565b5f341161074e576040517f08c379a000000000000000000000000000000000000000000000000000000000815260040161074590610fcb565b60405180910390fd5b3373ffffffffffffffffffffffffffffffffffffffff167f5af8184bef8e4b45eb9f6ed7734d04da38ced226495548f46e0c8ff8d7d9a5243460405161079491906107b6565b60405180910390a2565b5f819050919050565b6107b08161079e565b82525050565b5f6020820190506107c95f8301846107a7565b92915050565b5f80fd5b6107dc8161079e565b81146107e6575f80fd5b50565b5f813590506107f7816107d3565b92915050565b5f60208284031215610812576108116107cf565b5b5f61081f848285016107e9565b91505092915050565b5f60ff82169050919050565b61083d81610828565b8114610847575f80fd5b50565b5f8135905061085881610834565b92915050565b5f60208284031215610873576108726107cf565b5b5f6108808482850161084a565b91505092915050565b5f73ffffffffffffffffffffffffffffffffffffffff82169050919050565b5f6108b282610889565b9050919050565b6108c2816108a8565b82525050565b5f6020820190506108db5f8301846108b9565b92915050565b5f82825260208201905092915050565b7f6e6f74206f776e657200000000000000000000000000000000000000000000005f82015250565b5f6109256009836108e1565b9150610930826108f1565b602082019050919050565b5f6020820190508181035f83015261095281610919565b9050919050565b7f746f6f206d7563680000000000000000000000000000000000000000000000005f82015250565b5f61098d6008836108e1565b915061099882610959565b602082019050919050565b5f6020820190508181035f8301526109ba81610981565b9050919050565b7f7265656e7472616e6379000000000000000000000000000000000000000000005f82015250565b5f6109f5600a836108e1565b9150610a00826109c1565b602082019050919050565b5f6020820190508181035f830152610a22816109e9565b9050919050565b7f6d7573742073656e64204d4f4e20746f20706c617900000000000000000000005f82015250565b5f610a5d6015836108e1565b9150610a6882610a29565b602082019050919050565b5f6020820190508181035f830152610a8a81610a51565b9050919050565b7f696e76616c6964206d61696e00000000000000000000000000000000000000005f82015250565b5f610ac5600c836108e1565b9150610ad082610a91565b602082019050919050565b5f6020820190508181035f830152610af281610ab9565b9050919050565b7f4e487b71000000000000000000000000000000000000000000000000000000005f52601160045260245ffd5b5f610b308261079e565b9150610b3b8361079e565b9250828202610b498161079e565b91508282048414831517610b6057610b5f610af9565b5b5092915050565b7f62616e6b726f6c6c20746f6f206c6f77000000000000000000000000000000005f82015250565b5f610b9b6010836108e1565b9150610ba682610b67565b602082019050919050565b5f6020820190508181035f830152610bc881610b8f565b9050919050565b5f610bd98261079e565b9150610be48361079e565b9250828203905081811115610bfc57610bfb610af9565b5b92915050565b5f819050919050565b610c1c610c178261079e565b610c02565b82525050565b5f8160601b9050919050565b5f610c3882610c22565b9050919050565b5f610c4982610c2e565b9050919050565b610c61610c5c826108a8565b610c3f565b82525050565b5f819050919050565b5f819050919050565b610c8a610c8582610c67565b610c70565b82525050565b5f610c9b8287610c0b565b602082019150610cab8286610c0b565b602082019150610cbb8285610c50565b601482019150610ccb8284610c79565b60208201915081905095945050505050565b5f610ce88285610c79565b602082019150610cf88284610c0b565b6020820191508190509392505050565b7f4e487b71000000000000000000000000000000000000000000000000000000005f52601260045260245ffd5b5f610d3f8261079e565b9150610d4a8361079e565b925082610d5a57610d59610d08565b5b828206905092915050565b5f610d6f82610828565b9150610d7a83610828565b9250828201905060ff811115610d9357610d92610af9565b5b92915050565b5f8160f81b9050919050565b5f610daf82610d99565b9050919050565b610dc7610dc282610828565b610da5565b82525050565b5f610dd88286610c79565b602082019150610de88285610c0b565b602082019150610df88284610db6565b600182019150819050949350505050565b5f610e138261079e565b91507fffffffffffffffffffffffffffffffffffffffffffffffffffffffffffffffff8203610e4557610e44610af9565b5b600182019050919050565b5f81905092915050565b50565b5f610e685f83610e50565b9150610e7382610e5a565b5f82019050919050565b5f610e8782610e5d565b9150819050919050565b7f7061796f7574206661696c6564000000000000000000000000000000000000005f82015250565b5f610ec5600d836108e1565b9150610ed082610e91565b602082019050919050565b5f6020820190508181035f830152610ef281610eb9565b9050919050565b5f8115159050919050565b610f0d81610ef9565b82525050565b610f1c81610828565b82525050565b5f60c082019050610f355f8301896107a7565b610f426020830188610f04565b610f4f6040830187610f13565b610f5c6060830186610f13565b610f696080830185610f13565b610f7660a08301846107a7565b979650505050505050565b7f6d7573742073656e64204d4f4e000000000000000000000000000000000000005f82015250565b5f610fb5600d836108e1565b9150610fc082610f81565b602082019050919050565b5f6020820190508181035f830152610fe281610fa9565b905091905056fea26469706673582212200a710aceb47a97552fa6a803dbe57a34346107d1757dbfda8430772bb2b3890a64736f6c63430008180033",
			"opcodes": "PUSH1 0x80 PUSH1 0x40 MSTORE CALLER PUSH0 DUP1 PUSH2 0x100 EXP DUP2 SLOAD DUP2 PUSH20 0xFFFFFFFFFFFFFFFFFFFFFFFFFFFFFFFFFFFFFFFF MUL NOT AND SWAP1 DUP4 PUSH20 0xFFFFFFFFFFFFFFFFFFFFFFFFFFFFFFFFFFFFFFFF AND MUL OR SWAP1 SSTORE POP PUSH2 0x101F DUP1 PUSH2 0x50 PUSH0 CODECOPY PUSH0 RETURN INVALID PUSH1 0x80 PUSH1 0x40 MSTORE PUSH1 0x4 CALLDATASIZE LT PUSH2 0x42 JUMPI PUSH0 CALLDATALOAD PUSH1 0xE0 SHR DUP1 PUSH4 0x2E1A7D4D EQ PUSH2 0x9B JUMPI DUP1 PUSH4 0x53A04B05 EQ PUSH2 0xC3 JUMPI DUP1 PUSH4 0x8DA5CB5B EQ PUSH2 0xDF JUMPI DUP1 PUSH4 0xB60D4288 EQ PUSH2 0x109 JUMPI PUSH2 0x97 JUMP JUMPDEST CALLDATASIZE PUSH2 0x97 JUMPI CALLER PUSH20 0xFFFFFFFFFFFFFFFFFFFFFFFFFFFFFFFFFFFFFFFF AND PUSH32 0x5AF8184BEF8E4B45EB9F6ED7734D04DA38CED226495548F46E0C8FF8D7D9A524 CALLVALUE PUSH1 0x40 MLOAD PUSH2 0x8D SWAP2 SWAP1 PUSH2 0x7B6 JUMP JUMPDEST PUSH1 0x40 MLOAD DUP1 SWAP2 SUB SWAP1 LOG2 STOP JUMPDEST PUSH0 DUP1 REVERT JUMPDEST CALLVALUE DUP1 ISZERO PUSH2 0xA6 JUMPI PUSH0 DUP1 REVERT JUMPDEST POP PUSH2 0xC1 PUSH1 0x4 DUP1 CALLDATASIZE SUB DUP2 ADD SWAP1 PUSH2 0xBC SWAP2 SWAP1 PUSH2 0x7FD JUMP JUMPDEST PUSH2 0x113 JUMP JUMPDEST STOP JUMPDEST PUSH2 0xDD PUSH1 0x4 DUP1 CALLDATASIZE SUB DUP2 ADD SWAP1 PUSH2 0xD8 SWAP2 SWAP1 PUSH2 0x85E JUMP JUMPDEST PUSH2 0x249 JUMP JUMPDEST STOP JUMPDEST CALLVALUE DUP1 ISZERO PUSH2 0xEA JUMPI PUSH0 DUP1 REVERT JUMPDEST POP PUSH2 0xF3 PUSH2 0x6E9 JUMP JUMPDEST PUSH1 0x40 MLOAD PUSH2 0x100 SWAP2 SWAP1 PUSH2 0x8C8 JUMP JUMPDEST PUSH1 0x40 MLOAD DUP1 SWAP2 SUB SWAP1 RETURN JUMPDEST PUSH2 0x111 PUSH2 0x70C JUMP JUMPDEST STOP JUMPDEST PUSH0 DUP1 SLOAD SWAP1 PUSH2 0x100 EXP SWAP1 DIV PUSH20 0xFFFFFFFFFFFFFFFFFFFFFFFFFFFFFFFFFFFFFFFF AND PUSH20 0xFFFFFFFFFFFFFFFFFFFFFFFFFFFFFFFFFFFFFFFF AND CALLER PUSH20 0xFFFFFFFFFFFFFFFFFFFFFFFFFFFFFFFFFFFFFFFF AND EQ PUSH2 0x1A0 JUMPI PUSH1 0x40 MLOAD PUSH32 0x8C379A000000000000000000000000000000000000000000000000000000000 DUP2 MSTORE PUSH1 0x4 ADD PUSH2 0x197 SWAP1 PUSH2 0x93B JUMP JUMPDEST PUSH1 0x40 MLOAD DUP1 SWAP2 SUB SWAP1 REVERT JUMPDEST SELFBALANCE DUP2 GT ISZERO PUSH2 0x1E3 JUMPI PUSH1 0x40 MLOAD PUSH32 0x8C379A000000000000000000000000000000000000000000000000000000000 DUP2 MSTORE PUSH1 0x4 ADD PUSH2 0x1DA SWAP1 PUSH2 0x9A3 JUMP JUMPDEST PUSH1 0x40 MLOAD DUP1 SWAP2 SUB SWAP1 REVERT JUMPDEST PUSH0 DUP1 SLOAD SWAP1 PUSH2 0x100 EXP SWAP1 DIV PUSH20 0xFFFFFFFFFFFFFFFFFFFFFFFFFFFFFFFFFFFFFFFF AND PUSH20 0xFFFFFFFFFFFFFFFFFFFFFFFFFFFFFFFFFFFFFFFF AND PUSH2 0x8FC DUP3 SWAP1 DUP2 ISZERO MUL SWAP1 PUSH1 0x40 MLOAD PUSH0 PUSH1 0x40 MLOAD DUP1 DUP4 SUB DUP2 DUP6 DUP9 DUP9 CALL SWAP4 POP POP POP POP ISZERO DUP1 ISZERO PUSH2 0x245 JUMPI RETURNDATASIZE PUSH0 DUP1 RETURNDATACOPY RETURNDATASIZE PUSH0 REVERT JUMPDEST POP POP JUMP JUMPDEST PUSH0 PUSH1 0x14 SWAP1 SLOAD SWAP1 PUSH2 0x100 EXP SWAP1 DIV PUSH1 0xFF AND ISZERO PUSH2 0x298 JUMPI PUSH1 0x40 MLOAD PUSH32 0x8C379A000000000000000000000000000000000000000000000000000000000 DUP2 MSTORE PUSH1 0x4 ADD PUSH2 0x28F SWAP1 PUSH2 0xA0B JUMP JUMPDEST PUSH1 0x40 MLOAD DUP1 SWAP2 SUB SWAP1 REVERT JUMPDEST PUSH1 0x1 PUSH0 PUSH1 0x14 PUSH2 0x100 EXP DUP2 SLOAD DUP2 PUSH1 0xFF MUL NOT AND SWAP1 DUP4 ISZERO ISZERO MUL OR SWAP1 SSTORE POP PUSH0 CALLVALUE GT PUSH2 0x2F4 JUMPI PUSH1 0x40 MLOAD PUSH32 0x8C379A000000000000000000000000000000000000000000000000000000000 DUP2 MSTORE PUSH1 0x4 ADD PUSH2 0x2EB SWAP1 PUSH2 0xA73 JUMP JUMPDEST PUSH1 0x40 MLOAD DUP1 SWAP2 SUB SWAP1 REVERT JUMPDEST PUSH1 0x5 DUP2 PUSH1 0xFF AND LT ISZERO DUP1 ISZERO PUSH2 0x30C JUMPI POP PUSH1 0x9 DUP2 PUSH1 0xFF AND GT ISZERO JUMPDEST PUSH2 0x34B JUMPI PUSH1 0x40 MLOAD PUSH32 0x8C379A000000000000000000000000000000000000000000000000000000000 DUP2 MSTORE PUSH1 0x4 ADD PUSH2 0x342 SWAP1 PUSH2 0xADB JUMP JUMPDEST PUSH1 0x40 MLOAD DUP1 SWAP2 SUB SWAP1 REVERT JUMPDEST PUSH1 0x2 CALLVALUE PUSH2 0x358 SWAP2 SWAP1 PUSH2 0xB26 JUMP JUMPDEST SELFBALANCE LT ISZERO PUSH2 0x39A JUMPI PUSH1 0x40 MLOAD PUSH32 0x8C379A000000000000000000000000000000000000000000000000000000000 DUP2 MSTORE PUSH1 0x4 ADD PUSH2 0x391 SWAP1 PUSH2 0xBB1 JUMP JUMPDEST PUSH1 0x40 MLOAD DUP1 SWAP2 SUB SWAP1 REVERT JUMPDEST PUSH0 CALLVALUE SWAP1 POP PUSH0 DUP1 PUSH0 DUP1 PUSH0 TIMESTAMP PREVRANDAO CALLER PUSH1 0x1 NUMBER PUSH2 0x3B3 SWAP2 SWAP1 PUSH2 0xBCF JUMP JUMPDEST BLOCKHASH PUSH1 0x40 MLOAD PUSH1 0x20 ADD PUSH2 0x3C7 SWAP5 SWAP4 SWAP3 SWAP2 SWAP1 PUSH2 0xC90 JUMP JUMPDEST PUSH1 0x40 MLOAD PUSH1 0x20 DUP2 DUP4 SUB SUB DUP2 MSTORE SWAP1 PUSH1 0x40 MSTORE DUP1 MLOAD SWAP1 PUSH1 0x20 ADD KECCAK256 SWAP1 POP PUSH0 DUP1 PUSH1 0x64 SWAP1 POP JUMPDEST DUP6 ISZERO DUP1 ISZERO PUSH2 0x3F3 JUMPI POP DUP1 DUP3 LT JUMPDEST ISZERO PUSH2 0x593 JUMPI DUP3 DUP3 PUSH1 0x40 MLOAD PUSH1 0x20 ADD PUSH2 0x40B SWAP3 SWAP2 SWAP1 PUSH2 0xCDD JUMP JUMPDEST PUSH1 0x40 MLOAD PUSH1 0x20 DUP2 DUP4 SUB SUB DUP2 MSTORE SWAP1 PUSH1 0x40 MSTORE DUP1 MLOAD SWAP1 PUSH1 0x20 ADD KECCAK256 SWAP3 POP PUSH0 PUSH1 0x1 PUSH1 0x6 DUP6 PUSH0 SHR PUSH2 0x435 SWAP2 SWAP1 PUSH2 0xD35 JUMP JUMPDEST PUSH2 0x43F SWAP2 SWAP1 PUSH2 0xD65 JUMP JUMPDEST SWAP1 POP DUP4 DUP4 DUP3 PUSH1 0x40 MLOAD PUSH1 0x20 ADD PUSH2 0x456 SWAP4 SWAP3 SWAP2 SWAP1 PUSH2 0xDCD JUMP JUMPDEST PUSH1 0x40 MLOAD PUSH1 0x20 DUP2 DUP4 SUB SUB DUP2 MSTORE SWAP1 PUSH1 0x40 MSTORE DUP1 MLOAD SWAP1 PUSH1 0x20 ADD KECCAK256 SWAP4 POP PUSH0 PUSH1 0x1 PUSH1 0x6 DUP7 PUSH0 SHR PUSH2 0x480 SWAP2 SWAP1 PUSH2 0xD35 JUMP JUMPDEST PUSH2 0x48A SWAP2 SWAP1 PUSH2 0xD65 JUMP JUMPDEST SWAP1 POP DUP1 DUP3 PUSH2 0x498 SWAP2 SWAP1 PUSH2 0xD65 JUMP JUMPDEST SWAP6 POP PUSH0 DUP10 PUSH1 0xFF AND SUB PUSH2 0x54D JUMPI DUP11 PUSH1 0xFF AND DUP7 PUSH1 0xFF AND SUB PUSH2 0x4BE JUMPI PUSH1 0x1 SWAP7 POP PUSH1 0x1 SWAP8 POP PUSH2 0x548 JUMP JUMPDEST PUSH1 0x2 DUP7 PUSH1 0xFF AND EQ DUP1 PUSH2 0x4D3 JUMPI POP PUSH1 0x3 DUP7 PUSH1 0xFF AND EQ JUMPDEST ISZERO PUSH2 0x4E4 JUMPI PUSH0 SWAP7 POP PUSH1 0x1 SWAP8 POP PUSH2 0x547 JUMP JUMPDEST PUSH1 0xB DUP7 PUSH1 0xFF AND EQ DUP1 PUSH2 0x4F9 JUMPI POP PUSH1 0xC DUP7 PUSH1 0xFF AND EQ JUMPDEST ISZERO PUSH2 0x542 JUMPI PUSH1 0x7 DUP12 PUSH1 0xFF AND SUB PUSH2 0x511 JUMPI PUSH0 SWAP7 POP PUSH2 0x539 JUMP JUMPDEST PUSH1 0x5 DUP12 PUSH1 0xFF AND EQ DUP1 PUSH2 0x526 JUMPI POP PUSH1 0x9 DUP12 PUSH1 0xFF AND EQ JUMPDEST ISZERO PUSH2 0x534 JUMPI PUSH1 0x1 SWAP7 POP PUSH2 0x538 JUMP JUMPDEST PUSH0 SWAP7 POP JUMPDEST JUMPDEST PUSH1 0x1 SWAP8 POP PUSH2 0x546 JUMP JUMPDEST DUP6 SWAP9 POP JUMPDEST JUMPDEST JUMPDEST PUSH2 0x57E JUMP JUMPDEST DUP9 PUSH1 0xFF AND DUP7 PUSH1 0xFF AND SUB PUSH2 0x567 JUMPI PUSH1 0x1 SWAP7 POP PUSH1 0x1 SWAP8 POP PUSH2 0x57D JUMP JUMPDEST DUP11 PUSH1 0xFF AND DUP7 PUSH1 0xFF AND SUB PUSH2 0x57C JUMPI PUSH0 SWAP7 POP PUSH1 0x1 SWAP8 POP JUMPDEST JUMPDEST JUMPDEST DUP4 DUP1 PUSH2 0x589 SWAP1 PUSH2 0xE09 JUMP JUMPDEST SWAP5 POP POP POP POP PUSH2 0x3E6 JUMP JUMPDEST DUP6 PUSH2 0x59C JUMPI PUSH0 SWAP5 POP JUMPDEST DUP5 ISZERO PUSH2 0x66D JUMPI PUSH0 PUSH1 0x2 DUP10 PUSH2 0x5B0 SWAP2 SWAP1 PUSH2 0xB26 JUMP JUMPDEST SWAP1 POP DUP1 SELFBALANCE LT PUSH2 0x667 JUMPI PUSH0 CALLER PUSH20 0xFFFFFFFFFFFFFFFFFFFFFFFFFFFFFFFFFFFFFFFF AND DUP3 PUSH1 0x40 MLOAD PUSH2 0x5DE SWAP1 PUSH2 0xE7D JUMP JUMPDEST PUSH0 PUSH1 0x40 MLOAD DUP1 DUP4 SUB DUP2 DUP6 DUP8 GAS CALL SWAP3 POP POP POP RETURNDATASIZE DUP1 PUSH0 DUP2 EQ PUSH2 0x618 JUMPI PUSH1 0x40 MLOAD SWAP2 POP PUSH1 0x1F NOT PUSH1 0x3F RETURNDATASIZE ADD AND DUP3 ADD PUSH1 0x40 MSTORE RETURNDATASIZE DUP3 MSTORE RETURNDATASIZE PUSH0 PUSH1 0x20 DUP5 ADD RETURNDATACOPY PUSH2 0x61D JUMP JUMPDEST PUSH1 0x60 SWAP2 POP JUMPDEST POP POP SWAP1 POP DUP1 PUSH2 0x661 JUMPI PUSH1 0x40 MLOAD PUSH32 0x8C379A000000000000000000000000000000000000000000000000000000000 DUP2 MSTORE PUSH1 0x4 ADD PUSH2 0x658 SWAP1 PUSH2 0xEDB JUMP JUMPDEST PUSH1 0x40 MLOAD DUP1 SWAP2 SUB SWAP1 REVERT JUMPDEST POP PUSH2 0x66B JUMP JUMPDEST PUSH0 SWAP6 POP JUMPDEST POP JUMPDEST CALLER PUSH20 0xFFFFFFFFFFFFFFFFFFFFFFFFFFFFFFFFFFFFFFFF AND PUSH32 0xBD3A518165FF9E7AA8E3BDEC8ACF19E682CEE03800411CA5B4CC47829EE73FE DUP10 DUP8 DUP13 DUP9 DUP13 DUP9 PUSH1 0x40 MLOAD PUSH2 0x6BD SWAP7 SWAP6 SWAP5 SWAP4 SWAP3 SWAP2 SWAP1 PUSH2 0xF22 JUMP JUMPDEST PUSH1 0x40 MLOAD DUP1 SWAP2 SUB SWAP1 LOG2 POP POP POP POP POP POP POP POP PUSH0 DUP1 PUSH1 0x14 PUSH2 0x100 EXP DUP2 SLOAD DUP2 PUSH1 0xFF MUL NOT AND SWAP1 DUP4 ISZERO ISZERO MUL OR SWAP1 SSTORE POP POP JUMP JUMPDEST PUSH0 DUP1 SLOAD SWAP1 PUSH2 0x100 EXP SWAP1 DIV PUSH20 0xFFFFFFFFFFFFFFFFFFFFFFFFFFFFFFFFFFFFFFFF AND DUP2 JUMP JUMPDEST PUSH0 CALLVALUE GT PUSH2 0x74E JUMPI PUSH1 0x40 MLOAD PUSH32 0x8C379A000000000000000000000000000000000000000000000000000000000 DUP2 MSTORE PUSH1 0x4 ADD PUSH2 0x745 SWAP1 PUSH2 0xFCB JUMP JUMPDEST PUSH1 0x40 MLOAD DUP1 SWAP2 SUB SWAP1 REVERT JUMPDEST CALLER PUSH20 0xFFFFFFFFFFFFFFFFFFFFFFFFFFFFFFFFFFFFFFFF AND PUSH32 0x5AF8184BEF8E4B45EB9F6ED7734D04DA38CED226495548F46E0C8FF8D7D9A524 CALLVALUE PUSH1 0x40 MLOAD PUSH2 0x794 SWAP2 SWAP1 PUSH2 0x7B6 JUMP JUMPDEST PUSH1 0x40 MLOAD DUP1 SWAP2 SUB SWAP1 LOG2 JUMP JUMPDEST PUSH0 DUP2 SWAP1 POP SWAP2 SWAP1 POP JUMP JUMPDEST PUSH2 0x7B0 DUP2 PUSH2 0x79E JUMP JUMPDEST DUP3 MSTORE POP POP JUMP JUMPDEST PUSH0 PUSH1 0x20 DUP3 ADD SWAP1 POP PUSH2 0x7C9 PUSH0 DUP4 ADD DUP5 PUSH2 0x7A7 JUMP JUMPDEST SWAP3 SWAP2 POP POP JUMP JUMPDEST PUSH0 DUP1 REVERT JUMPDEST PUSH2 0x7DC DUP2 PUSH2 0x79E JUMP JUMPDEST DUP2 EQ PUSH2 0x7E6 JUMPI PUSH0 DUP1 REVERT JUMPDEST POP JUMP JUMPDEST PUSH0 DUP2 CALLDATALOAD SWAP1 POP PUSH2 0x7F7 DUP2 PUSH2 0x7D3 JUMP JUMPDEST SWAP3 SWAP2 POP POP JUMP JUMPDEST PUSH0 PUSH1 0x20 DUP3 DUP5 SUB SLT ISZERO PUSH2 0x812 JUMPI PUSH2 0x811 PUSH2 0x7CF JUMP JUMPDEST JUMPDEST PUSH0 PUSH2 0x81F DUP5 DUP3 DUP6 ADD PUSH2 0x7E9 JUMP JUMPDEST SWAP2 POP POP SWAP3 SWAP2 POP POP JUMP JUMPDEST PUSH0 PUSH1 0xFF DUP3 AND SWAP1 POP SWAP2 SWAP1 POP JUMP JUMPDEST PUSH2 0x83D DUP2 PUSH2 0x828 JUMP JUMPDEST DUP2 EQ PUSH2 0x847 JUMPI PUSH0 DUP1 REVERT JUMPDEST POP JUMP JUMPDEST PUSH0 DUP2 CALLDATALOAD SWAP1 POP PUSH2 0x858 DUP2 PUSH2 0x834 JUMP JUMPDEST SWAP3 SWAP2 POP POP JUMP JUMPDEST PUSH0 PUSH1 0x20 DUP3 DUP5 SUB SLT ISZERO PUSH2 0x873 JUMPI PUSH2 0x872 PUSH2 0x7CF JUMP JUMPDEST JUMPDEST PUSH0 PUSH2 0x880 DUP5 DUP3 DUP6 ADD PUSH2 0x84A JUMP JUMPDEST SWAP2 POP POP SWAP3 SWAP2 POP POP JUMP JUMPDEST PUSH0 PUSH20 0xFFFFFFFFFFFFFFFFFFFFFFFFFFFFFFFFFFFFFFFF DUP3 AND SWAP1 POP SWAP2 SWAP1 POP JUMP JUMPDEST PUSH0 PUSH2 0x8B2 DUP3 PUSH2 0x889 JUMP JUMPDEST SWAP1 POP SWAP2 SWAP1 POP JUMP JUMPDEST PUSH2 0x8C2 DUP2 PUSH2 0x8A8 JUMP JUMPDEST DUP3 MSTORE POP POP JUMP JUMPDEST PUSH0 PUSH1 0x20 DUP3 ADD SWAP1 POP PUSH2 0x8DB PUSH0 DUP4 ADD DUP5 PUSH2 0x8B9 JUMP JUMPDEST SWAP3 SWAP2 POP POP JUMP JUMPDEST PUSH0 DUP3 DUP3 MSTORE PUSH1 0x20 DUP3 ADD SWAP1 POP SWAP3 SWAP2 POP POP JUMP JUMPDEST PUSH32 0x6E6F74206F776E65720000000000000000000000000000000000000000000000 PUSH0 DUP3 ADD MSTORE POP JUMP JUMPDEST PUSH0 PUSH2 0x925 PUSH1 0x9 DUP4 PUSH2 0x8E1 JUMP JUMPDEST SWAP2 POP PUSH2 0x930 DUP3 PUSH2 0x8F1 JUMP JUMPDEST PUSH1 0x20 DUP3 ADD SWAP1 POP SWAP2 SWAP1 POP JUMP JUMPDEST PUSH0 PUSH1 0x20 DUP3 ADD SWAP1 POP DUP2 DUP2 SUB PUSH0 DUP4 ADD MSTORE PUSH2 0x952 DUP2 PUSH2 0x919 JUMP JUMPDEST SWAP1 POP SWAP2 SWAP1 POP JUMP JUMPDEST PUSH32 0x746F6F206D756368000000000000000000000000000000000000000000000000 PUSH0 DUP3 ADD MSTORE POP JUMP JUMPDEST PUSH0 PUSH2 0x98D PUSH1 0x8 DUP4 PUSH2 0x8E1 JUMP JUMPDEST SWAP2 POP PUSH2 0x998 DUP3 PUSH2 0x959 JUMP JUMPDEST PUSH1 0x20 DUP3 ADD SWAP1 POP SWAP2 SWAP1 POP JUMP JUMPDEST PUSH0 PUSH1 0x20 DUP3 ADD SWAP1 POP DUP2 DUP2 SUB PUSH0 DUP4 ADD MSTORE PUSH2 0x9BA DUP2 PUSH2 0x981 JUMP JUMPDEST SWAP1 POP SWAP2 SWAP1 POP JUMP JUMPDEST PUSH32 0x7265656E7472616E637900000000000000000000000000000000000000000000 PUSH0 DUP3 ADD MSTORE POP JUMP JUMPDEST PUSH0 PUSH2 0x9F5 PUSH1 0xA DUP4 PUSH2 0x8E1 JUMP JUMPDEST SWAP2 POP PUSH2 0xA00 DUP3 PUSH2 0x9C1 JUMP JUMPDEST PUSH1 0x20 DUP3 ADD SWAP1 POP SWAP2 SWAP1 POP JUMP JUMPDEST PUSH0 PUSH1 0x20 DUP3 ADD SWAP1 POP DUP2 DUP2 SUB PUSH0 DUP4 ADD MSTORE PUSH2 0xA22 DUP2 PUSH2 0x9E9 JUMP JUMPDEST SWAP1 POP SWAP2 SWAP1 POP JUMP JUMPDEST PUSH32 0x6D7573742073656E64204D4F4E20746F20706C61790000000000000000000000 PUSH0 DUP3 ADD MSTORE POP JUMP JUMPDEST PUSH0 PUSH2 0xA5D PUSH1 0x15 DUP4 PUSH2 0x8E1 JUMP JUMPDEST SWAP2 POP PUSH2 0xA68 DUP3 PUSH2 0xA29 JUMP JUMPDEST PUSH1 0x20 DUP3 ADD SWAP1 POP SWAP2 SWAP1 POP JUMP JUMPDEST PUSH0 PUSH1 0x20 DUP3 ADD SWAP1 POP DUP2 DUP2 SUB PUSH0 DUP4 ADD MSTORE PUSH2 0xA8A DUP2 PUSH2 0xA51 JUMP JUMPDEST SWAP1 POP SWAP2 SWAP1 POP JUMP JUMPDEST PUSH32 0x696E76616C6964206D61696E0000000000000000000000000000000000000000 PUSH0 DUP3 ADD MSTORE POP JUMP JUMPDEST PUSH0 PUSH2 0xAC5 PUSH1 0xC DUP4 PUSH2 0x8E1 JUMP JUMPDEST SWAP2 POP PUSH2 0xAD0 DUP3 PUSH2 0xA91 JUMP JUMPDEST PUSH1 0x20 DUP3 ADD SWAP1 POP SWAP2 SWAP1 POP JUMP JUMPDEST PUSH0 PUSH1 0x20 DUP3 ADD SWAP1 POP DUP2 DUP2 SUB PUSH0 DUP4 ADD MSTORE PUSH2 0xAF2 DUP2 PUSH2 0xAB9 JUMP JUMPDEST SWAP1 POP SWAP2 SWAP1 POP JUMP JUMPDEST PUSH32 0x4E487B7100000000000000000000000000000000000000000000000000000000 PUSH0 MSTORE PUSH1 0x11 PUSH1 0x4 MSTORE PUSH1 0x24 PUSH0 REVERT JUMPDEST PUSH0 PUSH2 0xB30 DUP3 PUSH2 0x79E JUMP JUMPDEST SWAP2 POP PUSH2 0xB3B DUP4 PUSH2 0x79E JUMP JUMPDEST SWAP3 POP DUP3 DUP3 MUL PUSH2 0xB49 DUP2 PUSH2 0x79E JUMP JUMPDEST SWAP2 POP DUP3 DUP3 DIV DUP5 EQ DUP4 ISZERO OR PUSH2 0xB60 JUMPI PUSH2 0xB5F PUSH2 0xAF9 JUMP JUMPDEST JUMPDEST POP SWAP3 SWAP2 POP POP JUMP JUMPDEST PUSH32 0x62616E6B726F6C6C20746F6F206C6F7700000000000000000000000000000000 PUSH0 DUP3 ADD MSTORE POP JUMP JUMPDEST PUSH0 PUSH2 0xB9B PUSH1 0x10 DUP4 PUSH2 0x8E1 JUMP JUMPDEST SWAP2 POP PUSH2 0xBA6 DUP3 PUSH2 0xB67 JUMP JUMPDEST PUSH1 0x20 DUP3 ADD SWAP1 POP SWAP2 SWAP1 POP JUMP JUMPDEST PUSH0 PUSH1 0x20 DUP3 ADD SWAP1 POP DUP2 DUP2 SUB PUSH0 DUP4 ADD MSTORE PUSH2 0xBC8 DUP2 PUSH2 0xB8F JUMP JUMPDEST SWAP1 POP SWAP2 SWAP1 POP JUMP JUMPDEST PUSH0 PUSH2 0xBD9 DUP3 PUSH2 0x79E JUMP JUMPDEST SWAP2 POP PUSH2 0xBE4 DUP4 PUSH2 0x79E JUMP JUMPDEST SWAP3 POP DUP3 DUP3 SUB SWAP1 POP DUP2 DUP2 GT ISZERO PUSH2 0xBFC JUMPI PUSH2 0xBFB PUSH2 0xAF9 JUMP JUMPDEST JUMPDEST SWAP3 SWAP2 POP POP JUMP JUMPDEST PUSH0 DUP2 SWAP1 POP SWAP2 SWAP1 POP JUMP JUMPDEST PUSH2 0xC1C PUSH2 0xC17 DUP3 PUSH2 0x79E JUMP JUMPDEST PUSH2 0xC02 JUMP JUMPDEST DUP3 MSTORE POP POP JUMP JUMPDEST PUSH0 DUP2 PUSH1 0x60 SHL SWAP1 POP SWAP2 SWAP1 POP JUMP JUMPDEST PUSH0 PUSH2 0xC38 DUP3 PUSH2 0xC22 JUMP JUMPDEST SWAP1 POP SWAP2 SWAP1 POP JUMP JUMPDEST PUSH0 PUSH2 0xC49 DUP3 PUSH2 0xC2E JUMP JUMPDEST SWAP1 POP SWAP2 SWAP1 POP JUMP JUMPDEST PUSH2 0xC61 PUSH2 0xC5C DUP3 PUSH2 0x8A8 JUMP JUMPDEST PUSH2 0xC3F JUMP JUMPDEST DUP3 MSTORE POP POP JUMP JUMPDEST PUSH0 DUP2 SWAP1 POP SWAP2 SWAP1 POP JUMP JUMPDEST PUSH0 DUP2 SWAP1 POP SWAP2 SWAP1 POP JUMP JUMPDEST PUSH2 0xC8A PUSH2 0xC85 DUP3 PUSH2 0xC67 JUMP JUMPDEST PUSH2 0xC70 JUMP JUMPDEST DUP3 MSTORE POP POP JUMP JUMPDEST PUSH0 PUSH2 0xC9B DUP3 DUP8 PUSH2 0xC0B JUMP JUMPDEST PUSH1 0x20 DUP3 ADD SWAP2 POP PUSH2 0xCAB DUP3 DUP7 PUSH2 0xC0B JUMP JUMPDEST PUSH1 0x20 DUP3 ADD SWAP2 POP PUSH2 0xCBB DUP3 DUP6 PUSH2 0xC50 JUMP JUMPDEST PUSH1 0x14 DUP3 ADD SWAP2 POP PUSH2 0xCCB DUP3 DUP5 PUSH2 0xC79 JUMP JUMPDEST PUSH1 0x20 DUP3 ADD SWAP2 POP DUP2 SWAP1 POP SWAP6 SWAP5 POP POP POP POP POP JUMP JUMPDEST PUSH0 PUSH2 0xCE8 DUP3 DUP6 PUSH2 0xC79 JUMP JUMPDEST PUSH1 0x20 DUP3 ADD SWAP2 POP PUSH2 0xCF8 DUP3 DUP5 PUSH2 0xC0B JUMP JUMPDEST PUSH1 0x20 DUP3 ADD SWAP2 POP DUP2 SWAP1 POP SWAP4 SWAP3 POP POP POP JUMP JUMPDEST PUSH32 0x4E487B7100000000000000000000000000000000000000000000000000000000 PUSH0 MSTORE PUSH1 0x12 PUSH1 0x4 MSTORE PUSH1 0x24 PUSH0 REVERT JUMPDEST PUSH0 PUSH2 0xD3F DUP3 PUSH2 0x79E JUMP JUMPDEST SWAP2 POP PUSH2 0xD4A DUP4 PUSH2 0x79E JUMP JUMPDEST SWAP3 POP DUP3 PUSH2 0xD5A JUMPI PUSH2 0xD59 PUSH2 0xD08 JUMP JUMPDEST JUMPDEST DUP3 DUP3 MOD SWAP1 POP SWAP3 SWAP2 POP POP JUMP JUMPDEST PUSH0 PUSH2 0xD6F DUP3 PUSH2 0x828 JUMP JUMPDEST SWAP2 POP PUSH2 0xD7A DUP4 PUSH2 0x828 JUMP JUMPDEST SWAP3 POP DUP3 DUP3 ADD SWAP1 POP PUSH1 0xFF DUP2 GT ISZERO PUSH2 0xD93 JUMPI PUSH2 0xD92 PUSH2 0xAF9 JUMP JUMPDEST JUMPDEST SWAP3 SWAP2 POP POP JUMP JUMPDEST PUSH0 DUP2 PUSH1 0xF8 SHL SWAP1 POP SWAP2 SWAP1 POP JUMP JUMPDEST PUSH0 PUSH2 0xDAF DUP3 PUSH2 0xD99 JUMP JUMPDEST SWAP1 POP SWAP2 SWAP1 POP JUMP JUMPDEST PUSH2 0xDC7 PUSH2 0xDC2 DUP3 PUSH2 0x828 JUMP JUMPDEST PUSH2 0xDA5 JUMP JUMPDEST DUP3 MSTORE POP POP JUMP JUMPDEST PUSH0 PUSH2 0xDD8 DUP3 DUP7 PUSH2 0xC79 JUMP JUMPDEST PUSH1 0x20 DUP3 ADD SWAP2 POP PUSH2 0xDE8 DUP3 DUP6 PUSH2 0xC0B JUMP JUMPDEST PUSH1 0x20 DUP3 ADD SWAP2 POP PUSH2 0xDF8 DUP3 DUP5 PUSH2 0xDB6 JUMP JUMPDEST PUSH1 0x1 DUP3 ADD SWAP2 POP DUP2 SWAP1 POP SWAP5 SWAP4 POP POP POP POP JUMP JUMPDEST PUSH0 PUSH2 0xE13 DUP3 PUSH2 0x79E JUMP JUMPDEST SWAP2 POP PUSH32 0xFFFFFFFFFFFFFFFFFFFFFFFFFFFFFFFFFFFFFFFFFFFFFFFFFFFFFFFFFFFFFFFF DUP3 SUB PUSH2 0xE45 JUMPI PUSH2 0xE44 PUSH2 0xAF9 JUMP JUMPDEST JUMPDEST PUSH1 0x1 DUP3 ADD SWAP1 POP SWAP2 SWAP1 POP JUMP JUMPDEST PUSH0 DUP2 SWAP1 POP SWAP3 SWAP2 POP POP JUMP JUMPDEST POP JUMP JUMPDEST PUSH0 PUSH2 0xE68 PUSH0 DUP4 PUSH2 0xE50 JUMP JUMPDEST SWAP2 POP PUSH2 0xE73 DUP3 PUSH2 0xE5A JUMP JUMPDEST PUSH0 DUP3 ADD SWAP1 POP SWAP2 SWAP1 POP JUMP JUMPDEST PUSH0 PUSH2 0xE87 DUP3 PUSH2 0xE5D JUMP JUMPDEST SWAP2 POP DUP2 SWAP1 POP SWAP2 SWAP1 POP JUMP JUMPDEST PUSH32 0x7061796F7574206661696C656400000000000000000000000000000000000000 PUSH0 DUP3 ADD MSTORE POP JUMP JUMPDEST PUSH0 PUSH2 0xEC5 PUSH1 0xD DUP4 PUSH2 0x8E1 JUMP JUMPDEST SWAP2 POP PUSH2 0xED0 DUP3 PUSH2 0xE91 JUMP JUMPDEST PUSH1 0x20 DUP3 ADD SWAP1 POP SWAP2 SWAP1 POP JUMP JUMPDEST PUSH0 PUSH1 0x20 DUP3 ADD SWAP1 POP DUP2 DUP2 SUB PUSH0 DUP4 ADD MSTORE PUSH2 0xEF2 DUP2 PUSH2 0xEB9 JUMP JUMPDEST SWAP1 POP SWAP2 SWAP1 POP JUMP JUMPDEST PUSH0 DUP2 ISZERO ISZERO SWAP1 POP SWAP2 SWAP1 POP JUMP JUMPDEST PUSH2 0xF0D DUP2 PUSH2 0xEF9 JUMP JUMPDEST DUP3 MSTORE POP POP JUMP JUMPDEST PUSH2 0xF1C DUP2 PUSH2 0x828 JUMP JUMPDEST DUP3 MSTORE POP POP JUMP JUMPDEST PUSH0 PUSH1 0xC0 DUP3 ADD SWAP1 POP PUSH2 0xF35 PUSH0 DUP4 ADD DUP10 PUSH2 0x7A7 JUMP JUMPDEST PUSH2 0xF42 PUSH1 0x20 DUP4 ADD DUP9 PUSH2 0xF04 JUMP JUMPDEST PUSH2 0xF4F PUSH1 0x40 DUP4 ADD DUP8 PUSH2 0xF13 JUMP JUMPDEST PUSH2 0xF5C PUSH1 0x60 DUP4 ADD DUP7 PUSH2 0xF13 JUMP JUMPDEST PUSH2 0xF69 PUSH1 0x80 DUP4 ADD DUP6 PUSH2 0xF13 JUMP JUMPDEST PUSH2 0xF76 PUSH1 0xA0 DUP4 ADD DUP5 PUSH2 0x7A7 JUMP JUMPDEST SWAP8 SWAP7 POP POP POP POP POP POP POP JUMP JUMPDEST PUSH32 0x6D7573742073656E64204D4F4E00000000000000000000000000000000000000 PUSH0 DUP3 ADD MSTORE POP JUMP JUMPDEST PUSH0 PUSH2 0xFB5 PUSH1 0xD DUP4 PUSH2 0x8E1 JUMP JUMPDEST SWAP2 POP PUSH2 0xFC0 DUP3 PUSH2 0xF81 JUMP JUMPDEST PUSH1 0x20 DUP3 ADD SWAP1 POP SWAP2 SWAP1 POP JUMP JUMPDEST PUSH0 PUSH1 0x20 DUP3 ADD SWAP1 POP DUP2 DUP2 SUB PUSH0 DUP4 ADD MSTORE PUSH2 0xFE2 DUP2 PUSH2 0xFA9 JUMP JUMPDEST SWAP1 POP SWAP2 SWAP1 POP JUMP INVALID LOG2 PUSH5 0x6970667358 0x22 SLT KECCAK256 EXP PUSH18 0xACEB47A97552FA6A803DBE57A34346107D1 PUSH22 0x7DBFDA8430772BB2B3890A64736F6C63430008180033 "
		},
		"gasEstimates": {
			"creation": {
				"codeDepositCost": "825400",
				"executionCost": "25096",
				"totalCost": "850496"
			},
			"external": {
				"fund()": "1754",
				"owner()": "2527",
				"play(uint8)": "infinite",
				"withdraw(uint256)": "infinite"
			}
		},
		"methodIdentifiers": {
			"fund()": "b60d4288",
			"owner()": "8da5cb5b",
			"play(uint8)": "53a04b05",
			"withdraw(uint256)": "2e1a7d4d"
		}
	},
	"abi": [
		{
			"inputs": [],
			"stateMutability": "payable",
			"type": "constructor"
		},
		{
			"anonymous": false,
			"inputs": [
				{
					"indexed": true,
					"internalType": "address",
					"name": "funder",
					"type": "address"
				},
				{
					"indexed": false,
					"internalType": "uint256",
					"name": "amount",
					"type": "uint256"
				}
			],
			"name": "Funded",
			"type": "event"
		},
		{
			"anonymous": false,
			"inputs": [
				{
					"indexed": true,
					"internalType": "address",
					"name": "player",
					"type": "address"
				},
				{
					"indexed": false,
					"internalType": "uint256",
					"name": "wager",
					"type": "uint256"
				},
				{
					"indexed": false,
					"internalType": "bool",
					"name": "win",
					"type": "bool"
				},
				{
					"indexed": false,
					"internalType": "uint8",
					"name": "main",
					"type": "uint8"
				},
				{
					"indexed": false,
					"internalType": "uint8",
					"name": "finalSum",
					"type": "uint8"
				},
				{
					"indexed": false,
					"internalType": "uint8",
					"name": "chance",
					"type": "uint8"
				},
				{
					"indexed": false,
					"internalType": "uint256",
					"name": "iterations",
					"type": "uint256"
				}
			],
			"name": "HazardPlayed",
			"type": "event"
		},
		{
			"inputs": [],
			"name": "fund",
			"outputs": [],
			"stateMutability": "payable",
			"type": "function"
		},
		{
			"inputs": [],
			"name": "owner",
			"outputs": [
				{
					"internalType": "address",
					"name": "",
					"type": "address"
				}
			],
			"stateMutability": "view",
			"type": "function"
		},
		{
			"inputs": [
				{
					"internalType": "uint8",
					"name": "main",
					"type": "uint8"
				}
			],
			"name": "play",
			"outputs": [],
			"stateMutability": "payable",
			"type": "function"
		},
		{
			"inputs": [
				{
					"internalType": "uint256",
					"name": "amount",
					"type": "uint256"
				}
			],
			"name": "withdraw",
			"outputs": [],
			"stateMutability": "nonpayable",
			"type": "function"
		},
		{
			"stateMutability": "payable",
			"type": "receive"
		}
	]
}