{
	"data": {
		"bytecode": {
			"linkReferences": {},
			"object": "608060405260018055678ac7230489e8000060025534801561001f575f80fd5b50335f806101000a81548173ffffffffffffffffffffffffffffffffffffffff021916908373ffffffffffffffffffffffffffffffffffffffff1602179055506113198061006c5f395ff3fe608060405260043610610089575f3560e01c806391a4f2ec1161005857806391a4f2ec1461012c578063affed0e014610148578063b60d428814610172578063cafab8e71461017c578063f3fef3a31461019857610090565b80630df8b93b146100945780632e5b2168146100b0578063881eff1e146100da5780638da5cb5b1461010257610090565b3661009057005b5f80fd5b6100ae60048036038101906100a99190610b48565b6101c0565b005b3480156100bb575f80fd5b506100c46103c6565b6040516100d19190610b8b565b60405180910390f35b3480156100e5575f80fd5b5061010060048036038101906100fb9190610bce565b6103cc565b005b34801561010d575f80fd5b50610116610463565b6040516101239190610c38565b60405180910390f35b61014660048036038101906101419190610b48565b610486565b005b348015610153575f80fd5b5061015c610793565b6040516101699190610b8b565b60405180910390f35b61017a610799565b005b61019660048036038101906101919190610c86565b61079b565b005b3480156101a3575f80fd5b506101be60048036038101906101b99190610cec565b61095a565b005b6001805414610204576040517f08c379a00000000000000000000000000000000000000000000000000000000081526004016101fb90610d84565b60405180910390fd5b600260018190555060038160ff1610610252576040517f08c379a000000000000000000000000000000000000000000000000000000000815260040161024990610dec565b60405180910390fd5b5f3490505f8111801561026757506002548111155b6102a6576040517f08c379a000000000000000000000000000000000000000000000000000000000815260040161029d90610e54565b60405180910390fd5b6002816102b39190610e9f565b4710156102f5576040517f08c379a00000000000000000000000000000000000000000000000000000000081526004016102ec90610f2a565b60405180910390fd5b5f6103006003610a72565b90505f8360ff168260ff161490508015610365573373ffffffffffffffffffffffffffffffffffffffff166108fc60028561033b9190610e9f565b90811502906040515f60405180830381858888f19350505050158015610363573d5f803e3d5ffd5b505b3373ffffffffffffffffffffffffffffffffffffffff167ff8f3c747b75419bd578197d83f20823bb034bcdf041645c86bcfc9d97263a89e848385886040516103b19493929190610f66565b60405180910390a25050506001808190555050565b60025481565b5f8054906101000a900473ffffffffffffffffffffffffffffffffffffffff1673ffffffffffffffffffffffffffffffffffffffff163373ffffffffffffffffffffffffffffffffffffffff1614610459576040517f08c379a000000000000000000000000000000000000000000000000000000000815260040161045090610ff3565b60405180910390fd5b8060028190555050565b5f8054906101000a900473ffffffffffffffffffffffffffffffffffffffff1681565b60018054146104ca576040517f08c379a00000000000000000000000000000000000000000000000000000000081526004016104c190610d84565b60405180910390fd5b600260018190555060058160ff16101580156104ea575060098160ff1611155b610529576040517f08c379a00000000000000000000000000000000000000000000000000000000081526004016105209061105b565b60405180910390fd5b5f3490505f8111801561053e57506002548111155b61057d576040517f08c379a000000000000000000000000000000000000000000000000000000000815260040161057490610e54565b60405180910390fd5b60028161058a9190610e9f565b4710156105cc576040517f08c379a00000000000000000000000000000000000000000000000000000000081526004016105c390610f2a565b60405180910390fd5b5f6105d5610ac8565b90505f80600190505f8560ff168460ff16036105f457600190506106d5565b60028460ff161480610609575060038460ff16145b15610616575f90506106d4565b600b8460ff16148061062b5750600c8460ff16145b156106705760078660ff1603610643575f905061066b565b60058660ff161480610658575060098660ff16145b15610666576001905061066a565b5f90505b5b6106d3565b8392505f5b60408160ff1610156106d157610689610ac8565b9450828061069690611079565b9350508360ff168560ff16036106af57600191506106d1565b8660ff168560ff16036106c4575f91506106d1565b8080600101915050610675565b505b5b5b801561072c573373ffffffffffffffffffffffffffffffffffffffff166108fc6002876107029190610e9f565b90811502906040515f60405180830381858888f1935050505015801561072a573d5f803e3d5ffd5b505b3373ffffffffffffffffffffffffffffffffffffffff167f5a08ed90cb799d1b0281213096fc06cd7e7ab84f1e2e4b8947282b4f3712b4c686838988888860405161077c969594939291906110a1565b60405180910390a250505050506001808190555050565b60035481565b565b60018054146107df576040517f08c379a00000000000000000000000000000000000000000000000000000000081526004016107d690610d84565b60405180910390fd5b60026001819055505f3490505f811180156107fc57506002548111155b61083b576040517f08c379a000000000000000000000000000000000000000000000000000000000815260040161083290610e54565b60405180910390fd5b6002816108489190610e9f565b47101561088a576040517f08c379a000000000000000000000000000000000000000000000000000000000815260040161088190610f2a565b60405180910390fd5b5f60016108976002610a72565b1490505f83151582151514905080156108fb573373ffffffffffffffffffffffffffffffffffffffff166108fc6002856108d19190610e9f565b90811502906040515f60405180830381858888f193505050501580156108f9573d5f803e3d5ffd5b505b3373ffffffffffffffffffffffffffffffffffffffff167fe4e7f0a0e6fc393a5af5b89ee2fe9a7267a850bbcc8ec0e4571f51a17ed1d97e84838560405161094593929190611100565b60405180910390a25050506001808190555050565b5f8054906101000a900473ffffffffffffffffffffffffffffffffffffffff1673ffffffffffffffffffffffffffffffffffffffff163373ffffffffffffffffffffffffffffffffffffffff16146109e7576040517f08c379a00000000000000000000000000000000000000000000000000000000081526004016109de90610ff3565b60405180910390fd5b80471015610a2a576040517f08c379a0000000000000000000000000000000000000000000000000000000008152600401610a219061117f565b60405180910390fd5b8173ffffffffffffffffffffffffffffffffffffffff166108fc8290811502906040515f60405180830381858888f19350505050158015610a6d573d5f803e3d5ffd5b505050565b5f8144423360035f81548092919060010191905055604051602001610a9a9493929190611202565b604051602081830303815290604052805190602001205f1c81610ac057610abf61124f565b5b069050919050565b5f806001610ad66006610a72565b610ae0919061127c565b90505f6001610aef6006610a72565b610af9919061127c565b90508082610b0791906112af565b9250505090565b5f80fd5b5f60ff82169050919050565b610b2781610b12565b8114610b31575f80fd5b50565b5f81359050610b4281610b1e565b92915050565b5f60208284031215610b5d57610b5c610b0e565b5b5f610b6a84828501610b34565b91505092915050565b5f819050919050565b610b8581610b73565b82525050565b5f602082019050610b9e5f830184610b7c565b92915050565b610bad81610b73565b8114610bb7575f80fd5b50565b5f81359050610bc881610ba4565b92915050565b5f60208284031215610be357610be2610b0e565b5b5f610bf084828501610bba565b91505092915050565b5f73ffffffffffffffffffffffffffffffffffffffff82169050919050565b5f610c2282610bf9565b9050919050565b610c3281610c18565b82525050565b5f602082019050610c4b5f830184610c29565b92915050565b5f8115159050919050565b610c6581610c51565b8114610c6f575f80fd5b50565b5f81359050610c8081610c5c565b92915050565b5f60208284031215610c9b57610c9a610b0e565b5b5f610ca884828501610c72565b91505092915050565b5f610cbb82610bf9565b9050919050565b610ccb81610cb1565b8114610cd5575f80fd5b50565b5f81359050610ce681610cc2565b92915050565b5f8060408385031215610d0257610d01610b0e565b5b5f610d0f85828601610cd8565b9250506020610d2085828601610bba565b9150509250929050565b5f82825260208201905092915050565b7f7265656e7472616e7400000000000000000000000000000000000000000000005f82015250565b5f610d6e600983610d2a565b9150610d7982610d3a565b602082019050919050565b5f6020820190508181035f830152610d9b81610d62565b9050919050565b7f62616420677565737300000000000000000000000000000000000000000000005f82015250565b5f610dd6600983610d2a565b9150610de182610da2565b602082019050919050565b5f6020820190508181035f830152610e0381610dca565b9050919050565b7f62616420776167657200000000000000000000000000000000000000000000005f82015250565b5f610e3e600983610d2a565b9150610e4982610e0a565b602082019050919050565b5f6020820190508181035f830152610e6b81610e32565b9050919050565b7f4e487b71000000000000000000000000000000000000000000000000000000005f52601160045260245ffd5b5f610ea982610b73565b9150610eb483610b73565b9250828202610ec281610b73565b91508282048414831517610ed957610ed8610e72565b5b5092915050565b7f62616e6b726f6c6c206c6f7700000000000000000000000000000000000000005f82015250565b5f610f14600c83610d2a565b9150610f1f82610ee0565b602082019050919050565b5f6020820190508181035f830152610f4181610f08565b9050919050565b610f5181610c51565b82525050565b610f6081610b12565b82525050565b5f608082019050610f795f830187610b7c565b610f866020830186610f48565b610f936040830185610f57565b610fa06060830184610f57565b95945050505050565b7f6e6f74206f776e657200000000000000000000000000000000000000000000005f82015250565b5f610fdd600983610d2a565b9150610fe882610fa9565b602082019050919050565b5f6020820190508181035f83015261100a81610fd1565b9050919050565b7f626164206d61696e0000000000000000000000000000000000000000000000005f82015250565b5f611045600883610d2a565b915061105082611011565b602082019050919050565b5f6020820190508181035f83015261107281611039565b9050919050565b5f61108382610b12565b915060ff820361109657611095610e72565b5b600182019050919050565b5f60c0820190506110b45f830189610b7c565b6110c16020830188610f48565b6110ce6040830187610f57565b6110db6060830186610f57565b6110e86080830185610f57565b6110f560a0830184610f57565b979650505050505050565b5f6060820190506111135f830186610b7c565b6111206020830185610f48565b61112d6040830184610f48565b949350505050565b7f696e73756666696369656e7400000000000000000000000000000000000000005f82015250565b5f611169600c83610d2a565b915061117482611135565b602082019050919050565b5f6020820190508181035f8301526111968161115d565b9050919050565b5f819050919050565b6111b76111b282610b73565b61119d565b82525050565b5f8160601b9050919050565b5f6111d3826111bd565b9050919050565b5f6111e4826111c9565b9050919050565b6111fc6111f782610c18565b6111da565b82525050565b5f61120d82876111a6565b60208201915061121d82866111a6565b60208201915061122d82856111eb565b60148201915061123d82846111a6565b60208201915081905095945050505050565b7f4e487b71000000000000000000000000000000000000000000000000000000005f52601260045260245ffd5b5f61128682610b73565b915061129183610b73565b92508282019050808211156112a9576112a8610e72565b5b92915050565b5f6112b982610b12565b91506112c483610b12565b9250828201905060ff8111156112dd576112dc610e72565b5b9291505056fea2646970667358221220e6fbbad8f8b644c916f0e6536f2da3fd8a9bbdd43f83774408eb4df76d336c0c64736f6c63430008180033",
			"opcodes": "PUSH1 0x80 PUSH1 0x40 MSTORE PUSH1 0x1 DUP1 SSTORE PUSH8 0x8AC7230489E80000 PUSH1 0x2 SSTORE CALLVALUE DUP1 ISZERO PUSH2 0x1F JUMPI PUSH0 DUP1 REVERT JUMPDEST POP CALLER PUSH0 DUP1 PUSH2 0x100 EXP DUP2 SLOAD DUP2 PUSH20 0xFFFFFFFFFFFFFFFFFFFFFFFFFFFFFFFFFFFFFFFF MUL NOT AND SWAP1 DUP4 PUSH20 0xFFFFFFFFFFFFFFFFFFFFFFFFFFFFFFFFFFFFFFFF AND MUL OR SWAP1 SSTORE POP PUSH2 0x1319 DUP1 PUSH2 0x6C PUSH0 CODECOPY PUSH0 RETURN INVALID PUSH1 0x80 PUSH1 0x40 MSTORE PUSH1 0x4 CALLDATASIZE LT PUSH2 0x89 JUMPI PUSH0 CALLDATALOAD PUSH1 0xE0 SHR DUP1 PUSH4 0x91A4F2EC GT PUSH2 0x58 JUMPI DUP1 PUSH4 0x91A4F2EC EQ PUSH2 0x12C JUMPI DUP1 PUSH4 0xAFFED0E0 EQ PUSH2 0x148 JUMPI DUP1 PUSH4 0xB60D4288 EQ PUSH2 0x172 JUMPI DUP1 PUSH4 0xCAFAB8E7 EQ PUSH2 0x17C JUMPI DUP1 PUSH4 0xF3FEF3A3 EQ PUSH2 0x198 JUMPI PUSH2 0x90 JUMP JUMPDEST DUP1 PUSH4 0xDF8B93B EQ PUSH2 0x94 JUMPI DUP1 PUSH4 0x2E5B2168 EQ PUSH2 0xB0 JUMPI DUP1 PUSH4 0x881EFF1E EQ PUSH2 0xDA JUMPI DUP1 PUSH4 0x8DA5CB5B EQ PUSH2 0x102 JUMPI PUSH2 0x90 JUMP JUMPDEST CALLDATASIZE PUSH2 0x90 JUMPI STOP JUMPDEST PUSH0 DUP1 REVERT JUMPDEST PUSH2 0xAE PUSH1 0x4 DUP1 CALLDATASIZE SUB DUP2 ADD SWAP1 PUSH2 0xA9 SWAP2 SWAP1 PUSH2 0xB48 JUMP JUMPDEST PUSH2 0x1C0 JUMP JUMPDEST STOP JUMPDEST CALLVALUE DUP1 ISZERO PUSH2 0xBB JUMPI PUSH0 DUP1 REVERT JUMPDEST POP PUSH2 0xC4 PUSH2 0x3C6 JUMP JUMPDEST PUSH1 0x40 MLOAD PUSH2 0xD1 SWAP2 SWAP1 PUSH2 0xB8B JUMP JUMPDEST PUSH1 0x40 MLOAD DUP1 SWAP2 SUB SWAP1 RETURN JUMPDEST CALLVALUE DUP1 ISZERO PUSH2 0xE5 JUMPI PUSH0 DUP1 REVERT JUMPDEST POP PUSH2 0x100 PUSH1 0x4 DUP1 CALLDATASIZE SUB DUP2 ADD SWAP1 PUSH2 0xFB SWAP2 SWAP1 PUSH2 0xBCE JUMP JUMPDEST PUSH2 0x3CC JUMP JUMPDEST STOP JUMPDEST CALLVALUE DUP1 ISZERO PUSH2 0x10D JUMPI PUSH0 DUP1 REVERT JUMPDEST POP PUSH2 0x116 PUSH2 0x463 JUMP JUMPDEST PUSH1 0x40 MLOAD PUSH2 0x123 SWAP2 SWAP1 PUSH2 0xC38 JUMP JUMPDEST PUSH1 0x40 MLOAD DUP1 SWAP2 SUB SWAP1 RETURN JUMPDEST PUSH2 0x146 PUSH1 0x4 DUP1 CALLDATASIZE SUB DUP2 ADD SWAP1 PUSH2 0x141 SWAP2 SWAP1 PUSH2 0xB48 JUMP JUMPDEST PUSH2 0x486 JUMP JUMPDEST STOP JUMPDEST CALLVALUE DUP1 ISZERO PUSH2 0x153 JUMPI PUSH0 DUP1 REVERT JUMPDEST POP PUSH2 0x15C PUSH2 0x793 JUMP JUMPDEST PUSH1 0x40 MLOAD PUSH2 0x169 SWAP2 SWAP1 PUSH2 0xB8B JUMP JUMPDEST PUSH1 0x40 MLOAD DUP1 SWAP2 SUB SWAP1 RETURN JUMPDEST PUSH2 0x17A PUSH2 0x799 JUMP JUMPDEST STOP JUMPDEST PUSH2 0x196 PUSH1 0x4 DUP1 CALLDATASIZE SUB DUP2 ADD SWAP1 PUSH2 0x191 SWAP2 SWAP1 PUSH2 0xC86 JUMP JUMPDEST PUSH2 0x79B JUMP JUMPDEST STOP JUMPDEST CALLVALUE DUP1 ISZERO PUSH2 0x1A3 JUMPI PUSH0 DUP1 REVERT JUMPDEST POP PUSH2 0x1BE PUSH1 0x4 DUP1 CALLDATASIZE SUB DUP2 ADD SWAP1 PUSH2 0x1B9 SWAP2 SWAP1 PUSH2 0xCEC JUMP JUMPDEST PUSH2 0x95A JUMP JUMPDEST STOP JUMPDEST PUSH1 0x1 DUP1 SLOAD EQ PUSH2 0x204 JUMPI PUSH1 0x40 MLOAD PUSH32 0x8C379A000000000000000000000000000000000000000000000000000000000 DUP2 MSTORE PUSH1 0x4 ADD PUSH2 0x1FB SWAP1 PUSH2 0xD84 JUMP JUMPDEST PUSH1 0x40 MLOAD DUP1 SWAP2 SUB SWAP1 REVERT JUMPDEST PUSH1 0x2 PUSH1 0x1 DUP2 SWAP1 SSTORE POP PUSH1 0x3 DUP2 PUSH1 0xFF AND LT PUSH2 0x252 JUMPI PUSH1 0x40 MLOAD PUSH32 0x8C379A000000000000000000000000000000000000000000000000000000000 DUP2 MSTORE PUSH1 0x4 ADD PUSH2 0x249 SWAP1 PUSH2 0xDEC JUMP JUMPDEST PUSH1 0x40 MLOAD DUP1 SWAP2 SUB SWAP1 REVERT JUMPDEST PUSH0 CALLVALUE SWAP1 POP PUSH0 DUP2 GT DUP1 ISZERO PUSH2 0x267 JUMPI POP PUSH1 0x2 SLOAD DUP2 GT ISZERO JUMPDEST PUSH2 0x2A6 JUMPI PUSH1 0x40 MLOAD PUSH32 0x8C379A000000000000000000000000000000000000000000000000000000000 DUP2 MSTORE PUSH1 0x4 ADD PUSH2 0x29D SWAP1 PUSH2 0xE54 JUMP JUMPDEST PUSH1 0x40 MLOAD DUP1 SWAP2 SUB SWAP1 REVERT JUMPDEST PUSH1 0x2 DUP2 PUSH2 0x2B3 SWAP2 SWAP1 PUSH2 0xE9F JUMP JUMPDEST SELFBALANCE LT ISZERO PUSH2 0x2F5 JUMPI PUSH1 0x40 MLOAD PUSH32 0x8C379A000000000000000000000000000000000000000000000000000000000 DUP2 MSTORE PUSH1 0x4 ADD PUSH2 0x2EC SWAP1 PUSH2 0xF2A JUMP JUMPDEST PUSH1 0x40 MLOAD DUP1 SWAP2 SUB SWAP1 REVERT JUMPDEST PUSH0 PUSH2 0x300 PUSH1 0x3 PUSH2 0xA72 JUMP JUMPDEST SWAP1 POP PUSH0 DUP4 PUSH1 0xFF AND DUP3 PUSH1 0xFF AND EQ SWAP1 POP DUP1 ISZERO PUSH2 0x365 JUMPI CALLER PUSH20 0xFFFFFFFFFFFFFFFFFFFFFFFFFFFFFFFFFFFFFFFF AND PUSH2 0x8FC PUSH1 0x2 DUP6 PUSH2 0x33B SWAP2 SWAP1 PUSH2 0xE9F JUMP JUMPDEST SWAP1 DUP2 ISZERO MUL SWAP1 PUSH1 0x40 MLOAD PUSH0 PUSH1 0x40 MLOAD DUP1 DUP4 SUB DUP2 DUP6 DUP9 DUP9 CALL SWAP4 POP POP POP POP ISZERO DUP1 ISZERO PUSH2 0x363 JUMPI RETURNDATASIZE PUSH0 DUP1 RETURNDATACOPY RETURNDATASIZE PUSH0 REVERT JUMPDEST POP JUMPDEST CALLER PUSH20 0xFFFFFFFFFFFFFFFFFFFFFFFFFFFFFFFFFFFFFFFF AND PUSH32 0xF8F3C747B75419BD578197D83F20823BB034BCDF041645C86BCFC9D97263A89E DUP5 DUP4 DUP6 DUP9 PUSH1 0x40 MLOAD PUSH2 0x3B1 SWAP5 SWAP4 SWAP3 SWAP2 SWAP1 PUSH2 0xF66 JUMP JUMPDEST PUSH1 0x40 MLOAD DUP1 SWAP2 SUB SWAP1 LOG2 POP POP POP PUSH1 0x1 DUP1 DUP2 SWAP1 SSTORE POP POP JUMP JUMPDEST PUSH1 0x2 SLOAD DUP2 JUMP JUMPDEST PUSH0 DUP1 SLOAD SWAP1 PUSH2 0x100 EXP SWAP1 DIV PUSH20 0xFFFFFFFFFFFFFFFFFFFFFFFFFFFFFFFFFFFFFFFF AND PUSH20 0xFFFFFFFFFFFFFFFFFFFFFFFFFFFFFFFFFFFFFFFF AND CALLER PUSH20 0xFFFFFFFFFFFFFFFFFFFFFFFFFFFFFFFFFFFFFFFF AND EQ PUSH2 0x459 JUMPI PUSH1 0x40 MLOAD PUSH32 0x8C379A000000000000000000000000000000000000000000000000000000000 DUP2 MSTORE PUSH1 0x4 ADD PUSH2 0x450 SWAP1 PUSH2 0xFF3 JUMP JUMPDEST PUSH1 0x40 MLOAD DUP1 SWAP2 SUB SWAP1 REVERT JUMPDEST DUP1 PUSH1 0x2 DUP2 SWAP1 SSTORE POP POP JUMP JUMPDEST PUSH0 DUP1 SLOAD SWAP1 PUSH2 0x100 EXP SWAP1 DIV PUSH20 0xFFFFFFFFFFFFFFFFFFFFFFFFFFFFFFFFFFFFFFFF AND DUP2 JUMP JUMPDEST PUSH1 0x1 DUP1 SLOAD EQ PUSH2 0x4CA JUMPI PUSH1 0x40 MLOAD PUSH32 0x8C379A000000000000000000000000000000000000000000000000000000000 DUP2 MSTORE PUSH1 0x4 ADD PUSH2 0x4C1 SWAP1 PUSH2 0xD84 JUMP JUMPDEST PUSH1 0x40 MLOAD DUP1 SWAP2 SUB SWAP1 REVERT JUMPDEST PUSH1 0x2 PUSH1 0x1 DUP2 SWAP1 SSTORE POP PUSH1 0x5 DUP2 PUSH1 0xFF AND LT ISZERO DUP1 ISZERO PUSH2 0x4EA JUMPI POP PUSH1 0x9 DUP2 PUSH1 0xFF AND GT ISZERO JUMPDEST PUSH2 0x529 JUMPI PUSH1 0x40 MLOAD PUSH32 0x8C379A000000000000000000000000000000000000000000000000000000000 DUP2 MSTORE PUSH1 0x4 ADD PUSH2 0x520 SWAP1 PUSH2 0x105B JUMP JUMPDEST PUSH1 0x40 MLOAD DUP1 SWAP2 SUB SWAP1 REVERT JUMPDEST PUSH0 CALLVALUE SWAP1 POP PUSH0 DUP2 GT DUP1 ISZERO PUSH2 0x53E JUMPI POP PUSH1 0x2 SLOAD DUP2 GT ISZERO JUMPDEST PUSH2 0x57D JUMPI PUSH1 0x40 MLOAD PUSH32 0x8C379A000000000000000000000000000000000000000000000000000000000 DUP2 MSTORE PUSH1 0x4 ADD PUSH2 0x574 SWAP1 PUSH2 0xE54 JUMP JUMPDEST PUSH1 0x40 MLOAD DUP1 SWAP2 SUB SWAP1 REVERT JUMPDEST PUSH1 0x2 DUP2 PUSH2 0x58A SWAP2 SWAP1 PUSH2 0xE9F JUMP JUMPDEST SELFBALANCE LT ISZERO PUSH2 0x5CC JUMPI PUSH1 0x40 MLOAD PUSH32 0x8C379A000000000000000000000000000000000000000000000000000000000 DUP2 MSTORE PUSH1 0x4 ADD PUSH2 0x5C3 SWAP1 PUSH2 0xF2A JUMP JUMPDEST PUSH1 0x40 MLOAD DUP1 SWAP2 SUB SWAP1 REVERT JUMPDEST PUSH0 PUSH2 0x5D5 PUSH2 0xAC8 JUMP JUMPDEST SWAP1 POP PUSH0 DUP1 PUSH1 0x1 SWAP1 POP PUSH0 DUP6 PUSH1 0xFF AND DUP5 PUSH1 0xFF AND SUB PUSH2 0x5F4 JUMPI PUSH1 0x1 SWAP1 POP PUSH2 0x6D5 JUMP JUMPDEST PUSH1 0x2 DUP5 PUSH1 0xFF AND EQ DUP1 PUSH2 0x609 JUMPI POP PUSH1 0x3 DUP5 PUSH1 0xFF AND EQ JUMPDEST ISZERO PUSH2 0x616 JUMPI PUSH0 SWAP1 POP PUSH2 0x6D4 JUMP JUMPDEST PUSH1 0xB DUP5 PUSH1 0xFF AND EQ DUP1 PUSH2 0x62B JUMPI POP PUSH1 0xC DUP5 PUSH1 0xFF AND EQ JUMPDEST ISZERO PUSH2 0x670 JUMPI PUSH1 0x7 DUP7 PUSH1 0xFF AND SUB PUSH2 0x643 JUMPI PUSH0 SWAP1 POP PUSH2 0x66B JUMP JUMPDEST PUSH1 0x5 DUP7 PUSH1 0xFF AND EQ DUP1 PUSH2 0x658 JUMPI POP PUSH1 0x9 DUP7 PUSH1 0xFF AND EQ JUMPDEST ISZERO PUSH2 0x666 JUMPI PUSH1 0x1 SWAP1 POP PUSH2 0x66A JUMP JUMPDEST PUSH0 SWAP1 POP JUMPDEST JUMPDEST PUSH2 0x6D3 JUMP JUMPDEST DUP4 SWAP3 POP PUSH0 JUMPDEST PUSH1 0x40 DUP2 PUSH1 0xFF AND LT ISZERO PUSH2 0x6D1 JUMPI PUSH2 0x689 PUSH2 0xAC8 JUMP JUMPDEST SWAP5 POP DUP3 DUP1 PUSH2 0x696 SWAP1 PUSH2 0x1079 JUMP JUMPDEST SWAP4 POP POP DUP4 PUSH1 0xFF AND DUP6 PUSH1 0xFF AND SUB PUSH2 0x6AF JUMPI PUSH1 0x1 SWAP2 POP PUSH2 0x6D1 JUMP JUMPDEST DUP7 PUSH1 0xFF AND DUP6 PUSH1 0xFF AND SUB PUSH2 0x6C4 JUMPI PUSH0 SWAP2 POP PUSH2 0x6D1 JUMP JUMPDEST DUP1 DUP1 PUSH1 0x1 ADD SWAP2 POP POP PUSH2 0x675 JUMP JUMPDEST POP JUMPDEST JUMPDEST JUMPDEST DUP1 ISZERO PUSH2 0x72C JUMPI CALLER PUSH20 0xFFFFFFFFFFFFFFFFFFFFFFFFFFFFFFFFFFFFFFFF AND PUSH2 0x8FC PUSH1 0x2 DUP8 PUSH2 0x702 SWAP2 SWAP1 PUSH2 0xE9F JUMP JUMPDEST SWAP1 DUP2 ISZERO MUL SWAP1 PUSH1 0x40 MLOAD PUSH0 PUSH1 0x40 MLOAD DUP1 DUP4 SUB DUP2 DUP6 DUP9 DUP9 CALL SWAP4 POP POP POP POP ISZERO DUP1 ISZERO PUSH2 0x72A JUMPI RETURNDATASIZE PUSH0 DUP1 RETURNDATACOPY RETURNDATASIZE PUSH0 REVERT JUMPDEST POP JUMPDEST CALLER PUSH20 0xFFFFFFFFFFFFFFFFFFFFFFFFFFFFFFFFFFFFFFFF AND PUSH32 0x5A08ED90CB799D1B0281213096FC06CD7E7AB84F1E2E4B8947282B4F3712B4C6 DUP7 DUP4 DUP10 DUP9 DUP9 DUP9 PUSH1 0x40 MLOAD PUSH2 0x77C SWAP7 SWAP6 SWAP5 SWAP4 SWAP3 SWAP2 SWAP1 PUSH2 0x10A1 JUMP JUMPDEST PUSH1 0x40 MLOAD DUP1 SWAP2 SUB SWAP1 LOG2 POP POP POP POP POP PUSH1 0x1 DUP1 DUP2 SWAP1 SSTORE POP POP JUMP JUMPDEST PUSH1 0x3 SLOAD DUP2 JUMP JUMPDEST JUMP JUMPDEST PUSH1 0x1 DUP1 SLOAD EQ PUSH2 0x7DF JUMPI PUSH1 0x40 MLOAD PUSH32 0x8C379A000000000000000000000000000000000000000000000000000000000 DUP2 MSTORE PUSH1 0x4 ADD PUSH2 0x7D6 SWAP1 PUSH2 0xD84 JUMP JUMPDEST PUSH1 0x40 MLOAD DUP1 SWAP2 SUB SWAP1 REVERT JUMPDEST PUSH1 0x2 PUSH1 0x1 DUP2 SWAP1 SSTORE POP PUSH0 CALLVALUE SWAP1 POP PUSH0 DUP2 GT DUP1 ISZERO PUSH2 0x7FC JUMPI POP PUSH1 0x2 SLOAD DUP2 GT ISZERO JUMPDEST PUSH2 0x83B JUMPI PUSH1 0x40 MLOAD PUSH32 0x8C379A000000000000000000000000000000000000000000000000000000000 DUP2 MSTORE PUSH1 0x4 ADD PUSH2 0x832 SWAP1 PUSH2 0xE54 JUMP JUMPDEST PUSH1 0x40 MLOAD DUP1 SWAP2 SUB SWAP1 REVERT JUMPDEST PUSH1 0x2 DUP2 PUSH2 0x848 SWAP2 SWAP1 PUSH2 0xE9F JUMP JUMPDEST SELFBALANCE LT ISZERO PUSH2 0x88A JUMPI PUSH1 0x40 MLOAD PUSH32 0x8C379A000000000000000000000000000000000000000000000000000000000 DUP2 MSTORE PUSH1 0x4 ADD PUSH2 0x881 SWAP1 PUSH2 0xF2A JUMP JUMPDEST PUSH1 0x40 MLOAD DUP1 SWAP2 SUB SWAP1 REVERT JUMPDEST PUSH0 PUSH1 0x1 PUSH2 0x897 PUSH1 0x2 PUSH2 0xA72 JUMP JUMPDEST EQ SWAP1 POP PUSH0 DUP4 ISZERO ISZERO DUP3 ISZERO ISZERO EQ SWAP1 POP DUP1 ISZERO PUSH2 0x8FB JUMPI CALLER PUSH20 0xFFFFFFFFFFFFFFFFFFFFFFFFFFFFFFFFFFFFFFFF AND PUSH2 0x8FC PUSH1 0x2 DUP6 PUSH2 0x8D1 SWAP2 SWAP1 PUSH2 0xE9F JUMP JUMPDEST SWAP1 DUP2 ISZERO MUL SWAP1 PUSH1 0x40 MLOAD PUSH0 PUSH1 0x40 MLOAD DUP1 DUP4 SUB DUP2 DUP6 DUP9 DUP9 CALL SWAP4 POP POP POP POP ISZERO DUP1 ISZERO PUSH2 0x8F9 JUMPI RETURNDATASIZE PUSH0 DUP1 RETURNDATACOPY RETURNDATASIZE PUSH0 REVERT JUMPDEST POP JUMPDEST CALLER PUSH20 0xFFFFFFFFFFFFFFFFFFFFFFFFFFFFFFFFFFFFFFFF AND PUSH32 0xE4E7F0A0E6FC393A5AF5B89EE2FE9A7267A850BBCC8EC0E4571F51A17ED1D97E DUP5 DUP4 DUP6 PUSH1 0x40 MLOAD PUSH2 0x945 SWAP4 SWAP3 SWAP2 SWAP1 PUSH2 0x1100 JUMP JUMPDEST PUSH1 0x40 MLOAD DUP1 SWAP2 SUB SWAP1 LOG2 POP POP POP PUSH1 0x1 DUP1 DUP2 SWAP1 SSTORE POP POP JUMP JUMPDEST PUSH0 DUP1 SLOAD SWAP1 PUSH2 0x100 EXP SWAP1 DIV PUSH20 0xFFFFFFFFFFFFFFFFFFFFFFFFFFFFFFFFFFFFFFFF AND PUSH20 0xFFFFFFFFFFFFFFFFFFFFFFFFFFFFFFFFFFFFFFFF AND CALLER PUSH20 0xFFFFFFFFFFFFFFFFFFFFFFFFFFFFFFFFFFFFFFFF AND EQ PUSH2 0x9E7 JUMPI PUSH1 0x40 MLOAD PUSH32 0x8C379A000000000000000000000000000000000000000000000000000000000 DUP2 MSTORE PUSH1 0x4 ADD PUSH2 0x9DE SWAP1 PUSH2 0xFF3 JUMP JUMPDEST PUSH1 0x40 MLOAD DUP1 SWAP2 SUB SWAP1 REVERT JUMPDEST DUP1 SELFBALANCE LT ISZERO PUSH2 0xA2A JUMPI PUSH1 0x40 MLOAD PUSH32 0x8C379A000000000000000000000000000000000000000000000000000000000 DUP2 MSTORE PUSH1 0x4 ADD PUSH2 0xA21 SWAP1 PUSH2 0x117F JUMP JUMPDEST PUSH1 0x40 MLOAD DUP1 SWAP2 SUB SWAP1 REVERT JUMPDEST DUP2 PUSH20 0xFFFFFFFFFFFFFFFFFFFFFFFFFFFFFFFFFFFFFFFF AND PUSH2 0x8FC DUP3 SWAP1 DUP2 ISZERO MUL SWAP1 PUSH1 0x40 MLOAD PUSH0 PUSH1 0x40 MLOAD DUP1 DUP4 SUB DUP2 DUP6 DUP9 DUP9 CALL SWAP4 POP POP POP POP ISZERO DUP1 ISZERO PUSH2 0xA6D JUMPI RETURNDATASIZE PUSH0 DUP1 RETURNDATACOPY RETURNDATASIZE PUSH0 REVERT JUMPDEST POP POP POP JUMP JUMPDEST PUSH0 DUP2 PREVRANDAO TIMESTAMP CALLER PUSH1 0x3 PUSH0 DUP2 SLOAD DUP1 SWAP3 SWAP2 SWAP1 PUSH1 0x1 ADD SWAP2 SWAP1 POP SSTORE PUSH1 0x40 MLOAD PUSH1 0x20 ADD PUSH2 0xA9A SWAP5 SWAP4 SWAP3 SWAP2 SWAP1 PUSH2 0x1202 JUMP JUMPDEST PUSH1 0x40 MLOAD PUSH1 0x20 DUP2 DUP4 SUB SUB DUP2 MSTORE SWAP1 PUSH1 0x40 MSTORE DUP1 MLOAD SWAP1 PUSH1 0x20 ADD KECCAK256 PUSH0 SHR DUP2 PUSH2 0xAC0 JUMPI PUSH2 0xABF PUSH2 0x124F JUMP JUMPDEST JUMPDEST MOD SWAP1 POP SWAP2 SWAP1 POP JUMP JUMPDEST PUSH0 DUP1 PUSH1 0x1 PUSH2 0xAD6 PUSH1 0x6 PUSH2 0xA72 JUMP JUMPDEST PUSH2 0xAE0 SWAP2 SWAP1 PUSH2 0x127C JUMP JUMPDEST SWAP1 POP PUSH0 PUSH1 0x1 PUSH2 0xAEF PUSH1 0x6 PUSH2 0xA72 JUMP JUMPDEST PUSH2 0xAF9 SWAP2 SWAP1 PUSH2 0x127C JUMP JUMPDEST SWAP1 POP DUP1 DUP3 PUSH2 0xB07 SWAP2 SWAP1 PUSH2 0x12AF JUMP JUMPDEST SWAP3 POP POP POP SWAP1 JUMP JUMPDEST PUSH0 DUP1 REVERT JUMPDEST PUSH0 PUSH1 0xFF DUP3 AND SWAP1 POP SWAP2 SWAP1 POP JUMP JUMPDEST PUSH2 0xB27 DUP2 PUSH2 0xB12 JUMP JUMPDEST DUP2 EQ PUSH2 0xB31 JUMPI PUSH0 DUP1 REVERT JUMPDEST POP JUMP JUMPDEST PUSH0 DUP2 CALLDATALOAD SWAP1 POP PUSH2 0xB42 DUP2 PUSH2 0xB1E JUMP JUMPDEST SWAP3 SWAP2 POP POP JUMP JUMPDEST PUSH0 PUSH1 0x20 DUP3 DUP5 SUB SLT ISZERO PUSH2 0xB5D JUMPI PUSH2 0xB5C PUSH2 0xB0E JUMP JUMPDEST JUMPDEST PUSH0 PUSH2 0xB6A DUP5 DUP3 DUP6 ADD PUSH2 0xB34 JUMP JUMPDEST SWAP2 POP POP SWAP3 SWAP2 POP POP JUMP JUMPDEST PUSH0 DUP2 SWAP1 POP SWAP2 SWAP1 POP JUMP JUMPDEST PUSH2 0xB85 DUP2 PUSH2 0xB73 JUMP JUMPDEST DUP3 MSTORE POP POP JUMP JUMPDEST PUSH0 PUSH1 0x20 DUP3 ADD SWAP1 POP PUSH2 0xB9E PUSH0 DUP4 ADD DUP5 PUSH2 0xB7C JUMP JUMPDEST SWAP3 SWAP2 POP POP JUMP JUMPDEST PUSH2 0xBAD DUP2 PUSH2 0xB73 JUMP JUMPDEST DUP2 EQ PUSH2 0xBB7 JUMPI PUSH0 DUP1 REVERT JUMPDEST POP JUMP JUMPDEST PUSH0 DUP2 CALLDATALOAD SWAP1 POP PUSH2 0xBC8 DUP2 PUSH2 0xBA4 JUMP JUMPDEST SWAP3 SWAP2 POP POP JUMP JUMPDEST PUSH0 PUSH1 0x20 DUP3 DUP5 SUB SLT ISZERO PUSH2 0xBE3 JUMPI PUSH2 0xBE2 PUSH2 0xB0E JUMP JUMPDEST JUMPDEST PUSH0 PUSH2 0xBF0 DUP5 DUP3 DUP6 ADD PUSH2 0xBBA JUMP JUMPDEST SWAP2 POP POP SWAP3 SWAP2 POP POP JUMP JUMPDEST PUSH0 PUSH20 0xFFFFFFFFFFFFFFFFFFFFFFFFFFFFFFFFFFFFFFFF DUP3 AND SWAP1 POP SWAP2 SWAP1 POP JUMP JUMPDEST PUSH0 PUSH2 0xC22 DUP3 PUSH2 0xBF9 JUMP JUMPDEST SWAP1 POP SWAP2 SWAP1 POP JUMP JUMPDEST PUSH2 0xC32 DUP2 PUSH2 0xC18 JUMP JUMPDEST DUP3 MSTORE POP POP JUMP JUMPDEST PUSH0 PUSH1 0x20 DUP3 ADD SWAP1 POP PUSH2 0xC4B PUSH0 DUP4 ADD DUP5 PUSH2 0xC29 JUMP JUMPDEST SWAP3 SWAP2 POP POP JUMP JUMPDEST PUSH0 DUP2 ISZERO ISZERO SWAP1 POP SWAP2 SWAP1 POP JUMP JUMPDEST PUSH2 0xC65 DUP2 PUSH2 0xC51 JUMP JUMPDEST DUP2 EQ PUSH2 0xC6F JUMPI PUSH0 DUP1 REVERT JUMPDEST POP JUMP JUMPDEST PUSH0 DUP2 CALLDATALOAD SWAP1 POP PUSH2 0xC80 DUP2 PUSH2 0xC5C JUMP JUMPDEST SWAP3 SWAP2 POP POP JUMP JUMPDEST PUSH0 PUSH1 0x20 DUP3 DUP5 SUB SLT ISZERO PUSH2 0xC9B JUMPI PUSH2 0xC9A PUSH2 0xB0E JUMP JUMPDEST JUMPDEST PUSH0 PUSH2 0xCA8 DUP5 DUP3 DUP6 ADD PUSH2 0xC72 JUMP JUMPDEST SWAP2 POP POP SWAP3 SWAP2 POP POP JUMP JUMPDEST PUSH0 PUSH2 0xCBB DUP3 PUSH2 0xBF9 JUMP JUMPDEST SWAP1 POP SWAP2 SWAP1 POP JUMP JUMPDEST PUSH2 0xCCB DUP2 PUSH2 0xCB1 JUMP JUMPDEST DUP2 EQ PUSH2 0xCD5 JUMPI PUSH0 DUP1 REVERT JUMPDEST POP JUMP JUMPDEST PUSH0 DUP2 CALLDATALOAD SWAP1 POP PUSH2 0xCE6 DUP2 PUSH2 0xCC2 JUMP JUMPDEST SWAP3 SWAP2 POP POP JUMP JUMPDEST PUSH0 DUP1 PUSH1 0x40 DUP4 DUP6 SUB SLT ISZERO PUSH2 0xD02 JUMPI PUSH2 0xD01 PUSH2 0xB0E JUMP JUMPDEST JUMPDEST PUSH0 PUSH2 0xD0F DUP6 DUP3 DUP7 ADD PUSH2 0xCD8 JUMP JUMPDEST SWAP3 POP POP PUSH1 0x20 PUSH2 0xD20 DUP6 DUP3 DUP7 ADD PUSH2 0xBBA JUMP JUMPDEST SWAP2 POP POP SWAP3 POP SWAP3 SWAP1 POP JUMP JUMPDEST PUSH0 DUP3 DUP3 MSTORE PUSH1 0x20 DUP3 ADD SWAP1 POP SWAP3 SWAP2 POP POP JUMP JUMPDEST PUSH32 0x7265656E7472616E740000000000000000000000000000000000000000000000 PUSH0 DUP3 ADD MSTORE POP JUMP JUMPDEST PUSH0 PUSH2 0xD6E PUSH1 0x9 DUP4 PUSH2 0xD2A JUMP JUMPDEST SWAP2 POP PUSH2 0xD79 DUP3 PUSH2 0xD3A JUMP JUMPDEST PUSH1 0x20 DUP3 ADD SWAP1 POP SWAP2 SWAP1 POP JUMP JUMPDEST PUSH0 PUSH1 0x20 DUP3 ADD SWAP1 POP DUP2 DUP2 SUB PUSH0 DUP4 ADD MSTORE PUSH2 0xD9B DUP2 PUSH2 0xD62 JUMP JUMPDEST SWAP1 POP SWAP2 SWAP1 POP JUMP JUMPDEST PUSH32 0x6261642067756573730000000000000000000000000000000000000000000000 PUSH0 DUP3 ADD MSTORE POP JUMP JUMPDEST PUSH0 PUSH2 0xDD6 PUSH1 0x9 DUP4 PUSH2 0xD2A JUMP JUMPDEST SWAP2 POP PUSH2 0xDE1 DUP3 PUSH2 0xDA2 JUMP JUMPDEST PUSH1 0x20 DUP3 ADD SWAP1 POP SWAP2 SWAP1 POP JUMP JUMPDEST PUSH0 PUSH1 0x20 DUP3 ADD SWAP1 POP DUP2 DUP2 SUB PUSH0 DUP4 ADD MSTORE PUSH2 0xE03 DUP2 PUSH2 0xDCA JUMP JUMPDEST SWAP1 POP SWAP2 SWAP1 POP JUMP JUMPDEST PUSH32 0x6261642077616765720000000000000000000000000000000000000000000000 PUSH0 DUP3 ADD MSTORE POP JUMP JUMPDEST PUSH0 PUSH2 0xE3E PUSH1 0x9 DUP4 PUSH2 0xD2A JUMP JUMPDEST SWAP2 POP PUSH2 0xE49 DUP3 PUSH2 0xE0A JUMP JUMPDEST PUSH1 0x20 DUP3 ADD SWAP1 POP SWAP2 SWAP1 POP JUMP JUMPDEST PUSH0 PUSH1 0x20 DUP3 ADD SWAP1 POP DUP2 DUP2 SUB PUSH0 DUP4 ADD MSTORE PUSH2 0xE6B DUP2 PUSH2 0xE32 JUMP JUMPDEST SWAP1 POP SWAP2 SWAP1 POP JUMP JUMPDEST PUSH32 0x4E487B7100000000000000000000000000000000000000000000000000000000 PUSH0 MSTORE PUSH1 0x11 PUSH1 0x4 MSTORE PUSH1 0x24 PUSH0 REVERT JUMPDEST PUSH0 PUSH2 0xEA9 DUP3 PUSH2 0xB73 JUMP JUMPDEST SWAP2 POP PUSH2 0xEB4 DUP4 PUSH2 0xB73 JUMP JUMPDEST SWAP3 POP DUP3 DUP3 MUL PUSH2 0xEC2 DUP2 PUSH2 0xB73 JUMP JUMPDEST SWAP2 POP DUP3 DUP3 DIV DUP5 EQ DUP4 ISZERO OR PUSH2 0xED9 JUMPI PUSH2 0xED8 PUSH2 0xE72 JUMP JUMPDEST JUMPDEST POP SWAP3 SWAP2 POP POP JUMP JUMPDEST PUSH32 0x62616E6B726F6C6C206C6F770000000000000000000000000000000000000000 PUSH0 DUP3 ADD MSTORE POP JUMP JUMPDEST PUSH0 PUSH2 0xF14 PUSH1 0xC DUP4 PUSH2 0xD2A JUMP JUMPDEST SWAP2 POP PUSH2 0xF1F DUP3 PUSH2 0xEE0 JUMP JUMPDEST PUSH1 0x20 DUP3 ADD SWAP1 POP SWAP2 SWAP1 POP JUMP JUMPDEST PUSH0 PUSH1 0x20 DUP3 ADD SWAP1 POP DUP2 DUP2 SUB PUSH0 DUP4 ADD MSTORE PUSH2 0xF41 DUP2 PUSH2 0xF08 JUMP JUMPDEST SWAP1 POP SWAP2 SWAP1 POP JUMP JUMPDEST PUSH2 0xF51 DUP2 PUSH2 0xC51 JUMP JUMPDEST DUP3 MSTORE POP POP JUMP JUMPDEST PUSH2 0xF60 DUP2 PUSH2 0xB12 JUMP JUMPDEST DUP3 MSTORE POP POP JUMP JUMPDEST PUSH0 PUSH1 0x80 DUP3 ADD SWAP1 POP PUSH2 0xF79 PUSH0 DUP4 ADD DUP8 PUSH2 0xB7C JUMP JUMPDEST PUSH2 0xF86 PUSH1 0x20 DUP4 ADD DUP7 PUSH2 0xF48 JUMP JUMPDEST PUSH2 0xF93 PUSH1 0x40 DUP4 ADD DUP6 PUSH2 0xF57 JUMP JUMPDEST PUSH2 0xFA0 PUSH1 0x60 DUP4 ADD DUP5 PUSH2 0xF57 JUMP JUMPDEST SWAP6 SWAP5 POP POP POP POP POP JUMP JUMPDEST PUSH32 0x6E6F74206F776E65720000000000000000000000000000000000000000000000 PUSH0 DUP3 ADD MSTORE POP JUMP JUMPDEST PUSH0 PUSH2 0xFDD PUSH1 0x9 DUP4 PUSH2 0xD2A JUMP JUMPDEST SWAP2 POP PUSH2 0xFE8 DUP3 PUSH2 0xFA9 JUMP JUMPDEST PUSH1 0x20 DUP3 ADD SWAP1 POP SWAP2 SWAP1 POP JUMP JUMPDEST PUSH0 PUSH1 0x20 DUP3 ADD SWAP1 POP DUP2 DUP2 SUB PUSH0 DUP4 ADD MSTORE PUSH2 0x100A DUP2 PUSH2 0xFD1 JUMP JUMPDEST SWAP1 POP SWAP2 SWAP1 POP JUMP JUMPDEST PUSH32 0x626164206D61696E000000000000000000000000000000000000000000000000 PUSH0 DUP3 ADD MSTORE POP JUMP JUMPDEST PUSH0 PUSH2 0x1045 PUSH1 0x8 DUP4 PUSH2 0xD2A JUMP JUMPDEST SWAP2 POP PUSH2 0x1050 DUP3 PUSH2 0x1011 JUMP JUMPDEST PUSH1 0x20 DUP3 ADD SWAP1 POP SWAP2 SWAP1 POP JUMP JUMPDEST PUSH0 PUSH1 0x20 DUP3 ADD SWAP1 POP DUP2 DUP2 SUB PUSH0 DUP4 ADD MSTORE PUSH2 0x1072 DUP2 PUSH2 0x1039 JUMP JUMPDEST SWAP1 POP SWAP2 SWAP1 POP JUMP JUMPDEST PUSH0 PUSH2 0x1083 DUP3 PUSH2 0xB12 JUMP JUMPDEST SWAP2 POP PUSH1 0xFF DUP3 SUB PUSH2 0x1096 JUMPI PUSH2 0x1095 PUSH2 0xE72 JUMP JUMPDEST JUMPDEST PUSH1 0x1 DUP3 ADD SWAP1 POP SWAP2 SWAP1 POP JUMP JUMPDEST PUSH0 PUSH1 0xC0 DUP3 ADD SWAP1 POP PUSH2 0x10B4 PUSH0 DUP4 ADD DUP10 PUSH2 0xB7C JUMP JUMPDEST PUSH2 0x10C1 PUSH1 0x20 DUP4 ADD DUP9 PUSH2 0xF48 JUMP JUMPDEST PUSH2 0x10CE PUSH1 0x40 DUP4 ADD DUP8 PUSH2 0xF57 JUMP JUMPDEST PUSH2 0x10DB PUSH1 0x60 DUP4 ADD DUP7 PUSH2 0xF57 JUMP JUMPDEST PUSH2 0x10E8 PUSH1 0x80 DUP4 ADD DUP6 PUSH2 0xF57 JUMP JUMPDEST PUSH2 0x10F5 PUSH1 0xA0 DUP4 ADD DUP5 PUSH2 0xF57 JUMP JUMPDEST SWAP8 SWAP7 POP POP POP POP POP POP POP JUMP JUMPDEST PUSH0 PUSH1 0x60 DUP3 ADD SWAP1 POP PUSH2 0x1113 PUSH0 DUP4 ADD DUP7 PUSH2 0xB7C JUMP JUMPDEST PUSH2 0x1120 PUSH1 0x20 DUP4 ADD DUP6 PUSH2 0xF48 JUMP JUMPDEST PUSH2 0x112D PUSH1 0x40 DUP4 ADD DUP5 PUSH2 0xF48 JUMP JUMPDEST SWAP5 SWAP4 POP POP POP POP JUMP JUMPDEST PUSH32 0x696E73756666696369656E740000000000000000000000000000000000000000 PUSH0 DUP3 ADD MSTORE POP JUMP JUMPDEST PUSH0 PUSH2 0x1169 PUSH1 0xC DUP4 PUSH2 0xD2A JUMP JUMPDEST SWAP2 POP PUSH2 0x1174 DUP3 PUSH2 0x1135 JUMP JUMPDEST PUSH1 0x20 DUP3 ADD SWAP1 POP SWAP2 SWAP1 POP JUMP JUMPDEST PUSH0 PUSH1 0x20 DUP3 ADD SWAP1 POP DUP2 DUP2 SUB PUSH0 DUP4 ADD MSTORE PUSH2 0x1196 DUP2 PUSH2 0x115D JUMP JUMPDEST SWAP1 POP SWAP2 SWAP1 POP JUMP JUMPDEST PUSH0 DUP2 SWAP1 POP SWAP2 SWAP1 POP JUMP JUMPDEST PUSH2 0x11B7 PUSH2 0x11B2 DUP3 PUSH2 0xB73 JUMP JUMPDEST PUSH2 0x119D JUMP JUMPDEST DUP3 MSTORE POP POP JUMP JUMPDEST PUSH0 DUP2 PUSH1 0x60 SHL SWAP1 POP SWAP2 SWAP1 POP JUMP JUMPDEST PUSH0 PUSH2 0x11D3 DUP3 PUSH2 0x11BD JUMP JUMPDEST SWAP1 POP SWAP2 SWAP1 POP JUMP JUMPDEST PUSH0 PUSH2 0x11E4 DUP3 PUSH2 0x11C9 JUMP JUMPDEST SWAP1 POP SWAP2 SWAP1 POP JUMP JUMPDEST PUSH2 0x11FC PUSH2 0x11F7 DUP3 PUSH2 0xC18 JUMP JUMPDEST PUSH2 0x11DA JUMP JUMPDEST DUP3 MSTORE POP POP JUMP JUMPDEST PUSH0 PUSH2 0x120D DUP3 DUP8 PUSH2 0x11A6 JUMP JUMPDEST PUSH1 0x20 DUP3 ADD SWAP2 POP PUSH2 0x121D DUP3 DUP7 PUSH2 0x11A6 JUMP JUMPDEST PUSH1 0x20 DUP3 ADD SWAP2 POP PUSH2 0x122D DUP3 DUP6 PUSH2 0x11EB JUMP JUMPDEST PUSH1 0x14 DUP3 ADD SWAP2 POP PUSH2 0x123D DUP3 DUP5 PUSH2 0x11A6 JUMP JUMPDEST PUSH1 0x20 DUP3 ADD SWAP2 POP DUP2 SWAP1 POP SWAP6 SWAP5 POP POP POP POP POP JUMP JUMPDEST PUSH32 0x4E487B7100000000000000000000000000000000000000000000000000000000 PUSH0 MSTORE PUSH1 0x12 PUSH1 0x4 MSTORE PUSH1 0x24 PUSH0 REVERT JUMPDEST PUSH0 PUSH2 0x1286 DUP3 PUSH2 0xB73 JUMP JUMPDEST SWAP2 POP PUSH2 0x1291 DUP4 PUSH2 0xB73 JUMP JUMPDEST SWAP3 POP DUP3 DUP3 ADD SWAP1 POP DUP1 DUP3 GT ISZERO PUSH2 0x12A9 JUMPI PUSH2 0x12A8 PUSH2 0xE72 JUMP JUMPDEST JUMPDEST SWAP3 SWAP2 POP POP JUMP JUMPDEST PUSH0 PUSH2 0x12B9 DUP3 PUSH2 0xB12 JUMP JUMPDEST SWAP2 POP PUSH2 0x12C4 DUP4 PUSH2 0xB12 JUMP JUMPDEST SWAP3 POP DUP3 DUP3 ADD SWAP1 POP PUSH1 0xFF DUP2 GT ISZERO PUSH2 0x12DD JUMPI PUSH2 0x12DC PUSH2 0xE72 JUMP JUMPDEST JUMPDEST SWAP3 SWAP2 POP POP JUMP INVALID LOG2 PUSH5 0x6970667358 0x22 SLT KECCAK256 0xE6 0xFB 0xBA 0xD8 0xF8 0xB6 PREVRANDAO 0xC9 AND CREATE 0xE6 MSTORE8 PUSH16 0x2DA3FD8A9BBDD43F83774408EB4DF76D CALLER PUSH13 0xC64736F6C6343000818003300 "
		},
		"gasEstimates": {
			"creation": {
				"codeDepositCost": "977800",
				"executionCost": "69489",
				"totalCost": "1047289"
			},
			"external": {
				"fund()": "163",
				"maxBet()": "2448",
				"nonce()": "2447",
				"owner()": "2572",
				"playCoin(bool)": "infinite",
				"playHazard(uint8)": "infinite",
				"playShell(uint8)": "infinite",
				"setMaxBet(uint256)": "24726",
				"withdraw(address,uint256)": "infinite"
			},
			"internal": {
				"_rand(uint256)": "infinite",
				"_rollSum()": "infinite"
			}
		},
		"methodIdentifiers": {
			"fund()": "b60d4288",
			"maxBet()": "2e5b2168",
			"nonce()": "affed0e0",
			"owner()": "8da5cb5b",
			"playCoin(bool)": "cafab8e7",
			"playHazard(uint8)": "91a4f2ec",
			"playShell(uint8)": "0df8b93b",
			"setMaxBet(uint256)": "881eff1e",
			"withdraw(address,uint256)": "f3fef3a3"
		}
	},
	"abi": [
		{
			"inputs": [],
			"stateMutability": "nonpayable",
			"type": "constructor"
		},
		{
			"anonymous": false,
			"inputs": [
				{
					"indexed": true,
					"internalType": "address",
					"name": "player",
					"type": "address"
				},
				{
					"indexed": false,
					"internalType": "uint256",
					"name": "wager",
					"type": "uint256"
				},
				{
					"indexed": false,
					"internalType": "bool",
					"name": "won",
					"type": "bool"
				},
				{
					"indexed": false,
					"internalType": "bool",
					"name": "resultChog",
					"type": "bool"
				}
			],
			"name": "CoinPlayed",
			"type": "event"
		},
		{
			"anonymous": false,
			"inputs": [
				{
					"indexed": true,
					"internalType": "address",
					"name": "player",
					"type": "address"
				},
				{
					"indexed": false,
					"internalType": "uint256",
					"name": "wager",
					"type": "uint256"
				},
				{
					"indexed": false,
					"internalType": "bool",
					"name": "win",
					"type": "bool"
				},
				{
					"indexed": false,
					"internalType": "uint8",
					"name": "main",
					"type": "uint8"
				},
				{
					"indexed": false,
					"internalType": "uint8",
					"name": "finalSum",
					"type": "uint8"
				},
				{
					"indexed": false,
					"internalType": "uint8",
					"name": "chance",
					"type": "uint8"
				},
				{
					"indexed": false,
					"internalType": "uint8",
					"name": "iterations",
					"type": "uint8"
				}
			],
			"name": "HazardPlayed",
			"type": "event"
		},
		{
			"anonymous": false,
			"inputs": [
				{
					"indexed": true,
					"internalType": "address",
					"name": "player",
					"type": "address"
				},
				{
					"indexed": false,
					"internalType": "uint256",
					"name": "wager",
					"type": "uint256"
				},
				{
					"indexed": false,
					"internalType": "bool",
					"name": "won",
					"type": "bool"
				},
				{
					"indexed": false,
					"internalType": "uint8",
					"name": "winningCup",
					"type": "uint8"
				},
				{
					"indexed": false,
					"internalType": "uint8",
					"name": "guess",
					"type": "uint8"
				}
			],
			"name": "ShellPlayed",
			"type": "event"
		},
		{
			"inputs": [],
			"name": "fund",
			"outputs": [],
			"stateMutability": "payable",
			"type": "function"
		},
		{
			"inputs": [],
			"name": "maxBet",
			"outputs": [
				{
					"internalType": "uint256",
					"name": "",
					"type": "uint256"
				}
			],
			"stateMutability": "view",
			"type": "function"
		},
		{
			"inputs": [],
			"name": "nonce",
			"outputs": [
				{
					"internalType": "uint256",
					"name": "",
					"type": "uint256"
				}
			],
			"stateMutability": "view",
			"type": "function"
		},
		{
			"inputs": [],
			"name": "owner",
			"outputs": [
				{
					"internalType": "address",
					"name": "",
					"type": "address"
				}
			],
			"stateMutability": "view",
			"type": "function"
		},
		{
			"inputs": [
				{
					"internalType": "bool",
					"name": "chooseChog",
					"type": "bool"
				}
			],
			"name": "playCoin",
			"outputs": [],
			"stateMutability": "payable",
			"type": "function"
		},
		{
			"inputs": [
				{
					"internalType": "uint8",
					"name": "main",
					"type": "uint8"
				}
			],
			"name": "playHazard",
			"outputs": [],
			"stateMutability": "payable",
			"type": "function"
		},
		{
			"inputs": [
				{
					"internalType": "uint8",
					"name": "guess",
					"type": "uint8"
				}
			],
			"name": "playShell",
			"outputs": [],
			"stateMutability": "payable",
			"type": "function"
		},
		{
			"inputs": [
				{
					"internalType": "uint256",
					"name": "_max",
					"type": "uint256"
				}
			],
			"name": "setMaxBet",
			"outputs": [],
			"stateMutability": "nonpayable",
			"type": "function"
		},
		{
			"inputs": [
				{
					"internalType": "address payable",
					"name": "to",
					"type": "address"
				},
				{
					"internalType": "uint256",
					"name": "amount",
					"type": "uint256"
				}
			],
			"name": "withdraw",
			"outputs": [],
			"stateMutability": "nonpayable",
			"type": "function"
		},
		{
			"stateMutability": "payable",
			"type": "receive"
		}
	]
}